:020000040000FA
:0600000002011D02218730
:03002B00021DAA09
:030053000221FA8D
:03006B00021D84EF
:1000830002203BE5C754F84401F5C779012200007B
:100093000080FB120086B90003020107E47921788E
:1000A30008B800028004F709D8FCE479297802B87B
:1000B30000028004F709D8FCE490028178327909C0
:1000C3008002F0A3D8FCD9FA781A90014D7A01BACC
:1000D30000028007E493A3F608DAF9900AB2AA8231
:1000E300AB8390014E780679038015E493A3AC8229
:1000F300AD838A828B83F0A3AA82AB838C828D83A8
:10010300D8E9D9E77582687583AA740312012F753C
:100113008291758300740012012F75D00075813FA1
:10012300751881751902759F00020096C09FF59F8F
:10013300E473D09F22D083D082C09FE493C0E07445
:100143000193C0E0740293F59F220101FFFF0201B6
:100153000603020D180708434D5F48524D434D20D7
:1001630048656172742052617465204D6F6E6974C5
:100173006F727D03000083038F03FFFFBB001264D4
:1001830002DF81010000C98102DB81010000E50A71
:1001930002FB81010000E60A02D981030000350455
:1001A30002020202DF81010000CC8102DB81010037
:1001B30000070B02F5810100003D0402DB81010011
:1001C30000080B02F381010000B18002DB81010012
:1001D30000090B02F181010000CC8010020802DF4C
:1001E30081010000CF8102DB81010000420B02EBA1
:1001F30081000000470402D981030000480402DBA8
:1002030081010000430B02E9810100004E0402DB7F
:1002130081010000440B02E7810200004F0401E862
:1002230003053F10FF0001307503020106000000C3
:1002330000000000000000000000000000000000BB
:10024300000000000000000000FFFF0600800CE833
:1002530003FF0000B4000028002800283075A00028
:10026300A000A000A00000080008E001F0001000BA
:10027300100010001000100010005000500050003B
:1002830010001000D0070000000000000F00010064
:100293000500307507001000010081FF0000FFA773
:1002A30009C509AD09FF02020208025000A00000BF
:1002B30000E80302DF81010000C68102DB81010047
:1002C300000D0C02D781010000090602DB81010049
:1002D300000E0C02D5810100001F0602DB81010024
:1002E300000F0C02FF81010000210602DB810100E7
:1002F30000100C02E581080000220602DB810100E8
:1003030000110C02EF81010000120CFF0100FF201D
:1003130002DF81010000D28102DB81010000760C43
:1003230002F981000000000002D9810300006F067A
:100333007D0F7D0F7D0F7D0F7D0F7D0F7D0F7D0F5A
:100343007D0F7D0F7D0F7D0F7D0F0B122312051285
:10035300120138518E03120138868E031201389927
:100363008E03120138A98E031201383E9003120145
:1003730038008003120138FF8103120138B482036D
:100383001201385F8303120138948303120138ACDE
:10039300830312013816AB03120138D399031201F8
:1003A30038DF9903120138249A031201382F9A0374
:1003B300120138379A031201384A9A031201386539
:1003C3009A031201388E9A03120138A79A03120175
:1003D30038F19A03120138FF9A031201384E9B0336
:1003E3001201388AD50212013894D502120138D588
:1003F300D5021201381ED60212013858D602120154
:1004030038AED602120138CFD602120138D8D6023E
:100413001201382CD70212013855D7021201385F66
:10042300D702120138CDD7021201385DD80212016A
:1004330038B8D802120138E6D8021201386ED90250
:10044300120138ADD902120138E2D902120138F48F
:10045300D90212013813DA021201381CDA0212012E
:1004630038E3DA0212013809AA03120138DDA303C3
:10047300120138D39B03120138099C031201383D42
:100483009C031201388A9D03120138F9A703120154
:10049300380FA80312013819A80312013863A803FF
:1004A30012013889E9021201389CE9021201385D10
:1004B300EA021201389CEA02120138B9EA02120177
:1004C30038F2EA021201383FEB0212013871EB02F3
:1004D300120138A8EB02120138B1ED02120138D42F
:1004E300A403120138F7A40312013826A50312014D
:1004F3003868A5031201384FAE0212013856AE0216
:100503001201385DAE0212013818B402120138E844
:10051300B40212013851B50212013877B602120142
:100523003872F202120138EDF20212013837F30287
:100533001201385CF40212013871F502120138F32A
:10054300F50212013838FD011201387DFD01120157
:100553003892FD01120138ECFD0112013876FE01DB
:1005630012013821FF0112013858FF0112013863CB
:100573007E00120138887E00120138B87E00120115
:10058300385B9503120138A09503120138B3950324
:10059300120138CF95031201380D96031201387CEE
:1005A3009603120138669703120138C0AA03120199
:1005B30038028201120138E083011201387F85017C
:1005C3001201382A8601120138AA86011201382F36
:1005D3008701120138588701120138338B01120148
:1005E30038AA8B01120138C18C01120138FB8C012E
:1005F3001201383C8D01120138838E01120138D962
:100603008E01120138228F01120138918F011201DC
:1006130038FD8F011201382E9001120138469001E6
:100623001201385F91011201386F910112013825CF
:1006330093011201383C93011201386E93011201A8
:1006430038109501120138A4950112013888A603C8
:1006530012013894A60312013831A703120138B0EE
:10066300FF01120138EFFF01120138E67F0012018A
:100673003843A70312013853A70312013862A703B3
:10068300120138F3A703120138FCFE02120138816C
:10069300FF02120138E5FF02120138F9FF011201CE
:1006A3003896AB03120138A6AB03120138A9AB038A
:1006B300120138F87F001201389F9703120138297D
:1006C30099031201388A9903120138D09903120150
:1006D3003895A903120138C6A903120138F3A903F7
:1006E30012013830A10312013882A103120138F537
:1006F300A10312013862A2031201381493031201F9
:10070300383E93031201380D9403120138E9940320
:100713001201382BBF02120138F7BF021201383819
:10072300C00212013872C002120138D0C002120195
:100733003824C10212013882C10212013818C202E0
:1007430012013820C302120138AAC4021201384828
:10075300C502120138AFC502120138C2C502120127
:1007630038B6C602120138FFC60212013849F00139
:100773001201387BF3011201380CF50112013863C1
:10078300F50112013880F50112013800F60112015A
:10079300387CF7011201384BF801120138B8FB011C
:1007A300120138A2FC011201387D9F031201389413
:1007B3009F03120138C39F03120138FC9F031201E8
:1007C3003824A00312013852A00312013869A00390
:1007D30012013880A00312013896A003120138BD1C
:1007E300A003120138D0A003120138E6A0031201BE
:1007F30038F9A0031201381EA10312013811A40213
:1008030012013810A50212013845A50212013866FB
:10081300A50212013876A50212013897A50212012A
:1008230038A3A60212013870A702120138E3A70207
:1008330012013869A802120138ACA802120138E388
:10084300A80212013869A9021201383BAA02120157
:100853003899AA02120138B1AA021201382BAB024D
:100863001201382EAB0212013831AB02120138D813
:10087300AB02120138F0AB0212013820AC021201B4
:100883003840AC021201382EAD02120138E4AD0239
:10089300120138E1E40212013809E5021201383786
:1008A300E5021201386EE502120138D6E5021201A3
:1008B300381FE6021201386AE602120138A8E6027E
:1008C300120138E5E60212013813E702120138BAC1
:1008D300E702120138C4E702120138D1E70212011C
:1008E3003804E802120138C6E802120138D2E802DD
:1008F300120138EAE802120138F4E802120138B1B1
:10090300A503120138BFA503120138D7A5031201AD
:1009130038EFA50312013893A90112013831AA0156
:10092300120138A9AA01120138BEAB01120138F82D
:10093300AB01120138A1AC0112013876AD011201ED
:1009430038DAAE0112013831AF01120138B8AF0104
:100953001201389FB001120138ECB0011201387A4C
:10096300B1011201389EB10112013873B3011201B2
:1009730038B4B301120138D6B30112013857B401A8
:1009830012013841B50112013807B6011201387E50
:10099300CE0212013850CF02120138F9CF021201F0
:1009A300383CD002120138C9D00212013855D102A5
:1009B30012013836D20212013865D20212013861AF
:1009C300D302120138A9D302120138ABD4021201A7
:1009D30038EFD40212013815D5021201388FA8035B
:1009E300120138E98303120138FF8303120138250A
:1009F30084031201384D8503120138578503120110
:100A030038B08603120138B0870312013811DB02B4
:100A130012013846DC0212013879DC02120138C3B4
:100A2300DC0212013881DE02120138066F00120166
:100A330038696F00120138AE7000120138BE7000C1
:100A4300120138E170001201382C7100120138D103
:100A53007100120138C7720012013891730012013C
:100A6300380975001201384B7500120138E9750019
:100A73001201383676001201385C76001201384ACA
:100A830078001201384F7800120138307A001201D1
:100A930038847A00120138E67A001201380E7B009E
:100AA300120138B27B00120138747C00120138A5A0
:100AB3007C00120138A87C00120138F07C0012017E
:100AC30038327D00120138997D00120138BE90033F
:100AD300120138D19003120138EA9003120138351C
:100AE30091031201381092031201389F92031201ED
:100AF30038EA92031201388C280012013898280032
:100B0300120138D12800120138162900120138CDFC
:100B13002900120138532A001201387F2A001201DA
:100B230038B82A00120138CC2C00120138A82E0044
:100B3300120138933000120138CA31001201382AE9
:100B430034001201381635001201385C36001201E8
:100B530038693700120138863700120138BE370072
:100B6300120138D83700120138403800120138DA40
:100B73003C001201387B3D00120138CC3D001201CC
:100B830038F33D00120138413E001201385F3E0048
:100B9300120138B33E00120138BB3F001201384343
:100BA300400012013837E00212013841E00212011D
:100BB300380CE10212013827E1021201384DE1023B
:100BC30012013891E102120138C9E102120138F22F
:100BD300E1021201386BE20212013880E2021201D3
:100BE3003895E202120138CCE202120138E0E20247
:100BF30012013811E3021201384BE3021201387774
:100C0300E302120138CDE30212013821E40212019A
:100C1300386AE40212013894E402120138B9E4029A
:100C230012013810FB02120138DAFB02120138BD3F
:100C3300FC0212013833FD0212013875FD02120164
:100C430038A2FE0212013800800212013829800204
:100C5300120138428002120138878102120138657D
:100C630082021201388482021201381183021201B6
:100C730038548302120138A18402120138408502DC
:100C8300120138BF87021201385688021201382A2E
:100C930089021201380C8A02120138788B02120180
:100CA300380B8C02120138C8A20312013831A30396
:100CB30012013885A303120138ACA3031201381DB6
:100CC300EE021201388AEE02120138D5EE02120149
:100CD30038CAEF02120138C6F002120138B0F1022D
:100CE300120138BDB602120138FFB602120138D91B
:100CF300B702120138B2B802120138ADB9021201BB
:100D0300388CBA02120138F8BA02120138BFBB029A
:100D13001201382ABC0212013891BC02120138BCFC
:100D2300BC021201382DBD02120138C0BD021201EE
:100D33003829BE021201383EBE0212013886BE02B5
:100D43001201389FBE0212013804BF021201380794
:100D5300BF02120138578B031201387F8B03120134
:100D630038BD8B031201387B8C03120138E68C03E8
:100D7300120138028D031201382A8D031201385AE9
:100D83008D03120138698D03120138E38D031201BB
:100D930038098E03120138BAC60112013897C80107
:100DA30012013892CA0112013865CB01120138B021
:100DB300CB01120138FBCB011201380DCC0112011A
:100DC300384DCC0112013882CC01120138CECC014E
:100DD300120138FDCC0112013820CD011201386D0A
:100DE300CD01120138F6CD0112013803D0011201F1
:100DF30038EED10112013831D20112013896D301F4
:100E0300120138D7D3011201384AD401120138969E
:100E1300D401120138C1D401120138828C021201AB
:100E230038AD8C02120138949302120138B895023E
:100E3300120138739702120138D09802120138AAAE
:100E430040001201384141001201386E4100120185
:100E530038B44100120138F342001201388A4400C9
:100E63001201380445001201381F4500120138945D
:100E73004500120138C346001201381E4800120112
:100E8300382049001201387D4A00120138964A0081
:100E9300120138F34A00120138D54B001201380809
:100EA3004C00120138784C00120138F24C00120148
:100EB30038414D001201380D4E00120138124F0017
:100EC300120138F14F001201387C5000120138EA48
:100ED30050001201385E510012013887510012018F
:100EE30038465200120138C05300120138DD530056
:100EF300120138FC53001201388D5400120138B22C
:100F03005400120138DA5400120138555500120109
:100F130038AF5500120138035700120138C057008B
:100F2300120138935800120138EBD4011201383BF7
:100F3300D50112013847D50112013824D601120117
:100F43003854D6011201388CD6011201380BD7015F
:100F530012013843D70112013895D701120138D253
:100F6300D701120138F7D90112013823DC0112012C
:100F7300381EDE01120138F9DF01120138FCFF01CE
:100F8300120138E295011201382C96011201380B37
:100F93009C011201388C9D01120138EBA30112014F
:100FA30038E6A40112013823A50112013846A50130
:100FB30012013888A50112013891A5011201389B4D
:100FC300A50112013887A6011201387BA70112017E
:100FD30038C158001201383963001201383F6300E9
:100FE3001201384B6A00120138BA870312013850D4
:100FF3008803120138668803120138E0880312015E
:1010030038368903120138748903120138D18903F0
:101013001201384E8A03120138578A0312013863CA
:101023008A03120138768A03120138B28A03120145
:1010330038C88A03120138278B03120138C4F60219
:10104300120138D1F602120138EBF6021201382AE6
:10105300F70212013868F702120138CDF7021201C4
:1010630038E2F702120138EDF702120138FAF702FB
:1010730012013811F8021201381FF8021201382A3E
:10108300F80212013836F80212013845F80212014B
:101093003850F80212013873F8021201381CF902B1
:1010A3001201382CF90212013846F9021201386391
:1010B300F9021201387FF902120138A4F902120170
:1010C30038AEF902120138C2F902120138E1F9020D
:1010D30012013842FA0212013848FA021201384E5C
:1010E300FA0212013854FA0212013860FA021201AC
:1010F3003893FA02120138BFE20112013841E301C9
:10110300120138EAE30112013832E50112013840D5
:10111300E70112013826E8011201385BE8011201E8
:10112300387DE80112013826E901120138F6EA0197
:101133001201381FEB0112013897EB01120138C974
:10114300EB01120138D6EB0112013821EC01120137
:101153003845EC0112013896EE01120138A0EF0177
:10116300120138FCEF011201383CB8011201384D6D
:10117300B90112013831BA011201383BBA01120127
:10118300385DBA0112013869BA011201380DBC0188
:101193001201383ABC0112013850BD01120138A5C1
:1011A300BD01120138F4BE01120138C9BF01120199
:1011B3003825C00112013890C001120138C5C001A1
:1011C30012013808C101120138D2C301120138EAF1
:1011D300C3011201387BC40112013889C401120111
:1011E30038D6C401120138E4C40112013850C501D4
:1011F300120138CBC50112013822C601120138F39E
:101203009802120138159902120138269B02120125
:1012130038E59D021201380F9F02120138CD9F025B
:10122300120138B9A002120138C49D03120138E932
:101233009D031201385F9E0312013861C702120138
:10124300386AC70212013873C7021201384BC80249
:10125300120138FCC9021201382CCA021201385794
:10126300CA0212013887CA02120138B2CA02120135
:1012730038E6CA0212013812CB0212013855CB02EA
:1012830012013880CB02120138C7CB021201381C7D
:10129300CC021201385ECC02120138B8CC02120122
:1012A30038E3CC0212013832CD0212013862CD028A
:1012B3001201388DCD02120138BBCD02120138DE86
:1012C300CD0212013818A90312013844A9031201EF
:1012D3003871A9031201387BA9031201388BA903C2
:1012E3001201384BAB0312013878AB03E066701080
:1012F30008A3E066700A08A3E066700408A3E0662A
:1013030022C008C3E096F50808A3E096420808A3A4
:10131300E096420808A3E0964208A2D265D033E5DE
:10132300087001D3D00822C3E7960809E796080995
:10133300E7960809E79622C3E09608A3E09608A378
:10134300E09608A3E09622C008C3E096F50808A338
:10135300E096420808A3E096420808A3E0964508F1
:101363007001D3D00822080808E630E7111217A449
:10137300121381080808C64480C6181818221818C2
:1013830018E9799EC608CAC608CBC608CCC6C3707E
:10139300207996CACBCC7019798ECBCC7013798611
:1013A300CC700EF9802ACA33CACB33CBCC33CC33BF
:1013B3001930E7F2CCCBCA3350147004EA30E00D95
:1013C300E4CA3ACACB3BCBCC3CCC500209C3E913A9
:1013D300C6CC182313C6CB18C6CA18C6F9221214D2
:1013E3002120F01430E72B74FFFCFBFA747F80227A
:1013F300E4FCFBFA7480801AB48008BC00F2BB00E2
:10140300EF800F50EBF9E4C39AFAE49BFBE49CFCF6
:10141300E499C6CC18C6CB18C6CA18C6F922E4C9C3
:10142300C608CAC608CBC6D3330308CCC63392F06A
:10143300C3947F402E94184019C9B90704CACBCC72
:10144300225025C309CA33CACB33CBCC33CC33D9CF
:10145300F422F4600DC9CCC313CB13CBCA13CAD97E
:10146300F6CC22E4FCFBFA2214FCFBFA22E6C3339B
:1014730018461846184622E7C33319471947194730
:1014830022181818E6084608700AE608C3337005E0
:10149300E633F4220822191919E7094709700AE704
:1014A30009C3337005E733F4220922E6084608C36B
:1014B300134608336002E633F422E7094709C313EE
:1014C3004709336002E733F422001214AE604F126F
:1014D30014BD6012E7548066F6121484701112145E
:1014E3007A703B090909F4F618F618F618F6221271
:1014F3001499701512147008080860EAE6447FF620
:1015030018768018E4F618F6221214706016121476
:101513007A7012E4F608F608F608E65480F609092C
:101523000918181822EAC0E0EBC0E0ECC0E0EDC0F7
:10153300E0E687F0A4FBACF008E687F0A42CFCE41B
:1015430035F0FA1809E687F0A42C4B60027401CA3F
:1015530035F0FCE433FB09E687F0D2F7A42CCB3556
:10156300F0FC1908E687F0A42BCC35F0FBE433FD3F
:101573000819E687F0D2E7A42C4ACB35F0CD340026
:10158300FC09E687F0D2E7A42DCC35F0FDE433FA6D
:101593000918E687F0D2F7A42CCD35F0CA3400FC45
:1015A30008E687F0D2E7D2F7A42ACC35F07A7E207A
:1015B300E70B0ACB33CBCD33CDCC33CC33CB33504A
:1015C300147004ED30E00ED2F1E4CD3DCDCC3CCC33
:1015D3003B5005DA05C2F1EB547FC63308E633927C
:1015E300F0FBE73309E733C39A502D2B70190C0D29
:1015F3004C4D70151806E608C333700D20F10AA28E
:10160300F013F6E418800B4024E4F630F002768001
:1016130018F618F618F68024D33B14501074FFA262
:10162300F013F6187680E418F618F6800FA2F0137C
:10163300F618E63303F618ECF618EDF6D0E0FDD015
:10164300E0FCD0E0FBD0E0FA22080808EAC0E0EBB7
:10165300C0E086F0E7A4FA180986F0E7A42AFA188E
:101663000986F0E7A42AFA180986F0E7A42AFA19EA
:1016730086F0E7A4FBE5F02AFA190886F0E7A42B25
:10168300FBE5F03AFA190886F0E7A42BFBE5F03AFC
:10169300FA18180986F0E7A4C5F02BFBE43AFA1907
:1016A30008E7C5F0C6A426F6E5F03BFBE43AFA18D2
:1016B30086F0E7A4F6E5F00826F6E43B08F6E43AFC
:1016C30008F6D0E0FBD0E0FA22E4CFC0E0E4CEC0DD
:1016D300E0E4CDC0E0E4CCC0E075F020C3E633F62F
:1016E30008E633F608E633F608E633F6181818EC7E
:1016F30033FCED33FDEE33FEEF33FFC3EC9709ED1F
:101703009709EE9709EF97191919400FFFEC97FC0A
:1017130009ED97FD09EE97FE191906D5F0BEECF712
:1017230009EDF709EEF709EFF7191919D0E0FCD025
:10173300E0FDD0E0FED0E0FF221217A71818181220
:1017430016CC12179319191922121793191919087C
:101753000808E618181820E7E01216CC1217A71885
:10176300181822090909E719191920E7DC080808DC
:10177300E618181820E7030216CC1217A718181832
:101783001216CC1217A71818181217931919192221
:10179300E4C397F709E497F709E497F709E497F7A0
:1017A30022181818E4C396F608E496F608E496F6A9
:1017B30008E496F6226017080808C6A2E713C618BD
:1017C300C613C618C613C618C613C6D5E0E92260E9
:1017D30016080808C6C313C618C613C618C613C608
:1017E30018C613C6D5E0EA22700908080822601655
:1017F300181818C6C333C608C633C608C633C60886
:10180300C633C6D5E0EA22E627F60809E637F60826
:1018130009E637F60809E637F622E026F608A3E0DC
:1018230036F608A3E036F608A3E036F622E026F003
:1018330008A3E036F008A3E036F008A3E036F02270
:10184300C3E697F60809E697F60809E697F6080946
:10185300E697F622C3E0C696F608A3E0C696F60816
:10186300A3E0C696F608A3E0C696F622C3E096F078
:1018730008A3E096F008A3E096F008A3E096F02210
:10188300E056F608A3E056F608A3E056F608A3E0F0
:1018930056F622E056F008A3E056F008A3E056F00F
:1018A30008A3E056F022E0F608A3E0F608A3E0F66A
:1018B30008A3E0F622E6F008A3E6F008A3E6F008A2
:1018C300A3E6F022E0FAA3E0FBA3E0FCA3E0FD2201
:1018D300EAF0A3EBF0A3ECF0A3EDF022CAC0E0E63C
:1018E300F0A308DAFAD0E0FA22CAC0E0E0A3C58286
:1018F300CCC582C583CDC583F0A3C582CCC582C5C3
:1019030083CDC583DAE6D0E0CA22C3E498F8E4992C
:10191300F912194E8026C3E49AFAE49BFBE920E707
:10192300E912194EE498F8E499F922C3E498F8E42B
:1019330099F912194EE498F8E499F9C3E49AFAE490
:101943009BFB22EB20E7CFE920E7E0B90010BB00C7
:1019530008E88AF084F8AAF022E4FBC8FA22EB70C4
:10196300227B10C833C8C933C9335007C39AC3DBBA
:10197300F280069A50012ADBEAC833F4C8C933F46B
:10198300C9FA2275F008E4C833C8C933C933C99A00
:10199300C99B5004C92AC93BD5F0ECFBC833F4C832
:1019A300E4C9FA22600D08C6A2E713C618C613C617
:1019B300D5E0F322600C08C6C313C618C613C6D5F8
:1019C300E0F422700422600D18C6C333C608C63380
:1019D300C6D5E0F41822251810AF08F518400215F3
:1019E300198008F51840021519D2AF22C0D0251866
:1019F30010AF08F518500205198008F518500205B4
:101A030019D2AFD0D0222518F58210AF08F51840AF
:101A13000215198008F51840021519D2AF851983EC
:101A2300222518F582E43519F58322E4732518C5B8
:101A330082C0E0E51934FFC583C0E0E518C3958291
:101A430024F810AF088583198582188008858319C7
:101A5300858218D2AFCEF0A3E520F0A37808E6087C
:101A6300F0A3DEFAEFF0A3E58124FAF8E608F0A389
:101A7300E608F0A3E608F0A30808E608F0A3E608E2
:101A8300F0A315811581D0E0FED0E0F81581158112
:101A93001581E8C0E0EEC0E0222518C582C0E0E56C
:101AA3001934FFC583C0E0E518C3958224F910AF4C
:101AB300088583198582188008858319858218D241
:101AC300AFCEF0A3E520F0A37808E608F0A3DEFA92
:101AD300EFF0A3E58124FBF8E608F0A3E608F0A302
:101AE3000808E608F0A3E608F0A315811581D0E005
:101AF300FED0E0F815811581E8C0E0EEC0E0228554
:101B03001983851882E0A3FEE0A3F5207808E0A3FB
:101B1300F608DFFAE0A3FFE0A3C0E0E0A3C0E0E043
:101B2300A3C0E0E0A3C0E0E0A3C0E010AF0885825B
:101B3300188583198008858218858319D2AFD083CD
:101B4300D082020135851983851882E0A3FEE0A3C4
:101B5300F5207808E0A3F608DFFAE0A3FFE0A3C0CE
:101B6300E0E0A3C0E0E0A3C0E0E0A3C0E010AF0862
:101B73008582188583198008858218858319D2AFD9
:101B8300D083D08222C0D02518C582C0E0E51934A5
:101B9300FFC583C0E0E518C3958224F310AF088521
:101BA30083198582188008858319858218D2AFC866
:101BB300F0A3E9F0A3EAF0A3EBF0A37908E709F0B7
:101BC300A3D8FAECF0A3EDF0A3EEF0A3EFF0A3D0CB
:101BD300E0F0A3D0E0F0A3D0E0F0A3E520F0A3E58C
:101BE300F0F0A322851983851882E0C0E0A3E0F911
:101BF300A3E0FAA3E0FBA37808E0F608A3DFFAE08A
:101C0300FCA3E0FDA3E0FEA3E0FFA3E0C0E0A3E0AC
:101C1300C0E0A3E0F5D0A3E0F520A3E0A3F5F01026
:101C2300AF088583198582188008858319858218F2
:101C3300D2AFD082D083D0E0F8D0E03274048006F3
:101C4300740280027401C0E0F404121A09D0E01295
:101C530018DF227404800474028000CCC0E0EDC05D
:101C6300E0E518C39CCCAD1950011D10AF068C18CC
:101C73008D1980068C188D19D2AF1218ECD0E0FDA7
:101C8300D0E0FC22D083D082E9C0E0E493A3C386F2
:101C9300F0C5F095F0F908E493A386F0C5F095F04C
:101CA300700BE493A3C3994005E9048002A3E47590
:101CB300F002A42582F582E5F03583F583D0E0F9BF
:101CC300E493A3C0E0E493C0E022D083D082ECC0CD
:101CD300E0EDC0E0E493A3FCE493A3FDED4C600DC1
:101CE300121D19EC24FFFCED34FFFD80EFE493A3F8
:101CF300FCE493A3FDED4C600D121D58EC24FFFC96
:101D0300ED34FFFD80EFD0E0FDD0E0FCE493A3C011
:101D1300E0E493C0E022C0E0C3E493960874019327
:101D23009618400FE4936670080874019366187060
:101D3300007019A3A3C3E49396087401939618A3A0
:101D4300A3400DD0E0D0E0D0E0021D09A3A3A3A3DC
:101D5300A3A3D0E022C0E0C0F088F0E4936670084B
:101D63000874019366187000A8F0A3A3700BD0F059
:101D7300D0E0D0E0D0E0021D09A3A3D0F0D0E02250
:101D8400C0E074F2121B88A2AFE433FEC2AFE5894F
:101D9400A2E150085389FDC2C51203DDEEA2E09210
:101DA400AF7F01021BE7C0E0C0D0E8C0E0E5A8D2E5
:101DB400AFC2C7751A00A2E792AFD0E0F8D0D0D076
:101DC400E03274F5121A9CEAFEEBFFEE2434F8EFCD
:101DD4003400F988088909EE2435F582EF3400F5DA
:101DE40083E0F8EE2437F582EF3400F583E0F50A5A
:101DF400EC850AF0A4FCAAF0850AF0EDA42AFDE81B
:101E04002CF8E43DF97A257B0012194EEA85088204
:101E1400850983F05407F87401B800028004C333C1
:101E2400D8FCC0E0E0131313541FF8EE28F8EF3485
:101E340000F9E8245DF582E93400F583D0E0F8E0A8
:101E4400586008EE2434F582EF801EEE2436F582C5
:101E5400EF3400F583E0F5F0EA84A8F0EE28F8EF1B
:101E64003400F9E82438F582E93400F583E0F97F99
:101E740004021B4874F5121A9CEAFEEBFFEE2434AC
:101E8400F582EF3400F583E0C0E0EE2435F582EF0F
:101E94003400F583D0E0F08E828F83A3A3A3A3A3A1
:101EA400A3A3C082C0838E828F83A3A3A3A3A3E032
:101EB400F8A3E0F9D083D082E0C398F508A3E099B1
:101EC400F509EE2480F582EF3400F583E0640170B7
:101ED40069EE2481F582EF3400F583E0F8A3E0F99C
:101EE4008E828F83A3A3A3A3A3A3A3E0FCA3E0FDFB
:101EF4008E828F83A3A3A3A3A3E0FAA3E0FBC3EA88
:101F04009CEB9D5027C3EC98ED99402EC3EA98EBC7
:101F14009950277C547D08EEFAEFFB120EDBEE2479
:101F240080F582EF3400F583E4F0800EC3EA98EB89
:101F34009940E0C3EC98ED9950D9EE2434F8EF348D
:101F440000F9E8FCE9FDEE2435F582EF3400F58371
:101F5400E0F8EE2437F582EF3400F583E0F50AE586
:101F640008850AF0A4F508AAF0850AF0E509A42A70
:101F7400F509E82508F8E43509F97A257B001219F2
:101F84004EEA8C828D83F05407F87401B800028005
:101F940004C333D8FCC0E0E0131313541FF8EE2835
:101FA400F8EF3400F9E8245DF582E93400F583D0D4
:101FB400E0F8E0586008EE2434F582EF801EEE2449
:101FC40036F582EF3400F583E0F5F0EA84A8F0EE0C
:101FD40028F8EF3400F9E82438F582E93400F58371
:101FE400E0F9122875021E73C082C08385188285A9
:101FF4001983E0F8A3E0F9C3EA9CEB9D5012C3EC0B
:1020040098ED994019C3EA98EB9950127901801020
:10201400C3EA98EB9940F5C3EC98ED9950EE79003A
:10202400D083D08222EAC39CFAEB9DFB22000000FD
:102034008521878522C622C0E0C0D0E8C0E0E9C07F
:10204400E0EAC0E0EBC0E0ECC0E0EDC0E0C008C0F6
:1020540009C00AC00BC082C083C0F0759B009061A8
:1020640082E0A2E64003022119E591A2E6400302C0
:1020740021197591BF900719E064057008121013B7
:1020840012101F8003121019752100121079E990A3
:10209400071AF0790012106D120E517A017B00902C
:1020A4000718E0F912043D907803E06442600302EB
:1020B40021629008B6E014F06003022162C2AF12FC
:1020C40020C600782AD0E0F618D0E0F6E59F540741
:1020D400F97005908152800390814E78081218A9F6
:1020E400E9C4C0E07829E65508F50808E65509F57D
:1020F40009740B78081219B7D0E02508F8906270BB
:10210400E0A2E740F8E8C333906272F0906270E0B6
:10211400D2E0F08049E0A2E55024E591A2E5501E0A
:102124007591DF900719E0640D701390073BE0048C
:10213400F064287002E4F07A00E0F91210EB906188
:1021440081E0A2E35009E5E9A2E3500375E9F7A3AE
:10215400E0A2E75009E591A2E7500375917FD0F022
:10216400D083D082D00BD00AD009D008D0E0FDD0E3
:10217400E0FCD0E0FBD0E0FAD0E0F9D0E0F8D0D039
:10218400D0E032C0E0C0D0C082C083906183E0A2BE
:10219400E05009E5BFA2E0500375BFFEE0A2E150A4
:1021A40009E5BFA2E1500375BFFDE0A2E25009E5D5
:1021B400BFA2E2500375BFFBE0A2E35009E5BFA252
:1021C400E3500375BFF7E0A2E45009E5BFA2E45071
:1021D4000375BFEFE0A2E55009E5BFA2E550037522
:1021E400BFDFE0A2E65009E5BFA2E6500375BFBF1A
:1021F400D083D0828088C0E0C0D0E8C0E0E9C0E0ED
:10220400EAC0E0EBC0E0ECC0E0EDC0E0C0F0E5A760
:10221400A2E6500FE5A1A2E6500953A7BF75A1BFDE
:1022240012225FE5A7A2E5500CE5A1A2E5500653F2
:10223400A7DF75A1DFE5A7A2E15009E5A1A2E1505E
:102244000375A1FDE5A7A2E2500CE5A1A2E25006A8
:1022540053A7FB75A1FBD0F002217074F8121A9CED
:10226400752101900719E064067015120FA78A8280
:102274008B83A3A3A3A3A3A3E0FAA3E0FB121001FF
:10228400A2AFE433FED2AF90071FE0640170187A66
:10229400207B00900718E0F91204C77A207B009095
:1022A4000718E0F9120443906182E0D2E6F0900846
:1022B400B5E0602185C622801690071EE064017097
:1022C40008E5C654F84405F5C653BEFC1220347420
:1022D40001652160E4EEA2E092AF7F01021B480099
:1022E4008E238F24858228858327851882851983E8
:1022F400E0CEA3E0CF852882852783EBC9EAC8ED29
:10230400CBECCA75F010C3E833C8E933C9EA33CA61
:10231400EB33CBC3EA9EF526EB9FF525B35004AB14
:1023240025AA26EC33CCED33CDD5F0DAAE23AF2499
:102334002274EB121A9C74FA1219D98A088B098C2C
:10234400148D15900719E024F7C394055006908165
:10235400A6022497120FA78A0A8B0BAE0AAF0BEEC4
:102364004F7003022494AC08AD0985188285198343
:10237400AA82AB831210318E828F83A3A3780812B2
:1023840018A9908172780812188385188285198398
:10239400780C1218A9908172780C12188378087935
:1023A4000C12132A501F7808790C12184390811AC2
:1023B400780812134A4047850810850911850A12C6
:1023C400850B138041850C10850D11850E12850F28
:1023D400137810790812184390811A781012134A4E
:1023E400501C7510007511007512007513017810DA
:1023F400790C1218437810790812180A8008908111
:10240400A678101218A9740978101217EB90811687
:1024140078081218A9781079081216CC8E828F8346
:10242400A3A3A3A3A3A3E0F8A3E0F97AD07B0312A8
:10243400194E88088909E4F50AF50B781079081211
:10244400180A7404121A24E0F8A3E0F97AD07B0382
:1024540012194EE8FA8A08E4F5097810790812137B
:102464002A500778107908121843900719E0640875
:10247400600AE064066005E06405701C90811278CF
:102484001012134A501290810E781012181D8008F1
:102494009081BE78101218A985148285158378104E
:1024A4001218B874061219EF7F0E021B4874F71243
:1024B4001A9C1210439008B3E064017010906245B6
:1024C400E4F0A3F053F4F343FE0C5390F3120FEF34
:1024D400E5C654804449F5C6E59E547F644970F8C6
:1024E400906185740FF09008B1E0F47002A3E0608D
:1024F4004E9008B2E0600814601B14602E80407592
:1025040008017509009008B1E078081219C6E508B9
:10251400F45280802A7508017509009008B1E078AA
:10252400081219C6E508F45290801475080175095B
:10253400009008B1E078081219C6E508F452A079B1
:10254400007F02021B4874F7121A9CE9FEEAFF742A
:10255400016E700C7A807B00900718E0F912043D3C
:10256400902884E493F46008E493F9120E458009FA
:1025740053C680E59E547F70FA120FF59008B3E0BD
:1025840064017003120E5D9008B1E0F47002A3E0E0
:10259400604B9008B2E0600814601A14602C803D0F
:1025A4007508017509009008B1E078081219C6E5AC
:1025B40008428080287508017509009008B1E07808
:1025C400081219C6E50842908013750801750900C0
:1025D4009008B1E078081219C6E50842A012104329
:1025E400120FA78A088B09A808A909E8496015E50C
:1025F400E170FCE82414F582E93400F583E0F4602A
:1026040003E0F5E174016F700A7A01900718E0F9AC
:1026140012049702254574F1121A9C8A088B098CBE
:102624000A8D0B740F121A24780C1218A990817257
:102634007808121883908172780C121883780879BC
:102644000C12132A50157808790C12184390811A29
:10265400780812134A401579018013780C7908120E
:10266400184390811A780C12134A40EB79007F08C2
:10267400021B4874ED121A9C8A088B098C0A8D0B74
:102684007413121A24780C1218A990817278081203
:102694001883908172780C121883780C79081213BD
:1026A4002A40117808790C121843AA08AB09AC0A1D
:1026B400AD0B8022751000751100751200751301A1
:1026C4007810790C1218437810790812180AAA1095
:1026D400AB11AC12AD137F0C021B489081727808C9
:1026E4001218A98A828B8378081218967F04021B19
:1026F4004874F5121A9C8C828D8378081218A98A62
:10270400828B83780812186FEA2404F8EB3400F9FA
:102714008C828D83A3A3A3A3E0FCA3E0FD8882891C
:1027240083C3E09CF0A3E09DF088828983C3E09496
:1027340020A3E0944E40229081B278081218A98A0E
:10274400828B8378081218308A828B83A3A3A3A375
:10275400E02420F0A3E0344EF0808074F5121A9C3B
:10276400E9FE90086BE0FAA3E0FBEEC333F8E43330
:10277400F9748128F582748039F583E02AF508A379
:10278400E03BF5097808121C439081461218C712E1
:1027940022E474021219EF8A088B098C0A8D0B74D7
:1027A4001078081217D2AA08AB097F04021B4874D8
:1027B400F1121A9C8A0C8B0D8C0E8D0F740F121A49
:1027C40024E0FAA3E0FB7411121A24E0F508A3E054
:1027D400F5097413121A24E0FEA3E0FF7808121C12
:1027E40043EA2401F508EB3400F509E4F50AF50B96
:1027F400780C790812164C90810A78081218A97876
:102804000C790812164CAA0CAB0DAC0EAD0F1222AB
:10281400E474021219EF8B09EA450960047A018015
:10282400027A00EC2AFCED3400FDECF8EDF97A7143
:102834007B0212194E88088909E4F50AF50B8E8289
:102844008F8378081218B8ECF8EDF97A717B0212CC
:10285400194E8A088B09740578081219C68E828F5E
:1028640083A3A3A3A3E508F0A3E509F07F08021B53
:0F28740048C082C083E9906000F0D083D08222F8
:10288400FFFFFFFFFFFFFFFFC082C083E9900C75CD
:10289400F0022AAB74F7121A30E9900637F07C6F15
:1028A4007D067AFF7BFF120B8190063874FFF0A33C
:1028B400F0A3E4F0A3F07905120B0F900637E0F9CA
:1028C400120A377A997B0B120D5B0237B974F41232
:1028D4001A308A088B09EB54806030900637E0F98F
:1028E4001204258A0A8B0BAE0AAF0BEE4F60138ECF
:1028F400828F83E064B07003120B21EEFAEFFB12B7
:102904000413AA08E5096480FB80047A007B0002B2
:102914002A7A74F2121A3074FC1219D9EAFEEBFF07
:102924007412121A24123CA0EE4F70030229B974D7
:1029340002121A24EEF0A3EF122CB5ECF0A3ED1260
:102944002CB5AA82AB83120A31E9F50A706AE5084C
:10295400450960648E828F83123C86EE4F60567AFE
:10296400067B0012047F8A0C8B0DA80CA90DE84984
:102974007005750A13804188828983E41229C6EEA2
:10298400F0A3EF123CB1E508F0A3E509F090063D91
:10299400122A4D90063D7005123763801B12375181
:1029A4008003EAFCEBFD8C828D83122A4D70F38C3C
:1029B400828D8380E3750A02A90A74041219EF0256
:1029C4003EA0F0A3123C57A32274F2121A30890AD3
:1029D400E975F017A4FEAFF090063CE4F090063AD7
:1029E400122A4D600A12048590063AE4F0A3F0EE30
:1029F400FAEFFB12047F8A088B09EA4509602FEE7F
:102A0400FCEFFD790012040190063AE508F0A3E515
:102A140009F07B008008122A37E4F0A3F00BEBC323
:102A2400950A40F2E50A90063CF079008002791399
:102A3400023EA0EB75F017A4F8A9F090063AE0283E
:102A4400FAA3E0398A82F583221233F5EA4B227421
:102A5400F4121A307900EAA2E0501B7508EC7509EB
:102A6400807808121C437C047D007A777B0C120B5F
:102A74000974021219EF7F04021B02C082C0839002
:102A8400063D122AB2601C88828983A3A3E06A707F
:102A940003A3E06B8882898370E8A3A3A3A3123302
:102AA400F180047A007B00D083D082020135123F8A
:102AB40086E8492274EE121A3074FC1219D9EAFE1F
:102AC400EBFF851882851983E4F0A3F0EE2402124B
:102AD4003743EE2405123C5EEE2404F50EEF12306B
:102AE4006AE024FE603924FC604624FE605224FE21
:102AF400605E24FE7003022BCB24FE7003022C2F95
:102B040024FE7003022C3E24FE7003022C4D24FC90
:102B14007003022C5C24FE7003022C6B022CA89020
:102B240006567417F0A3E4122CBD1207AF022CA8AA
:102B3400851882851983AC82AD83120B27022C7809
:102B4400851882851983AC82AD83120B2D022C78F3
:102B5400850C08850D097402121A24AC82AD838594
:102B640008828509831233F1120A558A0C8B0DAC45
:102B74000CAD0DEC4D603BE4F50CF50D780C121C1E
:102B840043750C56750D06780C121C43750C57755D
:102B94000D06780C121C437408121A24121C5A12C3
:102BA4003FAA1219EFE9F50C700B1233E71207C7AD
:102BB400800F750C01850882850983122CAB1237AE
:102BC40063850C08022C7B7402121A24AC82AD8338
:102BD400850C82850D831231BC603C850C82850D89
:102BE40083A3A3121C5A7510567511067810121C73
:102BF400437510577511067810121C437408121A85
:102C040024121C5A123FAA1219EFE9F509700B128B
:102C140033E71207CD800F750901850C82850D837A
:102C2400122CAB123763850908804C8518828519EC
:102C340083AC82AD83120B33803A85188285198365
:102C4400AC82AD83120B39802B851882851983AC35
:102C540082AD83120B3F801C851882851983AC8258
:102C6400AD83120B45800D851882851983AC82AD26
:102C740083120B4BE9F508E50860298E828F83A344
:102C8400E06414601F850E82850F83E0900656125F
:102C94002CB5123F82900657123763E508A3122C15
:102CA400BD1207A9023652123F8685188285198300
:102CB40022F085188285198322F07C567D06850AC8
:102CC40082850B831233F52274EE121A3074FC12CF
:102CD40019D98A0A8B0B8C0E8D0FEA2405F508EBA3
:102CE4003400F5097C157D0079007A567B061204C0
:102CF40001E5082402F50CE509123C61851882857A
:102D040019838582108583117810121C43850882EB
:102D1400850983A3A3A3A31231B3121C43E508249A
:102D240005F510E5093400F5117810121C43850CE3
:102D340082850D83123508120A4F74061219EF8A20
:102D4400108B11AE10AF11E50A2402F50AE50B123F
:102D54003746EE4F7003022E8A80177402121A242B
:102D64001233F188828983EAF0A3EBF0900656E0EF
:102D740004F0900656E0C394054003022E8AE4F55D
:102D840010F5117810121C4375103F751106781058
:102D9400121C437510407511067810121C437406FA
:102DA400121A24121C5A7910EEFCEFFD123FAC12D9
:102DB40019EFE9705E850882850983A3A3A3A3A301
:102DC400A3A3E0F890063FE06870481231B3121CE8
:102DD400437C407D06E5082408FAE5093400FB122B
:102DE40003FB74021219EFE960298E828F83A3A377
:102DF400A3A31233F1900656E0F510740278101272
:102E040019C674572510F58274063511F583EAF056
:102E1400A3EBF07402121A248582108583117810B2
:102E2400121C437402121A24121C5A850C82850D3A
:102E3400831234171219EF8A108B11AE10AF119050
:102E44000656E0F510751100740278101219C67454
:102E5400562510F874063511F988828983A3122A3D
:102E64004D7003022D56E82403080808E93400F9DC
:102E7400EE4F6003022D5F8882898374FFF0A3F014
:102E8400900656E004F0900656E0600A1233E7120A
:102E940007BB7900800B85088285098312375A792C
:102EA4000A02365274EA121A3074FE1219D98C12BC
:102EB4008D13EA2405F50CEB123F94123C8A750835
:102EC40000750900EA2402F510EB3400F5118518A9
:102ED4008285198385820A85830B780A121C4385AF
:102EE4000C82850D83A3A3A3A3123080121C43E597
:102EF4000C2405F50AE50D123746780A121C4385A1
:102F04000C82850D83123084120A4F74061219EF55
:102F14008A0A8B0BEA450B7003023025EA2404F578
:102F24000EEB12306A123C8A8A828B83A3A3A3E03D
:102F3400F98510828511831233FB6003023025E486
:102F4400F514F5157814121C4375143F751506789D
:102F540014121C437514407515067814121C43741E
:102F640006121A24121C5A7913AC0AAD0B8510826E
:102F7400851183123FB21219EFE9F509600302309B
:102F84002590063FE0F8E5087009E0240290065712
:102F9400F08014900657E0FCE82402FAE43400FBC5
:102FA400EA6C7001EB707E850882AA821231AA94C1
:102FB400141231A2506B850E82850F83E0C0E07439
:102FC400582A123061D0E0F00508850E82850F83FF
:102FD400A3E0C0E085080A7458250A123061D0E0E5
:102FE400F0050890063F123080121C437C407D0699
:102FF40085080A7458250A1230741219EF90063F96
:10300400E02508F50874FF6E700374FF6F6012EE1C
:1030140024010EEF3400FFE508C394145003022E7C
:10302400D2E50860131234058510828511831233AA
:10303400F11207C179008014E509700375090A8546
:103044001282851383EEF0A3EFF0A909740212191A
:10305400EF7F0E021B0285080C7458250CF5827450
:10306400063400F583223400F50F850E82F58322A1
:10307400FA74063400FB1203E9740222123CC022E3
:10308400A3A312308A22123751FDEEFAEFFB227409
:10309400EE121A3074FE1219D98C0E8D0FEA240523
:1030A400F50CEB123C61750B00900656E4F0F50A42
:1030B400EA2402F508EB3400F5098044900656E052
:1030C400FA90063FE0F81231AA94171231A2400D8B
:1030D400900656E0F87416C39890063FF01231B388
:1030E400121C437C407D0674572AFA74061230770A
:1030F4001219EF90063FE0F8900656E028F0050A12
:10310400E50C2416F582E50D123065E0F8E50AC3F6
:10311400985074900656E0C39416506BE50AC33376
:10312400F8E433F9E50C28FEE50D39FF85188285AE
:103134001983AC82AD838E828F831231BC70087583
:103144000B011237568050E4F510F5117810121C5B
:103154004375103F7511067810121C4375104075A5
:1031640011067810121C437406121A24121C5A7980
:1031740016850882850983123FB21219EFE9F50B0F
:1031840070030230C080BB7C567D068508828509A9
:10319400831233F11207D3A90B7402023654E99453
:1031A40000C365D03322EA28F8E43400F9E822E0C9
:1031B400F5107511007810221236498A108B11AC63
:1031C40010AD11EC4D2274EA121A3074FC1219D9A4
:1031D4008A0C8B0D8C128D13EA2405F50AEB123739
:1031E40046750800750900E50A2402F510E50B345C
:1031F40000F5117402121A2485820E85830F780E4D
:10320400121C43850A82850B83A3A3A3A3123C66E5
:10321400121C43E50A2405F50EE50B3400F50F787E
:103224000E121C4385108285118312374C1233EB26
:10323400120A4F74061219EF8A0E8B0FAE0EAF0FDF
:10324400E50C2402F50EE50D3400F50F8038888274
:10325400898374FFF0050812305A74FFF005089052
:10326400063FE0F50C750D00780C121C437C407D84
:103274000685080C7458250C1230741219EF900648
:103284003FE02508F508EE4F60278E828F83A3A3C5
:10329400A3E0F9850E82850F831233FBEE2404121A
:1032A4003C5EE96027850C82850D831233DD12377D
:1032B40063E50870030233C3123405850E82850F5B
:1032C400831233F11207D979000233D8E4F514F5E7
:1032D400157814121C4375143F7515067814121CC6
:1032E400437514407515067814121C437408121A99
:1032F40024121C5A7911EEFCEFFD850E82850F8392
:10330400123FB21219EFE9F509709A850882AA8270
:10331400EA90063F7009E02404900657F08025E007
:10332400F8900657E0F514E82404FCE43400FDECBE
:1033340065147001ED70811231AA94121231A24009
:10334400030232BC850C82850D83E0C0E074582AE8
:10335400123061D0E0F00508850C82850D83A3E06E
:10336400C0E012305AD0E012342085820C85830DDF
:10337400780C121C437404121A24121C5A851082ED
:103384008511831234171219EF8A0C8B0DAE0CAF12
:103394000D85080C7458250CF874063400F9EE4FAA
:1033A4007003023252851882851983E088828983EA
:1033B400123420A3E0C0E012305AD0E0023260E5BB
:1033C40009700375090A850A82850B831233DD129D
:1033D4003763A9097404023052123F86851282852C
:1033E4001383227C567D06850A82850B831233F56E
:1033F40022E0FAA3E0FB221233F5120A3DE9F509B3
:1034040022900657E0F5F0E50884900656F07C56C5
:103414007D062212308A120A5B740422F0050885A4
:1034240018828519832274EC121A3074FE1219D989
:103434008A088B098C0E8D0FEA2405FEEB3400FFFD
:10344400123633EE2418123C5EEA450B7003023444
:10345400D612361C50291234FB8A108B11EA4511FE
:10346400606B7912AC0AAD0B85088285098312332F
:10347400F1851082851183121A2EE9F50A7058E439
:10348400F50AF50B780A121C438E828F83A3A3E0FE
:10349400F50A780A121C43EE2403123743780A1201
:1034A4001C438E828F83123508120B6F7406121917
:1034B400EFE9F50A7021850C82850D83E0701F8584
:1034C40008828509831233F11207DF8011750A0E11
:1034D4008009750A018004E50A6003123756850CD9
:1034E40082850D83E0600479008002A90A740212C7
:1034F40019EF7F0C021B028518828519831233F59C
:10350400120B5D22123751FD85088285098312331F
:10351400F52274EE121A3074FE1219D98A088B0936
:103524008C0C8D0DEA2405FEEB3400FF750E0012A1
:103534003633EA450B70030235FA12361C502C124E
:1035440034FB8A0E8B0FEA450F604A7912AC0AAD40
:103554000B8508828509831233F1850E82850F83DA
:10356400121A2EE9F50E60030235FD8508828509DD
:1035740083123838AA0AFB12360E70147AFF7BFFC6
:1035840012360E606C88828983E50AF0A3E50BF09D
:10359400750A008007750E0E805F050A90063CE0F0
:1035A400FAE50AC39A504AE50A75F017A4FAABF093
:1035B40088828983A3A3E02AFAA3E03BFB8A828B57
:1035C4008312374CEC4D70D2750A17750B00780ACC
:1035D400121C43EEFCEFFD1203E974021219EFEE24
:1035E400FCEFFD8508828509831233F11207E5801B
:1035F40014750E098003750E01123F7E850C8285B9
:103604000D83123763A90E02319D120B518A108B60
:1036140011A810A911E84922E5082402F508E509D2
:103624003400F5098A828B83A3A3A3E0A2E5228553
:103634001882851983AC82AD838E828F83123649BA
:103644008A0A8B0B22E0FAA3E0FB120A55227404C7
:103654001219EF7F0A021B0274EC121A308C108DBF
:1036640011EA2405F50CEB123C61750F00EA240203
:10367400F50AEB123746850A82F5831233F11240BC
:10368400387003023738750E008071850C82850D01
:1036940083E06401704F8E828F83A3A3121C5A8E21
:1036A400828F83A3A3A3A3E0F512751300781212EB
:1036B4001C43EE2405F512EF3400F5137812121CA6
:1036C400431233EB120B6F74061219EFE9F50F6016
:1036D40014850C82850D83E4F0123F7E851082856B
:1036E40011831237637C177D007900EEFAEFFB1229
:1036F40004018E828F83E4F0A3F0050E90063CE073
:10370400F8E50EC398501EE50E75F017A4F8A9F05D
:10371400850882850983A3A3123F9E12374CEC4D82
:10372400600302368F85088285098374FFF0A3F055
:10373400E50F70061233EB1207EBA90F0234F6F50E
:103744000AEF3400F50B22A3123751FD22E0FCA34B
:10375400E0228E828F83123F86850E82850F83E856
:10376400F0A3E9F022C082C083900638E06A7003B7
:10377400A3E06B70067A387B0680047A007B000233
:103784002AAB74F7121A307F00EF75F003A4F8A97E
:10379400F0EC28F8ED39F988828983E06A7003A394
:1037A400E06B7006E8FAE9FB800B0FEFC39402406C
:1037B400D87A007B007F01021B0274F6121A3012C1
:1037C4003D6F70067A007B008007A3A3A3A3123386
:1037D400F1023E3074F2121A30E9FE740E121A2409
:1037E4001238387410121A24123CA08C828D83E093
:1037F4006402703BA3123F8288828983E0F50CA3A4
:10380400E0F9A80C74026870037429697021750CBE
:1038140002750D00780C121C437808121C43780AB8
:10382400121C43EEF9120B9374061219EF800279FD
:1038340001023EA0E0F50AA3E0F50B2274E8121A97
:103844003074FB1219D9E9851882851983F08A1618
:103854008B178C0E8D0F741F121A24123CA0742126
:10386400121A241238387423121A24123C8A75103E
:10387400008C828D83A3A3A3E0A2E4502A741D12BA
:103884001A241235018A828B83E5824583700302F0
:10389400394C790AAC0EAD0FAA16AB17121A2EE9E1
:1038A400F510600302394F850E82850F83E06402B0
:1038B4006003023C05A3123F82850882850983A325
:1038C400858212858313E50E2406F50CE50F123C60
:1038D4006188828983E0FAA3E0F9EA2400F514E41C
:1038E40039F5157814121CCD01000028012814396B
:1038F40007000228EB3903285B390029153B01290D
:103904003D3B0229E43A0329153B0429A63B053C27
:10391400EE4F703E850C82850D83123C7BFAE9FBE9
:103924008A828B83E0850A82850B83123CB7121C42
:10393400438A828B83A3123751FDAA08AB09120371
:10394400E974021219EF800375100EA910740502B0
:103954003F8C75100B80F4EE4F70F7850A82850B4F
:10396400837401F0123C90850882850983F07C0001
:103974007D00850E82850F83A3A3A3A3E02401FA0F
:10398400A3E03400FB120A55EA4B60418A828B8320
:10399400E02402F8850A82850B83E028F0EA2404F7
:1039A400F8EB3400F988828983E0851282851383D9
:1039B400123CC9123CB7121C438A828B8312374BC8
:1039C400E5082403FAE5093400FB023942850A823A
:1039D400850B83E02404F07C047D007900AA12ABFB
:1039E4001312040102394FEE4F6003023956123CA0
:1039F40090FEA3E0FF850A82850B837404F0EE85B4
:103A04000882850983F0EF851282851383F074039D
:103A1400121A24AC82AD83EEFAEFFB123D5D700303
:103A2400023AC18A828B83A3A3123C867401121AC0
:103A34002485820E85830F780E121C437405121A96
:103A440024121C5A7CFF7DFF120A5B74041219EFC6
:103A54008B0FEA450F7033850C82850D83123C660B
:103A6400121C43850C82850D83A3121C5A7C027D93
:103A7400007ADD7B8112088774041219EFE9700A59
:103A84007401121A2474FFF0A3F08E828F83E06411
:103A9400027034750C02750D00780C121C438E8272
:103AA4008F8312374BE5082404FAE50912307712A4
:103AB40019EF850A82850B83E024028009740112C0
:103AC4001A24EEF0A3EFF07401121A24123C77F0DA
:103AD4007401121A24A3123C6FA3A3A3F002394F5A
:103AE400EE4F6003023956850C82850D8312374CE4
:103AF400AA16AB17120B87850A82850B837402F012
:103B0400EA850882850983F0851282851383EB8018
:103B1400CBEE4F6003023956123C90F8A3E0F985CE
:103B24000A82850B837402F0E8850882850983F094
:103B3400E985128285138380A3850C82850D831207
:103B440033F11203E3EAFC8C82A882C39EE49F4013
:103B54004BE86E7001EF70047C00801F851882852D
:103B64001983E0FAEE2AFAEF3400FBC3EA98EB94E7
:103B7400005003E08004EECCC39CFCEC850A8285F3
:103B84000B83F08C0A750B00780A121C43850C8297
:103B9400850D83E02EFCA3E03F02393D751007023A
:103BA400394FEE4F6003023956850C82850D83121E
:103BB4003F82850A82850B837407F0888289831289
:103BC4003C6F123C57E0851282851383F0E824028F
:103BD400FAE93400FB8A828B83123C6F123CA812F0
:103BE4003C77A3123CB1123C80F0E82405F8E93498
:103BF40000F988828983123C80A3123CC9A3023A4B
:103C0400DD741D121A24123D68700302394C123FF0
:103C140082880C890DE8450D700302394C8E108F93
:103C2400117810121C43780A121C437808121C43A2
:103C34007406121A24E0F9AC0EAD0FAA16AB178560
:103C44000C82850D83121A2E74061219EFE9F510F1
:103C540002394FF088828983A322F50CEF3400F5F2
:103C64000D22E0F50E750F00780E22E0850882859E
:103C7400098322123CD022123F86E822123CD0A3B0
:103C8400A322A3A3A3A3E0FEA3E0FF22850C8285C5
:103C94000D83E0F8A3E0F5838882E022E0F508A331
:103CA400E0F50922A3A3F08A828B83A3221229C8F8
:103CB400A3A322F08A828B83123CC022E0F50A750A
:103CC4000B00780A22123C57123CD022E08508826D
:103CD400850983A3A32274EE121A3074FE1219D933
:103CE4008A0A8B0BECFAEDFB7414121A24E0F5101B
:103CF400A3E0F5117416121A24E0FE7418121A24A3
:103D0400E0F50EA3E0F50F851882851983AC82AD2A
:103D140083123D5D603E851882851983123D68607B
:103D24002FA3A3123CA0E50845096024780E121CB9
:103D3400437810121C43EEF9AC0CAD0DAA0AAB0B80
:103D4400850882850983121A2E74041219EF8006DD
:103D5400790E8002790102319D120A558A0C8B0D6D
:103D6400EA450D221233F5123D6F22120B1B8A8293
:103D74008B83E58245832274F6121A3074FE12197D
:103D8400D9740C121A24123C7B851882851983F08D
:103D94007401121A24E9F0E4F508F5097808121CF4
:103DA400437508027808121C437404121A2485828D
:103DB400088583097808121C43120B6F74061219C4
:103DC400EF74021219EF806474F7121A30EAFEEBF2
:103DD400FF89087C6F7D06120B87EA5402600BA9E9
:103DE40008EEFAEFFB120A49800279010237B9742E
:103DF400F6121A3074FF6A700374FF6B701C7B0038
:103E0400EB75F003A4F8A9F0EC28F8ED39F9123EAB
:103E1400350BEBC39402501480E6120B578A088BBF
:103E240009A808A909E8496003123E357F02021B6C
:103E3400028882898374FF1229C6E4F02274F61280
:103E44001A30120B578A828B83E58245836006A35E
:103E5400A3E0FA80027A007B0080D174F2121A3057
:103E64008A088B09ECFEEDFF740E121A24E0F50AA1
:103E7400123EA5701CEEFCEFFD7AFF7BFF123EA5FF
:103E840070047911801688828983E508F0A3E50916
:103E9400F088828983A3A3E50AF079007F06021BD8
:103EA40002120B578A0C8B0DA80CA90DE849227439
:103EB400EE121A30EAFEEBFF8C088D09890C74129D
:103EC400121A24123F827414121A2412374C7416D4
:103ED400121A241233F1750D00EC4D6003023F7683
:103EE4007402650C6003023F718882898312375122
:103EF400F9EC2400F50EE439F50FEAF4F8EBF4F9E3
:103F0400EC58F8E50F59F9E849705DE5082406F81E
:103F1400E5093400F9880A890B8882F58312308612
:103F2400120B878A108B11E50E65107004E50F657E
:103F3400116042780E121C43850A82850B8312306D
:103F440086120B8D74021219EFE9F50D7027780EA5
:103F5400121C43850882850983A3A3123084120BA3
:103F64009F74021219EF800D750D808008750D0D78
:103F74008003750D0BA90D0236578E828F83123F75
:103F84008622E0F8A3E0F9221219EF7F10021B0247
:103F94003400F50D850C82F58322E028FEA3E03978
:103FA400FF8E828F83227916850A82850B831233D2
:103FB400F5120B6974082274F2121A30EAFEEBFF50
:103FC400890B7401650B600E7402650B70637901D3
:103FD400120D79E9705BEEFAEFFB12403860477519
:103FE4000A00800B7C177D007900120401050A90F9
:103FF400063CE0F8E50AC3985021E50A75F017A4D9
:10400400F8A9F0850882850983A3A3E028FAA3E030
:1040140039FB8A828B83122AB270C985088285098A
:104024008374FFF0A3F07C6F7D06EEFAEFFB120BB6
:1040340081023EA0120B518A088B09EA45092274B9
:10404400F2121A308A088B09ECFEEDFF740E121A74
:1040540024123838900C75E0F4603D7A097B001224
:10406400040DEA4B60328A828B8374B1F0A3E412AC
:104074003CAAA3123CA8A3E508F0A3E50912409FBB
:10408400EEF0A3EF12409FA3A3E50AF0A3E50BF023
:10409400900C75E0F9120419023EA0F08A828B8319
:1040A400A3A3A3A3A322C082C0839061907404F04D
:1040B400A37448F0A37402F09061807440F090619E
:1040C400BC7403F09061877419F0906265741BF0FE
:1040D40090619C740DF090619A7433F0A37455F060
:1040E4009061A0743AF09008B3E064017009C29141
:1040F40090071D7467800590071D7461F090288AED
:10410400E493906186F0902884E493F46027E49328
:10411400540FF8906185E0686012E5C65480444904
:10412400F5C6E59E547F644970F8E8F053C680E50F
:104134009E547F70FA79051210CD0242ECC082C001
:1041440083E9540FF9906185E0696012E5C65480F3
:104154004449F5C6E59E547F644970F8E9F053C6B6
:1041640080E59E547F70FA0242ECC082C083E5A8C9
:10417400F853A87E906181E4F0A3F0A3F0C2BA538F
:104184009AFEC289759B00C2C275E90075910075DB
:10419400BF0075A91175B905906181F0A374C0F0D1
:1041A400A3E4F0D2BA439A0174805842A80242ECC4
:1041B400C082C08374F81219D990071BE0F8A3E0F9
:1041C400F9E84970030242E290071BE0544060237F
:1041D4007908851882851983AA82AB83120F3585E5
:1041E4001882851983AA82AB83120C0B90071BE0FB
:1041F40054BFF0E054806010790C7AD77B08120F1A
:104204003590071BE0547FF0E0A2E0503190619AB2
:104214007433F0A37455F09061A0743AF09008B32D
:10422400E064017009C29190071D746780059007CE
:104234001D7461F0120C1190071BE054FEF0E05461
:1042440002603190619A743FF0A3745AF09061A0B7
:10425400747FF09008B3E064017009D29190071D57
:104264007471800590071D746AF0120C1190071B7D
:10427400E054FDF0E054046013902888E4939061C6
:1042840086F0120C1790071BE054FBF0E054086012
:1042940013902889E493906186F0120C1790071B01
:1042A400E054F7F0E05410601390288AE49390618E
:1042B40086F0120C1790071BE054EFF0E0542060D6
:1042C4000A120C1790071BE054DFF0A3E0540160BE
:1042D4000D120E5D120C1D90071CE054FEF07408C4
:1042E4001219EF8003F0A3F0D083D0820201357459
:1042F400EC121A3074F41219D9851882851983AC1A
:1043040082AD8375838175826A74041218EC9028D7
:104314008893F46003024480907808E0C3940250C8
:10432400030244607404121A24AC82AD8375838042
:104334007582DE74081218EC8518828519838582CB
:10434400128583137404121A24AC82AD83750EFF94
:10435400750FFF7FFF7E00750C48750D788015740E
:10436400086E70030243F374096E70030243F3741E
:104374000A6E607B850C82850D8378081218A98CDF
:10438400828D83A909E50AC9F8881074187808127F
:1043940017D2E5104508F8C3E098A3E099850C828C
:1043A400850D8378081218A940188C828D8374189F
:1043B40078081217D2E5104508F8E0C398F8A3E08E
:1043C400801C741878081217D2E5104508FAE9FB26
:1043D4008C828D83E0F8A3E0F9EAC398F8EB99F9AD
:1043E400C3E8950EE9950F5006880E890FEEFF0E6F
:1043F400E50C2404F50CE50D3400F50DEEC394131F
:10440400500302436374FF650E700474FF650F600C
:10441400238F08740278081219C674482508F58297
:1044240074783509F58378081218A98512828513E2
:1044340083E508F0EC24020C0CED3400FD851282B7
:10444400851383A3858212858313740C121A24E5C1
:10445400826C7003E5836D60030243517508017536
:1044640009007808121C437402121A24AC82AD832A
:104474007A227B0A12068F74021219EF740C121935
:10448400EF7F0C021B02C082C0839061AE7468F09F
:10449400A3746AF090624574FBF0A304F053F4FD36
:1044A40043FE029008B37401F09061A0E0643A9076
:1044B400619A70237433F0A37455F09061A0743A38
:1044C400F0740164017009C29190071D746780281B
:1044D40090071D74618021743FF0A3745AF09061B9
:1044E400A0747FF0740164017009D29190071D7467
:1044F40071800590071D746A0242EB7F04021B025F
:10450400C082C083900865E06401700A90086AE084
:104514006004790C800279000242ECC082C0837589
:10452400E1F1900868E06055146008146059146063
:10453400518059120E6F90085EE0F97A5F7B081281
:10454400104F9081621218C71210859081AE121814
:10455400C712105B900869E0F91210677901121014
:10456400C190085CE02416F8A3E03400F98882893D
:10457400837487F0A3740EF079000242EC120E7576
:1045840080B4120E7B80AF120E8180AA791280EA69
:1045940074F4121A3075D90D90084DE0A2E0E4339A
:1045A4001313F890085EE0C4333354C0484401F553
:1045B400D9785C790888828983A3A3A3E0F5D98894
:1045C400828983A3A882A983E864627003E96408EA
:1045D40070E3784D790888828983A3E0F5D98882CD
:1045E4008983A3A882A983E864537003E9640870EB
:1045F400E575E19590084DE0F97A4E7B0812105567
:10460400900C97741BF0A3740EF0A3747DF0A37444
:104614000FF0A3747DF0A3740FF0A3747DF0A37462
:104624000FF0A37421F0A3740EF0A3747DF0A374AF
:104634000FF0A37439F0A3740EF0900CA5747DF000
:10464400A3740FF0A3747DF0A3740FF0A3747DF032
:10465400A3740FF0A3747DF0A3740FF0A3747DF022
:10466400A3740FF0A3747DF0A3740FF090085CE0C2
:10467400F8A3E0F5838882A3A378081218A990818F
:104684005E780812181D90817278081218839008B9
:104694005CE0240EF8A3E03400F98882898378086A
:1046A4001218B890085CE02414F8A3E03400F988E8
:1046B4008289837413F09007197402F00244FFC0D6
:1046C40082C08390086EE02407F5D990085EE0C4A8
:1046D400333354C0F5D9785C790888828983A3A3DD
:1046E400A3E0F5D988828983A3A882A983E86462B8
:1046F4007003E9640870E390086EE0601F785C79E9
:1047040008FAE82413F582E93400F583E0F5D98842
:10471400828983A3A882A9831AEA70E690088EE0AE
:104724002407F5D990085EE0C4333354C04404F53B
:10473400D9785C790888828983A3A3A3E0F5D98812
:10474400828983A3A882A983E864627003E9640868
:1047540070E390088EE0601F785C7908FAE82433EF
:10476400F582E93400F583E0F5D988828983A3A82A
:1047740082A9831AEA70E675E195900C977427F084
:10478400A3740EF0A3747DF0A3740FF0A3747DF0F2
:10479400A3740FF0A3747DF0A3740FF0A37421F03D
:1047A400A3740EF0A3747DF0A3740FF0A37439F016
:1047B400A3740EF0900CA5747DF0A3740FF0A37491
:1047C4007DF0A3740FF0A3747DF0A3740FF0A374B1
:1047D4007DF0A3740FF0A3747DF0A3740FF0A374A1
:1047E4007DF0A3740FF09081B21218C790085CE0BA
:1047F400240EF8A3E03400F9888289831218D39038
:10480400085CE02414F8A3E03400F98882898374F6
:1048140012F090071974010242EBC082C083900821
:104824006EE02407F5D990085EE0C4333354C044E5
:1048340002F5D9785C790888828983A3A3A3E0F57B
:10484400D988828983A3A882A983E864627003E972
:10485400640870E390086EE0601F785C7908FAE8F9
:104864002413F582E93400F583E0F5D9888289833D
:10487400A3A882A9831AEA70E675E195900C97744F
:1048840033F0A3740EF0A37433F0A3740EF0A37486
:1048940033F0A3740EF0A37433F0A3740EF0A37476
:1048A40033F0A3740EF0A37433F0A3740EF0A37466
:1048B40039F0A3740EF0900CA5747DF0A3740FF07E
:1048C400A3747DF0A3740FF0A3747DF0A3740FF0B0
:1048D400A3747DF0A3740FF0A3747DF0A3740FF0A0
:1048E400A3747DF0A3740FF09081B21218C79008DE
:1048F4005CE0240EF8A3E03400F98882898312185E
:10490400D390085CE02414F8A3E03400F988828989
:10491400837414F090071974040242EBC082C083BC
:1049240090086EE02407F5D990085EE0C433335450
:10493400C04406F5D9785C790888828983A3A3A347
:10494400E0F5D988828983A3A882A983E864627088
:1049540003E9640870E390086EE0601F785C7908EE
:10496400FAE82413F582E93400F583E0F5D9888266
:104974008983A3A882A9831AEA70E690088EE024AA
:1049840007F5D990085EE0C4333354C04404F5D924
:10499400785C790888828983A3A3A3E0F5D9888207
:1049A4008983A3A882A983E864627003E964087018
:1049B400E390088EE0601F785C7908FAE82433F508
:1049C40082E93400F583E0F5D988828983A3A8823B
:1049D400A9831AEA70E675E195900C97742DF0A3FB
:1049E400740EF0A3747DF0A3740FF0A3747DF0A390
:1049F400740FF0A3747DF0A3740FF0A3747DF0A37F
:104A0400740FF0A3747DF0A3740FF0A37439F0A3B2
:104A1400740EF0900CA5747DF0A3740FF0A3747D54
:104A2400F0A3740FF0A3747DF0A3740FF0A3747D4E
:104A3400F0A3740FF0A3747DF0A3740FF0A3747D3E
:104A4400F0A3740FF09081B21218C790085CE024B0
:104A54000EF8A3E03400F9888289831218D39008F1
:104A64005CE02414F8A3E03400F988828983741587
:104A7400F090071974030242EBC082C08390085C73
:104A8400E0F8A3E0F5838882A3A3A3A3A3A3E4028D
:104A940042E974F7121A30900747E0F875F004A45D
:104AA400C8AAF02AF9744928F8740739F9E82405E2
:104AB400FAE93400FB8A828B83E0FCA3E0FD888260
:104AC4008983A3A3A3A3A3A3A3A3A3ECF0A3EDF0BF
:104AD40088828983A3A3A3A3A3A3A3E024FFF8A3A9
:104AE400E034FFF98A828B83E8F0A3E9024D3B743A
:104AF400F7121A30EAFEEBFF9061D0E06003024B3C
:104B0400D075D90E75D90375D904EE248CF582EFCE
:104B14003400F583E5822408F8E5833400F9E0F5F0
:104B2400D9A3E865827003E9658370F2EE2484F505
:104B340082EF3400F583E5822404F8E5833400F938
:104B4400E0F5D9A3E865827003E9658370F275E145
:104B5400957908EE248CFAEF3400FB120F297904BE
:104B6400EE2484FAEF3400FB120F297C00EEF8EFF8
:104B7400F9ECFAC3E49AFA95E0FBEE2AFAEF3BFB70
:104B8400EA248BF582EB3400F583E0C0E0E824AB43
:104B9400F582E93400F583D0E0F00C88828983A3A0
:104BA400A882A983ECC3940840C7EE2470F582EF71
:104BB4003400F583E0F8A3E0F9EE2472F582EF34D3
:104BC40000F583E8F0A3E9F0790180027900024D51
:104BD4003CC082C08375D90275D90375D90575E1C6
:104BE40095EA2470F582EB3400F583E0F8A3E0F94C
:104BF400EA2472F582EB3400F583E8F0A3E9F07956
:104C0400010242EC74F6121A30EAFEEBFF9008B788
:104C14007406F07508B77509087808121C437C01FE
:104C24007903120F7174021219EF75D90675D9033D
:104C34007582B7758308E0F5D9A3E58264BC700476
:104C4400E583640870F075E195900719E0640870D5
:104C54001EEE2470F582EF3400F583E0F8A3E0F94A
:104C6400EE2472F582EF3400F583E8F0A3E9F079DD
:104C740001024E0874F6121A30EAFEEBFF9061D07E
:104C8400E0706678019008B7740BF0900719E0643F
:104C94000770197508B77509087808121C437C0158
:104CA4007903120F7174021219EF7805740128F553
:104CB400D975D9037582B7758308E8FAE0F5D9A3E5
:104CC4001AEA70F875E195EE2470F582EF3400F578
:104CD40083E0F8A3E0F9EE2472F582EF3400F58363
:104CE400E8F0A3E9F0790180027900024E0874F734
:104CF400121A30EAFEEBFF75D90375D90375D90D85
:104D0400EE24DEF582EF3400F583E0F5D975E19504
:104D1400790412108BEE2470F582EF3400F583E0F1
:104D2400F8A3E0F9EE2472F582EF3400F583E8F09D
:104D3400A3E9F079018001F07F01021B0274F612ED
:104D44001A30EAFEEBFF9061D0E0F87480C398FA61
:104D5400EE2483F582EF3400F583E0600478048068
:104D6400027800E8240BF8EAC3985003024E067D4B
:104D7400099008B7EDF0EE24E3F8EF3400F97AB8BF
:104D84007B087C0888828983E08A828B83F088820E
:104D94008983A3A882A9838A828B83A3AA82AB83F3
:104DA4001CEC70E0EE2483F582EF3400F583E060C0
:104DB4001D7508B77509087808121C437C09790326
:104DC400EEFAEFFB120F7174021219EF7D0D7401EC
:104DD4002DF5D975D9037582B77583088D08E0F56B
:104DE400D9A31508E50870F675E195790412108BBE
:104DF400EE241DF582EF3400F583E4F0A3F079018D
:104E0400800279007F02021B0274F6121A30EAFE55
:104E1400EBFF9061D0E0F87480C398FAEE2483F538
:104E240082EF3400F583E06004780480027800E8BF
:104E34002408F8EAC3985003024F0D7D069008B782
:104E4400740CF0900736E09008B8F07A377B077856
:104E5400B979087C028A828B83E088828983F08A0C
:104E6400828B83A3AA82AB8388828983A3A882A925
:104E7400831CEC70E07A397B077C028A828B83E0A6
:104E840088828983F08A828B83A3AA82AB838882F7
:104E94008983A3A882A9831CEC70E0EE2483F582A5
:104EA400EF3400F583E0601D7508B77509087808CC
:104EB400121C437C067903EEFAEFFB120F717402A5
:104EC4001219EF7D0A74012DF5D975D9037582B7CE
:104ED4007583088D08E0F5D9A31508E50870F67503
:104EE400E195790412108BEE2470F582EF3400F50D
:104EF40083E0F8A3E0F9EE2472F582EF3400F58341
:104F0400E8F0A3E9F0790180027900024E0874F612
:104F1400121A30EAFEEBFF9061D0E0F87480C39877
:104F2400FAEE2483F582EF3400F583E0600478041C
:104F340080027800E82404F8EAC3985003024FEC96
:104F440078029008B7E8F0EE24F5F582EF3400F526
:104F540083E09008B8F0EE2483F582EF3400F58303
:104F6400E0601B7508B77509087808121C437C02B9
:104F74007903EEFA120F7174021219EF78067401B4
:104F840028F5D975D9037582B77583088808E0F5C3
:104F9400D9A31508E50870F675E195EE2474F58239
:104FA400EF3400F583E4F0EE2480F582EF3400F56D
:104FB40083E4F0EE241DF582EF3400F583E4F0A3DE
:104FC400F0790412108BEE240DF582EF3400F58392
:104FD400E0F8A3E0F9EE2472F582EF3400F583E8FB
:104FE400F0A3E9F0790180027900024E0874F61208
:104FF4001A309061D0E0F87480C398FCEA2483F5F9
:1050040082EB3400F583E06004780480027800E8E1
:105014002404F8ECC398405B79029008B77407F055
:10502400EA24F6F582EB3400F583E09008B8F0EA60
:105034002483F582EB3400F583E060187508B775B6
:1050440009087808121C437C0209120F71740212B9
:1050540019EF7906740129F5D975D9037582B775E5
:105064008308E9F8E0F5D9A318E870F875E19579B3
:105074000180027900024E0874F5121A30E9FCA28C
:10508400AFE433F50AC2AF7D0080010DEA246FF569
:1050940082EB3400F583E0F8EDC398501A8D08EAEA
:1050A4002508F8EB3400F9E8246BF582E93400F5BF
:1050B40083E06C70D68024EA246FF8EB3400F9E0C6
:1050C400FEEA2EFAEB3400FBEA246BF582EB3400A3
:1050D400F583ECF088828983E004F0E50AA2E0928B
:1050E400AF7F03021B0274F6121A30A2AFE433FD41
:1050F400C2AFEA246FF582EB3400F583E014F07C50
:105104000060368C08EA2508F8EB3400F9E8246CD2
:10511400F582E93400F583E0C0E0E8246BF582E928
:105124003400F583D0E0F00CEA246FF582EB340010
:10513400F583E0F8ECC39840CAEA246EF582EB34B8
:1051440000F58374FFF0EA246AF582EB3400F583FA
:10515400E4F0EDA2E092AF024E08C082C083E5A85D
:10516400F8C2AFEA246BF582EB3400F583E9F0EA88
:10517400246AF582EB3400F583E4F0E8A2E792AF09
:105184000242EC74F3121A30EAFEEBFFECFAEDFB88
:105194008A828B83A3A3A3A3E0541FF0EE2436F5E5
:1051A40082EF3400F583E4F0F50AEEFCEFFD8A8229
:1051B4008B83E0C0E0EC245DF582ED3400F583D010
:1051C400E0F0750B00E50A33333354F8F50C8A82AA
:1051D4008B83E0F508750900E50B78081219A7E53B
:1051E40008A2E0502FEE2436F8EF3400F9888289C3
:1051F40083E0F508EE2508F508EF3400F509E50825
:105204002438F582E5093400F583E50CF0888289B9
:1052140083E004F0050B050CE50BC3940840AF05CF
:105224000A8A828B83A3AA82AB838C828D83A3ACEC
:1052340082AD83E50AC3940550030251B27F05028F
:105244001B0274F7121A30900745E0640170077A64
:10525400007B000253BD7E0090074BE070F17401A7
:10526400F0A3E4F0A3F09007AB04F09007AEE4F0F1
:10527400A3F09007B104F090074EE4F0A3F0A3F07C
:10528400A3F090075804F090077EE4F09081BE12DA
:1052940018C79007611218D3900765E4F0A3F0A330
:1052A400F09007C9F09007BDF09007B27480F0A3A6
:1052B400E4F09007B8F09007B0F0900834F0A3F051
:1052C400A3F0A3F0A3F0A3F0A3F0A3F090083DF0A3
:1052D4009007CCF090081CF0A3F09081BE1218C780
:1052E40090081E1218D39081BE1218C7900822127B
:1052F40018D3900828E4F090082AF0900826F0903B
:105304000840F0A3F0A3F0A3F0A3F0A3F0A3F0A34C
:10531400F078457907E8246FF582E93400F5837461
:10532400FFF00E88828983A3A882A983EEC3940424
:1053340040E37A457B077854790888828983E0C002
:10534400E0EA2461F582EB3400F583D0E0F0888252
:105354008983A3A882A9838A828B83A3AA82AB832D
:10536400E864597003E9640870D07A457B07782CA7
:10537400790788828983A3E0C0E0EA24E7F582EB19
:105384003400F583D0E0F088828983A3A882A983BE
:105394008A828B83A3AA82AB83E864347003E964B2
:1053A4000770CF900745E004F06401700890074D42
:1053B400E0900747F07A497B07024D3CC082C083E6
:1053C40090074CE4F090074BF0900745F0A3F0A34E
:1053D40074FFF075E1F10242ECC082C08378007979
:1053E4000090074CE060047849790788828983A398
:1053F400A3A3A3E0F90242EC74F6121A30EAFEEB1E
:10540400FF8E828F83A3A3A3E0600F8E828F83A37A
:10541400A3A3E4F0900746E014F0900745E014F0ED
:10542400700690074774FFF08E828F83A3A3E4F085
:10543400900859E0700D900746E06401700579000A
:1054440012106DEE2465F582EF3400F583E0F8A3C5
:10545400E0F9E8496029EE2465F8EF3400F988089A
:1054640089098882F583E0FCA3E0FD900747E0FA10
:105474007B00120C41850882850983E4F0A3F0EED9
:10548400FAEFFB120FA1024E0874F7121A30EAFE6B
:10549400EBFF8E828F83A3A3A3A3E0FA7B00120CFD
:1054A40083EEFAEFFB120EF3120F89024D3CC08219
:1054B400C083782C790788828983A3E4F088828961
:1054C40083A3A882A983E864347003E9640770E6BF
:1054D40090072D02481974F6121A30EAFEEBFFEC1D
:1054E4002403F8ED3400F988088909EC2407F8ED61
:1054F4003400F9E8FCE9FD8C828D83E0F8A3E0F93F
:10550400850882850983E0FAA3E0FB12194EEE2494
:105514000DF582EF3400F583E8F0A3E9F08C828D79
:1055240083E0F8A3E0F9850882850983E0FAA3E023
:10553400FB12194E8B09EA45096013EE240DF5821E
:10554400EF3400F583E02401F0A3E03400F0024ED0
:105554000874F6121A30EAFEEBFFEE242EF582EF01
:105564003400F583E0FCA3E0FD780079FAECFAED71
:10557400FB12194EEE2470F582EF3400F583E8F047
:10558400A3E9F0780079FAECFAEDFB12194E8B09D5
:10559400EA45096013EE2470F582EF3400F583E0E8
:1055A4002401F0A3E03400F0024E0874F0121A3023
:1055B400EAFEEBFF7410121A2478081218A91210CC
:1055C4002B8A0C8B0D8C0E8D0F90815A780C12182F
:1055D4001D908172780C121883780C121C3F8E82F5
:1055E4008F83E0F8A3E0F5838882A3A31218C7127F
:1055F400261A74041219EFE960030256FC8E828F96
:1056040083E02402F8A3E03400F9E8FAE9FB8A8293
:105614008B83780812183090817278081218A98A3E
:10562400828B837808121896EE240BF582EF3400EF
:10563400F583C082C0838E828F83A3A3A3A3A3E038
:105644002401F8A3E03400F9D083D082E068700329
:10565400A3E069700579010256FE8E828F83A3A3AD
:10566400A3A3A3A3A3E02401F0A3E03400F0EE2459
:1056740074F582EF3400F583E064017036EE24752E
:10568400F582EF3400F583E0F8A3E0F98E828F838E
:10569400A3A3A3A3A3A3A3E0687003A3E069701367
:1056A400EE2475F582EF3400F583E02401F0A3E0E5
:1056B4003400F0EE2480F582EF3400F583E06401D9
:1056C4007036EE2481F582EF3400F583E0F8A3E030
:1056D400F98E828F83A3A3A3A3A3A3A3E06870037B
:1056E400A3E0697013EE2481F582EF3400F583E0C2
:1056F4002401F0A3E03400F079007F08021B027457
:10570400F7121A30900747E0F875F004A4C8AAF01D
:105714002AF9744928FE740739FF8028EE2465F8B5
:10572400EF3400F988828983E0FCA3E0FD88828954
:1057340083E4F0A3F08E828F83A3A3A3A3E0FA7B78
:1057440000120C41EE2465F582EF3400F583E0F895
:10575400A3E0F9E849604FEE2464F582EF3400F5E4
:1057640083E0F5087808121C47EE2463F582EF34D1
:1057740000F583E0F9EE2465F582EF3400F583E06B
:10578400FCA3E0FDEEFAEFFB120F1D74011219EFFA
:10579400E96089EE2465F582EF3400F583E0F8A32F
:1057A400E0F9E84970137C007D008E828F83A3A307
:1057B400A3A3E0FA7B00120C41024D3C74F2121ACE
:1057C40030EAFEEBFF890A740E121A24E0FAEE2482
:1057D40062F582EF3400F583E06401600302588CC3
:1057E4009061D0E0F87480C398F50CEE2483F582C0
:1057F400EF3400F583E060047804800278008908BF
:10580400E928F8E43400F9E824020808E93400F946
:10581400E50C98E499A2D265D0334068EA70057526
:105824000B028003750B01E06039750900780812DA
:105834001C437AB77B08120F5374021219EF7508D0
:10584400B77509087808121C43AC0AA90BEEFAEFE5
:10585400FB120F7174021219EF7404250AF50A7C05
:10586400B77D087401250AF5D9850BD9E50A600DC1
:105874008C828D83F8E0F5D9A318E870F875E1956A
:10588400790080067907800279FF7F06021B02C037
:1058940082C083E960208C828D83E08A828B83F0CE
:1058A4008C828D83A3AC82AD838A828B83A3AA82EC
:1058B400AB8319E970E0ECFAEDFB0242EC74EA12F6
:1058C4001A30907803E06442705E9008B6E014F0F9
:1058D4007056C2AF1258DB00782AD0E0F618D0E038
:1058E400F6E59F5407F97005908152800390814E2C
:1058F40078081218A9E9C4C0E07829E65508F50823
:1059040008E65509F509740B78081219B7D0E02593
:1059140008F8906270E0A2E740F8E8C3339062723E
:10592400F0906270E0D2E0F0900747E0F470030278
:105934005CE4E0F875F004A4C8AAF02AF9744928D4
:10594400FE740739FFEE2402F582EF3401F583E09B
:10595400F8A3E0F9E849601EEE2402F582EF340171
:10596400F583E0FAA3E0FBEE2401F582EF3401F5C0
:1059740083E0F912043D8E828F83A3A3A3A3A3A380
:10598400A3E0F8A3E0F98E828F83A3A3A3A3A3E8E3
:10599400F0A3E9F0906054E0900720F0906055E0A7
:1059A400900721F0906056E0900722F0906057E055
:1059B400900723F0906058E0900724F0906059E03D
:1059C400900725F090605AE0900726F090605BE025
:1059D400900727F090605CE0FC900728F090605DF1
:1059E400E0FB900729F090605EE0FD90072AF090BC
:1059F400605FE0FA90072BF0900726E08C082508FA
:105A0400F8E43400F98D08E82508F8E93400F98B46
:105A140008E82508F8E93400F98A08E82508FAE9CD
:105A24003400FBEE24F7F582EF3400F583E02AF02E
:105A3400A3E03BF08C08EE24F9F582EF3400F58303
:105A4400E02508F0A3E03400F0EE24FBF582EF3407
:105A540000F583E02401F0A3E03400F0EE24FFF528
:105A640082EF3400F583E0F8A3E0F9E8496042905E
:105A74006000E0C333FCE433FDE82CF582E93DF536
:105A840083E02AF0A3E03BF0906000E0FA9007285E
:105A9400E0FCEAC333FAE433FBE82AF8E93BF9E82B
:105AA400244AF582E93400F583E02CF0A3E03400C5
:105AB400F0900726E07011900729E0700BA3E070C6
:105AC40007A3E07003025BC48E828F83A3A3A3A306
:105AD400A3E0F8A3E0F9EE240DF582EF3400F5839A
:105AE400E028F8A3E039F9EE240BF582EF3400F551
:105AF40083E8F0A3E9F0EE240FF582EF3400F58398
:105B0400E4F0EE241CF582EF3400F583E0640170C8
:105B14001EEE2420F582EF3400F583E0F8A3E0F9CB
:105B2400EE241DF582EF3400F583E8F0A3E9F0904C
:105B34000721E06052EE241CF582EF3400F58374F3
