:020000040000FA
:0600000002011D022203B3
:03002B00021E268C
:0300530002227610
:03006B00021E0072
:100083000220B7E5C754F84401F5C77901220000FF
:100093000080FB120086B90003020107E47921788E
:1000A30008B800028004F709D8FCE479297802B87B
:1000B30000028004F709D8FCE4900281785B790997
:1000C3008002F0A3D8FCD9FA781A90014D7A01BACC
:1000D30000028007E493A3F608DAF9900ADBAA8208
:1000E300AB8390014E786079038015E493A3AC82CF
:1000F300AD838A828B83F0A3AA82AB838C828D83A8
:10010300D8E9D9E77582FE7583B0740312012F75A0
:100113008291758300740012012F75D00075813FA1
:10012300751881751902759F00020096C09FF59F8F
:10013300E473D09F22D083D082C09FE493C0E07445
:100143000193C0E0740293F59F220101FFFF434D29
:10015300204852204D6F6E69746F720000000000DA
:1001630000000002010603020D180708434D5F4813
:10017300524DEF03E9030000F50301040704FFFFF9
:10018300BB001264022F820100001A82022B82013B
:100193000000120B024D82010000130B022982039F
:1001A30000005204020202022F820100001D82029B
:1001B3002B82010000340B0247820100005A040223
:1001C3002B82010000350B024582010000018102F0
:1001D3002B82010000360B0243820100001C8110B8
:1001E30002027D0002022F820100002082022B8284
:1001F3000100006F0B10B18000000064040229822B
:100203000300006504022B82010000700B10D180F3
:100213000100006B04022B82010000710B10E180CE
:10022300010000720B022B82010000740B10F1809D
:100233000100006D04100208022F820100002682D3
:10024300022B82010000C50B023B820000007004F8
:100253000229820300007104022B82010000C60BF5
:100263000239820100007704022B82010000C70BD0
:10027300025182020000780401E803053F10FF00E9
:1002830001307503020106000000000000000000B9
:10029300000000000000000000000000000000005B
:1002A300000000FFFF0600800CE803FF0000B4001D
:1002B3000028002800283075A000A000A000A0009E
:1002C30000080008E001F00010001000100010000A
:1002D3001000100050005000500010001000D00714
:1002E3000000000000000F0001000500307507004A
:1002F3001000010081FF0000FF3D0A5B0A430AFF73
:1003030002020208025000A0000000E803022F824C
:100313000100001782022B82010000900C0235823B
:100323000100003206022B82010000910C0253826D
:100333000100004806022B82010000920C02378262
:100343000100004A06022B82010000930C023F8247
:100353000800004B06022B82010000940C0241822C
:10036300010000950CFF0100FF20022F8201000015
:100373001482022B82010000F90C024B8200000060
:1003830000000229820300009806131013101310B3
:100393001310131013101310131013101310131042
:1003A30013101310A112B9129B12120138098C03F6
:1003B300120138208C03120138478C03120138795B
:1003C3008C031201389B8C03120138AD8C0312018C
:1003D30038648D03120138A98E031201387CD502CB
:1003E300120138B2D70212013882D80212013899A9
:1003F300D902120138C7D9021201380EDA021201EA
:100403003822DA021201386EDA0212013890AE0392
:10041300120138F0AE03120138709E03120138A4A2
:100423009E03120138BB9E03120138C39E031201BF
:1004330038D69E03120138F19E03120138369F030A
:10044300120138449F03120138939F03120138A00D
:100453009F0312013819DB0212013823DB02120158
:100463003864DB02120138ADDB02120138E7DB022C
:100473001201383DDC021201385EDC0212013867DA
:10048300DC02120138BBDC02120138E4DC02120187
:1004930038EEDC021201385CDD02120138ECDD02B9
:1004A30012013847DE0212013875DE02120138FDEF
:1004B300DE021201383CDF0212013871DF02120141
:1004C3003883DF02120138A2DF02120138ABDF02E8
:1004D30012013872E0021201389FB003120138DEB4
:1004E300A90312013864A0031201389AA003120170
:1004F30038CEA0031201381BA203120138FAAD0350
:1005030012013810AE031201381AAE031201386417
:10051300AE0312013818EF021201382BEF02120159
:1005230038ECEF021201382BF00212013848F002C6
:1005330012013881F002120138CEF00212013800A4
:10054300F10212013837F10212013840F3021201AD
:1005530038D5AA03120138F8AA0312013827AB03CE
:1005630012013869AB03120138BDB60212013878A3
:10057300BC0212013848BD02120138B1BD0212019A
:1005830038D7BE0212013801F8021201387CF80292
:10059300120138C6F802120138EBF90212013800D1
:1005A300FB0212013882FB02120138399503120152
:1005B300387E9503120138939503120138ED9503A4
:1005C3001201387796031201382297031201385922
:1005D300970312013859A7031201387EA7031201AA
:1005E30038AEA703120138809203120138C5920373
:1005F300120138D892031201381C9303120138599F
:100603009303120138319403120138009503120148
:1006130038F899031201383D9A03120138509A03AE
:100623001201386C9A03120138AA9A03120138197D
:100633009B03120138039C0312013856B1031201C4
:1006430038568201120138348401120138D38501EE
:100653001201387E8601120138FE860112013883A9
:100663008701120138AC8701120138878B0112010F
:1006730038FE8B01120138158D011201384F8D019F
:10068300120138908D01120138D78E011201382DD5
:100693008F01120138768F01120138E58F011201A3
:1006A300385190011201388290011201389A900159
:1006B300120138B39101120138C391011201387943
:1006C3009301120138909301120138C29301120170
:1006D30038649501120138F8950112013889AC0389
:1006E30012013895AC0312013832AD03120138AC54
:1006F300B103120138EBB10312013856B2031201F0
:100703003844AD0312013854AD0312013863AD030D
:10071300120138F4AD03120138DCA8031201386169
:10072300A903120138C5A903120138F2FF0112010E
:100733003840B20312013850B20312013853B203E6
:10074300120138F87F001201383C9C03120138C6AD
:100753009D03120138279E031201386D9E03120177
:10076300382BB00312013858B0031201386EB003AE
:10077300120138C1A50312013813A60312013886EA
:10078300A603120138F3A603120138B1970312012D
:1007930038DB9703120138AA9803120138869903AC
:1007A3001201381DBF02120138E9BF021201382AB3
:1007B300C00212013864C002120138C2C002120121
:1007C3003816C10212013874C1021201380AC2027A
:1007D30012013812C3021201389CC4021201383AC2
:1007E300C502120138A1C502120138B4C5021201B3
:1007F30038A8C602120138F1C6021201389DF00171
:10080300120138CFF30112013860F501120138B03B
:10081300F501120138C7F501120138E4F50112019F
:100823003864F601120138E0F701120138AFF8011C
:100833001201381CFC0112013806FD011201380EA9
:10084300A40312013825A40312013854A40312018E
:10085300388DA403120138B5A403120138E3A403AD
:10086300120138FAA40312013811A5031201382723
:10087300A5031201384EA50312013861A503120125
:100883003877A5031201388AA503120138AFA503EF
:1008930012013811A40212013810A50212013845C1
:1008A300A50212013866A50212013876A5021201CB
:1008B3003897A502120138A3A60212013870A702C5
:1008C300120138E3A70212013869A802120138ACF9
:1008D300A802120138E3A80212013869A902120121
:1008E300383BAA0212013899AA02120138B1AA02AE
:1008F3001201382BAB021201382EAB021201383130
:10090300AB02120138D8AB02120138F0AB0212016C
:100913003820AC0212013840AC021201382EAD026D
:10092300120138E4AD0212013870EA02120138985C
:10093300EA02120138C6EA02120138FDEA02120184
:100943003865EB02120138AEEB02120138F9EB0203
:1009530012013837EC0212013874EC02120138A28A
:10096300EC0212013849ED0212013853ED02120173
:100973003860ED0212013893ED0212013855EE0290
:1009830012013861EE0212013879EE021201388346
:10099300EE02120138B2AB03120138C0AB031201ED
:1009A30038D8AB03120138F0AB03120138E7A901C1
:1009B30012013885AA01120138FDAA011201381269
:1009C300AC011201384CAC01120138F5AC01120133
:1009D30038CAAD011201382EAF0112013885AF01BB
:1009E3001201380CB001120138F3B0011201384082
:1009F300B101120138CEB101120138F2B101120175
:100A030038C7B30112013808B4011201382AB401FE
:100A1300120138ABB40112013895B5011201385BEC
:100A2300B60112013870CE0212013842CF02120110
:100A330038EBCF021201382ED002120138BBD0029C
:100A430012013847D10212013828D2021201385755
:100A5300D20212013853D3021201389BD30212017E
:100A6300389DD402120138E1D40212013807D502AD
:100A730012013825AF031201383888031201384EAA
:100A830088031201387488031201389C8903120108
:100A930038A68903120138FF8A03120138FF8B033A
:100AA300120138A0E002120138D5E1021201380820
:100AB300E20212013852E20212013810E40212017A
:100AC30038826F00120138E56F001201382A710075
:100AD3001201383A71001201385D7100120138A811
:100AE30071001201384D7200120138437300120174
:100AF300380D7400120138857500120138C775006E
:100B0300120138657600120138B27600120138D826
:100B13007600120138C67800120138CB7800120132
:100B230038AC7A00120138007B00120138627B0076
:100B33001201388A7B001201382E7C00120138F032
:100B43007C00120138217D00120138247D0012013E
:100B5300386C7D00120138AE7D00120138157E001D
:100B63001201389CFD01120138AFFD01120138C892
:100B7300FD0112013813FE01120138EEFE011201CC
:100B8300387DFF01120138C8FF011201380829001E
:100B93001201381429001201384D2900120138922C
:100BA3002900120138492A00120138CF2A00120104
:100BB30038FB2A00120138342B00120138482D006B
:100BC300120138242F001201380F31001201384668
:100BD3003200120138A63400120138923500120196
:100BE30038D83600120138E53700120138023800D0
:100BF3001201383A3800120138543800120138BC57
:100C03003800120138563D00120138F73D00120139
:100C130038483E001201386F3E00120138BD3E00D5
:100C2300120138DB3E001201382F3F001201383722
:100C33004000120138BF4000120138C6E50212011C
:100C430038D0E5021201389BE602120138B6E602FB
:100C5300120138DCE60212013820E702120138588B
:100C6300E70212013881E702120138FAE7021201A2
:100C7300380FE80212013824E8021201385BE80257
:100C83001201386FE802120138A0E802120138DAC3
:100C9300E80212013806E9021201385CE902120186
:100CA30038B0E902120138F9E90212013823EA02E5
:100CB30012013848EA021201384C84031201381633
:100CC3008503120138F985031201386F8603120177
:100CD30038B18603120138DE87031201380080021F
:100CE300120138298002120138428002120138872A
:100CF30081021201386582021201388482021201D4
:100D030038118302120138548302120138A184027C
:100D1300120138408502120138BF8702120138568A
:100D230088021201382A89021201380C8A02120140
:100D330038788B021201380B8C02120138DF7E00E7
:100D4300120138487F001201389C7F00120138C31A
:100D53007F00120138ACF30212013819F4021201B8
:100D63003864F40212013859F50212013855F602BB
:100D73001201383FF7021201384FAE0212013891C7
:100D8300AE021201386BAF0212013844B0021201F5
:100D9300383FB1021201381EB2021201388AB20280
:100DA30012013851B302120138BCB30212013823C5
:100DB300B4021201384EB402120138BFB402120158
:100DC3003852B502120138BBB502120138D0B50250
:100DD30012013818B60212013831B60212013896E0
:100DE300B60212013899B602120138868F03120136
:100DF30038AE8F03120138EC8F03120138AA900327
:100E03001201381591031201383191031201385937
:100E13009103120138899103120138989103120149
:100E2300381292031201383892031201380EC701A7
:100E3300120138EBC801120138E6CA01120138B9B0
:100E4300CB0112013804CC011201384FCC0112013D
:100E53003861CC01120138A1CC01120138D6CC0182
:100E630012013822CD0112013851CD01120138741B
:100E7300CD01120138C1CD011201384ACE01120150
:100E83003857D00112013842D20112013885D201FC
:100E9300120138EAD3011201382BD4011201389E12
:100EA300D401120138EAD40112013815D501120117
:100EB30038828C02120138AD8C02120138949302ED
:100EC300120138B89502120138739702120138D013
:100ED3009802120138264100120138BD4100120167
:100EE30038EA41001201383042001201386F4300E2
:100EF3001201380645001201388045001201389B63
:100F030045001201381046001201383F4700120114
:100F1300389A48001201389C4900120138F94A00F6
:100F2300120138124B001201386F4B001201385175
:100F33004C00120138844C00120138F44C001201A9
:100F4300386E4D00120138BD4D00120138894E0034
:100F53001201388E4F001201386D5000120138F81B
:100F63005000120138665100120138DA51001201A3
:100F730038035200120138C252001201383C5400A7
:100F830012013859540012013878540012013809FB
:100F930055001201382E5500120138565500120122
:100FA30038D155001201382B56001201387F5700F3
:100FB3001201383C58001201380F59001201383F12
:100FC300D5011201388FD5011201389BD5011201C9
:100FD3003878D601120138A8D601120138E0D601BB
:100FE3001201385FD70112013897D701120138E98E
:100FF300D70112013826D8011201384BDA01120148
:101003003877DC0112013872DE011201384DE0013C
:10101300120138F47F00120138369601120138802C
:1010230096011201385F9C01120138E09D01120103
:10103300383FA4011201383AA50112013877A501FE
:101043001201389AA501120138DCA501120138E515
:10105300A501120138EFA501120138DBA601120127
:1010630038CFA7011201383D5900120138B563008A
:10107300120138BB6300120138C76A0012013853EA
:10108300FC02120138E9FC02120138FFFC021201D2
:101093003879FD02120138CFFD021201380DFE022C
:1010A3001201386AFE02120138E7FE02120138F01B
:1010B300FE02120138FCFE021201380FFF02120178
:1010C300384BFF0212013861FF02120138C0FF02E0
:1010D3001201380080031201380D800312013827F2
:1010E3008003120138668003120138A480031201C1
:1010F300380981031201381E810312013829810343
:101103001201383681031201384D81031201385B15
:1011130081031201386681031201387281031201BF
:10112300388181031201388C8103120138AF8103A6
:10113300120138588203120138688203120138827F
:1011430082031201389F8203120138BB820312010A
:1011530038E08203120138EA8203120138FE820367
:101163001201381D83031201387E83031201388470
:1011730083031201388A8303120138908303120117
:10118300389C8303120138CF830312013813E30120
:1011930012013895E3011201383EE4011201388649
:1011A300E50112013894E7011201387AE8011201CE
:1011B30038AFE801120138D1E8011201387AE901A8
:1011C3001201384AEB0112013873EB01120138EBBB
:1011D300EB011201381DEC011201382AEC01120156
:1011E3003875EC0112013899EC01120138EAEE016D
:1011F300120138F4EF0112013850F0011201389056
:10120300B801120138A1B90112013885BA011201DE
:10121300388FBA01120138B1BA01120138BDBA01CF
:1012230012013861BC011201388EBC01120138A4CD
:10123300BD01120138F9BD0112013848BF01120185
:10124300381DC00112013879C001120138E4C00110
:1012530012013819C1011201385CC101120138268B
:10126300C4011201383EC401120138CFC401120176
:1012730038DDC4011201382AC50112013838C5010D
:10128300120138A4C5011201381FC60112013876B4
:10129300C601120138F3980212013815990212019E
:1012A30038269B02120138E59D021201380F9F0276
:1012B300120138CD9F02120138B9A002120138552C
:1012C300A2031201387AA203120138F0A203120119
:1012D3003853C7021201385CC70212013865C702CE
:1012E3001201383DC802120138EEC9021201381E3C
:1012F300CA0212013849CA0212013879CA0212011C
:1013030038A4CA02120138D8CA0212013804CB0227
:1013130012013847CB0212013872CB02120138B9DD
:10132300CB021201380ECC0212013850CC0212014A
:1013330038AACC02120138D5CC0212013824CD02CE
:1013430012013854CD021201387FCD02120138AD9B
:10135300CD02120138D0CD02120138AEAF03120113
:1013630038DAAF0312013807B00312013811B003A2
:1013730012013821B003120138F5B10312013822EA
:10138300B203E066701008A3E066700A08A3E06683
:10139300700408A3E06622C008C3E096F50808A31A
:1013A300E096420808A3E096420808A3E0964208A4
:1013B300A2D265D033E5087001D3D00822C3E796E3
:1013C3000809E7960809E7960809E79622C3E09615
:1013D30008A3E09608A3E09608A3E09622C008C3FA
:1013E300E096F50808A3E096420808A3E0964208B1
:1013F30008A3E09645087001D3D00822080808E640
:1014030030E71112183A121417080808C64480C6A8
:1014130018181822181818E9799EC608CAC608CBE6
:10142300C608CCC6C370207996CACBCC7019798E06
:10143300CBCC70137986CC700EF9802ACA33CACB11
:1014430033CBCC33CC331930E7F2CCCBCA33501483
:101453007004EA30E00DE4CA3ACACB3BCBCC3CCCB7
:10146300500209C3E913C6CC182313C6CB18C6CA46
:1014730018C6F9221214B720F01430E72B74FFFCBE
:10148300FBFA747F8022E4FCFBFA7480801AB48038
:1014930008BC00F2BB00EF800F50EBF9E4C39AFAEB
:1014A300E49BFBE49CFCE499C6CC18C6CB18C6CAE3
:1014B30018C6F922E4C9C608CAC608CBC6D3330383
:1014C30008CCC63392F0C3947F402E94184019C9B8
:1014D300B90704CACBCC225025C309CA33CACB33BC
:1014E300CBCC33CC33D9F422F4600DC9CCC313CBAA
:1014F30013CBCA13CAD9F6CC22E4FCFBFA2214FCA0
:10150300FBFA22E6C33318461846184622E7C333CC
:1015130019471947194722181818E6084608700A88
:10152300E608C3337005E633F4220822191919E7D4
:10153300094709700AE709C3337005E733F4220941
:1015430022E6084608C3134608336002E633F42252
:10155300E7094709C3134709336002E733F422005D
:10156300121544604F1215536012E7548066F61249
:10157300151A7011121510703B090909F4F618F6C3
:1015830018F618F62212152F7015121506080808FA
:1015930060EAE6447FF618768018E4F618F622121D
:1015A300150660161215107012E4F608F608F60810
:1015B300E65480F609090918181822EAC0E0EBC0BE
:1015C300E0ECC0E0EDC0E0E687F0A4FBACF008E699
:1015D30087F0A42CFCE435F0FA1809E687F0A42C74
:1015E3004B60027401CA35F0FCE433FB09E687F073
:1015F300D2F7A42CCB35F0FC1908E687F0A42BCC4A
:1016030035F0FBE433FD0819E687F0D2E7A42C4A52
:10161300CB35F0CD3400FC09E687F0D2E7A42DCC1E
:1016230035F0FDE433FA0918E687F0D2F7A42CCDA0
:1016330035F0CA3400FC08E687F0D2E7D2F7A42AD3
:10164300CC35F07A7E20E70B0ACB33CBCD33CDCC30
:1016530033CC33CB3350147004ED30E00ED2F1E4CD
:10166300CD3DCDCC3CCC3B5005DA05C2F1EB547FEC
:10167300C63308E63392F0FBE73309E733C39A50E6
:101683002D2B70190C0D4C4D70151806E608C3333D
:10169300700D20F10AA2F013F6E418800B4024E445
:1016A300F630F002768018F618F618F68024D33B4D
:1016B30014501074FFA2F013F6187680E418F6188D
:1016C300F6800FA2F013F618E63303F618ECF618BB
:1016D300EDF6D0E0FDD0E0FCD0E0FBD0E0FA22084C
:1016E3000808EAC0E0EBC0E086F0E7A4FA18098630
:1016F300F0E7A42AFA180986F0E7A42AFA1809865B
:10170300F0E7A42AFA1986F0E7A4FBE5F02AFA1910
:101713000886F0E7A42BFBE5F03AFA190886F0E710
:10172300A42BFBE5F03AFA18180986F0E7A4C5F0F4
:101733002BFBE43AFA1908E7C5F0C6A426F6E5F050
:101743003BFBE43AFA1886F0E7A4F6E5F00826F640
:10175300E43B08F6E43A08F6D0E0FBD0E0FA22E4F2
:10176300CFC0E0E4CEC0E0E4CDC0E0E4CCC0E0759F
:10177300F020C3E633F608E633F608E633F608E668
:1017830033F6181818EC33FCED33FDEE33FEEF336C
:10179300FFC3EC9709ED9709EE9709EF971919190C
:1017A300400FFFEC97FC09ED97FD09EE97FE191921
:1017B30006D5F0BEECF709EDF709EEF709EFF719D7
:1017C3001919D0E0FCD0E0FDD0E0FED0E0FF2212FA
:1017D300183D18181812176212182919191922120C
:1017E3001829191919080808E618181820E7E0122B
:1017F300176212183D18181822090909E71919194F
:1018030020E7DC080808E618181820E70302176227
:1018130012183D18181812176212183D18181812CA
:10182300182919191922E4C397F709E497F709E46A
:1018330097F709E497F722181818E4C396F608E413
:1018430096F608E496F608E496F622601608080869
:10185300C6C313C618C613C618C613C618C613C6FE
:10186300D5E0EA227009080808226016181818C67D
:10187300C333C608C633C608C633C608C633C6D57F
:10188300E0EA22E627F60809E637F60809E637F61E
:101893000809E637F622E026F608A3E036F608A3A1
:1018A300E036F608A3E036F622E026F008A3E03699
:1018B300F008A3E036F008A3E036F022C3E697F67B
:1018C3000809E697F60809E697F60809E697F62267
:1018D300C3E0C696F608A3E0C696F608A3E0C6964C
:1018E300F608A3E0C696F622C3E096F008A3E096B6
:1018F300F008A3E096F008A3E096F022E056F6087D
:10190300A3E056F608A3E056F608A3E056F622E055
:1019130056F008A3E056F008A3E056F008A3E056FB
:10192300F022E0F608A3E0F608A3E0F608A3E0F649
:1019330022E6F008A3E6F008A3E6F008A3E6F02207
:10194300E0FAA3E0FBA3E0FCA3E0FD22EAF0A3EBB3
:10195300F0A3ECF0A3EDF022CAC0E0E6F0A308DAAE
:10196300FAD0E0FA22CAC0E0E0A3C582CCC582C5A2
:1019730083CDC583F0A3C582CCC582C583CDC58382
:10198300DAE6D0E0CA22C3E498F8E499F91219CA56
:101993008026C3E49AFAE49BFBE920E7E91219CA1B
:1019A300E498F8E499F922C3E498F8E499F9121950
:1019B300CAE498F8E499F9C3E49AFAE49BFB22EBAE
:1019C30020E7CFE920E7E0B90010BB0008E88AF080
:1019D30084F8AAF022E4FBC8FA22EB70227B10C839
:1019E30033C8C933C9335007C39AC3DBF280069A9D
:1019F30050012ADBEAC833F4C8C933F4C9FA2275A3
:101A0300F008E4C833C8C933C933C99AC99B500421
:101A1300C92AC93BD5F0ECFBC833F4C8E4C9FA22A0
:101A2300600D08C6A2E713C618C613C6D5E0F32295
:101A3300600C08C6C313C618C613C6D5E0F42270DB
:101A43000422600D18C6C333C608C633C6D5E0F4F6
:101A53001822251810AF08F518400215198008F54B
:101A63001840021519D2AF22C0D0251810AF08F5BF
:101A730018500205198008F51850020519D2AFD085
:101A8300D0222518F58210AF08F5184002151980E9
:101A930008F51840021519D2AF851983222518F5C8
:101AA30082E43519F58322E4732518C582C0E0E585
:101AB3001934FFC583C0E0E518C3958224F810AF3D
:101AC300088583198582188008858319858218D231
:101AD300AFCEF0A3E520F0A37808E608F0A3DEFA82
:101AE300EFF0A3E58124FAF8E608F0A3E608F0A3F3
:101AF300E608F0A30808E608F0A3E608F0A31581BA
:101B03001581D0E0FED0E0F8158115811581E8C07C
:101B1300E0EEC0E0222518C582C0E0E51934FFC518
:101B230083C0E0E518C3958224F910AF08858319B3
:101B33008582188008858319858218D2AFCEF0A3D9
:101B4300E520F0A37808E608F0A3DEFAEFF0A3E5BA
:101B53008124FBF8E608F0A3E608F0A30808E608EA
:101B6300F0A3E608F0A315811581D0E0FED0E0F8DC
:101B730015811581E8C0E0EEC0E022851983851840
:101B830082E0A3FEE0A3F5207808E0A3F608DFFADD
:101B9300E0A3FFE0A3C0E0E0A3C0E0E0A3C0E0E077
:101BA300A3C0E0E0A3C0E010AF08858218858319C5
:101BB3008008858218858319D2AFD083D082020131
:101BC30035851983851882E0A3FEE0A3F520780804
:101BD300E0A3F608DFFAE0A3FFE0A3C0E0E0A3C0C0
:101BE300E0E0A3C0E0E0A3C0E010AF088582188561
:101BF30083198008858218858319D2AFD083D08258
:101C030022C0D02518C582C0E0E51934FFC583C0C2
:101C1300E0E518C3958224F310AF08858319858204
:101C2300188008858319858218D2AFC8F0A3E9F01C
:101C3300A3EAF0A3EBF0A37908E709F0A3D8FAEC41
:101C4300F0A3EDF0A3EEF0A3EFF0A3D0E0F0A3D068
:101C5300E0F0A3D0E0F0A3E520F0A3E5F0F0A322A9
:101C6300851983851882E0C0E0A3E0F9A3E0FAA315
:101C7300E0FBA37808E0F608A3DFFAE0FCA3E0FDAD
:101C8300A3E0FEA3E0FFA3E0C0E0A3E0C0E0A3E085
:101C9300F5D0A3E0F520A3E0A3F5F010AF0885830A
:101CA300198582188008858319858218D2AFD0825E
:101CB300D083D0E0F8D0E03274048006740280024E
:101CC3007401C0E0F404121A85D0E012195B227487
:101CD30004800474028000CCC0E0EDC0E0E518C3CA
:101CE3009CCCAD1950011D10AF068C188D198006C0
:101CF3008C188D19D2AF121968D0E0FDD0E0FC2208
:101D0300D083D082E9C0E0E493A3C386F0C5F09505
:101D1300F0F908E493A386F0C5F095F0700BE49313
:101D2300A3C3994005E9048002A3E475F002A42546
:101D330082F582E5F03583F583D0E0F9E493A3C01F
:101D4300E0E493C0E022D083D082ECC0E0EDC0E0B9
:101D5300E493A3FCE493A3FDED4C600D121D95ECFD
:101D630024FFFCED34FFFD80EFE493A3FCE493A395
:101D7300FDED4C600D121DD4EC24FFFCED34FFFD92
:101D830080EFD0E0FDD0E0FCE493A3C0E0E493C097
:101D9300E022C0E0C3E49396087401939618400FC1
:101DA300E49366700808740193661870007019A3B1
:101DB300A3C3E49396087401939618A3A3400DD08C
:101DC300E0D0E0D0E0021D85A3A3A3A3A3A3D0E0AA
:101DD30022C0E0C0F088F0E49366700808740193B1
:101DE30066187000A8F0A3A3700BD0F0D0E0D0E089
:0C1DF300D0E0021D85A3A3D0F0D0E022B8
:101E0000C0E074F2121C04A2AFE433FEC2AFE58955
:101E1000A2E150085389FDC2C512044FEEA2E09220
:101E2000AF7F01021C63C0E0C0D0E8C0E0E5A8D2EB
:101E3000AFC2C7751A00A2E792AFD0E0F8D0D0D0F9
:101E4000E03274F5121B18EAFEEBFFEE2434F8EFD3
:101E50003400F988088909EE2435F582EF3400F55D
:101E600083E0F8EE2437F582EF3400F583E0F50ADD
:101E7000EC850AF0A4FCAAF0850AF0EDA42AFDE89E
:101E80002CF8E43DF97A257B001219CAEA8508820C
:101E9000850983F05407F87401B800028004C33345
:101EA000D8FCC0E0E0131313541FF8EE28F8EF3409
:101EB00000F9E8245DF582E93400F583D0E0F8E02C
:101EC000586008EE2434F582EF801EEE2436F58249
:101ED000EF3400F583E0F5F0EA84A8F0EE28F8EF9F
:101EE0003400F9E82438F582E93400F583E0F97F1D
:101EF00004021BC474F5121B18EAFEEBFFEE243437
:101F0000F582EF3400F583E0C0E0EE2435F582EF92
:101F10003400F583D0E0F08E828F83A3A3A3A3A324
:101F2000A3A3C082C0838E828F83A3A3A3A3A3E0B5
:101F3000F8A3E0F9D083D082E0C398F508A3E09934
:101F4000F509EE2480F582EF3400F583E06401703A
:101F500069EE2481F582EF3400F583E0F8A3E0F91F
:101F60008E828F83A3A3A3A3A3A3A3E0FCA3E0FD7E
:101F70008E828F83A3A3A3A3A3E0FAA3E0FBC3EA0B
:101F80009CEB9D5027C3EC98ED99402EC3EA98EB4B
:101F90009950277C7D7D08EEFAEFFB120F71EE243D
:101FA00080F582EF3400F583E4F0800EC3EA98EB0D
:101FB0009940E0C3EC98ED9950D9EE2434F8EF3411
:101FC00000F9E8FCE9FDEE2435F582EF3400F583F5
:101FD000E0F8EE2437F582EF3400F583E0F50AE50A
:101FE00008850AF0A4F508AAF0850AF0E509A42AF4
:101FF000F509E82508F8E43509F97A257B00121976
:10200000CAEA8C828D83F05407F87401B80002800C
:1020100004C333D8FCC0E0E0131313541FF8EE28B8
:10202000F8EF3400F9E8245DF582E93400F583D057
:10203000E0F8E0586008EE2434F582EF801EEE24CC
:1020400036F582EF3400F583E0F5F0EA84A8F0EE8F
:1020500028F8EF3400F9E82438F582E93400F583F4
:10206000E0F91228F1021EEFC082C0838518828534
:102070001983E0F8A3E0F9C3EA9CEB9D5012C3EC8E
:1020800098ED994019C3EA98EB99501279018010A4
:10209000C3EA98EB9940F5C3EC98ED9950EE7900BE
:1020A000D083D08222EAC39CFAEB9DFB2200000081
:1020B0008521878522C622C0E0C0D0E8C0E0E9C003
:1020C000E0EAC0E0EBC0E0ECC0E0EDC0E0C008C07A
:1020D00009C00AC00BC082C083C0F0759B0090612C
:1020E00082E0A2E64003022195E591A2E6400302C8
:1020F00021957591BF900742E0640570081210A900
:102100001210B580031210AF75210012110FE99063
:102110000743F07900121103120EE77A017B009059
:102120000741E0F91204AF907803E06442600302D3
:1021300021DE9008DFE014F060030221DEC2AF125E
:10214000214200782AD0E0F618D0E0F6E59F540747
:10215000F970059081A8800390819878081219255C
:10216000E9C4C0E07829E65508F50808E65509F500
:1021700009740B7808121A33D0E02508F8906270C1
:10218000E0A2E740F8E8C333906272F0906270E03A
:10219000D2E0F08049E0A2E55024E591A2E5501E8E
:1021A0007591DF900742E0640D7013900764E004BE
:1021B000F064287002E4F07A00E0F9121181906175
:1021C00081E0A2E35009E5E9A2E3500375E9F7A332
:1021D000E0A2E75009E591A2E7500375917FD0F0A6
:1021E000D083D082D00BD00AD009D008D0E0FDD067
:1021F000E0FCD0E0FBD0E0FAD0E0F9D0E0F8D0D0BD
:10220000D0E032C0E0C0D0C082C083906183E0A241
:10221000E05009E5BFA2E0500375BFFEE0A2E15027
:1022200009E5BFA2E1500375BFFDE0A2E25009E558
:10223000BFA2E2500375BFFBE0A2E35009E5BFA2D5
:10224000E3500375BFF7E0A2E45009E5BFA2E450F4
:102250000375BFEFE0A2E55009E5BFA2E5500375A5
:10226000BFDFE0A2E65009E5BFA2E6500375BFBF9D
:10227000D083D0828088C0E0C0D0E8C0E0E9C0E070
:10228000EAC0E0EBC0E0ECC0E0EDC0E0C0F0E5A7E4
:10229000A2E6500FE5A1A2E6500953A7BF75A1BF62
:1022A0001222DBE5A7A2E5500CE5A1A2E5500653FA
:1022B000A7DF75A1DFE5A7A2E15009E5A1A2E150E2
:1022C0000375A1FDE5A7A2E2500CE5A1A2E250062C
:1022D00053A7FB75A1FBD0F00221EC74F8121B1878
:1022E000752101900742E06406701512103D8A8244
:1022F0008B83A3A3A3A3A3A3E0FAA3E0FB121097ED
:10230000A2AFE433FED2AF900748E0640170187AC0
:10231000207B00900741E0F91205397A207B00907C
:102320000741E0F91204B5906182E0D2E6F090082E
:10233000DEE0602185C6228016900747E0640170C8
:1023400008E5C654F84405F5C653BEFC1220B07427
:1023500001652160E4EEA2E092AF7F01021BC400A0
:102360008E238F248582288583278518828519836B
:10237000E0CEA3E0CF852882852783EBC9EAC8EDAC
:10238000CBECCA75F010C3E833C8E933C9EA33CAE5
:10239000EB33CBC3EA9EF526EB9FF525B35004AB98
:1023A00025AA26EC33CCED33CDD5F0DAAE23AF241D
:1023B0002274EB121B1874FA121A558A088B098CB6
:1023C000148D15900742E024F7C3940550069082BF
:1023D0000002251312103D8A0A8B0BAE0AAF0BEEDA
:1023E0004F7003022510AC08AD098518828519834A
:1023F000AA82AB831210C78E828F83A3A3780812A0
:1024000019259081CC78081218FF851882851983C8
:10241000780C1219259081CC780C1218FF78087965
:102420000C1213C0501F7808790C1218BF908164E9
:1024300078081213E04047850810850911850A12B3
:10244000850B138041850C10850D11850E12850FAB
:1024500013781079081218BF90816478101213E075
:10246000501C75100075110075120075130178105D
:10247000790C1218BF78107908121886800890829B
:102480000078101219257409781012186790816865
:102490007808121925781079081217628E828F83B6
:1024A000A3A3A3A3A3A3E0F8A3E0F97AD07B03122C
:1024B00019CA88088909E4F50AF50B781079081219
:1024C00018867404121AA0E0F8A3E0F97AD07B030E
:1024D0001219CAE8FA8A08E4F50978107908121383
:1024E000C05007781079081218BF900742E06408BE
:1024F000600AE064066005E06405701C90816C78F9
:10250000101213E050129081707810121899800800
:102510009082107810121925851482851583781001
:102520001219347406121A6B7F0E021BC474F71250
:102530001B181210D99008DCE064017010906245FD
:10254000E4F0A3F053F4F343FE0C5390F312108520
:10255000E5C654804449F5C6E59E547F644970F849
:10256000906185740FF09008DAE0F47002A3E060E7
:102570004E9008DBE0600814601B14602E804075EC
:1025800008017509009008DAE07808121A42E50897
:10259000F45280802A7508017509009008DAE07805
:1025A00008121A42E508F452908014750801750962
:1025B000009008DAE07808121A42E508F452A0798F
:1025C000007F02021BC474F7121B18E9FEEAFF74B5
:1025D000016E700C7A807B00900741E0F91204AF25
:1025E000902900E493F46008E493F9120EDB80096B
:1025F00053C680E59E547F70FA12108B9008DCE081
:1026000064017003120EF39008DAE0F47002A3E0A4
:10261000604B9008DBE0600814601A14602C803D69
:102620007508017509009008DAE07808121A42E589
:1026300008428080287508017509009008DAE07862
:1026400008121A42E50842908013750801750900C6
:102650009008DAE07808121A42E50842A01210D970
:1026600012103D8A088B09A808A909E8496015E5F8
:10267000E170FCE82414F582E93400F583E0F460AD
:1026800003E0F5E174016F700A7A01900741E0F907
:102690001205090225C174F1121B188A088B098CD6
:1026A0000A8D0B740F121AA0780C1219259081CC88
:1026B00078081218FF9081CC780C1218FF780879EE
:1026C0000C1213C050157808790C1218BF90816451
:1026D00078081213E0401579018013780C790812FC
:1026E00018BF908164780C1213E040EB79007F08EA
:1026F000021BC474ED121B188A088B098C0A8D0BFF
:102700007413121AA0780C1219259081CC78081233
:1027100018FF9081CC780C1218FF780C79081213EE
:10272000C040117808790C1218BFAA08AB09AC0A8E
:10273000AD0B802275100075110075120075130124
:102740007810790C1218BF78107908121886AA1020
:10275000AB11AC12AD137F0C021BC49081CC780876
:102760001219258A828B8378081219127F04021BA2
:10277000C474F5121B188C828D8378081219258A6F
:10278000828B8378081218EBEA2404F8EB3400F902
:102790008C828D83A3A3A3A3E0FCA3E0FD888289A0
:1027A00083C3E09CF0A3E09DF088828983C3E0941A
:1027B00020A3E0944E402290820878081219258ABE
:1027C000828B8378081218AC8A828B83A3A3A3A37D
:1027D000E02420F0A3E0344EF0808074F5121B1842
:1027E000E9FE900894E0FAA3E0FBEEC333F8E4338B
:1027F000F9749128F582748039F583E02AF508A3ED
:10280000E03BF5097808121CBF9081A4121943120D
:1028100023607402121A6B8A088B098C0A8D0B7460
:1028200010780812184EAA08AB097F04021BC47462
:10283000F1121B188A0C8B0D8C0E8D0F740F121A4F
:10284000A0E0FAA3E0FB7411121AA0E0F508A3E0DF
:10285000F5097413121AA0E0FEA3E0FF7808121C19
:10286000BFEA2401F508EB3400F509E4F50AF50B9D
:10287000780C79081216E29081747808121925787C
:102880000C79081216E2AA0CAB0DAC0EAD0F122398
:10289000607402121A6B8B09EA450960047A0180A0
:1028A000027A00EC2AFCED3400FDECF8EDF97A71C7
:1028B0007B021219CA88088909E4F50AF50B8E8291
:1028C0008F837808121934ECF8EDF97A717B0212D3
:1028D00019CA8A088B0974057808121A428E828FE9
:1028E00083A3A3A3A3E508F0A3E509F07F08021BD7
:0F28F000C4C082C083E9906000F0D083D0822200
:10290000FFFFFFFFFFFFFFFFC082C083E9900CF8CD
:10291000F0022B2774F7121AACE9900660F07C984D
:102920007D067AFF7BFF120C1790066174FFF0A3FF
:10293000F0A3E4F0A3F07905120BA5900660E0F98E
:10294000120ACD7A2F7B0C120DF102383574F41275
:102950001AAC8A088B09EB54806030900660E0F96D
:102960001204978A0A8B0BAE0AAF0BEE4F60138EE0
:10297000828F83E064B07003120BB7EEFAEFFB12A4
:102980000485AA08E5096480FB80047A007B0002C4
:102990002AF674F2121AAC74FC121A55EAFEEBFF16
:1029A0007412121AA0123D1CEE4F7003022A3574E5
:1029B00002121AA0EEF0A3EF122D31ECF0A3ED12EB
:1029C0002D31AA82AB83120AC7E9F50A706AE508BD
:1029D000450960648E828F83123D02EE4F60567A05
:1029E000067B001204F18A0C8B0DA80CA90DE84996
:1029F0007005750A13804188828983E4122A42EEA9
:102A0000F0A3EF123D2DE508F0A3E509F09006666E
:102A1000122AC990066670051237DF801B1237CD67
:102A20008003EAFCEBFD8C828D83122AC970F38C43
:102A3000828D8380E3750A02A90A7404121A6B025C
:102A40003F1CF0A3123CD3A32274F2121AAC890AE1
:102A5000E975F017A4FEAFF0900665E4F090066308
:102A6000122AC9600A1204F7900663E4F0A3F0EE9C
:102A7000FAEFFB1204F18A088B09EA4509602FEE90
:102A8000FCEFFD7900120473900663E508F0A3E5FE
:102A900009F07B008008122AB3E4F0A3F00BEBC32B
:102AA000950A40F2E50A900665F0790080027913F4
:102AB000023F1CEB75F017A4F8A9F0900663E0281C
:102AC000FAA3E0398A82F58322123471EA4B227428
:102AD000F4121AAC7900EAA2E0501B75085475098B
:102AE000817808121CBF7C047D007AFA7B0C120BE3
:102AF0009F7402121A6B7F04021B7EC082C08390F7
:102B00000666122B2E601C88828983A3A3E06A705C
:102B100003A3E06B8882898370E8A3A3A3A3123484
:102B20006D80047A007B00D083D082020135124090
:102B300002E8492274EE121AAC74FC121A55EAFE2D
:102B4000EBFF851882851983E4F0A3F0EE240212CE
:102B500037BFEE2405123CDAEE2404F50EEF1230F6
:102B6000E6E024FE603924FC604624FE605224FE28
:102B7000605E24FE7003022C4724FE7003022CAB1F
:102B800024FE7003022CBA24FE7003022CC924FC1C
:102B90007003022CD824FE7003022CE7022D24902F
:102BA000067F7417F0A3E4122D39120845022D2474
:102BB000851882851983AC82AD83120BBD022CF47B
:102BC000851882851983AC82AD83120BC3022CF465
:102BD000850C08850D097402121AA0AC82AD83859C
:102BE000088285098312346D120AEB8A0C8B0DACB6
:102BF0000CAD0DEC4D603BE4F50CF50D780C121CA2
:102C0000BF750C7F750D06780C121CBF750C807596
:102C10000D06780C121CBF7408121AA0121CD612D2
:102C20004026121A6BE9F50C700B12346312085D22
:102C3000800F750C01850882850983122D271237B4
:102C4000DF850C08022CF77402121AA0AC82AD8347
:102C5000850C82850D83123238603C850C82850D8F
:102C600083A3A3121CD675107F7511067810121C51
:102C7000BF7510807511067810121CBF7408121AE7
:102C8000A0121CD6124026121A6BE9F509700B121D
:102C90003463120863800F750901850C82850D83EA
:102CA000122D271237DF850908804C851882851977
:102CB00083AC82AD83120BC9803A85188285198353
:102CC000AC82AD83120BCF802B851882851983AC23
:102CD00082AD83120BD5801C851882851983AC8246
:102CE000AD83120BDB800D851882851983AC82AD14
:102CF00083120BE1E9F508E50860298E828F83A332
:102D0000E06414601F850E82850F83E090067F12B9
:102D10002D31123FFE9006801237DFE508A3122DF9
:102D20003912083F0236CE12400285188285198377
:102D300022F085188285198322F07C7F7D06850A22
:102D400082850B831234712274EE121AAC74FC1259
:102D50001A558A0A8B0B8C0E8D0FEA2405F508EBA9
:102D60003400F5097C157D0079007A7F7B0612041A
:102D700073E5082402F50CE509123CDD851882850F
:102D800019838582108583117810121CBF850882F3
:102D9000850983A3A3A3A312322F121CBFE5082425
:102DA00005F510E5093400F5117810121CBF850CEB
:102DB00082850D83123584120AE57406121A6B8A15
:102DC000108B11AE10AF11E50A2402F50AE50B12C3
:102DD00037C2EE4F7003022F0680177402121AA03A
:102DE00012346D88828983EAF0A3EBF090067FE0CD
:102DF00004F090067FE0C394054003022F06E4F53B
:102E000010F5117810121CBF751068751106781036
:102E1000121CBF7510697511067810121CBF74065C
:102E2000121AA0121CD67910EEFCEFFD12402812E7
:102E30001A6BE9705E850882850983A3A3A3A3A307
:102E4000A3A3E0F8900668E068704812322F121CC5
:102E5000BF7C697D06E5082408FAE5093400FB1209
:102E6000046D7402121A6BE960298E828F83A3A30A
:102E7000A3A312346D90067FE0F51074027810124F
:102E80001A4274802510F58274063511F583EAF034
:102E9000A3EBF07402121AA08582108583117810BA
:102EA000121CBF7402121AA0121CD6850C82850D4A
:102EB00083123493121A6B8A108B11AE10AF1190DB
:102EC000067FE0F51075110074027810121A427432
:102ED0007F2510F874063511F988828983A3122A98
:102EE000C97003022DD2E82403080808E93400F968
:102EF000EE4F6003022DDB8882898374FFF0A3F01C
:102F000090067FE004F090067FE0600A12346312BE
:102F100008517900800B8508828509831237D6799C
:102F20000A0236CE74EA121AAC74FE121A558C12CA
:102F30008D13EA2405F50CEB124010123D067508BE
:102F400000750900EA2402F510EB3400F51185182C
:102F50008285198385820A85830B780A121CBF85B6
:102F60000C82850D83A3A3A3A31230FC121CBFE522
:102F70000C2405F50AE50D1237C2780A121CBF852C
:102F80000C82850D83123100120AE57406121A6B49
:102F90008A0A8B0BEA450B70030230A1EA2404F580
:102FA0000EEB1230E6123D068A828B83A3A3A3E0C8
:102FB000F985108285118312347760030230A1E411
:102FC000F514F5157814121CBF751468751506787C
:102FD00014121CBF7514697515067814121CBF7481
:102FE00006121AA0121CD67913AC0AAD0B851082FA
:102FF00085118312402E121A6BE9F5096003023025
:10300000A1900668E0F8E5087009E02402900680C7
:10301000F08014900680E0FCE82402FAE43400FB1F
:10302000EA6C7001EB707E850882AA8212322694C7
:103030001412321E506B850E82850F83E0C0E0743F
:10304000812A1230DDD0E0F00508850E82850F83DD
:10305000A3E0C0E085080A7481250A1230DDD0E0C3
:10306000F005089006681230FC121CBF7C697D06D2
:1030700085080A7481250A1230F0121A6B900668CE
:10308000E02508F50874FF6E700374FF6F6012EEA0
:1030900024010EEF3400FFE508C394145003022FFF
:1030A0004EE5086013123481851082851183123435
:1030B0006D12085779008014E509700375090A85B7
:1030C0001282851383EEF0A3EFF0A9097402121A9D
:1030D0006B7F0E021B7E85080C7481250CF58274B3
:1030E000063400F583223400F50F850E82F5832225
:1030F000FA74063400FB12045B740222123D3C2277
:10310000A3A3123106221237CDFDEEFAEFFB227493
:10311000EE121AAC74FE121A558C0E8D0FEA2405AD
:10312000F50CEB123CDD750B0090067FE4F0F50A20
:10313000EA2402F508EB3400F509804490067FE0AC
:10314000FA900668E0F8123226941712321E400DEB
:1031500090067FE0F87416C398900668F012322F3C
:10316000121CBF7C697D0674802AFA74061230F343
:10317000121A6B900668E0F890067FE028F0050AC6
:10318000E50C2416F582E50D1230E1E0F8E50AC3FE
:1031900098507490067FE0C39416506BE50AC333D1
:1031A000F8E433F9E50C28FEE50D39FF8518828532
:1031B0001983AC82AD838E828F831232387008758A
:1031C0000B011237D28050E4F510F5117810121C63
:1031D000BF7510687511067810121CBF75106975DF
:1031E00011067810121CBF7406121AA0121CD67990
:1031F0001685088285098312402E121A6BE9F50B99
:10320000700302313C80BB7C7F7D06850882850986
:103210008312346D120869A90B74020236D0E99446
:1032200000C365D03322EA28F8E43400F9E822E04C
:10323000F5107511007810221236C58A108B11AC6A
:1032400010AD11EC4D2274EA121AAC74FC121A552E
:103250008A0C8B0D8C128D13EA2405F50AEB1237BC
:10326000C2750800750900E50A2402F510E50B3463
:1032700000F5117402121AA085820E85830F780E54
:10328000121CBF850A82850B83A3A3A3A3123CE271
:10329000121CBFE50A2405F50EE50B3400F50F7886
:1032A0000E121CBF8510828511831237C812346735
:1032B000120AE57406121A6B8A0E8B0FAE0EAF0F50
:1032C000E50C2402F50EE50D3400F50F80388882F8
:1032D000898374FFF005081230D674FFF00508905A
:1032E0000668E0F50C750D00780C121CBF7C697D3A
:1032F0000685080C7481250C1230F0121A6B9006AA
:1033000068E02508F508EE4F60278E828F83A3A31F
:10331000A3E0F9850E82850F83123477EE24041220
:103320003CDAE96027850C82850D83123459123707
:10333000DFE508700302343F123481850E82850F69
:103340008312346D12086F7900023454E4F514F5D9
:10335000157814121CBF7514687515067814121CA4
:10336000BF7514697515067814121CBF7408121AFB
:10337000A0121CD67911EEFCEFFD850E82850F831D
:1033800012402E121A6BE9F509709A850882AA82FA
:10339000EA9006687009E02404900680F08025E039
:1033A000F8900680E0F514E82404FCE43400FDEC19
:1033B00065147001ED7081123226941212321E4093
:1033C00003023338850C82850D83E0C0E074812AC6
:1033D0001230DDD0E0F00508850C82850D83A3E076
:1033E000C0E01230D6D0E012349C85820C85830D6B
:1033F000780C121CBF7404121AA0121CD6851082FD
:10340000851183123493121A6B8A0C8B0DAE0CAF9C
:103410000D85080C7481250CF874063400F9EE4F04
:1034200070030232CE851882851983E088828983F1
:1034300012349CA3E0C0E01230D6D0E00232DCE5CA
:1034400009700375090A850A82850B8312345912A3
:1034500037DFA90974040230CE124002851282853A
:103460001383227C7F7D06850A82850B831234714B
:1034700022E0FAA3E0FB22123471120AD3E9F50923
:1034800022900680E0F5F0E5088490067FF07C7FCE
:103490007D0622123106120AF1740422F005088515
:1034A00018828519832274EC121AAC74FE121A5514
:1034B0008A088B098C0E8D0FEA2405FEEB3400FF81
:1034C0001236AFEE2418123CDAEA450B70030235CF
:1034D0005212369850291235778A108B11EA45110D
:1034E000606B7912AC0AAD0B8508828509831234B2
:1034F0006D851082851183121AAAE9F50A7058E4C5
:10350000F50AF50B780A121CBF8E828F83A3A3E005
:10351000F50A780A121CBFEE24031237BF780A128C
:103520001CBF8E828F83123584120C057406121A0A
:103530006BE9F50A7021850C82850D83E0701F858B
:10354000088285098312346D1208758011750A0E80
:103550008009750A018004E50A60031237D2850CE0
:1035600082850D83E0600479008002A90A7402124A
:103570001A6B7F0C021B7E851882851983123471A9
:10358000120BF3221237CDFD850882850983123490
:10359000712274EE121AAC74FE121A558A088B0945
:1035A0008C0C8D0DEA2405FEEB3400FF750E001225
:1035B00036AFEA450B7003023676123698502C125D
:1035C00035778A0E8B0FEA450F604A7912AC0AAD47
:1035D0000B85088285098312346D850E82850F83E1
:1035E000121AAAE9F50E6003023679850882850968
:1035F000831238B4AA0AFB12368A70147AFF7BFF52
:1036000012368A606C88828983E50AF0A3E50BF0A4
:10361000750A008007750E0E805F050A900665E04A
:10362000FAE50AC39A504AE50A75F017A4FAABF016
:1036300088828983A3A3E02AFAA3E03BFB8A828BDA
:10364000831237C8EC4D70D2750A17750B00780AD3
:10365000121CBFEEFCEFFD12045B7402121A6BEE3B
:10366000FCEFFD85088285098312346D12087B808A
:1036700014750E098003750E01123FFA850C8285C0
:103680000D831237DFA90E023219120BE78A108B55
:1036900011A810A911E84922E5082402F508E50956
:1036A0003400F5098A828B83A3A3A3E0A2E52285D7
:1036B0001882851983AC82AD838E828F831236C5C2
:1036C0008A0A8B0B22E0FAA3E0FB120AEB227404B5
:1036D000121A6B7F0A021B7E74EC121AAC8C108DCE
:1036E00011EA2405F50CEB123CDD750F00EA24020B
:1036F000F50AEB1237C2850A82F58312346D124047
:10370000B470030237B4750E008071850C82850D8C
:1037100083E06401704F8E828F83A3A3121CD68E28
:10372000828F83A3A3A3A3E0F5127513007812126E
:103730001CBFEE2405F512EF3400F5137812121CAD
:10374000BF123467120C057406121A6BE9F50F608C
:1037500014850C82850D83E4F0123FFA8510828572
:1037600011831237DF7C177D007900EEFAEFFB1230
:1037700004738E828F83E4F0A3F0050E900665E05B
:10378000F8E50EC398501EE50E75F017A4F8A9F0E1
:10379000850882850983A3A312401A1237C8EC4D0D
:1037A000600302370B85088285098374FFF0A3F05C
:1037B000E50F7006123467120881A90F023572F501
:1037C0000AEF3400F50B22A31237CDFD22E0FCA353
:1037D000E0228E828F83124002850E82850F83E85D
:1037E000F0A3E9F022C082C083900661E06A700312
:1037F000A3E06B70067A617B0680047A007B00028E
:103800002B2774F7121AAC7F00EF75F003A4F8A908
:10381000F0EC28F8ED39F988828983E06A7003A317
:10382000E06B7006E8FAE9FB800B0FEFC3940240EF
:10383000D87A007B007F01021B7E74F6121AAC124C
:103840003DEB70067A007B008007A3A3A3A312348C
:103850006D023EAC74F2121AACE9FE740E121AA09C
:103860001238B47410121AA0123D1C8C828D83E0A1
:103870006402703BA3123FFE88828983E0F50CA3AB
:10388000E0F9A80C74026870037429697021750C42
:1038900002750D00780C121CBF7808121CBF780A44
:1038A000121CBFEEF9120C297406121A6B800279F1
:1038B00001023F1CE0F50AA3E0F50B2274E8121A9E
:1038C000AC74FB121A55E9851882851983F08A16A3
:1038D0008B178C0E8D0F741F121AA0123D1C7421B1
:1038E000121AA01238B47423121AA0123D067510D1
:1038F000008C828D83A3A3A3E0A2E4502A741D123E
:103900001AA012357D8A828B83E58245837003027B
:1039100039C8790AAC0EAD0FAA16AB17121AAAE96C
:10392000F51060030239CB850E82850F83E06402B7
:103930006003023C81A3123FFE850882850983A3B0
:10394000858212858313E50E2406F50CE50F123CE3
:10395000DD88828983E0FAA3E0F9EA2400F514E423
:1039600039F5157814121D490100002801289039F5
:1039700007000228673A0328D7390029913B01291B
:10398000B93B0229603B0329913B0429223C813C3D
:10399000EE4F703E850C82850D83123CF7FAE9FBF1
:1039A0008A828B83E0850A82850B83123D33121C49
:1039B000BF8A828B83A31237CDFDAA08AB091204FC
:1039C0005B7402121A6B800375100EA91074050245
:1039D000400875100B80F4EE4F70F7850A82850B56
:1039E000837401F0123D0C850882850983F07C0008
:1039F0007D00850E82850F83A3A3A3A3E02401FA93
:103A0000A3E03400FB120AEBEA4B60418A828B830D
:103A1000E02402F8850A82850B83E028F0EA24047A
:103A2000F8EB3400F988828983E08512828513835C
:103A3000123D45123D33121CBF8A828B831237C759
:103A4000E5082403FAE5093400FB0239BE850A8241
:103A5000850B83E02404F07C047D007900AA12AB7E
:103A6000131204730239CBEE4F60030239D2123DB8
:103A70000CFEA3E0FF850A82850B837404F0EE85BB
:103A80000882850983F0EF851282851383F0740321
:103A9000121AA0AC82AD83EEFAEFFB123DD970038F
:103AA000023B3D8A828B83A3A3123D027401121A4A
:103AB000A085820E85830F780E121CBF7405121A22
:103AC000A0121CD67CFF7DFF120AF17404121A6B3F
:103AD0008B0FEA450F7033850C82850D83123CE213
:103AE000121CBF850C82850D83A3121CD67C027D1F
:103AF000007A2D7B8212091D7404121A6BE9700A78
:103B00007401121AA074FFF0A3F08E828F83E06418
:103B1000027034750C02750D00780C121CBF8E8279
:103B20008F831237C7E5082404FAE5091230F3122F
:103B30001A6B850A82850B83E024028009740112C6
:103B40001AA0EEF0A3EFF07401121AA0123CF3F0E9
:103B50007401121AA0A3123CEBA3A3A3F00239CB69
:103B6000EE4F60030239D2850C82850D831237C86F
:103B7000AA16AB17120C1D850A82850B837402F0FE
:103B8000EA850882850983F0851282851383EB809C
:103B9000CBEE4F60030239D2123D0CF8A3E0F98559
:103BA0000A82850B837402F0E8850882850983F018
:103BB000E985128285138380A3850C82850D83128B
:103BC000346D120455EAFC8C82A882C39EE49F40A7
:103BD0004BE86E7001EF70047C00801F85188285B1
:103BE0001983E0FAEE2AFAEF3400FBC3EA98EB946B
:103BF000005003E08004EECCC39CFCEC850A828577
:103C00000B83F08C0A750B00780A121CBF850C829E
:103C1000850D83E02EFCA3E03F0239B97510070241
:103C200039CBEE4F60030239D2850C82850D8312A9
:103C30003FFE850A82850B837407F0888289831290
:103C40003CEB123CD3E0851282851383F0E824021A
:103C5000FAE93400FB8A828B83123CEB123D24127A
:103C60003CF3A3123D2D123CFCF0E82405F8E934A6
:103C700000F988828983123CFCA3123D45A3023BD4
:103C800059741D121AA0123DE470030239C8123F84
:103C9000FE880C890DE8450D70030239C88E108F1F
:103CA000117810121CBF780A121CBF7808121CBFB2
:103CB0007406121AA0E0F9AC0EAD0FAA16AB178568
:103CC0000C82850D83121AAA7406121A6BE9F5107C
:103CD0000239CBF088828983A322F50CEF3400F5FA
:103CE0000D22E0F50E750F00780E22E08508828522
:103CF000098322123D4C22124002E822123D4CA3BD
:103D0000A322A3A3A3A3E0FEA3E0FF22850C828548
:103D10000D83E0F8A3E0F5838882E022E0F508A3B4
:103D2000E0F50922A3A3F08A828B83A322122A44FE
:103D3000A3A322F08A828B83123D3C22E0F50A7510
:103D40000B00780A22123CD3123D4C22E0850882F7
:103D5000850983A3A32274EE121AAC74FE121A55BD
:103D60008A0A8B0BECFAEDFB7414121AA0E0F51022
:103D7000A3E0F5117416121AA0E0FE7418121AA02E
:103D8000E0F50EA3E0F50F851882851983AC82ADAE
:103D900083123DD9603E851882851983123DE46007
:103DA0002FA3A3123D1CE50845096024780E121CC0
:103DB000BF7810121CBFEEF9AC0CAD0DAA0AAB0B0C
:103DC000850882850983121AAA7404121A6B800668
:103DD000790E80027901023219120AEB8A0C8B0DDE
:103DE000EA450D22123471123DEB22120BB18A8288
:103DF0008B83E58245832274F6121AAC74FE121A84
:103E000055740C121AA0123CF7851882851983F09C
:103E10007401121AA0E9F0E4F508F5097808121CFB
:103E2000BF7508027808121CBF7404121AA085829C
:103E3000088583097808121CBF120C057406121A33
:103E40006B7402121A6B806474F7121AACEAFEEB00
:103E5000FF89087C987D06120C1DEA5402600BA9AC
:103E600008EEFAEFFB120ADF80027901023835749E
:103E7000F6121AAC74FF6A700374FF6B701C7B003F
:103E8000EB75F003A4F8A9F0EC28F8ED39F9123E2F
:103E9000B10BEBC39402501480E6120BED8A088B31
:103EA00009A808A909E8496003123EB17F02021B74
:103EB0007E8882898374FF122A42E4F02274F6120B
:103EC0001AAC120BED8A828B83E58245836006A3D0
:103ED000A3E0FA80027A007B0080D174F2121AAC5F
:103EE0008A088B09ECFEEDFF740E121AA0E0F50AA9
:103EF000123F21701CEEFCEFFD7AFF7BFF123F2189
:103F000070047911801688828983E508F0A3E50999
:103F1000F088828983A3A3E50AF079007F06021B5B
:103F20007E120BED8A0C8B0DA80CA90DE8492274AA
:103F3000EE121AACEAFEEBFF8C088D09890C7412A4
:103F4000121AA0123FFE7414121AA01237C8741667
:103F5000121AA012346D750D00EC4D6003023FF291
:103F60007402650C6003023FED888289831237CDAD
:103F7000F9EC2400F50EE439F50FEAF4F8EBF4F966
:103F8000EC58F8E50F59F9E849705DE5082406F8A2
:103F9000E5093400F9880A890B8882F58312310219
:103FA000120C1D8A108B11E50E65107004E50F656B
:103FB000116042780E121CBF850A82850B83123174
:103FC00002120C237402121A6BE9F50D7027780E99
:103FD000121CBF850882850983A3A3123100120C2D
:103FE000357402121A6B800D750D808008750D0DE9
:103FF0008003750D0BA90D0236D38E828F8312407C
:104000000222E0F8A3E0F922121A6B7F10021B7E55
:104010003400F50D850C82F58322E028FEA3E039FB
:10402000FF8E828F83227916850A82850B83123454
:1040300071120BFF74082274F2121AACEAFEEBFF45
:10404000890B7401650B600E7402650B7063790156
:10405000120E0FE9705BEEFAEFFB1240B460477589
:104060000A00800B7C177D007900120473050A900A
:104070000665E0F8E50AC3985021E50A75F017A433
:10408000F8A9F0850882850983A3A3E028FAA3E0B4
:1040900039FB8A828B83122B2E70C9850882850991
:1040A0008374FFF0A3F07C987D06EEFAEFFB120C10
:1040B00017023F1C120BE78A088B09EA4509227494
:1040C000F2121AAC8A088B09ECFEEDFF740E121A7C
:1040D000A01238B4900CF8E0F4603D7A097B00122D
:1040E000047FEA4B60328A828B8374B1F0A3E412BE
:1040F0003D26A3123D24A3E508F0A3E50912411BC8
:10410000EEF0A3EF12411BA3A3E50AF0A3E50BF029
:10411000900CF8E0F912048B023F1CF08A828B832A
:10412000A3A3A3A3A322C082C0839061907404F0D0
:10413000A37448F0A37402F09061807440F0906121
:10414000BC7403F09061877419F0906265741BF081
:1041500090619C740DF090619A7433F0A37455F0E3
:104160009061A0743AF09008DCE064017009C2919B
:10417000900746746780059007467461F0902906A1
:10418000E493906186F0902900E493F46027E4932F
:10419000540FF8906185E0686012E5C65480444988
:1041A000F5C6E59E547F644970F8E8F053C680E593
:1041B0009E547F70FA7905121163024368C082C071
:1041C00083E9540FF9906185E0696012E5C6548077
:1041D0004449F5C6E59E547F644970F8E9F053C63A
:1041E00080E59E547F70FA024368C082C083E5A8D0
:1041F000F853A87E906181E4F0A3F0A3F0C2BA5313
:104200009AFEC289759B00C2C275E900759100755E
:10421000BF0075A91175B905906181F0A374C0F054
:10422000A3E4F0D2BA439A0174805842A8024368CA
:10423000C082C08374F8121A55900744E0F8A3E0D6
:10424000F9E849700302435E900744E0544060235C
:104250007908851882851983AA82AB83120FCB85D2
:104260001882851983AA82AB83120CA1900744E0BF
:1042700054BFF0E054806010790C7A007B09120F73
:10428000CB900744E0547FF0E0A2E0503190619A77
:104290007433F0A37455F09061A0743AF09008DC88
:1042A000E064017009C29190074674678005900729
:1042B000467461F0120CA7900744E054FEF0E054FD
:1042C00002603190619A743FF0A3745AF09061A03B
:1042D000747FF09008DCE064017009D29190074689
:1042E00074718005900746746AF0120CA790074419
:1042F000E054FDF0E054046013902904E4939061CD
:1043000086F0120CAD900744E054FBF0E0540860D6
:1043100013902905E493906186F0120CAD90074448
:10432000E054F7F0E054106013902906E493906194
:1043300086F0120CAD900744E054EFF0E05420609A
:104340000A120CAD900744E054DFF0A3E054016082
:104350000D120EF3120CB3900745E054FEF07408F2
:10436000121A6B8003F0A3F0D083D082020135745F
:10437000EC121AAC74F4121A55851882851983ACA4
:1043800082AD837583817582C07404121968902987
:104390000493F460030244FC907808E0C394025054
:1043A000030244DC7404121AA0AC82AD83758381CD
:1043B00075822E7408121968851882851983858282
:1043C000128583137404121AA0AC82AD83750EFF9C
:1043D000750FFF7FFF7E00750C48750D7880157492
:1043E000086E700302446F74096E700302446F74A8
:1043F0000A6E607B850C82850D8378081219258CE6
:10440000828D83A909E50AC9F88810741878081202
:10441000184EE5104508F8C3E098A3E099850C8292
:10442000850D83780812192540188C828D837418A5
:10443000780812184EE5104508F8E0C398F8A3E094
:10444000801C7418780812184EE5104508FAE9FB2C
:104450008C828D83E0F8A3E0F9EAC398F8EB99F930
:10446000C3E8950EE9950F5006880E890FEEFF0EF2
:10447000E50C2404F50CE50D3400F50DEEC39413A2
:1044800050030243DF74FF650E700474FF650F6014
:10449000238F0874027808121A4274482508F5829E
:1044A00074783509F58378081219258512828513E9
:1044B00083E508F0EC24020C0CED3400FD8512823B
:1044C000851383A3858212858313740C121AA0E5C9
:1044D000826C7003E5836D60030243CD750801753E
:1044E00009007808121CBF7402121AA0AC82AD83B6
:1044F0007A417B0A12071F7402121A6B740C121A8B
:104500006B7F0C021B7EC082C0839061AE7468F02A
:10451000A3746AF090624574FBF0A304F053F4FDB9
:1045200043FE029008DC7401F09061A0E0643A90D0
:10453000619A70237433F0A37455F09061A0743ABB
:10454000F0740164017009C2919007467467802875
:1045500090074674618021743FF0A3745AF0906113
:10456000A0747FF0740164017009D29190074674C1
:10457000718005900746746A0243677F04021B7EC0
:10458000C082C08390088EE06401700A900893E0B6
:104590006004790C80027900024368C082C0837590
:1045A000E1F1900891E060551460081460591460BE
:1045B000518059120F05900887E0F97A887B08121C
:1045C00010E59081B812194312111B9081D4121971
:1045D000431210F1900892E0F91210FD79011211C6
:1045E00057900885E02416F8A3E03400F988828902
:1045F00083741DF0A3740FF07900024368120F0B4F
:1046000080B4120F1180AF120F1780AA791280EABE
:1046100074F4121AAC75D90D900876E0A2E0E43378
:104620001313F8900887E0C4333354C0484401F5AD
:10463000D97885790888828983A3A3A3E0F5D988EE
:10464000828983A3A882A983E8648B7003E9640844
:1046500070E37876790888828983A3E0F5D9888227
:104660008983A3A882A983E8647C7003E964087045
:10467000E575E195900876E0F97A777B081210EB02
:10468000900D1A74B1F0A3740EF0A37413F0A37418
:1046900010F0A37413F0A37410F0A37413F0A374B8
:1046A00010F0A374B7F0A3740EF0A37413F0A37406
:1046B00010F0A374CFF0A3740EF0900D287413F0D3
:1046C000A37410F0A37413F0A37410F0A37413F088
:1046D000A37410F0A37413F0A37410F0A37413F078
:1046E000A37410F0A37413F0A37410F0900885E085
:1046F000F8A3E0F5838882A3A37808121925908196
:10470000B478081218999081CC78081218FF900894
:1047100085E0240EF8A3E03400F9888289837808C4
:10472000121934900885E02414F8A3E03400F988C5
:104730008289837413F09007427402F002457BC0B3
:1047400082C083900897E02407F5D9900887E0C4D9
:10475000333354C0F5D97885790888828983A3A337
:10476000A3E0F5D988828983A3A882A983E8648B12
:104770007003E9640870E3900897E0601F7885791A
:1047800008FAE82413F582E93400F583E0F5D988C6
:10479000828983A3A882A9831AEA70E69008B7E009
:1047A0002407F5D9900887E0C4333354C04404F596
:1047B000D97885790888828983A3A3A3E0F5D9886D
:1047C000828983A3A882A983E8648B7003E96408C3
:1047D00070E39008B7E0601F78857908FAE8243321
:1047E000F582E93400F583E0F5D988828983A3A8AE
:1047F00082A9831AEA70E675E195900D1A74BDF0EE
:10480000A3740EF0A37413F0A37410F0A37413F048
:10481000A37410F0A37413F0A37410F0A374B7F092
:10482000A3740EF0A37413F0A37410F0A374CFF06C
:10483000A3740EF0900D287413F0A37410F0A374F9
:1048400013F0A37410F0A37413F0A37410F0A37406
:1048500013F0A37410F0A37413F0A37410F0A374F6
:1048600013F0A37410F0908208121943900885E0A9
:10487000240EF8A3E03400F98882898312194F903E
:104880000885E02414F8A3E03400F9888289837451
:1048900012F09007427401024367C082C0839008FF
:1048A00097E02407F5D9900887E0C4333354C04417
:1048B00002F5D97885790888828983A3A3A3E0F5D6
:1048C000D988828983A3A882A983E8648B7003E9CD
:1048D000640870E3900897E0601F78857908FAE82B
:1048E0002413F582E93400F583E0F5D988828983C1
:1048F000A3A882A9831AEA70E675E195900D1A744F
:10490000C9F0A3740EF0A374C9F0A3740EF0A374DD
:10491000C9F0A3740EF0A374C9F0A3740EF0A374CD
:10492000C9F0A3740EF0A374C9F0A3740EF0A374BD
:10493000CFF0A3740EF0900D287413F0A37410F050
:10494000A37413F0A37410F0A37413F0A37410F005
:10495000A37413F0A37410F0A37413F0A37410F0F5
:10496000A37413F0A37410F09082081219439008F6
:1049700085E0240EF8A3E03400F9888289831219B7
:104980004F900885E02414F8A3E03400F988828968
:10499000837414F09007427404024367C082C0839A
:1049A000900897E02407F5D9900887E0C433335482
:1049B000C04406F5D97885790888828983A3A3A3A2
:1049C000E0F5D988828983A3A882A983E8648B70E3
:1049D00003E9640870E3900897E0601F7885790820
:1049E000FAE82413F582E93400F583E0F5D98882EA
:1049F0008983A3A882A9831AEA70E69008B7E02405
:104A000007F5D9900887E0C4333354C04404F5D97E
:104A10007885790888828983A3A3A3E0F5D9888261
:104A20008983A3A882A983E8648B7003E964087072
:104A3000E39008B7E0601F78857908FAE82433F539
:104A400082E93400F583E0F5D988828983A3A882BE
:104A5000A9831AEA70E675E195900D1A74C3F0A364
:104A6000740EF0A37413F0A37410F0A37413F0A3E6
:104A70007410F0A37413F0A37410F0A37413F0A3D4
:104A80007410F0A37413F0A37410F0A374CFF0A308
:104A9000740EF0900D287413F0A37410F0A3741327
:104AA000F0A37410F0A37413F0A37410F0A37413A4
:104AB000F0A37410F0A37413F0A37410F0A3741394
:104AC000F0A37410F0908208121943900885E02436
:104AD0000EF8A3E03400F98882898312194F9008F8
:104AE00085E02414F8A3E03400F9888289837415E2
:104AF000F09007427403024367C082C08390088528
:104B0000E0F8A3E0F5838882A3A3A3A3A3A3E40210
:104B1000436574F7121AAC900770E0F875F004A4BE
:104B2000C8AAF02AF9747228F8740739F9E824053C
:104B3000FAE93400FB8A828B83E0FCA3E0FD8882E3
:104B40008983A3A3A3A3A3A3A3A3A3ECF0A3EDF042
:104B500088828983A3A3A3A3A3A3A3E024FFF8A32C
:104B6000E034FFF98A828B83E8F0A3E9024DB77441
:104B7000F7121AACEAFEEBFF9061D0E06003024C42
:104B80004C75D90E75D90375D904EE248CF582EFD6
:104B90003400F583E5822408F8E5833400F9E0F574
:104BA000D9A3E865827003E9658370F2EE2484F589
:104BB00082EF3400F583E5822404F8E5833400F9BC
:104BC000E0F5D9A3E865827003E9658370F275E1C9
:104BD000957908EE248CFAEF3400FB120FBF7904AC
:104BE000EE2484FAEF3400FB120FBF7C00EEF8EFE6
:104BF000F9ECFAC3E49AFA95E0FBEE2AFAEF3BFBF4
:104C0000EA248BF582EB3400F583E0C0E0E824ABC6
:104C1000F582E93400F583D0E0F00C88828983A323
:104C2000A882A983ECC3940840C7EE2470F582EFF4
:104C30003400F583E0F8A3E0F9EE2472F582EF3456
:104C400000F583E8F0A3E9F0790180027900024DD4
:104C5000B8C082C08375D90275D90375D90575E1CD
:104C600095EA2470F582EB3400F583E0F8A3E0F9CF
:104C7000EA2472F582EB3400F583E8F0A3E9F079D9
:104C80000102436874F6121AACEAFEEBFF9008E0EA
:104C90007406F07508E07509087808121CBF7C01DD
:104CA00079031210077402121A6B75D90675D903AD
:104CB0007582E0758308E0F5D9A3E58264E57004A8
:104CC000E583640870F075E195900742E064087030
:104CD0001EEE2470F582EF3400F583E0F8A3E0F9CE
:104CE000EE2472F582EF3400F583E8F0A3E9F07961
:104CF00001024E8474F6121AACEAFEEBFF9061D00A
:104D0000E0706678019008E0740BF0900742E06470
:104D10000770197508E07509087808121CBF7C0136
:104D200079031210077402121A6B7805740128F5C2
:104D3000D975D9037582E0758308E8FAE0F5D9A33F
:104D40001AEA70F875E195EE2470F582EF3400F5FB
:104D500083E0F8A3E0F9EE2472F582EF3400F583E6
:104D6000E8F0A3E9F0790180027900024E8474F73B
:104D7000121AACEAFEEBFF75D90375D90375D90D8C
:104D8000EE24DEF582EF3400F583E0F5D975E19588
:104D90007904121121EE2470F582EF3400F583E0DE
:104DA000F8A3E0F9EE2472F582EF3400F583E8F021
:104DB000A3E9F079018001F07F01021B7E74F612F5
:104DC0001AACEAFEEBFF9061D0E0F87480C398FA69
:104DD000EE2483F582EF3400F583E06004780480EC
:104DE000027800E8240BF8EAC3985003024E827D53
:104DF000099008E0EDF0EE24E3F8EF3400F97AE1F1
:104E00007B087C0888828983E08A828B83F0888291
:104E10008983A3A882A9838A828B83A3AA82AB8376
:104E20001CEC70E0EE2483F582EF3400F583E06043
:104E30001D7508E07509087808121CBF7C09790304
:104E4000EEFAEFFB1210077402121A6B7D0D74015B
:104E50002DF5D975D9037582E07583088D08E0F5C5
:104E6000D9A31508E50870F675E1957904121121AA
:104E7000EE241DF582EF3400F583E4F0A3F0790110
:104E8000800279007F02021B7E74F6121AACEAFEE1
:104E9000EBFF9061D0E0F87480C398FAEE2483F5BC
:104EA00082EF3400F583E06004780480027800E843
:104EB0002408F8EAC3985003024F897D069008E061
:104EC000740CF090075FE09008E1F07A607B07785F
:104ED000E279087C028A828B83E088828983F08A67
:104EE000828B83A3AA82AB8388828983A3A882A9A9
:104EF000831CEC70E07A627B077C028A828B83E001
:104F000088828983F08A828B83A3AA82AB8388827A
:104F10008983A3A882A9831CEC70E0EE2483F58228
:104F2000EF3400F583E0601D7508E0750908780826
:104F3000121CBF7C067903EEFAEFFB121007740215
:104F4000121A6B7D0A74012DF5D975D9037582E0AB
:104F50007583088D08E0F5D9A31508E50870F67586
:104F6000E1957904121121EE2470F582EF3400F5F9
:104F700083E0F8A3E0F9EE2472F582EF3400F583C4
:104F8000E8F0A3E9F0790180027900024E8474F61A
:104F9000121AACEAFEEBFF9061D0E0F87480C3987F
:104FA000FAEE2483F582EF3400F583E060047804A0
:104FB00080027800E82404F8EAC39850030250689D
:104FC00078029008E0E8F0EE24F5F582EF3400F581
:104FD00083E09008E1F0EE2483F582EF3400F5835E
:104FE000E0601B7508E07509087808121CBF7C0298
:104FF0007903EEFA1210077402121A6B7806740124
:1050000028F5D975D9037582E07583088808E0F51D
:10501000D9A31508E50870F675E195EE2474F582BC
:10502000EF3400F583E4F0EE2480F582EF3400F5F0
:1050300083E4F0EE241DF582EF3400F583E4F0A361
:10504000F07904121121EE240DF582EF3400F5837E
:10505000E0F8A3E0F9EE2472F582EF3400F583E87E
:10506000F0A3E9F0790180027900024E8474F6120F
:105070001AAC9061D0E0F87480C398FCEA2483F500
:1050800082EB3400F583E06004780480027800E865
:105090002404F8ECC398405B79029008E07407F0B0
:1050A000EA24F6F582EB3400F583E09008E1F0EABB
:1050B0002483F582EB3400F583E060187508E07511
:1050C00009087808121CBF7C02091210077402122A
:1050D0001A6B7906740129F5D975D9037582E075C3
:1050E0008308E9F8E0F5D9A318E870F875E1957937
:1050F0000180027900024E8474F5121AACE9FCA218
:10510000AFE433F50AC2AF7D0080010DEA246FF5EC
:1051100082EB3400F583E0F8EDC398501A8D08EA6D
:105120002508F8EB3400F9E8246BF582E93400F542
:1051300083E06C70D68024EA246FF8EB3400F9E049
:10514000FEEA2EFAEB3400FBEA246BF582EB340026
:10515000F583ECF088828983E004F0E50AA2E0920E
:10516000AF7F03021B7E74F6121AACA2AFE433FDCC
:10517000C2AFEA246FF582EB3400F583E014F07CD3
:105180000060368C08EA2508F8EB3400F9E8246C56
:10519000F582E93400F583E0C0E0E8246BF582E9AC
:1051A0003400F583D0E0F00CEA246FF582EB340094
:1051B000F583E0F8ECC39840CAEA246EF582EB343C
:1051C00000F58374FFF0EA246AF582EB3400F5837E
:1051D000E4F0EDA2E092AF024E84C082C083E5A865
:1051E000F8C2AFEA246BF582EB3400F583E9F0EA0C
:1051F000246AF582EB3400F583E4F0E8A2E792AF8D
:1052000002436874F3121AACEAFEEBFFECFAEDFB12
:105210008A828B83A3A3A3A3E0541FF0EE2436F568
:1052200082EF3400F583E4F0F50AEEFCEFFD8A82AC
:105230008B83E0C0E0EC245DF582ED3400F583D093
:10524000E0F0750B00E50A33333354F8F50C8A822D
:105250008B83E0F508750900E50B7808121A23E541
:1052600008A2E0502FEE2436F8EF3400F988828946
:1052700083E0F508EE2508F508EF3400F509E508A8
:105280002438F582E5093400F583E50CF08882893D
:1052900083E004F0050B050CE50BC3940840AF0553
:1052A0000A8A828B83A3AA82AB838C828D83A3AC70
:1052B00082AD83E50AC39405500302522E7F050296
:1052C0001B7E74F7121AAC90076EE0640170077AC7
:1052D000007B000254397E00900774E070F1740185
:1052E000F0A3E4F0A3F09007D404F09007D7E4F023
:1052F000A3F09007DA04F0900777E4F0A3F0A3F0AE
:10530000A3F090078104F09007A7E4F090821012B8
:10531000194390078A12194F90078EE4F0A3F0A367
:10532000F09007F2F09007E6F09007DB7480F0A3AE
:10533000E4F09007E1F09007D9F090085DF0A3F059
:10534000A3F0A3F0A3F0A3F0A3F0A3F0900866F0FD
:105350009007F5F0900845F0A3F0908210121943E1
:1053600090084712194F90821012194390084B125F
:10537000194F900851E4F0900853F090084FF090C6
:105380000869F0A3F0A3F0A3F0A3F0A3F0A3F0A3A7
:10539000F0786E7907E8246FF582E93400F58374BC
:1053A000FFF00E88828983A3A882A983EEC39404A8
:1053B00040E37A6E7B07787D790888828983E0C034
:1053C000E0EA2461F582EB3400F583D0E0F08882D6
:1053D0008983A3A882A9838A828B83A3AA82AB83B1
:1053E000E864827003E9640870D07A6E7B077855B0
:1053F000790788828983A3E0C0E0EA24E7F582EB9D
:105400003400F583D0E0F088828983A3A882A98341
:105410008A828B83A3AA82AB83E8645D7003E9640C
:105420000770CF90076EE004F06401700890077673
:10543000E0900770F07A727B07024DB8C082C0839B
:10544000900775E4F0900774F090076EF0A3F0A356
:1054500074FFF075E1F1024368C082C0837800797F
:1054600000900775E060047872790788828983A3C9
:10547000A3A3A3E0F902436874F6121AACEAFEEBA8
:10548000FF8E828F83A3A3A3E0600F8E828F83A3FE
:10549000A3A3E4F090076FE014F090076EE014F01F
:1054A000700690077074FFF08E828F83A3A3E4F0E0
:1054B000900882E0700D90076FE06401700579003C
:1054C000121103EE2465F582EF3400F583E0F8A3B2
:1054D000E0F9E8496029EE2465F8EF3400F988081E
:1054E00089098882F583E0FCA3E0FD900770E0FA6B
:1054F0007B00120CD7850882850983E4F0A3F0EEC7
:10550000FAEFFB121037024E8474F7121AACEAFE5F
:10551000EBFF8E828F83A3A3A3A3E0FA7B00120D7F
:1055200019EEFAEFFB120F8912101F024DB8C0825C
:10553000C0837855790788828983A3E4F0888289BB
:1055400083A3A882A983E8645D7003E9640770E619
:1055500090075602489574F6121AACEAFEEBFFEC7F
:105560002403F8ED3400F988088909EC2407F8EDE4
:105570003400F9E8FCE9FD8C828D83E0F8A3E0F9C2
:10558000850882850983E0FAA3E0FB1219CAEE249C
:105590000DF582EF3400F583E8F0A3E9F08C828DFD
:1055A00083E0F8A3E0F9850882850983E0FAA3E0A7
:1055B000FB1219CA8B09EA45096013EE240DF58226
:1055C000EF3400F583E02401F0A3E03400F0024E54
:1055D0008474F6121AACEAFEEBFFEE242EF582EF8D
:1055E0003400F583E0FCA3E0FD780079FAECFAEDF5
:1055F000FB1219CAEE2470F582EF3400F583E8F04F
:10560000A3E9F0780079FAECFAEDFB1219CA8B09DC
:10561000EA45096013EE2470F582EF3400F583E06B
:105620002401F0A3E03400F0024E8474F0121AACAE
:10563000EAFEEBFF7410121AA07808121925121056
:10564000C18A0C8B0D8C0E8D0F9081B0780C1218C6
:10565000999081CC780C1218FF780C121CBB8E82AA
:105660008F83E0F8A3E0F5838882A3A31219431285
:1056700026967404121A6BE960030257788E828FA3
:1056800083E02402F8A3E03400F9E8FAE9FB8A8217
:105690008B8378081218AC9081CC78081219258A6F
:1056A000828B837808121912EE240BF582EF3400F6
:1056B000F583C082C0838E828F83A3A3A3A3A3E0BC
:1056C0002401F8A3E03400F9D083D082E0687003AD
:1056D000A3E0697005790102577A8E828F83A3A3B4
:1056E000A3A3A3A3A3E02401F0A3E03400F0EE24DD
:1056F00074F582EF3400F583E064017036EE2475B2
:10570000F582EF3400F583E0F8A3E0F98E828F8311
:10571000A3A3A3A3A3A3A3E0687003A3E0697013EA
:10572000EE2475F582EF3400F583E02401F0A3E068
:105730003400F0EE2480F582EF3400F583E064015C
:105740007036EE2481F582EF3400F583E0F8A3E0B3
:10575000F98E828F83A3A3A3A3A3A3A3E0687003FE
:10576000A3E0697013EE2481F582EF3400F583E045
:105770002401F0A3E03400F079007F08021B7E745E
:10578000F7121AAC900770E0F875F004A4C8AAF0FC
:105790002AF9747228FE740739FF8028EE2465F810
:1057A000EF3400F988828983E0FCA3E0FD888289D8
:1057B00083E4F0A3F08E828F83A3A3A3A3E0FA7BFC
:1057C00000120CD7EE2465F582EF3400F583E0F883
:1057D000A3E0F9E849604FEE2464F582EF3400F568
:1057E00083E0F5087808121CC3EE2463F582EF34D9
:1057F00000F583E0F9EE2465F582EF3400F583E0EF
:10580000FCA3E0FDEEFAEFFB120FB37401121A6B6A
:10581000E96089EE2465F582EF3400F583E0F8A3B2
:10582000E0F9E84970137C007D008E828F83A3A38A
:10583000A3A3E0FA7B00120CD7024DB874F2121A3F
:10584000ACEAFEEBFF890A740E121AA0E0FAEE240D
:1058500062F582EF3400F583E064016003025908C9
:105860009061D0E0F87480C398F50CEE2483F58243
:10587000EF3400F583E06004780480027800890842
:10588000E928F8E43400F9E824020808E93400F9CA
:10589000E50C98E499A2D265D0334068EA700575AA
:1058A0000B028003750B01E060397509007808125E
:1058B0001CBF7AE07B08120FE97402121A6B75089C
:1058C000E07509087808121CBFAC0AA90BEEFAEFC4
:1058D000FB1210077402121A6B7404250AF50A7C75
:1058E000E07D087401250AF5D9850BD9E50A600D1C
:1058F0008C828D83F8E0F5D9A318E870F875E195EE
:10590000790080067907800279FF7F06021B7EC03E
:1059100082C083E960208C828D83E08A828B83F051
:105920008C828D83A3AC82AD838A828B83A3AA826F
:10593000AB8319E970E0ECFAEDFB02436874EA12FC
:105940001AAC907803E06442705E9008DFE014F0D7
:105950007056C2AF12595700782AD0E0F618D0E03E
:10596000F6E59F5407F970059081A880039081980F
:105970007808121925E9C4C0E07829E65508F50829
:1059800008E65509F509740B7808121A33D0E0259A
:1059900008F8906270E0A2E740F8E8C333906272C2
:1059A000F0906270E0D2E0F0900770E0F4700302D3
:1059B0005D60E0F875F004A4C8AAF02AF9747228B2
:1059C000FE740739FFEE2402F582EF3401F583E01F
:1059D000F8A3E0F9E849601EEE2402F582EF3401F5
:1059E000F583E0FAA3E0FBEE2401F582EF3401F544
:1059F00083E0F91204AF8E828F83A3A3A3A3A3A392
:105A0000A3E0F8A3E0F98E828F83A3A3A3A3A3E866
:105A1000F0A3E9F0906054E0900749F0906055E001
:105A200090074AF0906056E090074BF0906057E086
:105A300090074CF0906058E090074DF0906059E06E
:105A400090074EF090605AE090074FF090605BE056
:105A5000900750F090605CE0FC900751F090605D22
:105A6000E0FB900752F090605EE0FD900753F090ED
:105A7000605FE0FA900754F090074FE08C0825082B
:105A8000F8E43400F98D08E82508F8E93400F98BCA
:105A900008E82508F8E93400F98A08E82508FAE951
:105AA0003400FBEE24F7F582EF3400F583E02AF0B2
:105AB000A3E03BF08C08EE24F9F582EF3400F58387
:105AC000E02508F0A3E03400F0EE24FBF582EF348B
:105AD00000F583E02401F0A3E03400F0EE24FFF5AC
:105AE00082EF3400F583E0F8A3E0F9E849604290E2
:105AF0006000E0C333FCE433FDE82CF582E93DF5BA
:105B000083E02AF0A3E03BF0906000E0FA900751B8
:105B1000E0FCEAC333FAE433FBE82AF8E93BF9E8AE
:105B2000244AF582E93400F583E02CF0A3E0340048
:105B3000F090074FE07011900752E0700BA3E070F7
