:020000040000FA
:0600000002011D0221F7C0
:03002B00021E1A98
:0300530002226A1C
:03006B00021DF47F
:100083000220ABE5C754F84401F5C779012200000B
:100093000080FB120086B90003020107E47921788E
:1000A30008B800028004F709D8FCE479297802B87B
:1000B30000028004F709D8FCE4900281785B790997
:1000C3008002F0A3D8FCD9FA781A90014D7A01BACC
:1000D30000028007E493A3F608DAF9900ADBAA8208
:1000E300AB8390014E785E79038015E493A3AC82D1
:1000F300AD838A828B83F0A3AA82AB838C828D83A8
:10010300D8E9D9E77582AD7583AF740312012F75F2
:100113008291758300740012012F75D00075813FA1
:10012300751881751902759F00020096C09FF59F8F
:10013300E473D09F22D083D082C09FE493C0E07445
:100143000193C0E0740293F59F220101FFFF434D29
:10015300204852204D6F6E69746F720000000000DA
:1001630000000002010603020D180708434D5F4813
:10017300524DE7030000ED03F903FF03FFFFBB004C
:100183001264022F820100001A82022B82010000F6
:10019300100B024D82010000110B022982030000A3
:1001A3005204020202022F820100001D82022B82EE
:1001B300010000320B0247820100005A04022B8225
:1001C300010000330B0245820100000181022B82F2
:1001D300010000340B0243820100001C8110020263
:1001E3007D0002022F820100002082022B82010087
:1001F300006D0B108180000000640402298203005B
:10020300006504022B820100006E0B10F1800100D7
:10021300006B04022B820100006F0B10D1800100E0
:1002230000700B022B82010000720B10E1800100B1
:10023300006D04100208022F820100002682022BA7
:1002430082010000C30B023B8200000070040229FC
:10025300820300007104022B82010000C40B0239E7
:10026300820100007704022B82010000C50B0251BA
:1002730082020000780401E803053F10FF0001300B
:1002830075030201060000000000000000000000EA
:10029300000000000000000000000000000000005B
:1002A30000FFFF0600800CE803FF0000B4000028F5
:1002B300002800283075A000A000A000A0000008BE
:1002C3000008E001F0001000100010001000100002
:1002D300100050005000500010001000D007000024
:1002E300000000000F00010005003075070010003A
:1002F300010081FF0000FF2F0A4D0A350AFF0202A9
:100303000208025000A0000000E803022F8201004F
:10031300001782022B820100008E0C02358201003D
:10032300003206022B820100008F0C02378201008B
:10033300004806022B82010000900C025382010048
:10034300004A06022B82010000910C023F82080042
:10035300004B06022B82010000920C024182010035
:1003630000930CFF0100FF20022F82010000148282
:10037300022B82010000F70C024B820000000000F8
:1003830002298203000098060510051005100510C8
:1003930005100510051005100510051005100510B2
:1003A30005109312AB128D121201385A8B031201EE
:1003B30038778B031201389E8B03120138C88B03E5
:1003C300120138E98B03120138F68B03120138ADA1
:1003D3008C03120138EE8D03120138B6F6021201B6
:1003E30038E2F8021201389AF9021201383FFA0290
:1003F30012013886FA021201389FFA02120138EB11
:10040300FA021201383FAD031201389FAD03120106
:1004130038B59D03120138E99D03120138F49D0399
:10042300120138089E031201381B9E03120138364D
:100433009E031201387B9E03120138899E03120129
:1004430038D89E03120138E59E031201387CD50289
:1004530012013886D502120138C7D50212013810AD
:10046300D6021201384AD602120138A0D60212016E
:1004730038C1D602120138CAD6021201381ED70279
:1004830012013847D70212013851D702120138BF7F
:10049300D7021201384FD802120138AAD80212012A
:1004A30038D8D80212013860D9021201389FD90214
:1004B300120138D4D902120138E6D90212013805E3
:1004C300DA021201380EDA02120138D5DA02120109
:1004D300384EAF0312013823A903120138A99F0331
:1004E300120138DF9F0312013813A0031201386091
:1004F300A10312013850FF0212013866FF021201F4
:100503003870FF02120138BAFF021201387BE90288
:100513001201388EE9021201384FEA021201388EB5
:10052300EA02120138ABEA02120138E4EA021201CC
:100533003831EB0212013863EB021201389AEB02F5
:10054300120138A3ED021201381AAA031201383D31
:10055300AA031201386CAA03120138AEAA031201CE
:1005630038BDB60212013878BC0212013848BD0208
:10057300120138B1BD02120138D7BE02120138642C
:10058300F202120138DFF20212013829F3021201DA
:10059300384EF40212013863F502120138E5F50210
:1005A3001201387E9403120138C39403120138D820
:1005B3009403120138329503120138BC95031201DA
:1005C300386796031201389E96031201389EA603DC
:1005D300120138C3A603120138F3A603120138C56A
:1005E30091031201380A92031201381D920312017A
:1005F300386192031201389E9203120138769303F5
:100603001201384594031201383D990312013882CF
:100613009903120138959903120138B19903120114
:1006230038EF99031201385E9A03120138489B038D
:1006330012013805B0031201385682011201383411
:100643008401120138D385011201387E860112011B
:1006530038FE8601120138838701120138AC870105
:10066300120138878B01120138FE8B0112013815F4
:100673008D011201384F8D01120138908D01120145
:1006830038D78E011201382D8F01120138768F0170
:10069300120138E58F01120138519001120138829D
:1006A30090011201389A9001120138B3910112019D
:1006B30038C39101120138799301120138909301E3
:1006C300120138C29301120138649501120138F8FE
:1006D3009501120138CEAB03120138DAAB031201D4
:1006E3003877AC031201385BB0031201389AB003B8
:1006F300120138D1B00312013889AC0312013899C1
:10070300AC03120138A8AC0312013839AD0312014E
:100713003821A803120138A6A8031201380AA90335
:10072300120138EB7F00120138E6FF02120138F69E
:10073300FF02120138F9FF02120138F87F0012019B
:1007430038819B031201380B9D031201386C9D0302
:10075300120138B29D03120138DAAE031201380BCD
:10076300AF0312013838AF0312013806A503120193
:100773003858A503120138CBA50312013838A60354
:10078300120138F69603120138209703120138EF4D
:100793009703120138CB98031201381DBF021201CF
:1007A30038E9BF021201382AC00212013864C002BC
:1007B300120138C2C00212013816C1021201387484
:1007C300C1021201380AC20212013812C302120115
:1007D300389CC4021201383AC502120138A1C5027D
:1007E300120138B4C502120138A8C602120138F149
:1007F300C6021201389DF001120138CFF301120134
:100803003860F501120138B7F501120138D4F5014A
:1008130012013854F601120138D0F7011201389F42
:10082300F8011201380CFC01120138F6FC01120127
:100833003853A3031201386AA30312013899A3039F
:10084300120138D2A303120138FAA3031201382884
:10085300A4031201383FA40312013856A403120162
:10086300386CA40312013893A403120138A6A4031D
:10087300120138BCA403120138CFA403120138F4C7
:10088300A40312013811A40212013810A5021201A7
:100893003845A50212013866A50212013876A50271
:1008A30012013897A502120138A3A602120138706B
:1008B300A702120138E3A70212013869A802120144
:1008C30038ACA802120138E3A80212013869A90260
:1008D3001201383BAA0212013899AA02120138B157
:1008E300AA021201382BAB021201382EAB021201FD
:1008F3003831AB02120138D8AB02120138F0AB0227
:1009030012013820AC0212013840AC021201382E19
:10091300AD02120138E4AD02120138D3E402120130
:1009230038FBE40212013829E50212013860E502BE
:10093300120138C8E50212013811E6021201385CCF
:10094300E6021201389AE602120138D7E6021201D2
:100953003805E702120138ACE702120138B6E702A4
:10096300120138C3E702120138F6E702120138B860
:10097300E802120138C4E802120138DCE80212016D
:1009830038E6E802120138F7AA0312013805AB036F
:100993001201381DAB0312013835AB03120138E7DE
:1009A300A90112013885AA01120138FDAA01120119
:1009B3003812AC011201384CAC01120138F5AC010C
:1009C300120138CAAD011201382EAF011201388568
:1009D300AF011201380CB001120138F3B00112015A
:1009E3003840B101120138CEB101120138F2B10120
:1009F300120138C7B30112013808B4011201382AB1
:100A0300B401120138ABB40112013895B5011201DA
:100A1300385BB60112013870CE0212013842CF02A0
:100A2300120138EBCF021201382ED002120138BB6B
:100A3300D00212013847D10212013828D202120122
:100A43003857D20212013853D3021201389BD30212
:100A53001201389DD402120138E1D4021201380781
:100A6300D502120138D4AD03120138EC830312010D
:100A73003802840312013828840312013850850395
:100A83001201385A8503120138B38603120138B3B1
:100A9300870312013803DB0212013838DC0212012A
:100AA300386BDC02120138B5DC0212013873DE0246
:100AB300120138766F00120138D96F001201381E07
:100AC30071001201382E71001201385171001201A8
:100AD300389C7100120138417200120138377300DB
:100AE300120138017400120138797500120138BB04
:100AF3007500120138597600120138A676001201EA
:100B030038CC7600120138BA7800120138BF780069
:100B1300120138A07A00120138F47A001201385613
:100B23007B001201387E7B00120138227C00120107
:100B330038E47C00120138157D00120138187D005D
:100B4300120138607D00120138A27D0012013809BC
:100B53007E001201388CFD011201389FFD01120144
:100B630038B8FD0112013803FE01120138DEFE011F
:100B73001201386DFF01120138B8FF01120138FC70
:100B830028001201380829001201384129001201F6
:100B9300388629001201383D2A00120138C32A0081
:100BA300120138EF2A00120138282B001201383CB9
:100BB3002D00120138182F001201380331001201E1
:100BC300383A32001201389A34001201388635005F
:100BD300120138CC3600120138D93700120138F629
:100BE30037001201382E380012013848380012013C
:100BF30038B038001201384A3D00120138EB3D008D
:100C03001201383C3E00120138633E00120138B134
:100C13003E00120138CF3E00120138233F0012017B
:100C2300382B4000120138B3400012013829E0028A
:100C330012013833E002120138FEE00212013819C2
:100C4300E1021201383FE10212013883E10212018D
:100C530038BBE102120138E4E1021201385DE2021D
:100C630012013872E20212013887E202120138BE21
:100C7300E202120138D2E20212013803E302120146
:100C8300383DE30212013869E302120138BFE3027F
:100C930012013813E4021201385CE40212013886AF
:100CA300E402120138ABE40212013800800312019E
:100CB30038CA8003120138AD81031201382382033D
:100CC300120138658203120138928303120138003E
:100CD3008002120138298002120138428002120177
:100CE3003887810212013865820212013884820238
:100CF300120138118302120138548302120138A100
:100D03008402120138408502120138BF87021201A2
:100D1300385688021201382A89021201380C8A02D5
:100D2300120138788B021201380B8C02120138D36E
:100D33007E001201383C7F00120138907F001201BF
:100D430038B77F001201380FEE021201387CEE0231
:100D5300120138C7EE02120138BCEF02120138B893
:100D6300F002120138A2F1021201384FAE02120151
:100D73003891AE021201386BAF0212013844B0024F
:100D83001201383FB1021201381EB2021201388A31
:100D9300B20212013851B302120138BCB30212017C
:100DA3003823B4021201384EB402120138BFB40220
:100DB30012013852B502120138BBB502120138D004
:100DC300B50212013818B60212013831B602120107
:100DD3003896B60212013899B602120138CB8E0347
:100DE300120138F38E03120138318F03120138EFE9
:100DF3008F031201385A90031201387690031201BF
:100E0300389E9003120138CE9003120138DD90030F
:100E13001201385791031201387D91031201380EE4
:100E2300C701120138EBC801120138E6CA011201E9
:100E330038B9CB0112013804CC011201384FCC016F
:100E430012013861CC01120138A1CC01120138D64C
:100E5300CC0112013822CD0112013851CD0112010A
:100E63003874CD01120138C1CD011201384ACE01C7
:100E730012013857D00112013842D20112013885CC
:100E8300D201120138EAD3011201382BD401120125
:100E9300389ED401120138EAD40112013815D50164
:100EA300120138828C02120138AD8C02120138947F
:100EB3009302120138B89502120138739702120196
:100EC30038D098021201381A4100120138B141009A
:100ED300120138DE41001201382442001201386346
:100EE3004300120138FA440012013874450012011C
:100EF300388F450012013804460012013833470089
:100F03001201388E4800120138904900120138ED61
:100F13004A00120138064B00120138634B001201DC
:100F230038454C00120138784C00120138E84C0067
:100F3300120138624D00120138B14D001201387DA3
:100F43004E00120138824F00120138615000120125
:100F530038EC50001201385A5100120138CE5100BA
:100F6300120138F75100120138B65200120138301D
:100F730054001201384D54001201386C5400120110
:100F830038FD54001201382255001201384A550029
:100F9300120138C555001201381F5600120138736B
:100FA300570012013830580012013803590012015A
:100FB300383FD5011201388FD5011201389BD50175
:100FC30012013878D601120138A8D601120138E08F
:100FD300D6011201385FD70112013897D7011201E8
:100FE30038E9D70112013826D8011201384BDA014A
:100FF30012013877DC0112013872DE011201384D1B
:10100300E001120138E87F0012013836960112011F
:10101300388096011201385F9C01120138E09D016E
:101023001201383FA4011201383AA50112013877A1
:10103300A5011201389AA501120138DCA50112019C
:1010430038E5A501120138EFA501120138DBA6012D
:10105300120138CFA701120138315900120138A902
:101063006300120138AF6300120138BB6A0012013A
:1010730038BD870312013853880312013869880386
:10108300120138E3880312013839890312013877D2
:101093008903120138D48903120138518A031201DA
:1010A300385A8A03120138668A03120138798A038F
:1010B300120138B58A03120138CB8A031201382A88
:1010C3008B0312013804FB0212013811FB021201D7
:1010D300382BFB021201386AFB02120138A8FB020B
:1010E3001201380DFC0212013822FC021201382DC4
:1010F300FC021201383AFC0212013851FC021201BF
:10110300385FFC021201386AFC0212013876FC02D5
:1011130012013885FC0212013890FC02120138B327
:10112300FC021201385CFD021201386CFD0212014F
:101133003886FD02120138A3FD02120138BFFD02F9
:10114300120138E4FD02120138EEFD0212013802E9
:10115300FE0212013821FE0212013882FE02120140
:101163003888FE021201388EFE0212013894FE0204
:10117300120138A0FE02120138D3FE021201381305
:10118300E30112013895E3011201383EE401120133
:101193003886E50112013894E7011201387AE80133
:1011A300120138AFE801120138D1E8011201387A8F
:1011B300E9011201384AEB0112013873EB01120104
:1011C30038EBEB011201381DEC011201382AEC0156
:1011D30012013875EC0112013899EC01120138EA59
:1011E300EE01120138F4EF0112013850F00112013F
:1011F3003890B801120138A1B90112013885BA013A
:101203001201388FBA01120138B1BA01120138BD87
:10121300BA0112013861BC011201388EBC011201FE
:1012230038A4BD01120138F9BD0112013848BF01CC
:101233001201381DC00112013879C001120138E4CE
:10124300C00112013819C1011201385CC101120138
:101253003826C4011201383EC401120138CFC4013B
:10126300120138DDC4011201382AC50112013838D0
:10127300C501120138A4C5011201381FC6011201AC
:101283003876C601120138F3980212013815990213
:10129300120138269B02120138E59D021201380F14
:1012A3009F02120138CD9F02120138B9A002120128
:1012B300389AA103120138BFA10312013835A203E2
:1012C30012013853C7021201385CC7021201386594
:1012D300C7021201383DC802120138EEC9021201D9
:1012E300381ECA0212013849CA0212013879CA02E9
:1012F300120138A4CA02120138D8CA0212013804F2
:10130300CB0212013847CB0212013872CB02120111
:1013130038B9CB021201380ECC0212013850CC027C
:10132300120138AACC02120138D5CC02120138249A
:10133300CD0212013854CD021201387FCD021201C1
:1013430038ADCD02120138D0CD021201385DAE03A3
:1013530012013889AE03120138B6AE03120138C048
:10136300AE03120138D0AE03120138A4B003120148
:1013730038E2FF01E066701008A3E066700A08A374
:10138300E066700408A3E06622C008C3E096F5088F
:1013930008A3E096420808A3E096420808A3E09653
:1013A3004208A2D265D033E5087001D3D00822C326
:1013B300E7960809E7960809E7960809E79622C31E
:1013C300E09608A3E09608A3E09608A3E09622C05F
:1013D30008C3E096F50808A3E096420808A3E09640
:1013E300420808A3E09645087001D3D008220808F4
:1013F30008E630E71112182C121409080808C6442D
:1014030080C618181822181818E9799EC608CAC683
:1014130008CBC608CCC6C370207996CACBCC70194A
:10142300798ECBCC70137986CC700EF9802ACA33AF
:10143300CACB33CBCC33CC331930E7F2CCCBCA3362
:1014430050147004EA30E00DE4CA3ACACB3BCBCC6B
:101453003CCC500209C3E913C6CC182313C6CB18DE
:10146300C6CA18C6F9221214A920F01430E72B7447
:10147300FFFCFBFA747F8022E4FCFBFA7480801A81
:10148300B48008BC00F2BB00EF800F50EBF9E4C35B
:101493009AFAE49BFBE49CFCE499C6CC18C6CB18EF
:1014A300C6CA18C6F922E4C9C608CAC608CBC6D339
:1014B300330308CCC63392F0C3947F402E94184074
:1014C30019C9B90704CACBCC225025C309CA33CAE8
:1014D300CB33CBCC33CC33D9F422F4600DC9CCC39A
:1014E30013CB13CBCA13CAD9F6CC22E4FCFBFA22E2
:1014F30014FCFBFA22E6C33318461846184622E7C3
:10150300C33319471947194722181818E60846081C
:10151300700AE608C3337005E633F422082219196A
:1015230019E7094709700AE709C3337005E733F47C
:10153300220922E6084608C3134608336002E6334D
:10154300F422E7094709C3134709336002E733F479
:101553002200121536604F1215456012E75480665B
:10156300F612150C7011121502703B090909F4F6F5
:1015730018F618F618F62212152170151214F80829
:10158300080860EAE6447FF618768018E4F618F651
:10159300221214F860161215027012E4F608F60807
:1015A300F608E65480F609090918181822EAC0E07B
:1015B300EBC0E0ECC0E0EDC0E0E687F0A4FBACF0EC
:1015C30008E687F0A42CFCE435F0FA1809E687F066
:1015D300A42C4B60027401CA35F0FCE433FB09E62A
:1015E30087F0D2F7A42CCB35F0FC1908E687F0A4DA
:1015F3002BCC35F0FBE433FD0819E687F0D2E7A4E2
:101603002C4ACB35F0CD3400FC09E687F0D2E7A4B1
:101613002DCC35F0FDE433FA0918E687F0D2F7A4B0
:101623002CCD35F0CA3400FC08E687F0D2E7D2F7B8
:10163300A42ACC35F07A7E20E70B0ACB33CBCD330B
:10164300CDCC33CC33CB3350147004ED30E00ED219
:10165300F1E4CD3DCDCC3CCC3B5005DA05C2F1EBFA
:10166300547FC63308E63392F0FBE73309E733C30D
:101673009A502D2B70190C0D4C4D70151806E60859
:10168300C333700D20F10AA2F013F6E418800B4067
:1016930024E4F630F002768018F618F618F6802463
:1016A300D33B14501074FFA2F013F6187680E4189D
:1016B300F618F6800FA2F013F618E63303F618ECCB
:1016C300F618EDF6D0E0FDD0E0FCD0E0FBD0E0FA78
:1016D30022080808EAC0E0EBC0E086F0E7A4FA18A5
:1016E3000986F0E7A42AFA180986F0E7A42AFA186B
:1016F3000986F0E7A42AFA1986F0E7A4FBE5F02AA5
:10170300FA190886F0E7A42BFBE5F03AFA190886E4
:10171300F0E7A42BFBE5F03AFA18180986F0E7A4E2
:10172300C5F02BFBE43AFA1908E7C5F0C6A426F680
:10173300E5F03BFBE43AFA1886F0E7A4F6E5F00897
:1017430026F6E43B08F6E43A08F6D0E0FBD0E0FAEC
:1017530022E4CFC0E0E4CEC0E0E4CDC0E0E4CCC0FE
:10176300E075F020C3E633F608E633F608E633F611
:1017730008E633F6181818EC33FCED33FDEE33FEB0
:10178300EF33FFC3EC9709ED9709EE9709EF97192C
:101793001919400FFFEC97FC09ED97FD09EE97FE31
:1017A300191906D5F0BEECF709EDF709EEF709EFC5
:1017B300F7191919D0E0FCD0E0FDD0E0FED0E0FF2E
:1017C3002212182F18181812175412181B19191946
:1017D3002212181B191919080808E618181820E707
:1017E300E012175412182F18181822090909E719BB
:1017F300191920E7DC080808E618181820E703027F
:10180300175412182F18181812175412182F1818C3
:101813001812181B19191922E4C397F709E497F74B
:1018230009E497F709E497F722181818E4C396F622
:1018330008E496F608E496F608E496F6226016089D
:101843000808C6C313C618C613C618C613C618C6D7
:1018530013C6D5E0EA227009080808226016181892
:1018630018C6C333C608C633C608C633C608C6334C
:10187300C6D5E0EA22E627F60809E637F60809E6C0
:1018830037F60809E637F622E026F608A3E036F62F
:1018930008A3E036F608A3E036F622E026F008A314
:1018A300E036F008A3E036F008A3E036F022C3E602
:1018B30097F60809E697F60809E697F60809E69702
:1018C300F622C3E0C696F608A3E0C696F608A3E0A0
:1018D300C696F608A3E0C696F622C3E096F008A3E0
:1018E300E096F008A3E096F008A3E096F022E05615
:1018F300F608A3E056F608A3E056F608A3E056F66A
:1019030022E056F008A3E056F008A3E056F008A33F
:10191300E056F022E0F608A3E0F608A3E0F608A3F9
:10192300E0F622E6F008A3E6F008A3E6F008A3E653
:10193300F022E0FAA3E0FBA3E0FCA3E0FD22EAF03F
:10194300A3EBF0A3ECF0A3EDF022CAC0E0E6F0A312
:1019530008DAFAD0E0FA22CAC0E0E0A3C582CCC517
:1019630082C583CDC583F0A3C582CCC582C583CD93
:10197300C583DAE6D0E0CA22C3E498F8E499F91201
:1019830019BC8026C3E49AFAE49BFBE920E7E91239
:1019930019BCE498F8E499F922C3E498F8E499F9B6
:1019A3001219BCE498F8E499F9C3E49AFAE49BFBAE
:1019B30022EB20E7CFE920E7E0B90010BB0008E8FD
:1019C3008AF084F8AAF022E4FBC8FA22EB70227BA7
:1019D30010C833C8C933C9335007C39AC3DBF28075
:1019E300069A50012ADBEAC833F4C8C933F4C9FAAA
:1019F3002275F008E4C833C8C933C933C99AC99BEF
:101A03005004C92AC93BD5F0ECFBC833F4C8E4C978
:101A1300FA22600D08C6A2E713C618C613C6D5E09E
:101A2300F322600C08C6C313C618C613C6D5E0F468
:101A330022700422600D18C6C333C608C633C6D548
:101A4300E0F41822251810AF08F518400215198084
:101A530008F51840021519D2AF22C0D0251810AFCF
:101A630008F518500205198008F51850020519D217
:101A7300AFD0D0222518F58210AF08F51840021513
:101A8300198008F51840021519D2AF85198322254C
:101A930018F582E43519F58322E4732518C582C04D
:101AA300E0E51934FFC583C0E0E518C3958224F847
:101AB30010AF08858319858218800885831985826C
:101AC30018D2AFCEF0A3E520F0A37808E608F0A380
:101AD300DEFAEFF0A3E58124FAF8E608F0A3E608BE
:101AE300F0A3E608F0A30808E608F0A3E608F0A3CD
:101AF30015811581D0E0FED0E0F81581158115819F
:101B0300E8C0E0EEC0E0222518C582C0E0E5193444
:101B1300FFC583C0E0E518C3958224F910AF08859B
:101B230083198582188008858319858218D2AFCEE0
:101B3300F0A3E520F0A37808E608F0A3DEFAEFF0BF
:101B4300A3E58124FBF8E608F0A3E608F0A3080860
:101B5300E608F0A3E608F0A315811581D0E0FED0D6
:101B6300E0F815811581E8C0E0EEC0E02285198315
:101B7300851882E0A3FEE0A3F5207808E0A3F60829
:101B8300DFFAE0A3FFE0A3C0E0E0A3C0E0E0A3C06E
:101B9300E0E0A3C0E0E0A3C0E010AF0885821885B1
:101BA30083198008858218858319D2AFD083D082A8
:101BB300020135851983851882E0A3FEE0A3F52091
:101BC3007808E0A3F608DFFAE0A3FFE0A3C0E0E0B3
:101BD300A3C0E0E0A3C0E0E0A3C0E010AF088582AB
:101BE300188583198008858218858319D2AFD0831D
:101BF300D08222C0D02518C582C0E0E51934FFC5C4
:101C030083C0E0E518C3958224F310AF08858319D8
:101C13008582188008858319858218D2AFC8F0A3FE
:101C2300E9F0A3EAF0A3EBF0A37908E709F0A3D85E
:101C3300FAECF0A3EDF0A3EEF0A3EFF0A3D0E0F005
:101C4300A3D0E0F0A3D0E0F0A3E520F0A3E5F0F00B
:101C5300A322851983851882E0C0E0A3E0F9A3E0FD
:101C6300FAA3E0FBA37808E0F608A3DFFAE0FCA3FD
:101C7300E0FDA3E0FEA3E0FFA3E0C0E0A3E0C0E03B
:101C8300A3E0F5D0A3E0F520A3E0A3F5F010AF089F
:101C93008583198582188008858319858218D2AFB8
:101CA300D082D083D0E0F8D0E0327404800674028E
:101CB30080027401C0E0F404121A77D0E012194DC7
:101CC300227404800474028000CCC0E0EDC0E0E51F
:101CD30018C39CCCAD1950011D10AF068C188D197B
:101CE30080068C188D19D2AF12195AD0E0FDD0E0BE
:101CF300FC22D083D082E9C0E0E493A3C386F0C57D
:101D0300F095F0F908E493A386F0C5F095F0700B15
:101D1300E493A3C3994005E9048002A3E475F002A8
:101D2300A42582F582E5F03583F583D0E0F9E493C9
:101D3300A3C0E0E493C0E022D083D082ECC0E0ED06
:101D4300C0E0E493A3FCE493A3FDED4C600D121DEE
:101D530087EC24FFFCED34FFFD80EFE493A3FCE468
:101D630093A3FDED4C600D121DC6EC24FFFCED3476
:101D7300FFFD80EFD0E0FDD0E0FCE493A3C0E0E4FE
:101D830093C0E022C0E0C3E49396087401939618CD
:101D9300400FE4936670080874019366187000702E
:101DA30019A3A3C3E49396087401939618A3A340BD
:101DB3000DD0E0D0E0D0E0021D77A3A3A3A3A3A39B
:101DC300D0E022C0E0C0F088F0E4936670080874A5
:101DD300019366187000A8F0A3A3700BD0F0D0E0B5
:0E1DE300D0E0D0E0021D77A3A3D0F0D0E02224
:101DF400C0E074F2121BF6A2AFE433FEC2AFE58971
:101E0400A2E150085389FDC2C5120447EEA2E09234
:101E1400AF7F01021C55C0E0C0D0E8C0E0E5A8D205
:101E2400AFC2C7751A00A2E792AFD0E0F8D0D0D005
:101E3400E03274F5121B0AEAFEEBFFEE2434F8EFED
:101E44003400F988088909EE2435F582EF3400F569
:101E540083E0F8EE2437F582EF3400F583E0F50AE9
:101E6400EC850AF0A4FCAAF0850AF0EDA42AFDE8AA
:101E74002CF8E43DF97A257B001219BCEA85088226
:101E8400850983F05407F87401B800028004C33351
:101E9400D8FCC0E0E0131313541FF8EE28F8EF3415
:101EA40000F9E8245DF582E93400F583D0E0F8E038
:101EB400586008EE2434F582EF801EEE2436F58255
:101EC400EF3400F583E0F5F0EA84A8F0EE28F8EFAB
:101ED4003400F9E82438F582E93400F583E0F97F29
:101EE40004021BB674F5121B0AEAFEEBFFEE24345F
:101EF400F582EF3400F583E0C0E0EE2435F582EF9F
:101F04003400F583D0E0F08E828F83A3A3A3A3A330
:101F1400A3A3C082C0838E828F83A3A3A3A3A3E0C1
:101F2400F8A3E0F9D083D082E0C398F508A3E09940
:101F3400F509EE2480F582EF3400F583E064017046
:101F440069EE2481F582EF3400F583E0F8A3E0F92B
:101F54008E828F83A3A3A3A3A3A3A3E0FCA3E0FD8A
:101F64008E828F83A3A3A3A3A3E0FAA3E0FBC3EA17
:101F74009CEB9D5027C3EC98ED99402EC3EA98EB57
:101F84009950277C7D7D08EEFAEFFB120F63EE2457
:101F940080F582EF3400F583E4F0800EC3EA98EB19
:101FA4009940E0C3EC98ED9950D9EE2434F8EF341D
:101FB40000F9E8FCE9FDEE2435F582EF3400F58301
:101FC400E0F8EE2437F582EF3400F583E0F50AE516
:101FD40008850AF0A4F508AAF0850AF0E509A42A00
:101FE400F509E82508F8E43509F97A257B00121982
:101FF400BCEA8C828D83F05407F87401B800028027
:1020040004C333D8FCC0E0E0131313541FF8EE28C4
:10201400F8EF3400F9E8245DF582E93400F583D063
:10202400E0F8E0586008EE2434F582EF801EEE24D8
:1020340036F582EF3400F583E0F5F0EA84A8F0EE9B
:1020440028F8EF3400F9E82438F582E93400F58300
:10205400E0F91228E5021EE3C082C0838518828558
:102064001983E0F8A3E0F9C3EA9CEB9D5012C3EC9A
:1020740098ED994019C3EA98EB99501279018010B0
:10208400C3EA98EB9940F5C3EC98ED9950EE7900CA
:10209400D083D08222EAC39CFAEB9DFB220000008D
:1020A4008521878522C622C0E0C0D0E8C0E0E9C00F
:1020B400E0EAC0E0EBC0E0ECC0E0EDC0E0C008C086
:1020C40009C00AC00BC082C083C0F0759B00906138
:1020D40082E0A2E64003022189E591A2E6400302E0
:1020E40021897591BF900742E06405700812109B26
:1020F4001210A780031210A1752100121101E9909A
:102104000743F079001210F5120ED97A017B009082
:102114000741E0F91204A7907803E06442600302E7
:1021240021D29008DFE014F060030221D2C2AF1282
:10213400213600782AD0E0F618D0E0F6E59F54075F
:10214400F970059081A4800390819478081219177E
:10215400E9C4C0E07829E65508F50808E65509F50C
:1021640009740B7808121A25D0E02508F8906270DB
:10217400E0A2E740F8E8C333906272F0906270E046
:10218400D2E0F08049E0A2E55024E591A2E5501E9A
:102194007591DF900742E0640D7013900764E004CA
:1021A400F064287002E4F07A00E0F912117390618F
:1021B40081E0A2E35009E5E9A2E3500375E9F7A33E
:1021C400E0A2E75009E591A2E7500375917FD0F0B2
:1021D400D083D082D00BD00AD009D008D0E0FDD073
:1021E400E0FCD0E0FBD0E0FAD0E0F9D0E0F8D0D0C9
:1021F400D0E032C0E0C0D0C082C083906183E0A24E
:10220400E05009E5BFA2E0500375BFFEE0A2E15033
:1022140009E5BFA2E1500375BFFDE0A2E25009E564
:10222400BFA2E2500375BFFBE0A2E35009E5BFA2E1
:10223400E3500375BFF7E0A2E45009E5BFA2E45000
:102244000375BFEFE0A2E55009E5BFA2E5500375B1
:10225400BFDFE0A2E65009E5BFA2E6500375BFBFA9
:10226400D083D0828088C0E0C0D0E8C0E0E9C0E07C
:10227400EAC0E0EBC0E0ECC0E0EDC0E0C0F0E5A7F0
:10228400A2E6500FE5A1A2E6500953A7BF75A1BF6E
:102294001222CFE5A7A2E5500CE5A1A2E550065312
:1022A400A7DF75A1DFE5A7A2E15009E5A1A2E150EE
:1022B4000375A1FDE5A7A2E2500CE5A1A2E2500638
:1022C40053A7FB75A1FBD0F00221E074F8121B0A9E
:1022D400752101900742E06406701512102F8A825E
:1022E4008B83A3A3A3A3A3A3E0FAA3E0FB12108907
:1022F400A2AFE433FED2AF900748E0640170187ACD
:10230400207B00900741E0F91205317A207B009090
:102314000741E0F91204AD906182E0D2E6F0900842
:10232400DEE0602185C6228016900747E0640170D4
:1023340008E5C654F84405F5C653BEFC1220A4743F
:1023440001652160E4EEA2E092AF7F01021BB600BA
:102354008E238F2485822885832785188285198377
:10236400E0CEA3E0CF852882852783EBC9EAC8EDB8
:10237400CBECCA75F010C3E833C8E933C9EA33CAF1
:10238400EB33CBC3EA9EF526EB9FF525B35004ABA4
:1023940025AA26EC33CCED33CDD5F0DAAE23AF2429
:1023A4002274EB121B0A74FA121A478A088B098CDE
:1023B400148D15900742E024F7C3940550069081CC
:1023C400FC02250712102F8A0A8B0BAE0AAF0BEE04
:1023D4004F7003022504AC08AD0985188285198362
:1023E400AA82AB831210B98E828F83A3A3780812BA
:1023F40019179081C878081218F1851882851983F5
:10240400780C1219179081C8780C1218F178087991
:102414000C1213B2501F7808790C1218B190816411
:1024240078081213D24047850810850911850A12CD
:10243400850B138041850C10850D11850E12850FB7
:1024440013781079081218B190816478101213D29D
:10245400501C751000751100751200751301781069
:10246400790C1218B17810790812187880089081C4
:10247400FC78101219177409781012185990816891
:102484007808121917781079081217548E828F83DE
:10249400A3A3A3A3A3A3E0F8A3E0F97AD07B031238
:1024A40019BC88088909E4F50AF50B781079081233
:1024B40018787404121A92E0F8A3E0F97AD07B0336
:1024C4001219BCE8FA8A08E4F5097810790812139D
:1024D400B25007781079081218B1900742E06408E6
:1024E400600AE064066005E06405701C90816C7805
:1024F400101213D25012908170781012188B800829
:10250400908210781012191785148285158378101B
:102514001219267406121A5D7F0E021BB674F71286
:102524001B0A1210CB9008DCE06401701090624525
:10253400E4F0A3F053F4F343FE0C5390F31210773A
:10254400E5C654804449F5C6E59E547F644970F855
:10255400906185740FF09008DAE0F47002A3E060F3
:102564004E9008DBE0600814601B14602E804075F8
:1025740008017509009008DAE07808121A34E508B1
:10258400F45280802A7508017509009008DAE07811
:1025940008121A34E508F45290801475080175097C
:1025A400009008DAE07808121A34E508F452A079A9
:1025B400007F02021BB674F7121B0AE9FEEAFF74DD
:1025C400016E700C7A807B00900741E0F91204A739
:1025D4009028F4E493F46008E493F9120ECD800992
:1025E40053C680E59E547F70FA12107D9008DCE09B
:1025F40064017003120EE59008DAE0F47002A3E0BF
:10260400604B9008DBE0600814601A14602C803D75
:102614007508017509009008DAE07808121A34E5A3
:1026240008428080287508017509009008DAE0786E
:1026340008121A34E50842908013750801750900E0
:102644009008DAE07808121A34E50842A01210CB98
:1026540012102F8A088B09A808A909E8496015E512
:10266400E170FCE82414F582E93400F583E0F460B9
:1026740003E0F5E174016F700A7A01900741E0F913
:102684001205010225B574F1121B0A8A088B098C04
:102694000A8D0B740F121A92780C1219179081C8B4
:1026A40078081218F19081C8780C1218F17808791A
:1026B4000C1213B250157808790C1218B190816479
:1026C40078081213D2401579018013780C79081216
:1026D40018B1908164780C1213D240EB79007F0812
:1026E400021BB674ED121B0A8A088B098C0A8D0B27
:1026F4007413121A92780C1219179081C878081260
:1027040018F19081C8780C1218F1780C790812131A
:10271400B240117808790C1218B1AA08AB09AC0AB6
:10272400AD0B802275100075110075120075130130
:102734007810790C1218B178107908121878AA1048
:10274400AB11AC12AD137F0C021BB69081C8780894
:102754001219178A828B8378081219047F04021BCA
:10276400B674F5121B0A8C828D8378081219178AA5
:10277400828B8378081218DDEA2404F8EB3400F91C
:102784008C828D83A3A3A3A3E0FCA3E0FD888289AC
:1027940083C3E09CF0A3E09DF088828983C3E09426
:1027A40020A3E0944E402290820878081219178AD8
:1027B400828B83780812189E8A828B83A3A3A3A397
:1027C400E02420F0A3E0344EF0808074F5121B0A5C
:1027D400E9FE900894E0FAA3E0FBEEC333F8E43397
:1027E400F974C128F582748039F583E02AF508A3C9
:1027F400E03BF5097808121CB19081A0121935123A
:1028040023547402121A5D8A088B098C0A8D0B7486
:10281400107808121840AA08AB097F04021BB6748A
:10282400F1121B0A8A0C8B0D8C0E8D0F740F121A69
:1028340092E0FAA3E0FB7411121A92E0F508A3E007
:10284400F5097413121A92E0FEA3E0FF7808121C33
:10285400B1EA2401F508EB3400F509E4F50AF50BB7
:10286400780C79081216D4908174780812191778A4
:102874000C79081216D4AA0CAB0DAC0EAD0F1223B2
:10288400547402121A5D8B09EA450960047A0180C6
:10289400027A00EC2AFCED3400FDECF8EDF97A71D3
:1028A4007B021219BC88088909E4F50AF50B8E82AB
:1028B4008F837808121926ECF8EDF97A717B0212ED
:1028C40019BC8A088B0974057808121A348E828F11
:1028D40083A3A3A3A3E508F0A3E509F07F08021BE3
:0F28E400B6C082C083E9906000F0D083D082221A
:1028F400FFFFFFFFFFFFFFFFC082C083E9900CF6DC
:10290400F0022B1B74F7121A9EE9900660F07C9873
:102914007D067AFF7BFF120C0990066174FFF0A319
:10292400F0A3E4F0A3F07905120B97900660E0F9A8
:10293400120ABF7A217B0C120DE302382974F412B7
:102944001A9E8A088B09EB54806030900660E0F987
:1029540012048F8A0A8B0BAE0AAF0BEE4F60138EF4
:10296400828F83E064B07003120BA9EEFAEFFB12BE
:10297400047DAA08E5096480FB80047A007B0002D8
:102984002AEA74F2121A9E74FC121A47EAFEEBFF4A
:102994007412121A92123D10EE4F7003022A297417
:1029A40002121A92EEF0A3EF122D25ECF0A3ED1211
:1029B4002D25AA82AB83120AB9E9F50A706AE508E3
:1029C400450960648E828F83123CF6EE4F60567A1E
:1029D400067B001204E98A0C8B0DA80CA90DE849AA
:1029E4007005750A13804188828983E4122A36EEC1
:1029F400F0A3EF123D21E508F0A3E509F090066687
:102A0400122ABD90066670051237D3801B1237C197
:102A14008003EAFCEBFD8C828D83122ABD70F38C5B
:102A2400828D8380E3750A02A90A7404121A5D0276
:102A34003F10F0A3123CC7A32274F2121A9E890A13
:102A4400E975F017A4FEAFF0900665E4F090066314
:102A5400122ABD600A1204EF900663E4F0A3F0EEBC
:102A6400FAEFFB1204E98A088B09EA4509602FEEA4
:102A7400FCEFFD790012046B900663E508F0A3E512
:102A840009F07B008008122AA7E4F0A3F00BEBC343
:102A9400950A40F2E50A900665F079008002791300
:102AA400023F10EB75F017A4F8A9F0900663E02834
:102AB400FAA3E0398A82F58322123465EA4B227440
:102AC400F4121A9E7900EAA2E0501B75084E7509AB
:102AD400817808121CB17C047D007AF87B0C120BFF
:102AE400917402121A5D7F04021B70C082C083902D
:102AF4000666122B22601C88828983A3A3E06A7075
:102B040003A3E06B8882898370E8A3A3A3A3123490
:102B14006180047A007B00D083D082020135123FA9
:102B2400F6E8492274EE121A9E74FC121A47EAFE61
:102B3400EBFF851882851983E4F0A3F0EE240212DA
:102B440037B3EE2405123CCEEE2404F50EEF12301A
:102B5400DAE024FE603924FC604624FE605224FE40
:102B6400605E24FE7003022C3B24FE7003022C9F43
:102B740024FE7003022CAE24FE7003022CBD24FC40
:102B84007003022CCC24FE7003022CDB022D18905F
:102B9400067F7417F0A3E4122D2D120837022D18A6
:102BA400851882851983AC82AD83120BAF022CE8A1
:102BB400851882851983AC82AD83120BB5022CE88B
:102BC400850C08850D097402121A92AC82AD8385B6
:102BD4000882850983123461120ADD8A0C8B0DACDC
:102BE4000CAD0DEC4D603BE4F50CF50D780C121CAE
:102BF400B1750C7F750D06780C121CB1750C8075BF
:102C04000D06780C121CB17408121A92121CC81208
:102C1400401A121A5DE9F50C700B12345712084F62
:102C2400800F750C01850882850983122D1B1237CC
:102C3400D3850C08022CEB7402121A92AC82AD8379
:102C4400850C82850D8312322C603C850C82850DA7
:102C540083A3A3121CC875107F7511067810121C6B
:102C6400B17510807511067810121CB17408121A0F
:102C740092121CC812401A121A5DE9F509700B125F
:102C84003457120855800F750901850C82850D8310
:102C9400122D1B1237D3850908804C85188285199B
:102CA40083AC82AD83120BBB803A8518828519836D
:102CB400AC82AD83120BC1802B851882851983AC3D
:102CC40082AD83120BC7801C851882851983AC8260
:102CD400AD83120BCD800D851882851983AC82AD2E
:102CE40083120BD3E9F508E50860298E828F83A34C
:102CF400E06414601F850E82850F83E090067F12C6
:102D04002D25123FF29006801237D3E508A3122D29
:102D14002D1208310236C2123FF6851882851983B6
:102D240022F085188285198322F07C7F7D06850A2E
:102D340082850B831234652274EE121A9E74FC127F
:102D44001A478A0A8B0B8C0E8D0FEA2405F508EBC3
:102D54003400F5097C157D0079007A7F7B06120426
:102D64006BE5082402F50CE509123CD1851882852F
:102D740019838582108583117810121CB18508820D
:102D8400850983A3A3A3A3123223121CB1E508244B
:102D940005F510E5093400F5117810121CB1850C05
:102DA40082850D83123578120AD77406121A5D8A49
:102DB400108B11AE10AF11E50A2402F50AE50B12CF
:102DC40037B6EE4F7003022EFA80177402121A926D
:102DD40012346188828983EAF0A3EBF090067FE0E5
:102DE40004F090067FE0C394054003022EFAE4F554
:102DF40010F5117810121CB1751068751106781051
:102E0400121CB17510697511067810121CB1740684
:102E1400121A92121CC87910EEFCEFFD12401C121B
:102E24001A5DE9705E850882850983A3A3A3A3A321
:102E3400A3A3E0F8900668E0687048123223121CDD
:102E4400B17C697D06E5082408FAE5093400FB1223
:102E540004657402121A5DE960298E828F83A3A32C
:102E6400A3A312346190067FE0F510740278101267
:102E74001A3474802510F58274063511F583EAF04E
:102E8400A3EBF07402121A928582108583117810D4
:102E9400121CB17402121A92121CC8850C82850D80
:102EA40083123487121A5D8A108B11AE10AF119001
:102EB400067FE0F51075110074027810121A34744C
:102EC4007F2510F874063511F988828983A3122AA4
:102ED400BD7003022DC6E82403080808E93400F98C
:102EE400EE4F6003022DCF8882898374FFF0A3F034
:102EF40090067FE004F090067FE0600A12345712D7
:102F040008437900800B8508828509831237CA79C2
:102F14000A0236C274EA121A9E74FE121A478C12FE
:102F24008D13EA2405F50CEB124004123CFA7508E3
:102F340000750900EA2402F510EB3400F511851838
:102F44008285198385820A85830B780A121CB185D0
:102F54000C82850D83A3A3A3A31230F0121CB1E548
:102F64000C2405F50AE50D1237B6780A121CB18552
:102F74000C82850D831230F4120AD77406121A5D7E
:102F84008A0A8B0BEA450B7003023095EA2404F598
:102F94000EEB1230DA123CFA8A828B83A3A3A3E0ED
:102FA400F985108285118312346B6003023095E435
:102FB400F514F5157814121CB17514687515067896
:102FC40014121CB17514697515067814121CB174A9
:102FD40006121A92121CC87913AC0AAD0B85108222
:102FE400851183124022121A5DE9F509600302304B
:102FF40095900668E0F8E5087009E02402900680E0
:10300400F08014900680E0FCE82402FAE43400FB2B
:10301400EA6C7001EB707E850882AA8212321A94DF
:1030240014123212506B850E82850F83E0C0E07457
:10303400812A1230D1D0E0F00508850E82850F83F5
:10304400A3E0C0E085080A7481250A1230D1D0E0DB
:10305400F005089006681230F0121CB17C697D06F8
:1030640085080A7481250A1230E4121A5D900668F4
:10307400E02508F50874FF6E700374FF6F6012EEAC
:1030840024010EEF3400FFE508C394145003022F0B
:1030940042E5086013123475851082851183123459
:1030A4006112084979008014E509700375090A85DD
:1030B4001282851383EEF0A3EFF0A9097402121AA9
:1030C4005D7F0E021B7085080C7481250CF58274DB
:1030D400063400F583223400F50F850E82F5832231
:1030E400FA74063400FB120453740222123D302297
:1030F400A3A31230FA221237C1FDEEFAEFFB2274B9
:10310400EE121A9E74FE121A478C0E8D0FEA2405D5
:10311400F50CEB123CD1750B0090067FE4F0F50A38
:10312400EA2402F508EB3400F509804490067FE0B8
:10313400FA900668E0F812321A9417123212400D0F
:1031440090067FE0F87416C398900668F012322354
:10315400121CB17C697D0674802AFA74061230E769
:10316400121A5D900668E0F890067FE028F0050AE0
:10317400E50C2416F582E50D1230D5E0F8E50AC316
:1031840098507490067FE0C39416506BE50AC333DD
:10319400F8E433F9E50C28FEE50D39FF851882853E
:1031A4001983AC82AD838E828F8312322C700875A2
:1031B4000B011237C68050E4F510F5117810121C7B
:1031C400B17510687511067810121CB17510697507
:1031D40011067810121CB17406121A92121CC879C6
:1031E40016850882850983124022121A5DE9F50BBF
:1031F400700302313080BB7C7F7D0685088285099F
:103204008312346112085BA90B74020236C4E99478
:1032140000C365D03322EA28F8E43400F9E822E058
:10322400F5107511007810221236B98A108B11AC82
:1032340010AD11EC4D2274EA121A9E74FC121A4756
:103244008A0C8B0D8C128D13EA2405F50AEB1237C8
:10325400B6750800750900E50A2402F510E50B347B
:1032640000F5117402121A9285820E85830F780E6E
:10327400121CB1850A82850B83A3A3A3A3123CD697
:10328400121CB1E50A2405F50EE50B3400F50F78A0
:103294000E121CB18510828511831237BC12345B67
:1032A400120AD77406121A5D8A0E8B0FAE0EAF0F78
:1032B400E50C2402F50EE50D3400F50F8038888204
:1032C400898374FFF005081230CA74FFF005089072
:1032D4000668E0F50C750D00780C121CB17C697D54
:1032E4000685080C7481250C1230E4121A5D9006D0
:1032F40068E02508F508EE4F60278E828F83A3A32C
:10330400A3E0F9850E82850F8312346BEE24041238
:103314003CCEE96027850C82850D8312344D12372B
:10332400D3E5087003023433123475850E82850F99
:10333400831234611208617900023448E4F514F50B
:10334400157814121CB17514687515067814121CBE
:10335400B17514697515067814121CB17408121A23
:1033640092121CC87911EEFCEFFD850E82850F8345
:10337400124022121A5DE9F509709A850882AA8220
:10338400EA9006687009E02404900680F08025E045
:10339400F8900680E0F514E82404FCE43400FDEC25
:1033A40065147001ED708112321A941212321240B7
:1033B4000302332C850C82850D83E0C0E074812ADE
:1033C4001230D1D0E0F00508850C82850D83A3E08E
:1033D400C0E01230CAD0E012349085820C85830D8F
:1033E400780C121CB17404121A92121CC885108233
:1033F400851183123487121A5D8A0C8B0DAE0CAFC3
:103404000D85080C7481250CF874063400F9EE4F10
:1034140070030232C2851882851983E08882898309
:10342400123490A3E0C0E01230CAD0E00232D0E5FA
:1034340009700375090A850A82850B8312344D12BB
:1034440037D3A90974040230C2123FF6851282856B
:103454001383227C7F7D06850A82850B8312346563
:1034640022E0FAA3E0FB22123465120AC5E9F50949
:1034740022900680E0F5F0E5088490067FF07C7FDA
:103484007D06221230FA120AE3740422F00508853C
:1034940018828519832274EC121A9E74FE121A473C
:1034A4008A088B098C0E8D0FEA2405FEEB3400FF8D
:1034B4001236A3EE2418123CCEEA450B70030235F3
:1034C4004612368C502912356B8A108B11EA45113D
:1034D400606B7912AC0AAD0B8508828509831234BE
:1034E40061851082851183121A9CE9F50A7058E4EB
:1034F400F50AF50B780A121CB18E828F83A3A3E020
:10350400F50A780A121CB1EE24031237B3780A12B2
:103514001CB18E828F83123578120BF77406121A3F
:103524005DE9F50A7021850C82850D83E0701F85A5
:1035340008828509831234611208678011750A0EA6
:103544008009750A018004E50A60031237C6850CF8
:1035540082850D83E0600479008002A90A74021256
:103564001A5D7F0C021B70851882851983123465DD
:10357400120BE5221237C1FD8508828509831234B6
:10358400652274EE121A9E74FE121A478A088B0979
:103594008C0C8D0DEA2405FEEB3400FF750E001231
:1035A40036A3EA450B700302366A12368C502C128D
:1035B400356B8A0E8B0FEA450F604A7912AC0AAD5F
:1035C4000B850882850983123461850E82850F83F9
:1035D400121A9CE9F50E600302366D85088285098E
:1035E400831238A8AA0AFB12367E70147AFF7BFF76
:1035F40012367E606C88828983E50AF0A3E50BF0BD
:10360400750A008007750E0E805F050A900665E056
:10361400FAE50AC39A504AE50A75F017A4FAABF022
:1036240088828983A3A3E02AFAA3E03BFB8A828BE6
:10363400831237BCEC4D70D2750A17750B00780AEB
:10364400121CB1EEFCEFFD1204537402121A5DEE6B
:10365400FCEFFD85088285098312346112086D80B0
:1036640014750E098003750E01123FEE850C8285D8
:103674000D831237D3A90E02320D120BD98A108B87
:1036840011A810A911E84922E5082402F508E50962
:103694003400F5098A828B83A3A3A3E0A2E52285E3
:1036A4001882851983AC82AD838E828F831236B9DA
:1036B4008A0A8B0B22E0FAA3E0FB120ADD227404CF
:1036C400121A5D7F0A021B7074EC121A9E8C108D04
:1036D40011EA2405F50CEB123CD1750F00EA240223
:1036E400F50AEB1237B6850A82F58312346112406B
:1036F400A870030237A8750E008071850C82850DB1
:1037040083E06401704F8E828F83A3A3121CC88E42
:10371400828F83A3A3A3A3E0F5127513007812127A
:103724001CB1EE2405F512EF3400F5137812121CC7
:10373400B112345B120BF77406121A5DE9F50F60CF
:1037440014850C82850D83E4F0123FEE851082858A
:1037540011831237D37C177D007900EEFAEFFB1248
:10376400046B8E828F83E4F0A3F0050E900665E06F
:10377400F8E50EC398501EE50E75F017A4F8A9F0ED
:10378400850882850983A3A312400E1237BCEC4D31
:1037940060030236FF85088285098374FFF0A3F075
:1037A400E50F700612345B120873A90F023566F533
:1037B4000AEF3400F50B22A31237C1FD22E0FCA36B
:1037C400E0228E828F83123FF6850E82850F83E876
:1037D400F0A3E9F022C082C083900661E06A70031E
:1037E400A3E06B70067A617B0680047A007B00029A
:1037F4002B1B74F7121A9E7F00EF75F003A4F8A92F
:10380400F0EC28F8ED39F988828983E06A7003A323
:10381400E06B7006E8FAE9FB800B0FEFC3940240FB
:10382400D87A007B007F01021B7074F6121A9E1274
:103834003DDF70067A007B008007A3A3A3A31234A4
:1038440061023EA074F2121A9EE9FE740E121A92DC
:103854001238A87410121A92123D108C828D83E0D3
:103864006402703BA3123FF288828983E0F50CA3C3
:10387400E0F9A80C74026870037429697021750C4E
:1038840002750D00780C121CB17808121CB1780A6C
:10389400121CB1EEF9120C1B7406121A5D80027927
:1038A40001023F10E0F50AA3E0F50B2274E8121AB6
:1038B4009E74FB121A47E9851882851983F08A16CB
:1038C4008B178C0E8D0F741F121A92123D107421D7
:1038D400121A921238A87423121A92123CFA751012
:1038E400008C828D83A3A3A3E0A2E4502A741D124A
:1038F4001A921235718A828B83E5824583700302A2
:1039040039BC790AAC0EAD0FAA16AB17121A9CE992
:10391400F51060030239BF850E82850F83E06402CF
:103924006003023C75A3123FF2850882850983A3D4
:10393400858212858313E50E2406F50CE50F123CEF
:10394400D188828983E0FAA3E0F9EA2400F514E43B
:1039540039F5157814121D3B01000028012884391B
:10396400070002285B3A0328CB390029853B01294B
:10397400AD3B0229543B0329853B0429163C753C85
:10398400EE4F703E850C82850D83123CEBFAE9FB09
:103994008A828B83E0850A82850B83123D27121C61
:1039A400B18A828B83A31237C1FDAA08AB09120422
:1039B400537402121A5D800375100EA91074050267
:1039C4003FFC75100B80F4EE4F70F7850A82850B6F
:1039D400837401F0123D00850882850983F07C0020
:1039E4007D00850E82850F83A3A3A3A3E02401FA9F
:1039F400A3E03400FB120ADDEA4B60418A828B8328
:103A0400E02402F8850A82850B83E028F0EA240486
:103A1400F8EB3400F988828983E085128285138368
:103A2400123D39123D27121CB18A828B831237BB97
:103A3400E5082403FAE5093400FB0239B2850A8259
:103A4400850B83E02404F07C047D007900AA12AB8A
:103A54001312046B0239BFEE4F60030239C6123DE4
:103A640000FEA3E0FF850A82850B837404F0EE85D3
:103A74000882850983F0EF851282851383F074032D
:103A8400121A92AC82AD83EEFAEFFB123DCD7003B5
:103A9400023B318A828B83A3A3123CF67401121A6F
:103AA4009285820E85830F780E121CB17405121A4A
:103AB40092121CC87CFF7DFF120AE37404121A5D83
:103AC4008B0FEA450F7033850C82850D83123CD62B
:103AD400121CB1850C82850D83A3121CC87C027D47
:103AE400007A2D7B8212090F7404121A5DE9700AA0
:103AF4007401121A9274FFF0A3F08E828F83E06433
:103B0400027034750C02750D00780C121CB18E8293
:103B14008F831237BBE5082404FAE5091230E71253
:103B24001A5D850A82850B83E024028009740112E0
:103B34001A92EEF0A3EFF07401121A92123CE7F01D
:103B44007401121A92A3123CDFA3A3A3F00239BF9B
:103B5400EE4F60030239C6850C82850D831237BC93
:103B6400AA16AB17120C0F850A82850B837402F018
:103B7400EA850882850983F0851282851383EB80A8
:103B8400CBEE4F60030239C6123D00F8A3E0F9857D
:103B94000A82850B837402F0E8850882850983F024
:103BA400E985128285138380A3850C82850D831297
:103BB400346112044DEAFC8C82A882C39EE49F40C7
:103BC4004BE86E7001EF70047C00801F85188285BD
:103BD4001983E0FAEE2AFAEF3400FBC3EA98EB9477
:103BE400005003E08004EECCC39CFCEC850A828583
:103BF4000B83F08C0A750B00780A121CB1850C82B9
:103C0400850D83E02EFCA3E03F0239AD7510070259
:103C140039BFEE4F60030239C6850C82850D8312CD
:103C24003FF2850A82850B837407F08882898312A8
:103C34003CDF123CC7E0851282851383F0E824023E
:103C4400FAE93400FB8A828B83123CDF123D18129E
:103C54003CE7A3123D21123CF0F0E82405F8E934D6
:103C640000F988828983123CF0A3123D39A3023BF8
:103C74004D741D121A92123DD870030239BC123FC2
:103C8400F2880C890DE8450D70030239BC8E108F43
:103C9400117810121CB1780A121CB17808121CB1E8
:103CA4007406121A92E0F9AC0EAD0FAA16AB178582
:103CB4000C82850D83121A9C7406121A5DE9F510A4
:103CC4000239BFF088828983A322F50CEF3400F512
:103CD4000D22E0F50E750F00780E22E0850882852E
:103CE400098322123D4022123FF6E822123D40A3EE
:103CF400A322A3A3A3A3E0FEA3E0FF22850C828555
:103D04000D83E0F8A3E0F5838882E022E0F508A3C0
:103D1400E0F50922A3A3F08A828B83A322122A3816
:103D2400A3A322F08A828B83123D3022E0F50A7528
:103D34000B00780A22123CC7123D4022E08508821B
:103D4400850983A3A32274EE121A9E74FE121A47E5
:103D54008A0A8B0BECFAEDFB7414121A92E0F5103C
:103D6400A3E0F5117416121A92E0FE7418121A9256
:103D7400E0F50EA3E0F50F851882851983AC82ADBA
:103D840083123DCD603E851882851983123DD8602B
:103D94002FA3A3123D10E50845096024780E121CD8
:103DA400B17810121CB1EEF9AC0CAD0DAA0AAB0B34
:103DB400850882850983121A9C7404121A5D800690
:103DC400790E8002790102320D120ADD8A0C8B0D04
:103DD400EA450D22123465123DDF22120BA38A82BA
:103DE4008B83E58245832274F6121A9E74FE121A9E
:103DF40047740C121A92123CEB851882851983F0D1
:103E04007401121A92E9F0E4F508F5097808121C15
:103E1400B17508027808121CB17404121A928582D2
:103E2400088583097808121CB1120BF77406121A5C
:103E34005D7402121A5D806474F7121A9EEAFEEB36
:103E4400FF89087C987D06120C0FEA5402600BA9C6
:103E540008EEFAEFFB120AD18002790102382974C4
:103E6400F6121A9E74FF6A700374FF6B701C7B0059
:103E7400EB75F003A4F8A9F0EC28F8ED39F9123E3B
:103E8400A50BEBC39402501480E6120BDF8A088B57
:103E940009A808A909E8496003123EA57F02021B8C
:103EA400708882898374FF122A36E4F02274F61231
:103EB4001A9E120BDF8A828B83E58245836006A3F8
:103EC400A3E0FA80027A007B0080D174F2121A9E79
:103ED4008A088B09ECFEEDFF740E121A92E0F50AC3
:103EE400123F15701CEEFCEFFD7AFF7BFF123F15AD
:103EF40070047911801688828983E508F0A3E509A6
:103F0400F088828983A3A3E50AF079007F06021B67
:103F140070120BDF8A0C8B0DA80CA90DE8492274D2
:103F2400EE121A9EEAFEEBFF8C088D09890C7412BE
:103F3400121A92123FF27414121A921237BC7416A7
:103F4400121A92123461750D00EC4D6003023FE6C3
:103F54007402650C6003023FE1888289831237C1D1
:103F6400F9EC2400F50EE439F50FEAF4F8EBF4F972
:103F7400EC58F8E50F59F9E849705DE5082406F8AE
:103F8400E5093400F9880A890B8882F5831230F632
:103F9400120C0F8A108B11E50E65107004E50F6585
:103FA400116042780E121CB1850A82850B8312308F
:103FB400F6120C157402121A5DE9F50D7027780ECD
:103FC400121CB1850882850983A3A31230F4120C54
:103FD400277402121A5D800D750D808008750D0D11
:103FE4008003750D0BA90D0236C78E828F83123F95
:103FF400F622E0F8A3E0F922121A5D7F10021B708A
:104004003400F50D850C82F58322E028FEA3E03907
:10401400FF8E828F83227916850A82850B83123460
:1040240065120BF174082274F2121A9EEAFEEBFF79
:10403400890B7401650B600E7402650B7063790162
:10404400120E01E9705BEEFAEFFB1240A8604775AF
:104054000A00800B7C177D00790012046B050A901E
:104064000665E0F8E50AC3985021E50A75F017A43F
:10407400F8A9F0850882850983A3A3E028FAA3E0C0
:1040840039FB8A828B83122B2270C98508828509A9
:104094008374FFF0A3F07C987D06EEFAEFFB120C1C
:1040A40009023F10120BD98A088B09EA45092274C8
:1040B400F2121A9E8A088B09ECFEEDFF740E121A96
:1040C400921238A8900CF6E0F4603D7A097B001255
:1040D4000477EA4B60328A828B8374B1F0A3E412D2
:1040E4003D1AA3123D18A3E508F0A3E50912410FF8
:1040F400EEF0A3EF12410FA3A3E50AF0A3E50BF042
:10410400900CF6E0F9120483023F10F08A828B834C
:10411400A3A3A3A3A322C082C0839061907404F0DC
:10412400A37448F0A37402F09061807440F090612D
:10413400BC7403F09061877419F0906265741BF08D
:1041440090619C740DF090619A7433F0A37455F0EF
:104154009061A0743AF09008DCE064017009C291A7
:10416400900746746780059007467461F09028FABA
:10417400E493906186F09028F4E493F46027E49348
:10418400540FF8906185E0686012E5C65480444994
:10419400F5C6E59E547F644970F8E8F053C680E59F
:1041A4009E547F70FA790512115502435CC082C097
:1041B40083E9540FF9906185E0696012E5C6548083
:1041C4004449F5C6E59E547F644970F8E9F053C646
:1041D40080E59E547F70FA02435CC082C083E5A8E8
:1041E400F853A87E906181E4F0A3F0A3F0C2BA531F
:1041F4009AFEC289759B00C2C275E900759100756B
:10420400BF0075A91175B905906181F0A374C0F060
:10421400A3E4F0D2BA439A0174805842A802435CE2
:10422400C082C08374F8121A47900744E0F8A3E0F0
:10423400F9E8497003024352900744E05440602374
:104244007908851882851983AA82AB83120FBD85EC
:104254001882851983AA82AB83120C93900744E0D9
:1042640054BFF0E054806010790C7A007B09120F7F
:10427400BD900744E0547FF0E0A2E0503190619A91
:104284007433F0A37455F09061A0743AF09008DC94
:10429400E064017009C29190074674678005900735
:1042A400467461F0120C99900744E054FEF0E05417
:1042B40002603190619A743FF0A3745AF09061A047
:1042C400747FF09008DCE064017009D29190074695
:1042D40074718005900746746AF0120C9990074433
:1042E400E054FDF0E0540460139028F8E4939061E6
:1042F40086F0120C9F900744E054FBF0E0540860F1
:10430400139028F9E493906186F0120C9F9007446F
:10431400E054F7F0E0541060139028FAE4939061AD
:1043240086F0120C9F900744E054EFF0E0542060B4
:104334000A120C9F900744E054DFF0A3E05401609C
:104344000D120EE5120CA5900745E054FEF074081A
:10435400121A5D8003F0A3F0D083D0820201357479
:10436400EC121A9E74F4121A47851882851983ACCC
:1043740082AD837583817582BC740412195A9028A6
:10438400F893F460030244F0907808E0C394025078
:10439400030244D07404121A92AC82AD83758381F3
:1043A400758227740812195A8518828519838582A3
:1043B400128583137404121A92AC82AD83750EFFB6
:1043C400750FFF7FFF7E00750C48750D788015749E
:1043D400086E700302446374096E700302446374CC
:1043E4000A6E607B850C82850D8378081219178C00
:1043F400828D83A909E50AC9F8881074187808120F
:104404001840E5104508F8C3E098A3E099850C82AC
:10441400850D83780812191740188C828D837418BF
:104424007808121840E5104508F8E0C398F8A3E0AE
:10443400801C74187808121840E5104508FAE9FB46
:104444008C828D83E0F8A3E0F9EAC398F8EB99F93C
:10445400C3E8950EE9950F5006880E890FEEFF0EFE
:10446400E50C2404F50CE50D3400F50DEEC39413AE
:1044740050030243D374FF650E700474FF650F602C
:10448400238F0874027808121A3474482508F582B8
:1044940074783509F5837808121917851282851303
:1044A40083E508F0EC24020C0CED3400FD85128247
:1044B400851383A3858212858313740C121A92E5E3
:1044C400826C7003E5836D60030243C17508017556
:1044D40009007808121CB17402121A92AC82AD83DE
:1044E4007A3E7B0A1207177402121A5D740C121AB0
:1044F4005D7F0C021B70C082C0839061AE7468F053
:10450400A3746AF090624574FBF0A304F053F4FDC5
:1045140043FE029008DC7401F09061A0E0643A90DC
:10452400619A70237433F0A37455F09061A0743AC7
:10453400F0740164017009C2919007467467802881
:1045440090074674618021743FF0A3745AF090611F
:10455400A0747FF0740164017009D29190074674CD
:10456400718005900746746A02435B7F04021B70E6
:10457400C082C08390088EE06401700A900893E0C2
:104584006004790C8002790002435CC082C08375A8
:10459400E1F1900891E060551460081460591460CA
:1045A400518059120EF7900887E0F97A887B081237
:1045B40010D79081B412193512110D9081D01219AF
:1045C400351210E3900892E0F91210EF79011211FC
:1045D40049900885E02416F8A3E03400F98882891C
:1045E40083740FF0A3740FF0790002435C120EFD84
:1045F40080B4120F0380AF120F0980AA791280EAE7
:1046040074F4121A9E75D90D900876E0A2E0E43392
:104614001313F8900887E0C4333354C0484401F5B9
:10462400D97885790888828983A3A3A3E0F5D988FA
:10463400828983A3A882A983E8648B7003E9640850
:1046440070E37876790888828983A3E0F5D9888233
:104654008983A3A882A983E8647C7003E964087051
:10466400E575E195900876E0F97A777B081210DD1C
:10467400900D1874A3F0A3740EF0A37405F0A37442
:1046840010F0A37405F0A37410F0A37405F0A374E0
:1046940010F0A374A9F0A3740EF0A37405F0A3742E
:1046A40010F0A374C1F0A3740EF0900D267405F0FD
:1046B400A37410F0A37405F0A37410F0A37405F0B0
:1046C400A37410F0A37405F0A37410F0A37405F0A0
:1046D400A37410F0A37405F0A37410F0900885E09F
:1046E400F8A3E0F5838882A3A378081219179081B0
:1046F400B0780812188B9081C878081218F19008C5
:1047040085E0240EF8A3E03400F9888289837808D0
:10471400121926900885E02414F8A3E03400F988DF
:104724008289837413F09007427402F002456FC0CB
:1047340082C083900897E02407F5D9900887E0C4E5
:10474400333354C0F5D97885790888828983A3A343
:10475400A3E0F5D988828983A3A882A983E8648B1E
:104764007003E9640870E3900897E0601F78857926
:1047740008FAE82413F582E93400F583E0F5D988D2
:10478400828983A3A882A9831AEA70E69008B7E015
:104794002407F5D9900887E0C4333354C04404F5A2
:1047A400D97885790888828983A3A3A3E0F5D98879
:1047B400828983A3A882A983E8648B7003E96408CF
:1047C40070E39008B7E0601F78857908FAE824332D
:1047D400F582E93400F583E0F5D988828983A3A8BA
:1047E40082A9831AEA70E675E195900D1874AFF00A
:1047F400A3740EF0A37405F0A37410F0A37405F071
:10480400A37410F0A37405F0A37410F0A374A9F0BA
:10481400A3740EF0A37405F0A37410F0A374C1F094
:10482400A3740EF0900D267405F0A37410F0A37415
:1048340005F0A37410F0A37405F0A37410F0A3742E
:1048440005F0A37410F0A37405F0A37410F0A3741E
:1048540005F0A37410F0908208121935900885E0D1
:10486400240EF8A3E03400F9888289831219419058
:104874000885E02414F8A3E03400F988828983745D
:1048840012F0900742740102435BC082C083900817
:1048940097E02407F5D9900887E0C4333354C04423
:1048A40002F5D97885790888828983A3A3A3E0F5E2
:1048B400D988828983A3A882A983E8648B7003E9D9
:1048C400640870E3900897E0601F78857908FAE837
:1048D4002413F582E93400F583E0F5D988828983CD
:1048E400A3A882A9831AEA70E675E195900D18745D
:1048F400BBF0A3740EF0A374BBF0A3740EF0A37406
:10490400BBF0A3740EF0A374BBF0A3740EF0A374F5
:10491400BBF0A3740EF0A374BBF0A3740EF0A374E5
:10492400C1F0A3740EF0900D267405F0A37410F07A
:10493400A37405F0A37410F0A37405F0A37410F02D
:10494400A37405F0A37410F0A37405F0A37410F01D
:10495400A37405F0A37410F090820812193590081E
:1049640085E0240EF8A3E03400F9888289831219C3
:1049740041900885E02414F8A3E03400F988828982
:10498400837414F0900742740402435BC082C083B2
:10499400900897E02407F5D9900887E0C43333548E
:1049A400C04406F5D97885790888828983A3A3A3AE
:1049B400E0F5D988828983A3A882A983E8648B70EF
:1049C40003E9640870E3900897E0601F788579082C
:1049D400FAE82413F582E93400F583E0F5D98882F6
:1049E4008983A3A882A9831AEA70E69008B7E02411
:1049F40007F5D9900887E0C4333354C04404F5D98B
:104A04007885790888828983A3A3A3E0F5D988826D
:104A14008983A3A882A983E8648B7003E96408707E
:104A2400E39008B7E0601F78857908FAE82433F545
:104A340082E93400F583E0F5D988828983A3A882CA
:104A4400A9831AEA70E675E195900D1874B5F0A380
:104A5400740EF0A37405F0A37410F0A37405F0A30E
:104A64007410F0A37405F0A37410F0A37405F0A3FC
:104A74007410F0A37405F0A37410F0A374C1F0A330
:104A8400740EF0900D267405F0A37410F0A3740551
:104A9400F0A37410F0A37405F0A37410F0A37405CC
:104AA400F0A37410F0A37405F0A37410F0A37405BC
:104AB400F0A37410F0908208121935900885E02450
:104AC4000EF8A3E03400F988828983121941900812
:104AD40085E02414F8A3E03400F9888289837415EE
:104AE400F0900742740302435BC082C08390088540
:104AF400E0F8A3E0F5838882A3A3A3A3A3A3E4021D
:104B0400435974F7121A9E900770E0F875F004A4E4
:104B1400C8AAF02AF9747228F8740739F9E8240548
:104B2400FAE93400FB8A828B83E0FCA3E0FD8882EF
:104B34008983A3A3A3A3A3A3A3A3A3ECF0A3EDF04E
:104B440088828983A3A3A3A3A3A3A3E024FFF8A338
:104B5400E034FFF98A828B83E8F0A3E9024DAB7459
:104B6400F7121A9EEAFEEBFF9061D0E06003024C5C
:104B74004075D90E75D90375D904EE248CF582EFEE
:104B84003400F583E5822408F8E5833400F9E0F580
:104B9400D9A3E865827003E9658370F2EE2484F595
:104BA40082EF3400F583E5822404F8E5833400F9C8
:104BB400E0F5D9A3E865827003E9658370F275E1D5
:104BC400957908EE248CFAEF3400FB120FB17904C6
:104BD400EE2484FAEF3400FB120FB17C00EEF8EF00
:104BE400F9ECFAC3E49AFA95E0FBEE2AFAEF3BFB00
:104BF400EA248BF582EB3400F583E0C0E0E824ABD3
:104C0400F582E93400F583D0E0F00C88828983A32F
:104C1400A882A983ECC3940840C7EE2470F582EF00
:104C24003400F583E0F8A3E0F9EE2472F582EF3462
:104C340000F583E8F0A3E9F0790180027900024DE0
:104C4400ACC082C08375D90275D90375D90575E1E5
:104C540095EA2470F582EB3400F583E0F8A3E0F9DB
:104C6400EA2472F582EB3400F583E8F0A3E9F079E5
:104C74000102435C74F6121A9EEAFEEBFF9008E010
:104C84007406F07508E07509087808121CB17C01F7
:104C94007903120FF97402121A5D75D90675D903D6
:104CA4007582E0758308E0F5D9A3E58264E57004B4
:104CB400E583640870F075E195900742E06408703C
:104CC4001EEE2470F582EF3400F583E0F8A3E0F9DA
:104CD400EE2472F582EF3400F583E8F0A3E9F0796D
:104CE40001024E7874F6121A9EEAFEEBFF9061D030
:104CF400E0706678019008E0740BF0900742E0647D
:104D04000770197508E07509087808121CB17C0150
:104D14007903120FF97402121A5D7805740128F5EB
:104D2400D975D9037582E0758308E8FAE0F5D9A34B
:104D34001AEA70F875E195EE2470F582EF3400F507
:104D440083E0F8A3E0F9EE2472F582EF3400F583F2
:104D5400E8F0A3E9F0790180027900024E7874F753
:104D6400121A9EEAFEEBFF75D90375D90375D90DA6
:104D7400EE24DEF582EF3400F583E0F5D975E19594
:104D84007904121113EE2470F582EF3400F583E0F8
:104D9400F8A3E0F9EE2472F582EF3400F583E8F02D
:104DA400A3E9F079018001F07F01021B7074F6120F
:104DB4001A9EEAFEEBFF9061D0E0F87480C398FA83
:104DC400EE2483F582EF3400F583E06004780480F8
:104DD400027800E8240BF8EAC3985003024E767D6B
:104DE400099008E0EDF0EE24E3F8EF3400F97AE1FD
:104DF4007B087C0888828983E08A828B83F088829E
:104E04008983A3A882A9838A828B83A3AA82AB8382
:104E14001CEC70E0EE2483F582EF3400F583E0604F
:104E24001D7508E07509087808121CB17C0979031E
:104E3400EEFAEFFB120FF97402121A5D7D0D740184
:104E44002DF5D975D9037582E07583088D08E0F5D1
:104E5400D9A31508E50870F675E1957904121113C4
:104E6400EE241DF582EF3400F583E4F0A3F079011C
:104E7400800279007F02021B7074F6121A9EEAFE09
:104E8400EBFF9061D0E0F87480C398FAEE2483F5C8
:104E940082EF3400F583E06004780480027800E84F
:104EA4002408F8EAC3985003024F7D7D069008E079
:104EB400740CF090075FE09008E1F07A607B07786B
:104EC400E279087C028A828B83E088828983F08A73
:104ED400828B83A3AA82AB8388828983A3A882A9B5
:104EE400831CEC70E07A627B077C028A828B83E00D
:104EF40088828983F08A828B83A3AA82AB83888287
:104F04008983A3A882A9831CEC70E0EE2483F58234
:104F1400EF3400F583E0601D7508E0750908780832
:104F2400121CB17C067903EEFAEFFB120FF974023E
:104F3400121A5D7D0A74012DF5D975D9037582E0C5
:104F44007583088D08E0F5D9A31508E50870F67592
:104F5400E1957904121113EE2470F582EF3400F513
:104F640083E0F8A3E0F9EE2472F582EF3400F583D0
:104F7400E8F0A3E9F0790180027900024E7874F632
:104F8400121A9EEAFEEBFF9061D0E0F87480C39899
:104F9400FAEE2483F582EF3400F583E060047804AC
:104FA40080027800E82404F8EAC398500302505CB5
:104FB40078029008E0E8F0EE24F5F582EF3400F58D
:104FC40083E09008E1F0EE2483F582EF3400F5836A
:104FD400E0601B7508E07509087808121CB17C02B2
:104FE4007903EEFA120FF97402121A5D780674014D
:104FF40028F5D975D9037582E07583088808E0F52A
:10500400D9A31508E50870F675E195EE2474F582C8
:10501400EF3400F583E4F0EE2480F582EF3400F5FC
:1050240083E4F0EE241DF582EF3400F583E4F0A36D
:10503400F07904121113EE240DF582EF3400F58398
:10504400E0F8A3E0F9EE2472F582EF3400F583E88A
:10505400F0A3E9F0790180027900024E7874F61227
:105064001A9E9061D0E0F87480C398FCEA2483F51A
:1050740082EB3400F583E06004780480027800E871
:105084002404F8ECC398405B79029008E07407F0BC
:10509400EA24F6F582EB3400F583E09008E1F0EAC7
:1050A4002483F582EB3400F583E060187508E0751D
:1050B40009087808121CB17C0209120FF974021253
:1050C4001A5D7906740129F5D975D9037582E075DD
:1050D4008308E9F8E0F5D9A318E870F875E1957943
:1050E4000180027900024E7874F5121A9EE9FCA23E
:1050F400AFE433F50AC2AF7D0080010DEA246FF5F9
:1051040082EB3400F583E0F8EDC398501A8D08EA79
:105114002508F8EB3400F9E8246BF582E93400F54E
:1051240083E06C70D68024EA246FF8EB3400F9E055
:10513400FEEA2EFAEB3400FBEA246BF582EB340032
:10514400F583ECF088828983E004F0E50AA2E0921A
:10515400AF7F03021B7074F6121A9EA2AFE433FDF4
:10516400C2AFEA246FF582EB3400F583E014F07CDF
:105174000060368C08EA2508F8EB3400F9E8246C62
:10518400F582E93400F583E0C0E0E8246BF582E9B8
:105194003400F583D0E0F00CEA246FF582EB3400A0
:1051A400F583E0F8ECC39840CAEA246EF582EB3448
:1051B40000F58374FFF0EA246AF582EB3400F5838A
:1051C400E4F0EDA2E092AF024E78C082C083E5A87D
:1051D400F8C2AFEA246BF582EB3400F583E9F0EA18
:1051E400246AF582EB3400F583E4F0E8A2E792AF99
:1051F40002435C74F3121A9EEAFEEBFFECFAEDFB39
:105204008A828B83A3A3A3A3E0541FF0EE2436F574
:1052140082EF3400F583E4F0F50AEEFCEFFD8A82B8
:105224008B83E0C0E0EC245DF582ED3400F583D09F
:10523400E0F0750B00E50A33333354F8F50C8A8239
:105244008B83E0F508750900E50B7808121A15E55B
:1052540008A2E0502FEE2436F8EF3400F988828952
:1052640083E0F508EE2508F508EF3400F509E508B4
:105274002438F582E5093400F583E50CF088828949
:1052840083E004F0050B050CE50BC3940840AF055F
:105294000A8A828B83A3AA82AB838C828D83A3AC7C
:1052A40082AD83E50AC3940550030252227F0502AE
:1052B4001B7074F7121A9E90076EE0640170077AEF
:1052C400007B0002542D7E00900774E070F174019D
:1052D400F0A3E4F0A3F09007D404F09007D7E4F02F
:1052E400A3F09007DA04F0900777E4F0A3F0A3F0BA
:1052F400A3F090078104F09007A7E4F090821012C5
:10530400193590078A12194190078EE4F0A3F0A38F
:10531400F09007F2F09007E6F09007DB7480F0A3BA
:10532400E4F09007E1F09007D9F090085DF0A3F065
:10533400A3F0A3F0A3F0A3F0A3F0A3F0900866F009
:105344009007F5F0900845F0A3F0908210121935FB
:1053540090084712194190821012193590084B1287
:105364001941900851E4F0900853F090084FF090E0
:105374000869F0A3F0A3F0A3F0A3F0A3F0A3F0A3B3
:10538400F0786E7907E8246FF582E93400F58374C8
:10539400FFF00E88828983A3A882A983EEC39404B4
:1053A40040E37A6E7B07787D790888828983E0C040
:1053B400E0EA2461F582EB3400F583D0E0F08882E2
:1053C4008983A3A882A9838A828B83A3AA82AB83BD
:1053D400E864827003E9640870D07A6E7B077855BC
:1053E400790788828983A3E0C0E0EA24E7F582EBA9
:1053F4003400F583D0E0F088828983A3A882A9834E
:105404008A828B83A3AA82AB83E8645D7003E96418
:105414000770CF90076EE004F0640170089007767F
:10542400E0900770F07A727B07024DACC082C083B3
:10543400900775E4F0900774F090076EF0A3F0A362
:1054440074FFF075E1F102435CC082C08378007997
:1054540000900775E060047872790788828983A3D5
:10546400A3A3A3E0F902435C74F6121A9EEAFEEBCE
:10547400FF8E828F83A3A3A3E0600F8E828F83A30A
:10548400A3A3E4F090076FE014F090076EE014F02B
:10549400700690077074FFF08E828F83A3A3E4F0EC
:1054A400900882E0700D90076FE064017005790048
:1054B4001210F5EE2465F582EF3400F583E0F8A3CD
:1054C400E0F9E8496029EE2465F8EF3400F988082A
:1054D40089098882F583E0FCA3E0FD900770E0FA77
:1054E4007B00120CC9850882850983E4F0A3F0EEE1
:1054F400FAEFFB121029024E7874F7121A9EEAFE94
:10550400EBFF8E828F83A3A3A3A3E0FA7B00120D8B
:105514000BEEFAEFFB120F7B121011024DACC0829E
:10552400C0837855790788828983A3E4F0888289C7
:1055340083A3A882A983E8645D7003E9640770E625
:1055440090075602488974F6121A9EEAFEEBFFECA5
:105554002403F8ED3400F988088909EC2407F8EDF0
:105564003400F9E8FCE9FD8C828D83E0F8A3E0F9CE
:10557400850882850983E0FAA3E0FB1219BCEE24B6
:105584000DF582EF3400F583E8F0A3E9F08C828D09
:1055940083E0F8A3E0F9850882850983E0FAA3E0B3
:1055A400FB1219BC8B09EA45096013EE240DF58240
:1055B400EF3400F583E02401F0A3E03400F0024E60
:1055C4007874F6121A9EEAFEEBFFEE242EF582EFB3
:1055D4003400F583E0FCA3E0FD780079FAECFAED01
:1055E400FB1219BCEE2470F582EF3400F583E8F069
:1055F400A3E9F0780079FAECFAEDFB1219BC8B09F7
:10560400EA45096013EE2470F582EF3400F583E077
:105614002401F0A3E03400F0024E7874F0121A9ED4
:10562400EAFEEBFF7410121A92780812191712107E
:10563400B38A0C8B0D8C0E8D0F9081AC780C1218E4
:105644008B9081C8780C1218F1780C121CAD8E82E4
:105654008F83E0F8A3E0F5838882A3A3121935129F
:10566400268A7404121A5DE9600302576C8E828FD5
:1056740083E02402F8A3E03400F9E8FAE9FB8A8223
:105684008B83780812189E9081C878081219178A9B
:10569400828B837808121904EE240BF582EF340010
:1056A400F583C082C0838E828F83A3A3A3A3A3E0C8
:1056B4002401F8A3E03400F9D083D082E0687003B9
:1056C400A3E0697005790102576E8E828F83A3A3CC
:1056D400A3A3A3A3A3E02401F0A3E03400F0EE24E9
:1056E40074F582EF3400F583E064017036EE2475BE
:1056F400F582EF3400F583E0F8A3E0F98E828F831E
:10570400A3A3A3A3A3A3A3E0687003A3E0697013F6
:10571400EE2475F582EF3400F583E02401F0A3E074
:105724003400F0EE2480F582EF3400F583E0640168
:105734007036EE2481F582EF3400F583E0F8A3E0BF
:10574400F98E828F83A3A3A3A3A3A3A3E06870030A
:10575400A3E0697013EE2481F582EF3400F583E051
:105764002401F0A3E03400F079007F08021B707478
:10577400F7121A9E900770E0F875F004A4C8AAF016
:105784002AF9747228FE740739FF8028EE2465F81C
:10579400EF3400F988828983E0FCA3E0FD888289E4
:1057A40083E4F0A3F08E828F83A3A3A3A3E0FA7B08
:1057B40000120CC9EE2465F582EF3400F583E0F89D
:1057C400A3E0F9E849604FEE2464F582EF3400F574
:1057D40083E0F5087808121CB5EE2463F582EF34F3
:1057E40000F583E0F9EE2465F582EF3400F583E0FB
:1057F400FCA3E0FDEEFAEFFB120FA57401121A5D93
:10580400E96089EE2465F582EF3400F583E0F8A3BE
:10581400E0F9E84970137C007D008E828F83A3A396
:10582400A3A3E0FA7B00120CC9024DAC74F2121A65
:105834009EEAFEEBFF890A740E121A92E0FAEE2435
:1058440062F582EF3400F583E0640160030258FCE2
:105854009061D0E0F87480C398F50CEE2483F5824F
:10586400EF3400F583E0600478048002780089084E
:10587400E928F8E43400F9E824020808E93400F9D6
:10588400E50C98E499A2D265D0334068EA700575B6
:105894000B028003750B01E060397509007808126A
:1058A4001CB17AE07B08120FDB7402121A5D7508D2
:1058B400E07509087808121CB1AC0AA90BEEFAEFDE
:1058C400FB120FF97402121A5D7404250AF50A7C9E
:1058D400E07D087401250AF5D9850BD9E50A600D28
:1058E4008C828D83F8E0F5D9A318E870F875E195FA
:1058F400790080067907800279FF7F06021B70C059
:1059040082C083E960208C828D83E08A828B83F05D
:105914008C828D83A3AC82AD838A828B83A3AA827B
:10592400AB8319E970E0ECFAEDFB02435C74EA1214
:105934001A9E907803E06442705E9008DFE014F0F1
:105944007056C2AF12594B00782AD0E0F618D0E056
:10595400F6E59F5407F970059081A4800390819423
:105964007808121917E9C4C0E07829E65508F50843
:1059740008E65509F509740B7808121A25D0E025B4
:1059840008F8906270E0A2E740F8E8C333906272CE
:10599400F0906270E0D2E0F0900770E0F4700302DF
:1059A4005D54E0F875F004A4C8AAF02AF9747228CA
:1059B400FE740739FFEE2402F582EF3401F583E02B
:1059C400F8A3E0F9E849601EEE2402F582EF340101
:1059D400F583E0FAA3E0FBEE2401F582EF3401F550
:1059E40083E0F91204A78E828F83A3A3A3A3A3A3A6
:1059F400A3E0F8A3E0F98E828F83A3A3A3A3A3E873
:105A0400F0A3E9F0906054E0900749F0906055E00D
:105A140090074AF0906056E090074BF0906057E092
:105A240090074CF0906058E090074DF0906059E07A
:105A340090074EF090605AE090074FF090605BE062
:105A4400900750F090605CE0FC900751F090605D2E
:105A5400E0FB900752F090605EE0FD900753F090F9
:105A6400605FE0FA900754F090074FE08C08250837
:105A7400F8E43400F98D08E82508F8E93400F98BD6
:105A840008E82508F8E93400F98A08E82508FAE95D
:105A94003400FBEE24F7F582EF3400F583E02AF0BE
:105AA400A3E03BF08C08EE24F9F582EF3400F58393
:105AB400E02508F0A3E03400F0EE24FBF582EF3497
:105AC40000F583E02401F0A3E03400F0EE24FFF5B8
:105AD40082EF3400F583E0F8A3E0F9E849604290EE
:105AE4006000E0C333FCE433FDE82CF582E93DF5C6
:105AF40083E02AF0A3E03BF0906000E0FA900751C5
:105B0400E0FCEAC333FAE433FBE82AF8E93BF9E8BA
:105B1400244AF582E93400F583E02CF0A3E0340054
:105B2400F090074FE07011900752E0700BA3E07003
:105B340007A3E07003025C348E828F83A3A3A3A324
