:020000040000FA
:0600000002011D02220BAB
:03002B00021E2E84
:0300530002227E08
:03006B00021E086A
:100083000220BFE5C754F84401F5C77901220000F7
:100093000080FB120086B90003020107E47921788E
:1000A30008B800028004F709D8FCE479297802B87B
:1000B30000028004F709D8FCE4900281785C790996
:1000C3008002F0A3D8FCD9FA781A90014D7A01BACC
:1000D30000028007E493A3F608DAF9900ADCAA8207
:1000E300AB8390014E786F79038015E493A3AC82C0
:1000F300AD838A828B83F0A3AA82AB838C828D83A8
:10010300D8E9D9E77582E87583B0740312012F75B6
:100113008291758300740012012F75D00075813FA1
:10012300751881751902759F00020096C09FF59F8F
:10013300E473D09F22D083D082C09FE493C0E07445
:100143000193C0E0740293F59F220101FFFF434D29
:10015300204852204D6F6E69746F720000000000DA
:1001630000000002010603020D180708434D5F4813
:10017300524DF8030000FE030A041004FFFFBB0006
:100183001264023F820100002A82023B82010000C6
:10019300110B025D82010000120B02398203000081
:1001A3005204020202023F820100002D82023B82BE
:1001B300010000330B0257820100005A04023B8204
:1001C300010000340B0255820100001181023B82C1
:1001D300010000350B0253820100002C8110020242
:1001E3007D00020A023F820100003082023B82014D
:1001F30000006E0B10D180000000640402398203FA
:1002030000006504023B820100006F0B10E18001D6
:1002130000006B04023B82010000700B10F18001AF
:100223000000710B023B82010000730B10818001FF
:1002330000006D04023B82010000740B10C18003B7
:1002430000006E04100208023F82010000368202A1
:100253003B82010000D50B024B82000000710402B7
:1002630039820300007204023B82010000D60B02B4
:1002730049820100007804023B82010000D70B028F
:100283006182020000790401E803053F10FF0001C9
:1002930030750302010600000000000000000000AA
:1002A300000000000000000000000000000000004B
:1002B3000000FFFF0600800CE803FF0000B400000D
:1002C30028002800283075A000A000A000A000008E
:1002D300080008E001F000100010001000100010EA
:1002E30000100050005000500010001000D0070014
:1002F30000000000000F000100050030750700102A
:1003030000010081FF0000FF460A640A4C0AFF0255
:10031300020208025000A0000000E803023F82012D
:1003230000002782023B82010000A00C02458201EB
:1003330000003306023B82010000A10C0247820148
:1003430000004906023B82010000A20C0263820105
:1003530000004B06023B82010000A30C024F8208FF
:1003630000004C06023B82010000A40C02518201F2
:100373000000A50CFF0100FF20023F8201000024C2
:1003830082023B82010000090D025B820000000033
:100393000002398203000099061C101C101C101C5B
:1003A300101C101C101C101C101C101C101C101CEA
:1003B300101C10AA12C212A4121201385A8B031273
:1003C3000138718B03120138988B03120138CC8BDF
:1003D30003120138F08B03120138028C0312013827
:1003E300B98C03120138FE8D0312013829E0021281
:1003F3000138C3E2021201387BE30212013820E420
:100403000212013867E40212013880E40212013853
:10041300CCE4021201387AAE03120138DAAE0312C9
:100423000138479E031201387B9E03120138929EC6
:10043300031201389A9E03120138AD9E031201384C
:10044300C89E031201380D9F031201381B9F03122C
:1004530001386A9F03120138779F031201387CD554
:100463000212013886D502120138C7D502120138AB
:1004730010D6021201384AD602120138A0D602124F
:100483000138C1D602120138CAD6021201381ED76A
:100493000212013847D70212013851D7021201382C
:1004A300BFD7021201384FD802120138AAD802125C
:1004B3000138D8D80212013860D9021201389FD905
:1004C30002120138D4D902120138E6D902120138D6
:1004D30005DA021201380EDA02120138D5DA0212F5
:1004E300013889B003120138C8A9031201383BA0AF
:1004F3000312013871A003120138A5A003120138B9
:10050300F2A103120138E4AD03120138FAAD03126C
:10051300013804AE031201384EAE031201386FEEF8
:100523000212013882EE0212013843EF021201383F
:1005330082EF021201389FEF02120138D8EF021244
:10054300013825F00212013857F0021201388EF0FB
:100553000212013897F202120138BFAA03120138BE
:10056300E2AA0312013811AB0312013853AB031291
:100573000138BDB60212013878BC0212013848BDF9
:1005830002120138B1BD02120138D7BE021201387E
:1005930058F702120138D3F7021201381DF802127C
:1005A300013842F90212013857FA02120138D9FA16
:1005B30002120138109503120138559503120138C0
:1005C3006A9503120138C495031201384E9603123B
:1005D3000138F9960312013830970312013830A716
:1005E3000312013855A70312013885A703120138F6
:1005F300DB8E03120138208F03120138338F03126D
:1006030001387F8F03120138C78F0312013804901A
:1006130003120138DE9003120138DD910312013811
:10062300CF9903120138149A03120138279A03123F
:100633000138439A03120138819A03120138F09A60
:1006430003120138DA9B0312013840B10312013857
:10065300668201120138448401120138E3850112D4
:1006630001388E86011201380E87011201389387F3
:1006730001120138BC8701120138978B011201382E
:100683000E8C01120138258D011201385F8D011284
:100693000138A08D01120138E78E011201383D8F18
:1006A30001120138868F01120138F58F01120138CA
:1006B300619001120138929001120138AA9001123F
:1006C3000138C39101120138D39101120138899382
:1006D30001120138A09301120138D293011201389B
:1006E30074950112013808960112013873AC031294
:1006F30001387FAC031201381CAD0312013896B1E7
:1007030003120138D5B10312013840B20312013884
:100713002EAD031201383EAD031201384DAD031265
:100723000138DEAD03120138E77E001201386C7F19
:1007330000120138D07F00120138EC7F001201381B
:100743002AB2031201383AB2031201383DB203123E
:100753000138F87F00120138139C031201389D9D64
:1007630003120138FE9D03120138449E031201381F
:1007730015B00312013842B00312013858B0031206
:10078300013898A503120138EAA5031201385DA6C2
:1007930003120138CAA603120138889703120138DD
:1007A300B297031201388198031201385D9903123D
:1007B30001381DBF02120138E9BF021201382AC0F5
:1007C3000212013864C002120138C2C00212013899
:1007D30016C10212013874C1021201380AC2021290
:1007E300013812C3021201389CC4021201383AC5FF
:1007F30002120138A1C502120138B4C50212013830
:10080300A8C602120138F1C602120138ADF0011276
:100813000138DFF30112013870F501120138C7F511
:1008230001120138E4F50112013864F601120138AE
:10083300E0F701120138AFF8011201381CFC011274
:10084300013806FD01120138E5A303120138FCA3A8
:10085300031201382BA40312013864A403120138D4
:100863008CA403120138BAA403120138D1A40312D1
:100873000138E8A403120138FEA40312013825A5A8
:100883000312013838A5031201384EA503120138AB
:1008930061A50312013886A50312013811A40212BF
:1008A300013810A50212013845A50212013866A5C8
:1008B3000212013876A50212013897A502120138F7
:1008C300A3A60212013870A702120138E3A702128D
:1008D300013869A802120138ACA802120138E3A852
:1008E3000212013869A9021201383BAA0212013827
:1008F30099AA02120138B1AA021201382BAB0212D3
:1009030001382EAB0212013831AB02120138D8ABD9
:1009130002120138F0AB0212013820AC0212013886
:1009230040AC021201382EAD02120138E4AD0212BE
:100933000138C7E902120138EFE9021201381DEA52
:100943000212013854EA02120138BCEA02120138D9
:1009530005EB0212013850EB021201388EEB021242
:100963000138CBEB02120138F9EB02120138A0EC8B
:1009730002120138AAEC02120138B7EC0212013854
:10098300EAEC02120138ACED02120138B8ED0212A2
:100993000138D0ED02120138DAED021201389CABB6
:1009A30003120138AAAB03120138C2AB0312013898
:1009B300DAAB03120138F7A90112013895AA011223
:1009C30001380DAB0112013822AC011201385CACC5
:1009D3000112013805AD01120138DAAD01120138F7
:1009E3003EAF0112013895AF011201381CB001125C
:1009F300013803B10112013850B101120138DEB1DF
:100A03000112013802B201120138D7B301120138C1
:100A130018B4011201383AB401120138BBB40112FF
:100A23000138A5B5011201386BB60112013870CE39
:100A33000212013842CF02120138EBCF0212013801
:100A43002ED002120138BBD00212013847D1021254
:100A5300013828D20212013857D20212013853D377
:100A6300021201389BD3021201389DD402120138BD
:100A7300E1D40212013807D5021201380FAF031275
:100A83000138EC83031201380284031201382884ED
:100A9300031201385085031201385A8503120138B5
:100AA300B38603120138B3870312013803DB021242
:100AB300013838DC021201386BDC02120138B5DC74
:100AC3000212013873DE021201388A6F00120138F4
:100AD300ED6F0012013832710012013842710012B9
:100AE3000138657100120138B07100120138557276
:100AF300001201384B7300120138157400120138CB
:100B03008D7500120138CF75001201386D76001211
:100B13000138BA7600120138E07600120138CE7837
:100B230000120138D37800120138B47A0012013868
:100B3300087B001201386A7B00120138927B001295
:100B43000138367C00120138F87C00120138297D07
:100B5300001201382C7D00120138747D0012013817
:100B6300B67D001201381D7E001201389CFD011272
:100B73000138AFFD01120138C8FD0112013813FE1F
:100B830001120138EEFE011201387DFF0112013816
:100B9300C8FF011201381029001201381C29001264
:100BA30001385529001201389A2900120138512AB7
:100BB30000120138D72A00120138032B0012013822
:100BC3003C2B00120138502D001201382C2F00123B
:100BD30001381731001201384E3200120138AE3499
:100BE300001201389A3500120138E036001201383C
:100BF300ED37001201380A3800120138423800126A
:100C030001385C3800120138C438001201385E3DE7
:100C130000120138FF3D00120138503E0012013826
:100C2300773E00120138C53E00120138E33E001240
:100C33000138373F001201383F4000120138C740E6
:100C4300001201381DE50212013827E502120138AE
:100C5300F2E5021201380DE60212013833E6021200
:100C6300013877E602120138AFE602120138D8E6FE
:100C73000212013851E70212013866E70212013805
:100C83007BE702120138B2E702120138C6E702120B
:100C93000138F7E70212013831E8021201385DE842
:100CA30002120138B3E80212013807E902120138CF
:100CB30050E9021201387AE9021201389FE902125F
:100CC3000138008003120138CA8003120138AD8154
:100CD300031201382382031201386582031201389B
:100CE3009283031201380080021201382980021214
:100CF300013842800212013887810212013865826D
:100D0300021201388482021201381183021201385F
:100D1300548302120138A184021201384085021261
:100D23000138BF87021201385688021201382A8916
:100D3300021201380C8A02120138788B0212013830
:100D43000B8C02120138B3A8031201381CA9031239
:100D5300013870A90312013897A90312013803F36C
:100D63000212013870F302120138BBF30212013888
:100D7300B0F402120138ACF50212013896F60212F1
:100D830001384FAE0212013891AE021201386BAF37
:100D93000212013844B0021201383FB10212013885
:100DA3001EB2021201388AB20212013851B3021282
:100DB3000138BCB30212013823B4021201384EB415
:100DC30002120138BFB40212013852B502120138BF
:100DD300BBB502120138D0B50212013818B602129F
:100DE300013831B60212013896B60212013899B6AB
:100DF300021201381692031201383E92031201388F
:100E03007C92031201383A9303120138A59303121B
:100E13000138C19303120138E9930312013819947D
:100E230003120138289403120138A29403120138E3
:100E3300C894031201381EC701120138FBC80112FE
:100E43000138F6CA01120138C9CB0112013814CC9A
:100E5300011201385FCC0112013871CC0112013843
:100E6300B1CC01120138E6CC0112013832CD0112A6
:100E7300013861CD0112013884CD01120138D1CD81
:100E8300011201385ACE0112013867D0011201381C
:100E930052D20112013895D201120138FAD301124C
:100EA30001383BD401120138AED401120138FAD40F
:100EB3000112013825D501120138828C0212013842
:100EC300AD8C02120138949302120138B8950212C4
:100ED3000138739702120138D098021201382E415B
:100EE30000120138C54100120138F24100120138E5
:100EF3003842001201387743001201380E450012C0
:100F03000138884500120138A345001201381846FC
:100F130000120138474700120138A2480012013875
:100F2300A44900120138014B001201381A4B001278
:100F33000138774B00120138594C001201388C4CA0
:100F430000120138FC4C00120138764D00120138B2
:100F5300C54D00120138914E00120138964F001210
:100F630001387550001201380051001201386E51DA
:100F730000120138E251001201380B5200120138FD
:100F8300CA5200120138445400120138615400124D
:100F930001388054001201381155001201383655BA
:100FA300001201385E5500120138D955001201387C
:100FB3003356001201388757001201384458001283
:100FC30001381759001201384FD5011201389FD546
:100FD30001120138ABD50112013888D6011201384C
:100FE300B8D601120138F0D6011201386FD70112B9
:100FF3000138A7D701120138F9D70112013836D8C1
:10100300011201385BDA0112013887DC0112013861
:1010130082DE011201385DE001120138E97F00121E
:1010230001384696011201389096011201386F9CDF
:1010330001120138F09D011201384FA40112013849
:101043004AA50112013887A501120138AAA5011288
:101053000138ECA501120138F5A501120138FFA5ED
:1010630001120138EBA601120138DFA70112013882
:10107300455900120138BD6300120138C3630012E1
:101083000138CF6A00120138BD8703120138538833
:1010930003120138698803120138E3880312013807
:1010A300398903120138778903120138D48903126D
:1010B3000138518A031201385A8A03120138668AA9
:1010C30003120138798A03120138B58A03120138F1
:1010D300CB8A031201382A8B03120138AAFB0212AE
:1010E3000138B7FB02120138D1FB0212013810FCA0
:1010F300021201384EFC02120138B3FC021201380D
:10110300C8FC02120138D3FC02120138E0FC0212BF
:101113000138F7FC0212013805FD0212013810FDF7
:10112300021201381CFD021201382BFD0212013894
:1011330036FD0212013859FD0212013802FE021275
:10114300013812FE021201382CFE0212013849FE48
:101153000212013865FE021201388AFE02120138BA
:1011630094FE02120138A8FE02120138C7FE0212D1
:10117300013828FF021201382EFF0212013834FF12
:10118300021201383AFF0212013846FF02120138F7
:1011930079FF0212013823E301120138A5E301129A
:1011A30001384EE40112013896E501120138A4E733
:1011B300011201388AE801120138BFE8011201382F
:1011C300E1E8011201388AE9011201385AEB0112F0
:1011D300013883EB01120138FBEB011201382DECCE
:1011E300011201383AEC0112013885EC0112013881
:1011F300A9EC01120138FAEE0112013804F00112D0
:10120300013860F001120138A0B801120138B1B9F8
:101213000112013895BA011201389FBA011201383F
:10122300C1BA01120138CDBA0112013871BC0112E1
:1012330001389EBC01120138B4BD0112013809BE48
:101243000112013858BF011201382DC001120138B3
:1012530089C001120138F4C00112013829C10112F9
:1012630001386CC10112013836C4011201384EC471
:1012730001120138DFC401120138EDC40112013833
:101283003AC50112013848C501120138B4C501122B
:1012930001382FC60112013886C601120138F398AE
:1012A30002120138159902120138269B02120138E5
:1012B300E59D021201380F9F02120138CD9F0212E1
:1012C3000138B9A0021201382CA20312013851A22D
:1012D30003120138C7A20312013853C7021201389F
:1012E3005CC70212013865C7021201383DC80212F9
:1012F3000138EEC9021201381ECA0212013849CA66
:101303000212013879CA02120138A4CA0212013842
:10131300D8CA0212013804CB0212013847CB021299
:10132300013872CB02120138B9CB021201380ECC4C
:101333000212013850CC02120138AACC0212013831
:10134300D5CC0212013824CD0212013854CD021239
:1013530001387FCD02120138ADCD02120138D0CD54
:101363000212013898AF03120138C4AF03120138D7
:10137300F1AF03120138FBAF031201380BB00312B4
:101383000138DFB1031201380CB203E066701008B4
:10139300A3E066700A08A3E066700408A3E066226F
:1013A300C008C3E096F50808A3E096420808A3E046
:1013B30096420808A3E0964208A2D265D033E50816
:1013C3007001D3D00822C3E7960809E7960809E716
:1013D300960809E79622C3E09608A3E09608A3E0DF
:1013E3009608A3E09622C008C3E096F50808A3E098
:1013F30096420808A3E096420808A3E096450870C1
:1014030001D3D00822080808E630E7111218431266
:101413001420080808C64480C6181818221818187B
:10142300E9799EC608CAC608CBC608CCC6C37020D5
:101433007996CACBCC7019798ECBCC70137986CCC4
:10144300700EF9802ACA33CACB33CBCC33CC3319D1
:1014530030E7F2CCCBCA3350147004EA30E00DE429
:10146300CA3ACACB3BCBCC3CCC500209C3E913C626
:10147300CC182313C6CB18C6CA18C6F9221214C037
:1014830020F01430E72B74FFFCFBFA747F8022E416
:10149300FCFBFA7480801AB48008BC00F2BB00EF36
:1014A300800F50EBF9E4C39AFAE49BFBE49CFCE461
:1014B30099C6CC18C6CB18C6CA18C6F922E4C9C641
:1014C30008CAC608CBC6D3330308CCC63392F0C3CD
:1014D300947F402E94184019C9B90704CACBCC2273
:1014E3005025C309CA33CACB33CBCC33CC33D9F45D
:1014F30022F4600DC9CCC313CB13CBCA13CAD9F6DC
:10150300CC22E4FCFBFA2214FCFBFA22E6C33318D8
:10151300461846184622E7C3331947194719472285
:10152300181818E6084608700AE608C3337005E67B
:1015330033F4220822191919E7094709700AE70940
:10154300C3337005E733F4220922E6084608C313C0
:101553004608336002E633F422E7094709C3134719
:1015630009336002E733F4220012154D604F121560
:101573005C6012E7548066F6121523701112151978
:10158300703B090909F4F618F618F618F622121535
:1015930038701512150F08080860EAE6447FF6183C
:1015A300768018E4F618F62212150F601612151934
:1015B3007012E4F608F608F608E65480F6090909FD
:1015C30018181822EAC0E0EBC0E0ECC0E0EDC0E080
:1015D300E687F0A4FBACF008E687F0A42CFCE43526
:1015E300F0FA1809E687F0A42C4B60027401CA359F
:1015F300F0FCE433FB09E687F0D2F7A42CCB35F0FB
:10160300FC1908E687F0A42BCC35F0FBE433FD0886
:1016130019E687F0D2E7A42C4ACB35F0CD3400FC91
:1016230009E687F0D2E7A42DCC35F0FDE433FA09BF
:1016330018E687F0D2F7A42CCD35F0CA3400FC08A5
:10164300E687F0D2E7D2F7A42ACC35F07A7E20E7FA
:101653000B0ACB33CBCD33CDCC33CC33CB3350147C
:101663007004ED30E00ED2F1E4CD3DCDCC3CCC3B6B
:101673005005DA05C2F1EB547FC63308E63392F026
:10168300FBE73309E733C39A502D2B70190C0D4C2C
:101693004D70151806E608C333700D20F10AA2F049
:1016A30013F6E418800B4024E4F630F00276801839
:1016B300F618F618F68024D33B14501074FFA2F0EA
:1016C30013F6187680E418F618F6800FA2F013F6D6
:1016D30018E63303F618ECF618EDF6D0E0FDD0E08B
:1016E300FCD0E0FBD0E0FA22080808EAC0E0EBC037
:1016F300E086F0E7A4FA180986F0E7A42AFA1809A5
:1017030086F0E7A42AFA180986F0E7A42AFA1986CC
:10171300F0E7A4FBE5F02AFA190886F0E7A42BFB0F
:10172300E5F03AFA190886F0E7A42BFBE5F03AFA5C
:1017330018180986F0E7A4C5F02BFBE43AFA190858
:10174300E7C5F0C6A426F6E5F03BFBE43AFA1886B3
:10175300F0E7A4F6E5F00826F6E43B08F6E43A08D9
:10176300F6D0E0FBD0E0FA22E4CFC0E0E4CEC0E064
:10177300E4CDC0E0E4CCC0E075F020C3E633F60866
:10178300E633F608E633F608E633F6181818EC33B2
:10179300FCED33FDEE33FEEF33FFC3EC9709ED971A
:1017A30009EE9709EF97191919400FFFEC97FC09F8
:1017B300ED97FD09EE97FE191906D5F0BEECF70972
:1017C300EDF709EEF709EFF7191919D0E0FCD0E0AE
:1017D300FDD0E0FED0E0FF221218461818181217A9
:1017E3006B1218321919192212183219191908080B
:1017F30008E618181820E7E012176B121846181895
:101803001822090909E719191920E7DC080808E66D
:1018130018181820E70302176B1218461818181225
:10182300176B12184618181812183219191922E4CE
:10183300C397F709E497F709E497F709E497F722C1
:10184300181818E4C396F608E496F608E496F60822
:10185300E496F6226016080808C6C313C618C61312
:10186300C618C613C618C613C6D5E0EA22700908FF
:101873000808226016181818C6C333C608C633C62C
:1018830008C633C608C633C6D5E0EA22E627F608FB
:1018930009E637F60809E637F60809E637F622E0DF
:1018A30026F608A3E036F608A3E036F608A3E036EA
:1018B300F622E026F008A3E036F008A3E036F008AD
:1018C300A3E036F022C3E697F60809E697F608097F
:1018D300E697F60809E697F622C3E0C696F608A34C
:1018E300E0C696F608A3E0C696F608A3E0C696F609
:1018F30022C3E096F008A3E096F008A3E096F00870
:10190300A3E096F022E056F608A3E056F608A3E01B
:1019130056F608A3E056F622E056F008A3E056F088
:1019230008A3E056F008A3E056F022E0F608A3E08F
:10193300F608A3E0F608A3E0F622E6F008A3E6F033
:1019430008A3E6F008A3E6F022E0FAA3E0FBA3E095
:10195300FCA3E0FD22EAF0A3EBF0A3ECF0A3EDF08F
:1019630022CAC0E0E6F0A308DAFAD0E0FA22CAC03D
:10197300E0E0A3C582CCC582C583CDC583F0A3C5F2
:1019830082CCC582C583CDC583DAE6D0E0CA22C343
:10199300E498F8E499F91219D38026C3E49AFAE497
:1019A3009BFBE920E7E91219D3E498F8E499F922BB
:1019B300C3E498F8E499F91219D3E498F8E499F98F
:1019C300C3E49AFAE49BFB22EB20E7CFE920E7E0AC
:1019D300B90010BB0008E88AF084F8AAF022E4FBFF
:1019E300C8FA22EB70227B10C833C8C933C93350FD
:1019F30007C39AC3DBF280069A50012ADBEAC83395
:101A0300F4C8C933F4C9FA2275F008E4C833C8C965
:101A130033C933C99AC99B5004C92AC93BD5F0ECD1
:101A2300FBC833F4C8E4C9FA22600D08C6A2E71361
:101A3300C618C613C6D5E0F322600C08C6C313C686
:101A430018C613C6D5E0F422700422600D18C6C36D
:101A530033C608C633C6D5E0F41822251810AF08DC
:101A6300F518400215198008F51840021519D2AF70
:101A730022C0D0251810AF08F518500205198008A8
:101A8300F51850020519D2AFD0D0222518F58210CF
:101A9300AF08F518400215198008F518400215190A
:101AA300D2AF851983222518F582E43519F58322EF
:101AB300E4732518C582C0E0E51934FFC583C0E08F
:101AC300E518C3958224F810AF0885831985821819
:101AD3008008858319858218D2AFCEF0A3E520F064
:101AE300A37808E608F0A3DEFAEFF0A3E58124FA71
:101AF300F8E608F0A3E608F0A3E608F0A30808E672
:101B030008F0A3E608F0A315811581D0E0FED0E02C
:101B1300F8158115811581E8C0E0EEC0E022251893
:101B2300C582C0E0E51934FFC583C0E0E518C3955D
:101B33008224F910AF08858319858218800885836C
:101B430019858218D2AFCEF0A3E520F0A37808E67A
:101B530008F0A3DEFAEFF0A3E58124FBF8E608F032
:101B6300A3E608F0A30808E608F0A3E608F0A31527
:101B7300811581D0E0FED0E0F815811581E8C0E041
:101B8300EEC0E022851983851882E0A3FEE0A3F569
:101B9300207808E0A3F608DFFAE0A3FFE0A3C0E0A3
:101BA300E0A3C0E0E0A3C0E0E0A3C0E0E0A3C0E0A6
:101BB30010AF08858218858319800885821885836C
:101BC30019D2AFD083D0820201358519838518825B
:101BD300E0A3FEE0A3F5207808E0A3F608DFFAE02F
:101BE300A3FFE0A3C0E0E0A3C0E0E0A3C0E0E0A364
:101BF300C0E010AF08858218858319800885821894
:101C0300858319D2AFD083D08222C0D02518C58254
:101C1300C0E0E51934FFC583C0E0E518C39582240D
:101C2300F310AF0885831985821880088583198589
:101C33008218D2AFC8F0A3E9F0A3EAF0A3EBF0A3B4
:101C43007908E709F0A3D8FAECF0A3EDF0A3EEF0DE
:101C5300A3EFF0A3D0E0F0A3D0E0F0A3D0E0F0A393
:101C6300E520F0A3E5F0F0A322851983851882E02F
:101C7300C0E0A3E0F9A3E0FAA3E0FBA37808E0F651
:101C830008A3DFFAE0FCA3E0FDA3E0FEA3E0FFA3CB
:101C9300E0C0E0A3E0C0E0A3E0F5D0A3E0F520A31B
:101CA300E0A3F5F010AF08858319858218800885B5
:101CB3008319858218D2AFD082D083D0E0F8D0E0E8
:101CC3003274048006740280027401C0E0F40412CA
:101CD3001A8ED0E012196422740480047402800006
:101CE300CCC0E0EDC0E0E518C39CCCAD1950011D9C
:101CF30010AF068C188D1980068C188D19D2AF126F
:101D03001971D0E0FDD0E0FC22D083D082E9C0E09D
:101D1300E493A3C386F0C5F095F0F908E493A38692
:101D2300F0C5F095F0700BE493A3C3994005E90463
:101D33008002A3E475F002A42582F582E5F03583E1
:101D4300F583D0E0F9E493A3C0E0E493C0E022D0AC
:101D530083D082ECC0E0EDC0E0E493A3FCE493A362
:101D6300FDED4C600D121D9EEC24FFFCED34FFFDD8
:101D730080EFE493A3FCE493A3FDED4C600D121DEF
:101D8300DDEC24FFFCED34FFFD80EFD0E0FDD0E07F
:101D9300FCE493A3C0E0E493C0E022C0E0C3E49377
:101DA30096087401939618400FE4936670080874BC
:101DB3000193661870007019A3A3C3E49396087483
:101DC30001939618A3A3400DD0E0D0E0D0E0021D0C
:101DD3008EA3A3A3A3A3A3D0E022C0E0C0F088F006
:101DE300E4936670080874019366187000A8F0A362
:101DF300A3700BD0F0D0E0D0E0D0E0021D8EA3A3FF
:101E0300D0F0D0E022C0E074F2121C0DA2AFE43394
:101E1300FEC2AFE589A2E150085389FDC2C5120491
:101E230058EEA2E092AF7F01021C6CC0E0C0D0E884
:101E3300C0E0E5A8D2AFC2C7751A00A2E792AFD03F
:101E4300E0F8D0D0D0E03274F5121B21EAFEEBFFAC
:101E5300EE2434F8EF3400F988088909EE2435F5C7
:101E630082EF3400F583E0F8EE2437F582EF340097
:101E7300F583E0F50AEC850AF0A4FCAAF0850AF0E4
:101E8300EDA42AFDE82CF8E43DF97A257B0012192C
:101E9300D3EA850882850983F05407F87401B800F2
:101EA300028004C333D8FCC0E0E0131313541FF8BB
:101EB300EE28F8EF3400F9E8245DF582E93400F503
:101EC30083D0E0F8E0586008EE2434F582EF801EFA
:101ED300EE2436F582EF3400F583E0F5F0EA84A8CA
:101EE300F0EE28F8EF3400F9E82438F582E93400FD
:101EF300F583E0F97F04021BCD74F5121B21EAFE82
:101F0300EBFFEE2434F582EF3400F583E0C0E0EE1E
:101F13002435F582EF3400F583D0E0F08E828F8391
:101F2300A3A3A3A3A3A3A3C082C0838E828F83A3EF
:101F3300A3A3A3A3E0F8A3E0F9D083D082E0C398DE
:101F4300F508A3E099F509EE2480F582EF3400F556
:101F530083E064017069EE2481F582EF3400F58338
:101F6300E0F8A3E0F98E828F83A3A3A3A3A3A3A383
:101F7300E0FCA3E0FD8E828F83A3A3A3A3A3E0FAD7
:101F8300A3E0FBC3EA9CEB9D5027C3EC98ED99407B
:101F93002EC3EA98EB9950277C7E7D08EEFAEFFB7F
:101FA300120F7AEE2480F582EF3400F583E4F0809B
:101FB3000EC3EA98EB9940E0C3EC98ED9950D9EE43
:101FC3002434F8EF3400F9E8FCE9FDEE2435F5821A
:101FD300EF3400F583E0F8EE2437F582EF3400F5B3
:101FE30083E0F50AE508850AF0A4F508AAF0850A56
:101FF300F0E509A42AF509E82508F8E43509F97A92
:10200300257B001219D3EA8C828D83F05407F87470
:1020130001B800028004C333D8FCC0E0E0131313FB
:10202300541FF8EE28F8EF3400F9E8245DF582E94F
:102033003400F583D0E0F8E0586008EE2434F582EC
:10204300EF801EEE2436F582EF3400F583E0F5F0E1
:10205300EA84A8F0EE28F8EF3400F9E82438F58292
:10206300E93400F583E0F91228F9021EF7C082C0B3
:1020730083851882851983E0F8A3E0F9C3EA9CEB12
:102083009D5012C3EC98ED994019C3EA98EB99500F
:102093001279018010C3EA98EB9940F5C3EC98EDEF
:1020A3009950EE7900D083D08222EAC39CFAEB9D4B
:1020B300FB220000008521878522C622C0E0C0D014
:1020C300E8C0E0E9C0E0EAC0E0EBC0E0ECC0E0ED6E
:1020D300C0E0C008C009C00AC00BC082C083C0F002
:1020E300759B00906182E0A2E6400302219DE59189
:1020F300A2E6400302219D7591BF900743E064056A
:1021030070081210B21210BE80031210B8752100AD
:10211300121118E9900744F0790012110C120EF015
:102123007A017B00900742E0F91204B8907803E04B
:10213300644260030221E69008E0E014F0600302C9
:1021430021E6C2AF12214A00782AD0E0F618D0E087
:10215300F6E59F5407F970059081B480039081A43C
:10216300780812192EE9C4C0E07829E65508F50865
:1021730008E65509F509740B7808121A3CD0E025D6
:1021830008F8906270E0A2E740F8E8C33390627207
:10219300F0906270E0D2E0F08049E0A2E55024E5DF
:1021A30091A2E5501E7591DF900743E0640D701313
:1021B300900765E004F064287002E4F07A00E0F927
:1021C30012118A906181E0A2E35009E5E9A2E3508C
:1021D3000375E9F7A3E0A2E75009E591A2E75003ED
:1021E30075917FD0F0D083D082D00BD00AD009D0A4
:1021F30008D0E0FDD0E0FCD0E0FBD0E0FAD0E0F97D
:10220300D0E0F8D0D0D0E032C0E0C0D0C082C083EC
:10221300906183E0A2E05009E5BFA2E0500375BFDF
:10222300FEE0A2E15009E5BFA2E1500375BFFDE066
:10223300A2E25009E5BFA2E2500375BFFBE0A2E3AF
:102243005009E5BFA2E3500375BFF7E0A2E45009CC
:10225300E5BFA2E4500375BFEFE0A2E55009E5BF77
:10226300A2E5500375BFDFE0A2E65009E5BFA2E691
:10227300500375BFBFD083D0828088C0E0C0D0E850
:10228300C0E0E9C0E0EAC0E0EBC0E0ECC0E0EDC0D4
:10229300E0C0F0E5A7A2E6500FE5A1A2E65009537E
:1022A300A7BF75A1BF1222E3E5A7A2E5500CE5A1E4
:1022B300A2E5500653A7DF75A1DFE5A7A2E1500908
:1022C300E5A1A2E1500375A1FDE5A7A2E2500CE54B
:1022D300A1A2E2500653A7FB75A1FBD0F00221F4A3
:1022E30074F8121B21752101900743E064067015F1
:1022F3001210468A828B83A3A3A3A3A3A3E0FAA30A
:10230300E0FB1210A0A2AFE433FED2AF900749E086
:10231300640170187A207B00900742E0F9120542AD
:102323007A207B00900742E0F91204BE906182E0BC
:10233300D2E6F09008DFE0602185C6228016900780
:1023430048E064017008E5C654F84405F5C653BE79
:10235300FC1220B87401652160E4EEA2E092AF7F25
:1023630001021BCD008E238F248582288583278538
:102373001882851983E0CEA3E0CF85288285278341
:10238300EBC9EAC8EDCBECCA75F010C3E833C8E972
:1023930033C9EA33CAEB33CBC3EA9EF526EB9FF589
:1023A30025B35004AB25AA26EC33CCED33CDD5F0C1
:1023B300DAAE23AF242274EB121B2174FA121A5ED5
:1023C3008A088B098C148D15900743E024F7C39476
:1023D30005500690820C02251B1210468A0A8B0BAD
:1023E300AE0AAF0BEE4F7003022518AC08AD09859A
:1023F3001882851983AA82AB831210D08E828F83B1
:10240300A3A3780812192E9081D878081219088589
:102413001882851983780C12192E9081D8780C12A2
:1024230019087808790C1213C9501F7808790C120F
:1024330018C890817478081213E9404785081085FD
:102443000911850A12850B138041850C10850D1126
:10245300850E12850F13781079081218C8908174AD
:1024630078101213E9501C751000751100751200D5
:102473007513017810790C1218C87810790812189E
:102483008F800890820C781012192E74097810121C
:102493001870908178780812192E7810790812171D
:1024A3006B8E828F83A3A3A3A3A3A3E0F8A3E0F976
:1024B3007AD07B031219D388088909E4F50AF50B4E
:1024C3007810790812188F7404121AA9E0F8A3E09F
:1024D300F97AD07B031219D3E8FA8A08E4F509786C
:1024E3001079081213C95007781079081218C89088
:1024F3000743E06408600AE064066005E064057071
:102503001C90817C78101213E9501290818078100E
:102513001218A28008908220781012192E85148236
:10252300851583781012193D7406121A747F0E02F2
:102533001BCD74F7121B211210E29008DDE0640139
:102543007010906245E4F0A3F053F4F343FE0C5390
:1025530090F312108EE5C654804449F5C6E59E54A7
:102563007F644970F8906185740FF09008DBE0F4A4
:102573007002A3E0604E9008DCE0600814601B1456
:10258300602E80407508017509009008DBE078082B
:10259300121A4BE508F45280802A75080175090068
:1025A3009008DBE07808121A4BE508F45290801487
:1025B3007508017509009008DBE07808121A4BE5ED
:1025C30008F452A079007F02021BCD74F7121B217D
:1025D300E9FEEAFF74016E700C7A807B009007427B
:1025E300E0F91204B8902908E493F46008E493F93D
:1025F300120EE4800953C680E59E547F70FA1210D0
:10260300949008DDE064017003120EFC9008DBE097
:10261300F47002A3E0604B9008DCE0600814601AD9
:1026230014602C803D7508017509009008DBE07883
:1026330008121A4BE50842808028750801750900C5
:102643009008DBE07808121A4BE508429080137576
:1026530008017509009008DBE07808121A4BE508B9
:1026630042A01210E21210468A088B09A808A90991
:10267300E8496015E5E170FCE82414F582E93400CB
:10268300F583E0F46003E0F5E174016F700A7A0109
:10269300900742E0F91205120225C974F1121B21B9
:1026A3008A088B098C0A8D0B740F121AA9780C12E5
:1026B300192E9081D878081219089081D8780C12B5
:1026C30019087808790C1213C950157808790C1277
:1026D30018C890817478081213E9401579018013A2
:1026E300780C79081218C8908174780C1213E94099
:1026F300EB79007F08021BCD74ED121B218A088B36
:10270300098C0A8D0B7413121AA9780C12192E90C6
:1027130081D878081219089081D8780C1219087892
:102723000C79081213C940117808790C1218C8AA39
:1027330008AB09AC0AAD0B8022751000751100754A
:1027430012007513017810790C1218C878107908E3
:1027530012188FAA10AB11AC12AD137F0C021BCD54
:102763009081D8780812192E8A828B8378081219DF
:102773001B7F04021BCD74F5121B218C828D837881
:102783000812192E8A828B8378081218F4EA24041B
:10279300F8EB3400F98C828D83A3A3A3A3E0FCA3FD
:1027A300E0FD88828983C3E09CF0A3E09DF08882EA
:1027B3008983C3E09420A3E0944E4022908218784A
:1027C3000812192E8A828B8378081218B58A828B95
:1027D30083A3A3A3A3E02420F0A3E0344EF08080DE
:1027E30074F5121B21E9FE900895E0FAA3E0FBEED5
:1027F300C333F8E433F9740128F582748139F5831E
:10280300E02AF508A3E03BF5097808121CC890817B
:10281300B012194C1223687402121A748A088B09B5
:102823008C0A8D0B74107808121857AA08AB097F0D
:1028330004021BCD74F1121B218A0C8B0D8C0E8D9F
:102843000F740F121AA9E0FAA3E0FB7411121AA96C
:10285300E0F508A3E0F5097413121AA9E0FEA3E05A
:10286300FF7808121CC8EA2401F508EB3400F509C7
:10287300E4F50AF50B780C79081216EB908184784D
:102883000812192E780C79081216EBAA0CAB0DACB2
:102893000EAD0F1223687402121A748B09EA4509EC
:1028A30060047A0180027A00EC2AFCED3400FDEC2E
:1028B300F8EDF97A717B021219D388088909E4F5D6
:1028C3000AF50B8E828F83780812193DECF8EDF927
:1028D3007A717B021219D38A088B0974057808125E
:1028E3001A4B8E828F83A3A3A3A3E508F0A3E50964
:1028F300F07F08021BCDC082C083E9906000F0D056
:0429030083D08222D9
:10290800FFFFFFFFFFFFFFFFC082C083E9900D08B4
:10291800F0022B2F74F7121AB5E9900661F07C9932
:102928007D067AFF7BFF120C2090066274FFF0A3ED
:10293800F0A3E4F0A3F07905120BAE900661E0F97C
:10294800120AD67A387B0C120DFA02383D74F4124A
:102958001AB58A088B09EB54806030900661E0F95B
:102968001204A08A0A8B0BAE0AAF0BEE4F60138ECF
:10297800828F83E064B07003120BC0EEFAEFFB1293
:10298800048EAA08E5096480FB80047A007B0002B3
:102998002AFE74F2121AB574FC121A5EEAFEEBFFF4
:1029A8007412121AA9123D24EE4F7003022A3D74C4
:1029B80002121AA9EEF0A3EF122D39ECF0A3ED12D2
:1029C8002D39AA82AB83120AD0E9F50A706AE508A4
:1029D800450960648E828F83123D0AEE4F60567AF5
:1029E800067B001204FA8A0C8B0DA80CA90DE84985
:1029F8007005750A13804188828983E4122A4AEE99
:102A0800F0A3EF123D35E508F0A3E509F09006675D
:102A1800122AD190066770051237E7801B1237D546
:102A28008003EAFCEBFD8C828D83122AD170F38C33
:102A3800828D8380E3750A02A90A7404121A74024B
:102A48003F24F0A3123CDBA32274F2121AB5890AC0
:102A5800E975F017A4FEAFF0900666E4F0900664FE
:102A6800122AD1600A120500900664E4F0A3F0EE81
:102A7800FAEFFB1204FA8A088B09EA4509602FEE7F
:102A8800FCEFFD790012047C900664E508F0A3E5EC
:102A980009F07B008008122ABBE4F0A3F00BEBC31B
:102AA800950A40F2E50A900666F0790080027913EB
:102AB800023F24EB75F017A4F8A9F0900664E0280B
:102AC800FAA3E0398A82F58322123479EA4B227418
:102AD800F4121AB57900EAA2E0501B75085275097C
:102AE800817808121CC87C047D007A0A7B0D120BC1
:102AF800A87402121A747F04021B87C082C08390D4
:102B08000667122B36601C88828983A3A3E06A704B
:102B180003A3E06B8882898370E8A3A3A3A312347C
:102B28007580047A007B00D083D082020135124080
:102B38000AE8492274EE121AB574FC121A5EEAFE0B
:102B4800EBFF851882851983E4F0A3F0EE240212C6
:102B580037C7EE2405123CE2EE2404F50EEF1230DE
:102B6800EEE024FE603924FC604624FE605224FE18
:102B7800605E24FE7003022C4F24FE7003022CB307
:102B880024FE7003022CC224FE7003022CD124FC04
:102B98007003022CE024FE7003022CEF022D2C900F
:102BA80006807417F0A3E4122D4112084E022D2C52
:102BB800851882851983AC82AD83120BC6022CFC62
:102BC800851882851983AC82AD83120BCC022CFC4C
:102BD800850C08850D097402121AA9AC82AD83858B
:102BE8000882850983123475120AF48A0C8B0DAC9D
:102BF8000CAD0DEC4D603BE4F50CF50D780C121C9A
:102C0800C8750C80750D06780C121CC8750C81757A
:102C18000D06780C121CC87408121AA9121CDF12AF
:102C2800402E121A74E9F50C700B12346B120866F8
:102C3800800F750C01850882850983122D2F1237A4
:102C4800E7850C08022CFF7402121AA9AC82AD8326
:102C5800850C82850D83123240603C850C82850D7F
:102C680083A3A3121CDF7510807511067810121C3F
:102C7800C87510817511067810121CC87408121ACC
:102C8800A9121CDF12402E121A74E9F509700B12F2
:102C9800346B12086C800F750901850C82850D83D1
:102CA800122D2F1237E7850908804C85188285195F
:102CB80083AC82AD83120BD2803A85188285198342
:102CC800AC82AD83120BD8802B851882851983AC12
:102CD80082AD83120BDE801C851882851983AC8235
:102CE800AD83120BE4800D851882851983AC82AD03
:102CF80083120BEAE9F508E50860298E828F83A321
:102D0800E06414601F850E82850F83E090068012B0
:102D18002D391240069006811237E7E508A3122DD7
:102D2800411208480236D612400A8518828519834E
:102D380022F085188285198322F07C807D06850A19
:102D480082850B831234792274EE121AB574FC1240
:102D58001A5E8A0A8B0B8C0E8D0FEA2405F508EB98
:102D68003400F5097C157D0079007A807B06120411
:102D78007CE5082402F50CE509123CE585188285F6
:102D880019838582108583117810121CC8850882E2
:102D9800850983A3A3A3A3123237121CC8E508240C
:102DA80005F510E5093400F5117810121CC8850CDA
:102DB80082850D8312358C120AEE7406121A748AF3
:102DC800108B11AE10AF11E50A2402F50AE50B12BB
:102DD80037CAEE4F7003022F0E80177402121AA919
:102DE80012347588828983EAF0A3EBF0900680E0BC
:102DF80004F0900680E0C394054003022F0EE4F52A
:102E080010F5117810121CC8751069751106781024
:102E1800121CC875106A7511067810121CC8740641
:102E2800121AA9121CDF7910EEFCEFFD12403012C5
:102E38001A74E9705E850882850983A3A3A3A3A3F6
:102E4800A3A3E0F8900669E0687048123237121CB4
:102E5800C87C6A7D06E5082408FAE5093400FB12F7
:102E680004767402121A74E960298E828F83A3A3F0
:102E7800A3A3123475900680E0F51074027810123E
:102E88001A4B74812510F58274063511F583EAF022
:102E9800A3EBF07402121AA98582108583117810A9
:102EA800121CC87402121AA9121CDF850C82850D27
:102EB8008312349B121A748A108B11AE10AF1190C2
:102EC8000680E0F51075110074027810121A4B7420
:102ED800802510F874063511F988828983A3122A8F
:102EE800D17003022DDAE82403080808E93400F950
:102EF800EE4F6003022DE38882898374FFF0A3F00C
:102F0800900680E004F0900680E0600A12346B12AC
:102F1800085A7900800B8508828509831237DE7983
:102F28000A0236D674EA121AB574FE121A5E8C12A8
:102F38008D13EA2405F50CEB124018123D0E7508A6
:102F480000750900EA2402F510EB3400F511851824
:102F58008285198385820A85830B780A121CC885A5
:102F68000C82850D83A3A3A3A3123104121CC8E508
:102F78000C2405F50AE50D1237CA780A121CC88513
:102F88000C82850D83123108120AEE7406121A7427
:102F98008A0A8B0BEA450B70030230A9EA2404F570
:102FA8000EEB1230EE123D0E8A828B83A3A3A3E0B0
:102FB800F985108285118312347F60030230A9E4F9
:102FC800F514F5157814121CC8751469751506786A
:102FD80014121CC875146A7515067814121CC87466
:102FE80006121AA9121CDF7913AC0AAD0B851082E0
:102FF800851183124036121A74E9F509600302300C
:10300800A9900669E0F8E5087009E02402900681B5
:10301800F08014900681E0FCE82402FAE43400FB16
:10302800EA6C7001EB707E850882AA8212322E94B7
:1030380014123226506B850E82850F83E0C0E0742F
:10304800822A1230E5D0E0F00508850E82850F83CC
:10305800A3E0C0E085080A7482250A1230E5D0E0B2
:10306800F00508900669123104121CC87C6A7D06B6
:1030780085080A7482250A1230F8121A74900669B3
:10308800E02508F50874FF6E700374FF6F6012EE98
:1030980024010EEF3400FFE508C394145003022FF7
:1030A80056E508601312348985108285118312341D
:1030B8007512086079008014E509700375090A859E
:1030C8001282851383EEF0A3EFF0A9097402121A95
:1030D800747F0E021B8785080C7482250CF5827498
:1030E800063400F583223400F50F850E82F583221D
:1030F800FA74063400FB120464740222123D44225E
:10310800A3A312310E221237D5FDEEFAEFFB22747B
:10311800EE121AB574FE121A5E8C0E8D0FEA240593
:10312800F50CEB123CE5750B00900680E4F0F50A0F
:10313800EA2402F508EB3400F5098044900680E0A3
:10314800FA900669E0F812322E9417123226400DD2
:10315800900680E0F87416C398900669F01232372A
:10316800121CC87C6A7D0674812AFA74061230FB28
:10317800121A74900669E0F8900680E028F0050AB3
:10318800E50C2416F582E50D1230E9E0F8E50AC3EE
:10319800985074900680E0C39416506BE50AC333C8
:1031A800F8E433F9E50C28FEE50D39FF851882852A
:1031B8001983AC82AD838E828F831232407008757A
:1031C8000B011237DA8050E4F510F5117810121C53
:1031D800C87510697511067810121CC875106A75C3
:1031E80011067810121CC87406121AA9121CDF796D
:1031F80016850882850983124036121A74E9F50B80
:10320800700302314480BB7C807D06850882850975
:1032180083123475120872A90B74020236D8E99425
:1032280000C365D03322EA28F8E43400F9E822E044
:10323800F5107511007810221236CD8A108B11AC5A
:1032480010AD11EC4D2274EA121AB574FC121A5E14
:103258008A0C8B0D8C128D13EA2405F50AEB1237B4
:10326800CA750800750900E50A2402F510E50B3453
:1032780000F5117402121AA985820E85830F780E43
:10328800121CC8850A82850B83A3A3A3A3123CEA58
:10329800121CC8E50A2405F50EE50B3400F50F7875
:1032A8000E121CC88510828511831237D012346F14
:1032B800120AEE7406121A748A0E8B0FAE0EAF0F36
:1032C800E50C2402F50EE50D3400F50F80388882F0
:1032D800898374FFF005081230DE74FFF00508904A
:1032E8000669E0F50C750D00780C121CC87C6A7D27
:1032F8000685080C7482250C1230F8121A74900690
:1033080069E02508F508EE4F60278E828F83A3A316
:10331800A3E0F9850E82850F8312347FEE24041210
:103328003CE2E96027850C82850D831234611237EF
:10333800E7E5087003023447123489850E82850F49
:1033480083123475120878790002345CE4F514F5B8
:10335800157814121CC87514697515067814121C92
:10336800C875146A7515067814121CC87408121AE0
:10337800A9121CDF7911EEFCEFFD850E82850F8303
:10338800124036121A74E9F509709A850882AA82E1
:10339800EA9006697009E02404900681F08025E02F
:1033A800F8900681E0F514E82404FCE43400FDEC10
:1033B80065147001ED708112322E9412123226407B
:1033C80003023340850C82850D83E0C0E074822AB5
:1033D8001230E5D0E0F00508850C82850D83A3E066
:1033E800C0E01230DED0E01234A485820C85830D53
:1033F800780C121CC87404121AA9121CDF851082DA
:1034080085118312349B121A748A0C8B0DAE0CAF83
:103418000D85080C7482250CF874063400F9EE4FFB
:1034280070030232D6851882851983E088828983E1
:103438001234A4A3E0C0E01230DED0E00232E4E5AA
:1034480009700375090A850A82850B831234611293
:1034580037E7A90974040230D612400A851282851A
:103468001383227C807D06850A82850B831234793A
:1034780022E0FAA3E0FB22123479120ADCE9F5090A
:1034880022900681E0F5F0E50884900680F07C80C3
:103498007D062212310E120AFA740422F0050885FC
:1034A80018828519832274EC121AB574FE121A5EFA
:1034B8008A088B098C0E8D0FEA2405FEEB3400FF79
:1034C8001236B7EE2418123CE2EA450B70030235B7
:1034D8005A1236A0502912357F8A108B11EA4511ED
:1034E800606B7912AC0AAD0B8508828509831234AA
:1034F80075851082851183121AB3E9F50A7058E4AC
:10350800F50AF50B780A121CC88E828F83A3A3E0F4
:10351800F50A780A121CC8EE24031237C7780A1273
:103528001CC88E828F8312358C120C0E7406121AE8
:1035380074E9F50A7021850C82850D83E0701F857A
:10354800088285098312347512087E8011750A0E67
:103558008009750A018004E50A60031237DA850CD0
:1035680082850D83E0600479008002A90A74021242
:103578001A747F0C021B8785188285198312347987
:10358800120BFC221237D5FD850882850983123477
:10359800792274EE121AB574FE121A5E8A088B0923
:1035A8008C0C8D0DEA2405FEEB3400FF750E00121D
:1035B80036B7EA450B700302367E1236A0502C123D
:1035C800357F8A0E8B0FEA450F604A7912AC0AAD37
:1035D8000B850882850983123475850E82850F83D1
:1035E800121AB3E9F50E600302368185088285094F
:1035F800831238BCAA0AFB12369270147AFF7BFF3A
:10360800123692606C88828983E50AF0A3E50BF094
:10361800750A008007750E0E805F050A900666E041
:10362800FAE50AC39A504AE50A75F017A4FAABF00E
:1036380088828983A3A3E02AFAA3E03BFB8A828BD2
:10364800831237D0EC4D70D2750A17750B00780AC3
:10365800121CC8EEFCEFFD1204647402121A74EE18
:10366800FCEFFD8508828509831234751208848071
:1036780014750E098003750E01124002850C8285AF
:103688000D831237E7A90E023221120BF08A108B34
:1036980011A810A911E84922E5082402F508E5094E
:1036A8003400F5098A828B83A3A3A3E0A2E52285CF
:1036B8001882851983AC82AD838E828F831236CDB2
:1036C8008A0A8B0B22E0FAA3E0FB120AF4227404A4
:1036D800121A747F0A021B8774EC121AB58C108DAB
:1036E80011EA2405F50CEB123CE5750F00EA2402FB
:1036F800F50AEB1237CA850A82F58312347512402F
:10370800BC70030237BC750E008071850C82850D74
:1037180083E06401704F8E828F83A3A3121CDF8E17
:10372800828F83A3A3A3A3E0F51275130078121266
:103738001CC8EE2405F512EF3400F5137812121C9C
:10374800C812346F120C0E7406121A74E9F50F6061
:1037580014850C82850D83E4F01240028510828561
:1037680011831237E77C177D007900EEFAEFFB1220
:10377800047C8E828F83E4F0A3F0050E900666E049
:10378800F8E50EC398501EE50E75F017A4F8A9F0D9
:10379800850882850983A3A31240221237D0EC4DF5
:1037A800600302371385088285098374FFF0A3F04C
:1037B800E50F700612346F12088AA90F02357AF5E0
:1037C8000AEF3400F50B22A31237D5FD22E0FCA343
:1037D800E0228E828F8312400A850E82850F83E84D
:1037E800F0A3E9F022C082C083900662E06A700309
:1037F800A3E06B70067A627B0680047A007B000285
:103808002B2F74F7121AB57F00EF75F003A4F8A9EF
:10381800F0EC28F8ED39F988828983E06A7003A30F
:10382800E06B7006E8FAE9FB800B0FEFC3940240E7
:10383800D87A007B007F01021B8774F6121AB51232
:103848003DF370067A007B008007A3A3A3A312347C
:1038580075023EB474F2121AB5E9FE740E121AA972
:103868001238BC7410121AA9123D248C828D83E080
:103878006402703BA312400688828983E0F50CA39A
:10388800E0F9A80C74026870037429697021750C3A
:1038980002750D00780C121CC87808121CC8780A2A
:1038A800121CC8EEF9120C327406121A74800279CE
:1038B80001023F24E0F50AA3E0F50B2274E8121A8E
:1038C800B574FB121A5EE9851882851983F08A1689
:1038D8008B178C0E8D0F741F121AA9123D24742198
:1038E800121AA91238BC7423121AA9123D0E7510A7
:1038F800008C828D83A3A3A3E0A2E4502A741D1236
:103908001AA91235858A828B83E582458370030262
:1039180039D0790AAC0EAD0FAA16AB17121AB3E953
:10392800F51060030239D3850E82850F83E06402A7
:103938006003023C89A3124006850882850983A397
:10394800858212858313E50E2406F50CE50F123CDB
:10395800E588828983E0FAA3E0F9EA2400F514E413
:1039680039F5157814121D520100002801289839DC
:10397800070002286F3A0328DF390029993B0129FB
:10398800C13B0229683B0329993B04292A3C893C0D
:10399800EE4F703E850C82850D83123CFFFAE9FBE1
:1039A8008A828B83E0850A82850B83123D3B121C39
:1039B800C88A828B83A31237D5FDAA08AB091204E3
:1039C800647402121A74800375100EA9107405022B
:1039D800401075100B80F4EE4F70F7850A82850B46
:1039E800837401F0123D14850882850983F07C00F8
:1039F8007D00850E82850F83A3A3A3A3E02401FA8B
:103A0800A3E03400FB120AF4EA4B60418A828B83FC
:103A1800E02402F8850A82850B83E028F0EA240472
:103A2800F8EB3400F988828983E085128285138354
:103A3800123D4D123D3B121CC88A828B831237CF30
:103A4800E5082403FAE5093400FB0239C6850A8231
:103A5800850B83E02404F07C047D007900AA12AB76
:103A68001312047C0239D3EE4F60030239DA123D97
:103A780014FEA3E0FF850A82850B837404F0EE85AB
:103A88000882850983F0EF851282851383F0740319
:103A9800121AA9AC82AD83EEFAEFFB123DE1700376
:103AA800023B458A828B83A3A3123D0A7401121A32
:103AB800A985820E85830F780E121CC87405121A08
:103AC800A9121CDF7CFF7DFF120AFA7404121A7413
:103AD8008B0FEA450F7033850C82850D83123CEA03
:103AE800121CC8850C82850D83A3121CDF7C027D05
:103AF800007A3D7B821209267404121A74E9700A4E
:103B08007401121AA974FFF0A3F08E828F83E06407
:103B1800027034750C02750D00780C121CC88E8268
:103B28008F831237CFE5082404FAE5091230FB1217
:103B38001A74850A82850B83E024028009740112B5
:103B48001AA9EEF0A3EFF07401121AA9123CFBF0C7
:103B58007401121AA9A3123CF3A3A3A3F00239D348
:103B6800EE4F60030239DA850C82850D831237D057
:103B7800AA16AB17120C26850A82850B837402F0ED
:103B8800EA850882850983F0851282851383EB8094
:103B9800CBEE4F60030239DA123D14F8A3E0F98541
:103BA8000A82850B837402F0E8850882850983F010
:103BB800E985128285138380A3850C82850D831283
:103BC800347512045EEAFC8C82A882C39EE49F408E
:103BD8004BE86E7001EF70047C00801F85188285A9
:103BE8001983E0FAEE2AFAEF3400FBC3EA98EB9463
:103BF800005003E08004EECCC39CFCEC850A82856F
:103C08000B83F08C0A750B00780A121CC8850C828D
:103C1800850D83E02EFCA3E03F0239C17510070231
:103C280039D3EE4F60030239DA850C82850D831291
:103C38004006850A82850B837407F088828983127F
:103C48003CF3123CDBE0851282851383F0E8240202
:103C5800FAE93400FB8A828B83123CF3123D2C1262
:103C68003CFBA3123D35123D04F0E82405F8E93485
:103C780000F988828983123D04A3123D4DA3023BBB
:103C880061741D121AA9123DEC70030239D012405A
:103C980006880C890DE8450D70030239D08E108F07
:103CA800117810121CC8780A121CC87808121CC88F
:103CB8007406121AA9E0F9AC0EAD0FAA16AB178557
:103CC8000C82850D83121AB37406121A74E9F51062
:103CD8000239D3F088828983A322F50CEF3400F5EA
:103CE8000D22E0F50E750F00780E22E0850882851A
:103CF800098322123D542212400AE822123D54A39D
:103D0800A322A3A3A3A3E0FEA3E0FF22850C828540
:103D18000D83E0F8A3E0F5838882E022E0F508A3AC
:103D2800E0F50922A3A3F08A828B83A322122A4CEE
:103D3800A3A322F08A828B83123D4422E0F50A7500
:103D48000B00780A22123CDB123D5422E0850882DF
:103D5800850983A3A32274EE121AB574FE121A5EA3
:103D68008A0A8B0BECFAEDFB7414121AA9E0F51011
:103D7800A3E0F5117416121AA9E0FE7418121AA914
:103D8800E0F50EA3E0F50F851882851983AC82ADA6
:103D980083123DE1603E851882851983123DEC60EF
:103DA8002FA3A3123D24E50845096024780E121CB0
:103DB800C87810121CC8EEF9AC0CAD0DAA0AAB0BF2
:103DC800850882850983121AB37404121A7480064E
:103DD800790E80027901023221120AF48A0C8B0DC5
:103DE800EA450D22123479123DF322120BBA8A8267
:103DF8008B83E58245832274F6121AB574FE121A73
:103E08005E740C121AA9123CFF851882851983F07A
:103E18007401121AA9E9F0E4F508F5097808121CEA
:103E2800C87508027808121CC87404121AA9858279
:103E3800088583097808121CC8120C0E7406121A19
:103E4800747402121A74806474F7121AB5EAFEEBDD
:103E5800FF89087C997D06120C26EA5402600BA99A
:103E680008EEFAEFFB120AE88002790102383D7485
:103E7800F6121AB574FF6A700374FF6B701C7B002E
:103E8800EB75F003A4F8A9F0EC28F8ED39F9123E27
:103E9800B90BEBC39402501480E6120BF68A088B18
:103EA80009A808A909E8496003123EB97F02021B64
:103EB800878882898374FF122A4AE4F02274F612F2
:103EC8001AB5120BF68A828B83E58245836006A3B6
:103ED800A3E0FA80027A007B0080D174F2121AB54E
:103EE8008A088B09ECFEEDFF740E121AA9E0F50A98
:103EF800123F29701CEEFCEFFD7AFF7BFF123F2971
:103F080070047911801688828983E508F0A3E50991
:103F1800F088828983A3A3E50AF079007F06021B53
:103F280087120BF68A0C8B0DA80CA90DE849227490
:103F3800EE121AB5EAFEEBFF8C088D09890C741293
:103F4800121AA91240067414121AA91237D074163C
:103F5800121AA9123475750D00EC4D6003023FFA70
:103F68007402650C6003023FF5888289831237D595
:103F7800F9EC2400F50EE439F50FEAF4F8EBF4F95E
:103F8800EC58F8E50F59F9E849705DE5082406F89A
:103F9800E5093400F9880A890B8882F58312310A09
:103FA800120C268A108B11E50E65107004E50F655A
:103FB800116042780E121CC8850A82850B83123163
:103FC8000A120C2C7402121A74E9F50D7027780E77
:103FD800121CC8850882850983A3A3123108120C14
:103FE8003E7402121A74800D750D808008750D0DCF
:103FF8008003750D0BA90D0236DB8E828F8312406C
:104008000A22E0F8A3E0F922121A747F10021B8733
:104018003400F50D850C82F58322E028FEA3E039F3
:10402800FF8E828F83227916850A82850B8312344C
:1040380079120C0874082274F2121AB5EAFEEBFF22
:10404800890B7401650B600E7402650B706379014E
:10405800120E18E9705BEEFAEFFB1240BC60477570
:104068000A00800B7C177D00790012047C050A90F9
:104078000666E0F8E50AC3985021E50A75F017A42A
:10408800F8A9F0850882850983A3A3E028FAA3E0AC
:1040980039FB8A828B83122B3670C9850882850981
:1040A8008374FFF0A3F07C997D06EEFAEFFB120C07
:1040B80020023F24120BF08A088B09EA4509227472
:1040C800F2121AB58A088B09ECFEEDFF740E121A6B
:1040D800A91238BC900D08E0F4603D7A097B001203
:1040E8000488EA4B60328A828B8374B1F0A3E412AD
:1040F8003D2EA3123D2CA3E508F0A3E509124123A8
:10410800EEF0A3EF124123A3A3E50AF0A3E50BF019
:10411800900D08E0F9120494023F24F08A828B8300
:10412800A3A3A3A3A322C082C0839061907404F0C8
:10413800A37448F0A37402F09061807440F0906119
:10414800BC7403F09061877419F0906265741BF079
:1041580090619C740DF090619A7433F0A37455F0DB
:104168009061A0743AF09008DDE064017009C29192
:10417800900747746780059007477461F090290E8F
:10418800E493906186F0902908E493F46027E4931F
:10419800540FF8906185E0686012E5C65480444980
:1041A800F5C6E59E547F644970F8E8F053C680E58B
:1041B8009E547F70FA790512116C024370C082C058
:1041C80083E9540FF9906185E0696012E5C654806F
:1041D8004449F5C6E59E547F644970F8E9F053C632
:1041E80080E59E547F70FA024370C082C083E5A8C0
:1041F800F853A87E906181E4F0A3F0A3F0C2BA530B
:104208009AFEC289759B00C2C275E9007591007556
:10421800BF0075A91175B905906181F0A374C0F04C
:10422800A3E4F0D2BA439A0174805842A8024370BA
:10423800C082C08374F8121A5E900745E0F8A3E0C4
:10424800F9E8497003024366900745E0544060234B
:104258007908851882851983AA82AB83120FD485C1
:104268001882851983AA82AB83120CAA900745E0AD
:1042780054BFF0E054806010790C7A017B09120F6A
:10428800D4900745E0547FF0E0A2E0503190619A65
:104298007433F0A37455F09061A0743AF09008DD7F
:1042A800E064017009C29190074774678005900720
:1042B800477461F0120CB0900745E054FEF0E054EA
:1042C80002603190619A743FF0A3745AF09061A033
:1042D800747FF09008DDE064017009D2919007477F
:1042E80074718005900747746AF0120CB090074506
:1042F800E054FDF0E05404601390290CE4939061BD
:1043080086F0120CB6900745E054FBF0E0540860C4
:104318001390290DE493906186F0120CB69007452E
:10432800E054F7F0E05410601390290EE493906184
:1043380086F0120CB6900745E054EFF0E054206088
:104348000A120CB6900745E054DFF0A3E054016070
:104358000D120EFC120CBC900746E054FEF07408D7
:10436800121A748003F0A3F0D083D082020135744E
:10437800EC121AB574F4121A5E851882851983AC8A
:1043880082AD837583817582CC740412197190296A
:104398000C93F46003024504907808E0C39402503B
:1043A800030244E47404121AA9AC82AD83758381B4
:1043B8007582377408121971851882851983858268
:1043C800128583137404121AA9AC82AD83750EFF8B
:1043D800750FFF7FFF7E00750C48750D788015748A
:1043E800086E700302447774096E70030244777490
:1043F8000A6E607B850C82850D83780812192E8CD5
:10440800828D83A909E50AC9F888107418780812FA
:104418001857E5104508F8C3E098A3E099850C8281
:10442800850D83780812192E40188C828D83741894
:104438007808121857E5104508F8E0C398F8A3E083
:10444800801C74187808121857E5104508FAE9FB1B
:104458008C828D83E0F8A3E0F9EAC398F8EB99F928
:10446800C3E8950EE9950F5006880E890FEEFF0EEA
:10447800E50C2404F50CE50D3400F50DEEC394139A
:1044880050030243E774FF650E700474FF650F6004
:10449800238F0874027808121A4B74482508F5828D
:1044A80074783509F583780812192E8512828513D8
:1044B80083E508F0EC24020C0CED3400FD85128233
:1044C800851383A3858212858313740C121AA9E5B8
:1044D800826C7003E5836D60030243D5750801752E
:1044E80009007808121CC87402121AA9AC82AD839C
:1044F8007A437B0A12072E7402121A74740C121A69
:10450800747F0C021B87C082C0839061AE7468F010
:10451800A3746AF090624574FBF0A304F053F4FDB1
:1045280043FE029008DD7401F09061A0E0643A90C7
:10453800619A70237433F0A37455F09061A0743AB3
:10454800F0740164017009C291900747746780286C
:1045580090074774618021743FF0A3745AF090610A
:10456800A0747FF0740164017009D29190074774B8
:10457800718005900747746A02436F7F04021B87A6
:10458800C082C08390088FE06401700A900894E0AC
:104598006004790C80027900024370C082C0837580
:1045A800E1F1900892E060551460081460591460B5
:1045B800518059120F0E900888E0F97A897B081209
:1045C80010EE9081C412194C1211249081E0121936
:1045D8004C1210FA900893E0F912110679011211A1
:1045E80060900886E02416F8A3E03400F9888289F0
:1045F800837426F0A3740FF07900024370120F142D
:1046080080B4120F1A80AF120F2080AA791280EAA4
:1046180074F4121AB575D90D900877E0A2E0E43366
:104628001313F8900888E0C4333354C0484401F5A4
:10463800D97886790888828983A3A3A3E0F5D988E5
:10464800828983A3A882A983E8648C7003E964083B
:1046580070E37877790888828983A3E0F5D988821E
:104668008983A3A882A983E8647D7003E96408703C
:10467800E575E195900877E0F97A787B081210F4EF
:10468800900D2A74BAF0A3740EF0A3741CF0A374EE
:1046980010F0A3741CF0A37410F0A3741CF0A3749E
:1046A80010F0A374C0F0A3740EF0A3741CF0A374EC
:1046B80010F0A374D8F0A3740EF0900D38741CF0A9
:1046C800A37410F0A3741CF0A37410F0A3741CF06E
:1046D800A37410F0A3741CF0A37410F0A3741CF05E
:1046E800A37410F0A3741CF0A37410F0900886E073
:1046F800F8A3E0F5838882A3A3780812192E908185
:10470800C078081218A29081D87808121908900861
:1047180086E0240EF8A3E03400F9888289837808BB
:1047280012193D900886E02414F8A3E03400F988B3
:104738008289837413F09007437402F0024583C0A2
:1047480082C083900898E02407F5D9900888E0C4CF
:10475800333354C0F5D97886790888828983A3A32E
:10476800A3E0F5D988828983A3A882A983E8648C09
:104778007003E9640870E3900898E0601F78867910
:1047880008FAE82413F582E93400F583E0F5D988BE
:10479800828983A3A882A9831AEA70E69008B8E000
:1047A8002407F5D9900888E0C4333354C04404F58D
:1047B800D97886790888828983A3A3A3E0F5D98864
:1047C800828983A3A882A983E8648C7003E96408BA
:1047D80070E39008B8E0601F78867908FAE8243317
:1047E800F582E93400F583E0F5D988828983A3A8A6
:1047F80082A9831AEA70E675E195900D2A74C6F0CD
:10480800A3740EF0A3741CF0A37410F0A3741CF02E
:10481800A37410F0A3741CF0A37410F0A374C0F078
:10482800A3740EF0A3741CF0A37410F0A374D8F052
:10483800A3740EF0900D38741CF0A37410F0A374D8
:104848001CF0A37410F0A3741CF0A37410F0A374EC
:104858001CF0A37410F0A3741CF0A37410F0A374DC
:104868001CF0A37410F090821812194C900886E07E
:10487800240EF8A3E03400F988828983121958902D
:104888000886E02414F8A3E03400F9888289837448
:1048980012F0900743740102436FC082C0839008EE
:1048A80098E02407F5D9900888E0C4333354C0440D
:1048B80002F5D97886790888828983A3A3A3E0F5CD
:1048C800D988828983A3A882A983E8648C7003E9C4
:1048D800640870E3900898E0601F78867908FAE821
:1048E8002413F582E93400F583E0F5D988828983B9
:1048F800A3A882A9831AEA70E675E195900D2A7437
:10490800D2F0A3740EF0A374D2F0A3740EF0A374C3
:10491800D2F0A3740EF0A374D2F0A3740EF0A374B3
:10492800D2F0A3740EF0A374D2F0A3740EF0A374A3
:10493800D8F0A3740EF0900D38741CF0A37410F026
:10494800A3741CF0A37410F0A3741CF0A37410F0EB
:10495800A3741CF0A37410F0A3741CF0A37410F0DB
:10496800A3741CF0A37410F090821812194C9008CC
:1049780086E0240EF8A3E03400F9888289831219AE
:1049880058900886E02414F8A3E03400F988828956
:10499800837414F0900743740402436FC082C08389
:1049A800900898E02407F5D9900888E0C433335478
:1049B800C04406F5D97886790888828983A3A3A399
:1049C800E0F5D988828983A3A882A983E8648C70DA
:1049D80003E9640870E3900898E0601F7886790816
:1049E800FAE82413F582E93400F583E0F5D98882E2
:1049F8008983A3A882A9831AEA70E69008B8E024FC
:104A080007F5D9900888E0C4333354C04404F5D975
:104A18007886790888828983A3A3A3E0F5D9888258
:104A28008983A3A882A983E8648C7003E964087069
:104A3800E39008B8E0601F78867908FAE82433F52F
:104A480082E93400F583E0F5D988828983A3A882B6
:104A5800A9831AEA70E675E195900D2A74CCF0A343
:104A6800740EF0A3741CF0A37410F0A3741CF0A3CC
:104A78007410F0A3741CF0A37410F0A3741CF0A3BA
:104A88007410F0A3741CF0A37410F0A374D8F0A3EE
:104A9800740EF0900D38741CF0A37410F0A3741CFD
:104AA800F0A37410F0A3741CF0A37410F0A3741C8A
:104AB800F0A37410F0A3741CF0A37410F0A3741C7A
:104AC800F0A37410F090821812194C900886E02414
:104AD8000EF8A3E03400F9888289831219589008E7
:104AE80086E02414F8A3E03400F9888289837415D9
:104AF800F0900743740302436FC082C08390088616
:104B0800E0F8A3E0F5838882A3A3A3A3A3A3E40208
:104B1800436D74F7121AB5900771E0F875F004A4A4
:104B2800C8AAF02AF9747328F8740739F9E8240533
:104B3800FAE93400FB8A828B83E0FCA3E0FD8882DB
:104B48008983A3A3A3A3A3A3A3A3A3ECF0A3EDF03A
:104B580088828983A3A3A3A3A3A3A3E024FFF8A324
:104B6800E034FFF98A828B83E8F0A3E9024DBF7431
:104B7800F7121AB5EAFEEBFF9061D0E06003024C31
:104B88005475D90E75D90375D904EE248CF582EFC6
:104B98003400F583E5822408F8E5833400F9E0F56C
:104BA800D9A3E865827003E9658370F2EE2484F581
:104BB80082EF3400F583E5822404F8E5833400F9B4
:104BC800E0F5D9A3E865827003E9658370F275E1C1
:104BD800957908EE248CFAEF3400FB120FC879049B
:104BE800EE2484FAEF3400FB120FC87C00EEF8EFD5
:104BF800F9ECFAC3E49AFA95E0FBEE2AFAEF3BFBEC
:104C0800EA248BF582EB3400F583E0C0E0E824ABBE
:104C1800F582E93400F583D0E0F00C88828983A31B
:104C2800A882A983ECC3940840C7EE2470F582EFEC
:104C38003400F583E0F8A3E0F9EE2472F582EF344E
:104C480000F583E8F0A3E9F0790180027900024DCC
:104C5800C0C082C08375D90275D90375D90575E1BD
:104C680095EA2470F582EB3400F583E0F8A3E0F9C7
:104C7800EA2472F582EB3400F583E8F0A3E9F079D1
:104C88000102437074F6121AB5EAFEEBFF9008E1D0
:104C98007406F07508E17509087808121CC87C01CB
:104CA80079031210107402121A7475D90675D90393
:104CB8007582E1758308E0F5D9A3E58264E670049E
:104CC800E583640870F075E195900743E064087027
:104CD8001EEE2470F582EF3400F583E0F8A3E0F9C6
:104CE800EE2472F582EF3400F583E8F0A3E9F07959
:104CF80001024E8C74F6121AB5EAFEEBFF9061D0F1
:104D0800E0706678019008E1740BF0900743E06466
:104D18000770197508E17509087808121CC87C0124
:104D280079031210107402121A747805740128F5A8
:104D3800D975D9037582E1758308E8FAE0F5D9A336
:104D48001AEA70F875E195EE2470F582EF3400F5F3
:104D580083E0F8A3E0F9EE2472F582EF3400F583DE
:104D6800E8F0A3E9F0790180027900024E8C74F72B
:104D7800121AB5EAFEEBFF75D90375D90375D90D7B
:104D8800EE24DEF582EF3400F583E0F5D975E19580
:104D9800790412112AEE2470F582EF3400F583E0CD
:104DA800F8A3E0F9EE2472F582EF3400F583E8F019
:104DB800A3E9F079018001F07F01021B8774F612E4
:104DC8001AB5EAFEEBFF9061D0E0F87480C398FA58
:104DD800EE2483F582EF3400F583E06004780480E4
:104DE800027800E8240BF8EAC3985003024E8A7D43
:104DF800099008E1EDF0EE24E3F8EF3400F97AE2E7
:104E08007B087C0888828983E08A828B83F0888289
:104E18008983A3A882A9838A828B83A3AA82AB836E
:104E28001CEC70E0EE2483F582EF3400F583E0603B
:104E38001D7508E17509087808121CC87C097903F2
:104E4800EEFAEFFB1210107402121A747D0D740141
:104E58002DF5D975D9037582E17583088D08E0F5BC
:104E6800D9A31508E50870F675E195790412112A99
:104E7800EE241DF582EF3400F583E4F0A3F0790108
:104E8800800279007F02021B8774F6121AB5EAFEC7
:104E9800EBFF9061D0E0F87480C398FAEE2483F5B4
:104EA80082EF3400F583E06004780480027800E83B
:104EB8002408F8EAC3985003024F917D069008E150
:104EC800740CF0900760E09008E2F07A617B077854
:104ED800E379087C028A828B83E088828983F08A5E
:104EE800828B83A3AA82AB8388828983A3A882A9A1
:104EF800831CEC70E07A637B077C028A828B83E0F8
:104F080088828983F08A828B83A3AA82AB83888272
:104F18008983A3A882A9831CEC70E0EE2483F58220
:104F2800EF3400F583E0601D7508E175090878081D
:104F3800121CC87C067903EEFAEFFB1210107402FB
:104F4800121A747D0A74012DF5D975D9037582E199
:104F58007583088D08E0F5D9A31508E50870F6757E
:104F6800E195790412112AEE2470F582EF3400F5E8
:104F780083E0F8A3E0F9EE2472F582EF3400F583BC
:104F8800E8F0A3E9F0790180027900024E8C74F60A
:104F9800121AB5EAFEEBFF9061D0E0F87480C3986E
:104FA800FAEE2483F582EF3400F583E06004780498
:104FB80080027800E82404F8EAC39850030250708D
:104FC80078029008E1E8F0EE24F5F582EF3400F578
:104FD80083E09008E2F0EE2483F582EF3400F58355
:104FE800E0601B7508E17509087808121CC87C0286
:104FF8007903EEFA1210107402121A74780674010A
:1050080028F5D975D9037582E17583088808E0F514
:10501800D9A31508E50870F675E195EE2474F582B4
:10502800EF3400F583E4F0EE2480F582EF3400F5E8
:1050380083E4F0EE241DF582EF3400F583E4F0A359
:10504800F0790412112AEE240DF582EF3400F5836D
:10505800E0F8A3E0F9EE2472F582EF3400F583E876
:10506800F0A3E9F0790180027900024E8C74F612FF
:105078001AB59061D0E0F87480C398FCEA2483F5EF
:1050880082EB3400F583E06004780480027800E85D
:105098002404F8ECC398405B79029008E17407F0A7
:1050A800EA24F6F582EB3400F583E09008E2F0EAB2
:1050B8002483F582EB3400F583E060187508E17508
:1050C80009087808121CC87C020912101074021210
:1050D8001A747906740129F5D975D9037582E175B1
:1050E8008308E9F8E0F5D9A318E870F875E195792F
:1050F8000180027900024E8C74F5121AB5E9FCA2FF
:10510800AFE433F50AC2AF7D0080010DEA246FF5E4
:1051180082EB3400F583E0F8EDC398501A8D08EA65
:105128002508F8EB3400F9E8246BF582E93400F53A
:1051380083E06C70D68024EA246FF8EB3400F9E041
:10514800FEEA2EFAEB3400FBEA246BF582EB34001E
:10515800F583ECF088828983E004F0E50AA2E09206
:10516800AF7F03021B8774F6121AB5A2AFE433FDB2
:10517800C2AFEA246FF582EB3400F583E014F07CCB
:105188000060368C08EA2508F8EB3400F9E8246C4E
:10519800F582E93400F583E0C0E0E8246BF582E9A4
:1051A8003400F583D0E0F00CEA246FF582EB34008C
:1051B800F583E0F8ECC39840CAEA246EF582EB3434
:1051C80000F58374FFF0EA246AF582EB3400F58376
:1051D800E4F0EDA2E092AF024E8CC082C083E5A855
:1051E800F8C2AFEA246BF582EB3400F583E9F0EA04
:1051F800246AF582EB3400F583E4F0E8A2E792AF85
:1052080002437074F3121AB5EAFEEBFFECFAEDFBF9
:105218008A828B83A3A3A3A3E0541FF0EE2436F560
:1052280082EF3400F583E4F0F50AEEFCEFFD8A82A4
:105238008B83E0C0E0EC245DF582ED3400F583D08B
:10524800E0F0750B00E50A33333354F8F50C8A8225
:105258008B83E0F508750900E50B7808121A2CE530
:1052680008A2E0502FEE2436F8EF3400F98882893E
:1052780083E0F508EE2508F508EF3400F509E508A0
:105288002438F582E5093400F583E50CF088828935
:1052980083E004F0050B050CE50BC3940840AF054B
:1052A8000A8A828B83A3AA82AB838C828D83A3AC68
:1052B80082AD83E50AC3940550030252367F050286
:1052C8001B8774F7121AB590076FE0640170077AAC
:1052D800007B000254417E00900775E070F1740174
:1052E800F0A3E4F0A3F09007D504F09007D8E4F019
:1052F800A3F09007DB04F0900778E4F0A3F0A3F0A4
:10530800A3F090078204F09007A8E4F0908220129E
:10531800194C90078B12195890078FE4F0A3F0A34B
:10532800F09007F3F09007E7F09007DC7480F0A3A3
:10533800E4F09007E2F09007DAF090085EF0A3F04E
:10534800A3F0A3F0A3F0A3F0A3F0A3F0900867F0F4
:105358009007F6F0900846F0A3F090822012194CBE
:1053680090084812195890822012194C90084C1233
:105378001958900852E4F0900854F0900850F090B2
:10538800086AF0A3F0A3F0A3F0A3F0A3F0A3F0A39E
:10539800F0786F7907E8246FF582E93400F58374B3
:1053A800FFF00E88828983A3A882A983EEC39404A0
:1053B80040E37A6F7B07787E790888828983E0C02A
:1053C800E0EA2461F582EB3400F583D0E0F08882CE
:1053D8008983A3A882A9838A828B83A3AA82AB83A9
:1053E800E864837003E9640870D07A6F7B077856A5
:1053F800790788828983A3E0C0E0EA24E7F582EB95
:105408003400F583D0E0F088828983A3A882A98339
:105418008A828B83A3AA82AB83E8645E7003E96403
:105428000770CF90076FE004F06401700890077769
:10543800E0900771F07A737B07024DC0C082C08389
:10544800900776E4F0900775F090076FF0A3F0A34B
:1054580074FFF075E1F1024370C082C0837800796F
:1054680000900776E060047873790788828983A3BF
:10547800A3A3A3E0F902437074F6121AB5EAFEEB8F
:10548800FF8E828F83A3A3A3E0600F8E828F83A3F6
:10549800A3A3E4F0900770E014F090076FE014F015
:1054A800700690077174FFF08E828F83A3A3E4F0D7
:1054B800900883E0700D900770E064017005790032
:1054C80012110CEE2465F582EF3400F583E0F8A3A1
:1054D800E0F9E8496029EE2465F8EF3400F9880816
:1054E80089098882F583E0FCA3E0FD900771E0FA62
:1054F8007B00120CE0850882850983E4F0A3F0EEB6
:10550800FAEFFB121040024E8C74F7121AB5EAFE3D
:10551800EBFF8E828F83A3A3A3A3E0FA7B00120D77
:1055280022EEFAEFFB120F92121028024DC0C08231
:10553800C0837856790788828983A3E4F0888289B2
:1055480083A3A882A983E8645E7003E9640770E610
:1055580090075702489D74F6121AB5EAFEEBFFEC65
:105568002403F8ED3400F988088909EC2407F8EDDC
:105578003400F9E8FCE9FD8C828D83E0F8A3E0F9BA
:10558800850882850983E0FAA3E0FB1219D3EE248B
:105598000DF582EF3400F583E8F0A3E9F08C828DF5
:1055A80083E0F8A3E0F9850882850983E0FAA3E09F
:1055B800FB1219D38B09EA45096013EE240DF58215
:1055C800EF3400F583E02401F0A3E03400F0024E4C
:1055D8008C74F6121AB5EAFEEBFFEE242EF582EF74
:1055E8003400F583E0FCA3E0FD780079FAECFAEDED
:1055F800FB1219D3EE2470F582EF3400F583E8F03E
:10560800A3E9F0780079FAECFAEDFB1219D38B09CB
:10561800EA45096013EE2470F582EF3400F583E063
:105628002401F0A3E03400F0024E8C74F0121AB595
:10563800EAFEEBFF7410121AA9780812192E12103C
:10564800CA8A0C8B0D8C0E8D0F9081BC780C1218A9
:10565800A29081D8780C121908780C121CC48E827A
:105668008F83E0F8A3E0F5838882A3A312194C1274
:10567800269E7404121A74E960030257808E828F82
:1056880083E02402F8A3E03400F9E8FAE9FB8A820F
:105698008B8378081218B59081D8780812192E8A49
:1056A800828B83780812191BEE240BF582EF3400E5
:1056B800F583C082C0838E828F83A3A3A3A3A3E0B4
:1056C8002401F8A3E03400F9D083D082E0687003A5
:1056D800A3E069700579010257828E828F83A3A3A4
:1056E800A3A3A3A3A3E02401F0A3E03400F0EE24D5
:1056F80074F582EF3400F583E064017036EE2475AA
:10570800F582EF3400F583E0F8A3E0F98E828F8309
:10571800A3A3A3A3A3A3A3E0687003A3E0697013E2
:10572800EE2475F582EF3400F583E02401F0A3E060
:105738003400F0EE2480F582EF3400F583E0640154
:105748007036EE2481F582EF3400F583E0F8A3E0AB
:10575800F98E828F83A3A3A3A3A3A3A3E0687003F6
:10576800A3E0697013EE2481F582EF3400F583E03D
:105778002401F0A3E03400F079007F08021B87744D
:10578800F7121AB5900771E0F875F004A4C8AAF0EA
:105798002AF9747328FE740739FF8028EE2465F807
:1057A800EF3400F988828983E0FCA3E0FD888289D0
:1057B80083E4F0A3F08E828F83A3A3A3A3E0FA7BF4
:1057C80000120CE0EE2465F582EF3400F583E0F872
:1057D800A3E0F9E849604FEE2464F582EF3400F560
:1057E80083E0F5087808121CCCEE2463F582EF34C8
:1057F80000F583E0F9EE2465F582EF3400F583E0E7
:10580800FCA3E0FDEEFAEFFB120FBC7401121A7450
:10581800E96089EE2465F582EF3400F583E0F8A3AA
:10582800E0F9E84970137C007D008E828F83A3A382
:10583800A3A3E0FA7B00120CE0024DC074F2121A26
:10584800B5EAFEEBFF890A740E121AA9E0FAEE24F3
:1058580062F582EF3400F583E064016003025910B9
:105868009061D0E0F87480C398F50CEE2483F5823B
:10587800EF3400F583E0600478048002780089083A
:10588800E928F8E43400F9E824020808E93400F9C2
:10589800E50C98E499A2D265D0334068EA700575A2
:1058A8000B028003750B01E0603975090078081256
:1058B8001CC87AE17B08120FF27402121A74750878
:1058C800E17509087808121CC8AC0AA90BEEFAEFB2
:1058D800FB1210107402121A747404250AF50A7C5B
:1058E800E17D087401250AF5D9850BD9E50A600D13
:1058F8008C828D83F8E0F5D9A318E870F875E195E6
:10590800790080067907800279FF7F06021B87C02D
:1059180082C083E960208C828D83E08A828B83F049
:105928008C828D83A3AC82AD838A828B83A3AA8267
:10593800AB8319E970E0ECFAEDFB02437074EA12EC
:105948001AB5907803E06442705E9008E0E014F0C5
:105958007056C2AF12595F00782AD0E0F618D0E02E
:10596800F6E59F5407F970059081B480039081A4EF
:10597800780812192EE9C4C0E07829E65508F50818
:1059880008E65509F509740B7808121A3CD0E02589
:1059980008F8906270E0A2E740F8E8C333906272BA
:1059A800F0906270E0D2E0F0900771E0F4700302CA
:1059B8005D68E0F875F004A4C8AAF02AF9747328A1
:1059C800FE740739FFEE2402F582EF3401F583E017
:1059D800F8A3E0F9E849601EEE2402F582EF3401ED
:1059E800F583E0FAA3E0FBEE2401F582EF3401F53C
:1059F80083E0F91204B88E828F83A3A3A3A3A3A381
:105A0800A3E0F8A3E0F98E828F83A3A3A3A3A3E85E
:105A1800F0A3E9F0906054E090074AF0906055E0F8
:105A280090074BF0906056E090074CF0906057E07C
:105A380090074DF0906058E090074EF0906059E064
:105A480090074FF090605AE0900750F090605BE04C
:105A5800900751F090605CE0FC900752F090605D18
:105A6800E0FB900753F090605EE0FD900754F090E3
:105A7800605FE0FA900755F0900750E08C08250821
:105A8800F8E43400F98D08E82508F8E93400F98BC2
:105A980008E82508F8E93400F98A08E82508FAE949
:105AA8003400FBEE24F7F582EF3400F583E02AF0AA
:105AB800A3E03BF08C08EE24F9F582EF3400F5837F
:105AC800E02508F0A3E03400F0EE24FBF582EF3483
:105AD80000F583E02401F0A3E03400F0EE24FFF5A4
:105AE80082EF3400F583E0F8A3E0F9E849604290DA
:105AF8006000E0C333FCE433FDE82CF582E93DF5B2
:105B080083E02AF0A3E03BF0906000E0FA900752AF
:105B1800E0FCEAC333FAE433FBE82AF8E93BF9E8A6
:105B2800244AF582E93400F583E02CF0A3E0340040
