:020000040000FA
:0600000002011D02218730
:03002B00021DAA09
:030053000221FA8D
:03006B00021D84EF
:1000830002203BE5C754F84401F5C779012200007B
:100093000080FB120086B90003020107E47921788E
:1000A30008B800028004F709D8FCE479297802B87B
:1000B30000028004F709D8FCE490028178347909BE
:1000C3008002F0A3D8FCD9FA781A90014D7A01BACC
:1000D30000028007E493A3F608DAF9900AB4AA822F
:1000E300AB8390014E780A79038015E493A3AC8225
:1000F300AD838A828B83F0A3AA82AB838C828D83A8
:10010300D8E9D9E77582E87583A8740312012F75BE
:100113008291758300740012012F75D00075813FA1
:10012300751881751902759F00020096C09FF59F8F
:10013300E473D09F22D083D082C09FE493C0E07445
:100143000193C0E0740293F59F220101FFFF0201B6
:100153000603020D180708434D5F48524D434D20D7
:1001630048656172742052617465204D6F6E6974C5
:100173006F728103000087039303FFFF0000A03E1B
:10018300BC00126402DB81010000C58102D781013A
:100193000000EB0A02F781010000EC0A02D581039B
:1001A3000000370402020202DB81010000C8810261
:1001B300D7810100000D0B02F1810100003F040211
:1001C300D7810100000E0B02EF81010000B1800214
:1001D300D7810100000F0B02ED81010000CC8010DC
:1001E300020802DB81010000CB8102D781010000FC
:1001F300480B02E781000000490402D58103000097
:100203004A0402D781010000490B02E58101000085
:10021300500402D7810100004A0B02E3810200006F
:10022300510401E803053F10FF000130750302018B
:1002330006000000000000000000000000000000B5
:1002430000000000000000000000000000FFFF06A7
:1002530000800CE803FF0000B400002800280028F9
:100263003075A000A000A000A00000080008E00175
:10027300F0001000100010001000100010005000DB
:100283005000500010001000D007000000000000D4
:100293000F0001000500307507001000010081FF09
:1002A3000000FFA509C309AB09FF020202080250BF
:1002B30000A0000000E80302DB81010000C281020C
:1002C300D781010000130C02D3810100000B060249
:1002D300D781010000140C02D18101000021060224
:1002E300D781010000150C02FB81010000230602E7
:1002F300D781010000160C02E181080000240602E8
:10030300D781010000170C02EB81010000180CFFDC
:100313000100FF2002DB81010000CE8102D78101B1
:1003230000007C0C02F581000000000002D581036F
:10033300000071067B0F7B0F7B0F7B0F7B0F7B0F07
:100343007B0F7B0F7B0F7B0F7B0F7B0F7B0F0912C9
:1003530021120312120138637E00120138987E00C5
:10036300120138AB7E00120138BB7E0012013876D1
:100373007F00120138008003120138FF810312014C
:1003830038B482031201385F830312013894830364
:10039300120138AC830312013896A903120138669F
:1003A3009703120138729703120138B797031201AA
:1003B30038C29703120138CA9703120138DD970335
:1003C300120138F897031201382198031201383AC1
:1003D300980312013884980312013892980312018A
:1003E30038E19803120138F7D40212013801D5021B
:1003F30012013842D5021201388BD502120138C5D9
:10040300D5021201381BD6021201383CD602120162
:100413003845D60212013899D602120138C2D602E3
:10042300120138CCD6021201383AD702120138CA67
:10043300D70212013825D80212013853D80212010B
:1004430038DBD8021201381AD9021201384FD90207
:1004530012013861D90212013880D9021201388998
:10046300D90212013850DA0212013889A8031201A5
:10047300385DA2031201386699031201389C99036F
:10048300120138D099031201381D9B0312013879E8
:10049300A6031201388FA60312013899A60312018D
:1004A30038E3A603120138F6E80212013809E9021B
:1004B300120138CAE90212013809EA021201382688
:1004C300EA021201385FEA02120138ACEA021201B1
:1004D30038DEEA0212013815EB021201381EED0272
:1004E30012013854A30312013877A303120138A66B
:1004F300A303120138E8A303120138F3BE02120169
:1005030038E6C302120138C1C4021201382AC502F7
:1005130012013862C50212013888C6021201382B53
:10052300F602120138A6F602120138BFF7021201D1
:1005330038C3F8021201380DF90212013892F90298
:1005430012013834FD0112013879FD011201388E90
:10055300FD01120138E8FD0112013872FE0112019A
:10056300381DFF0112013854FF01120138C39E03E5
:10057300120138E89E03120138189F03120138EE66
:100583009203120138339303120138469303120185
:1005930038629303120138A093031201380F9403B6
:1005A300120138F9940312013840A903120138FEED
:1005B3008101120138DC83011201387B85011201AC
:1005C30038268601120138A686011201382B8701CD
:1005D3001201385487011201382F8B01120138A6FA
:1005E3008B01120138BD8C01120138F78C01120105
:1005F30038388D011201387F8E01120138D58E01F2
:100603001201381E8F011201388D8F01120138F942
:100613008F011201382A9001120138429001120110
:10062300385B91011201386B91011201382193015A
:100633001201383893011201386A93011201380C00
:100643009501120138A0950112013808A503120182
:100653003814A503120138B1A503120138ACFF0108
:10066300120138EBFF011201382CAA03120138C31F
:10067300A503120138D3A503120138E2A503120121
:100683003873A6031201385BA103120138E0A103FA
:1006930012013844A203120138F8FF01120138167F
:1006A300AA0312013826AA0312013829AA03120148
:1006B30038F87F00120138329503120138BC9603D3
:1006C3001201381D9703120138639703120138157D
:1006D300A80312013846A80312013873A8031201B4
:1006E3003862FE02120138B4FE0212013827FF02FB
:1006F30012013894FF02120138A79003120138D176
:100703009003120138A091031201387C9203120165
:1007130038BDB60212013889B702120138CAB702CE
:1007230012013804B80212013862B802120138B655
:10073300B80212013814B902120138AAB90212011F
:1007430038B2BA021201383CBC02120138DABC02D8
:1007530012013841BD0212013854BD02120138485A
:10076300BE0212013891BE0212013845F001120196
:100773003877F30112013808F5011201385FF501EA
:100783001201387CF501120138FCF50112013878A9
:10079300F70112013847F801120138B4FB011201C5
:1007A300389EFC01120138109D03120138279D0366
:1007B300120138569D031201388F9D03120138B779
:1007C3009D03120138E59D03120138FC9D031201BC
:1007D30038139E03120138299E03120138509E03D9
:1007E300120138639E03120138799E031201388C7B
:1007F3009E03120138B19E0312013811A4021201A3
:100803003810A50212013845A50212013866A50267
:1008130012013876A50212013897A502120138A3F6
:10082300A60212013870A702120138E3A7021201CF
:100833003869A802120138ACA802120138E3A802F1
:1008430012013869A9021201383BAA021201389930
:10085300AA02120138B1AA021201382BAB0212010B
:10086300382EAB0212013831AB02120138D8AB0279
:10087300120138F0AB0212013820AC0212013840E9
:10088300AC021201382EAD02120138E4AD0212019E
:10089300384EE40212013876E402120138A4E4026D
:1008A300120138DBE40212013843E5021201388CED
:1008B300E502120138D7E50212013815E6021201EA
:1008C3003852E60212013880E60212013827E702A5
:1008D30012013831E7021201383EE7021201387182
:1008E300E70212013833E8021201383FE80212012D
:1008F3003857E80212013861E80212013831A403C3
:100903001201383FA40312013857A4031201386FB0
:10091300A4031201388FA9011201382DAA01120173
:1009230038A5AA01120138BAAB01120138F4AB01A0
:100933001201389DAC0112013872AD01120138D693
:10094300AE011201382DAF01120138B4AF0112010B
:10095300389BB001120138E8B00112013876B101B9
:100963001201389AB1011201386FB301120138B084
:10097300B301120138D2B30112013853B401120189
:10098300383DB50112013803B601120138EBCD022F
:10099300120138BDCE0212013866CF02120138A906
:1009A300CF0212013836D002120138C2D00212012E
:1009B30038A3D102120138D2D102120138CED202A9
:1009C30012013816D30212013818D4021201385C0E
:1009D300D40212013882D4021201380FA703120184
:1009E30038E98303120138FF830312013825840396
:1009F3001201384D8503120138578503120138B0AF
:100A03008603120138B087031201387EDA0212011D
:100A130038B3DB02120138E6DB0212013830DC02A4
:100A2300120138EEDD02120138066F001201386937
:100A33006F00120138AE7000120138BE700012014F
:100A430038E170001201382C7100120138D17100A5
:100A5300120138C77200120138917300120138096C
:100A630075001201384B7500120138E97500120147
:100A7300383676001201385C76001201384A780065
:100A83001201384F7800120138307A00120138848D
:100A93007A00120138E67A001201380E7B00120147
:100AA30038B27B00120138747C00120138A57C0037
:100AB300120138A87C00120138F07C001201383290
:100AC3007D00120138997D00120138518E03120105
:100AD30038648E031201387D8E03120138C88E03E9
:100AE300120138A38F031201383290031201387DAB
:100AF30090031201388C2800120138982800120143
:100B030038D12800120138162900120138CD2900E6
:100B1300120138532A001201387F2A00120138B813
:100B23002A00120138CC2C00120138A82E00120121
:100B330038933000120138CA31001201382A3400C8
:100B43001201381635001201385C3600120138697B
:100B53003700120138863700120138BE3700120100
:100B630038D83700120138403800120138DA3C0017
:100B73001201387B3D00120138CC3D00120138F3DD
:100B83003D00120138413E001201385F3E00120160
:100B930038B33E00120138BB3F0012013843400016
:100BA300120138A4DF02120138AEDF0212013879D4
:100BB300E00212013894E002120138BAE002120195
:100BC30038FEE00212013836E1021201385FE10219
:100BD300120138D8E102120138EDE10212013802A4
:100BE300E20212013839E2021201384DE202120127
:100BF300387EE202120138B8E202120138E4E2025E
:100C03001201383AE3021201388EE302120138D797
:100C1300E30212013801E40212013826E402120150
:100C23003876FA0212013840FB0212013823FC0223
:100C330012013899FC02120138DBFC021201380858
:100C4300FE021201380080021201382980021201CB
:100C5300384280021201388781021201386582020C
:100C630012013884820212013811830212013854AE
:100C73008302120138A18402120138408502120155
:100C830038BF87021201385688021201382A8902B6
:100C93001201380C8A02120138788B021201380BC8
:100CA3008C0212013846A003120138AFA0031201CF
:100CB3003803A1031201382AA1031201388AED0275
:100CC300120138F7ED0212013842EE0212013837F1
:100CD300EF0212013833F0021201381DF102120142
:100CE300384FAE0212013891AE021201386BAF02D7
:100CF30012013844B0021201383FB1021201381E0A
:100D0300B2021201388AB20212013851B30212013F
:100D130038BCB30212013823B4021201384EB402B4
:100D2300120138BFB40212013852B502120138BBA6
:100D3300B502120138D0B50212013818B6021201F9
:100D43003831B60212013896B60212013899B6024A
:100D5300120138578B031201387F8B03120138BD00
:100D63008B031201387B8C03120138E68C031201CA
:100D730038028D031201382A8D031201385A8D036C
:100D8300120138698D03120138E38D03120138090A
:100D93008E03120138B6C60112013893C80112013D
:100DA300388ECA0112013861CB01120138ACCB0174
:100DB300120138F7CB0112013809CC01120138496D
:100DC300CC011201387ECC01120138CACC011201C8
:100DD30038F9CC011201381CCD0112013869CD015B
:100DE300120138F2CD01120138FFCF01120138EAA6
:100DF300D1011201382DD20112013892D30112010F
:100E030038D3D30112013846D40112013892D401E8
:100E1300120138BDD401120138828C02120138AD9F
:100E23008C02120138949302120138B89502120110
:100E330038739702120138D09802120138AA400081
:100E43001201384141001201386E4100120138B4D9
:100E53004100120138F342001201388A44001201A2
:100E6300380445001201381F45001201389445002B
:100E7300120138C346001201381E480012013820FF
:100E830049001201387D4A00120138964A001201C6
:100E930038F34A00120138D54B00120138084C00D0
:100EA300120138784C00120138F24C00120138411B
:100EB3004D001201380D4E00120138124F0012017D
:100EC30038F14F001201387C5000120138EA50000B
:100ED3001201385E51001201388751001201384661
:100EE3005200120138C05300120138DD53001201C1
:100EF30038FC53001201388D5400120138B25400EB
:100F0300120138DA5400120138555500120138AF76
:100F13005500120138035700120138C0570012015F
:100F230038935800120138E7D40112013837D5013C
:100F330012013843D50112013820D601120138506D
:100F4300D60112013888D60112013807D7011201E0
:100F5300383FD70112013891D701120138CED7019A
:100F6300120138F3D9011201381FDC011201381ABA
:100F7300DE01120138F5DF01120138F5FF0112011C
:100F830038DE9501120138289601120138079C01B9
:100F9300120138889D01120138E7A301120138E2DA
:100FA300A4011201381FA50112013842A501120143
:100FB3003884A5011201388DA50112013897A501C6
:100FC30012013883A60112013877A701120138C133
:100FD30058001201383963001201383F63001201CF
:100FE300384B6A00120138BA87031201385088035C
:100FF300120138668803120138E08803120138367B
:101003008903120138748903120138D1890312014B
:10101300384E8A03120138578A03120138638A0350
:10102300120138768A03120138B28A03120138C8D2
:101033008A03120138278B03120138DFF1021201F0
:1010430038ECF10212013806F20212013845F202BD
:1010530012013883F202120138E8F202120138FD5C
:10106300F20212013808F30212013815F3021201D9
:10107300382CF3021201383AF30212013845F30215
:1010830012013851F30212013860F3021201386B76
:10109300F3021201388EF30212013837F4021201FF
:1010A3003847F40212013861F4021201387EF40267
:1010B3001201389AF402120138BFF402120138C93E
:1010C300F402120138DDF402120138FCF4021201B9
:1010D300385DF50212013863F50212013869F50231
:1010E3001201386FF5021201387BF502120138AE96
:1010F300F502120138BBE2011201383DE30112018E
:1011030038E6E3011201382EE5011201383CE7010C
:1011130012013822E80112013857E8011201387927
:10112300E80112013822E901120138F2EA01120141
:10113300381BEB0112013893EB01120138C5EB01A7
:10114300120138D2EB011201381DEC0112013841B2
:10115300EC0112013892EE011201389CEF011201E9
:1011630038F8EF0112013838B80112013849B901D2
:101173001201382DBA0112013837BA011201385958
:10118300BA0112013865BA0112013809BC01120112
:101193003836BC011201384CBD01120138A1BD0122
:1011A300120138F0BE01120138C5BF011201382106
:1011B300C0011201388CC001120138C1C0011201F3
:1011C3003804C101120138CEC301120138E6C3014C
:1011D30012013877C40112013885C401120138D2D3
:1011E300C401120138E0C4011201384CC5011201D7
:1011F30038C7C5011201381EC601120138F398021F
:10120300120138159902120138269B02120138E5A2
:101213009D021201380F9F02120138CD9F02120165
:1012230038B9A002120138579B031201387C9B0383
:10123300120138F29B03120138CEC602120138D7CD
:10124300C602120138E0C602120138B8C702120101
:101253003869C90212013899C902120138C4C90296
:10126300120138F4C9021201381FCA02120138539D
:10127300CA021201387FCA02120138C2CA0212011D
:1012830038EDCA0212013834CB0212013889CB027D
:10129300120138CBCB0212013825CC02120138508F
:1012A300CC021201389FCC02120138CFCC021201BA
:1012B30038FACC0212013828CD021201384BCD0284
:1012C30012013898A703120138C4A703120138F199
:1012D300A703120138FBA7031201380BA80312015D
:1012E30038CBA903120138F8A903E066701008A3EC
:1012F300E066700A08A3E066700408A3E06622C0F3
:1013030008C3E096F50808A3E096420808A3E09610
:10131300420808A3E0964208A2D265D033E50870DC
:1013230001D3D00822C3E7960809E7960809E79690
:101333000809E79622C3E09608A3E09608A3E0967F
:1013430008A3E09622C008C3E096F50808A3E09638
:10135300420808A3E096420808A3E09645087001F6
:10136300D3D00822080808E630E7111217A2121397
:101373007F080808C64480C618181822181818E9E8
:10138300799EC608CAC608CBC608CCC6C3702079E6
:1013930096CACBCC7019798ECBCC70137986CC706E
:1013A3000EF9802ACA33CACB33CBCC33CC331930B2
:1013B300E7F2CCCBCA3350147004EA30E00DE4CA30
:1013C3003ACACB3BCBCC3CCC500209C3E913C6CCC5
:1013D300182313C6CB18C6CA18C6F92212141F2025
:1013E300F01430E72B74FFFCFBFA747F8022E4FCDB
:1013F300FBFA7480801AB48008BC00F2BB00EF8053
:101403000F50EBF9E4C39AFAE49BFBE49CFCE499E8
:10141300C6CC18C6CB18C6CA18C6F922E4C9C60872
:10142300CAC608CBC6D3330308CCC63392F0C394E1
:101433007F402E94184019C9B90704CACBCC225057
:1014430025C309CA33CACB33CBCC33CC33D9F4222B
:10145300F4600DC9CCC313CB13CBCA13CAD9F6CCD2
:1014630022E4FCFBFA2214FCFBFA22E6C3331846FF
:101473001846184622E7C333194719471947221854
:101483001818E6084608700AE608C3337005E63301
:10149300F4220822191919E7094709700AE709C351
:1014A300337005E733F4220922E6084608C31346DE
:1014B30008336002E633F422E7094709C3134709F7
:1014C300336002E733F422001214AC604F1214BBF2
:1014D3006012E7548066F612148270111214787049
:1014E3003B090909F4F618F618F618F622121497B0
:1014F300701512146E08080860EAE6447FF6187641
:101503008018E4F618F62212146E6016121478701E
:1015130012E4F608F608F608E65480F609090918F5
:10152300181822EAC0E0EBC0E0ECC0E0EDC0E0E652
:1015330087F0A4FBACF008E687F0A42CFCE435F0BC
:10154300FA1809E687F0A42C4B60027401CA35F03F
:10155300FCE433FB09E687F0D2F7A42CCB35F0FC8F
:101563001908E687F0A42BCC35F0FBE433FD08190A
:10157300E687F0D2E7A42C4ACB35F0CD3400FC0942
:10158300E687F0D2E7A42DCC35F0FDE433FA091851
:10159300E687F0D2F7A42CCD35F0CA3400FC08E678
:1015A30087F0D2E7D2F7A42ACC35F07A7E20E70B76
:1015B3000ACB33CBCD33CDCC33CC33CB33501470B8
:1015C30004ED30E00ED2F1E4CD3DCDCC3CCC3B502C
:1015D30005DA05C2F1EB547FC63308E63392F0FB1C
:1015E300E73309E733C39A502D2B70190C0D4C4D7B
:1015F30070151806E608C333700D20F10AA2F01324
:10160300F6E418800B4024E4F630F002768018F6F6
:1016130018F618F68024D33B14501074FFA2F0136D
:10162300F6187680E418F618F6800FA2F013F61871
:10163300E63303F618ECF618EDF6D0E0FDD0E0FC47
:10164300D0E0FBD0E0FA22080808EAC0E0EBC0E0F3
:1016530086F0E7A4FA180986F0E7A42AFA1809869F
:10166300F0E7A42AFA180986F0E7A42AFA1986F003
:10167300E7A4FBE5F02AFA190886F0E7A42BFBE5BB
:10168300F03AFA190886F0E7A42BFBE5F03AFA18CA
:10169300180986F0E7A4C5F02BFBE43AFA1908E72A
:1016A300C5F0C6A426F6E5F03BFBE43AFA1886F04B
:1016B300E7A4F6E5F00826F6E43B08F6E43A08F674
:1016C300D0E0FBD0E0FA22E4CFC0E0E4CEC0E0E417
:1016D300CDC0E0E4CCC0E075F020C3E633F608E605
:1016E30033F608E633F608E633F6181818EC33FC3D
:1016F300ED33FDEE33FEEF33FFC3EC9709ED9709AE
:10170300EE9709EF97191919400FFFEC97FC09EDB4
:1017130097FD09EE97FE191906D5F0BEECF709ED12
:10172300F709EEF709EFF7191919D0E0FCD0E0FD3E
:10173300D0E0FED0E0FF221217A51818181216CA1F
:101743001217911919192212179119191908080852
:10175300E618181820E7E01216CA1217A518181869
:1017630022090909E719191920E7DC080808E6180E
:10177300181820E7030216CA1217A518181812160C
:10178300CA1217A518181812179119191922E4C3A8
:1017930097F709E497F709E497F709E497F722180D
:1017A3001818E4C396F608E496F608E496F608E4F7
:1017B30096F6226017080808C6A2E713C618C613D0
:1017C300C618C613C618C613C6D5E0E922601608A4
:1017D3000808C6C313C618C613C618C613C618C648
:1017E30013C6D5E0EA227009080808226016181803
:1017F30018C6C333C608C633C608C633C608C633BD
:10180300C6D5E0EA22E627F60809E637F60809E630
:1018130037F60809E637F622E026F608A3E036F69F
:1018230008A3E036F608A3E036F622E026F008A384
:10183300E036F008A3E036F008A3E036F022C3E672
:1018430097F60809E697F60809E697F60809E69772
:10185300F622C3E0C696F608A3E0C696F608A3E010
:10186300C696F608A3E0C696F622C3E096F008A350
:10187300E096F008A3E096F008A3E096F022E05685
:10188300F608A3E056F608A3E056F608A3E056F6DA
:1018930022E056F008A3E056F008A3E056F008A3B0
:1018A300E056F022E0F608A3E0F608A3E0F608A36A
:1018B300E0F622E6F008A3E6F008A3E6F008A3E6C4
:1018C300F022E0FAA3E0FBA3E0FCA3E0FD22EAF0B0
:1018D300A3EBF0A3ECF0A3EDF022CAC0E0E6F0A383
:1018E30008DAFAD0E0FA22CAC0E0E0A3C582CCC588
:1018F30082C583CDC583F0A3C582CCC582C583CD04
:10190300C583DAE6D0E0CA22C3E498F8E499F91271
:10191300194C8026C3E49AFAE49BFBE920E7E91219
:10192300194CE498F8E499F922C3E498F8E499F996
:1019330012194CE498F8E499F9C3E49AFAE49BFB8E
:1019430022EB20E7CFE920E7E0B90010BB0008E86D
:101953008AF084F8AAF022E4FBC8FA22EB70227B17
:1019630010C833C8C933C9335007C39AC3DBF280E5
:10197300069A50012ADBEAC833F4C8C933F4C9FA1A
:101983002275F008E4C833C8C933C933C99AC99B5F
:101993005004C92AC93BD5F0ECFBC833F4C8E4C9E9
:1019A300FA22600D08C6A2E713C618C613C6D5E00F
:1019B300F322600C08C6C313C618C613C6D5E0F4D9
:1019C30022700422600D18C6C333C608C633C6D5B9
:1019D300E0F41822251810AF08F5184002151980F5
:1019E30008F51840021519D2AF22C0D0251810AF40
:1019F30008F518500205198008F51850020519D288
:101A0300AFD0D0222518F58210AF08F51840021583
:101A1300198008F51840021519D2AF8519832225BC
:101A230018F582E43519F58322E4732518C582C0BD
:101A3300E0E51934FFC583C0E0E518C3958224F8B7
:101A430010AF0885831985821880088583198582DC
:101A530018D2AFCEF0A3E520F0A37808E608F0A3F0
:101A6300DEFAEFF0A3E58124FAF8E608F0A3E6082E
:101A7300F0A3E608F0A30808E608F0A3E608F0A33D
:101A830015811581D0E0FED0E0F81581158115810F
:101A9300E8C0E0EEC0E0222518C582C0E0E51934B5
:101AA300FFC583C0E0E518C3958224F910AF08850C
:101AB30083198582188008858319858218D2AFCE51
:101AC300F0A3E520F0A37808E608F0A3DEFAEFF030
:101AD300A3E58124FBF8E608F0A3E608F0A30808D1
:101AE300E608F0A3E608F0A315811581D0E0FED047
:101AF300E0F815811581E8C0E0EEC0E02285198386
:101B0300851882E0A3FEE0A3F5207808E0A3F60899
:101B1300DFFAE0A3FFE0A3C0E0E0A3C0E0E0A3C0DE
:101B2300E0E0A3C0E0E0A3C0E010AF088582188521
:101B330083198008858218858319D2AFD083D08218
:101B4300020135851983851882E0A3FEE0A3F52001
:101B53007808E0A3F608DFFAE0A3FFE0A3C0E0E023
:101B6300A3C0E0E0A3C0E0E0A3C0E010AF0885821B
:101B7300188583198008858218858319D2AFD0838D
:101B8300D08222C0D02518C582C0E0E51934FFC534
:101B930083C0E0E518C3958224F310AF0885831949
:101BA3008582188008858319858218D2AFC8F0A36F
:101BB300E9F0A3EAF0A3EBF0A37908E709F0A3D8CF
:101BC300FAECF0A3EDF0A3EEF0A3EFF0A3D0E0F076
:101BD300A3D0E0F0A3D0E0F0A3E520F0A3E5F0F07C
:101BE300A322851983851882E0C0E0A3E0F9A3E06E
:101BF300FAA3E0FBA37808E0F608A3DFFAE0FCA36E
:101C0300E0FDA3E0FEA3E0FFA3E0C0E0A3E0C0E0AB
:101C1300A3E0F5D0A3E0F520A3E0A3F5F010AF080F
:101C23008583198582188008858319858218D2AF28
:101C3300D082D083D0E0F8D0E032740480067402FE
:101C430080027401C0E0F404121A07D0E01218DD18
:101C5300227404800474028000CCC0E0EDC0E0E58F
:101C630018C39CCCAD1950011D10AF068C188D19EB
:101C730080068C188D19D2AF1218EAD0E0FDD0E09F
:101C8300FC22D083D082E9C0E0E493A3C386F0C5ED
:101C9300F095F0F908E493A386F0C5F095F0700B86
:101CA300E493A3C3994005E9048002A3E475F00219
:101CB300A42582F582E5F03583F583D0E0F9E4933A
:101CC300A3C0E0E493C0E022D083D082ECC0E0ED77
:101CD300C0E0E493A3FCE493A3FDED4C600D121D5F
:101CE30017EC24FFFCED34FFFD80EFE493A3FCE449
:101CF30093A3FDED4C600D121D56EC24FFFCED3457
:101D0300FFFD80EFD0E0FDD0E0FCE493A3C0E0E46E
:101D130093C0E022C0E0C3E493960874019396183D
:101D2300400FE4936670080874019366187000709E
:101D330019A3A3C3E49396087401939618A3A3402D
:101D43000DD0E0D0E0D0E0021D07A3A3A3A3A3A37B
:101D5300D0E022C0E0C0F088F0E493667008087415
:101D6300019366187000A8F0A3A3700BD0F0D0E025
:0E1D7300D0E0D0E0021D07A3A3D0F0D0E02204
:101D8400C0E074F2121B86A2AFE433FEC2AFE58951
:101D9400A2E150085389FDC2C51203E1EEA2E0920C
:101DA400AF7F01021BE5C0E0C0D0E8C0E0E5A8D2E7
:101DB400AFC2C7751A00A2E792AFD0E0F8D0D0D076
:101DC400E03274F5121A9AEAFEEBFFEE2434F8EFCF
:101DD4003400F988088909EE2435F582EF3400F5DA
:101DE40083E0F8EE2437F582EF3400F583E0F50A5A
:101DF400EC850AF0A4FCAAF0850AF0EDA42AFDE81B
:101E04002CF8E43DF97A257B0012194CEA85088206
:101E1400850983F05407F87401B800028004C333C1
:101E2400D8FCC0E0E0131313541FF8EE28F8EF3485
:101E340000F9E8245DF582E93400F583D0E0F8E0A8
:101E4400586008EE2434F582EF801EEE2436F582C5
:101E5400EF3400F583E0F5F0EA84A8F0EE28F8EF1B
:101E64003400F9E82438F582E93400F583E0F97F99
:101E740004021B4674F5121A9AEAFEEBFFEE2434B0
:101E8400F582EF3400F583E0C0E0EE2435F582EF0F
:101E94003400F583D0E0F08E828F83A3A3A3A3A3A1
:101EA400A3A3C082C0838E828F83A3A3A3A3A3E032
:101EB400F8A3E0F9D083D082E0C398F508A3E099B1
:101EC400F509EE2480F582EF3400F583E0640170B7
:101ED40069EE2481F582EF3400F583E0F8A3E0F99C
:101EE4008E828F83A3A3A3A3A3A3A3E0FCA3E0FDFB
:101EF4008E828F83A3A3A3A3A3E0FAA3E0FBC3EA88
:101F04009CEB9D5027C3EC98ED99402EC3EA98EBC7
:101F14009950277C567D08EEFAEFFB120ED9EE2479
:101F240080F582EF3400F583E4F0800EC3EA98EB89
:101F34009940E0C3EC98ED9950D9EE2434F8EF348D
:101F440000F9E8FCE9FDEE2435F582EF3400F58371
:101F5400E0F8EE2437F582EF3400F583E0F50AE586
:101F640008850AF0A4F508AAF0850AF0E509A42A70
:101F7400F509E82508F8E43509F97A257B001219F2
:101F84004CEA8C828D83F05407F87401B800028007
:101F940004C333D8FCC0E0E0131313541FF8EE2835
:101FA400F8EF3400F9E8245DF582E93400F583D0D4
:101FB400E0F8E0586008EE2434F582EF801EEE2449
:101FC40036F582EF3400F583E0F5F0EA84A8F0EE0C
:101FD40028F8EF3400F9E82438F582E93400F58371
:101FE400E0F9122875021E73C082C08385188285A9
:101FF4001983E0F8A3E0F9C3EA9CEB9D5012C3EC0B
:1020040098ED994019C3EA98EB9950127901801020
:10201400C3EA98EB9940F5C3EC98ED9950EE79003A
:10202400D083D08222EAC39CFAEB9DFB22000000FD
:102034008521878522C622C0E0C0D0E8C0E0E9C07F
:10204400E0EAC0E0EBC0E0ECC0E0EDC0E0C008C0F6
:1020540009C00AC00BC082C083C0F0759B009061A8
:1020640082E0A2E64003022119E591A2E6400302C0
:1020740021197591BF90071BE064057008121011B7
:1020840012101D8003121017752100121077E990A9
:10209400071CF0790012106B120E4F7A017B00902E
:1020A400071AE0F9120441907803E06442600302E5
:1020B40021629008B8E014F06003022162C2AF12FA
:1020C40020C600782AD0E0F618D0E0F6E59F540741
:1020D400F9700590814E800390814A78081218A700
:1020E400E9C4C0E07829E65508F50808E65509F57D
:1020F40009740B78081219B5D0E02508F8906270BD
:10210400E0A2E740F8E8C333906272F0906270E0B6
:10211400D2E0F08049E0A2E55024E591A2E5501E0A
:102124007591DF90071BE0640D701390073DE00488
:10213400F064287002E4F07A00E0F91210E990618A
:1021440081E0A2E35009E5E9A2E3500375E9F7A3AE
:10215400E0A2E75009E591A2E7500375917FD0F022
:10216400D083D082D00BD00AD009D008D0E0FDD0E3
:10217400E0FCD0E0FBD0E0FAD0E0F9D0E0F8D0D039
:10218400D0E032C0E0C0D0C082C083906183E0A2BE
:10219400E05009E5BFA2E0500375BFFEE0A2E150A4
:1021A40009E5BFA2E1500375BFFDE0A2E25009E5D5
:1021B400BFA2E2500375BFFBE0A2E35009E5BFA252
:1021C400E3500375BFF7E0A2E45009E5BFA2E45071
:1021D4000375BFEFE0A2E55009E5BFA2E550037522
:1021E400BFDFE0A2E65009E5BFA2E6500375BFBF1A
:1021F400D083D0828088C0E0C0D0E8C0E0E9C0E0ED
:10220400EAC0E0EBC0E0ECC0E0EDC0E0C0F0E5A760
:10221400A2E6500FE5A1A2E6500953A7BF75A1BFDE
:1022240012225FE5A7A2E5500CE5A1A2E5500653F2
:10223400A7DF75A1DFE5A7A2E15009E5A1A2E1505E
:102244000375A1FDE5A7A2E2500CE5A1A2E25006A8
:1022540053A7FB75A1FBD0F002217074F8121A9AEF
:1022640075210190071BE064067015120FA58A8280
:102274008B83A3A3A3A3A3A3E0FAA3E0FB120FFF02
:10228400A2AFE433FED2AF900721E0640170187A64
:10229400207B0090071AE0F91204CB7A207B00908F
:1022A400071AE0F9120447906182E0D2E6F0900840
:1022B400B7E0602185C6228016900720E064017093
:1022C40008E5C654F84405F5C653BEFC1220347420
:1022D40001652160E4EEA2E092AF7F01021B46009B
:1022E4008E238F24858228858327851882851983E8
:1022F400E0CEA3E0CF852882852783EBC9EAC8ED29
:10230400CBECCA75F010C3E833C8E933C9EA33CA61
:10231400EB33CBC3EA9EF526EB9FF525B35004AB14
:1023240025AA26EC33CCED33CDD5F0DAAE23AF2499
:102334002274EB121A9A74FA1219D78A088B098C30
:10234400148D1590071BE024F7C394055006908163
:10235400A2022497120FA58A0A8B0BAE0AAF0BEECA
:102364004F7003022494AC08AD0985188285198343
:10237400AA82AB8312102F8E828F83A3A3780812B4
:1023840018A790816E7808121881851882851983A0
:10239400780C1218A790816E780C1218817808793D
:1023A4000C121328501F7808790C121841908116CA
:1023B40078081213484047850810850911850A12C8
:1023C400850B138041850C10850D11850E12850F28
:1023D4001378107908121841908116781012134856
:1023E400501C7510007511007512007513017810DA
:1023F400790C121841781079081218088008908115
:10240400A278101218A7740978101217E990811293
:1024140078081218A7781079081216CA8E828F834A
:10242400A3A3A3A3A3A3E0F8A3E0F97AD07B0312A8
:10243400194C88088909E4F50AF50B781079081213
:1024440018087404121A22E0F8A3E0F97AD07B0386
:1024540012194CE8FA8A08E4F5097810790812137D
:102464002850077810790812184190071BE0640877
:10247400600AE064066005E06405701C90810E78D3
:1024840010121348501290810A781012181B8008F9
:102494009081BA78101218A7851482851583781054
:1024A4001218B674061219ED7F0E021B4674F71249
:1024B4001A9A1210419008B5E064017010906245B8
:1024C400E4F0A3F053F4F343FE0C5390F3120FED36
:1024D400E5C654804449F5C6E59E547F644970F8C6
:1024E400906185740FF09008B3E0F47002A3E0608B
:1024F4004E9008B4E0600814601B14602E80407590
:1025040008017509009008B3E078081219C4E508B9
:10251400F45280802A7508017509009008B3E078A8
:10252400081219C4E508F45290801475080175095D
:10253400009008B3E078081219C4E508F452A079B1
:10254400007F02021B4674F7121A9AE9FEEAFF742E
:10255400016E700C7A807B0090071AE0F912044136
:10256400902884E493F46008E493F9120E438009FC
:1025740053C680E59E547F70FA120FF39008B5E0BD
:1025840064017003120E5B9008B3E0F47002A3E0E0
:10259400604B9008B4E0600814601A14602C803D0D
:1025A4007508017509009008B3E078081219C4E5AC
:1025B40008428080287508017509009008B3E07806
:1025C400081219C4E50842908013750801750900C2
:1025D4009008B3E078081219C4E50842A01210412B
:1025E400120FA58A088B09A808A909E8496015E50E
:1025F400E170FCE82414F582E93400F583E0F4602A
:1026040003E0F5E174016F700A7A0190071AE0F9AA
:1026140012049B02254574F1121A9A8A088B098CBC
:102624000A8D0B740F121A22780C1218A790816E5F
:10263400780812188190816E780C121881780879C4
:102644000C12132850157808790C12184190811631
:102654007808121348401579018013780C79081210
:102664001841908116780C12134840EB79007F08CA
:10267400021B4674ED121A9A8A088B098C0A8D0B78
:102684007413121A22780C1218A790816E7808120B
:10269400188190816E780C121881780C79081213C5
:1026A4002840117808790C121841AA08AB09AC0A21
:1026B400AD0B8022751000751100751200751301A1
:1026C4007810790C12184178107908121808AA1099
:1026D400AB11AC12AD137F0C021B4690816E7808CF
:1026E4001218A78A828B8378081218947F04021B1D
:1026F4004674F5121A9A8C828D8378081218A78A68
:10270400828B83780812186DEA2404F8EB3400F9FC
:102714008C828D83A3A3A3A3E0FCA3E0FD8882891C
:1027240083C3E09CF0A3E09DF088828983C3E09496
:1027340020A3E0944E40229081AE78081218A78A14
:10274400828B83780812182E8A828B83A3A3A3A377
:10275400E02420F0A3E0344EF0808074F5121A9A3D
:10276400E9FE90086DE0FAA3E0FBEEC333F8E4332E
:10277400F9748128F582748039F583E02AF508A379
:10278400E03BF5097808121C419081421218C512E9
:1027940022E474021219ED8A088B098C0A8D0B74D9
:1027A4001078081217D0AA08AB097F04021B4674DC
:1027B400F1121A9A8A0C8B0D8C0E8D0F740F121A4B
:1027C40022E0FAA3E0FB7411121A22E0F508A3E058
:1027D400F5097413121A22E0FEA3E0FF7808121C14
:1027E40041EA2401F508EB3400F509E4F50AF50B98
:1027F400780C790812164A90811A78081218A7786A
:102804000C790812164AAA0CAB0DAC0EAD0F1222AD
:10281400E474021219ED8B09EA450960047A018017
:10282400027A00EC2AFCED3400FDECF8EDF97A7143
:102834007B0212194C88088909E4F50AF50B8E828B
:102844008F8378081218B6ECF8EDF97A717B0212CE
:10285400194C8A088B09740578081219C48E828F62
:1028640083A3A3A3A3E508F0A3E509F07F08021B53
:0F28740046C082C083E9906000F0D083D08222FA
:10288400FFFFFFFFFFFFFFFFC082C083E9900C7BC7
:10289400F0022AAB74F7121A2EE9900639F07C7113
:1028A4007D067AFF7BFF120B7F90063A74FFF0A33C
:1028B400F0A3E4F0A3F07905120B0D900639E0F9CA
:1028C400120A357A977B0B120D590237B974F41238
:1028D4001A2E8A088B09EB54806030900639E0F98F
:1028E4001204298A0A8B0BAE0AAF0BEE4F60138ECB
:1028F400828F83E064B07003120B1FEEFAEFFB12B9
:102904000417AA08E5096480FB80047A007B0002AE
:102914002A7A74F2121A2E74FC1219D7EAFEEBFF0B
:102924007412121A22123CA0EE4F70030229B974D9
:1029340002121A22EEF0A3EF122CB5ECF0A3ED1262
:102944002CB5AA82AB83120A2FE9F50A706AE5084E
:10295400450960648E828F83123C86EE4F60567AFE
:10296400067B001204838A0C8B0DA80CA90DE84980
:102974007005750A13804188828983E41229C6EEA2
:10298400F0A3EF123CB1E508F0A3E509F090063F8F
:10299400122A4D90063F7005123763801B1237517F
:1029A4008003EAFCEBFD8C828D83122A4D70F38C3C
:1029B400828D8380E3750A02A90A74041219ED0258
:1029C4003EA0F0A3123C57A32274F2121A2E890AD5
:1029D400E975F017A4FEAFF090063EE4F090063CD3
:1029E400122A4D600A12048990063CE4F0A3F0EE2A
:1029F400FAEFFB1204838A088B09EA4509602FEE7B
:102A0400FCEFFD790012040590063CE508F0A3E50F
:102A140009F07B008008122A37E4F0A3F00BEBC323
:102A2400950A40F2E50A90063EF079008002791397
:102A3400023EA0EB75F017A4F8A9F090063CE0283C
:102A4400FAA3E0398A82F583221233F5EA4B227421
:102A5400F4121A2E7900EAA2E0501B7508EC7509ED
:102A6400807808121C417C047D007A7D7B0C120B5B
:102A74000774021219ED7F04021B00C082C0839008
:102A8400063F122AB2601C88828983A3A3E06A707D
:102A940003A3E06B8882898370E8A3A3A3A3123302
:102AA400F180047A007B00D083D082020135123F8A
:102AB40086E8492274EE121A2E74FC1219D7EAFE23
:102AC400EBFF851882851983E4F0A3F0EE2402124B
:102AD4003743EE2405123C5EEE2404F50EEF12306B
:102AE4006AE024FE603924FC604624FE605224FE21
:102AF400605E24FE7003022BCB24FE7003022C2F95
:102B040024FE7003022C3E24FE7003022C4D24FC90
:102B14007003022C5C24FE7003022C6B022CA89020
:102B240006587417F0A3E4122CBD1207AD022CA8AA
:102B3400851882851983AC82AD83120B25022C780B
:102B4400851882851983AC82AD83120B2B022C78F5
:102B5400850C08850D097402121A22AC82AD838596
:102B640008828509831233F1120A538A0C8B0DAC47
:102B74000CAD0DEC4D603BE4F50CF50D780C121C1E
:102B840041750C58750D06780C121C41750C59755D
:102B94000D06780C121C417408121A22121C5812C9
:102BA4003FAA1219EDE9F50C700B1233E71207C5B1
:102BB400800F750C01850882850983122CAB1237AE
:102BC40063850C08022C7B7402121A22AC82AD833A
:102BD400850C82850D831231BC603C850C82850D89
:102BE40083A3A3121C587510587511067810121C73
:102BF400417510597511067810121C417408121A87
:102C040022121C58123FAA1219EDE9F509700B1291
:102C140033E71207CB800F750901850C82850D837C
:102C2400122CAB123763850908804C8518828519EC
:102C340083AC82AD83120B31803A85188285198367
:102C4400AC82AD83120B37802B851882851983AC37
:102C540082AD83120B3D801C851882851983AC825A
:102C6400AD83120B43800D851882851983AC82AD28
:102C740083120B49E9F508E50860298E828F83A346
:102C8400E06414601F850E82850F83E0900658125D
:102C94002CB5123F82900659123763E508A3122C13
:102CA400BD1207A7023652123F8685188285198302
:102CB40022F085188285198322F07C587D06850AC6
:102CC40082850B831233F52274EE121A2E74FC12D1
:102CD40019D78A0A8B0B8C0E8D0FEA2405F508EBA5
:102CE4003400F5097C157D0079007A587B061204BE
:102CF40005E5082402F50CE509123C618518828576
:102D040019838582108583117810121C41850882ED
:102D1400850983A3A3A3A31231B3121C41E508249C
:102D240005F510E5093400F5117810121C41850CE5
:102D340082850D83123508120A4D74061219ED8A24
:102D4400108B11AE10AF11E50A2402F50AE50B123F
:102D54003746EE4F7003022E8A80177402121A222D
:102D64001233F188828983EAF0A3EBF0900658E0ED
:102D740004F0900658E0C394054003022E8AE4F55B
:102D840010F5117810121C41751041751106781058
:102D9400121C417510427511067810121C417406FC
:102DA400121A22121C587910EEFCEFFD123FAC12DD
:102DB40019EDE9705E850882850983A3A3A3A3A303
:102DC400A3A3E0F8900641E06870481231B3121CE6
:102DD400417C427D06E5082408FAE5093400FB122B
:102DE40003FF74021219EDE960298E828F83A3A375
:102DF400A3A31233F1900658E0F510740278101270
:102E040019C474592510F58274063511F583EAF056
:102E1400A3EBF07402121A228582108583117810B4
:102E2400121C417402121A22121C58850C82850D40
:102E3400831234171219ED8A108B11AE10AF119052
:102E44000658E0F510751100740278101219C47454
:102E5400582510F874063511F988828983A3122A3B
:102E64004D7003022D56E82403080808E93400F9DC
:102E7400EE4F6003022D5F8882898374FFF0A3F014
:102E8400900658E004F0900658E0600A1233E71206
:102E940007B97900800B85088285098312375A792E
:102EA4000A02365274EA121A2E74FE1219D78C12C0
:102EB4008D13EA2405F50CEB123F94123C8A750835
:102EC40000750900EA2402F510EB3400F5118518A9
:102ED4008285198385820A85830B780A121C4185B1
:102EE4000C82850D83A3A3A3A3123080121C41E599
:102EF4000C2405F50AE50D123746780A121C4185A3
:102F04000C82850D83123084120A4D74061219ED59
:102F14008A0A8B0BEA450B7003023025EA2404F578
:102F24000EEB12306A123C8A8A828B83A3A3A3E03D
:102F3400F98510828511831233FB6003023025E486
:102F4400F514F5157814121C41751441751506789D
:102F540014121C417514427515067814121C417420
:102F640006121A22121C587913AC0AAD0B85108272
:102F7400851183123FB21219EDE9F509600302309D
:102F840025900641E0F8E5087009E024029006590E
:102F9400F08014900659E0FCE82402FAE43400FBC3
:102FA400EA6C7001EB707E850882AA821231AA94C1
:102FB400141231A2506B850E82850F83E0C0E07439
:102FC4005A2A123061D0E0F00508850E82850F83FD
:102FD400A3E0C0E085080A745A250A123061D0E0E3
:102FE400F00508900641123080121C417C427D0697
:102FF40085080A745A250A1230741219ED90064194
:10300400E02508F50874FF6E700374FF6F6012EE1C
:1030140024010EEF3400FFE508C394145003022E7C
:10302400D2E50860131234058510828511831233AA
:10303400F11207BF79008014E509700375090A8548
:103044001282851383EEF0A3EFF0A909740212191A
:10305400ED7F0E021B0085080C745A250CF5827452
:10306400063400F583223400F50F850E82F58322A1
:10307400FA74063400FB1203ED740222123CC022DF
:10308400A3A312308A22123751FDEEFAEFFB227409
:10309400EE121A2E74FE1219D78C0E8D0FEA240527
:1030A400F50CEB123C61750B00900658E4F0F50A40
:1030B400EA2402F508EB3400F5098044900658E050
:1030C400FA900641E0F81231AA94171231A2400D89
:1030D400900658E0F87416C398900641F01231B384
:1030E400121C417C427D0674592AFA740612307708
:1030F4001219ED900641E0F8900658E028F0050A10
:10310400E50C2416F582E50D123065E0F8E50AC3F6
:10311400985074900658E0C39416506BE50AC33374
:10312400F8E433F9E50C28FEE50D39FF85188285AE
:103134001983AC82AD838E828F831231BC70087583
:103144000B011237568050E4F510F5117810121C5B
:10315400417510417511067810121C4175104275A5
:1031640011067810121C417406121A22121C587986
:1031740016850882850983123FB21219EDE9F50B11
:1031840070030230C080BB7C587D068508828509A7
:10319400831233F11207D1A90B7402023654E99455
:1031A40000C365D03322EA28F8E43400F9E822E0C9
:1031B400F5107511007810221236498A108B11AC63
:1031C40010AD11EC4D2274EA121A2E74FC1219D7A8
:1031D4008A0C8B0D8C128D13EA2405F50AEB123739
:1031E40046750800750900E50A2402F510E50B345C
:1031F40000F5117402121A2285820E85830F780E4F
:10320400121C41850A82850B83A3A3A3A3123C66E7
:10321400121C41E50A2405F50EE50B3400F50F7880
:103224000E121C4185108285118312374C1233EB28
:10323400120A4D74061219ED8A0E8B0FAE0EAF0FE3
:10324400E50C2402F50EE50D3400F50F8038888274
:10325400898374FFF0050812305A74FFF005089052
:103264000641E0F50C750D00780C121C417C427D82
:103274000685080C745A250C1230741219ED900648
:1032840041E02508F508EE4F60278E828F83A3A3C3
:10329400A3E0F9850E82850F831233FBEE2404121A
:1032A4003C5EE96027850C82850D831233DD12377D
:1032B40063E50870030233C3123405850E82850F5B
:1032C400831233F11207D779000233D8E4F514F5E9
:1032D400157814121C417514417515067814121CC6
:1032E400417514427515067814121C417408121A9B
:1032F40022121C587911EEFCEFFD850E82850F8396
:10330400123FB21219EDE9F509709A850882AA8272
:10331400EA9006417009E02404900659F08025E003
:10332400F8900659E0F514E82404FCE43400FDECBC
:1033340065147001ED70811231AA94121231A24009
:10334400030232BC850C82850D83E0C0E0745A2AE6
:10335400123061D0E0F00508850C82850D83A3E06E
:10336400C0E012305AD0E012342085820C85830DDF
:10337400780C121C417404121A22121C58851082F3
:103384008511831234171219ED8A0C8B0DAE0CAF14
:103394000D85080C745A250CF874063400F9EE4FA8
:1033A4007003023252851882851983E088828983EA
:1033B400123420A3E0C0E012305AD0E0023260E5BB
:1033C40009700375090A850A82850B831233DD129D
:1033D4003763A9097404023052123F86851282852C
:1033E4001383227C587D06850A82850B831233F56C
:1033F40022E0FAA3E0FB221233F5120A3BE9F509B5
:1034040022900659E0F5F0E50884900658F07C58BF
:103414007D062212308A120A59740422F0050885A6
:1034240018828519832274EC121A2E74FE1219D78D
:103434008A088B098C0E8D0FEA2405FEEB3400FFFD
:10344400123633EE2418123C5EEA450B7003023444
:10345400D612361C50291234FB8A108B11EA4511FE
:10346400606B7912AC0AAD0B85088285098312332F
:10347400F1851082851183121A2CE9F50A7058E43B
:10348400F50AF50B780A121C418E828F83A3A3E000
:10349400F50A780A121C41EE2403123743780A1203
:1034A4001C418E828F83123508120B6D740612191B
:1034B400EDE9F50A7021850C82850D83E0701F8586
:1034C40008828509831233F11207DD8011750A0E13
:1034D4008009750A018004E50A6003123756850CD9
:1034E40082850D83E0600479008002A90A740212C7
:1034F40019ED7F0C021B008518828519831233F5A0
:10350400120B5B22123751FD850882850983123321
:10351400F52274EE121A2E74FE1219D78A088B093A
:103524008C0C8D0DEA2405FEEB3400FF750E0012A1
:103534003633EA450B70030235FA12361C502C124E
:1035440034FB8A0E8B0FEA450F604A7912AC0AAD40
:103554000B8508828509831233F1850E82850F83DA
:10356400121A2CE9F50E60030235FD8508828509DF
:1035740083123838AA0AFB12360E70147AFF7BFFC6
:1035840012360E606C88828983E50AF0A3E50BF09D
:10359400750A008007750E0E805F050A90063EE0EE
:1035A400FAE50AC39A504AE50A75F017A4FAABF093
:1035B40088828983A3A3E02AFAA3E03BFB8A828B57
:1035C4008312374CEC4D70D2750A17750B00780ACC
:1035D400121C41EEFCEFFD1203ED74021219EDEE24
:1035E400FCEFFD8508828509831233F11207E3801D
:1035F40014750E098003750E01123F7E850C8285B9
:103604000D83123763A90E02319D120B4F8A108B62
:1036140011A810A911E84922E5082402F508E509D2
:103624003400F5098A828B83A3A3A3E0A2E5228553
:103634001882851983AC82AD838E828F83123649BA
:103644008A0A8B0B22E0FAA3E0FB120A53227404C9
:103654001219ED7F0A021B0074EC121A2E8C108DC5
:1036640011EA2405F50CEB123C61750F00EA240203
:10367400F50AEB123746850A82F5831233F11240BC
:10368400387003023738750E008071850C82850D01
:1036940083E06401704F8E828F83A3A3121C588E23
:1036A400828F83A3A3A3A3E0F512751300781212EB
:1036B4001C41EE2405F512EF3400F5137812121CA8
:1036C400411233EB120B6D74061219EDE9F50F601C
:1036D40014850C82850D83E4F0123F7E851082856B
:1036E40011831237637C177D007900EEFAEFFB1229
:1036F40004058E828F83E4F0A3F0050E90063EE06D
:10370400F8E50EC398501EE50E75F017A4F8A9F05D
:10371400850882850983A3A3123F9E12374CEC4D82
:10372400600302368F85088285098374FFF0A3F055
:10373400E50F70061233EB1207E9A90F0234F6F510
:103744000AEF3400F50B22A3123751FD22E0FCA34B
:10375400E0228E828F83123F86850E82850F83E856
:10376400F0A3E9F022C082C08390063AE06A7003B5
:10377400A3E06B70067A3A7B0680047A007B000231
:103784002AAB74F7121A2E7F00EF75F003A4F8A980
:10379400F0EC28F8ED39F988828983E06A7003A394
:1037A400E06B7006E8FAE9FB800B0FEFC39402406C
:1037B400D87A007B007F01021B0074F6121A2E12C5
:1037C4003D6F70067A007B008007A3A3A3A3123386
:1037D400F1023E3074F2121A2EE9FE740E121A220D
:1037E4001238387410121A22123CA08C828D83E095
:1037F4006402703BA3123F8288828983E0F50CA3A4
:10380400E0F9A80C74026870037429697021750CBE
:1038140002750D00780C121C417808121C41780ABC
:10382400121C41EEF9120B9174061219ED80027903
:1038340001023EA0E0F50AA3E0F50B2274E8121A97
:103844002E74FB1219D7E9851882851983F08A161C
:103854008B178C0E8D0F741F121A22123CA0742128
:10386400121A221238387423121A22123C8A751042
:10387400008C828D83A3A3A3E0A2E4502A741D12BA
:103884001A221235018A828B83E5824583700302F2
:10389400394C790AAC0EAD0FAA16AB17121A2CE9E3
:1038A400F510600302394F850E82850F83E06402B0
:1038B4006003023C05A3123F82850882850983A325
:1038C400858212858313E50E2406F50CE50F123C60
:1038D4006188828983E0FAA3E0F9EA2400F514E41C
:1038E40039F5157814121CCB01000028012814396D
:1038F40007000228EB3903285B390029153B01290D
:103904003D3B0229E43A0329153B0429A63B053C27
:10391400EE4F703E850C82850D83123C7BFAE9FBE9
:103924008A828B83E0850A82850B83123CB7121C42
:10393400418A828B83A3123751FDAA08AB09120373
:10394400ED74021219ED800375100EA910740502AE
:103954003F8C75100B80F4EE4F70F7850A82850B4F
:10396400837401F0123C90850882850983F07C0001
:103974007D00850E82850F83A3A3A3A3E02401FA0F
:10398400A3E03400FB120A53EA4B60418A828B8322
:10399400E02402F8850A82850B83E028F0EA2404F7
:1039A400F8EB3400F988828983E0851282851383D9
:1039B400123CC9123CB7121C418A828B8312374BCA
:1039C400E5082403FAE5093400FB023942850A823A
:1039D400850B83E02404F07C047D007900AA12ABFB
:1039E4001312040502394FEE4F6003023956123C9C
:1039F40090FEA3E0FF850A82850B837404F0EE85B4
:103A04000882850983F0EF851282851383F074039D
:103A1400121A22AC82AD83EEFAEFFB123D5D700305
:103A2400023AC18A828B83A3A3123C867401121AC0
:103A34002285820E85830F780E121C417405121A9A
:103A440022121C587CFF7DFF120A5974041219EDCE
:103A54008B0FEA450F7033850C82850D83123C660B
:103A6400121C41850C82850D83A3121C587C027D97
:103A7400007AD97B8112088574041219EDE9700A61
:103A84007401121A2274FFF0A3F08E828F83E06413
:103A9400027034750C02750D00780C121C418E8274
:103AA4008F8312374BE5082404FAE50912307712A4
:103AB40019ED850A82850B83E024028009740112C2
:103AC4001A22EEF0A3EFF07401121A22123C77F0DE
:103AD4007401121A22A3123C6FA3A3A3F002394F5C
:103AE400EE4F6003023956850C82850D8312374CE4
:103AF400AA16AB17120B85850A82850B837402F014
:103B0400EA850882850983F0851282851383EB8018
:103B1400CBEE4F6003023956123C90F8A3E0F985CE
:103B24000A82850B837402F0E8850882850983F094
:103B3400E985128285138380A3850C82850D831207
:103B440033F11203E7EAFC8C82A882C39EE49F400F
:103B54004BE86E7001EF70047C00801F851882852D
:103B64001983E0FAEE2AFAEF3400FBC3EA98EB94E7
:103B7400005003E08004EECCC39CFCEC850A8285F3
:103B84000B83F08C0A750B00780A121C41850C8299
:103B9400850D83E02EFCA3E03F02393D751007023A
:103BA400394FEE4F6003023956850C82850D83121E
:103BB4003F82850A82850B837407F0888289831289
:103BC4003C6F123C57E0851282851383F0E824028F
:103BD400FAE93400FB8A828B83123C6F123CA812F0
:103BE4003C77A3123CB1123C80F0E82405F8E93498
:103BF40000F988828983123C80A3123CC9A3023A4B
:103C0400DD741D121A22123D68700302394C123FF2
:103C140082880C890DE8450D700302394C8E108F93
:103C2400117810121C41780A121C417808121C41A8
:103C34007406121A22E0F9AC0EAD0FAA16AB178562
:103C44000C82850D83121A2C74061219EDE9F510F5
:103C540002394FF088828983A322F50CEF3400F5F2
:103C64000D22E0F50E750F00780E22E0850882859E
:103C7400098322123CD022123F86E822123CD0A3B0
:103C8400A322A3A3A3A3E0FEA3E0FF22850C8285C5
:103C94000D83E0F8A3E0F5838882E022E0F508A331
:103CA400E0F50922A3A3F08A828B83A3221229C8F8
:103CB400A3A322F08A828B83123CC022E0F50A750A
:103CC4000B00780A22123C57123CD022E08508826D
:103CD400850983A3A32274EE121A2E74FE1219D737
:103CE4008A0A8B0BECFAEDFB7414121A22E0F5101D
:103CF400A3E0F5117416121A22E0FE7418121A22A7
:103D0400E0F50EA3E0F50F851882851983AC82AD2A
:103D140083123D5D603E851882851983123D68607B
:103D24002FA3A3123CA0E50845096024780E121CB9
:103D3400417810121C41EEF9AC0CAD0DAA0AAB0B84
:103D4400850882850983121A2C74041219ED8006E1
:103D5400790E8002790102319D120A538A0C8B0D6F
:103D6400EA450D221233F5123D6F22120B198A8295
:103D74008B83E58245832274F6121A2E74FE12197F
:103D8400D7740C121A22123C7B851882851983F091
:103D94007401121A22E9F0E4F508F5097808121CF6
:103DA400417508027808121C417404121A22858293
:103DB400088583097808121C41120B6D74061219C8
:103DC400ED74021219ED806474F7121A2EEAFEEBF8
:103DD400FF89087C717D06120B85EA5402600BA9E9
:103DE40008EEFAEFFB120A47800279010237B97430
:103DF400F6121A2E74FF6A700374FF6B701C7B003A
:103E0400EB75F003A4F8A9F0EC28F8ED39F9123EAB
:103E1400350BEBC39402501480E6120B558A088BC1
:103E240009A808A909E8496003123E357F02021B6C
:103E3400008882898374FF1229C6E4F02274F61282
:103E44001A2E120B558A828B83E58245836006A362
:103E5400A3E0FA80027A007B0080D174F2121A2E59
:103E64008A088B09ECFEEDFF740E121A22E0F50AA3
:103E7400123EA5701CEEFCEFFD7AFF7BFF123EA5FF
:103E840070047911801688828983E508F0A3E50916
:103E9400F088828983A3A3E50AF079007F06021BD8
:103EA40000120B558A0C8B0DA80CA90DE84922743D
:103EB400EE121A2EEAFEEBFF8C088D09890C74129F
:103EC400121A22123F827414121A2212374C7416D8
:103ED400121A221233F1750D00EC4D6003023F7685
:103EE4007402650C6003023F718882898312375122
:103EF400F9EC2400F50EE439F50FEAF4F8EBF4F9E3
:103F0400EC58F8E50F59F9E849705DE5082406F81E
:103F1400E5093400F9880A890B8882F58312308612
:103F2400120B858A108B11E50E65107004E50F6580
:103F3400116042780E121C41850A82850B8312306F
:103F440086120B8B74021219EDE9F50D7027780EA9
:103F5400121C41850882850983A3A3123084120BA5
:103F64009D74021219ED800D750D808008750D0D7C
:103F74008003750D0BA90D0236578E828F83123F75
:103F84008622E0F8A3E0F9221219ED7F10021B004B
:103F94003400F50D850C82F58322E028FEA3E03978
:103FA400FF8E828F83227916850A82850B831233D2
:103FB400F5120B6774082274F2121A2EEAFEEBFF54
:103FC400890B7401650B600E7402650B70637901D3
:103FD400120D77E9705BEEFAEFFB1240386047751B
:103FE4000A00800B7C177D007900120405050A90F5
:103FF400063EE0F8E50AC3985021E50A75F017A4D7
:10400400F8A9F0850882850983A3A3E028FAA3E030
:1040140039FB8A828B83122AB270C985088285098A
:104024008374FFF0A3F07C717D06EEFAEFFB120BB4
:104034007F023EA0120B4F8A088B09EA45092274BD
:10404400F2121A2E8A088B09ECFEEDFF740E121A76
:1040540022123838900C7BE0F4603D7A097B001220
:104064000411EA4B60328A828B8374B1F0A3E412A8
:104074003CAAA3123CA8A3E508F0A3E50912409FBB
:10408400EEF0A3EF12409FA3A3E50AF0A3E50BF023
:10409400900C7BE0F912041D023EA0F08A828B830F
:1040A400A3A3A3A3A322C082C0839061907404F04D
:1040B400A37448F0A37402F09061807440F090619E
:1040C400BC7403F09061877419F0906265741BF0FE
:1040D40090619C740DF090619A7433F0A37455F060
:1040E4009061A0743AF09008B5E064017009C2913F
:1040F40090071F7467800590071F7461F090288AE9
:10410400E493906186F0902884E493F46027E49328
:10411400540FF8906185E0686012E5C65480444904
:10412400F5C6E59E547F644970F8E8F053C680E50F
:104134009E547F70FA79051210CB0242ECC082C003
:1041440083E9540FF9906185E0696012E5C65480F3
:104154004449F5C6E59E547F644970F8E9F053C6B6
:1041640080E59E547F70FA0242ECC082C083E5A8C9
:10417400F853A87E906181E4F0A3F0A3F0C2BA538F
:104184009AFEC289759B00C2C275E90075910075DB
:10419400BF0075A91175B905906181F0A374C0F0D1
:1041A400A3E4F0D2BA439A0174805842A80242ECC4
:1041B400C082C08374F81219D790071DE0F8A3E0F9
:1041C400F9E84970030242E290071DE0544060237D
:1041D4007908851882851983AA82AB83120F3385E7
:1041E4001882851983AA82AB83120C0990071DE0FB
:1041F40054BFF0E054806010790C7AD97B08120F18
:104204003390071DE0547FF0E0A2E0503190619AB2
:104214007433F0A37455F09061A0743AF09008B52B
:10422400E064017009C29190071F746780059007CC
:104234001F7461F0120C0F90071DE054FEF0E0545F
:1042440002603190619A743FF0A3745AF09061A0B7
:10425400747FF09008B5E064017009D29190071F53
:104264007471800590071F746AF0120C0F90071D7B
:10427400E054FDF0E054046013902888E4939061C6
:1042840086F0120C1590071DE054FBF0E054086012
:1042940013902889E493906186F0120C1590071D01
:1042A400E054F7F0E05410601390288AE49390618E
:1042B40086F0120C1590071DE054EFF0E0542060D6
:1042C4000A120C1590071DE054DFF0A3E0540160BE
:1042D4000D120E5B120C1B90071EE054FEF07408C6
:1042E4001219ED8003F0A3F0D083D082020135745B
:1042F400EC121A2E74F41219D7851882851983AC1E
:1043040082AD8375838175826674041218EA9028DD
:104314008893F46003024480907808E0C3940250C8
:10432400030244607404121A22AC82AD8375838044
:104334007582D774081218EA8518828519838582D4
:10434400128583137404121A22AC82AD83750EFF96
:10435400750FFF7FFF7E00750C48750D788015740E
:10436400086E70030243F374096E70030243F3741E
:104374000A6E607B850C82850D8378081218A78CE1
:10438400828D83A909E50AC9F8881074187808127F
:1043940017D0E5104508F8C3E098A3E099850C828E
:1043A400850D8378081218A740188C828D837418A1
:1043B40078081217D0E5104508F8E0C398F8A3E090
:1043C400801C741878081217D0E5104508FAE9FB28
:1043D4008C828D83E0F8A3E0F9EAC398F8EB99F9AD
:1043E400C3E8950EE9950F5006880E890FEEFF0E6F
:1043F400E50C2404F50CE50D3400F50DEEC394131F
:10440400500302436374FF650E700474FF650F600C
:10441400238F08740278081219C474482508F58299
:1044240074783509F58378081218A78512828513E4
:1044340083E508F0EC24020C0CED3400FD851282B7
:10444400851383A3858212858313740C121A22E5C3
:10445400826C7003E5836D60030243517508017536
:1044640009007808121C417402121A22AC82AD832E
:104474007A227B0A12068D74021219ED740C121939
:10448400ED7F0C021B00C082C0839061AE7468F0A3
:10449400A3746AF090624574FBF0A304F053F4FD36
:1044A40043FE029008B57401F09061A0E0643A9074
:1044B400619A70237433F0A37455F09061A0743A38
:1044C400F0740164017009C29190071F7467802819
:1044D40090071F74618021743FF0A3745AF09061B7
:1044E400A0747FF0740164017009D29190071F7465
:1044F40071800590071F746A0242EB7F04021B005F
:10450400C082C083900867E06401700A90086CE080
:104514006004790C800279000242ECC082C0837589
:10452400E1F190086AE06055146008146059146061
:10453400518059120E6D900860E0F97A617B08127F
:10454400104D90815E1218C51210839081AA121822
:10455400C512105990086BE0F91210657901121018
:10456400BF90085EE02416F8A3E03400F98882893D
:10457400837485F0A3740EF079000242EC120E737A
:1045840080B4120E7980AF120E7F80AA791280EA6D
:1045940074F4121A2E75D90D90084FE0A2E0E4339A
:1045A4001313F8900860E0C4333354C0484401F551
:1045B400D9785E790888828983A3A3A3E0F5D98892
:1045C400828983A3A882A983E864647003E96408E8
:1045D40070E3784F790888828983A3E0F5D98882CB
:1045E4008983A3A882A983E864557003E9640870E9
:1045F400E575E19590084FE0F97A507B0812105365
:10460400900C9D7419F0A3740EF0A3747BF0A37442
:104614000FF0A3747BF0A3740FF0A3747BF0A37466
:104624000FF0A3741FF0A3740EF0A3747BF0A374B3
:104634000FF0A37437F0A3740EF0900CAB747BF0FE
:10464400A3740FF0A3747BF0A3740FF0A3747BF036
:10465400A3740FF0A3747BF0A3740FF0A3747BF026
:10466400A3740FF0A3747BF0A3740FF090085EE0C2
:10467400F8A3E0F5838882A3A378081218A7908191
:104684005A780812181B90816E78081218819008C5
:104694005EE0240EF8A3E03400F988828983780868
:1046A4001218B690085EE02414F8A3E03400F988E8
:1046B4008289837413F090071B7402F00244FFC0D4
:1046C40082C083900870E02407F5D9900860E0C4A4
:1046D400333354C0F5D9785E790888828983A3A3DB
:1046E400A3E0F5D988828983A3A882A983E86464B6
:1046F4007003E9640870E3900870E0601F785E79E5
:1047040008FAE82413F582E93400F583E0F5D98842
:10471400828983A3A882A9831AEA70E6900890E0AC
:104724002407F5D9900860E0C4333354C04404F539
:10473400D9785E790888828983A3A3A3E0F5D98810
:10474400828983A3A882A983E864647003E9640866
:1047540070E3900890E0601F785E7908FAE82433EB
:10476400F582E93400F583E0F5D988828983A3A82A
:1047740082A9831AEA70E675E195900C9D7425F080
:10478400A3740EF0A3747BF0A3740FF0A3747BF0F6
:10479400A3740FF0A3747BF0A3740FF0A3741FF041
:1047A400A3740EF0A3747BF0A3740FF0A37437F01A
:1047B400A3740EF0900CAB747BF0A3740FF0A3748D
:1047C4007BF0A3740FF0A3747BF0A3740FF0A374B5
:1047D4007BF0A3740FF0A3747BF0A3740FF0A374A5
:1047E4007BF0A3740FF09081AE1218C590085EE0C0
:1047F400240EF8A3E03400F9888289831218D1903A
:10480400085EE02414F8A3E03400F98882898374F4
:1048140012F090071B74010242EBC082C08390081F
:1048240070E02407F5D9900860E0C4333354C044E1
:1048340002F5D9785E790888828983A3A3A3E0F579
:10484400D988828983A3A882A983E864647003E970
:10485400640870E3900870E0601F785E7908FAE8F5
:104864002413F582E93400F583E0F5D9888289833D
:10487400A3A882A9831AEA70E675E195900C9D7449
:1048840031F0A3740EF0A37431F0A3740EF0A3748A
:1048940031F0A3740EF0A37431F0A3740EF0A3747A
:1048A40031F0A3740EF0A37431F0A3740EF0A3746A
:1048B40037F0A3740EF0900CAB747BF0A3740FF07C
:1048C400A3747BF0A3740FF0A3747BF0A3740FF0B4
:1048D400A3747BF0A3740FF0A3747BF0A3740FF0A4
:1048E400A3747BF0A3740FF09081AE1218C59008E6
:1048F4005EE0240EF8A3E03400F98882898312185C
:10490400D190085EE02414F8A3E03400F988828989
:10491400837414F090071B74040242EBC082C083BA
:10492400900870E02407F5D9900860E0C43333544C
:10493400C04406F5D9785E790888828983A3A3A345
:10494400E0F5D988828983A3A882A983E864647086
:1049540003E9640870E3900870E0601F785E7908EA
:10496400FAE82413F582E93400F583E0F5D9888266
:104974008983A3A882A9831AEA70E6900890E024A8
:1049840007F5D9900860E0C4333354C04404F5D922
:10499400785E790888828983A3A3A3E0F5D9888205
:1049A4008983A3A882A983E864647003E964087016
:1049B400E3900890E0601F785E7908FAE82433F504
:1049C40082E93400F583E0F5D988828983A3A8823B
:1049D400A9831AEA70E675E195900C9D742BF0A3F7
:1049E400740EF0A3747BF0A3740FF0A3747BF0A394
:1049F400740FF0A3747BF0A3740FF0A3747BF0A383
:104A0400740FF0A3747BF0A3740FF0A37437F0A3B6
:104A1400740EF0900CAB747BF0A3740FF0A3747B52
:104A2400F0A3740FF0A3747BF0A3740FF0A3747B52
:104A3400F0A3740FF0A3747BF0A3740FF0A3747B42
:104A4400F0A3740FF09081AE1218C590085EE024B4
:104A54000EF8A3E03400F9888289831218D19008F3
:104A64005EE02414F8A3E03400F988828983741585
:104A7400F090071B74030242EBC082C08390085E6F
:104A8400E0F8A3E0F5838882A3A3A3A3A3A3E4028D
:104A940042E974F7121A2E900749E0F875F004A45D
:104AA400C8AAF02AF9744B28F8740739F9E82405E0
:104AB400FAE93400FB8A828B83E0FCA3E0FD888260
:104AC4008983A3A3A3A3A3A3A3A3A3ECF0A3EDF0BF
:104AD40088828983A3A3A3A3A3A3A3E024FFF8A3A9
:104AE400E034FFF98A828B83E8F0A3E9024D3B743A
:104AF400F7121A2EEAFEEBFF9061D0E06003024B3E
:104B0400D075D90E75D90375D904EE248CF582EFCE
:104B14003400F583E5822408F8E5833400F9E0F5F0
:104B2400D9A3E865827003E9658370F2EE2484F505
:104B340082EF3400F583E5822404F8E5833400F938
:104B4400E0F5D9A3E865827003E9658370F275E145
:104B5400957908EE248CFAEF3400FB120F277904C0
:104B6400EE2484FAEF3400FB120F277C00EEF8EFFA
:104B7400F9ECFAC3E49AFA95E0FBEE2AFAEF3BFB70
:104B8400EA248BF582EB3400F583E0C0E0E824AB43
:104B9400F582E93400F583D0E0F00C88828983A3A0
:104BA400A882A983ECC3940840C7EE2470F582EF71
:104BB4003400F583E0F8A3E0F9EE2472F582EF34D3
:104BC40000F583E8F0A3E9F0790180027900024D51
:104BD4003CC082C08375D90275D90375D90575E1C6
:104BE40095EA2470F582EB3400F583E0F8A3E0F94C
:104BF400EA2472F582EB3400F583E8F0A3E9F07956
:104C0400010242EC74F6121A2EEAFEEBFF9008B988
:104C14007406F07508B97509087808121C417C01FE
:104C24007903120F6F74021219ED75D90675D90341
:104C34007582B9758308E0F5D9A3E58264BE700472
:104C4400E583640870F075E19590071BE0640870D3
:104C54001EEE2470F582EF3400F583E0F8A3E0F94A
:104C6400EE2472F582EF3400F583E8F0A3E9F079DD
:104C740001024E0874F6121A2EEAFEEBFF9061D080
:104C8400E0706678019008B9740BF090071BE0643B
:104C94000770197508B97509087808121C417C0158
:104CA4007903120F6F74021219ED7805740128F557
:104CB400D975D9037582B9758308E8FAE0F5D9A3E3
:104CC4001AEA70F875E195EE2470F582EF3400F578
:104CD40083E0F8A3E0F9EE2472F582EF3400F58363
:104CE400E8F0A3E9F0790180027900024E0874F734
:104CF400121A2EEAFEEBFF75D90375D90375D90D87
:104D0400EE24DEF582EF3400F583E0F5D975E19504
:104D14007904121089EE2470F582EF3400F583E0F3
:104D2400F8A3E0F9EE2472F582EF3400F583E8F09D
:104D3400A3E9F079018001F07F01021B0074F612EF
:104D44001A2EEAFEEBFF9061D0E0F87480C398FA63
:104D5400EE2483F582EF3400F583E0600478048068
:104D6400027800E8240BF8EAC3985003024E067D4B
:104D7400099008B9EDF0EE24E3F8EF3400F97ABABB
:104D84007B087C0888828983E08A828B83F088820E
:104D94008983A3A882A9838A828B83A3AA82AB83F3
:104DA4001CEC70E0EE2483F582EF3400F583E060C0
:104DB4001D7508B97509087808121C417C09790326
:104DC400EEFAEFFB120F6F74021219ED7D0D7401F0
:104DD4002DF5D975D9037582B97583088D08E0F569
:104DE400D9A31508E50870F675E1957904121089C0
:104DF400EE241DF582EF3400F583E4F0A3F079018D
:104E0400800279007F02021B0074F6121A2EEAFE59
:104E1400EBFF9061D0E0F87480C398FAEE2483F538
:104E240082EF3400F583E06004780480027800E8BF
:104E34002408F8EAC3985003024F0D7D069008B980
:104E4400740CF0900738E09008BAF07A397B077850
:104E5400BB79087C028A828B83E088828983F08A0A
:104E6400828B83A3AA82AB8388828983A3A882A925
:104E7400831CEC70E07A3B7B077C028A828B83E0A4
:104E840088828983F08A828B83A3AA82AB838882F7
:104E94008983A3A882A9831CEC70E0EE2483F582A5
:104EA400EF3400F583E0601D7508B97509087808CA
:104EB400121C417C067903EEFAEFFB120F6F7402A9
:104EC4001219ED7D0A74012DF5D975D9037582B9CE
:104ED4007583088D08E0F5D9A31508E50870F67503
:104EE400E1957904121089EE2470F582EF3400F50F
:104EF40083E0F8A3E0F9EE2472F582EF3400F58341
:104F0400E8F0A3E9F0790180027900024E0874F612
:104F1400121A2EEAFEEBFF9061D0E0F87480C39879
:104F2400FAEE2483F582EF3400F583E0600478041C
:104F340080027800E82404F8EAC3985003024FEC96
:104F440078029008B9E8F0EE24F5F582EF3400F524
:104F540083E09008BAF0EE2483F582EF3400F58301
:104F6400E0601B7508B97509087808121C417C02B9
:104F74007903EEFA120F6F74021219ED78067401B8
:104F840028F5D975D9037582B97583088808E0F5C1
:104F9400D9A31508E50870F675E195EE2474F58239
:104FA400EF3400F583E4F0EE2480F582EF3400F56D
:104FB40083E4F0EE241DF582EF3400F583E4F0A3DE
:104FC400F07904121089EE240DF582EF3400F58394
:104FD400E0F8A3E0F9EE2472F582EF3400F583E8FB
:104FE400F0A3E9F0790180027900024E0874F61208
:104FF4001A2E9061D0E0F87480C398FCEA2483F5FB
:1050040082EB3400F583E06004780480027800E8E1
:105014002404F8ECC398405B79029008B97407F053
:10502400EA24F6F582EB3400F583E09008BAF0EA5E
:105034002483F582EB3400F583E060187508B975B4
:1050440009087808121C417C0209120F6F740212BD
:1050540019ED7906740129F5D975D9037582B975E5
:105064008308E9F8E0F5D9A318E870F875E19579B3
:105074000180027900024E0874F5121A2EE9FCA28E
:10508400AFE433F50AC2AF7D0080010DEA246FF569
:1050940082EB3400F583E0F8EDC398501A8D08EAEA
:1050A4002508F8EB3400F9E8246BF582E93400F5BF
:1050B40083E06C70D68024EA246FF8EB3400F9E0C6
:1050C400FEEA2EFAEB3400FBEA246BF582EB3400A3
:1050D400F583ECF088828983E004F0E50AA2E0928B
:1050E400AF7F03021B0074F6121A2EA2AFE433FD45
:1050F400C2AFEA246FF582EB3400F583E014F07C50
:105104000060368C08EA2508F8EB3400F9E8246CD2
:10511400F582E93400F583E0C0E0E8246BF582E928
:105124003400F583D0E0F00CEA246FF582EB340010
:10513400F583E0F8ECC39840CAEA246EF582EB34B8
:1051440000F58374FFF0EA246AF582EB3400F583FA
:10515400E4F0EDA2E092AF024E08C082C083E5A85D
:10516400F8C2AFEA246BF582EB3400F583E9F0EA88
:10517400246AF582EB3400F583E4F0E8A2E792AF09
:105184000242EC74F3121A2EEAFEEBFFECFAEDFB8A
:105194008A828B83A3A3A3A3E0541FF0EE2436F5E5
:1051A40082EF3400F583E4F0F50AEEFCEFFD8A8229
:1051B4008B83E0C0E0EC245DF582ED3400F583D010
:1051C400E0F0750B00E50A33333354F8F50C8A82AA
:1051D4008B83E0F508750900E50B78081219A5E53D
:1051E40008A2E0502FEE2436F8EF3400F9888289C3
:1051F40083E0F508EE2508F508EF3400F509E50825
:105204002438F582E5093400F583E50CF0888289B9
:1052140083E004F0050B050CE50BC3940840AF05CF
:105224000A8A828B83A3AA82AB838C828D83A3ACEC
:1052340082AD83E50AC3940550030251B27F05028F
:105244001B0074F7121A2E900747E0640170077A66
:10525400007B000253BD7E0090074DE070F17401A5
:10526400F0A3E4F0A3F09007AD04F09007B0E4F0ED
:10527400A3F09007B304F0900750E4F0A3F0A3F078
:10528400A3F090075A04F0900780E4F09081BA12DA
:1052940018C59007631218D1900767E4F0A3F0A330
:1052A400F09007CBF09007BFF09007B47480F0A3A0
:1052B400E4F09007BAF09007B2F0900836F0A3F04B
:1052C400A3F0A3F0A3F0A3F0A3F0A3F090083FF0A1
:1052D4009007CEF090081EF0A3F09081BA1218C582
:1052E4009008201218D19081BA1218C5900824127F
:1052F40018D190082AE4F090082CF0900828F09037
:105304000842F0A3F0A3F0A3F0A3F0A3F0A3F0A34A
:10531400F078477907E8246FF582E93400F583745F
:10532400FFF00E88828983A3A882A983EEC3940424
:1053340040E37A477B077856790888828983E0C0FE
:10534400E0EA2461F582EB3400F583D0E0F0888252
:105354008983A3A882A9838A828B83A3AA82AB832D
:10536400E8645B7003E9640870D07A477B07782EA1
:10537400790788828983A3E0C0E0EA24E7F582EB19
:105384003400F583D0E0F088828983A3A882A983BE
:105394008A828B83A3AA82AB83E864367003E964B0
:1053A4000770CF900747E004F06401700890074F3E
:1053B400E0900749F07A4B7B07024D3CC082C083E2
:1053C40090074EE4F090074DF0900747F0A3F0A348
:1053D40074FFF075E1F10242ECC082C08378007979
:1053E4000090074EE06004784B790788828983A394
:1053F400A3A3A3E0F90242EC74F6121A2EEAFEEB20
:10540400FF8E828F83A3A3A3E0600F8E828F83A37A
:10541400A3A3E4F0900748E014F0900747E014F0E9
:10542400700690074974FFF08E828F83A3A3E4F083
:1054340090085BE0700D900748E064017005790006
:1054440012106BEE2465F582EF3400F583E0F8A3C7
:10545400E0F9E8496029EE2465F8EF3400F988089A
:1054640089098882F583E0FCA3E0FD900749E0FA0E
:105474007B00120C3F850882850983E4F0A3F0EEDB
:10548400FAEFFB120F9F024E0874F7121A2EEAFE6F
:10549400EBFF8E828F83A3A3A3A3E0FA7B00120CFD
:1054A40081EEFAEFFB120EF1120F87024D3CC0821F
:1054B400C083782E790788828983A3E4F08882895F
:1054C40083A3A882A983E864367003E9640770E6BD
:1054D40090072F02481974F6121A2EEAFEEBFFEC1D
:1054E4002403F8ED3400F988088909EC2407F8ED61
:1054F4003400F9E8FCE9FD8C828D83E0F8A3E0F93F
:10550400850882850983E0FAA3E0FB12194CEE2496
:105514000DF582EF3400F583E8F0A3E9F08C828D79
:1055240083E0F8A3E0F9850882850983E0FAA3E023
:10553400FB12194C8B09EA45096013EE240DF58220
:10554400EF3400F583E02401F0A3E03400F0024ED0
:105554000874F6121A2EEAFEEBFFEE242EF582EF03
:105564003400F583E0FCA3E0FD780079FAECFAED71
:10557400FB12194CEE2470F582EF3400F583E8F049
:10558400A3E9F0780079FAECFAEDFB12194C8B09D7
:10559400EA45096013EE2470F582EF3400F583E0E8
:1055A4002401F0A3E03400F0024E0874F0121A2E25
:1055B400EAFEEBFF7410121A2278081218A71210D0
:1055C400298A0C8B0D8C0E8D0F908156780C121835
:1055D4001B90816E780C121881780C121C3D8E82FF
:1055E4008F83E0F8A3E0F5838882A3A31218C51281
:1055F400261A74041219EDE960030256FC8E828F98
:1056040083E02402F8A3E03400F9E8FAE9FB8A8293
:105614008B83780812182E90816E78081218A78A46
:10562400828B837808121894EE240BF582EF3400F1
:10563400F583C082C0838E828F83A3A3A3A3A3E038
:105644002401F8A3E03400F9D083D082E068700329
:10565400A3E069700579010256FE8E828F83A3A3AD
:10566400A3A3A3A3A3E02401F0A3E03400F0EE2459
:1056740074F582EF3400F583E064017036EE24752E
:10568400F582EF3400F583E0F8A3E0F98E828F838E
:10569400A3A3A3A3A3A3A3E0687003A3E069701367
:1056A400EE2475F582EF3400F583E02401F0A3E0E5
:1056B4003400F0EE2480F582EF3400F583E06401D9
:1056C4007036EE2481F582EF3400F583E0F8A3E030
:1056D400F98E828F83A3A3A3A3A3A3A3E06870037B
:1056E400A3E0697013EE2481F582EF3400F583E0C2
:1056F4002401F0A3E03400F079007F08021B007459
:10570400F7121A2E900749E0F875F004A4C8AAF01D
:105714002AF9744B28FE740739FF8028EE2465F8B3
:10572400EF3400F988828983E0FCA3E0FD88828954
:1057340083E4F0A3F08E828F83A3A3A3A3E0FA7B78
:1057440000120C3FEE2465F582EF3400F583E0F897
:10575400A3E0F9E849604FEE2464F582EF3400F5E4
:1057640083E0F5087808121C45EE2463F582EF34D3
:1057740000F583E0F9EE2465F582EF3400F583E06B
:10578400FCA3E0FDEEFAEFFB120F1B74011219EDFE
:10579400E96089EE2465F582EF3400F583E0F8A32F
:1057A400E0F9E84970137C007D008E828F83A3A307
:1057B400A3A3E0FA7B00120C3F024D3C74F2121AD0
:1057C4002EEAFEEBFF890A740E121A22E0FAEE2486
:1057D40062F582EF3400F583E06401600302588CC3
:1057E4009061D0E0F87480C398F50CEE2483F582C0
:1057F400EF3400F583E060047804800278008908BF
:10580400E928F8E43400F9E824020808E93400F946
:10581400E50C98E499A2D265D0334068EA70057526
:105824000B028003750B01E06039750900780812DA
:105834001C417AB97B08120F5174021219ED7508D4
:10584400B97509087808121C41AC0AA90BEEFAEFE5
:10585400FB120F6F74021219ED7404250AF50A7C09
:10586400B97D087401250AF5D9850BD9E50A600DBF
:105874008C828D83F8E0F5D9A318E870F875E1956A
:10588400790080067907800279FF7F06021B00C039
:1058940082C083E960208C828D83E08A828B83F0CE
:1058A4008C828D83A3AC82AD838A828B83A3AA82EC
:1058B400AB8319E970E0ECFAEDFB0242EC74EA12F6
:1058C4001A2E907803E06442705E9008B8E014F0F9
:1058D4007056C2AF1258DB00782AD0E0F618D0E038
:1058E400F6E59F5407F9700590814E800390814A34
:1058F40078081218A7E9C4C0E07829E65508F50825
:1059040008E65509F509740B78081219B5D0E02595
:1059140008F8906270E0A2E740F8E8C3339062723E
:10592400F0906270E0D2E0F0900749E0F470030276
:105934005CE4E0F875F004A4C8AAF02AF9744B28D2
:10594400FE740739FFEE2402F582EF3401F583E09B
:10595400F8A3E0F9E849601EEE2402F582EF340171
:10596400F583E0FAA3E0FBEE2401F582EF3401F5C0
:1059740083E0F91204418E828F83A3A3A3A3A3A37C
:10598400A3E0F8A3E0F98E828F83A3A3A3A3A3E8E3
:10599400F0A3E9F0906054E0900722F0906055E0A5
:1059A400900723F0906056E0900724F0906057E051
:1059B400900725F0906058E0900726F0906059E039
:1059C400900727F090605AE0900728F090605BE021
:1059D400900729F090605CE0FC90072AF090605DED
:1059E400E0FB90072BF090605EE0FD90072CF090B8
:1059F400605FE0FA90072DF0900728E08C082508F6
:105A0400F8E43400F98D08E82508F8E93400F98B46
:105A140008E82508F8E93400F98A08E82508FAE9CD
:105A24003400FBEE24F7F582EF3400F583E02AF02E
:105A3400A3E03BF08C08EE24F9F582EF3400F58303
:105A4400E02508F0A3E03400F0EE24FBF582EF3407
:105A540000F583E02401F0A3E03400F0EE24FFF528
:105A640082EF3400F583E0F8A3E0F9E8496042905E
:105A74006000E0C333FCE433FDE82CF582E93DF536
:105A840083E02AF0A3E03BF0906000E0FA90072A5C
:105A9400E0FCEAC333FAE433FBE82AF8E93BF9E82B
:105AA400244AF582E93400F583E02CF0A3E03400C5
:105AB400F0900728E0701190072BE0700BA3E070C2
:105AC40007A3E07003025BC48E828F83A3A3A3A306
:105AD400A3E0F8A3E0F9EE240DF582EF3400F5839A
:105AE400E028F8A3E039F9EE240BF582EF3400F551
:105AF40083E8F0A3E9F0EE240FF582EF3400F58398
:105B0400E4F0EE241CF582EF3400F583E0640170C8
:105B14001EEE2420F582EF3400F583E0F8A3E0F9CB
:105B2400EE241DF582EF3400F583E8F0A3E9F0904C
:105B34000723E06052EE241CF582EF3400F58374F1
