:020000040000FA
:0600000002011D021F2396
:03002B00021B496C
:03005300021F96F3
:03006B00021B1065
:10008300021DD7E5C754F84401F5C77901220000E2
:100093000080FB120086B90003020107E47921788E
:1000A30008B800028004F709D8FCE479297802B87B
:1000B30000028004F709D8FCE490028178507909A2
:1000C3008002F0A3D8FCD9FA781A90014D7A01BACC
:1000D30000028007E493A3F608DAF9900AD0AA8213
:1000E300AB8390014E786F79038015E493A3AC82C0
:1000F300AD838A828B83F0A3AA82AB838C828D83A8
:10010300D8E9D9E77582087583AC740312012F759A
:100113008291758300740012012F75D00075813FA1
:10012300751881751902759F00020096C09FF59F8F
:10013300E473D09F22D083D082C09FE493C0E07445
:100143000193C0E0740293F59F220101FFFF4B4D21
:100153002048524D00000000000000000000000095
:1001630000000002010603020D1807084B4D5F480B
:10017300524DFE030000040410041604FFFFBB00ED
:100183001264024A820100003F820246820100009B
:10019300050B026882010000060B02448203000083
:1001A3004604020202024A820100003682024682AB
:1001B300010000270B0262820100004E0402468206
:1001C300010000280B0260820100001181024682B7
:1001D300010000290B025E82010000388110020237
:1001E3007D00020A024A820100003982024682012E
:1001F3000000620B10F180000000580402448203E7
:1002030000005904024682010000630B10A1800123
:1002130000005F04024682010000640B10B18001FC
:100223000000650B024682010000670B108180010C
:1002330000006104024682010000680B10D18003B4
:1002430000006204100208024A820100003C82029C
:100253004682010000C90B025682000000650402B9
:1002630044820300006604024682010000CA0B02B6
:1002730054820100006C04024682010000CB0B0291
:1002830052820200006D0401E803053F10FF0001E4
:1002930030750302010600000000000000000000AA
:1002A300000000000000000000000000000000004B
:1002B3000000FFFF0600800CE803FF0000B400000D
:1002C30028002800283075A000A000A000A000008E
:1002D300080008E001F000100010001000100010EA
:1002E30000100050005000500010001000D0070014
:1002F30000000000000F000100050030750700102A
:1003030000010081FF0000FF4C0A6A0A520AFF0243
:10031300020208025000A0000000E803024A820122
:1003230000003382024682010000940C02428201E3
:1003330000002706024682010000950C024E82014E
:1003430000003D06024682010000960C0250820125
:1003530000003F06024682010000970C025A820801
:1003630000004006024682010000980C026C8201E4
:100373000000990CFF0100FF20024A8201000030B7
:1003830082024682010000FD0C025C820000000034
:10039300000244820300008D062210221022102244
:1003A30010221022102210221022102210221022BA
:1003B300102210B012C812AA12120138758A031241
:1003C3000138A08A03120138CA8A03120138EC8A61
:1003D30003120138108B031201381D8B03120138ED
:1003E3007C8B03120138AB8C03120138ADD402129B
:1003F3000138C8D60212013888D70212013873D8DF
:100403000212013830D90212013870D902120138B0
:1004130089D902120138D5D9021201389AA90312D7
:100423000138FAA90312013833A2031201385BA27F
:100433000312013863A2031201386BA203120138BD
:10044300A8A203120138D6A2031201381AA3031279
:10045300013828A30312013877A30312013836DACF
:100463000212013840DA0212013881DA021201382D
:10047300CADA0212013804DB021201385ADB021213
:1004830001387BDB0212013884DB02120138D8DB2E
:100493000212013801DC021201380BDC02120138AE
:1004A30079DC0212013809DD0212013864DD02121F
:1004B300013892DD021201381ADE0212013859DEC8
:1004C300021201388EDE02120138A0DE0212013858
:1004D300BFDE02120138C8DE021201388FDF0212BA
:1004E3000138A9AB03120138A3A503120138BB9944
:1004F30003120138F19903120138259A03120138C6
:10050300729B0312013804A9031201381AA90312BA
:10051300013824A9031201386EA90312013835EEFC
:100523000212013848EE0212013809EF02120138B3
:1005330048EF0212013865EF021201389EEF0212F2
:100543000138EBEF021201381DF00212013854F0AA
:10055300021201385DF2021201389AA60312013821
:10056300BDA603120138ECA6031201382EA703120D
:100573000138F3BE0212013804BF021201385EC310
:100583000212013839C402120138A2C4021201381E
:10059300EDC40212013810C6021201389D83031202
:1005A30001381D84031201385284031201384A852D
:1005B300031201386E860312013884900312013846
:1005C300C99003120138DE900312013838910312E7
:1005D3000138C291031201386D9203120138A492BB
:1005E30003120138B0A003120138D5A00312013859
:1005F30005A1031201381687031201385B87031222
:1006030001386E8703120138CC870312013826881C
:10061300031201386388031201383D89031201383C
:100623003C8A03120138439503120138889503125B
:1006330001389B9503120138B79503120138F595DC
:10064300031201386496031201384E9703120138DE
:1006530060AC031201386F82011201384D8401121C
:100663000138EC850112013897860112013817878A
:10067300011201389C8701120138C5870112013824
:10068300A08B01120138178C011201382E8D011233
:100693000138688D01120138A98D01120138F08EDD
:1006A30001120138468F011201388F8F0112013870
:1006B300FE8F011201386A90011201389B900112DA
:1006C3000138B39001120138CC9101120138DC9149
:1006D30001120138929301120138A99301120138D2
:1006E300DB93011201387D95011201381196011235
:1006F30001383BFF0212013847FF02120138E4FFC1
:1007030002120138B6AC03120138F5AC03120138FA
:1007130060AD031201384EA8031201385EA803121C
:1007230001386DA803120138FEA803120138A1A4F1
:100733000312013826A5031201388AA503120138D2
:10074300EB7F001201384AAD031201385AAD031290
:1007530001385DAD03120138F87F00120138879725
:1007630003120138119903120138729903120138E7
:10077300B8990312013835AB0312013862AB031287
:10078300013878AB03120138189F031201386A9FAE
:1007930003120138DD9F031201384AA00312013806
:1007A300FC9203120138269303120138F5930312C6
:1007B3000138D19403120138BDB60212013889B74A
:1007C30002120138CAB70212013804B80212013802
:1007D30062B802120138B6B80212013814B9021213
:1007E3000138AAB902120138B2BA021201383CBC6C
:1007F30002120138DABC0212013841BD021201387B
:1008030054BD0212013848BE0212013891BE0212D1
:100813000138B6F001120138E8F30112013879F515
:1008230001120138D0F501120138EDF5011201383A
:100833006DF601120138E9F701120138B8F8011217
:10084300013825FC011201380FFD01120138659DA5
:10085300031201387C9D03120138AB9D031201384A
:10086300E49D031201380C9E031201383A9E0312D1
:100873000138519E03120138689E031201387E9E8F
:1008830003120138A59E03120138B89E03120138E2
:10089300CE9E03120138E19E03120138069F031214
:1008A300013811A40212013810A50212013845A51E
:1008B3000212013866A50212013876A50212013828
:1008C30097A502120138A3A60212013870A70212DB
:1008D3000138E3A70212013869A802120138ACA853
:1008E30002120138E3A80212013869A90212013881
:1008F3003BAA0212013899AA02120138B1AA0212C4
:1009030001382BAB021201382EAB0212013831AB86
:1009130002120138D8AB02120138F0AB02120138CF
:1009230020AC0212013840AC021201382EAD021283
:100933000138E4AD021201388DE902120138B5E93C
:1009430002120138E3E9021201381AEA02120138ED
:1009530082EA02120138CBEA0212013816EB0212C4
:10096300013854EB0212013891EB02120138BFEB4C
:100973000212013866EC0212013870EC02120138DF
:100983007DEC02120138B0EC0212013872ED021252
:1009930001387EED0212013896ED02120138A0ED06
:1009A3000212013877A70312013885A70312013811
:1009B3009DA703120138B5A70312013800AA01123B
:1009C30001389EAA0112013816AB011201382BAC73
:1009D3000112013865AC011201380EAD0112013864
:1009E300E3AD0112013847AF011201389EAF011286
:1009F300013825B0011201380CB10112013859B187
:100A030001120138E7B1011201380BB201120138AA
:100A1300E0B30112013821B40112013843B40112C9
:100A23000138C4B401120138AEB50112013874B6ED
:100A330001120138A1CD0212013873CE021201381E
:100A43001CCF021201385FCF02120138ECCF021221
:100A5300013878D00212013859D10212013888D1F5
:100A63000212013884D202120138CCD202120138A8
:100A7300CED30212013812D40212013838D4021232
:100A830001382FAA031201386AFB0212013880FBD6
:100A930002120138A6FB02120138CEFC0212013801
:100AA300D8FC0212013831FE0212013831FF021262
:100AB3000138BDDF02120138F2E00212013825E1EC
:100AC300021201386FE1021201382DE302120138DC
:100AD300A26C00120138056D001201384A6E001233
:100AE30001385A6E001201387D6E00120138C86E4B
:100AF300001201386D6F0012013863700012013863
:100B03002D7100120138A57200120138E77200122C
:100B13000138857300120138D27300120138F8735B
:100B230000120138E67500120138EB750012013826
:100B3300CC77001201382078001201388278001235
:100B43000138AA78001201384E7900120138107A60
:100B530000120138417A00120138447A0012013838
:100B63008C7A00120138CE7A00120138357B0012DC
:100B73000138A5FD01120138B8FD01120138D1FD7C
:100B8300011201381CFE01120138F7FE011201386F
:100B930086FF01120138D1FF011201382826001205
:100BA30001383426001201386D2600120138B226AE
:100BB30000120138692700120138EF2700120138AB
:100BC3001B2800120138542800120138682A001229
:100BD3000138442C001201382F2E00120138662FE1
:100BE30000120138C63100120138B2320012013846
:100BF300F83300120138053500120138223500128E
:100C030001385A3500120138743500120138DC35C9
:100C130000120138763A00120138173B00120138EE
:100C2300683B001201388F3B00120138DD3B001294
:100C33000138FB3B001201384F3C00120138573D8D
:100C430000120138DF3D00120138E3E402120138DB
:100C5300EDE402120138B8E502120138D3E50212BD
:100C63000138F9E5021201383DE60212013875E652
:100C7300021201389EE60212013817E70212013808
:100C83002CE70212013841E70212013878E7021219
:100C930001388CE702120138BDE702120138F7E789
:100CA3000212013823E80212013879E802120138EE
:100CB300CDE80212013816E90212013840E90212A6
:100CC300013865E902120138FF7B00120138C97C43
:100CD30000120138AC7D00120138227E0012013867
:100CE300647E00120138917F0012013800800212E5
:100CF30001382980021201384280021201388781AB
:100D0300021201386582021201388482021201380C
:100D1300118302120138548302120138A184021292
:100D23000138408502120138BF8702120138568804
:100D3300021201382A89021201380C8A0212013880
:100D4300788B021201380B8C021201388CA3031228
:100D53000138F5A30312013849A40312013870A422
:100D630003120138C9F20212013836F302120138B4
:100D730081F30212013876F40212013872F502127D
:100D830001385CF6021201384FAE0212013891AEFF
:100D9300021201386BAF0212013844B0021201385B
:100DA3003FB1021201381EB2021201388AB2021296
:100DB300013851B302120138BCB30212013823B413
:100DC300021201384EB402120138BFB402120138C4
:100DD30052B502120138BBB502120138D0B5021266
:100DE300013818B60212013831B60212013896B62C
:100DF3000212013899B6021201388A8D03120138A2
:100E0300B28D03120138F08D03120138AE8E031236
:100E13000138198F03120138358F031201385D8FA2
:100E2300031201388D8F031201389C8F031201388E
:100E33001690031201383C900312013827C70112A0
:100E4300013804C901120138FFCA01120138D2CB9B
:100E5300011201381DCC0112013868CC011201388E
:100E63007ACC01120138BACC01120138EFCC01124D
:100E730001383BCD011201386ACD011201388DCD05
:100E830001120138DACD0112013863CE01120138A3
:100E930070D0011201385BD2011201389ED20112C7
:100EA300013803D40112013844D401120138B7D4F4
:100EB3000112013803D5011201382ED50112013870
:100EC300828C02120138AD8C021201389493021203
:100ED3000138B89502120138739702120138D0987D
:100EE30002120138463E00120138DD3E001201387D
:100EF3000A3F00120138503F001201388F400012A0
:100F03000138264200120138A04200120138BB42C8
:100F1300001201383043001201385F4400120138D7
:100F2300BA4500120138BC460012013819480012B4
:100F330001383248001201388F48001201387149D4
:100F430000120138A44900120138144A0012013872
:100F53008E4A00120138DD4A00120138A94B0012F3
:100F63000138AE4C001201388D4D00120138184E75
:100F730000120138864E00120138FA4E0012013871
:100F8300234F00120138E24F001201385C51001266
:100F93000138795100120138985100120138295251
:100FA300001201384E5200120138765200120138F5
:100FB300F152001201384B53001201389F540012B2
:100FC30001385C55001201382F560012013858D5EC
:100FD30001120138A8D501120138B4D50112013824
:100FE30091D601120138C1D601120138F9D6011286
:100FF300013878D701120138B0D70112013802D86D
:10100300011201383FD80112013864DA01120138A4
:1010130090DC011201388BDE0112013866E0011207
:101023000138EE7F001201384F960112013899966C
:1010330001120138789C01120138F99D011201381F
:1010430058A40112013853A50112013890A50112C9
:101053000138B3A501120138F5A501120138FEA527
:101063000112013808A601120138F4A60112013851
:10107300E8A7011201385D5600120138D56000124D
:101083000138DB6000120138E76700120138008085
:1010930003120138968003120138AC800312013821
:1010A3002681031201387C8103120138BA810312AD
:1010B30001381782031201389482031201389D828A
:1010C30003120138A98203120138BC8203120138CA
:1010D300F882031201380E83031201386D83031261
:1010E30001381EF7021201382BF70212013845F7B7
:1010F3000212013884F702120138C2F702120138D2
:1011030027F8021201383CF80212013847F802129C
:10111300013854F8021201386BF80212013879F8D9
:101123000212013884F80212013890F802120138D1
:101133009FF802120138AAF802120138CDF8021200
:10114300013876F90212013886F902120138A0F942
:1011530002120138BDF902120138D9F9021201381D
:10116300FEF90212013808FA021201381CFA0212BF
:1011730001383BFA021201389CFA02120138A2FA32
:1011830002120138A8FA02120138AEFA021201382B
:10119300BAFA02120138EDFA021201382CE30112F5
:1011A3000138AEE30112013857E4011201389FE51B
:1011B30001120138ADE70112013893E80112013839
:1011C300C8E801120138EAE80112013893E9011273
:1011D300013863EB011201388CEB0112013804EC86
:1011E3000112013836EC0112013843EC01120138C7
:1011F3008EEC01120138B2EC0112013803EF011237
:1012030001380DF00112013869F001120138A9B853
:1012130001120138BAB9011201389EBA011201381C
:10122300A8BA01120138CABA01120138D6BA01129A
:1012330001387ABC01120138A7BC01120138BDBDC7
:101243000112013812BE0112013861BF01120138C7
:1012530036C00112013892C001120138FDC00112DB
:10126300013832C10112013875C1011201383FC47E
:101273000112013857C401120138E8C401120138C0
:10128300F6C40112013843C50112013851C50112D8
:101293000138BDC50112013838C6011201388FC6A5
:1012A30001120138F398021201381599021201381C
:1012B300269B02120138E59D021201380F9F02128C
:1012C3000138CD9F02120138B9A002120138AC9B3C
:1012D30003120138D19B03120138479C03120138D2
:1012E30084C6021201388DC60212013896C6021254
:1012F30001386EC7021201381FC9021201384FC9E3
:10130300021201387AC902120138AAC9021201383D
:10131300D5C90212013809CA0212013835CA0212AC
:10132300013878CA02120138A3CA02120138EACA84
:10133300021201383FCB0212013881CB021201386D
:10134300DBCB0212013806CC0212013855CC021253
:10135300013885CC02120138B0CC02120138DECC40
:101363000212013801CD02120138B8AA0312013862
:10137300E4AA0312013811AB031201381BAB0312A9
:1013830001382BAB03120138FFAC031201382CAD2B
:1013930003E066701008A3E066700A08A3E06670B5
:1013A3000408A3E06622C008C3E096F50808A3E09A
:1013B30096420808A3E096420808A3E0964208A2D2
:1013C300D265D033E5087001D3D00822C3E796086D
:1013D30009E7960809E7960809E79622C3E0960805
:1013E300A3E09608A3E09608A3E09622C008C3E012
:1013F30096F50808A3E096420808A3E09642080879
:10140300A3E09645087001D3D00822080808EAC073
:10141300E0EBC0E086F0E7A4FA180986F0E7A42A17
:10142300FA180986F0E7A42AFA180986F0E7A42A2D
:10143300FA1986F0E7A4FBE5F02AFA190886F0E723
:10144300A42BFBE5F03AFA190886F0E7A42BFBE599
:10145300F03AFA18180986F0E7A4C5F02BFBE43A32
:10146300FA1908E7C5F0C6A426F6E5F03BFBE43A13
:10147300FA1886F0E7A4F6E5F00826F6E43B08F64A
:10148300E43A08F6D0E0FBD0E0FA22E4CFC0E0E48F
:10149300CEC0E0E4CDC0E0E4CCC0E075F020C3E60C
:1014A30033F608E633F608E633F608E633F618189B
:1014B30018EC33FCED33FDEE33FEEF33FFC3EC9753
:1014C30009ED9709EE9709EF97191919400FFFECEA
:1014D30097FC09ED97FD09EE97FE191906D5F0BEA5
:1014E300ECF709EDF709EEF709EFF7191919D0E051
:1014F300FCD0E0FDD0E0FED0E0FF22121566181804
:101503001812148E12155519191922121555191975
:1015130019080808E618181820E7E012148E1215A7
:101523006618181822090909E719191920E7DC08B0
:101533000808E618181820E70302148E1215661817
:10154300181812148E121566181818121555191931
:101553001922E4C397F709E497F709E497F709E435
:1015630097F722E4C396F608E496F608E496F6089D
:10157300E496F6226016080808C6C313C618C613F5
:10158300C618C613C618C613C6D5E0EA22700908E2
:101593000808226016181818C6C333C608C633C60F
:1015A30008C633C608C633C6D5E0EA22E627F608DE
:1015B30009E637F60809E637F60809E637F622E0C2
:1015C30026F608A3E036F608A3E036F608A3E036CD
:1015D300F622E026F008A3E036F008A3E036F00890
:1015E300A3E036F022C3E697F60809E697F6080962
:1015F300E697F60809E697F622C3E096F008A3E01B
:1016030096F008A3E096F008A3E096F022E056F6E1
:1016130008A3E056F608A3E056F608A3E056F62220
:10162300E056F008A3E056F008A3E056F008A3E064
:1016330056F022E0F608A3E0F608A3E0F608A3E0DC
:10164300F622E6F008A3E6F008A3E6F008A3E6F026
:1016530022E0FAA3E0FBA3E0FCA3E0FD22EAF0A36F
:10166300EBF0A3ECF0A3EDF022CAC0E0E6F0A30890
:10167300DAFAD0E0FA22CAC0E0E0A3C582CCC58280
:10168300C583CDC583F0A3C582CCC582C583CDC533
:1016930083DAE6D0E0CA22C3E498F8E499F9121693
:1016A300DB8026C3E49AFAE49BFBE920E7E9121600
:1016B300DBE498F8E499F922C3E498F8E499F91281
:1016C30016DBE498F8E499F9C3E49AFAE49BFB2265
:1016D300EB20E7CFE920E7E0B90010BB0008E88A78
:1016E300F084F8AAF022E4FBC8FA22EB70227B1004
:1016F300C833C8C933C9335007C39AC3DBF2800662
:101703009A50012ADBEAC833F4C8C933F4C9FA2270
:1017130075F008E4C833C8C933C933C99AC99B50A3
:1017230004C92AC93BD5F0ECFBC833F4C8E4C9FAB1
:1017330022600D08C6A2E713C618C613C6D5E0F388
:1017430022600C08C6C313C618C613C6D5E0F4221C
:10175300700422600D18C6C333C608C633C6D5E06D
:10176300F41822251810AF08F5184002151980083F
:10177300F51840021519D2AF22C0D0251810AF08B2
:10178300F518500205198008F51850020519D2AF53
:10179300D0D0222518F58210AF08F518400215198C
:1017A3008008F51840021519D2AF85198322251830
:1017B300F582E43519F58322E4732518C582C0E068
:1017C300E51934FFC583C0E0E518C3958224F810FA
:1017D300AF08858319858218800885831985821847
:1017E300D2AFCEF0A3E520F0A37808E608F0A3DE9D
:1017F300FAEFF0A3E58124FAF8E608F0A3E608F08F
:10180300A3E608F0A30808E608F0A3E608F0A3158A
:10181300811581D0E0FED0E0F8158115811581E8AE
:10182300C0E0EEC0E0222518C582C0E0E51934FF10
:10183300C583C0E0E518C3958224F910AF088583FA
:10184300198582188008858319858218D2AFCEF056
:10185300A3E520F0A37808E608F0A3DEFAEFF0A3EF
:10186300E58124FBF8E608F0A3E608F0A30808E600
:1018730008F0A3E608F0A315811581D0E0FED0E0BF
:10188300F815811581E8C0E0EEC0E0228519838553
:101893001882E0A3FEE0A3F5207808E0A3F608DFB2
:1018A300FAE0A3FFE0A3C0E0E0A3C0E0E0A3C0E050
:1018B300E0A3C0E0E0A3C0E010AF088582188583F1
:1018C300198008858218858319D2AFD083D082020C
:1018D3000135851983851882E0A3FEE0A3F52078FE
:1018E30008E0A3F608DFFAE0A3FFE0A3C0E0E0A36B
:1018F300C0E0E0A3C0E0E0A3C0E010AF0885821819
:101903008583198008858218858319D2AFD083D047
:101913008222C0D02518C582C0E0E51934FFC583F3
:10192300C0E0E518C3958224F310AF0885831985B9
:1019330082188008858319858218D2AFC8F0A3E97D
:10194300F0A3EAF0A3EBF0A37908E709F0A3D8FA30
:10195300ECF0A3EDF0A3EEF0A3EFF0A3D0E0F0A33F
:10196300D0E0F0A3D0E0F0A3E520F0A3E5F0F0A3EE
:1019730022851983851882E0C0E0A3E0F9A3E0FA89
:10198300A3E0FBA37808E0F608A3DFFAE0FCA3E0FA
:10199300FDA3E0FEA3E0FFA3E0C0E0A3E0C0E0A35B
:1019A300E0F5D0A3E0F520A3E0A3F5F010AF0885A0
:1019B30083198582188008858319858218D2AFD050
:1019C30082D083D0E0F8D0E03274048006740280C1
:1019D300027401C0E0F404121796D0E012166C22D0
:1019E3007404800474028000CCC0E0EDC0E0E5180C
:1019F300C39CCCAD1950011D10AF068C188D1980F6
:101A0300068C188D19D2AF121679D0E0FDD0E0FC08
:101A130022D083D082E9C0E0E493A3C386F0C5F06B
:101A230095F0F908E493A386F0C5F095F0700BE404
:101A330093A3C3994005E9048002A3E475F002A4CB
:101A43002582F582E5F03583F583D0E0F9E493A3AD
:101A5300C0E0E493C0E022D083D082ECC0E0EDC0CC
:101A6300E0E493A3FCE493A3FDED4C600D121AA6EE
:101A7300EC24FFFCED34FFFD80EFE493A3FCE4933F
:101A8300A3FDED4C600D121AE5EC24FFFCED34FFD1
:101A9300FD80EFD0E0FDD0E0FCE493A3C0E0E4934D
:101AA300C0E022C0E0C3E493960874019396184003
:101AB3000FE4936670080874019366187000701938
:101AC300A3A3C3E49396087401939618A3A3400DAC
:101AD300D0E0D0E0D0E0021A96A3A3A3A3A3A3D09F
:101AE300E022C0E0C0F088F0E49366700808740157
:101AF3009366187000A8F0A3A3700BD0F0D0E0D0C9
:101B0300E0D0E0021A96A3A3D0F0D0E022C0E074A4
:101B1300F2121915E5A8FED2AF5389FDC2C57900AB
:101B230012077C790012077C790012077CE9900286
:101B3300E8F0790012077CE99002E7F0EEA2E79261
:101B4300AF7F01021974C0E0C0D0E8C0E0E5A8D2BD
:101B5300AFC2C7751A00A2E792AFD0E0F8D0D0D0D9
:101B6300E03274F5121829EAFEEBFFEE2434F8EFA5
:101B73003400F988088909EE2435F582EF3400F53D
:101B830083E0F8EE2437F582EF3400F583E0F50ABD
:101B9300EC850AF0A4FCAAF0850AF0EDA42AFDE87E
:101BA3002CF8E43DF97A257B001216DBEA850882DE
:101BB300850983F05407F87401B800028004C33325
:101BC300D8FCC0E0E0131313541FF8EE28F8EF34E9
:101BD30000F9E8245DF582E93400F583D0E0F8E00C
:101BE300586008EE2434F582EF801EEE2436F58229
:101BF300EF3400F583E0F5F0EA84A8F0EE28F8EF7F
:101C03003400F9E82438F582E93400F583E0F97FFC
:101C1300040218D574F5121829EAFEEBFFEE2434FA
:101C2300F582EF3400F583E0C0E0EE2435F582EF72
:101C33003400F583D0E0F08E828F83A3A3A3A3A304
:101C4300A3A3C082C0838E828F83A3A3A3A3A3E095
:101C5300F8A3E0F9D083D082E0C398F508A3E09914
:101C6300F509EE2480F582EF3400F583E06401701A
:101C730069EE2481F582EF3400F583E0F8A3E0F9FF
:101C83008E828F83A3A3A3A3A3A3A3E0FCA3E0FD5E
:101C93008E828F83A3A3A3A3A3E0FAA3E0FBC3EAEB
:101CA3009CEB9D5027C3EC98ED99402EC3EA98EB2B
:101CB3009950277C727D08EEFAEFFB120F80EE2419
:101CC30080F582EF3400F583E4F0800EC3EA98EBED
:101CD3009940E0C3EC98ED9950D9EE2434F8EF34F1
:101CE30000F9E8FCE9FDEE2435F582EF3400F583D5
:101CF300E0F8EE2437F582EF3400F583E0F50AE5EA
:101D030008850AF0A4F508AAF0850AF0E509A42AD3
:101D1300F509E82508F8E43509F97A257B00121658
:101D2300DBEA8C828D83F05407F87401B8000280DB
:101D330004C333D8FCC0E0E0131313541FF8EE2898
:101D4300F8EF3400F9E8245DF582E93400F583D037
:101D5300E0F8E0586008EE2434F582EF801EEE24AC
:101D630036F582EF3400F583E0F5F0EA84A8F0EE6F
:101D730028F8EF3400F9E82438F582E93400F583D4
:101D8300E0F9122611021C12C082C08385188285D5
:101D93001983E0F8A3E0F9C3EA9CEB9D5012C3EC6E
:101DA30098ED994019C3EA98EB9950127901801084
:101DB300C3EA98EB9940F5C3EC98ED9950EE79009E
:101DC300D083D08222EAC39CFAEB9DFB2285218734
:101DD3008522C622C0E0C0D0E8C0E0E9C0E0EAC086
:101DE300E0EBC0E0ECC0E0EDC0E0C008C009C00A11
:101DF300C00BC082C083C0F0759B00906182E0A2DB
:101E0300E64003021EB5E591A2E64003021EB57546
:101E130091BF900737E0640570081210B81210C420
:101E230080031210BE75210012111EE9900738F0CD
:101E33007900121112120EF67A017B00900736E038
:101E4300F91204B8907803E064426003021EFE9026
:101E530008D4E014F06003021EFEC2AF121E62003B
:101E6300782AD0E0F618D0E0F6E59F5407F970051C
:101E73009081B880039081B47808121636E9C4C003
:101E8300E07829E65508F50808E65509F509740BC5
:101E93007808121744D0E02508F8906270E0A2E7B2
:101EA30040F8E8C333906272F0906270E0D2E0F0E1
:101EB3008049E0A2E55024E591A2E5501E7591DF2B
:101EC300900737E0640D7013900759E004F064281D
:101ED3007002E4F07A00E0F9121190906181E0A2BF
:101EE300E35009E5E9A2E3500375E9F7A3E0A2E7AC
:101EF3005009E591A2E7500375917FD0F0D083D0CC
:101F030082D00BD00AD009D008D0E0FDD0E0FCD0BD
:101F1300E0FBD0E0FAD0E0F9D0E0F8D0D0D0E03266
:101F2300C0E0C0D0C082C083906183E0A2E05009CA
:101F3300E5BFA2E0500375BFFEE0A2E15009E5BF93
:101F4300A2E1500375BFFDE0A2E25009E5BFA2E2A2
:101F5300500375BFFBE0A2E35009E5BFA2E35003C2
:101F630075BFF7E0A2E45009E5BFA2E4500375BFD3
:101F7300EFE0A2E55009E5BFA2E5500375BFDFE03E
:101F8300A2E65009E5BFA2E6500375BFBFD083D0D8
:101F9300828088C0E0C0D0E8C0E0E9C0E0EAC0E0E9
:101FA300EBC0E0ECC0E0EDC0E0C0F0E5A7A2E65076
:101FB3000FE5A1A2E6500953A7BF75A1BF121FFBEE
:101FC300E5A7A2E5500CE5A1A2E5500653A7DF75EE
:101FD300A1DFE5A7A2E15009E5A1A2E1500375A1A4
:101FE300FDE5A7A2E2500CE5A1A2E2500653A7FB30
:101FF30075A1FBD0F0021F0C74F81218297521018A
:10200300900737E06406701512104C8A828B83A305
:10201300A3A3A3A3A3E0FAA3E0FB1210A6A2AFE439
:1020230033FED2AF90073DE0640170187A207B0045
:10203300900736E0F91205427A207B00900736E0DC
:10204300F91204BE906182E0D2E6F09008D3E0601A
:102053002185C622801690073CE064017008E5C61E
:1020630054F84405F5C653BEFC121DD07401652116
:1020730060E4EEA2E092AF7F010218D5008E238FB9
:1020830024858228858327851882851983E0CEA33A
:10209300E0CF852882852783EBC9EAC8EDCBECCA5C
:1020A30075F010C3E833C8E933C9EA33CAEB33CB5D
:1020B300C3EA9EF526EB9FF525B35004AB25AA266C
:1020C300EC33CCED33CDD5F0DAAE23AF242274EB71
:1020D30012182974FA1217668A088B098C148D1545
:1020E300900737E024F7C39405500690821002222C
:1020F3003312104C8A0A8B0BAE0AAF0BEE4F7003F0
:10210300022230AC08AD09851882851983AA82ABF7
:10211300831210D68E828F83A3A37808121636906B
:1021230081D87808121610851882851983780C12C5
:1021330016369081D8780C1216107808790C121381
:10214300CF501F7808790C1215E890817C7808121B
:1021530013EF4047850810850911850A12850B1373
:102163008041850C10850D11850E12850F13781093
:1021730079081215E890817C78101213EF501C75C2
:1021830010007511007512007513017810790C1287
:1021930015E8781079081215AF800890821078102E
:1021A30012163674097810121590908180780812EF
:1021B30016367810790812148E8E828F83A3A3A308
:1021C300A3A3A3E0F8A3E0F97AD07B031216DB887C
:1021D300088909E4F50AF50B781079081215AF742C
:1021E300041217B1E0F8A3E0F97AD07B031216DBEF
:1021F300E8FA8A08E4F509781079081213CF500732
:10220300781079081215E8900737E06408600AE04F
:1022130064066005E06405701C90818478101213D5
:10222300EF501290818878101215C2800890822C8A
:102233007810121636851482851583781012164588
:10224300740612177C7F0E0218D574F71218291220
:1022530010E89008D1E064017010906245E4F0A3A7
:10226300F053F4F343FE0C5390F3121094E5C65469
:10227300804449F5C6E59E547F644970F8906185B2
:10228300740FF09008CFE0F47002A3E0604E900862
:10229300D0E0600814601B14602E8040750801753F
:1022A30009009008CFE07808121753E508F452802C
:1022B300802A7508017509009008CFE07808121785
:1022C30053E508F4529080147508017509009008CD
:1022D300CFE07808121753E508F452A079007F0283
:1022E3000218D574F7121829E9FEEAFF74016E701B
:1022F3000C7A807B00900736E0F91204B890262010
:10230300E493F46008E493F9120EEA800953C6805B
:10231300E59E547F70FA12109A9008D1E064017020
:1023230003120F029008CFE0F47002A3E0604B9019
:1023330008D0E0600814601A14602C803D75080111
:102343007509009008CFE07808121753E50842801A
:1023530080287508017509009008CFE078081217E6
:1023630053E508429080137508017509009008CF62
:10237300E07808121753E50842A01210E812104C37
:102383008A088B09A808A909E8496015E5E170FCEA
:10239300E82414F582E93400F583E0F46003E0F502
:1023A300E174016F700A7A01900736E0F9120512A1
:1023B3000222E174F11218298A088B098C0A8D0B09
:1023C300740F1217B1780C1216369081D878081250
:1023D30016109081D8780C1216107808790C121305
:1023E300CF50157808790C1215E890817C78081283
:1023F30013EF401579018013780C79081215E890D2
:10240300817C780C1213EF40EB79007F080218D51A
:1024130074ED1218298A088B098C0A8D0B74131218
:1024230017B1780C1216369081D8780812161090CE
:1024330081D8780C121610780C79081213CF40113A
:102443007808790C1215E8AA08AB09AC0AAD0B8021
:10245300227510007511007512007513017810793B
:102463000C1215E8781079081215AFAA10AB11AC4D
:1024730012AD137F0C0218D59081D8780812163646
:102483008A828B8378081216237F040218D574F589
:102493001218298C828D8378081216368A828B83D0
:1024A30078081215FCEA2404F8EB3400F98C828DC9
:1024B30083A3A3A3A3E0FCA3E0FD88828983C3E0F5
:1024C3009CF0A3E09DF088828983C3E09420A3E07D
:1024D300944E402290822078081216368A828B838B
:1024E30078081215D58A828B83A3A3A3A3E02420A3
:1024F300F0A3E0344EF0808074F5121829E9FE90C1
:102503000889E0FAA3E0FBEEC333F8E433F974E19E
:1025130028F582748039F583E02AF508A3E03BF5BA
:102523000978081219D09081B012165412208074C1
:102533000212177C8A088B098C0A8D0B7410780899
:10254300121577AA08AB097F040218D574F1121883
:10255300298A0C8B0D8C0E8D0F740F1217B1E0FAB4
:10256300A3E0FB74111217B1E0F508A3E0F50974B9
:10257300131217B1E0FEA3E0FF78081219D0EA2482
:1025830001F508EB3400F509E4F50AF50B780C794D
:102593000812140E9081907808121636780C790878
:1025A30012140EAA0CAB0DAC0EAD0F1220807402E8
:1025B30012177C8B09EA450960047A0180027A00CC
:1025C300EC2AFCED3400FDECF8EDF97A717B021294
:1025D30016DB88088909E4F50AF50B8E828F837868
:1025E30008121645ECF8EDF97A717B021216DB8AB4
:1025F300088B09740578081217538E828F83A3A35F
:10260300A3A3E508F0A3E509F07F080218D5C0826B
:0C261300C083E9906000F0D083D08222E8
:10262000FFFFFFFFFFFFFFFFC082C083E9900CFCAC
:10263000F002284774F71217BDE9900655F07C8D1B
:102640007D067AFF7BFF120C2690065674FFF0A3DE
:10265000F0A3E4F0A3F07905120BB4900655E0F96D
:10266000120ADC7A3E7B0C120E0002355574F4120D
:1026700017BD8A088B09EB54806030900655E0F94D
:102680001204A08A0A8B0BAE0AAF0BEE4F60138EBA
:10269000828F83E064B07003120BC6EEFAEFFB1278
:1026A000048EAA08E5096480FB80047A007B00029E
:1026B000281674F21217BD74FC121766EAFEEBFFBF
:1026C00074121217B1123A3CEE4F70030227557480
:1026D000021217B1EEF0A3EF122A51ECF0A3ED12A3
:1026E0002A51AA82AB83120AD6E9F50A706AE50874
:1026F000450960648E828F83123A22EE4F60567ACB
:10270000067B001204FA8A0C8B0DA80CA90DE8496F
:102710007005750A13804188828983E4122762EE6E
:10272000F0A3EF123A4DE508F0A3E509F090065B3F
:102730001227E990065B70051234FF801B1234EDFE
:102740008003EAFCEBFD8C828D831227E970F38C09
:10275000828D8380E3750A02A90A740412177C0231
:102760003C3CF0A31239F3A32274F21217BD890A7C
:10277000E975F017A4FEAFF090065AE4F090065801
:102780001227E9600A120500900658E4F0A3F0EE63
:10279000FAEFFB1204FA8A088B09EA4509602FEE6A
:1027A000FCEFFD790012047C900658E508F0A3E5E3
:1027B00009F07B0080081227D3E4F0A3F00BEBC3F1
:1027C000950A40F2E50A90065AF0790080027913E2
:1027D000023C3CEB75F017A4F8A9F0900658E028ED
:1027E000FAA3E0398A82F58322123191EA4B2274EE
:1027F000F41217BD7900EAA2E0501B750852750962
:102800008178081219D07C047D007AFE7B0C120BB3
:10281000AE740212177C7F0402188FC082C08390AE
:10282000065B12284E601C88828983A3A3E06A702D
:1028300003A3E06B8882898370E8A3A3A3A312316A
:102840008D80047A007B00D083D082020135123D56
:1028500022E8492274EE1217BD74FC121766EAFED4
:10286000EBFF851882851983E4F0A3F0EE240212B1
:1028700034DFEE24051239FAEE2404F50EEF122EA1
:1028800006E024FE603924FC604624FE605224FEEB
:10289000605E24FE700302296724FE70030229CBC8
:1028A00024FE70030229DA24FE70030229E924FCC5
:1028B00070030229F824FE7003022A07022A4490BA
:1028C00006747417F0A3E4122A59120854022A4419
:1028D000851882851983AC82AD83120BCC022A1431
:1028E000851882851983AC82AD83120BD2022A141B
:1028F000850C08850D0974021217B1AC82AD838571
:10290000088285098312318D120AFA8A0C8B0DAC6C
:102910000CAD0DEC4D603BE4F50CF50D780C121987
:10292000D0750C74750D06780C1219D0750C757570
:102930000D06780C1219D074081217B11219E7128B
:102940003D4612177CE9F50C700B12318312086CAE
:10295000800F750C01850882850983122A4712347D
:10296000FF850C08022A1774021217B1AC82AD83DE
:10297000850C82850D83122F58603C850C82850D55
:1029800083A3A31219E77510747511067810121934
:10299000D075107575110678101219D074081217B9
:1029A000B11219E7123D4612177CE9F509700B12B6
:1029B0003183120872800F750901850C82850D83A1
:1029C000122A471234FF850908804C851882851920
:1029D00083AC82AD83120BD8803A85188285198327
:1029E000AC82AD83120BDE802B851882851983ACF7
:1029F00082AD83120BE4801C851882851983AC821A
:102A0000AD83120BEA800D851882851983AC82ADE7
:102A100083120BF0E9F508E50860298E828F83A305
:102A2000E06414601F850E82850F83E090067412A7
:102A30002A51123D1E9006751234FFE508A3122A92
:102A40005912084E0233EE123D22851882851983F1
:102A500022F085188285198322F07C747D06850A10
:102A600082850B831231912274EE1217BD74FC1211
:102A700017668A0A8B0B8C0E8D0FEA2405F508EB7E
:102A80003400F5097C157D0079007A747B06120408
:102A90007CE5082402F50CE5091239FD85188285CC
:102AA000198385821085831178101219D0850882C8
:102AB000850983A3A3A3A3122F4F1219D0E50824DD
:102AC00005F510E5093400F51178101219D0850CC0
:102AD00082850D831232A4120AF4740612177C8ABE
:102AE000108B11AE10AF11E50A2402F50AE50B12A6
:102AF00034E2EE4F7003022C26801774021217B1D5
:102B000012318D88828983EAF0A3EBF0900674E09D
:102B100004F0900674E0C394054003022C26E4F50B
:102B200010F51178101219D075105D751106781016
:102B30001219D075105E75110678101219D074062E
:102B40001217B11219E77910EEFCEFFD123D481291
:102B5000177CE9705E850882850983A3A3A3A3A3DC
:102B6000A3A3E0F890065DE0687048122F4F121999
:102B7000D07C5E7D06E5082408FAE5093400FB12E6
:102B80000476740212177CE960298E828F83A3A3D6
:102B9000A3A312318D900674E0F510740278101220
:102BA000175374752510F58274063511F583EAF014
:102BB000A3EBF074021217B185821085831178108F
:102BC0001219D074021217B11219E7850C82850D03
:102BD000831231B312177C8A108B11AE10AF119093
:102BE0000674E0F510751100740278101217537412
:102BF000742510F874063511F988828983A3122789
:102C0000E97003022AF2E82403080808E93400F90D
:102C1000EE4F6003022AFB8882898374FFF0A3F0E1
:102C2000900674E004F0900674E0600A123183129A
:102C300008607900800B8508828509831234F67953
:102C40000A0233EE74EA1217BD74FE1217668C1274
:102C50008D13EA2405F50CEB123D30123A26750867
:102C600000750900EA2402F510EB3400F51185180F
:102C70008285198385820A85830B780A1219D0858B
:102C80000C82850D83A3A3A3A3122E1C1219D0E5D9
:102C90000C2405F50AE50D1234E2780A1219D085E4
:102CA0000C82850D83122E20120AF4740612177CF2
:102CB0008A0A8B0BEA450B7003022DC1EA2404F546
:102CC0000EEB122E06123A268A828B83A3A3A3E070
:102CD000F98510828511831231976003022DC1E4BA
:102CE000F514F51578141219D075145D751506785C
:102CF000141219D075145E75150678141219D07453
:102D0000061217B11219E77913AC0AAD0B851082C0
:102D1000851183123D4E12177CE9F5096003022DDF
:102D2000C190065DE0F8E5087009E02402900675A0
:102D3000F08014900675E0FCE82402FAE43400FB0D
:102D4000EA6C7001EB707E850882AA82122F46948D
:102D500014122F3E506B850E82850F83E0C0E07405
:102D6000762A122DFDD0E0F00508850E82850F83AE
:102D7000A3E0C0E085080A7476250A122DFDD0E094
:102D8000F0050890065D122E1C1219D07C5E7D069F
:102D900085080A7476250A122E1012177C90065D9B
:102DA000E02508F50874FF6E700374FF6F6012EE83
:102DB00024010EEF3400FFE508C394145003022CE5
:102DC0006EE50860131231A18510828511831231DE
:102DD0008D12086679008014E509700375090A856B
:102DE0001282851383EEF0A3EFF0A9097402121783
:102DF0007C7F0E02188F85080C7476250CF5827482
:102E0000063400F583223400F50F850E82F5832207
:102E1000FA74063400FB120464740222123A5C2233
:102E2000A3A3122E26221234EDFDEEFAEFFB22743C
:102E3000EE1217BD74FE1217668C0E8D0FEA240574
:102E4000F50CEB1239FD750B00900674E4F0F50AF1
:102E5000EA2402F508EB3400F5098044900674E09A
:102E6000FA90065DE0F8122F469417122F3E400D9F
:102E7000900674E0F87416C39890065DF0122F4F18
:102E80001219D07C5E7D0674752AFA7406122E1310
:102E900012177C90065DE0F8900674E028F0050AB1
:102EA000E50C2416F582E50D122E01E0F8E50AC3C3
:102EB000985074900674E0C39416506BE50AC333BF
:102EC000F8E433F9E50C28FEE50D39FF8518828515
:102ED0001983AC82AD838E828F83122F5870087550
:102EE0000B011234F28050E4F510F511781012192C
:102EF000D075105D75110678101219D075105E75B9
:102F0000110678101219D074061217B11219E77948
:102F100016850882850983123D4E12177CE9F50B50
:102F20007003022E5C80BB7C747D06850882850957
:102F30008312318D120878A90B74020233F0E994E0
:102F400000C365D03322EA28F8E43400F9E822E02F
:102F5000F5107511007810221233E58A108B11AC30
:102F600010AD11EC4D2274EA1217BD74FC121766F5
:102F70008A0C8B0D8C128D13EA2405F50AEB1234A2
:102F8000E2750800750900E50A2402F510E50B3426
:102F900000F51174021217B185820E85830F780E29
:102FA0001219D0850A82850B83A3A3A3A3123A0228
:102FB0001219D0E50A2405F50EE50B3400F50F785B
:102FC0000E1219D08510828511831234E8123187D0
:102FD000120AF4740612177C8A0E8B0FAE0EAF0F16
:102FE000E50C2402F50EE50D3400F50F80388882DB
:102FF000898374FFF00508122DF674FFF005089020
:10300000065DE0F50C750D00780C1219D07C5E7D24
:103010000685080C7476250C122E1012177C90066B
:103020005DE02508F508EE4F60278E828F83A3A30D
:10303000A3E0F9850E82850F83123197EE240412E6
:1030400039FAE96027850C82850D831231791234B3
:10305000FFE508700302315F1231A1850E82850FF2
:103060008312318D12087E7900023174E4F514F573
:103070001578141219D075145D7515067814121987
:10308000D075145E75150678141219D074081217CD
:10309000B11219E77911EEFCEFFD850E82850F83E1
:1030A000123D4E12177CE9F509709A850882AA82B2
:1030B000EA90065D7009E02404900675F08025E032
:1030C000F8900675E0F514E82404FCE43400FDEC07
:1030D00065147001ED7081122F469412122F3E403C
:1030E00003023058850C82850D83E0C0E074762A97
:1030F000122DFDD0E0F00508850C82850D83A3E03C
:10310000C0E0122DF6D0E01231BC85820C85830D13
:10311000780C1219D074041217B11219E7851082B5
:103120008511831231B312177C8A0C8B0DAE0CAF54
:103130000D85080C7476250CF874063400F9EE4FF2
:103140007003022FEE851882851983E088828983B7
:103150001231BCA3E0C0E0122DF6D0E0022FFCE556
:1031600009700375090A850A82850B831231791269
:1031700034FFA9097404022DEE123D2285128285C6
:103180001383227C747D06850A82850B831231911C
:1031900022E0FAA3E0FB22123191120AE2E9F509DA
:1031A00022900675E0F5F0E50884900674F07C74D2
:1031B0007D0622122E26120B00740422F0050885CB
:1031C00018828519832274EC1217BD74FE121766DB
:1031D0008A088B098C0E8D0FEA2405FEEB3400FF64
:1031E0001233CFEE24181239FAEA450B700302327B
:1031F000721233B850291232978A108B11EA451196
:10320000606B7912AC0AAD0B850882850983123197
:103210008D8510828511831217BBE9F50A7058E479
:10322000F50AF50B780A1219D08E828F83A3A3E0DA
:10323000F50A780A1219D0EE24031234DF780A1244
:1032400019D08E828F831232A4120C1474061217B6
:103250007CE9F50A7021850C82850D83E0701F855D
:10326000088285098312318D1208848011750A0E37
:103270008009750A018004E50A60031234F2850CA6
:1032800082850D83E0600479008002A90A7402122D
:10329000177C7F0C02188F85188285198312319153
:1032A000120C02221234EDFD850882850983123149
:1032B000912274EE1217BD74FE1217668A088B09EC
:1032C0008C0C8D0DEA2405FEEB3400FF750E001208
:1032D00033CFEA450B70030233961233B8502C12E9
:1032E00032978A0E8B0FEA450F604A7912AC0AAD0D
:1032F0000B85088285098312318D850E82850F83A7
:103300001217BBE9F50E600302339985088285091F
:10331000831235D4AA0AFB1233AA70147AFF7BFFFA
:103320001233AA606C88828983E50AF0A3E50BF06A
:10333000750A008007750E0E805F050A90065AE038
:10334000FAE50AC39A504AE50A75F017A4FAABF0F9
:1033500088828983A3A3E02AFAA3E03BFB8A828BBD
:10336000831234E8EC4D70D2750A17750B00780A99
:103370001219D0EEFCEFFD120464740212177CEEF9
:10338000FCEFFD85088285098312318D12088A8041
:1033900014750E098003750E01123D1A850C828585
:1033A0000D831234FFA90E022F39120BF68A108BEF
:1033B00011A810A911E84922E5082402F508E50939
:1033C0003400F5098A828B83A3A3A3E0A2E52285BA
:1033D0001882851983AC82AD838E828F831233E588
:1033E0008A0A8B0B22E0FAA3E0FB120AFA22740489
:1033F00012177C7F0A02188F74EC1217BD8C108D87
:1034000011EA2405F50CEB1239FD750F00EA2402D0
:10341000F50AEB1234E2850A82F58312318D123DF2
:10342000D470030234D4750E008071850C82850D32
:1034300083E06401704F8E828F83A3A31219E78EFD
:10344000828F83A3A3A3A3E0F51275130078121251
:1034500019D0EE2405F512EF3400F5137812121985
:10346000D0123187120C14740612177CE9F50F6024
:1034700014850C82850D83E4F0123D1A8510828537
:1034800011831234FF7C177D007900EEFAEFFB12F6
:10349000047C8E828F83E4F0A3F0050E90065AE040
:1034A000F8E50EC398501EE50E75F017A4F8A9F0C4
:1034B000850882850983A3A3123D3A1234E8EC4DB6
:1034C000600302342B85088285098374FFF0A3F022
:1034D000E50F7006123187120890A90F023292F59B
:1034E0000AEF3400F50B22A31234EDFD22E0FCA319
:1034F000E0228E828F83123D22850E82850F83E823
:10350000F0A3E9F022C082C083900656E06A7003FF
:10351000A3E06B70067A567B0680047A007B00027B
:10352000284774F71217BD7F00EF75F003A4F8A9C0
:10353000F0EC28F8ED39F988828983E06A7003A3FA
:10354000E06B7006E8FAE9FB800B0FEFC3940240D2
:10355000D87A007B007F0102188F74F61217BD1213
:103560003B0B70067A007B008007A3A3A3A3123154
:103570008D023BCC74F21217BDE9FE740E1217B126
:103580001235D474101217B1123A3C8C828D83E03C
:103590006402703BA3123D1E88828983E0F50CA370
:1035A000E0F9A80C74026870037429697021750C25
:1035B00002750D00780C1219D078081219D0780A0B
:1035C0001219D0EEF9120C38740612177C800279A9
:1035D00001023C3CE0F50AA3E0F50B2274E8121767
:1035E000BD74FB121766E9851882851983F08A1667
:1035F0008B178C0E8D0F741F1217B1123A3C742169
:103600001217B11235D474231217B1123A2675105D
:10361000008C828D83A3A3A3E0A2E4502A741D1220
:1036200017B112329D8A828B83E582458370030233
:1036300036E8790AAC0EAD0FAA16AB171217BBE924
:10364000F51060030236EB850E82850F83E064027D
:1036500060030239A1A3123D1E850882850983A358
:10366000858212858313E50E2406F50CE50F1239C9
:10367000FD88828983E0FAA3E0F9EA2400F514E4E6
:1036800039F5157814121A5A010000280128B036AD
:103690000700022887370328F7360029B1380129A7
:1036A000D938022980380329B13804294239A1398F
:1036B000EE4F703E850C82850D83123A17FAE9FBB6
:1036C0008A828B83E0850A82850B83123A53121912
:1036D000D08A828B83A31234EDFDAA08AB091204B1
:1036E00064740212177C800375100EA91074050211
:1036F0003D2875100B80F4EE4F70F7850A82850B1C
:10370000837401F0123A2C850882850983F07C00CD
:103710007D00850E82850F83A3A3A3A3E02401FA75
:10372000A3E03400FB120AFAEA4B60418A828B83E1
:10373000E02402F8850A82850B83E028F0EA24045D
:10374000F8EB3400F988828983E08512828513833F
:10375000123A65123A531219D08A828B831234E7D7
:10376000E5082403FAE5093400FB0236DE850A8207
:10377000850B83E02404F07C047D007900AA12AB61
:103780001312047C0236EBEE4F60030236F2123A5B
:103790002CFEA3E0FF850A82850B837404F0EE857E
:1037A0000882850983F0EF851282851383F0740304
:1037B0001217B1AC82AD83EEFAEFFB123AF9700347
:1037C00002385D8A828B83A3A3123A2274011217F6
:1037D000B185820E85830F780E1219D074051217E9
:1037E000B11219E77CFF7DFF120B00740412177CE5
:1037F0008B0FEA450F7033850C82850D83123A02D8
:103800001219D0850C82850D83A31219E77C027DE5
:10381000007A487B8212092C740412177CE9700A22
:1038200074011217B174FFF0A3F08E828F83E064ED
:10383000027034750C02750D00780C1219D08E824E
:103840008F831234E7E5082404FAE509122E1312D7
:10385000177C850A82850B83E0240280097401129B
:1038600017B1EEF0A3EFF074011217B1123A13F092
:1038700074011217B1A3123A0BA3A3A3F00236EB03
:10388000EE4F60030236F2850C82850D831234E818
:10389000AA16AB17120C2C850A82850B837402F0D2
:1038A000EA850882850983F0851282851383EB807F
:1038B000CBEE4F60030236F2123A2CF8A3E0F98502
:1038C0000A82850B837402F0E8850882850983F0FB
:1038D000E985128285138380A3850C82850D83126E
:1038E000318D12045EEAFC8C82A882C39EE49F4064
:1038F0004BE86E7001EF70047C00801F8518828594
:103900001983E0FAEE2AFAEF3400FBC3EA98EB944D
:10391000005003E08004EECCC39CFCEC850A828559
:103920000B83F08C0A750B00780A1219D0850C8273
:10393000850D83E02EFCA3E03F0236D97510070207
:1039400036EBEE4F60030236F2850C82850D831252
:103950003D1E850A82850B837407F0888289831255
:103960003A0B1239F3E0851282851383F0E82402C2
:10397000FAE93400FB8A828B83123A0B123A441222
:103980003A13A3123A4D123A1CF0E82405F8E93430
:1039900000F988828983123A1CA3123A65A302387F
:1039A00079741D1217B1123B0470030236E8123D00
:1039B0001E880C890DE8450D70030236E88E108FC5
:1039C0001178101219D0780A1219D078081219D06B
:1039D00074061217B1E0F9AC0EAD0FAA16AB17853D
:1039E0000C82850D831217BB740612177CE9F51043
:1039F0000236EBF088828983A322F50CEF3400F5C0
:103A00000D22E0F50E750F00780E22E08508828504
:103A1000098322123A6C22123D22E822123A6CA348
:103A2000A322A3A3A3A3E0FEA3E0FF22850C82852B
:103A30000D83E0F8A3E0F5838882E022E0F508A397
:103A4000E0F50922A3A3F08A828B83A322122764C4
:103A5000A3A322F08A828B83123A5C22E0F50A75D6
:103A60000B00780A221239F3123A6C22E0850882A0
:103A7000850983A3A32274EE1217BD74FE12176684
:103A80008A0A8B0BECFAEDFB74141217B1E0F510F7
:103A9000A3E0F51174161217B1E0FE74181217B1F5
:103AA000E0F50EA3E0F50F851882851983AC82AD91
:103AB00083123AF9603E851882851983123B0460AF
:103AC0002FA3A3123A3CE50845096024780E121989
:103AD000D078101219D0EEF9AC0CAD0DAA0AAB0BD0
:103AE0008508828509831217BB740412177C80062F
:103AF000790E80027901022F39120AFA8A0C8B0D95
:103B0000EA450D22123191123B0B22120BC08A8220
:103B10008B83E58245832274F61217BD74FE12175B
:103B200066740C1217B1123A17851882851983F042
:103B300074011217B1E9F0E4F508F50978081219D3
:103B4000D075080278081219D074041217B1858252
:103B50000885830978081219D0120C1474061217FC
:103B60007C740212177C806474F71217BDEAFEEBB6
:103B7000FF89087C8D7D06120C2CEA5402600BA98B
:103B800008EEFAEFFB120AEE800279010235557455
:103B9000F61217BD74FF6A700374FF6B701C7B0014
:103BA000EB75F003A4F8A9F0EC28F8ED39F9123B15
:103BB000D10BEBC39402501480E6120BFC8A088BE5
:103BC00009A808A909E8496003123BD17F0202183D
:103BD0008F8882898374FF122762E4F02274F612C0
:103BE00017BD120BFC8A828B83E58245836006A396
:103BF000A3E0FA80027A007B0080D174F21217BD34
:103C00008A088B09ECFEEDFF740E1217B1E0F50A7D
:103C1000123C41701CEEFCEFFD7AFF7BFF123C4131
:103C200070047911801688828983E508F0A3E5097C
:103C3000F088828983A3A3E50AF079007F06021841
:103C40008F120BFC8A0C8B0DA80CA90DE84922746D
:103C5000EE1217BDEAFEEBFF8C088D09890C741279
:103C60001217B1123D1E74141217B11234E87416F3
:103C70001217B112318D750D00EC4D6003023D122B
:103C80007402650C6003023D0D888289831234ED55
:103C9000F9EC2400F50EE439F50FEAF4F8EBF4F949
:103CA000EC58F8E50F59F9E849705DE5082406F885
:103CB000E5093400F9880A890B8882F583122E22DF
:103CC000120C2C8A108B11E50E65107004E50F653F
:103CD000116042780E1219D0850A82850B83122E4C
:103CE00022120C32740212177CE9F50D7027780E3F
:103CF0001219D0850882850983A3A3122E20120CE5
:103D000044740212177C800D750D808008750D0DAE
:103D10008003750D0BA90D0233F38E828F83123D44
:103D20002222E0F8A3E0F92212177C7F1002188FFC
:103D30003400F50D850C82F58322E028FEA3E039DE
:103D4000FF8E828F83227916850A82850B8312313A
:103D500091120C0E74082274F21217BDEAFEEBFFEA
:103D6000890B7401650B600E7402650B7063790139
:103D7000120E1EE9705BEEFAEFFB123DD460477540
:103D80000A00800B7C177D00790012047C050A90E4
:103D9000065AE0F8E50AC3985021E50A75F017A421
:103DA000F8A9F0850882850983A3A3E028FAA3E097
:103DB00039FB8A828B8312284E70C9850882850957
:103DC0008374FFF0A3F07C8D7D06EEFAEFFB120CFE
:103DD00026023C3C120BF68A088B09EA450922743C
:103DE000F21217BD8A088B09ECFEEDFF740E121754
:103DF000B11235D4900CFCE0F4603D7A097B0012DE
:103E00000488EA4B60328A828B8374B1F0A3E41297
:103E10003A46A3123A44A3E508F0A3E509123E3B53
:103E2000EEF0A3EF123E3BA3A3E50AF0A3E50BF0EF
:103E3000900CFCE0F9120494023C3CF08A828B83E3
:103E4000A3A3A3A3A322C082C0839061907404F0B3
:103E5000A37448F0A37402F09061807440F0906104
:103E6000BC7403F09061877419F0906265741BF064
:103E700090619C740DF090619A7433F0A37455F0C6
:103E80009061A0743AF09008D1E064017009C29189
:103E900090073B7467800590073B7461F09026267D
:103EA000E493906186F0902620E493F46027E493F5
:103EB000540FF8906185E0686012E5C6548044496B
:103EC000F5C6E59E547F644970F8E8F053C680E576
:103ED0009E547F70FA7905121172024088C082C028
:103EE00083E9540FF9906185E0696012E5C654805A
:103EF0004449F5C6E59E547F644970F8E9F053C61D
:103F000080E59E547F70FA024088C082C083E5A895
:103F1000F853A87E906181E4F0A3F0A3F0C2BA53F5
:103F20009AFEC289759B00C2C275E9007591007541
:103F3000BF0075A91175B905906181F0A374C0F037
:103F4000A3E4F0D2BA439A0174805842A802408890
:103F5000C082C08374F8121766900739E0F8A3E0B6
:103F6000F9E849700302407E900739E0544060232D
:103F70007908851882851983AA82AB83120FDA85A6
:103F80001882851983AA82AB83120CB0900739E09E
:103F900054BFF0E054806010790C7AF57B08120F62
:103FA000DA900739E0547FF0E0A2E0503190619A56
:103FB0007433F0A37455F09061A0743AF09008D176
:103FC000E064017009C29190073B74678005900717
:103FD0003B7461F0120CB6900739E054FEF0E054E7
:103FE00002603190619A743FF0A3745AF09061A01E
:103FF000747FF09008D1E064017009D29190073B82
:104000007471800590073B746AF0120CB690073902
:10401000E054FDF0E054046013902624E493906192
:1040200086F0120CBC900739E054FBF0E0540860B5
:1040300013902625E493906186F0120CBC9007390A
:10404000E054F7F0E054106013902626E49390615A
:1040500086F0120CBC900739E054EFF0E054206079
:104060000A120CBC900739E054DFF0A3E054016061
:104070000D120F02120CC290073AE054FEF07408C1
:1040800012177C8003F0A3F0D083D0820201357434
:10409000EC1217BD74F4121766851882851983AC6B
:1040A00082AD837583817582D0740412167990264F
:1040B0002493F4600302421C907808E0C3940250F9
:1040C000030241FC74041217B1AC82AD8375838185
:1040D0007582437408121679851882851983858242
:1040E0001285831374041217B1AC82AD83750EFF71
:1040F000750FFF7FFF7E00750C48750D7880157475
:10410000086E700302418F74096E700302418F7450
:104110000A6E607B850C82850D8378081216368CBA
:10412000828D83A909E50AC9F888107418780812E5
:104130001577E5104508F8C3E098A3E099850C824F
:10414000850D83780812163640188C828D8374187A
:104150007808121577E5104508F8E0C398F8A3E051
:10416000801C74187808121577E5104508FAE9FBE9
:104170008C828D83E0F8A3E0F9EAC398F8EB99F913
:10418000C3E8950EE9950F5006880E890FEEFF0ED5
:10419000E50C2404F50CE50D3400F50DEEC3941385
:1041A00050030240FF74FF650E700474FF650F60DA
:1041B000238F087402780812175374482508F58273
:1041C00074783509F58378081216368512828513BE
:1041D00083E508F0EC24020C0CED3400FD8512821E
:1041E000851383A3858212858313740C1217B1E59E
:1041F000826C7003E5836D60030240ED7508017504
:10420000090078081219D074021217B1AC82AD837C
:104210007A897B09120734740212177C740C121706
:104220007C7F0C02188FC082C0839061AE7468F0EE
:10423000A3746AF090624574FBF0A304F053F4FD9C
:1042400043FE029008D17401F09061A0E0643A90BE
:10425000619A70237433F0A37455F09061A0743A9E
:10426000F0740164017009C29190073B7467802863
:1042700090073B74618021743FF0A3745AF0906101
:10428000A0747FF0740164017009D29190073B74AF
:1042900071800590073B746A0240877F0402188F83
:1042A000C082C083900883E06401700A900888E0AF
:1042B0006004790C80027900024088C082C0837556
:1042C000E1F1900886E060551460081460591460AC
:1042D000518059120F1490087CE0F97A7D7B081206
:1042E00010F49081C812165412112A90821C1216D2
:1042F00054121100900887E0F912110C7901121183
:104300006690087AE02416F8A3E03400F9888289E0
:1043100083742CF0A3740FF07900024088120F1AF6
:1043200080B4120F2080AF120F2680AA791280EA83
:1043300074F41217BD75D90D90086BE0A2E0E43358
:104340001313F890087CE0C4333354C0484401F59B
:10435000D9787A790888828983A3A3A3E0F5D988DC
:10436000828983A3A882A983E864807003E9640832
:1043700070E3786B790888828983A3E0F5D9888215
:104380008983A3A882A983E864717003E964087033
:10439000E575E19590086BE0F97A6C7B081210FAEC
:1043A000900D1E74C0F0A3740EF0A37422F0A374D9
:1043B00010F0A37422F0A37410F0A37422F0A3747D
:1043C00010F0A374C6F0A3740EF0A37422F0A374CB
:1043D00010F0A374DEF0A3740EF0900D2C7422F094
:1043E000A37410F0A37422F0A37410F0A37422F04D
:1043F000A37410F0A37422F0A37410F0A37422F03D
:10440000A37410F0A37422F0A37410F090087AE063
:10441000F8A3E0F5838882A3A3780812163690816A
:10442000C478081215C29081D87808121610900826
:104430007AE0240EF8A3E03400F9888289837808B2
:1044400012164590087AE02414F8A3E03400F988A5
:104450008289837413F09007377402F002429BC084
:1044600082C08390088CE02407F5D990087CE0C4D2
:10447000333354C0F5D9787A790888828983A3A325
:10448000A3E0F5D988828983A3A882A983E8648000
:104490007003E9640870E390088CE0601F787A7913
:1044A00008FAE82413F582E93400F583E0F5D988A9
:1044B000828983A3A882A9831AEA70E69008ACE0F7
:1044C0002407F5D990087CE0C4333354C04404F584
:1044D000D9787A790888828983A3A3A3E0F5D9885B
:1044E000828983A3A882A983E864807003E96408B1
:1044F00070E39008ACE0601F787A7908FAE824331A
:10450000F582E93400F583E0F5D988828983A3A890
:1045100082A9831AEA70E675E195900D1E74CCF0BD
:10452000A3740EF0A37422F0A37410F0A37422F00D
:10453000A37410F0A37422F0A37410F0A374C6F057
:10454000A3740EF0A37422F0A37410F0A374DEF031
:10455000A3740EF0900D2C7422F0A37410F0A374C9
:1045600022F0A37410F0A37422F0A37410F0A374CB
:1045700022F0A37410F0A37422F0A37410F0A374BB
:1045800022F0A37410F090822012165490087AE062
:10459000240EF8A3E03400F9888289831216609013
:1045A000087AE02414F8A3E03400F988828983743F
:1045B00012F09007377401024087C082C0839008D0
:1045C0008CE02407F5D990087CE0C4333354C04410
:1045D00002F5D9787A790888828983A3A3A3E0F5C4
:1045E000D988828983A3A882A983E864807003E9BB
:1045F000640870E390088CE0601F787A7908FAE824
:104600002413F582E93400F583E0F5D988828983A3
:10461000A3A882A9831AEA70E675E195900D1E742D
:10462000D8F0A3740EF0A374D8F0A3740EF0A374A2
:10463000D8F0A3740EF0A374D8F0A3740EF0A37492
:10464000D8F0A3740EF0A374D8F0A3740EF0A37482
:10465000DEF0A3740EF0900D2C7422F0A37410F011
:10466000A37422F0A37410F0A37422F0A37410F0CA
:10467000A37422F0A37410F0A37422F0A37410F0BA
:10468000A37422F0A37410F09082201216549008A4
:104690007AE0240EF8A3E03400F9888289831216A8
:1046A0006090087AE02414F8A3E03400F988828945
:1046B000837414F09007377404024087C082C0836B
:1046C00090088CE02407F5D990087CE0C43333547B
:1046D000C04406F5D9787A790888828983A3A3A390
:1046E000E0F5D988828983A3A882A983E8648070D1
:1046F00003E9640870E390088CE0601F787A790819
:10470000FAE82413F582E93400F583E0F5D98882CC
:104710008983A3A882A9831AEA70E69008ACE024F2
:1047200007F5D990087CE0C4333354C04404F5D96C
:10473000787A790888828983A3A3A3E0F5D988824F
:104740008983A3A882A983E864807003E964087060
:10475000E39008ACE0601F787A7908FAE82433F532
:1047600082E93400F583E0F5D988828983A3A882A1
:10477000A9831AEA70E675E195900D1E74D2F0A334
:10478000740EF0A37422F0A37410F0A37422F0A3AB
:104790007410F0A37422F0A37410F0A37422F0A399
:1047A0007410F0A37422F0A37410F0A374DEF0A3CD
:1047B000740EF0900D2C7422F0A37410F0A37422E8
:1047C000F0A37410F0A37422F0A37410F0A3742269
:1047D000F0A37410F0A37422F0A37410F0A3742259
:1047E000F0A37410F090822012165490087AE024FE
:1047F0000EF8A3E03400F9888289831216609008CD
:104800007AE02414F8A3E03400F9888289837415CF
:10481000F09007377403024087C082C08390087A03
:10482000E0F8A3E0F5838882A3A3A3A3A3A3E402F3
:10483000408574F71217BD900765E0F875F004A481
:10484000C8AAF02AF9746728F8740739F9E824052A
:10485000FAE93400FB8A828B83E0FCA3E0FD8882C6
:104860008983A3A3A3A3A3A3A3A3A3ECF0A3EDF025
:1048700088828983A3A3A3A3A3A3A3E024FFF8A30F
:10488000E034FFF98A828B83E8F0A3E9024AD77407
:10489000F71217BDEAFEEBFF9061D0E0600302491A
:1048A0006C75D90E75D90375D904EE248CF582EF99
:1048B0003400F583E5822408F8E5833400F9E0F557
:1048C000D9A3E865827003E9658370F2EE2484F56C
:1048D00082EF3400F583E5822404F8E5833400F99F
:1048E000E0F5D9A3E865827003E9658370F275E1AC
:1048F000957908EE248CFAEF3400FB120FCE790480
:10490000EE2484FAEF3400FB120FCE7C00EEF8EFB9
:10491000F9ECFAC3E49AFA95E0FBEE2AFAEF3BFBD6
:10492000EA248BF582EB3400F583E0C0E0E824ABA9
:10493000F582E93400F583D0E0F00C88828983A306
:10494000A882A983ECC3940840C7EE2470F582EFD7
:104950003400F583E0F8A3E0F9EE2472F582EF3439
:1049600000F583E8F0A3E9F0790180027900024ABA
:10497000D8C082C08375D90275D90375D90575E190
:1049800095EA2470F582EB3400F583E0F8A3E0F9B2
:10499000EA2472F582EB3400F583E8F0A3E9F079BC
:1049A0000102408874F61217BDEAFEEBFF9008D5AD
:1049B0007406F07508D575090878081219D07C01BD
:1049C0007903121016740212177C75D90675D90373
:1049D0007582D5758308E0F5D9A3E58264DA7004A1
:1049E000E583640870F075E195900737E06408701E
:1049F0001EEE2470F582EF3400F583E0F8A3E0F9B1
:104A0000EE2472F582EF3400F583E8F0A3E9F07943
:104A100001024BA474F61217BDEAFEEBFF9061D0C1
:104A2000E0706678019008D5740BF0900737E06469
:104A30000770197508D575090878081219D07C0116
:104A40007903121016740212177C7805740128F588
:104A5000D975D9037582D5758308E8FAE0F5D9A32D
:104A60001AEA70F875E195EE2470F582EF3400F5DE
:104A700083E0F8A3E0F9EE2472F582EF3400F583C9
:104A8000E8F0A3E9F0790180027900024BA474F701
:104A90001217BDEAFEEBFF75D90375D90375D90D61
:104AA000EE24DEF582EF3400F583E0F5D975E1956B
:104AB0007904121130EE2470F582EF3400F583E0B2
:104AC000F8A3E0F9EE2472F582EF3400F583E8F004
:104AD000A3E9F079018001F07F0102188F74F612CA
:104AE00017BDEAFEEBFF9061D0E0F87480C398FA3E
:104AF000EE2483F582EF3400F583E06004780480CF
:104B0000027800E8240BF8EAC3985003024BA27D18
:104B1000099008D5EDF0EE24E3F8EF3400F97AD6E9
:104B20007B087C0888828983E08A828B83F0888274
:104B30008983A3A882A9838A828B83A3AA82AB8359
:104B40001CEC70E0EE2483F582EF3400F583E06026
:104B50001D7508D575090878081219D07C097903E4
:104B6000EEFAEFFB121016740212177C7D0D740121
:104B70002DF5D975D9037582D57583088D08E0F5B3
:104B8000D9A31508E50870F675E19579041211307E
:104B9000EE241DF582EF3400F583E4F0A3F07901F3
:104BA000800279007F0202188F74F61217BDEAFEA8
:104BB000EBFF9061D0E0F87480C398FAEE2483F59F
:104BC00082EF3400F583E06004780480027800E826
:104BD0002408F8EAC3985003024CA97D069008D532
:104BE000740CF0900754E09008D6F07A557B077863
:104BF000D779087C028A828B83E088828983F08A55
:104C0000828B83A3AA82AB8388828983A3A882A98B
:104C1000831CEC70E07A577B077C028A828B83E0EE
:104C200088828983F08A828B83A3AA82AB8388825D
:104C30008983A3A882A9831CEC70E0EE2483F5820B
:104C4000EF3400F583E0601D7508D5750908780814
:104C50001219D07C067903EEFAEFFB1210167402DB
:104C600012177C7D0A74012DF5D975D9037582D58B
:104C70007583088D08E0F5D9A31508E50870F67569
:104C8000E1957904121130EE2470F582EF3400F5CD
:104C900083E0F8A3E0F9EE2472F582EF3400F583A7
:104CA000E8F0A3E9F0790180027900024BA474F6E0
:104CB0001217BDEAFEEBFF9061D0E0F87480C39854
:104CC000FAEE2483F582EF3400F583E06004780483
:104CD00080027800E82404F8EAC3985003024D8863
:104CE00078029008D5E8F0EE24F5F582EF3400F56F
:104CF00083E09008D6F0EE2483F582EF3400F5834C
:104D0000E0601B7508D575090878081219D07C0277
:104D10007903EEFA121016740212177C78067401E9
:104D200028F5D975D9037582D57583088808E0F50B
:104D3000D9A31508E50870F675E195EE2474F5829F
:104D4000EF3400F583E4F0EE2480F582EF3400F5D3
:104D500083E4F0EE241DF582EF3400F583E4F0A344
:104D6000F07904121130EE240DF582EF3400F58352
:104D7000E0F8A3E0F9EE2472F582EF3400F583E861
:104D8000F0A3E9F0790180027900024BA474F612D5
:104D900017BD9061D0E0F87480C398FCEA2483F5D5
:104DA00082EB3400F583E06004780480027800E848
:104DB0002404F8ECC398405B79029008D57407F09E
:104DC000EA24F6F582EB3400F583E09008D6F0EAA9
:104DD0002483F582EB3400F583E060187508D575FF
:104DE000090878081219D07C0209121016740212F0
:104DF000177C7906740129F5D975D9037582D575A3
:104E00008308E9F8E0F5D9A318E870F875E1957919
:104E10000180027900024BA474F51217BDE9FCA2CF
:104E2000AFE433F50AC2AF7D0080010DEA246FF5CF
:104E300082EB3400F583E0F8EDC398501A8D08EA50
:104E40002508F8EB3400F9E8246BF582E93400F525
:104E500083E06C70D68024EA246FF8EB3400F9E02C
:104E6000FEEA2EFAEB3400FBEA246BF582EB340009
:104E7000F583ECF088828983E004F0E50AA2E092F1
:104E8000AF7F0302188F74F61217BDA2AFE433FD93
:104E9000C2AFEA246FF582EB3400F583E014F07CB6
:104EA0000060368C08EA2508F8EB3400F9E8246C39
:104EB000F582E93400F583E0C0E0E8246BF582E98F
:104EC0003400F583D0E0F00CEA246FF582EB340077
:104ED000F583E0F8ECC39840CAEA246EF582EB341F
:104EE00000F58374FFF0EA246AF582EB3400F58361
:104EF000E4F0EDA2E092AF024BA4C082C083E5A82B
:104F0000F8C2AFEA246BF582EB3400F583E9F0EAEE
:104F1000246AF582EB3400F583E4F0E8A2E792AF6F
:104F200002408874F31217BDEAFEEBFFECFAEDFBCA
:104F30008A828B83A3A3A3A3E0541FF0EE2436F54B
:104F400082EF3400F583E4F0F50AEEFCEFFD8A828F
:104F50008B83E0C0E0EC245DF582ED3400F583D076
:104F6000E0F0750B00E50A33333354F8F50C8A8210
:104F70008B83E0F508750900E50B7808121734E516
:104F800008A2E0502FEE2436F8EF3400F988828929
:104F900083E0F508EE2508F508EF3400F509E5088B
:104FA0002438F582E5093400F583E50CF088828920
:104FB00083E004F0050B050CE50BC3940840AF0536
:104FC0000A8A828B83A3AA82AB838C828D83A3AC53
:104FD00082AD83E50AC394055003024F4E7F05025C
:104FE000188F74F71217BD900763E0640170077A99
:104FF000007B000251597E00900769E070F1740156
:10500000F0A3E4F0A3F09007C904F09007CCE4F01B
:10501000A3F09007CF04F090076CE4F0A3F0A3F0A6
:10502000A3F090077604F090079CE4F090822C1295
:10503000165490077F121660900783E4F0A3F0A344
:10504000F09007E7F09007DBF09007D07480F0A3B2
:10505000E4F09007D6F09007CEF0900852F0A3F05D
:10506000A3F0A3F0A3F0A3F0A3F0A3F090085BF0EB
:105070009007EAF090083AF0A3F090822C121654B0
:1050800090083C12166090822C1216549008401220
:105090001660900846E4F0900848F0900844F090BC
:1050A000085EF0A3F0A3F0A3F0A3F0A3F0A3F0A395
:1050B000F078637907E8246FF582E93400F58374AA
:1050C000FFF00E88828983A3A882A983EEC394048B
:1050D00040E37A637B077872790888828983E0C02D
:1050E000E0EA2461F582EB3400F583D0E0F08882B9
:1050F0008983A3A882A9838A828B83A3AA82AB8394
:10510000E864777003E9640870D07A637B07784AB3
:10511000790788828983A3E0C0E0EA24E7F582EB7F
:105120003400F583D0E0F088828983A3A882A98324
:105130008A828B83A3AA82AB83E864527003E964FA
:105140000770CF900763E004F06401700890076B6C
:10515000E0900765F07A677B07024AD8C082C08377
:1051600090076AE4F0900769F0900763F0A3F0A35A
:1051700074FFF075E1F1024088C082C08378007945
:105180000090076AE060047867790788828983A3C2
:10519000A3A3A3E0F902408874F61217BDEAFEEB60
:1051A000FF8E828F83A3A3A3E0600F8E828F83A3E1
:1051B000A3A3E4F0900764E014F0900763E014F018
:1051C000700690076574FFF08E828F83A3A3E4F0CE
:1051D000900877E0700D900764E064017005790035
:1051E000121112EE2465F582EF3400F583E0F8A386
:1051F000E0F9E8496029EE2465F8EF3400F9880801
:1052000089098882F583E0FCA3E0FD900765E0FA58
:105210007B00120CE6850882850983E4F0A3F0EE9A
:10522000FAEFFB121046024BA474F71217BDEAFE08
:10523000EBFF8E828F83A3A3A3A3E0FA7B00120D62
:1052400028EEFAEFFB120F9812102E024AD8C082F5
:10525000C083784A790788828983A3E4F0888289A9
:1052600083A3A882A983E864527003E9640770E607
:1052700090074B0245B574F61217BDEAFEEBFFEC42
:105280002403F8ED3400F988088909EC2407F8EDC7
:105290003400F9E8FCE9FD8C828D83E0F8A3E0F9A5
:1052A000850882850983E0FAA3E0FB1216DBEE2471
:1052B0000DF582EF3400F583E8F0A3E9F08C828DE0
:1052C00083E0F8A3E0F9850882850983E0FAA3E08A
:1052D000FB1216DB8B09EA45096013EE240DF582FB
:1052E000EF3400F583E02401F0A3E03400F0024B3A
:1052F000A474F61217BDEAFEEBFFEE242EF582EF42
:105300003400F583E0FCA3E0FD780079FAECFAEDD7
:10531000FB1216DBEE2470F582EF3400F583E8F023
:10532000A3E9F0780079FAECFAEDFB1216DB8B09B1
:10533000EA45096013EE2470F582EF3400F583E04E
:105340002401F0A3E03400F0024BA474F01217BD66
:10535000EAFEEBFF74101217B1780812163612101D
:10536000D08A0C8B0D8C0E8D0F9081C0780C12158D
:10537000C29081D8780C121610780C1219CC8E823B
:105380008F83E0F8A3E0F5838882A3A3121654125A
:1053900023B6740412177CE960030254988E828F3E
:1053A00083E02402F8A3E03400F9E8FAE9FB8A82FA
:1053B0008B8378081215D59081D878081216368A12
:1053C000828B837808121623EE240BF582EF3400CB
:1053D000F583C082C0838E828F83A3A3A3A3A3E09F
:1053E0002401F8A3E03400F9D083D082E068700390
:1053F000A3E0697005790102549A8E828F83A3A37A
:10540000A3A3A3A3A3E02401F0A3E03400F0EE24BF
:1054100074F582EF3400F583E064017036EE247594
:10542000F582EF3400F583E0F8A3E0F98E828F83F4
:10543000A3A3A3A3A3A3A3E0687003A3E0697013CD
:10544000EE2475F582EF3400F583E02401F0A3E04B
:105450003400F0EE2480F582EF3400F583E064013F
:105460007036EE2481F582EF3400F583E0F8A3E096
:10547000F98E828F83A3A3A3A3A3A3A3E0687003E1
:10548000A3E0697013EE2481F582EF3400F583E028
:105490002401F0A3E03400F079007F0802188F7433
:1054A000F71217BD900765E0F875F004A4C8AAF0DC
:1054B0002AF9746728FE740739FF8028EE2465F8FE
:1054C000EF3400F988828983E0FCA3E0FD888289BB
:1054D00083E4F0A3F08E828F83A3A3A3A3E0FA7BDF
:1054E00000120CE6EE2465F582EF3400F583E0F857
:1054F000A3E0F9E849604FEE2464F582EF3400F54B
:1055000083E0F50878081219D4EE2463F582EF34AD
:1055100000F583E0F9EE2465F582EF3400F583E0D1
:10552000FCA3E0FDEEFAEFFB120FC2740112177C30
:10553000E96089EE2465F582EF3400F583E0F8A395
:10554000E0F9E84970137C007D008E828F83A3A36D
:10555000A3A3E0FA7B00120CE6024AD874F21217F9
:10556000BDEAFEEBFF890A740E1217B1E0FAEE24D1
:1055700062F582EF3400F583E0640160030256288F
:105580009061D0E0F87480C398F50CEE2483F58226
:10559000EF3400F583E06004780480027800890825
:1055A000E928F8E43400F9E824020808E93400F9AD
:1055B000E50C98E499A2D265D0334068EA7005758D
:1055C0000B028003750B01E0603975090078081241
:1055D00019D07AD57B08120FF8740212177C75085F
:1055E000D575090878081219D0AC0AA90BEEFAEFA4
:1055F000FB121016740212177C7404250AF50A7C3B
:10560000D57D087401250AF5D9850BD9E50A600D09
:105610008C828D83F8E0F5D9A318E870F875E195D0
:10562000790080067907800279FF7F0602188FC013
:1056300082C083E960208C828D83E08A828B83F034
:105640008C828D83A3AC82AD838A828B83A3AA8252
:10565000AB8319E970E0ECFAEDFB02408874EA12C2
:1056600017BD907803E06442705E9008D4E014F0B7
:105670007056C2AF12567700782AD0E0F618D0E004
:10568000F6E59F5407F970059081B880039081B4C6
:105690007808121636E9C4C0E07829E65508F508FE
:1056A00008E65509F509740B7808121744D0E0256F
:1056B00008F8906270E0A2E740F8E8C333906272A5
:1056C000F0906270E0D2E0F0900765E0F4700302C1
:1056D0005A80E0F875F004A4C8AAF02AF974672883
:1056E000FE740739FFEE2402F582EF3401F583E002
:1056F000F8A3E0F9E849601EEE2402F582EF3401D8
:10570000F583E0FAA3E0FBEE2401F582EF3401F526
:1057100083E0F91204B88E828F83A3A3A3A3A3A36B
:10572000A3E0F8A3E0F98E828F83A3A3A3A3A3E849
:10573000F0A3E9F0906054E090073EF0906055E0EF
:1057400090073FF0906056E0900740F0906057E07F
:10575000900741F0906058E0900742F0906059E067
:10576000900743F090605AE0900744F090605BE04F
:10577000900745F090605CE0FC900746F090605D1B
:10578000E0FB900747F090605EE0FD900748F090E6
:10579000605FE0FA900749F0900744E08C08250824
:1057A000F8E43400F98D08E82508F8E93400F98BAD
:1057B00008E82508F8E93400F98A08E82508FAE934
:1057C0003400FBEE24F7F582EF3400F583E02AF095
:1057D000A3E03BF08C08EE24F9F582EF3400F5836A
:1057E000E02508F0A3E03400F0EE24FBF582EF346E
:1057F00000F583E02401F0A3E03400F0EE24FFF58F
:1058000082EF3400F583E0F8A3E0F9E849604290C4
:105810006000E0C333FCE433FDE82CF582E93DF59C
:1058200083E02AF0A3E03BF0906000E0FA900746A6
:10583000E0FCEAC333FAE433FBE82AF8E93BF9E891
:10584000244AF582E93400F583E02CF0A3E034002B
:10585000F0900744E07011900747E0700BA3E070F0
:1058600007A3E070030259608E828F83A3A3A3A3D2
:10587000A3E0F8A3E0F9EE240DF582EF3400F58300
:10588000E028F8A3E039F9EE240BF582EF3400F5B7
:1058900083E8F0A3E9F0EE240FF582EF3400F583FE
:1058A000E4F0EE241CF582EF3400F583E06401702F
:1058B0001EEE2420F582EF3400F583E0F8A3E0F932
:1058C000EE241DF582EF3400F583E8F0A3E9F090B3
:1058D000073FE06052EE241CF582EF3400F583743C
:1058E00001F0EE246AF582EF3400F583E07038EEC3
:1058F0002474F582EF3400F583E0702BEE2480F5FC
:1059000082EF3400F583E0701EEE2420F582EF3440
:1059100000F583E0F8A3E0F9EE241DF582EF3400F2
:10592000F583E8F0A3E9F0906062E07003025A1397
:105930008E828F83E0F8A3E0F9E82406FCE93400C6
:10594000FDE82402FAE93400FB1210CA8E828F832C
:10595000E02412F8A3E03400F988828983025A1DFA
:10596000900746E0603AEE240FF582EF3400F583AD
:10597000E4F0EE241CF582EF3400F583E06401705E
:1059800040EE2420F582EF3400F583E0F8A3E0F93F
:10599000EE241DF582EF3400F583E8F0A3E98020C2
:1059A000EE24FDF582EF3400F583E02401F0A3E05E
:1059B0003400F0EE241DF582EF3400F583E4F0A30B
:1059C000F0EE240BF582EF3400F583E0F8A3E0F964
:1059D0008E828F83A3A3A3A3A3E0687003A3E069CF
:1059E00060030258CFEE240FF582EF3400F583E018
:1059F00060128E828F83A3A3A3A3A3E06405700229
:105A0000A3E0600B7908EEFAEFFB120F9E8071792C
:105A10003E80F3EE241DF582EF3400F583E4F0A31D
:105A2000F0906060E0C0E0EE2469F582EF3400F5AC
:105A300083D0E0F0900744E0F8EE2467F582EF347D
:105A400000F583E028025B809008D2E064017035A5
:105A500012117EEE2467F582EF3400F583E07006C4
:105A60009060607480F0EEFAEFFB121088E9640138
:105A7000600E120FBC121082E96401600312102E36
:105A80007F0E02188FEE2483F582EF3400F583E059
:105A90006004780480027800E50CC398F9120CDAEF
:105AA0008A0A8B0BEA450B60A7EE2483F582EF345C
:105AB00000F583E070048A088B09E50C6012850804
:105AC00082850983F512E5D9F0A31512E51270F667
:105AD000EE2483F582EF3400F583E0603774FC2513
:105AE0000CF50C78081219D0AC0CA90DEEFAEFFBEE
:105AF00012101C740212177CE970197403650D7082
:105B000003025BC0E50A24FBFAE50B34FFFB120538
:105B100000025BC07403650D7003025BC5850C0E4B
:105B2000750F00780E1219D0AC08AD09AA0AAB0B9C
:105B3000120FF8740212177CEE2469F582EF34001C
