:020000040000FA
:0600000002011D021F6356
:03002B00021B872E
:03005300021FD6B3
:03006B00021B284D
:10008300021E17E5C754F84401F5C77901220000A1
:100093000080FB120086B90003020107E47921788E
:1000A30008B800028004F709D8FCE479297802B87B
:1000B30000028004F709D8FCE490028178507909A2
:1000C3008002F0A3D8FCD9FA781A90014D7A01BACC
:1000D30000028007E493A3F608DAF9900AD0AA8213
:1000E300AB8390014E786D79038015E493A3AC82C2
:1000F300AD838A828B83F0A3AA82AB838C828D83A8
:10010300D8E9D9E77582777583AD740312012F752A
:100113008291758300740012012F75D00075813FA1
:10012300751881751902759F00020096C09FF59F8F
:10013300E473D09F22D083D082C09FE493C0E07445
:100143000193C0E0740293F59F220101FFFF4B4D21
:100153002048524D00000000000000000000000095
:1001630000000002010603020D1805084B4D48521A
:10017300FC03000002040E041404FFFFBB0012641E
:10018300024E820100004382024A82010000030BF7
:10019300026C82010000040B024882030000460443
:1001A300020202024E820100003A82024A820100E8
:1001B30000250B0266820100004E04024A82010000
:1001C30000260B0264820100001181024A820100B1
:1001D30000270B02628201000038811002027D00B9
:1001E300020A024E820100003D82024A820100009F
:1001F300600B10F1800000005804024882030000E5
:100203005904024A82010000610B10A18001000021
:100213005F04024A82010000620B10B180010000FA
:10022300630B024A82010000650B1081800100000C
:100233006104024A82010000660B10D180030000B2
:100243006204100208024E820100004082024A82C8
:10025300010000C70B025A820000006504024882B5
:100263000300006604024A82010000C80B025882A0
:100273000100006C04024A82010000C90B0256828D
:100283000200006D0401E803053F10FF0001307513
:10029300030201060000000000000000000000004F
:1002A300000000000000000000000000000000004B
:1002B300FFFF0600800CE803FF0000B400002800E5
:1002C3002800283075A000A000A000A000000800AE
:1002D30008E001F0001000100010001000100010E2
:1002E3000050005000500010001000D00700000024
:1002F3000000000F00010005003075070010000129
:100303000081FF0000FF500A6E0A560AFF02020234
:1003130008025000A0000000E803024E8201000022
:100323003782024A82010000920C024682010000D9
:100333002706024A82010000930C02528201000048
:100343003D06024A82010000940C0254820100001F
:100353003F06024A82010000950C025E82080000FB
:100363004006024A82010000960C027082010000DE
:10037300970CFF0100FF20024E820100003482022D
:100383004A82010000FB0C026082000000000002B0
:1003930048820300008D06381038103810381038A2
:1003A300103810381038103810381038103810380A
:1003B30010C612DE12C012120138CD8A03120138A0
:1003C300F58A031201381F8B03120138418B031284
:1003D3000138658B03120138728B03120138D18BFC
:1003E30003120138008D0312013894D4021201382C
:1003F300B4D60212013874D7021201385FD8021240
:1004030001381CD9021201385CD90212013875D99E
:1004130002120138C1D90212013868AB0312013844
:10042300C8AB031201383FA30312013853A30312CD
:1004330001385FA30312013874A3031201387CA3AC
:1004430003120138B9A303120138D6A303120138EA
:1004530010A4031201381EA4031201388BA4031243
:10046300013822DA021201382CDA021201386DDA6D
:1004730002120138B6DA02120138F0DA0212013838
:1004830046DB0212013867DB0212013870DB02120D
:100493000138C4DB02120138EDDB02120138F7DB4D
:1004A3000212013865DC02120138F5DC0212013850
:1004B30050DD021201387EDD0212013806DE02121F
:1004C300013845DE021201387ADE021201388CDE71
:1004D30002120138ABDE02120138B4DE0212013817
:1004E3007BDF02120138A1FF02120138B6A6031204
:1004F30001384A9C03120138809C03120138B49CD2
:1005030003120138019E03120138D2AA03120138E3
:10051300E8AA03120138F2AA031201383CAB031212
:10052300013880EE0212013893EE0212013854EFC3
:100533000212013893EF02120138B0EF02120138B0
:10054300E9EF0212013836F00212013868F00212A4
:1005530001389FF002120138A8F202120138ADA748
:1005630003120138D0A703120138FFA70312013881
:1005730041A803120138F3BE0212013804BF02126C
:1005830001385EC30212013839C40212013889C42A
:1005930002120138D4C402120138F7C5021201381D
:1005A300637C00120138E37C00120138187D0012CD
:1005B3000138107E00120138347F00120138D990BF
:1005C300031201381E9103120138339103120138CB
:1005D3008D9103120138179203120138C29203124C
:1005E3000138F992031201386FFE0112013894FEAB
:1005F30001120138C4FE011201386E87031201385B
:10060300B38703120138C687031201382488031203
:1006130001387E8803120138BB880312013895899B
:1006230003120138948A03120138D2970312013856
:100633001798031201382A980312013846980312B7
:100643000138849803120138F39803120138DD99B5
:1006530003120138CFAD031201387382011201383E
:10066300518401120138F085011201389B86011271
:1006730001381B8701120138A08701120138C9878D
:1006830001120138A48B011201381B8C01120138AD
:10069300328D011201386C8D01120138AD8D0112BA
:1006A3000138F48E011201384A8F01120138938FF9
:1006B300011201380290011201386E9001120138C3
:1006C3009F9001120138B79001120138D0910112A5
:1006D3000138E09101120138969301120138AD936C
:1006E30001120138DF93011201388195011201389B
:1006F30015960112013861A9031201386DA903127D
:1007030001380AAA0312013825AE0312013864AE78
:1007130003120138B9AE031201381CAA03120138BF
:100723002CAA031201383BAA03120138CCAA0312E4
:100733000138B4A50312013839A6031201389DA666
:1007430003120138F27F00120138DC7F00120138F6
:10075300EC7F00120138EF7F00120138F87F00129E
:100763000138169A03120138A09B03120138019C29
:1007730003120138479C0312013803AD03120138F9
:1007830030AD0312013846AD03120138A7A103129D
:100793000138F9A1031201386CA203120138D9A25E
:1007A300031201388B9503120138B59503120138F2
:1007B300849603120138609703120138BDB6021202
:1007C300013889B702120138CAB70212013804B8D6
:1007D3000212013862B802120138B6B802120138A7
:1007E30014B902120138AAB902120138B2BA0212BC
:1007F30001383CBC02120138DABC0212013841BD97
:100803000212013854BD0212013848BE02120138E7
:1008130091BE0212013880F101120138B2F40112C3
:10082300013843F6011201389AF601120138B7F67E
:100833000112013837F701120138B3F801120138F8
:1008430082F901120138EFFC01120138D9FD0112BE
:100853000138F49F031201380BA0031201383AA0A8
:100863000312013873A0031201389BA0031201384D
:10087300C9A003120138E0A003120138F7A0031244
:1008830001380DA10312013834A10312013847A125
:10089300031201385DA10312013870A1031201385C
:1008A30095A10312013811A40212013810A50212F6
:1008B300013845A50212013866A50212013876A552
:1008C3000212013897A502120138A3A602120138B9
:1008D30070A702120138E3A70212013869A80212B5
:1008E3000138ACA802120138E3A80212013869A941
:1008F300021201383BAA0212013899AA02120138E6
:10090300B1AA021201382BAB021201382EAB02122C
:10091300013831AB02120138D8AB02120138F0AB07
:100923000212013820AC0212013840AC0212013825
:100933002EAD02120138E4AD02120138D8E90212D9
:10094300013800EA021201382EEA0212013865EA80
:1009530002120138CDEA0212013816EB02120138F5
:1009630061EB021201389FEB02120138DCEB021239
:1009730001380AEC02120138B1EC02120138BBEC67
:1009830002120138C8EC02120138FBEC02120138E2
:10099300BDED02120138C9ED02120138E1ED021278
:1009A3000138EBED021201388AA80312013898A826
:1009B30003120138B0A803120138C8A80312013882
:1009C300FBB80112013899B90112013811BA0112A9
:1009D300013826BB0112013860BB0112013809BC82
:1009E30001120138DEBC0112013842BE0112013886
:1009F30099BE0112013820BF0112013807C001124C
:100A0300013854C001120138E2C00112013806C195
:100A130001120138DBC2011201381CC30112013873
:100A23003EC301120138BFC301120138A9C4011228
:100A330001386FC50112013888CD021201385ACE30
:100A43000212013803CF0212013846CF02120138D5
:100A5300D3CF021201385FD00212013840D1021203
:100A630001386FD1021201386BD202120138B3D2AE
:100A730002120138B5D302120138F9D30212013838
:100A83001FD402120138FDAB031201380080031298
:100A930001381680031201383C8003120138648147
:100AA300031201386E8103120138C7820312013821
:100AB300C78303120138A9DF02120138DEE00212F4
:100AC300013811E1021201385BE10212013819E326
:100AD30002120138066D00120138696D00120138E7
:100AE300AE6E00120138BE6E00120138E16E0012C4
:100AF30001382C6F00120138D16F00120138C77012
:100B03000012013891710012013809730012013883
:100B13004B7300120138E973001201383674001266
:100B230001385C74001201384A76001201384F769E
:100B3300001201383078001201388478001201382D
:100B4300E678001201380E7900120138B2790012EA
:100B53000138747A00120138A57A00120138A87A94
:100B630000120138F07A00120138327B001201388A
:100B7300997B00120138359303120138489303120D
:100B83000138619303120138AC930312013887943F
:100B930003120138169503120138619503120138C7
:100BA300A33E00120138AF3E00120138E83E0012A6
:100BB30001382D3F00120138E43F001201386A402A
:100BC30000120138964000120138CF40001201385C
:100BD300E34200120138BF4400120138AA46001252
:100BE3000138E14700120138414A001201382D4B08
:100BF30000120138734C00120138804D0012013885
:100C03009D4D00120138D54D00120138EF4D0012F1
:100C13000138574E00120138F15200120138925335
:100C230000120138E353001201380A54001201384C
:100C3300585400120138765400120138CA54001275
:100C43000138D255001201385A5600120138CFE448
:100C530002120138D9E402120138A4E50212013864
:100C6300BFE502120138E5E50212013829E6021256
:100C7300013861E6021201388AE60212013803E7FD
:100C83000212013818E7021201382DE70212013867
:100C930064E70212013878E702120138A9E7021269
:100CA3000138E3E7021201380FE80212013847E87E
:100CB30002120138C4E80212013818E9021201389D
:100CC30061E9021201388BE902120138B0E902121C
:100CD3000138B5FB021201387FFC0212013862FDB4
:100CE30002120138D8FD021201381AFE021201382D
:100CF30047FF0212013800800212013829800212D4
:100D0300013842800212013887810212013865825C
:100D1300021201388482021201381183021201384F
:100D2300548302120138A184021201384085021251
:100D33000138BF87021201385688021201382A8906
:100D4300021201380C8A02120138788B0212013820
:100D53000B8C021201389FA40312013808A5031259
:100D630001385CA50312013883A50312013814F37B
:100D73000212013881F302120138CCF30212013856
:100D8300C1F402120138BDF502120138A7F60212AE
:100D930001384FAE0212013891AE021201386BAF27
:100DA3000212013844B0021201383FB10212013875
:100DB3001EB2021201388AB20212013851B3021272
:100DC3000138BCB30212013823B4021201384EB405
:100DD30002120138BFB40212013852B502120138AF
:100DE300BBB502120138D0B50212013818B602128F
:100DF300013831B60212013896B60212013899B69B
:100E030002120138DF8D03120138078E03120138F5
:100E1300458E03120138038F031201386E8F0312BC
:100E230001388A8F03120138B28F03120138E28F1F
:100E330003120138F18F031201386B90031201384A
:100E430091900312013804AA01120138E1AB011297
:100E53000138DCAD01120138AFAE01120138FAAE30
:100E63000112013845AF0112013857AF01120138A1
:100E730097AF01120138CCAF0112013818B001123B
:100E8300013847B0011201386AB001120138B7B016
:100E93000112013840B1011201384DB3011201387A
:100EA30038B5011201387BB501120138E0B60112E1
:100EB300013821B70112013894B701120138E0B7A4
:100EC3000112013801B801120138D1B801120138F9
:100ED300828C02120138AD8C0212013894930212F3
:100EE3000138B89502120138739702120138D0986D
:100EF30002120138682600120138FF260012013859
:100F03002C2700120138722700120138B128001271
:100F13000138D528001201386C2A00120138E62A5C
:100F230000120138012B00120138762B0012013810
:100F3300A52C00120138002E00120138022F0012D6
:100F430001385F3000120138783000120138D53093
:100F530000120138B73100120138EA3100120138AA
:100F63005A3200120138D4320012013823330012EE
:100F73000138EF3300120138F43400120138D3354D
:100F8300001201385E3600120138CC3600120138E7
:100F9300403700120138693700120138283800122F
:100FA3000138A23900120138BF3900120138DE3985
:100FB300001201386F3A00120138943A00120138D6
:100FC300BC3A00120138373B00120138913B001242
:100FD3000138E53C00120138A23D00120138753E8C
:100FE3000012013822D60112013872D601120138DB
:100FF3007ED6011201385BD7011201388BD701125B
:101003000138C3D70112013842D8011201387AD806
:1010130001120138CCD80112013809D90112013863
:101023002EDB011201385ADD0112013855DF01129E
:10103300013830E101120138F57F0012013853966F
:10104300011201389D96011201387C9C011201386E
:10105300FD9D011201385CA40112013857A501124C
:10106300013894A501120138B7A501120138F9A579
:101073000112013802A6011201380CA6011201382F
:10108300F8A601120138ECA701120138C15600126B
:1010930001383961001201383F61001201384B6891
:1010A30000120138D1830312013867840312013817
:1010B3007D8403120138F784031201384D8503122E
:1010C30001388B8503120138E885031201386586E0
:1010D300031201386E86031201387A86031201382F
:1010E3008D8603120138C98603120138DF86031285
:1010F30001383E870312013869F70212013876F787
:101103000212013890F702120138CFF702120138A8
:101113000DF80212013872F80212013887F8021230
:10112300013892F8021201389FF802120138B6F81A
:1011330002120138C4F802120138CFF80212013842
:10114300DBF802120138EAF802120138F5F802124C
:10115300013818F902120138C1F902120138D1F924
:1011630002120138EBF90212013808FA02120138AF
:1011730024FA0212013849FA0212013853FA021210
:10118300013867FA0212013886FA02120138E7FAC7
:1011930002120138EDFA02120138F3FA0212013891
:1011A300F9FA0212013805FB0212013838FB021268
:1011B3000138F6E30112013878E40112013821E520
:1011C3000112013869E60112013877E8011201388A
:1011D3005DE90112013892E901120138B4E9011203
:1011E30001385DEA011201382DEC0112013856EC89
:1011F30001120138CEEC0112013800ED0112013861
:101203000DED0112013858ED011201387CED011288
:101213000138CDEF01120138D7F00112013833F153
:1012230001120138A4C701120138B5C801120138EF
:1012330099C901120138A3C901120138C5C90112A4
:101243000138D1C90112013875CB01120138A2CB83
:1012530001120138B8CC011201380DCD0112013849
:101263005CCE0112013831CF011201388DCF01124A
:101273000138F8CF011201382DD00112013870D096
:10128300011201383AD30112013852D30112013845
:10129300E3D301120138F1D3011201383ED4011214
:1012A30001384CD401120138B8D40112013833D5B6
:1012B300011201388AD501120138F398021201385C
:1012C300159902120138269B02120138E59D02127C
:1012D30001380F9F02120138CD9F02120138B9A0C5
:1012E300021201383B9E03120138609E031201383B
:1012F300D69E031201386BC60212013874C602125D
:1013030001387DC60212013855C70212013806C9D9
:101313000212013836C90212013861C902120138BA
:1013230091C902120138BCC902120138F0C9021274
:1013330001381CCA021201385FCA021201388ACA74
:1013430002120138D1CA0212013826CB0212013827
:1013530068CB02120138C2CB02120138EDCB021264
:1013630001383CCC021201386CCC0212013897CC04
:1013730002120138C5CC02120138E8CC021201383E
:1013830086AC03120138B2AC03120138DFAC03128E
:101393000138E9AC03120138F9AC031201386EAE1F
:1013A300031201389BAE03E066701008A3E0667079
:1013B3000A08A3E066700408A3E06622C008C3E03D
:1013C30096F50808A3E096420808A3E096420808A9
:1013D300A3E0964208A2D265D033E5087001D3D0CA
:1013E3000822C3E7960809E7960809E7960809E77C
:1013F3009622C3E09608A3E09608A3E09608A3E02C
:101403009622C008C3E096F50808A3E096420808B0
:10141300A3E096420808A3E09645087001D3D008DC
:1014230022080808EAC0E0EBC0E086F0E7A4FA1857
:101433000986F0E7A42AFA180986F0E7A42AFA181D
:101443000986F0E7A42AFA1986F0E7A4FBE5F02A57
:10145300FA190886F0E7A42BFBE5F03AFA19088697
:10146300F0E7A42BFBE5F03AFA18180986F0E7A495
:10147300C5F02BFBE43AFA1908E7C5F0C6A426F633
:10148300E5F03BFBE43AFA1886F0E7A4F6E5F0084A
:1014930026F6E43B08F6E43A08F6D0E0FBD0E0FA9F
:1014A30022E4CFC0E0E4CEC0E0E4CDC0E0E4CCC0B1
:1014B300E075F020C3E633F608E633F608E633F6C4
:1014C30008E633F6181818EC33FCED33FDEE33FE63
:1014D300EF33FFC3EC9709ED9709EE9709EF9719DF
:1014E3001919400FFFEC97FC09ED97FD09EE97FEE4
:1014F300191906D5F0BEECF709EDF709EEF709EF78
:10150300F7191919D0E0FCD0E0FDD0E0FED0E0FFE0
:101513002212157C1818181214A412156B19191914
:101523002212156B191919080808E618181820E76C
:10153300E01214A412157C18181822090909E719D6
:10154300191920E7DC080808E618181820E7030231
:1015530014A412157C1818181214A412157C181848
:101563001812156B19191922E4C397F709E497F7B1
:1015730009E497F709E497F722E4C396F608E4969B
:10158300F608E496F608E496F6226016080808C6FC
:10159300C313C618C613C618C613C618C613C6D5B2
:1015A300E0EA227009080808226016181818C6C352
:1015B30033C608C633C608C633C608C633C6D5E025
:1015C300EA22E627F60809E637F60809E637F608B9
:1015D30009E637F622E026F608A3E036F608A3E08C
:1015E30036F608A3E036F622E026F008A3E036F04C
:1015F30008A3E036F008A3E036F022C3E697F60826
:1016030009E697F60809E697F60809E697F622C36E
:10161300E096F008A3E096F008A3E096F008A3E0B4
:1016230096F022E056F608A3E056F608A3E056F635
:1016330008A3E056F622E056F008A3E056F008A30C
:10164300E056F008A3E056F022E0F608A3E0F6081F
:10165300A3E0F608A3E0F622E6F008A3E6F008A369
:10166300E6F008A3E6F022E0FAA3E0FBA3E0FCA384
:10167300E0FD22EAF0A3EBF0A3ECF0A3EDF022CA25
:10168300C0E0E6F0A308DAFAD0E0FA22CAC0E0E04C
:10169300A3C582CCC582C583CDC583F0A3C582CC47
:1016A300C582C583CDC583DAE6D0E0CA22C3E498F8
:1016B300F8E499F91216F18026C3E49AFAE49BFB45
:1016C300E920E7E91216F1E498F8E499F922C3E472
:1016D30098F8E499F91216F1E498F8E499F9C3E457
:1016E3009AFAE49BFB22EB20E7CFE920E7E0B9007D
:1016F30010BB0008E88AF084F8AAF022E4FBC8FAD9
:1017030022EB70227B10C833C8C933C9335007C3D7
:101713009AC3DBF280069A50012ADBEAC833F4C885
:10172300C933F4C9FA2275F008E4C833C8C933C908
:1017330033C99AC99B5004C92AC93BD5F0ECFBC8ED
:1017430033F4C8E4C9FA22600D08C6A2E713C61829
:10175300C613C6D5E0F322600C08C6C313C618C669
:1017630013C6D5E0F422700422600D18C6C333C635
:1017730008C633C6D5E0F41822251810AF08F518AB
:10178300400215198008F51840021519D2AF22C07E
:10179300D0251810AF08F518500205198008F51860
:1017A30050020519D2AFD0D0222518F58210AF0808
:1017B300F518400215198008F51840021519D2AF23
:1017C300851983222518F582E43519F58322E473FC
:1017D3002518C582C0E0E51934FFC583C0E0E518CC
:1017E300C3958224F810AF08858319858218800871
:1017F300858319858218D2AFCEF0A3E520F0A378B4
:1018030008E608F0A3DEFAEFF0A3E58124FAF8E690
:1018130008F0A3E608F0A3E608F0A30808E608F03A
:10182300A3E608F0A315811581D0E0FED0E0F815FA
:101833008115811581E8C0E0EEC0E0222518C5823C
:10184300C0E0E51934FFC583C0E0E518C3958224E1
:10185300F910AF0885831985821880088583198557
:101863008218D2AFCEF0A3E520F0A37808E608F003
:10187300A3DEFAEFF0A3E58124FBF8E608F0A3E684
:1018830008F0A30808E608F0A3E608F0A3158115FD
:1018930081D0E0FED0E0F815811581E8C0E0EEC00C
:1018A300E022851983851882E0A3FEE0A3F5207862
:1018B30008E0A3F608DFFAE0A3FFE0A3C0E0E0A39B
:1018C300C0E0E0A3C0E0E0A3C0E0E0A3C0E010AF4D
:1018D300088582188583198008858218858319D223
:1018E300AFD083D082020135851983851882E0A3A6
:1018F300FEE0A3F5207808E0A3F608DFFAE0A3FFF3
:10190300E0A3C0E0E0A3C0E0E0A3C0E0E0A3C0E048
:1019130010AF08858218858319800885821885830E
:1019230019D2AFD083D08222C0D02518C582C0E09F
:10193300E51934FFC583C0E0E518C3958224F3108D
:10194300AF088583198582188008858319858218D5
:10195300D2AFC8F0A3E9F0A3EAF0A3EBF0A37908B0
:10196300E709F0A3D8FAECF0A3EDF0A3EEF0A3EFB0
:10197300F0A3D0E0F0A3D0E0F0A3D0E0F0A3E52003
:10198300F0A3E5F0F0A322851983851882E0C0E077
:10199300A3E0F9A3E0FAA3E0FBA37808E0F608A329
:1019A300DFFAE0FCA3E0FDA3E0FEA3E0FFA3E0C0B9
:1019B300E0A3E0C0E0A3E0F5D0A3E0F520A3E0A31B
:1019C300F5F010AF0885831985821880088583197F
:1019D300858218D2AFD082D083D0E0F8D0E03274C1
:1019E300048006740280027401C0E0F4041217AC90
:1019F300D0E0121682227404800474028000CCC0EA
:101A0300E0EDC0E0E518C39CCCAD1950011D10AF4B
:101A1300068C188D1980068C188D19D2AF12168F6B
:101A2300D0E0FDD0E0FC22D083D082E9C0E0E49393
:101A3300A3C386F0C5F095F0F908E493A386F0C537
:101A4300F095F0700BE493A3C3994005E904800279
:101A5300A3E475F002A42582F582E5F03583F583CE
:101A6300D0E0F9E493A3C0E0E493C0E022D083D0B4
:101A730082ECC0E0EDC0E0E493A3FCE493A3FDEDAE
:101A83004C600D121ABCEC24FFFCED34FFFD80EF1B
:101A9300E493A3FCE493A3FDED4C600D121AFBEC5D
:101AA30024FFFCED34FFFD80EFD0E0FDD0E0FCE44B
:101AB30093A3C0E0E493C0E022C0E0C3E49396089C
:101AC3007401939618400FE49366700808740193A9
:101AD300661870007019A3A3C3E493960874019366
:101AE3009618A3A3400DD0E0D0E0D0E0021AACA337
:101AF300A3A3A3A3A3D0E022C0E0C0F088F0E493A3
:101B03006670080874019366187000A8F0A3A370A8
:101B13000BD0F0D0E0D0E0D0E0021AACA3A3D0F019
:031B2300D0E022ED
:101B2800C0E074F212192BA2AFE433FED2AF53898E
:101B3800FDC2C575F900A2F950FCC2F975F900A2F9
:101B4800F950FCC2F975F900A2F950FCC2F9E5F99F
:101B58009002E8F075F900A2F950FCC2F9E5F99095
:101B680002E7F0FAA3E0FB9002E5E0F8A3E0F583D2
:101B780088821217D1EEA2E092AF7F0102198AC0C3
:101B8800E0C0D0E8C0E0E5A8D2AFC2C7751A00A28D
:101B9800E792AFD0E0F8D0D0D0E03274F512183F19
:101BA800EAFEEBFFEE2434F8EF3400F988088909DF
:101BB800EE2435F582EF3400F583E0F8EE2437F5AE
:101BC80082EF3400F583E0F50AEC850AF0A4FCAA5C
:101BD800F0850AF0EDA42AFDE82CF8E43DF97A2511
:101BE8007B001216F1EA850882850983F05407F80C
:101BF8007401B800028004C333D8FCC0E0E01313BA
:101C080013541FF8EE28F8EF3400F9E8245DF58244
:101C1800E93400F583D0E0F8E0586008EE2434F5A4
:101C280082EF801EEE2436F582EF3400F583E0F56E
:101C3800F0EA84A8F0EE28F8EF3400F9E82438F543
:101C480082E93400F583E0F97F040218EB74F51299
:101C5800183FEAFEEBFFEE2434F582EF3400F583FB
:101C6800E0C0E0EE2435F582EF3400F583D0E0F0F3
:101C78008E828F83A3A3A3A3A3A3A3C082C0838EB2
:101C8800828F83A3A3A3A3A3E0F8A3E0F9D083D012
:101C980082E0C398F508A3E099F509EE2480F5825F
:101CA800EF3400F583E064017069EE2481F582EF7A
:101CB8003400F583E0F8A3E0F98E828F83A3A3A311
:101CC800A3A3A3A3E0FCA3E0FD8E828F83A3A3A319
:101CD800A3A3E0FAA3E0FBC3EA9CEB9D5027C3EC67
:101CE80098ED99402EC3EA98EB9950277C727D08AD
:101CF800EEFAEFFB120F96EE2480F582EF3400F532
:101D080083E4F0800EC3EA98EB9940E0C3EC98EDC9
:101D18009950D9EE2434F8EF3400F9E8FCE9FDEEE7
:101D28002435F582EF3400F583E0F8EE2437F582A8
:101D3800EF3400F583E0F50AE508850AF0A4F50814
:101D4800AAF0850AF0E509A42AF509E82508F8E4C7
:101D58003509F97A257B001216F1EA8C828D83F019
:101D68005407F87401B800028004C333D8FCC0E0FB
:101D7800E0131313541FF8EE28F8EF3400F9E824A1
:101D88005DF582E93400F583D0E0F8E0586008EEAC
:101D98002434F582EF801EEE2436F582EF3400F508
:101DA80083E0F5F0EA84A8F0EE28F8EF3400F9E8CB
:101DB8002438F582E93400F583E0F9122651021C33
:101DC80050C082C083851882851983E0F8A3E0F9A2
:101DD800C3EA9CEB9D5012C3EC98ED994019C3EAF5
:101DE80098EB99501279018010C3EA98EB9940F565
:101DF800C3EC98ED9950EE7900D083D08222EAC3E3
:101E08009CFAEB9DFB2200008521878522C622C013
:101E1800E0C0D0E8C0E0E9C0E0EAC0E0EBC0E0EC38
:101E2800C0E0EDC0E0C008C009C00AC00BC082C055
:101E380083C0F0759B00906182E0A2E64003021E19
:101E4800F5E591A2E64003021EF57591BF900737AC
:101E5800E0640570081210CE1210DA80031210D454
:101E6800752100121134E9900738F0790012112811
:101E7800120F067A017B00900736E0F91204BC9035
:101E88007803E064426003021F3E9008D4E014F037
:101E98006003021F3EC2AF121EA200782AD0E0F6ED
:101EA80018D0E0F6E59F5407F970059081B88003D3
:101EB8009081B4780812164CE9C4C0E07829E65538
:101EC80008F50808E65509F509740B780812175A39
:101ED800D0E02508F8906270E0A2E740F8E8C33344
:101EE800906272F0906270E0D2E0F08049E0A2E582
:101EF8005024E591A2E5501E7591DF900737E06404
:101F08000D7013900759E004F064287002E4F07A29
:101F180000E0F91211A6906181E0A2E35009E5E919
:101F2800A2E3500375E9F7A3E0A2E75009E591A2FF
:101F3800E7500375917FD0F0D083D082D00BD00AC0
:101F4800D009D008D0E0FDD0E0FCD0E0FBD0E0FA2A
:101F5800D0E0F9D0E0F8D0D0D0E032C0E0C0D0C0B6
:101F680082C083906183E0A2E05009E5BFA2E050FF
:101F78000375BFFEE0A2E15009E5BFA2E150037579
:101F8800BFFDE0A2E25009E5BFA2E2500375BFFB26
:101F9800E0A2E35009E5BFA2E3500375BFF7E0A252
:101FA800E45009E5BFA2E4500375BFEFE0A2E55095
:101FB80009E5BFA2E5500375BFDFE0A2E65009E5D9
:101FC800BFA2E6500375BFBFD083D0828088C0E02F
:101FD800C0D0E8C0E0E9C0E0EAC0E0EBC0E0ECC097
:101FE800E0EDC0E0C0F0E5A7A2E6500FE5A1A2E64B
:101FF800500953A7BF75A1BF12203BE5A7A2E55022
:102008000CE5A1A2E5500653A7DF75A1DFE5A7A25D
:10201800E15009E5A1A2E1500375A1FDE5A7A2E2FF
:10202800500CE5A1A2E2500653A7FB75A1FBD0F026
:10203800021F4C74F812183F752101900737E064AD
:102048000670151210628A828B83A3A3A3A3A3A38D
:10205800E0FAA3E0FB1210BCA2AFE433FED2AF90CB
:10206800073DE0640170187A207B00900736E0F99C
:102078001205467A207B00900736E0F91204C290D8
:102088006182E0D2E6F09008D3E0602185C6228024
:102098001690073CE064017008E5C654F84405F55D
:1020A800C653BEFC121E107401652160E4EEA2E066
:1020B80092AF7F010218EB008E238F24858228853A
:1020C8008327851882851983E0CEA3E0CF852882EF
:1020D800852783EBC9EAC8EDCBECCA75F010C3E8D5
:1020E80033C8E933C9EA33CAEB33CBC3EA9EF526D2
:1020F800EB9FF525B35004AB25AA26EC33CCED3382
:10210800CDD5F0DAAE23AF242274EB12183F74FA5F
:1021180012177C8A088B098C148D15900737E024D8
:10212800F7C3940550069082100222731210628A37
:102138000A8B0BAE0AAF0BEE4F7003022270AC088D
:10214800AD09851882851983AA82AB831210EC8E9B
:10215800828F83A3A3780812164C9081E078081226
:102168001626851882851983780C12164C9081E002
:10217800780C1216267808790C1213E5501F780887
:10218800790C1215FE90817C780812140540478559
:102198000810850911850A12850B138041850C10DA
:1021A800850D11850E12850F13781079081215FE0A
:1021B80090817C7810121405501C75100075110060
:1021C8007512007513017810790C1215FE781079C4
:1021D800081215C58008908210781012164C7409E0
:1021E80078101215A6908180780812164C7810790C
:1021F800081214A48E828F83A3A3A3A3A3A3E0F839
:10220800A3E0F97AD07B031216F188088909E4F56E
:102218000AF50B781079081215C574041217C7E06F
:10222800F8A3E0F97AD07B031216F1E8FA8A08E4F9
:10223800F509781079081213E55007781079081213
:1022480015FE900737E06408600AE064066005E060
:102258006405701C908184781012140550129081C6
:102268008878101215D8800890822C781012164C95
:10227800851482851583781012165B7406121792DE
:102288007F0E0218EB74F712183F1210FE9008D157
:10229800E064017010906245E4F0A3F053F4F34356
:1022A800FE0C5390F31210AAE5C654804449F5C6B3
:1022B800E59E547F644970F8906185740FF090082A
:1022C800CFE0F47002A3E0604E9008D0E0600814FC
:1022D800601B14602E80407508017509009008CFB6
:1022E800E07808121769E508F45280802A75080119
:1022F8007509009008CFE07808121769E508F452CC
:102308009080147508017509009008CFE0780812CC
:102318001769E508F452A079007F020218EB74F7F8
:1023280012183FE9FEEAFF74016E700C7A807B0098
:10233800900736E0F91204BC902660E493F4600834
:10234800E493F9120EFA800953C680E59E547F7013
:10235800FA1210B09008D1E064017003120F1890BF
:1023680008CFE0F47002A3E0604B9008D0E060086A
:1023780014601A14602C803D7508017509009008D6
:10238800CFE07808121769E50842808028750801AF
:102398007509009008CFE07808121769E50842909F
:1023A80080137508017509009008CFE078081217A6
:1023B80069E50842A01210FE1210628A088B09A86B
:1023C80008A909E8496015E5E170FCE82414F582DC
:1023D800E93400F583E0F46003E0F5E174016F701F
:1023E8000A7A01900736E0F912051602232174F1E2
:1023F80012183F8A088B098C0A8D0B740F1217C7A5
:10240800780C12164C9081E078081216269081E01C
:10241800780C1216267808790C1213E550157808EE
:10242800790C1215FE90817C7808121405401579F4
:10243800018013780C79081215FE90817C780C12B3
:10244800140540EB79007F080218EB74ED12183F71
:102458008A088B098C0A8D0B74131217C7780C1213
:10246800164C9081E078081216269081E0780C12BC
:102478001626780C79081213E540117808790C12A1
:1024880015FEAA08AB09AC0AAD0B802275100075C1
:1024980011007512007513017810790C1215FE7869
:1024A8001079081215C5AA10AB11AC12AD137F0C28
:1024B8000218EB9081E0780812164C8A828B837898
:1024C800081216397F040218EB74F512183F8C8233
:1024D8008D83780812164C8A828B8378081216121C
:1024E800EA2404F8EB3400F98C828D83A3A3A3A318
:1024F800E0FCA3E0FD88828983C3E09CF0A3E09D13
:10250800F088828983C3E09420A3E0944E4022900F
:102518008220780812164C8A828B8378081215EB71
:102528008A828B83A3A3A3A3E02420F0A3E0344EE4
:10253800F0808074F512183FE9FE900889E0FAA34C
:10254800E0FBEEC333F8E433F974E128F5827480D4
:1025580039F583E02AF508A3E03BF5097808121954
:10256800E69081B012166A1220C074021217928A7D
:10257800088B098C0A8D0B7410780812158DAA081F
:10258800AB097F040218EB74F112183F8A0C8B0D0B
:102598008C0E8D0F740F1217C7E0FAA3E0FB7411AD
:1025A8001217C7E0F508A3E0F50974131217C7E07E
:1025B800FEA3E0FF78081219E6EA2401F508EB34D7
:1025C80000F509E4F50AF50B780C79081214249043
:1025D8008190780812164C780C7908121424AA0CE9
:1025E800AB0DAC0EAD0F1220C074021217928B09FE
:1025F800EA450960047A0180027A00EC2AFCED348D
:1026080000FDECF8EDF97A717B021216F188088961
:1026180009E4F50AF50B8E828F83780812165BECB5
:10262800F8EDF97A717B021216F18A088B097405A4
:1026380078081217698E828F83A3A3A3A3E508F0F5
:10264800A3E509F07F080218EBC082C083E9906017
:0726580000F0D083D08222C4
:10266000FFFFFFFFFFFFFFFFC082C08390619074F8
:1026700004F0A37448F0A37402F09061807440F0F9
:102680009061BC7403F09061877419F09062657476
:102690001BF090619C740DF090619A7433F0A374F8
:1026A00055F09061A0743AF09008D1E0640170098F
:1026B000C29190073B7467800590073B7461F0906E
:1026C0002666E493906186F0902660E493F4602798
:1026D000E493540FF8906185E0686012E5C6548079
:1026E0004449F5C6E59E547F644970F8E8F053C646
:1026F00080E59E547F70FA79051211880228AAC0DD
:1027000082C083E9540FF9906185E0696012E5C6E3
:1027100054804449F5C6E59E547F644970F8E9F059
:1027200053C680E59E547F70FA0228AAC082C083F7
:10273000E5A8F853A87E906181E4F0A3F0A3F0C26D
:10274000BA539AFEC289759B00C2C275E9007591A1
:102750000075BF0075A91175B905906181F0A3746A
:10276000C0F0A3E4F0D2BA439A0174805842A802A0
:1027700028AAC082C08374F812177C900739E0F849
:10278000A3E0F9E84970030228A0900739E054401B
:1027900060237908851882851983AA82AB83120F7A
:1027A000F0851882851983AA82AB83120CBA900730
:1027B00039E054BFF0E054806010790C7AF57B0862
:1027C000120FF0900739E0547FF0E0A2E050319012
:1027D000619A7433F0A37455F09061A0743AF0904C
:1027E00008D1E064017009C29190073B74678005CD
:1027F00090073B7461F0120CC0900739E054FEF072
:10280000E05402603190619A743FF0A3745AF090E2
:1028100061A0747FF09008D1E064017009D29190BA
:10282000073B7471800590073B746AF0120CC090EE
:102830000739E054FDF0E054046013902664E493FB
:10284000906186F0120CC6900739E054FBF0E0541A
:10285000086013902665E493906186F0120CC69090
:102860000739E054F7F0E054106013902666E493C3
:10287000906186F0120CC6900739E054EFF0E054F6
:1028800020600A120CC6900739E054DFF0A3E05430
:1028900001600D120F18120CCC90073AE054FEF0B4
:1028A00074081217928003F0A3F0D083D082020143
:1028B00035C082C083E9600814600A14600C80137C
:1028C00090266480089026658003902666E49390A5
:1028D0006186F080D574EC1217D374F412177C85DE
:1028E0001882851983AC82AD837583817582D0741B
:1028F0000412168F90266493F46003022A62907883
:1029000008E0C394025003022A4274041217C7ACB1
:1029100082AD83758381758243740812168F851882
:102920008285198385821285831374041217C7ACBC
:1029300082AD83750EFF750FFF7FFF7E00750C481B
:10294000750D78801574086E70030229D574096EB0
:1029500070030229D5740A6E607B850C82850D8315
:10296000780812164C8C828D83A909E50AC9F8886B
:10297000107418780812158DE5104508F8C3E09812
:10298000A3E099850C82850D83780812164C4018B7
:102990008C828D837418780812158DE5104508F81F
:1029A000E0C398F8A3E0801C7418780812158DE530
:1029B000104508FAE9FB8C828D83E0F8A3E0F9EA80
:1029C000C398F8EB99F9C3E8950EE9950F5006887E
:1029D0000E890FEEFF0EE50C2404F50CE50D340016
:1029E000F50DEEC39413500302294574FF650E7074
:1029F0000474FF650F60238F08740278081217694A
:102A000074482508F58274783509F583780812161C
:102A10004C851282851383E508F0EC24020C0CED42
:102A20003400FD851282851383A38582128583136A
:102A3000740C1217C7E5826C7003E5836D600302A6
:102A4000293375080175090078081219E674021215
:102A500017C7AC82AD837A997B09120738740212CA
:102A60001792740C1217927F0C0218A5C082C083B3
:102A70009061AE7468F0A3746AF090624574FBF0E4
:102A8000A304F053F4FD43FE029008D17401F090CA
:102A900061A0E0643A90619A70237433F0A3745596
:102AA000F09061A0743AF0740164017009C29190D1
:102AB000073B7467802890073B74618021743FF066
:102AC000A3745AF09061A0747FF0740164017009DE
:102AD000D29190073B7471800590073B746A02287D
:102AE000A97F040218A5C082C083900883E0640116
:102AF000700A900888E06004790C8002790002284E
:102B0000AAC082C08375E1F1900886E06055146028
:102B1000081460591460518059120F2A90087CE003
:102B2000F97A7D7B0812110A9081C812166A121177
:102B30004090822812166A121116900887E0F91246
:102B40001122790112117C90087AE02416F8A3E092
:102B50003400F9888289837442F0A3740FF07900FD
:102B60000228AA120F3080B4120F3680AF120F3C29
:102B700080AA791280EA74F41217D375D90D9008DF
:102B80006BE0A2E0E4331313F890087CE0C4333325
:102B900054C0484401F5D9787A790888828983A39A
:102BA000A3A3E0F5D988828983A3A882A983E864D6
:102BB000807003E9640870E3786B79088882898300
:102BC000A3E0F5D988828983A3A882A983E86471E8
:102BD0007003E9640870E575E19590086BE0F97A97
:102BE0006C7B08121110900D1C74D0F0A3740EF0C1
:102BF000A37438F0A37410F0A37438F0A37410F029
:102C0000A37438F0A37410F0A374D6F0A3740EF07C
:102C1000A37438F0A37410F0A374EEF0A3740EF054
:102C2000900D2A7438F0A37410F0A37438F0A374D4
:102C300010F0A37438F0A37410F0A37438F0A374E8
:102C400010F0A37438F0A37410F0A37438F0A374D8
:102C500010F090087AE0F8A3E0F5838882A3A378C7
:102C60000812164C9081C478081215D89081E0782B
:102C70000812162690087AE0240EF8A3E03400F932
:102C800088828983780812165B90087AE02414F809
:102C9000A3E03400F9888289837413F090073774B5
:102CA00002F0022AE1C082C08390088CE02407F57C
:102CB000D990087CE0C4333354C0F5D9787A7908C8
:102CC00088828983A3A3A3E0F5D988828983A3A8F6
:102CD00082A983E864807003E9640870E390088C3B
:102CE000E0601F787A7908FAE82413F582E9340065
:102CF000F583E0F5D988828983A3A882A9831AEA9B
:102D000070E69008ACE02407F5D990087CE0C43365
:102D10003354C04404F5D9787A790888828983A32A
:102D2000A3A3E0F5D988828983A3A882A983E86454
:102D3000807003E9640870E39008ACE0601F787A63
:102D40007908FAE82433F582E93400F583E0F5D90F
:102D500088828983A3A882A9831AEA70E675E1951F
:102D6000900D1C74DCF0A3740EF0A37438F0A374FF
:102D700010F0A37438F0A37410F0A37438F0A374A7
:102D800010F0A374D6F0A3740EF0A37438F0A374FB
:102D900010F0A374EEF0A3740EF0900D2A7438F0C6
:102DA000A37410F0A37438F0A37410F0A37438F077
:102DB000A37410F0A37438F0A37410F0A37438F067
:102DC000A37410F0A37438F0A37410F09082201252
:102DD000166A90087AE0240EF8A3E03400F988829D
:102DE000898312167690087AE02414F8A3E0340060
:102DF000F9888289837412F090073774010228A938
:102E0000C082C08390088CE02407F5D990087CE04C
:102E1000C4333354C04402F5D9787A79088882895A
:102E200083A3A3A3E0F5D988828983A3A882A98379
:102E3000E864807003E9640870E390088CE0601F28
:102E4000787A7908FAE82413F582E93400F583E00A
:102E5000F5D988828983A3A882A9831AEA70E675C6
:102E6000E195900D1C74E8F0A3740EF0A374E8F0E3
:102E7000A3740EF0A374E8F0A3740EF0A374E8F04A
:102E8000A3740EF0A374E8F0A3740EF0A374E8F03A
:102E9000A3740EF0A374EEF0A3740EF0900D2A74D8
:102EA00038F0A37410F0A37438F0A37410F0A37476
:102EB00038F0A37410F0A37438F0A37410F0A37466
:102EC00038F0A37410F0A37438F0A37410F090825B
:102ED0002012166A90087AE0240EF8A3E03400F974
:102EE0008882898312167690087AE02414F8A3E089
:102EF0003400F9888289837414F0900737740402CF
:102F000028A9C082C08390088CE02407F5D99008D6
:102F10007CE0C4333354C04406F5D9787A79088804
:102F2000828983A3A3A3E0F5D988828983A3A88299
:102F3000A983E864807003E9640870E390088CE07A
:102F4000601F787A7908FAE82413F582E93400F5ED
:102F500083E0F5D988828983A3A882A9831AEA70BD
:102F6000E69008ACE02407F5D990087CE0C4333340
:102F700054C04404F5D9787A790888828983A3A358
:102F8000A3E0F5D988828983A3A882A983E8648015
:102F90007003E9640870E39008ACE0601F787A7908
:102FA00008FAE82433F582E93400F583E0F5D9889E
:102FB000828983A3A882A9831AEA70E675E19590B5
:102FC0000D1C74E2F0A3740EF0A37438F0A3741017
:102FD000F0A37438F0A37410F0A37438F0A3741045
:102FE000F0A37438F0A37410F0A37438F0A3741035
:102FF000F0A374EEF0A3740EF0900D2A7438F0A3D1
:103000007410F0A37438F0A37410F0A37438F0A314
:103010007410F0A37438F0A37410F0A37438F0A304
:103020007410F0A37438F0A37410F090822012167C
:103030006A90087AE0240EF8A3E03400F9888289C7
:103040008312167690087AE02414F8A3E03400F98D
:10305000888289837415F090073774030228A9C009
:1030600082C08390087AE0F8A3E0F5838882A3A366
:10307000A3A3A3A3E40228A774F71217D3900765AC
:10308000E0F875F004A4C8AAF02AF9746728F87467
:103090000739F9E82405FAE93400FB8A828B83E0DA
:1030A000FCA3E0FD88828983A3A3A3A3A3A3A3A376
:1030B000A3ECF0A3EDF088828983A3A3A3A3A3A329
:1030C000A3E024FFF8A3E034FFF98A828B83E8F0C1
:1030D000A3E902331D74F71217D3EAFEEBFF9061E8
:1030E000D0E060030231B275D90E75D90375D904E9
:1030F000EE248CF582EF3400F583E5822408F8E5B0
:10310000833400F9E0F5D9A3E865827003E96583AB
:1031100070F2EE2484F582EF3400F583E582240416
:10312000F8E5833400F9E0F5D9A3E865827003E996
:10313000658370F275E1957908EE248CFAEF34001E
:10314000FB120FE47904EE2484FAEF3400FB120F33
:10315000E47C00EEF8EFF9ECFAC3E49AFA95E0FBB0
:10316000EE2AFAEF3BFBEA248BF582EB3400F58381
:10317000E0C0E0E824ABF582E93400F583D0E0F06C
:103180000C88828983A3A882A983ECC3940840C7D2
:10319000EE2470F582EF3400F583E0F8A3E0F9EE59
:1031A0002472F582EF3400F583E8F0A3E9F07901A9
:1031B0008002790002331EC082C08375D90275D99E
:1031C0000375D90575E195EA2470F582EB3400F5B5
:1031D00083E0F8A3E0F9EA2472F582EB3400F5838A
:1031E000E8F0A3E9F079010228AA74F61217D3EAED
:1031F000FEEBFF9008D57406F07508D575090878C0
:10320000081219E67C01790312102C74021217922D
:1032100075D90675D9037582D5758308E0F5D9A3EC
:10322000E58264DA7004E583640870F075E19590D6
:103230000737E06408701EEE2470F582EF3400F565
:1032400083E0F8A3E0F9EE2472F582EF3400F58311
:10325000E8F0A3E9F079010233EA74F61217D3EA31
:10326000FEEBFF9061D0E0706678019008D5740B9A
:10327000F0900737E0640770197508D5750908786C
:10328000081219E67C01790312102C7402121792AD
:103290007805740128F5D975D9037582D575830829
:1032A000E8FAE0F5D9A31AEA70F875E195EE247012
:1032B000F582EF3400F583E0F8A3E0F9EE2472F52F
:1032C00082EF3400F583E8F0A3E9F0790180027918
:1032D000000233EA74F71217D3EAFEEBFF75D90345
:1032E00075D90375D90DEE24DEF582EF3400F58330
:1032F000E0F5D975E1957904121146EE2470F58256
:10330000EF3400F583E0F8A3E0F9EE2472F582EFE4
:103310003400F583E8F0A3E9F079018001F07F0142
:103320000218A574F61217D3EAFEEBFF9061D0E005
:10333000F87480C398FAEE2483F582EF3400F583A5
:10334000E06004780480027800E8240BF8EAC3986F
:1033500050030233E87D099008D5EDF0EE24E3F840
:10336000EF3400F97AD67B087C0888828983E08A6A
:10337000828B83F088828983A3A882A9838A828B27
:1033800083A3AA82AB831CEC70E0EE2483F582EF6A
:103390003400F583E0601D7508D5750908780812BA
:1033A00019E67C097903EEFAEFFB12102C74021275
:1033B00017927D0D74012DF5D975D9037582D575D8
:1033C00083088D08E0F5D9A31508E50870F675E1C6
:1033D000957904121146EE241DF582EF3400F58331
:1033E000E4F0A3F07901800279007F020218A5744D
:1033F000F61217D3EAFEEBFF9061D0E0F87480C3B9
:1034000098FAEE2483F582EF3400F583E0600478C7
:103410000480027800E82408F8EAC39850030234D4
:10342000EF7D069008D5740CF0900754E09008D614
:10343000F07A557B0778D779087C028A828B83E003
:1034400088828983F08A828B83A3AA82AB83888255
:103450008983A3A882A9831CEC70E07A577B077C40
:10346000028A828B83E088828983F08A828B83A39D
:10347000AA82AB8388828983A3A882A9831CEC706B
:10348000E0EE2483F582EF3400F583E0601D7508DB
:10349000D575090878081219E67C067903EEFAEF6B
:1034A000FB12102C74021217927D0A74012DF5D9AB
:1034B00075D9037582D57583088D08E0F5D9A315F4
:1034C00008E50870F675E1957904121146EE24704E
:1034D000F582EF3400F583E0F8A3E0F9EE2472F50D
:1034E00082EF3400F583E8F0A3E9F07901800279F6
:1034F000000233EA74F61217D3EAFEEBFF9061D0B4
:10350000E0F87480C398FAEE2483F582EF3400F576
:1035100083E06004780480027800E82404F8EAC3B9
:103520009850030235CE78029008D5E8F0EE24F5E5
:10353000F582EF3400F583E09008D6F0EE2483F5B1
:1035400082EF3400F583E0601B7508D575090878B3
:10355000081219E67C027903EEFA12102C7402129A
:1035600017927806740128F5D975D9037582D57537
:1035700083088808E0F5D9A31508E50870F675E119
:1035800095EE2474F582EF3400F583E4F0EE2480A8
:10359000F582EF3400F583E4F0EE241DF582EF347C
:1035A00000F583E4F0A3F07904121146EE240DF542
:1035B00082EF3400F583E0F8A3E0F9EE2472F5829F
:1035C000EF3400F583E8F0A3E9F079018002790097
:1035D0000233EA74F61217D39061D0E0F87480C316
:1035E00098FCEA2483F582EB3400F583E0600478EC
:1035F0000480027800E82404F8ECC398405B790268
:103600009008D57407F0EA24F6F582EB3400F583D0
:10361000E09008D6F0EA2483F582EB3400F583E0ED
:1036200060187508D575090878081219E67C020932
:1036300012102C74021217927906740129F5D975AB
:10364000D9037582D5758308E9F8E0F5D9A318E8A0
:1036500070F875E1957901800279000233EA74F51A
:103660001217D3E9FCA2AFE433F50AC2AF7D0080A4
:10367000010DEA246FF582EB3400F583E0F8EDC329
:1036800098501A8D08EA2508F8EB3400F9E8246B05
:10369000F582E93400F583E06C70D68024EA246F6B
:1036A000F8EB3400F9E0FEEA2EFAEB3400FBEA24F2
:1036B0006BF582EB3400F583ECF088828983E004BB
:1036C000F0E50AA2E092AF7F030218A574F6121784
:1036D000D3A2AFE433FDC2AFEA246FF582EB34002E
:1036E000F583E014F07C0060368C08EA2508F8EBDE
:1036F0003400F9E8246CF582E93400F583E0C0E099
:10370000E8246BF582E93400F583D0E0F00CEA247C
:103710006FF582EB3400F583E0F8ECC39840CAEA19
:10372000246EF582EB3400F58374FFF0EA246AF529
:1037300082EB3400F583E4F0EDA2E092AF0233EACD
:10374000C082C083E5A8F8C2AFEA246BF582EB34EF
:1037500000F583E9F0EA246AF582EB3400F583E4AE
:10376000F0E8A2E792AF0228AA74F31217D3EAFE98
:10377000EBFFECFAEDFB8A828B83A3A3A3A3E054B7
:103780001FF0EE2436F582EF3400F583E4F0F50AFD
:10379000EEFCEFFD8A828B83E0C0E0EC245DF582D5
:1037A000ED3400F583D0E0F0750B00E50A333333D8
:1037B00054F8F50C8A828B83E0F508750900E50B57
:1037C000780812174AE508A2E0502FEE2436F8EFE9
:1037D0003400F988828983E0F508EE2508F508EFC2
:1037E0003400F509E5082438F582E5093400F5834D
:1037F000E50CF088828983E004F0050B050CE50BED
:10380000C3940840AF050A8A828B83A3AA82AB8344
:103810008C828D83A3AC82AD83E50AC394055003EB
:103820000237947F050218A574F71217D390076327
:10383000E0640170077A007B0002399F7E009007E8
:1038400069E070F17401F0A3E4F0A3F09007C904FB
:10385000F09007CCE4F0A3F09007CF04F090076C51
:10386000E4F0A3F0A3F0A3F090077604F090079C97
:10387000E4F090822C12166A90077F121676900759
:1038800083E4F0A3F0A3F09007E7F09007DBF0905B
:1038900007D07480F0A3E4F09007D6F09007CEF044
:1038A000900852F0A3F0A3F0A3F0A3F0A3F0A3F0CC
:1038B000A3F090085BF09007EAF090083AF0A3F0CC
:1038C00090822C12166A90083C12167690822C1266
:1038D000166A900840121676900846E4F090084860
:1038E000F0900844F090085EF0A3F0A3F0A3F0A3DA
:1038F000F0A3F0A3F0A3F078637907E8246FF582D2
:10390000E93400F58374FFF00E88828983A3A882CE
:10391000A983EEC3940440E37A637B077872790845
:1039200088828983E0C0E0EA2461F582EB3400F507
:1039300083D0E0F088828983A3A882A9838A828BBE
:1039400083A3AA82AB83E864777003E9640870D02C
:103950007A637B07784A790788828983A3E0C0E08D
:10396000EA24E7F582EB3400F583D0E0F088828921
:1039700083A3A882A9838A828B83A3AA82AB83E8CC
:1039800064527003E9640770CF900763E004F06449
:1039900001700890076BE0900765F07A677B07027B
:1039A000331EC082C08390076AE4F0900769F090EC
:1039B0000763F0A3F0A374FFF075E1F10228AAC039
:1039C00082C0837800790090076AE06004786779A4
:1039D0000788828983A3A3A3A3E0F90228AA74F627
:1039E0001217D3EAFEEBFF8E828F83A3A3A3E060BE
:1039F0000F8E828F83A3A3A3E4F0900764E014F0FA
:103A0000900763E014F0700690076574FFF08E82F3
:103A10008F83A3A3E4F0900877E0700D900764E033
:103A2000640170057900121128EE2465F582EF34E7
:103A300000F583E0F8A3E0F9E8496029EE2465F891
:103A4000EF3400F9880889098882F583E0FCA3E057
:103A5000FD900765E0FA7B00120CF085088285096D
:103A600083E4F0A3F0EEFAEFFB12105C0233EA7489
:103A7000F71217D3EAFEEBFF8E828F83A3A3A3A3D3
:103A8000E0FA7B00120D32EEFAEFFB120FAE1210CD
:103A90004402331EC082C083784A790788828983B2
:103AA000A3E4F088828983A3A882A983E864527082
:103AB00003E9640770E690074B022DFB74F61217BA
:103AC000D3EAFEEBFFEC2403F8ED3400F988088913
:103AD00009EC2407F8ED3400F9E8FCE9FD8C828D4F
:103AE00083E0F8A3E0F9850882850983E0FAA3E082
:103AF000FB1216F1EE240DF582EF3400F583E8F0A9
:103B0000A3E9F08C828D83E0F8A3E0F98508828533
:103B10000983E0FAA3E0FB1216F18B09EA4509607C
:103B200013EE240DF582EF3400F583E02401F0A3B9
:103B3000E03400F00233EA74F61217D3EAFEEBFF2A
:103B4000EE242EF582EF3400F583E0FCA3E0FD784F
:103B50000079FAECFAEDFB1216F1EE2470F582EF23
:103B60003400F583E8F0A3E9F0780079FAECFAED97
:103B7000FB1216F18B09EA45096013EE2470F582F9
:103B8000EF3400F583E02401F0A3E03400F00233C9
:103B9000EA74F01217D3EAFEEBFF74101217C7781D
:103BA0000812164C1210E68A0C8B0D8C0E8D0F909D
:103BB00081C0780C1215D89081E0780C1216267806
:103BC0000C1219E28E828F83E0F8A3E0F5838882DD
:103BD000A3A312166A1223F67404121792E9600363
:103BE000023CDE8E828F83E02402F8A3E03400F9E9
:103BF000E8FAE9FB8A828B8378081215EB9081E062
:103C0000780812164C8A828B837808121639EE24B3
:103C10000BF582EF3400F583C082C0838E828F83E0
:103C2000A3A3A3A3A3E02401F8A3E03400F9D08365
:103C3000D082E0687003A3E06970057901023CE07E
:103C40008E828F83A3A3A3A3A3A3A3E02401F0A345
:103C5000E03400F0EE2474F582EF3400F583E06484
:103C6000017036EE2475F582EF3400F583E0F8A399
:103C7000E0F98E828F83A3A3A3A3A3A3A3E068701C
:103C800003A3E0697013EE2475F582EF3400F58329
:103C9000E02401F0A3E03400F0EE2480F582EF345C
:103CA00000F583E064017036EE2481F582EF340084
:103CB000F583E0F8A3E0F98E828F83A3A3A3A3A3E7
:103CC000A3A3E0687003A3E0697013EE2481F5827A
:103CD000EF3400F583E02401F0A3E03400F0790034
:103CE0007F080218A574F71217D3900765E0F875DE
:103CF000F004A4C8AAF02AF9746728FE740739FFF3
:103D00008028EE2465F8EF3400F988828983E0FC8E
:103D1000A3E0FD88828983E4F0A3F08E828F83A3E1
:103D2000A3A3A3E0FA7B00120CF0EE2465F582EF6A
:103D30003400F583E0F8A3E0F9E849604FEE24642D
:103D4000F582EF3400F583E0F50878081219EAEE01
:103D50002463F582EF3400F583E0F9EE2465F58203
:103D6000EF3400F583E0FCA3E0FDEEFAEFFB120F69
:103D7000D87401121792E96089EE2465F582EF3458
:103D800000F583E0F8A3E0F9E84970137C007D00BA
:103D90008E828F83A3A3A3A3E0FA7B00120CF00210
:103DA000331E74F21217D3EAFEEBFF890A740E1267
:103DB00017C7E0FAEE2462F582EF3400F583E06481
:103DC000016003023E6E9061D0E0F87480C398F504
:103DD0000CEE2483F582EF3400F583E06004780470
:103DE000800278008908E928F8E43400F9E8240220
:103DF0000808E93400F9E50C98E499A2D265D033BB
:103E00004068EA7005750B028003750B01E06039AC
:103E100075090078081219E67AD57B0812100E741D
:103E2000021217927508D575090878081219E6ACC0
:103E30000AA90BEEFAEFFB12102C740212179274FF
:103E400004250AF50A7CD57D087401250AF5D98573
:103E50000BD9E50A600D8C828D83F8E0F5D9A318A3
:103E6000E870F875E195790080067907800279FF9E
:103E70007F060218A5C082C083E960208C828D83F2
:103E8000E08A828B83F08C828D83A3AC82AD838A9F
:103E9000828B83A3AA82AB8319E970E0ECFAEDFB75
:103EA0000228AAC082C083E9900CFAF00240C274D2
:103EB000F71217D3E9900655F07C8D7D067AFF7BCB
:103EC000FF120C2A90065674FFF0A3F0A3E4F0A3AF
:103ED000F07905120BB8900655E0F9120AE07A4223
:103EE0007B0C120E0A024DD074F41217D38A088B81
:103EF00009EB54806030900655E0F91204A48A0A58
:103F00008B0BAE0AAF0BEE4F60138E828F83E06493
:103F1000B07003120BCAEEFAEFFB120492AA08E586
:103F2000096480FB80047A007B0002409174F212E5
:103F300017D374FC12177CEAFEEBFF74121217C73A
:103F40001252B7EE4F7003023FD074021217C7EE41
:103F5000F0A3EF1242CCECF0A3ED1242CCAA82AB5C
:103F600083120ADAE9F50A706AE508450960648E89
:103F7000828F8312529DEE4F60567A067B001204A8
:103F8000FE8A0C8B0DA80CA90DE8497005750A1363
:103F9000804188828983E4123FDDEEF0A3EF125264
:103FA000C8E508F0A3E509F090065B1240649006AE
:103FB0005B7005124D7A801B124D688003EAFCEBA2
:103FC000FD8C828D8312406470F38C828D8380E33C
:103FD000750A02A90A74041217920254B7F0A312C8
:103FE000526EA32274F21217D3890AE975F017A44E
:103FF000FEAFF090065AE4F0900658124064600A52
:10400000120504900658E4F0A3F0EEFAEFFB120458
:10401000FE8A088B09EA4509602FEEFCEFFD790066
:10402000120480900658E508F0A3E509F07B0080B3
:104030000812404EE4F0A3F00BEBC3950A40F2E502
:104040000A90065AF07900800279130254B7EB7592
:10405000F017A4F8A9F0900658E028FAA3E0398AEE
:1040600082F58322124A0CEA4B2274F41217D37998
:1040700000EAA2E0501B75085275098178081219F0
:10408000E67C047D007AFC7B0C120BB274021217E2
:10409000927F040218A5C082C08390065B1240C9BB
:1040A000601C88828983A3A3E06A7003A3E06B8805
:1040B00082898370E8A3A3A3A3124A0880047A002C
:1040C0007B00D083D08202013512559DE8492274CD
:1040D000EE1217D374FC12177CEAFEEBFF851882F0
:1040E000851983E4F0A3F0EE2402124D5AEE240564
:1040F000125275EE2404F50EEF124681E024FE60A4
:104100003924FC604624FE605224FE605E24FE706A
:10411000030241E224FE700302424624FE700302C1
:10412000425524FE700302426424FC700302427371
:1041300024FE70030242820242BF9006747417F09C
:10414000A3E41242D41208580242BF85188285198E
:1041500083AC82AD83120BD002428F851882851901
:1041600083AC82AD83120BD602428F850C08850D7D
:104170000974021217C7AC82AD8385088285098352
:10418000124A08120AFE8A0C8B0DAC0CAD0DEC4DD8
:10419000603BE4F50CF50D780C1219E6750C74759E
:1041A0000D06780C1219E6750C75750D06780C1253
:1041B00019E674081217C71219FD1255C112179289
:1041C000E9F50C700B1249FE120870800F750C0196
:1041D0008508828509831242C2124D7A850C080235
:1041E000429274021217C7AC82AD83850C82850D92
:1041F000831247D3603C850C82850D83A3A31219DB
:10420000FD75107475110678101219E67510757524
:10421000110678101219E674081217C71219FD1248
:1042200055C1121792E9F509700B1249FE12087672
:10423000800F750901850C82850D831242C2124DD3
:104240007A850908804C851882851983AC82AD83F4
:10425000120BDC803A851882851983AC82AD8312FB
:104260000BE2802B851882851983AC82AD83120BFB
:10427000E8801C851882851983AC82AD83120BEE11
:10428000800D851882851983AC82AD83120BF4E909
:10429000F508E50860298E828F83A3E06414601F0F
:1042A000850E82850F83E09006741242CC125599D8
:1042B000900675124D7AE508A31242D412085202F4
:1042C0004C6912559D85188285198322F0851882C4
:1042D00085198322F07C747D06850A82850B831202
:1042E0004A0C2274EE1217D374FC12177C8A0A8BC4
:1042F0000B8C0E8D0FEA2405F508EB3400F5097CD4
:10430000157D0079007A747B06120480E50824028A
:10431000F50CE5091252788518828519838582107B
:1043200085831178101219E6850882850983A3A375
:10433000A3A31247CA1219E6E5082405F510E509FA
:104340003400F51178101219E6850C82850D831260
:104350004B1F120AF874061217928A108B11AE10B6
:10436000AF11E50A2402F50AE50B124D5DEE4F7020
:10437000030244A1801774021217C7124A088882E8
:104380008983EAF0A3EBF0900674E004F0900674E1
:10439000E0C3940540030244A1E4F510F511781040
:1043A0001219E675105D75110678101219E6751070
:1043B0005E75110678101219E674061217C71219E5
:1043C000FD7910EEFCEFFD1255C3121792E9705EF5
:1043D000850882850983A3A3A3A3A3A3A3E0F890E0
:1043E000065DE06870481247CA1219E67C5E7D06D9
:1043F000E5082408FAE5093400FB12047A74021275
:104400001792E960298E828F83A3A3A3A3124A087F
:10441000900674E0F510740278101217697475250F
:1044200010F58274063511F583EAF0A3EBF07402FF
:104430001217C785821085831178101219E674024D
:104440001217C71219FD850C82850D83124A2E1290
:1044500017928A108B11AE10AF11900674E0F51010
:104460007511007402781012176974742510F874AD
:10447000063511F988828983A312406470030243D0
:104480006DE82403080808E93400F9EE4F600302E0
:1044900043768882898374FFF0A3F0900674E00469
:1044A000F0900674E0600A1249FE120864790080F8
:1044B0000B850882850983124D71790A024C697453
:1044C000EA1217D374FE12177C8C128D13EA24059E
:1044D000F50CEB1255AB1252A1750800750900EAF4
:1044E0002402F510EB3400F51185188285198385B7
:1044F000820A85830B780A1219E6850C82850D8362
:10450000A3A3A3A31246971219E6E50C2405F50A06
:10451000E50D124D5D780A1219E6850C82850D8332
:1045200012469B120AF874061217928A0A8B0BEA3B
:10453000450B700302463CEA2404F50EEB1246815B
:104540001252A18A828B83A3A3A3E0F985108285EE
:104550001183124A12600302463CE4F514F5157803
:10456000141219E675145D75150678141219E6759E
:10457000145E75150678141219E674061217C71220
:1045800019FD7913AC0AAD0B851082851183125584
:10459000C9121792E9F509600302463C90065DE0F6
:1045A000F8E5087009E02402900675F08014900682
:1045B00075E0FCE82402FAE43400FBEA6C7001EBDD
:1045C000707E850882AA821247C194141247B9509E
:1045D0006B850E82850F83E0C0E074762A124678E0
:1045E000D0E0F00508850E82850F83A3E0C0E0854A
:1045F000080A7476250A124678D0E0F0050890067D
:104600005D1246971219E67C5E7D0685080A74766F
:10461000250A12468B12179290065DE02508F508D0
:1046200074FF6E700374FF6F6012EE24010EEF349E
:1046300000FFE508C3941450030244E9E508601341
:10464000124A1C851082851183124A0812086A7961
:10465000008014E509700375090A851282851383A9
:10466000EEF0A3EFF0A90974021217927F0E021860
:10467000A585080C7476250CF58274063400F58344
:10468000223400F50F850E82F58322FA7406340079
:10469000FB1204687402221252D722A3A31246A16D
:1046A00022124D68FDEEFAEFFB2274EE1217D3745E
:1046B000FE12177C8C0E8D0FEA2405F50CEB1252BE
:1046C00078750B00900674E4F0F50AEA2402F50808
:1046D000EB3400F5098044900674E0FA90065DE042
:1046E000F81247C194171247B9400D900674E0F8CC
:1046F0007416C39890065DF01247CA1219E67C5EE4
:104700007D0674752AFA740612468E121792900668
:104710005DE0F8900674E028F0050AE50C2416F533
:1047200082E50D12467CE0F8E50AC39850749006C5
:1047300074E0C39416506BE50AC333F8E433F9E52B
:104740000C28FEE50D39FF851882851983AC82ADF2
:10475000838E828F831247D37008750B01124D6DC3
:104760008050E4F510F51178101219E675105D759A
:10477000110678101219E675105E75110678101280
:1047800019E674061217C71219FD79168508828575
:1047900009831255C9121792E9F50B70030246D727
:1047A00080BB7C747D06850882850983124A0812C5
:1047B000087CA90B7402024C6BE99400C365D033EA
:1047C00022EA28F8E43400F9E822E0F51075110037
:1047D000781022124C608A108B11AC10AD11EC4D88
:1047E0002274EA1217D374FC12177C8A0C8B0D8C7E
:1047F000128D13EA2405F50AEB124D5D750800755C
:104800000900E50A2402F510E50B3400F5117402E5
:104810001217C785820E85830F780E1219E6850A56
:1048200082850B83A3A3A3A312527D1219E6E50A86
:104830002405F50EE50B3400F50F780E1219E68508
:104840001082851183124D63124A02120AF874060F
:104850001217928A0E8B0FAE0EAF0FE50C2402F5E5
:104860000EE50D3400F50F80388882898374FFF0DF
:10487000050812467174FFF0050890065DE0F50C1E
:10488000750D00780C1219E67C5E7D0685080C74A7
:1048900076250C12468B12179290065DE02508F5DE
:1048A00008EE4F60278E828F83A3A3A3E0F9850EC5
:1048B00082850F83124A12EE2404125275E9602792
:1048C000850C82850D831249F4124D7AE508700338
:1048D0000249DA124A1C850E82850F83124A081299
:1048E000088279000249EFE4F514F51578141219DD
:1048F000E675145D75150678141219E675145E7563
:10490000150678141219E674081217C71219FD79E2
:1049100011EEFCEFFD850E82850F831255C912172B
:1049200092E9F509709A850882AA82EA90065D707C
:1049300009E02404900675F08025E0F8900675E003
:10494000F514E82404FCE43400FDEC65147001ED7A
:1049500070811247C194121247B940030248D385AF
:104960000C82850D83E0C0E074762A124678D0E090
:10497000F00508850C82850D83A3E0C0E012467126
:10498000D0E0124A3785820C85830D780C1219E627
:1049900074041217C71219FD851082851183124AFB
:1049A0002E1217928A0C8B0DAE0CAF0D85080C746D
:1049B00076250CF874063400F9EE4F70030248694E
:1049C000851882851983E088828983124A37A3E09B
:1049D000C0E0124671D0E0024877E509700375091E
:1049E0000A850A82850B831249F4124D7AA909744B
:1049F0000402466912559D851282851383227C74B8
:104A00007D06850A82850B83124A0C22E0FAA3E018
:104A1000FB22124A0C120AE6E9F50922900675E01B
:104A2000F5F0E50884900674F07C747D0622124649
:104A3000A1120B04740422F00508851882851983DD
:104A40002274EC1217D374FE12177C8A088B098C1F
:104A50000E8D0FEA2405FEEB3400FF124C4AEE24C3
:104A600018125275EA450B7003024AED124C33508E
:104A700029124B128A108B11EA4511606B7912AC26
:104A80000AAD0B850882850983124A088510828544
:104A900011831217D1E9F50A7058E4F50AF50B787D
:104AA0000A1219E68E828F83A3A3E0F50A780A1210
:104AB00019E6EE2403124D5A780A1219E68E828FF7
:104AC00083124B1F120C187406121792E9F50A7024
:104AD00021850C82850D83E0701F850882850983FE
:104AE000124A081208888011750A0E8009750A0199
:104AF0008004E50A6003124D6D850C82850D83E00C
:104B0000600479008002A90A74021217927F0C02D5
:104B100018A5851882851983124A0C120C062212D8
:104B20004D68FD850882850983124A0C2274EE12B5
:104B300017D374FE12177C8A088B098C0C8D0DEA32
:104B40002405FEEB3400FF750E00124C4AEA450BBB
:104B50007003024C11124C33502C124B128A0E8BE4
:104B60000FEA450F604A7912AC0AAD0B85088285C1
:104B70000983124A08850E82850F831217D1E9F541
:104B80000E6003024C14850882850983124E4FAAD9
:104B90000AFB124C2570147AFF7BFF124C25606CC7
:104BA00088828983E50AF0A3E50BF0750A00800787
:104BB000750E0E805F050A90065AE0FAE50AC39A60
:104BC000504AE50A75F017A4FAABF088828983A3EE
:104BD000A3E02AFAA3E03BFB8A828B83124D63ECAD
:104BE0004D70D2750A17750B00780A1219E6EEFCA3
:104BF000EFFD1204687402121792EEFCEFFD8508B7
:104C000082850983124A0812088E8014750E098065
:104C100003750E01125595850C82850D83124D7A10
:104C2000A90E0247B4120BFA8A108B11A810A91111
:104C3000E84922E5082402F508E5093400F5098A67
:104C4000828B83A3A3A3E0A2E52285188285198322
:104C5000AC82AD838E828F83124C608A0A8B0B22CA
:104C6000E0FAA3E0FB120AFE2274041217927F0AF4
:104C70000218A574EC1217D38C108D11EA2405F5D7
:104C80000CEB125278750F00EA2402F50AEB124D74
:104C90005D850A82F583124A0812564F7003024D51
:104CA0004F750E008071850C82850D83E064017064
:104CB0004F8E828F83A3A31219FD8E828F83A3A3AD
:104CC000A3A3E0F51275130078121219E6EE24057D
:104CD000F512EF3400F51378121219E6124A021297
:104CE0000C187406121792E9F50F6014850C828572
:104CF0000D83E4F0125595851082851183124D7A4B
:104D00007C177D007900EEFAEFFB1204808E828F13
:104D100083E4F0A3F0050E90065AE0F8E50EC39880
:104D2000501EE50E75F017A4F8A9F08508828509D4
:104D300083A3A31255B5124D63EC4D6003024CA63C
:104D400085088285098374FFF0A3F0E50F700612D1
:104D50004A02120894A90F024B0DF50AEF3400F530
:104D60000B22A3124D68FD22E0FCA3E0228E828F6D
:104D70008312559D850E82850F83E8F0A3E9F0220A
:104D8000C082C083900656E06A7003A3E06B700691
:104D90007A567B0680047A007B000240C274F712C8
:104DA00017D37F00EF75F003A4F8A9F0EC28F8ED15
:104DB00039F988828983E06A7003A3E06B7006E8A2
:104DC000FAE9FB800B0FEFC3940240D87A007B0016
:104DD0007F010218A574F61217D312538670067A53
:104DE000007B008007A3A3A3A3124A0802544774C0
:104DF000F21217D3E9FE740E1217C7124E4F741039
:104E00001217C71252B78C828D83E06402703BA3E5
:104E100012559988828983E0F50CA3E0F9A80C74F7
:104E2000026870037429697021750C02750D007891
:104E30000C1219E678081219E6780A1219E6EEF94A
:104E4000120C3C7406121792800279010254B7E0EA
:104E5000F50AA3E0F50B2274E81217D374FB1217BE
:104E60007CE9851882851983F08A168B178C0E8D44
:104E70000F741F1217C71252B774211217C7124EA0
:104E80004F74231217C71252A17510008C828D83A4
:104E9000A3A3A3E0A2E4502A741D1217C7124B1853
:104EA0008A828B83E58245837003024F63790AAC63
:104EB0000EAD0FAA16AB171217D1E9F51060030259
:104EC0004F66850E82850F83E06402600302521CE8
:104ED000A3125599850882850983A385821285834B
:104EE00013E50E2406F50CE50F12527888828983AB
:104EF000E0FAA3E0F9EA2400F514E439F515781492
:104F0000121A700100002801282B4F070002280206
:104F1000500328724F00292C51012954510229FBBA
:104F20005003292C510429BD511C52EE4F703E856F
:104F30000C82850D83125292FAE9FB8A828B83E000
:104F4000850A82850B831252CE1219E68A828B83E0
:104F5000A3124D68FDAA08AB091204687402121767
:104F600092800375100EA91074050255A375100BDD
:104F700080F4EE4F70F7850A82850B837401F0127E
:104F800052A7850882850983F07C007D00850E820A
:104F9000850F83A3A3A3A3E02401FAA3E03400FBBD
:104FA000120AFEEA4B60418A828B83E02402F88574
:104FB0000A82850B83E028F0EA2404F8EB3400F938
:104FC00088828983E08512828513831252E012520F
:104FD000CE1219E68A828B83124D62E5082403FA09
:104FE000E5093400FB024F59850A82850B83E024D2
:104FF00004F07C047D007900AA12AB131204800235
:105000004F66EE4F6003024F6D1252A7FEA3E0FF02
:10501000850A82850B837404F0EE850882850983F6
:10502000F0EF851282851383F074031217C7AC82E8
:10503000AD83EEFAEFFB12537470030250D88A82EC
:105040008B83A3A312529D74011217C785820E850C
:10505000830F780E1219E674051217C71219FD7C1A
:10506000FF7DFF120B0474041217928B0FEA450F99
:105070007033850C82850D8312527D1219E6850CE2
:1050800082850D83A31219FD7C027D007A4C7B8200
:105090001209307404121792E9700A74011217C7CA
:1050A00074FFF0A3F08E828F83E064027034750C7D
:1050B00002750D00780C1219E68E828F83124D62F4
:1050C000E5082404FAE50912468E121792850A8231
:1050D000850B83E02402800974011217C7EEF0A348
:1050E000EFF074011217C712528EF074011217C735
:1050F000A3125286A3A3A3F0024F66EE4F600302F1
:105100004F6D850C82850D83124D63AA16AB171265
:105110000C30850A82850B837402F0EA850882854B
:105120000983F0851282851383EB80CBEE4F6003F9
:10513000024F6D1252A7F8A3E0F9850A82850B830E
:105140007402F0E8850882850983F0E9851282857A
:10515000138380A3850C82850D83124A0812046292
:10516000EAFC8C82A882C39EE49F404BE86E7001EB
:10517000EF70047C00801F851882851983E0FAEEA9
:105180002AFAEF3400FBC3EA98EB94005003E08066
:1051900004EECCC39CFCEC850A82850B83F08C0A60
:1051A000750B00780A1219E6850C82850D83E02EB6
:1051B000FCA3E03F024F54751007024F66EE4F60AC
:1051C00003024F6D850C82850D83125599850A82E5
:1051D000850B837407F08882898312528612526E7F
:1051E000E0851282851383F0E82402FAE93400FB9B
:1051F0008A828B831252861252BF12528EA312528F
:10520000C8125297F0E82405F8E93400F988828939
:1052100083125297A31252E0A30250F4741D121786
:10522000C712537F7003024F63125599880C890D82
:10523000E8450D7003024F638E108F11781012191C
:10524000E6780A1219E678081219E674061217C7EA
:10525000E0F9AC0EAD0FAA16AB17850C82850D8355
:105260001217D17406121792E9F510024F66F088F2
:10527000828983A322F50CEF3400F50D22E0F50EB0
:10528000750F00780E22E08508828509832212526C
:10529000E72212559DE8221252E7A3A322A3A3A35B
:1052A000A3E0FEA3E0FF22850C82850D83E0F8A336
:1052B000E0F5838882E022E0F508A3E0F50922A367
:1052C000A3F08A828B83A322123FDFA3A322F08A5A
:1052D000828B831252D722E0F50A750B00780A22DE
:1052E00012526E1252E722E0850882850983A3A339
:1052F0002274EE1217D374FE12177C8A0A8B0BEC01
:10530000FAEDFB74141217C7E0F510A3E0F5117461
:10531000161217C7E0FE74181217C7E0F50EA3E0C7
:10532000F50F851882851983AC82AD8312537460A2
:105330003E85188285198312537F602FA3A31252D2
:10534000B7E50845096024780E1219E6781012199D
:10535000E6EEF9AC0CAD0DAA0AAB0B850882850907
:10536000831217D174041217928006790E80027985
:10537000010247B4120AFE8A0C8B0DEA450D221277
:105380004A0C12538622120BC48A828B83E5824513
:10539000832274F61217D374FE12177C740C121742
:1053A000C7125292851882851983F074011217C7AB
:1053B000E9F0E4F508F50978081219E675080278AD
:1053C000081219E674041217C785820885830978C4
:1053D000081219E6120C18740612179274021217AA
:1053E00092806474F71217D3EAFEEBFF89087C8D74
:1053F0007D06120C30EA5402600BA908EEFAEFFBAE
:10540000120AF280027901024DD074F61217D37499
:10541000FF6A700374FF6B701C7B00EB75F003A4D4
:10542000F8A9F0EC28F8ED39F912544C0BEBC394C1
:1054300002501480E6120C008A088B09A808A909FA
:10544000E849600312544C7F020218A588828983C0
:1054500074FF123FDDE4F02274F61217D3120C0031
:105460008A828B83E58245836006A3A3E0FA8002EB
:105470007A007B0080D174F21217D38A088B09EC72
:10548000FEEDFF740E1217C7E0F50A1254BC701C33
:10549000EEFCEFFD7AFF7BFF1254BC7004791180A3
:1054A0001688828983E508F0A3E509F0888289835C
:1054B000A3A3E50AF079007F060218A5120C008A62
:1054C0000C8B0DA80CA90DE8492274EE1217D3EA33
:1054D000FEEBFF8C088D09890C74121217C7125548
:1054E0009974141217C7124D6374161217C7124A13
:1054F00008750D00EC4D600302558D7402650C605B
:105500000302558888828983124D68F9EC2400F5DE
:105510000EE439F50FEAF4F8EBF4F9EC58F8E50F7E
:1055200059F9E849705DE5082406F8E5093400F901
:10553000880A890B8882F58312469D120C308A10E6
:105540008B11E50E65107004E50F65116042780E51
:105550001219E6850A82850B8312469D120C367459
:1055600002121792E9F50D7027780E1219E68508D8
:1055700082850983A3A312469B120C48740212175A
:1055800092800D750D808008750D0D8003750D0BD3
:10559000A90D024C6E8E828F8312559D22E0F8A3D6
:1055A000E0F9221217927F100218A53400F50D853C
:1055B0000C82F58322E028FEA3E039FF8E828F83E0
:1055C000227916850A82850B83124A0C120C1274FA
:1055D000082274F21217D3EAFEEBFF890B740165FF
:1055E0000B600E7402650B70637901120E28E9706E
:1055F0005BEEFAEFFB12564F6047750A00800B7C9A
:10560000177D007900120480050A90065AE0F8E53B
:105610000AC3985021E50A75F017A4F8A9F0850887
:1056200082850983A3A3E028FAA3E039FB8A828B51
:10563000831240C970C985088285098374FFF0A36D
:10564000F07C8D7D06EEFAEFFB120C2A0254B712A5
:105650000BFA8A088B09EA45092274F21217D38AD9
:10566000088B09ECFEEDFF740E1217C7124E4F9017
:105670000CFAE0F4603D7A097B0012048CEA4B607E
:10568000328A828B8374B1F0A3E41252C1A3125206
:10569000BFA3E508F0A3E5091256B6EEF0A3EF129A
:1056A00056B6A3A3E50AF0A3E50BF0900CFAE0F9D7
:1056B0001204980254B7F08A828B83A3A3A3A3A3F6
:1056C0002274EA1217D3907803E06442705E900867
:1056D000D4E014F07056C2AF1256DB00782AD0E046
:1056E000F618D0E0F6E59F5407F970059081B88070
:1056F000039081B4780812164CE9C4C0E07829E61A
:105700005508F50808E65509F509740B78081217CD
:105710005AD0E02508F8906270E0A2E740F8E8C3AC
:1057200033906272F0906270E0D2E0F0900765E032
:10573000F47003025AE4E0F875F004A4C8AAF02A51
:10574000F9746728FE740739FFEE2402F582EF34FE
:1057500001F583E0F8A3E0F9E849601EEE2402F5C4
:1057600082EF3401F583E0FAA3E0FBEE2401F58239
:10577000EF3401F583E0F91204BC8E828F83A3A37A
:10578000A3A3A3A3A3E0F8A3E0F98E828F83A3A32E
:10579000A3A3A3E8F0A3E9F0906054E090073EF0E3
:1057A000906055E090073FF0906056E0900740F021
:1057B000906057E0900741F0906058E0900742F009
:1057C000906059E0900743F090605AE0900744F0F1
:1057D00090605BE0900745F090605CE0FC900746CD
:1057E000F090605DE0FB900747F090605EE0FD9018
:1057F0000748F090605FE0FA900749F0900744E0B6
:105800008C082508F8E43400F98D08E82508F8E943
:105810003400F98B08E82508F8E93400F98A08E82B
:105820002508FAE93400FBEE24F7F582EF3400F5A1
:1058300083E02AF0A3E03BF08C08EE24F9F582EF38
:105840003400F583E02508F0A3E03400F0EE24FBFB
:10585000F582EF3400F583E02401F0A3E03400F09A
:10586000EE24FFF582EF3400F583E0F8A3E0F9E8D9
:10587000496042906000E0C333FCE433FDE82CF55E
:1058800082E93DF583E02AF0A3E03BF0906000E080
:10589000FA900746E0FCEAC333FAE433FBE82AF85F
:1058A000E93BF9E8244AF582E93400F583E02CF07D
:1058B000A3E03400F0900744E07011900747E070D7
:1058C0000BA3E07007A3E070030259C48E828F839C
:1058D000A3A3A3A3A3E0F8A3E0F9EE240DF582EFC0
:1058E0003400F583E028F8A3E039F9EE240BF582C3
:1058F000EF3400F583E8F0A3E9F0EE240FF582EF32
:105900003400F583E4F0EE241CF582EF3400F583D7
:10591000E06401701EEE2420F582EF3400F583E090
:10592000F8A3E0F9EE241DF582EF3400F583E8F0EA
:10593000A3E9F090073FE06052EE241CF582EF34BB
:1059400000F5837401F0EE246AF582EF3400F583EC
:10595000E07038EE2474F582EF3400F583E0702BAC
:10596000EE2480F582EF3400F583E0701EEE2420F3
:10597000F582EF3400F583E0F8A3E0F9EE241DF59D
:1059800082EF3400F583E8F0A3E9F0906062E07004
:1059900003025A778E828F83E0F8A3E0F9E82406A9
:1059A000FCE93400FDE82402FAE93400FB1210E0BF
:1059B0008E828F83E02412F8A3E03400F988828974
:1059C00083025A81900746E0603AEE240FF582EF99
:1059D0003400F583E4F0EE241CF582EF3400F58307
:1059E000E064017040EE2420F582EF3400F583E09E
:1059F000F8A3E0F9EE241DF582EF3400F583E8F01A
:105A0000A3E98020EE24FDF582EF3400F583E02445
:105A100001F0A3E03400F0EE241DF582EF3400F530
:105A200083E4F0A3F0EE240BF582EF3400F583E07D
:105A3000F8A3E0F98E828F83A3A3A3A3A3E06870E9
:105A400003A3E0696003025933EE240FF582EF34BB
:105A500000F583E060128E828F83A3A3A3A3A3E04B
:105A600064057002A3E0600B7908EEFAEFFB120FF9
:105A7000B48071793E80F3EE241DF582EF3400F599
:105A800083E4F0A3F0906060E0C0E0EE2469F5826A
:105A9000EF3400F583D0E0F0900744E0F8EE24679F
:105AA000F582EF3400F583E028025BE49008D2E051
:105AB00064017035121194EE2467F582EF3400F51D
:105AC00083E070069060607480F0EEFAEFFB1210D5
:105AD0009EE96401600E120FD2121098E964016011
:105AE000031210447F0E0218A5EE2483F582EF34D2
:105AF00000F583E06004780480027800E50CC39828
:105B0000F9120CE48A0A8B0BEA450B60A7EE24839A
:105B1000F582EF3400F583E070048A088B09E50C08
:105B20006012850882850983F512E5D9F0A3151264
:105B3000E51270F6EE2483F582EF3400F583E06021
