:020000040000FA
:0600000002011D022213A3
:03002B00021E367C
:0300530002228600
:03006B00021E1062
:100083000220C7E5C754F84401F5C77901220000EF
:100093000080FB120086B90003020107E47921788E
:1000A30008B800028004F709D8FCE479297802B87B
:1000B30000028004F709D8FCE4900281785C790996
:1000C3008002F0A3D8FCD9FA781A90014D7A01BACC
:1000D30000028007E493A3F608DAF9900ADCAA8207
:1000E300AB8390014E786F79038015E493A3AC82C0
:1000F300AD838A828B83F0A3AA82AB838C828D83A8
:10010300D8E9D9E77582487583B1740312012F7555
:100113008291758300740012012F75D00075813FA1
:10012300751881751902759F00020096C09FF59F8F
:10013300E473D09F22D083D082C09FE493C0E07445
:100143000193C0E0740293F59F220101FFFF434D29
:10015300204852204D6F6E69746F720000000000DA
:1001630000000002010603020D180708434D5F4813
:10017300524DFE030000040410041604FFFFBB00ED
:100183001264023F820100002A82023B82010000C6
:10019300110B025D82010000120B02398203000081
:1001A3005204020202023F820100002D82023B82BE
:1001B300010000330B0257820100005A04023B8204
:1001C300010000340B0255820100001181023B82C1
:1001D300010000350B0253820100002C8110020242
:1001E3007D00020A023F820100003082023B82014D
:1001F30000006E0B10D180000000640402398203FA
:1002030000006504023B820100006F0B10E18001D6
:1002130000006B04023B82010000700B10F18001AF
:100223000000710B023B82010000730B10818001FF
:1002330000006D04023B82010000740B10C18003B7
:1002430000006E04100208023F82010000368202A1
:100253003B82010000D50B024B82000000710402B7
:1002630039820300007204023B82010000D60B02B4
:1002730049820100007804023B82010000D70B028F
:100283006182020000790401E803053F10FF0001C9
:1002930030750302010600000000000000000000AA
:1002A300000000000000000000000000000000004B
:1002B3000000FFFF0600800CE803FF0000B400000D
:1002C30028002800283075A000A000A000A000008E
:1002D300080008E001F000100010001000100010EA
:1002E30000100050005000500010001000D0070014
:1002F30000000000000F000100050030750700102A
:1003030000010081FF0000FF4C0A6A0A520AFF0243
:10031300020208025000A0000000E803023F82012D
:1003230000002782023B82010000A00C02458201EB
:1003330000003306023B82010000A10C0247820148
:1003430000004906023B82010000A20C0263820105
:1003530000004B06023B82010000A30C024F8208FF
:1003630000004C06023B82010000A40C02518201F2
:100373000000A50CFF0100FF20023F8201000024C2
:1003830082023B82010000090D025B820000000033
:100393000002398203000099062210221022102243
:1003A30010221022102210221022102210221022BA
:1003B300102210B012C812AA12120138BA8B0312FB
:1003C3000138D18B03120138F88B031201382C8CBE
:1003D30003120138508C03120138628C0312013866
:1003E300198D031201385E8E0312013803DB0212EA
:1003F3000138F9DC021201389EDD0212013887DE72
:100403000212013832DF0212013872DF02120138A0
:100413008BDF02120138D7DF02120138DAAE031282
:1004230001383AAF03120138A79E03120138DB9E4D
:1004330003120138F29E03120138FA9E03120138A7
:100443000D9F03120138289F031201386D9F031279
:1004530001387B9F03120138CA9F03120138D79FCB
:10046300031201387CD50212013886D502120138F5
:10047300C7D50212013810D6021201384AD6021229
:100483000138A0D602120138C1D602120138CAD6E9
:10049300021201381ED70212013847D7021201385F
:1004A30051D702120138BFD7021201384FD80212B6
:1004B3000138AAD802120138D8D80212013860D9FB
:1004C300021201389FD902120138D4D9021201381D
:1004D300E6D90212013805DA021201380EDA0212E5
:1004E3000138D5DA02120138E9B00312013828AA1B
:1004F300031201389BA003120138D1A00312013863
:1005030005A10312013852A20312013844AE0312AB
:1005130001385AAE0312013864AE03120138AEAE8D
:1005230003120138B0EE02120138C3EE0212013891
:1005330084EF02120138C3EF02120138E0EF021216
:10054300013819F00212013866F00212013898F0EE
:1005530002120138CFF002120138D8F20212013828
:100563001FAB0312013842AB0312013871AB031204
:100573000138B3AB03120138BDB60212013878BC9F
:100583000212013848BD02120138B1BD021201380E
:10059300D7BE0212013899F70212013814F8021279
:1005A30001385EF80212013883F90212013898FA11
:1005B300021201381AFB0212013870950312013836
:1005C300B59503120138CA95031201382496031214
:1005D3000138AE96031201385997031201389097E8
:1005E3000312013890A703120138B5A7031201388B
:1005F300E5A7031201383B8F03120138808F0312E2
:100603000138938F03120138DF8F031201382790CB
:10061300031201386490031201383E91031201382A
:100623003D92031201382F9A03120138749A031270
:100633000138879A03120138A39A03120138E19A09
:1006430003120138509B031201383A9C03120138FC
:10065300A0B10312013866820112013844840112E9
:100663000138E385011201388E86011201380E87A5
:1006730001120138938701120138BC870112013836
:10068300978B011201380E8C01120138258D01124E
:1006930001385F8D01120138A08D01120138E78EF8
:1006A300011201383D8F01120138868F0112013882
:1006B300F58F0112013861900112013892900112F5
:1006C3000138AA9001120138C39101120138D39164
:1006D30001120138899301120138A09301120138E4
:1006E300D293011201387495011201380896011250
:1006F3000138D3AC03120138DFAC031201387CADEF
:1007030003120138F6B10312013835B2031201386E
:1007130082B2031201388EAD031201389EAD03126B
:100723000138ADAD031201383EAE03120138EF7E3E
:1007330000120138747F00120138D87F001201388B
:10074300F47F001201386CB2031201387CB2031239
:1007530001387FB203120138F87F00120138739C0D
:1007630003120138FD9D031201385E9E0312013806
:10077300A49E0312013875B003120138A2B003120C
:100783000138B8B003120138F8A5031201384AA69C
:1007930003120138BDA6031201382AA70312013838
:1007A300E89703120138129803120138E1980312F3
:1007B3000138BD99031201381DBF02120138E9BF88
:1007C300021201382AC00212013864C00212013831
:1007D300C2C00212013816C10212013874C10212DA
:1007E30001380AC20212013812C3021201389CC432
:1007F300021201383AC502120138A1C502120138AA
:10080300B4C502120138A8C602120138F1C6021299
:100813000138ADF001120138DFF30112013870F530
:1008230001120138C7F501120138E4F5011201384C
:1008330064F601120138E0F701120138AFF8011232
:1008430001381CFC0112013806FD0112013845A4D0
:10085300031201385CA4031201388BA4031201387C
:10086300C4A403120138ECA4031201381AA503121D
:10087300013831A50312013848A5031201385EA5DA
:100883000312013885A50312013898A50312013814
:10089300AEA503120138C1A503120138E6A5031260
:1008A300013811A40212013810A50212013845A51E
:1008B3000212013866A50212013876A50212013828
:1008C30097A502120138A3A60212013870A70212DB
:1008D3000138E3A70212013869A802120138ACA853
:1008E30002120138E3A80212013869A90212013881
:1008F3003BAA0212013899AA02120138B1AA0212C4
:1009030001382BAB021201382EAB0212013831AB86
:1009130002120138D8AB02120138F0AB02120138CF
:1009230020AC0212013840AC021201382EAD021283
:100933000138E4AD0212013808EA0212013830EA44
:10094300021201385EEA0212013895EA02120138F6
:10095300FDEA0212013846EB0212013891EB021252
:100963000138CFEB021201380CEC021201383AECD9
:1009730002120138E1EC02120138EBEC02120138E9
:10098300F8EC021201382BED02120138EDED0212E0
:100993000138F9ED0212013811EE021201381BEE93
:1009A30002120138FCAB031201380AAC03120138FE
:1009B30022AC031201383AAC03120138F7A9011231
:1009C300013895AA011201380DAB0112013822AC8E
:1009D300011201385CAC0112013805AD0112013876
:1009E300DAAD011201383EAF0112013895AF0112A1
:1009F30001381CB00112013803B10112013850B1A2
:100A030001120138DEB10112013802B201120138BC
:100A1300D7B30112013818B4011201383AB40112E4
:100A23000138BBB401120138A5B5011201386BB608
:100A33000112013870CE0212013842CF021201387E
:100A4300EBCF021201382ED002120138BBD00212B2
:100A5300013847D10212013828D20212013857D285
:100A63000212013853D3021201389BD30212013808
:100A73009DD402120138E1D40212013807D50212C3
:100A830001386FAF031201384C84031201386284BA
:100A930003120138888403120138B0850312013828
:100AA300BA8503120138138703120138138803121E
:100AB300013838E0021201386DE102120138A0E179
:100AC30002120138EAE102120138A8E302120138E6
:100AD300926F00120138F56F001201383A7100125B
:100AE30001384A71001201386D7100120138B87172
:100AF300001201385D72001201385373001201387D
:100B03001D7400120138957500120138D775001253
:100B13000138757600120138C27600120138E87682
:100B230000120138D67800120138DB780012013840
:100B3300BC7A00120138107B00120138727B00125C
:100B430001389A7B001201383E7C00120138007D87
:100B530000120138317D00120138347D0012013852
:100B63007C7D00120138BE7D00120138257E001203
:100B730001389CFD01120138AFFD01120138C8FD97
:100B83000112013813FE01120138EEFE0112013881
:100B93007DFF01120138C8FF011201381829001224
:100BA30001382429001201385D2900120138A229D5
:100BB30000120138592A00120138DF2A00120138C5
:100BC3000B2B00120138442B00120138582D001250
:100BD3000138342F001201381F3100120138563208
:100BE30000120138B63400120138A2350012013860
:100BF300E83600120138F5370012013812380012B6
:100C030001384A3800120138643800120138CC38F0
:100C130000120138663D00120138073E0012013808
:100C2300583E001201387F3E00120138CD3E0012BB
:100C33000138EB3E001201383F3F001201384740B4
:100C430000120138CF40001201385EE5021201386C
:100C530068E50212013833E6021201384EE6021249
:100C6300013874E602120138B8E602120138F0E6E0
:100C73000212013819E70212013892E70212013811
:100C8300A7E702120138BCE702120138F3E70212A8
:100C9300013807E80212013838E80212013872E815
:100CA300021201389EE802120138F4E802120138F8
:100CB30048E90212013891E902120138BBE9021234
:100CC3000138E0E902120138EBFB02120138B5FCEE
:100CD3000212013898FD021201380EFE0212013889
:100CE30050FE021201387DFF021201380080021209
:100CF30001382980021201384280021201388781AB
:100D0300021201386582021201388482021201380C
:100D1300118302120138548302120138A184021292
:100D23000138408502120138BF8702120138568804
:100D3300021201382A89021201380C8A0212013880
:100D4300788B021201380B8C0212013813A903129B
:100D530001387CA903120138D0A903120138F7A97D
:100D63000312013844F302120138B1F302120138BD
:100D7300FCF302120138F1F402120138EDF502120C
:100D83000138D7F6021201384FAE0212013891AE84
:100D9300021201386BAF0212013844B0021201385B
:100DA3003FB1021201381EB2021201388AB2021296
:100DB300013851B302120138BCB30212013823B413
:100DC300021201384EB402120138BFB402120138C4
:100DD30052B502120138BBB502120138D0B5021266
:100DE300013818B60212013831B60212013896B62C
:100DF3000212013899B602120138769203120138B1
:100E03009E9203120138DC92031201389A93031263
:100E130001380594031201382194031201384994CF
:100E230003120138799403120138889403120138AC
:100E33000295031201382895031201381EC70112C7
:100E43000138FBC801120138F6CA01120138C9CBB7
:100E53000112013814CC011201385FCC01120138A0
:100E630071CC01120138B1CC01120138E6CC011268
:100E7300013832CD0112013861CD0112013884CD20
:100E830001120138D1CD011201385ACE01120138B5
:100E930067D00112013852D20112013895D20112E2
:100EA3000138FAD3011201383BD401120138AED410
:100EB30001120138FAD40112013825D50112013883
:100EC300828C02120138AD8C021201389493021203
:100ED3000138B89502120138739702120138D0987D
:100EE30002120138364100120138CD410012013897
:100EF300FA41001201384042001201387F430012C8
:100F03000138164500120138904500120138AB45EF
:100F1300001201382046001201384F4700120138F1
:100F2300AA4800120138AC4900120138094B0012DB
:100F33000138224B001201387F4B00120138614CFB
:100F430000120138944C00120138044D001201388C
:100F53007E4D00120138CD4D00120138994E00121A
:100F630001389E4F001201387D500012013808519C
:100F730000120138765100120138EA51001201388B
:100F8300135200120138D252001201384C5400128D
:100F93000138695400120138885400120138195578
:100FA300001201383E55001201386655001201380F
:100FB300E155001201383B56001201388F570012D9
:100FC30001384C58001201381F59001201384FD50F
:100FD300011201389FD501120138ABD50112013836
:100FE30088D601120138B8D601120138F0D60112A1
:100FF30001386FD701120138A7D701120138F9D789
:101003000112013836D8011201385BDA01120138B6
:1010130087DC0112013882DE011201385DE0011222
:101023000138F17F0012013846960112013890967B
:10103300011201386F9C01120138F09D0112013831
:101043004FA4011201384AA50112013887A50112E4
:101053000138AAA501120138ECA501120138F5A542
:1010630001120138FFA501120138EBA60112013864
:10107300DFA7011201384D5900120138C563001270
:101083000138CB6300120138D76A001201381D887A
:1010930003120138B38803120138C98803120138D7
:1010A300438903120138998903120138D78903123E
:1010B3000138348A03120138B18A03120138BA8A1B
:1010C30003120138C68A03120138D98A0312013880
:1010D300158B031201382B8B031201388A8B0312F1
:1010E30001380080031201380D8003120138278074
:1010F30003120138668003120138A48003120138F9
:101103000981031201381E81031201382981031258
:1011130001383681031201384D81031201385B8196
:1011230003120138668103120138728103120138F8
:101133008181031201388C8103120138AF810312BC
:1011430001385882031201386882031201388282FF
:10115300031201389F8203120138BB820312013844
:10116300E08203120138EA8203120138FE8203127D
:1011730001381D83031201387E83031201388483EF
:10118300031201388A830312013890830312013852
:101193009C8303120138CF830312013823E3011226
:1011A3000138A5E3011201384EE40112013896E536
:1011B30001120138A4E7011201388AE8011201384B
:1011C300BFE801120138E1E8011201388AE901128E
:1011D30001385AEB0112013883EB01120138FBEBA2
:1011E300011201382DEC011201383AEC01120138D9
:1011F30085EC01120138A9EC01120138FAEE011253
:10120300013804F00112013860F001120138A0B86E
:1012130001120138B1B90112013895BA011201382E
:101223009FBA01120138C1BA01120138CDBA0112B5
:10123300013871BC011201389EBC01120138B4BDE2
:101243000112013809BE0112013858BF01120138D9
:101253002DC00112013889C001120138F4C00112F6
:10126300013829C1011201386CC10112013836C499
:10127300011201384EC401120138DFC401120138D2
:10128300EDC4011201383AC50112013848C50112F3
:101293000138B4C5011201382FC60112013886C6C0
:1012A30001120138F398021201381599021201381C
:1012B300269B02120138E59D021201380F9F02128C
:1012C3000138CD9F02120138B9A0021201388CA255
:1012D30003120138B1A20312013827A30312013804
:1012E30053C7021201385CC70212013865C70212E4
:1012F30001383DC802120138EEC9021201381ECA74
:101303000212013849CA0212013879CA021201389D
:10131300A4CA02120138D8CA0212013804CB02123D
:10132300013847CB0212013872CB02120138B9CB14
:10133300021201380ECC0212013850CC02120138CD
:10134300AACC02120138D5CC0212013824CD0212E4
:10135300013854CD021201387FCD02120138ADCDD0
:1013630002120138D0CD02120138F8AF031201384E
:1013730024B00312013851B0031201385BB00312D9
:1013830001386BB0031201383FB203120138D7FFA3
:1013930002E066701008A3E066700A08A3E06670B6
:1013A3000408A3E06622C008C3E096F50808A3E09A
:1013B30096420808A3E096420808A3E0964208A2D2
:1013C300D265D033E5087001D3D00822C3E796086D
:1013D30009E7960809E7960809E79622C3E0960805
:1013E300A3E09608A3E09608A3E09622C008C3E012
:1013F30096F50808A3E096420808A3E09642080879
:10140300A3E09645087001D3D00822080808E63007
:10141300E711121849121426080808C64480C61892
:10142300181822181818E9799EC608CAC608CBC628
:1014330008CCC6C370207996CACBCC7019798ECBF1
:10144300CC70137986CC700EF9802ACA33CACB3399
:10145300CBCC33CC331930E7F2CCCBCA3350147036
:1014630004EA30E00DE4CA3ACACB3BCBCC3CCC50C7
:101473000209C3E913C6CC182313C6CB18C6CA186E
:10148300C6F9221214C620F01430E72B74FFFCFBBC
:10149300FA747F8022E4FCFBFA7480801AB480081B
:1014A300BC00F2BB00EF800F50EBF9E4C39AFAE4FF
:1014B3009BFBE49CFCE499C6CC18C6CB18C6CA189F
:1014C300C6F922E4C9C608CAC608CBC6D333030883
:1014D300CCC63392F0C3947F402E94184019C9B9F7
:1014E3000704CACBCC225025C309CA33CACB33CB9A
:1014F300CC33CC33D9F422F4600DC9CCC313CB1352
:10150300CBCA13CAD9F6CC22E4FCFBFA2214FCFBA7
:10151300FA22E6C33318461846184622E7C333199E
:10152300471947194722181818E6084608700AE6AB
:1015330008C3337005E633F4220822191919E709A1
:101543004709700AE709C3337005E733F422092218
:10155300E6084608C3134608336002E633F422E77D
:10156300094709C3134709336002E733F422001222
:101573001553604F1215626012E7548066F6121518
:1015830029701112151F703B090909F4F618F61892
:10159300F618F62212153E70151215150808086084
:1015A300EAE6447FF618768018E4F618F622121558
:1015B30015601612151F7012E4F608F608F608E611
:1015C3005480F609090918181822EAC0E0EBC0E0B4
:1015D300ECC0E0EDC0E0E687F0A4FBACF008E687E2
:1015E300F0A42CFCE435F0FA1809E687F0A42C4BA0
:1015F30060027401CA35F0FCE433FB09E687F0D2DC
:10160300F7A42CCB35F0FC1908E687F0A42BCC35D6
:10161300F0FBE433FD0819E687F0D2E7A42C4ACBAC
:1016230035F0CD3400FC09E687F0D2E7A42DCC35A4
:10163300F0FDE433FA0918E687F0D2F7A42CCD3590
:10164300F0CA3400FC08E687F0D2E7D2F7A42ACC2C
:1016530035F07A7E20E70B0ACB33CBCD33CDCC33B9
:10166300CC33CB3350147004ED30E00ED2F1E4CD23
:101673003DCDCC3CCC3B5005DA05C2F1EB547FC6E3
:101683003308E63392F0FBE73309E733C39A502D6F
:101693002B70190C0D4C4D70151806E608C33370EA
:1016A3000D20F10AA2F013F6E418800B4024E4F6AF
:1016B30030F002768018F618F618F68024D33B141F
:1016C300501074FFA2F013F6187680E418F618F69B
:1016D300800FA2F013F618E63303F618ECF618EDB4
:1016E300F6D0E0FDD0E0FCD0E0FBD0E0FA22080821
:1016F30008EAC0E0EBC0E086F0E7A4FA180986F038
:10170300E7A42AFA180986F0E7A42AFA180986F04A
:10171300E7A42AFA1986F0E7A4FBE5F02AFA1908E8
:1017230086F0E7A42BFBE5F03AFA190886F0E7A464
:101733002BFBE5F03AFA18180986F0E7A4C5F02B5D
:10174300FBE43AFA1908E7C5F0C6A426F6E5F03B30
:10175300FBE43AFA1886F0E7A4F6E5F00826F6E487
:101763003B08F6E43A08F6D0E0FBD0E0FA22E4CFF7
:10177300C0E0E4CEC0E0E4CDC0E0E4CCC0E075F06E
:1017830020C3E633F608E633F608E633F608E63315
:10179300F6181818EC33FCED33FDEE33FEEF33FF90
:1017A300C3EC9709ED9709EE9709EF9719191940BB
:1017B3000FFFEC97FC09ED97FD09EE97FE1919064B
:1017C300D5F0BEECF709EDF709EEF709EFF71919B4
:1017D30019D0E0FCD0E0FDD0E0FED0E0FF221218EB
:1017E3004C181818121771121838191919221218CF
:1017F30038191919080808E618181820E7E012170D
:101803007112184C18181822090909E71919192017
:10181300E7DC080808E618181820E7030217711216
:10182300184C18181812177112184C181818121887
:101833003819191922E4C397F709E497F709E497CC
:10184300F709E497F722181818E4C396F608E49604
:10185300F608E496F608E496F6226016080808C629
:10186300C313C618C613C618C613C618C613C6D5DF
:10187300E0EA227009080808226016181818C6C37F
:1018830033C608C633C608C633C608C633C6D5E052
:10189300EA22E627F60809E637F60809E637F608E6
:1018A30009E637F622E026F608A3E036F608A3E0B9
:1018B30036F608A3E036F622E026F008A3E036F079
:1018C30008A3E036F008A3E036F022C3E697F60853
:1018D30009E697F60809E697F60809E697F622C39C
:1018E300E0C696F608A3E0C696F608A3E0C696F609
:1018F30008A3E0C696F622C3E096F008A3E096F0AC
:1019030008A3E096F008A3E096F022E056F608A3B9
:10191300E056F608A3E056F608A3E056F622E05692
:10192300F008A3E056F008A3E056F008A3E056F051
:1019330022E0F608A3E0F608A3E0F608A3E0F62207
:10194300E6F008A3E6F008A3E6F008A3E6F022E039
:10195300FAA3E0FBA3E0FCA3E0FD22EAF0A3EBF093
:10196300A3ECF0A3EDF022CAC0E0E6F0A308DAFA94
:10197300D0E0FA22CAC0E0E0A3C582CCC582C58309
:10198300CDC583F0A3C582CCC582C583CDC583DA1B
:10199300E6D0E0CA22C3E498F8E499F91219D98091
:1019A30026C3E49AFAE49BFBE920E7E91219D9E498
:1019B30098F8E499F922C3E498F8E499F91219D94B
:1019C300E498F8E499F9C3E49AFAE49BFB22EB2048
:1019D300E7CFE920E7E0B90010BB0008E88AF0840C
:1019E300F8AAF022E4FBC8FA22EB70227B10C8337A
:1019F300C8C933C9335007C39AC3DBF280069A5070
:101A0300012ADBEAC833F4C8C933F4C9FA2275F0F2
:101A130008E4C833C8C933C933C99AC99B5004C938
:101A23002AC93BD5F0ECFBC833F4C8E4C9FA2260F9
:101A33000D08C6A2E713C618C613C6D5E0F3226085
:101A43000C08C6C313C618C613C6D5E0F422700427
:101A530022600D18C6C333C608C633C6D5E0F418D2
:101A630022251810AF08F518400215198008F5183B
:101A730040021519D2AF22C0D0251810AF08F518AF
:101A8300500205198008F51850020519D2AFD0D0BD
:101A9300222518F58210AF08F518400215198008A1
:101AA300F51840021519D2AF851983222518F5823E
:101AB300E43519F58322E4732518C582C0E0E519DE
:101AC30034FFC583C0E0E518C3958224F810AF083E
:101AD3008583198582188008858319858218D2AF7A
:101AE300CEF0A3E520F0A37808E608F0A3DEFAEF32
:101AF300F0A3E58124FAF8E608F0A3E608F0A3E6EC
:101B030008F0A30808E608F0A3E608F0A31581157A
:101B130081D0E0FED0E0F8158115811581E8C0E0A1
:101B2300EEC0E0222518C582C0E0E51934FFC58365
:101B3300C0E0E518C3958224F910AF0885831985A1
:101B430082188008858319858218D2AFCEF0A3E569
:101B530020F0A37808E608F0A3DEFAEFF0A3E5810E
:101B630024FBF8E608F0A3E608F0A30808E608F06B
:101B7300A3E608F0A315811581D0E0FED0E0F815A7
:101B8300811581E8C0E0EEC0E022851983851882C3
:101B9300E0A3FEE0A3F5207808E0A3F608DFFAE06F
:101BA300A3FFE0A3C0E0E0A3C0E0E0A3C0E0E0A3A4
:101BB300C0E0E0A3C0E010AF0885821885831980D8
:101BC30008858218858319D2AFD083D0820201356C
:101BD300851983851882E0A3FEE0A3F5207808E049
:101BE300A3F608DFFAE0A3FFE0A3C0E0E0A3C0E0B0
:101BF300E0A3C0E0E0A3C0E010AF088582188583AE
:101C0300198008858218858319D2AFD083D08222A8
:101C1300C0D02518C582C0E0E51934FFC583C0E0F4
:101C2300E518C3958224F310AF08858319858218BC
:101C33008008858319858218D2AFC8F0A3E9F0A381
:101C4300EAF0A3EBF0A37908E709F0A3D8FAECF0E4
:101C5300A3EDF0A3EEF0A3EFF0A3D0E0F0A3D0E068
:101C6300F0A3D0E0F0A3E520F0A3E5F0F0A32285F4
:101C73001983851882E0C0E0A3E0F9A3E0FAA3E0AA
:101C8300FBA37808E0F608A3DFFAE0FCA3E0FDA3DA
:101C9300E0FEA3E0FFA3E0C0E0A3E0C0E0A3E0F523
:101CA300D0A3E0F520A3E0A3F5F010AF08858319D6
:101CB3008582188008858319858218D2AFD082D097
:101CC30083D0E0F8D0E0327404800674028002749A
:101CD30001C0E0F404121A94D0E012196A227404C9
:101CE300800474028000CCC0E0EDC0E0E518C39C22
:101CF300CCAD1950011D10AF068C188D1980068CC0
:101D0300188D19D2AF121977D0E0FDD0E0FC22D0A4
:101D130083D082E9C0E0E493A3C386F0C5F095F0D5
:101D2300F908E493A386F0C5F095F0700BE493A350
:101D3300C3994005E9048002A3E475F002A4258257
:101D4300F582E5F03583F583D0E0F9E493A3C0E0B1
:101D5300E493C0E022D083D082ECC0E0EDC0E0E4A5
:101D630093A3FCE493A3FDED4C600D121DA4EC249E
:101D7300FFFCED34FFFD80EFE493A3FCE493A3FDAC
:101D8300ED4C600D121DE3EC24FFFCED34FFFD80F0
:101D9300EFD0E0FDD0E0FCE493A3C0E0E493C0E027
:101DA30022C0E0C3E49396087401939618400FE4AD
:101DB3009366700808740193661870007019A3A3E2
:101DC300C3E49396087401939618A3A3400DD0E03F
:101DD300D0E0D0E0021D94A3A3A3A3A3A3D0E02249
:101DE300C0E0C0F088F0E49366700808740193665D
:101DF300187000A8F0A3A3700BD0F0D0E0D0E0D00F
:0B1E0300E0021D94A3A3D0F0D0E02269
:101E1000C0E074F2121C13A2AFE433FEC2AFE58936
:101E2000A2E150085389FDC2C512045EEEA2E09201
:101E3000AF7F01021C72C0E0C0D0E8C0E0E5A8D2CC
:101E4000AFC2C7751A00A2E792AFD0E0F8D0D0D0E9
:101E5000E03274F5121B27EAFEEBFFEE2434F8EFB4
:101E60003400F988088909EE2435F582EF3400F54D
:101E700083E0F8EE2437F582EF3400F583E0F50ACD
:101E8000EC850AF0A4FCAAF0850AF0EDA42AFDE88E
:101E90002CF8E43DF97A257B001219D9EA850882ED
:101EA000850983F05407F87401B800028004C33335
:101EB000D8FCC0E0E0131313541FF8EE28F8EF34F9
:101EC00000F9E8245DF582E93400F583D0E0F8E01C
:101ED000586008EE2434F582EF801EEE2436F58239
:101EE000EF3400F583E0F5F0EA84A8F0EE28F8EF8F
:101EF0003400F9E82438F582E93400F583E0F97F0D
:101F000004021BD374F5121B27EAFEEBFFEE243408
:101F1000F582EF3400F583E0C0E0EE2435F582EF82
:101F20003400F583D0E0F08E828F83A3A3A3A3A314
:101F3000A3A3C082C0838E828F83A3A3A3A3A3E0A5
:101F4000F8A3E0F9D083D082E0C398F508A3E09924
:101F5000F509EE2480F582EF3400F583E06401702A
:101F600069EE2481F582EF3400F583E0F8A3E0F90F
:101F70008E828F83A3A3A3A3A3A3A3E0FCA3E0FD6E
:101F80008E828F83A3A3A3A3A3E0FAA3E0FBC3EAFB
:101F90009CEB9D5027C3EC98ED99402EC3EA98EB3B
:101FA0009950277C7E7D08EEFAEFFB120F80EE241D
:101FB00080F582EF3400F583E4F0800EC3EA98EBFD
:101FC0009940E0C3EC98ED9950D9EE2434F8EF3401
:101FD00000F9E8FCE9FDEE2435F582EF3400F583E5
:101FE000E0F8EE2437F582EF3400F583E0F50AE5FA
:101FF00008850AF0A4F508AAF0850AF0E509A42AE4
:10200000F509E82508F8E43509F97A257B00121965
:10201000D9EA8C828D83F05407F87401B8000280ED
:1020200004C333D8FCC0E0E0131313541FF8EE28A8
:10203000F8EF3400F9E8245DF582E93400F583D047
:10204000E0F8E0586008EE2434F582EF801EEE24BC
:1020500036F582EF3400F583E0F5F0EA84A8F0EE7F
:1020600028F8EF3400F9E82438F582E93400F583E4
:10207000E0F9122901021EFFC082C0838518828503
:102080001983E0F8A3E0F9C3EA9CEB9D5012C3EC7E
:1020900098ED994019C3EA98EB9950127901801094
:1020A000C3EA98EB9940F5C3EC98ED9950EE7900AE
:1020B000D083D08222EAC39CFAEB9DFB2200000071
:1020C0008521878522C622C0E0C0D0E8C0E0E9C0F3
:1020D000E0EAC0E0EBC0E0ECC0E0EDC0E0C008C06A
:1020E00009C00AC00BC082C083C0F0759B0090611C
:1020F00082E0A2E640030221A5E591A2E6400302A8
:1021000021A57591BF900743E0640570081210B8CF
:102110001210C480031210BE75210012111EE99026
:102120000744F07900121112120EF67A017B00902A
:102130000742E0F91204BE907803E06442600302B3
:1021400021EE9008E0E014F060030221EEC2AF122D
:10215000215200782AD0E0F618D0E0F6E59F540727
:10216000F970059081B480039081A4780812193425
:10217000E9C4C0E07829E65508F50808E65509F5F0
:1021800009740B7808121A42D0E02508F8906270A2
:10219000E0A2E740F8E8C333906272F0906270E02A
:1021A000D2E0F08049E0A2E55024E591A2E5501E7E
:1021B0007591DF900743E0640D7013900765E004AC
:1021C000F064287002E4F07A00E0F9121190906156
:1021D00081E0A2E35009E5E9A2E3500375E9F7A322
:1021E000E0A2E75009E591A2E7500375917FD0F096
:1021F000D083D082D00BD00AD009D008D0E0FDD057
:10220000E0FCD0E0FBD0E0FAD0E0F9D0E0F8D0D0AC
:10221000D0E032C0E0C0D0C082C083906183E0A231
:10222000E05009E5BFA2E0500375BFFEE0A2E15017
:1022300009E5BFA2E1500375BFFDE0A2E25009E548
:10224000BFA2E2500375BFFBE0A2E35009E5BFA2C5
:10225000E3500375BFF7E0A2E45009E5BFA2E450E4
:102260000375BFEFE0A2E55009E5BFA2E550037595
:10227000BFDFE0A2E65009E5BFA2E6500375BFBF8D
:10228000D083D0828088C0E0C0D0E8C0E0E9C0E060
:10229000EAC0E0EBC0E0ECC0E0EDC0E0C0F0E5A7D4
:1022A000A2E6500FE5A1A2E6500953A7BF75A1BF52
:1022B0001222EBE5A7A2E5500CE5A1A2E5500653DA
:1022C000A7DF75A1DFE5A7A2E15009E5A1A2E150D2
:1022D0000375A1FDE5A7A2E2500CE5A1A2E250061C
:1022E00053A7FB75A1FBD0F00221FC74F8121B2749
:1022F000752101900743E06406701512104C8A8224
:102300008B83A3A3A3A3A3A3E0FAA3E0FB1210A6CD
:10231000A2AFE433FED2AF900749E0640170187AAF
:10232000207B00900742E0F91205487A207B00905C
:102330000742E0F91204C4906182E0D2E6F090080E
:10234000DFE0602185C6228016900748E0640170B6
:1023500008E5C654F84405F5C653BEFC1220C07407
:1023600001652160E4EEA2E092AF7F01021BD30081
:102370008E238F248582288583278518828519835B
:10238000E0CEA3E0CF852882852783EBC9EAC8ED9C
:10239000CBECCA75F010C3E833C8E933C9EA33CAD5
:1023A000EB33CBC3EA9EF526EB9FF525B35004AB88
:1023B00025AA26EC33CCED33CDD5F0DAAE23AF240D
:1023C0002274EB121B2774FA121A648A088B098C88
:1023D000148D15900743E024F7C3940550069082AE
:1023E0000C02252312104C8A0A8B0BAE0AAF0BEE9F
:1023F0004F7003022520AC08AD098518828519832A
:10240000AA82AB831210D68E828F83A3A378081280
:1024100019349081D8780812190E8518828519838D
:10242000780C1219349081D8780C12190E7808792A
:102430000C1213CF501F7808790C1218CE908174AB
:1024400078081213EF4047850810850911850A1294
:10245000850B138041850C10850D11850E12850F9B
:1024600013781079081218CE90817478101213EF37
:10247000501C75100075110075120075130178104D
:10248000790C1218CE78107908121895800890826D
:102490000C7810121934740978101218769081781B
:1024A0007808121934781079081217718E828F8388
:1024B000A3A3A3A3A3A3E0F8A3E0F97AD07B03121C
:1024C00019D988088909E4F50AF50B7810790812FA
:1024D00018957404121AAFE0F8A3E0F97AD07B03E0
:1024E0001219D9E8FA8A08E4F50978107908121364
:1024F000CF5007781079081218CE900743E064088F
:10250000600AE064066005E06405701C90817C78D8
:10251000101213EF501290818078101218A88008C2
:1025200090822078101219348514828515837810D2
:102530001219437406121A7A7F0E021BD374F71213
:102540001B271210E89008DDE064017010906245CE
:10255000E4F0A3F053F4F343FE0C5390F312109401
:10256000E5C654804449F5C6E59E547F644970F839
:10257000906185740FF09008DBE0F47002A3E060D6
:102580004E9008DCE0600814601B14602E804075DB
:1025900008017509009008DBE07808121A51E50877
:1025A000F45280802A7508017509009008DBE078F4
:1025B00008121A51E508F452908014750801750943
:1025C000009008DBE07808121A51E508F452A0796F
:1025D000007F02021BD374F7121B27E9FEEAFF7487
:1025E000016E700C7A807B00900742E0F91204BE05
:1025F000902910E493F46008E493F9120EEA80093C
:1026000053C680E59E547F70FA12109A9008DDE060
:1026100064017003120F029008DBE0F47002A3E083
:10262000604B9008DCE0600814601A14602C803D58
:102630007508017509009008DBE07808121A51E569
:1026400008428080287508017509009008DBE07851
:1026500008121A51E50842908013750801750900A7
:102660009008DBE07808121A51E50842A01210E841
:1026700012104C8A088B09A808A909E8496015E5D9
:10268000E170FCE82414F582E93400F583E0F4609D
:1026900003E0F5E174016F700A7A01900742E0F9F6
:1026A0001205180225D174F1121B278A088B098C98
:1026B0000A8D0B740F121AAF780C1219349081D84E
:1026C000780812190E9081D8780C12190E780879B2
:1026D0000C1213CF50157808790C1218CE90817413
:1026E00078081213EF401579018013780C790812DD
:1026F00018CE908174780C1213EF40EB79007F08AC
:10270000021BD374ED121B278A088B098C0A8D0BD0
:102710007413121AAF780C1219349081D8780812F9
:10272000190E9081D8780C12190E780C79081213B2
:10273000CF40117808790C1218CEAA08AB09AC0A60
:10274000AD0B802275100075110075120075130114
:102750007810790C1218CE78107908121895AA10F2
:10276000AB11AC12AD137F0C021BD39081D878084B
:102770001219348A828B8378081219217F04021B74
:10278000D374F5121B278C828D8378081219348A32
:10279000828B8378081218FAEA2404F8EB3400F9E3
:1027A0008C828D83A3A3A3A3E0FCA3E0FD88828990
:1027B00083C3E09CF0A3E09DF088828983C3E0940A
:1027C00020A3E0944E402290821878081219348A8F
:1027D000828B8378081218BB8A828B83A3A3A3A35E
:1027E000E02420F0A3E0344EF0808074F5121B2723
:1027F000E9FE900895E0FAA3E0FBEEC333F8E4337A
:10280000F9740128F582748139F583E02AF508A36B
:10281000E03BF5097808121CCE9081B012195212D3
:1028200023707402121A7A8A088B098C0A8D0B7431
:1028300010780812185DAA08AB097F04021BD37434
:10284000F1121B278A0C8B0D8C0E8D0F740F121A30
:10285000AFE0FAA3E0FB7411121AAFE0F508A3E0B1
:10286000F5097413121AAFE0FEA3E0FF7808121CFA
:10287000CEEA2401F508EB3400F509E4F50AF50B7E
:10288000780C79081216F19081847808121934783E
:102890000C79081216F1AA0CAB0DAC0EAD0F122379
:1028A000707402121A7A8B09EA450960047A018071
:1028B000027A00EC2AFCED3400FDECF8EDF97A71B7
:1028C0007B021219D988088909E4F50AF50B8E8272
:1028D0008F837808121943ECF8EDF97A717B0212B4
:1028E00019D98A088B0974057808121A518E828FBB
:1028F00083A3A3A3A3E508F0A3E509F07F08021BC7
:0F290000D3C082C083E9906000F0D083D08222E0
:10291000FFFFFFFFFFFFFFFFC082C083E9900D08AC
:10292000F0022B3774F7121ABBE9900661F07C991C
:102930007D067AFF7BFF120C2690066274FFF0A3DF
:10294000F0A3E4F0A3F07905120BB4900661E0F96E
:10295000120ADC7A3E7B0C120E0002384574F41227
:102960001ABB8A088B09EB54806030900661E0F94D
:102970001204A68A0A8B0BAE0AAF0BEE4F60138EC1
:10298000828F83E064B07003120BC6EEFAEFFB1285
:102990000494AA08E5096480FB80047A007B0002A5
:1029A0002B0674F2121ABB74FC121A64EAFEEBFFD7
:1029B0007412121AAF123D2CEE4F7003022A4574A6
:1029C00002121AAFEEF0A3EF122D41ECF0A3ED12BC
:1029D0002D41AA82AB83120AD6E9F50A706AE5088E
:1029E000450960648E828F83123D12EE4F60567AE5
:1029F000067B001205008A0C8B0DA80CA90DE84976
:102A00007005750A13804188828983E4122A52EE88
:102A1000F0A3EF123D3DE508F0A3E509F09006674D
:102A2000122AD990066770051237EF801B1237DD26
:102A30008003EAFCEBFD8C828D83122AD970F38C23
:102A4000828D8380E3750A02A90A7404121A7A023D
:102A50003F2CF0A3123CE3A32274F2121ABB890AA2
:102A6000E975F017A4FEAFF0900666E4F0900664F6
:102A7000122AD9600A120506900664E4F0A3F0EE6B
:102A8000FAEFFB1205008A088B09EA4509602FEE70
:102A9000FCEFFD7900120482900664E508F0A3E5DE
:102AA00009F07B008008122AC3E4F0A3F00BEBC30B
:102AB000950A40F2E50A900666F0790080027913E3
:102AC000023F2CEB75F017A4F8A9F0900664E028FB
:102AD000FAA3E0398A82F58322123481EA4B227408
:102AE000F4121ABB7900EAA2E0501B75085275096E
:102AF000817808121CCE7C047D007A0A7B0D120BB3
:102B0000AE7402121A7A7F04021B8DC082C08390B9
:102B10000667122B3E601C88828983A3A3E06A703B
:102B200003A3E06B8882898370E8A3A3A3A3123474
:102B30007D80047A007B00D083D082020135124070
:102B400012E8492274EE121ABB74FC121A64EAFEEF
:102B5000EBFF851882851983E4F0A3F0EE240212BE
:102B600037CFEE2405123CEAEE2404F50EEF1230C6
:102B7000F6E024FE603924FC604624FE605224FE08
:102B8000605E24FE7003022C5724FE7003022CBBEF
:102B900024FE7003022CCA24FE7003022CD924FCEC
:102BA0007003022CE824FE7003022CF7022D3490EF
:102BB00006807417F0A3E4122D49120854022D3434
:102BC000851882851983AC82AD83120BCC022D044B
:102BD000851882851983AC82AD83120BD2022D0435
:102BE000850C08850D097402121AAFAC82AD83857D
:102BF000088285098312347D120AFA8A0C8B0DAC87
:102C00000CAD0DEC4D603BE4F50CF50D780C121C91
:102C1000CE750C80750D06780C121CCE750C817566
:102C20000D06780C121CCE7408121AAF121CE51295
:102C30004036121A7AE9F50C700B12347312086CD4
:102C4000800F750C01850882850983122D37123794
:102C5000EF850C08022D077402121AAFAC82AD8307
:102C6000850C82850D83123248603C850C82850D6F
:102C700083A3A3121CE57510807511067810121C31
:102C8000CE7510817511067810121CCE7408121AB8
:102C9000AF121CE5124036121A7AE9F509700B12D0
:102CA0003473120872800F750901850C82850D83BB
:102CB000122D371237EF850908804C851882851947
:102CC00083AC82AD83120BD8803A85188285198334
:102CD000AC82AD83120BDE802B851882851983AC04
:102CE00082AD83120BE4801C851882851983AC8227
:102CF000AD83120BEA800D851882851983AC82ADF5
:102D000083120BF0E9F508E50860298E828F83A312
:102D1000E06414601F850E82850F83E090068012A8
:102D20002D4112400E9006811237EFE508A3122DB7
:102D30004912084E0236DE12401285188285198328
:102D400022F085188285198322F07C807D06850A11
:102D500082850B831234812274EE121ABB74FC122A
:102D60001A648A0A8B0B8C0E8D0FEA2405F508EB8A
:102D70003400F5097C157D0079007A807B06120409
:102D800082E5082402F50CE509123CED85188285E0
:102D900019838582108583117810121CCE850882D4
:102DA000850983A3A3A3A312323F121CCEE50824F6
:102DB00005F510E5093400F5117810121CCE850CCC
:102DC00082850D83123594120AF47406121A7A8AD7
:102DD000108B11AE10AF11E50A2402F50AE50B12B3
:102DE00037D2EE4F7003022F1680177402121AAFFB
:102DF00012347D88828983EAF0A3EBF0900680E0AC
:102E000004F0900680E0C394054003022F16E4F519
:102E100010F5117810121CCE751069751106781016
:102E2000121CCE75106A7511067810121CCE74062D
:102E3000121AAF121CE57910EEFCEFFD12403812A9
:102E40001A7AE9705E850882850983A3A3A3A3A3E8
:102E5000A3A3E0F8900669E068704812323F121CA4
:102E6000CE7C6A7D06E5082408FAE5093400FB12E9
:102E7000047C7402121A7AE960298E828F83A3A3DC
:102E8000A3A312347D900680E0F51074027810122E
:102E90001A5174812510F58274063511F583EAF014
:102EA000A3EBF07402121AAF85821085831178109B
:102EB000121CCE7402121AAF121CE5850C82850D0D
:102EC000831234A3121A7A8A108B11AE10AF1190AC
:102ED0000680E0F51075110074027810121A517412
:102EE000802510F874063511F988828983A3122A87
:102EF000D97003022DE2E82403080808E93400F938
:102F0000EE4F6003022DEB8882898374FFF0A3F0FB
:102F1000900680E004F0900680E0600A123473129C
:102F200008607900800B8508828509831237E6796D
:102F30000A0236DE74EA121ABB74FE121A648C128C
:102F40008D13EA2405F50CEB124020123D1675088E
:102F500000750900EA2402F510EB3400F51185181C
:102F60008285198385820A85830B780A121CCE8597
:102F70000C82850D83A3A3A3A312310C121CCEE5F2
:102F80000C2405F50AE50D1237D2780A121CCE85FD
:102F90000C82850D83123110120AF47406121A7A0B
:102FA0008A0A8B0BEA450B70030230B1EA2404F560
:102FB0000EEB1230F6123D168A828B83A3A3A3E098
:102FC000F985108285118312348760030230B1E4E1
:102FD000F514F5157814121CCE751469751506785C
:102FE00014121CCE75146A7515067814121CCE7452
:102FF00006121AAF121CE57913AC0AAD0B851082CC
:1030000085118312403E121A7AE9F50960030230F5
:10301000B1900669E0F8E5087009E02402900681A5
:10302000F08014900681E0FCE82402FAE43400FB0E
:10303000EA6C7001EB707E850882AA8212323694A7
:103040001412322E506B850E82850F83E0C0E0741F
:10305000822A1230EDD0E0F00508850E82850F83BC
:10306000A3E0C0E085080A7482250A1230EDD0E0A2
:10307000F0050890066912310C121CCE7C6A7D06A0
:1030800085080A7482250A123100121A7A9006699C
:10309000E02508F50874FF6E700374FF6F6012EE90
:1030A00024010EEF3400FFE508C394145003022FEF
:1030B0005EE5086013123491851082851183123405
:1030C0007D12086679008014E509700375090A8588
:1030D0001282851383EEF0A3EFF0A9097402121A8D
:1030E0007A7F0E021B8D85080C7482250CF5827484
:1030F000063400F583223400F50F850E82F5832215
:10310000FA74063400FB12046A740222123D4C2247
:10311000A3A3123116221237DDFDEEFAEFFB227463
:10312000EE121ABB74FE121A648C0E8D0FEA24057F
:10313000F50CEB123CED750B00900680E4F0F50AFF
:10314000EA2402F508EB3400F5098044900680E09B
:10315000FA900669E0F8123236941712322E400DBA
:10316000900680E0F87416C398900669F012323F1A
:10317000121CCE7C6A7D0674812AFA740612310311
:10318000121A7A900669E0F8900680E028F0050AA5
:10319000E50C2416F582E50D1230F1E0F8E50AC3DE
:1031A000985074900680E0C39416506BE50AC333C0
:1031B000F8E433F9E50C28FEE50D39FF8518828522
:1031C0001983AC82AD838E828F831232487008756A
:1031D0000B011237E28050E4F510F5117810121C43
:1031E000CE7510697511067810121CCE75106A75AF
:1031F00011067810121CCE7406121AAF121CE57953
:103200001685088285098312403E121A7AE9F50B69
:10321000700302314C80BB7C807D06850882850965
:103220008312347D120878A90B74020236E0E99407
:1032300000C365D03322EA28F8E43400F9E822E03C
:10324000F5107511007810221236D58A108B11AC4A
:1032500010AD11EC4D2274EA121ABB74FC121A6400
:103260008A0C8B0D8C128D13EA2405F50AEB1237AC
:10327000D2750800750900E50A2402F510E50B3443
:1032800000F5117402121AAF85820E85830F780E35
:10329000121CCE850A82850B83A3A3A3A3123CF242
:1032A000121CCEE50A2405F50EE50B3400F50F7867
:1032B0000E121CCE8510828511831237D8123477F6
:1032C000120AF47406121A7A8A0E8B0FAE0EAF0F22
:1032D000E50C2402F50EE50D3400F50F80388882E8
:1032E000898374FFF005081230E674FFF00508903A
:1032F0000669E0F50C750D00780C121CCE7C6A7D19
:103300000685080C7482250C123100121A7A900678
:1033100069E02508F508EE4F60278E828F83A3A30E
:10332000A3E0F9850E82850F83123487EE24041200
:103330003CEAE96027850C82850D831234691237D7
:10334000EFE508700302344F123491850E82850F29
:103350008312347D12087E7900023464E4F514F59A
:10336000157814121CCE7514697515067814121C84
:10337000CE75146A7515067814121CCE7408121ACC
:10338000AF121CE57911EEFCEFFD850E82850F83EF
:1033900012403E121A7AE9F509709A850882AA82CB
:1033A000EA9006697009E02404900681F08025E027
:1033B000F8900681E0F514E82404FCE43400FDEC08
:1033C00065147001ED7081123236941212322E4063
:1033D00003023348850C82850D83E0C0E074822AA5
:1033E0001230EDD0E0F00508850C82850D83A3E056
:1033F000C0E01230E6D0E01234AC85820C85830D3B
:10340000780C121CCE7404121AAF121CE5851082BF
:103410008511831234A3121A7A8A0C8B0DAE0CAF6D
:103420000D85080C7482250CF874063400F9EE4FF3
:1034300070030232DE851882851983E088828983D1
:103440001234ACA3E0C0E01230E6D0E00232ECE58A
:1034500009700375090A850A82850B831234691283
:1034600037EFA90974040230DE12401285128285FA
:103470001383227C807D06850A82850B831234812A
:1034800022E0FAA3E0FB22123481120AE2E9F509F4
:1034900022900681E0F5F0E50884900680F07C80BB
:1034A0007D0622123116120B00740422F0050885E5
:1034B00018828519832274EC121ABB74FE121A64E6
:1034C0008A088B098C0E8D0FEA2405FEEB3400FF71
:1034D0001236BFEE2418123CEAEA450B700302359F
:1034E000621236A850291235878A108B11EA4511CD
:1034F000606B7912AC0AAD0B8508828509831234A2
:103500007D851082851183121AB9E9F50A7058E495
:10351000F50AF50B780A121CCE8E828F83A3A3E0E6
:10352000F50A780A121CCEEE24031237CF780A125D
:103530001CCE8E828F83123594120C147406121ACC
:103540007AE9F50A7021850C82850D83E0701F856C
:10355000088285098312347D1208848011750A0E51
:103560008009750A018004E50A60031237E2850CC0
:1035700082850D83E0600479008002A90A7402123A
:103580001A7A7F0C021B8D8518828519831234816B
:10359000120C02221237DDFD850882850983123460
:1035A000812274EE121ABB74FE121A648A088B0907
:1035B0008C0C8D0DEA2405FEEB3400FF750E001215
:1035C00036BFEA450B70030236861236A8502C121D
:1035D00035878A0E8B0FEA450F604A7912AC0AAD27
:1035E0000B85088285098312347D850E82850F83C1
:1035F000121AB9E9F50E6003023689850882850939
:10360000831238C4AA0AFB12369A70147AFF7BFF21
:1036100012369A606C88828983E50AF0A3E50BF084
:10362000750A008007750E0E805F050A900666E039
:10363000FAE50AC39A504AE50A75F017A4FAABF006
:1036400088828983A3A3E02AFAA3E03BFB8A828BCA
:10365000831237D8EC4D70D2750A17750B00780AB3
:10366000121CCEEEFCEFFD12046A7402121A7AEEFE
:10367000FCEFFD85088285098312347D12088A805B
:1036800014750E098003750E0112400A850C82859F
:103690000D831237EFA90E023229120BF68A108B16
:1036A00011A810A911E84922E5082402F508E50946
:1036B0003400F5098A828B83A3A3A3E0A2E52285C7
:1036C0001882851983AC82AD838E828F831236D5A2
:1036D0008A0A8B0B22E0FAA3E0FB120AFA22740496
:1036E000121A7A7F0A021B8D74EC121ABB8C108D91
:1036F00011EA2405F50CEB123CED750F00EA2402EB
:10370000F50AEB1237D2850A82F58312347D124016
:10371000C470030237C4750E008071850C82850D5C
:1037200083E06401704F8E828F83A3A3121CE58E09
:10373000828F83A3A3A3A3E0F5127513007812125E
:103740001CCEEE2405F512EF3400F5137812121C8E
:10375000CE123477120C147406121A7AE9F50F603F
:1037600014850C82850D83E4F012400A8510828551
:1037700011831237EF7C177D007900EEFAEFFB1210
:1037800004828E828F83E4F0A3F0050E900666E03B
:10379000F8E50EC398501EE50E75F017A4F8A9F0D1
:1037A000850882850983A3A312402A1237D8EC4DDD
:1037B000600302371B85088285098374FFF0A3F03C
:1037C000E50F7006123477120890A90F023582F5C2
:1037D0000AEF3400F50B22A31237DDFD22E0FCA333
:1037E000E0228E828F83124012850E82850F83E83D
:1037F000F0A3E9F022C082C083900662E06A700301
:10380000A3E06B70067A627B0680047A007B00027C
:103810002B3774F7121ABB7F00EF75F003A4F8A9D9
:10382000F0EC28F8ED39F988828983E06A7003A307
:10383000E06B7006E8FAE9FB800B0FEFC3940240DF
:10384000D87A007B007F01021B8D74F6121ABB121E
:103850003DFB70067A007B008007A3A3A3A312346C
:103860007D023EBC74F2121ABBE9FE740E121AAF4E
:103870001238C47410121AAF123D2C8C828D83E062
:103880006402703BA312400E88828983E0F50CA38A
:10389000E0F9A80C74026870037429697021750C32
:1038A00002750D00780C121CCE7808121CCE780A16
:1038B000121CCEEEF9120C387406121A7A800279B4
:1038C00001023F2CE0F50AA3E0F50B2274E8121A7E
:1038D000BB74FB121A64E9851882851983F08A1675
:1038E0008B178C0E8D0F741F121AAF123D2C742182
:1038F000121AAF1238C47423121AAF123D16751083
:10390000008C828D83A3A3A3E0A2E4502A741D122D
:103910001AAF12358D8A828B83E58245837003024C
:1039200039D8790AAC0EAD0FAA16AB17121AB9E93D
:10393000F51060030239DB850E82850F83E0640297
:103940006003023C91A312400E850882850983A37F
:10395000858212858313E50E2406F50CE50F123CD3
:10396000ED88828983E0FAA3E0F9EA2400F514E403
:1039700039F5157814121D58010000280128A039C6
:1039800007000228773A0328E7390029A13B0129DB
:10399000C93B0229703B0329A13B0429323C913CDD
:1039A000EE4F703E850C82850D83123D07FAE9FBD0
:1039B0008A828B83E0850A82850B83123D43121C29
:1039C000CE8A828B83A31237DDFDAA08AB091204CD
:1039D0006A7402121A7A800375100EA91074050217
:1039E000401875100B80F4EE4F70F7850A82850B36
:1039F000837401F0123D1C850882850983F07C00E8
:103A00007D00850E82850F83A3A3A3A3E02401FA82
:103A1000A3E03400FB120AFAEA4B60418A828B83EE
:103A2000E02402F8850A82850B83E028F0EA24046A
:103A3000F8EB3400F988828983E08512828513834C
:103A4000123D55123D43121CCE8A828B831237D70A
:103A5000E5082403FAE5093400FB0239CE850A8221
:103A6000850B83E02404F07C047D007900AA12AB6E
:103A7000131204820239DBEE4F60030239E2123D79
:103A80001CFEA3E0FF850A82850B837404F0EE859B
:103A90000882850983F0EF851282851383F0740311
:103AA000121AAFAC82AD83EEFAEFFB123DE9700360
:103AB000023B4D8A828B83A3A3123D127401121A1A
:103AC000AF85820E85830F780E121CCE7405121AF4
:103AD000AF121CE57CFF7DFF120B007404121A7AF2
:103AE0008B0FEA450F7033850C82850D83123CF2F3
:103AF000121CCE850C82850D83A3121CE57C027DF1
:103B0000007A3D7B8212092C7404121A7AE9700A39
:103B10007401121AAF74FFF0A3F08E828F83E064F9
:103B2000027034750C02750D00780C121CCE8E825A
:103B30008F831237D7E5082404FAE50912310312FE
:103B40001A7A850A82850B83E024028009740112A7
:103B50001AAFEEF0A3EFF07401121AAF123D03F0AA
:103B60007401121AAFA3123CFBA3A3A3F00239DB2A
:103B7000EE4F60030239E2850C82850D831237D83F
:103B8000AA16AB17120C2C850A82850B837402F0DF
:103B9000EA850882850983F0851282851383EB808C
:103BA000CBEE4F60030239E2123D1CF8A3E0F98529
:103BB0000A82850B837402F0E8850882850983F008
:103BC000E985128285138380A3850C82850D83127B
:103BD000347D120464EAFC8C82A882C39EE49F4078
:103BE0004BE86E7001EF70047C00801F85188285A1
:103BF0001983E0FAEE2AFAEF3400FBC3EA98EB945B
:103C0000005003E08004EECCC39CFCEC850A828566
:103C10000B83F08C0A750B00780A121CCE850C827F
:103C2000850D83E02EFCA3E03F0239C97510070221
:103C300039DBEE4F60030239E2850C82850D831279
:103C4000400E850A82850B837407F088828983126F
:103C50003CFB123CE3E0851282851383F0E82402EA
:103C6000FAE93400FB8A828B83123CFB123D34124A
:103C70003D03A3123D3D123D0CF0E82405F8E93464
:103C800000F988828983123D0CA3123D55A3023BA3
:103C900069741D121AAF123DF470030239D8124034
:103CA0000E880C890DE8450D70030239D88E108FEF
:103CB000117810121CCE780A121CCE7808121CCE75
:103CC0007406121AAFE0F9AC0EAD0FAA16AB178549
:103CD0000C82850D83121AB97406121A7AE9F5104E
:103CE0000239DBF088828983A322F50CEF3400F5DA
:103CF0000D22E0F50E750F00780E22E08508828512
:103D0000098322123D5C22124012E822123D5CA37C
:103D1000A322A3A3A3A3E0FEA3E0FF22850C828538
:103D20000D83E0F8A3E0F5838882E022E0F508A3A4
:103D3000E0F50922A3A3F08A828B83A322122A54DE
:103D4000A3A322F08A828B83123D4C22E0F50A75F0
:103D50000B00780A22123CE3123D5C22E0850882C7
:103D6000850983A3A32274EE121ABB74FE121A648F
:103D70008A0A8B0BECFAEDFB7414121AAFE0F51003
:103D8000A3E0F5117416121AAFE0FE7418121AAF00
:103D9000E0F50EA3E0F50F851882851983AC82AD9E
:103DA00083123DE9603E851882851983123DF460D7
:103DB0002FA3A3123D2CE50845096024780E121CA0
:103DC000CE7810121CCEEEF9AC0CAD0DAA0AAB0BDE
:103DD000850882850983121AB97404121A7A80063A
:103DE000790E80027901023229120AFA8A0C8B0DAF
:103DF000EA450D22123481123DFB22120BC08A8249
:103E00008B83E58245832274F6121ABB74FE121A64
:103E100064740C121AAF123D07851882851983F05D
:103E20007401121AAFE9F0E4F508F5097808121CDC
:103E3000CE7508027808121CCE7404121AAF85825F
:103E4000088583097808121CCE120C147406121A05
:103E50007A7402121A7A806474F7121ABBEAFEEBC3
:103E6000FF89087C997D06120C2CEA5402600BA98C
:103E700008EEFAEFFB120AEE80027901023845746F
:103E8000F6121ABB74FF6A700374FF6B701C7B0020
:103E9000EB75F003A4F8A9F0EC28F8ED39F9123E1F
:103EA000C10BEBC39402501480E6120BFC8A088B02
:103EB00009A808A909E8496003123EC17F02021B54
:103EC0008D8882898374FF122A52E4F02274F612DC
:103ED0001ABB120BFC8A828B83E58245836006A3A2
:103EE000A3E0FA80027A007B0080D174F2121ABB40
:103EF0008A088B09ECFEEDFF740E121AAFE0F50A8A
:103F0000123F31701CEEFCEFFD7AFF7BFF123F3158
:103F100070047911801688828983E508F0A3E50989
:103F2000F088828983A3A3E50AF079007F06021B4B
:103F30008D120BFC8A0C8B0DA80CA90DE84922747C
:103F4000EE121ABBEAFEEBFF8C088D09890C741285
:103F5000121AAF12400E7414121AAF1237D8741618
:103F6000121AAF12347D750D00EC4D600302400251
:103F70007402650C6003023FFD888289831237DD7D
:103F8000F9EC2400F50EE439F50FEAF4F8EBF4F956
:103F9000EC58F8E50F59F9E849705DE5082406F892
:103FA000E5093400F9880A890B8882F583123112F9
:103FB000120C2C8A108B11E50E65107004E50F654C
:103FC000116042780E121CCE850A82850B83123155
:103FD00012120C327402121A7AE9F50D7027780E5B
:103FE000121CCE850882850983A3A3123110120CFE
:103FF000447402121A7A800D750D808008750D0DBB
:104000008003750D0BA90D0236E38E828F8312405B
:104010001222E0F8A3E0F922121A7A7F10021B8D17
:104020003400F50D850C82F58322E028FEA3E039EB
:10403000FF8E828F83227916850A82850B83123444
:1040400081120C0E74082274F2121ABBEAFEEBFF06
:10405000890B7401650B600E7402650B7063790146
:10406000120E1EE9705BEEFAEFFB1240C46047755A
:104070000A00800B7C177D007900120482050A90EB
:104080000666E0F8E50AC3985021E50A75F017A422
:10409000F8A9F0850882850983A3A3E028FAA3E0A4
:1040A00039FB8A828B83122B3E70C9850882850971
:1040B0008374FFF0A3F07C997D06EEFAEFFB120CFF
:1040C00026023F2C120BF68A088B09EA4509227456
:1040D000F2121ABB8A088B09ECFEEDFF740E121A5D
:1040E000AF1238C4900D08E0F4603D7A097B0012ED
:1040F000048EEA4B60328A828B8374B1F0A3E4129F
:104100003D36A3123D34A3E508F0A3E50912412B87
:10411000EEF0A3EF12412BA3A3E50AF0A3E50BF009
:10412000900D08E0F912049A023F2CF08A828B83EA
:10413000A3A3A3A3A322C082C0839061907404F0C0
:10414000A37448F0A37402F09061807440F0906111
:10415000BC7403F09061877419F0906265741BF071
:1041600090619C740DF090619A7433F0A37455F0D3
:104170009061A0743AF09008DDE064017009C2918A
:10418000900747746780059007477461F09029167F
:10419000E493906186F0902910E493F46027E4930F
:1041A000540FF8906185E0686012E5C65480444978
:1041B000F5C6E59E547F644970F8E8F053C680E583
:1041C0009E547F70FA7905121172024378C082C042
:1041D00083E9540FF9906185E0696012E5C6548067
:1041E0004449F5C6E59E547F644970F8E9F053C62A
:1041F00080E59E547F70FA024378C082C083E5A8B0
:10420000F853A87E906181E4F0A3F0A3F0C2BA5302
:104210009AFEC289759B00C2C275E900759100754E
:10422000BF0075A91175B905906181F0A374C0F044
:10423000A3E4F0D2BA439A0174805842A8024378AA
:10424000C082C08374F8121A64900745E0F8A3E0B6
:10425000F9E849700302436E900745E0544060233B
:104260007908851882851983AA82AB83120FDA85B3
:104270001882851983AA82AB83120CB0900745E09F
:1042800054BFF0E054806010790C7A017B09120F62
:10429000DA900745E0547FF0E0A2E0503190619A57
:1042A0007433F0A37455F09061A0743AF09008DD77
:1042B000E064017009C29190074774678005900718
:1042C000477461F0120CB6900745E054FEF0E054DC
:1042D00002603190619A743FF0A3745AF09061A02B
:1042E000747FF09008DDE064017009D29190074777
:1042F00074718005900747746AF0120CB6900745F8
:10430000E054FDF0E054046013902914E4939061AC
:1043100086F0120CBC900745E054FBF0E0540860B6
:1043200013902915E493906186F0120CBC90074518
:10433000E054F7F0E054106013902916E493906174
:1043400086F0120CBC900745E054EFF0E05420607A
:104350000A120CBC900745E054DFF0A3E054016062
:104360000D120F02120CC2900746E054FEF07408C2
:10437000121A7A8003F0A3F0D083D0820201357440
:10438000EC121ABB74F4121A64851882851983AC76
:1043900082AD837583817582CC740412197790295C
:1043A0001493F4600302450C907808E0C394025023
:1043B000030244EC7404121AAFAC82AD837583819E
:1043C000758237740812197785188285198385825A
:1043D000128583137404121AAFAC82AD83750EFF7D
:1043E000750FFF7FFF7E00750C48750D7880157482
:1043F000086E700302447F74096E700302447F7478
:104400000A6E607B850C82850D8378081219348CC6
:10441000828D83A909E50AC9F888107418780812F2
:10442000185DE5104508F8C3E098A3E099850C8273
:10443000850D83780812193440188C828D83741886
:10444000780812185DE5104508F8E0C398F8A3E075
:10445000801C7418780812185DE5104508FAE9FB0D
:104460008C828D83E0F8A3E0F9EAC398F8EB99F920
:10447000C3E8950EE9950F5006880E890FEEFF0EE2
:10448000E50C2404F50CE50D3400F50DEEC3941392
:1044900050030243EF74FF650E700474FF650F60F4
:1044A000238F0874027808121A5174482508F5827F
:1044B00074783509F58378081219348512828513CA
:1044C00083E508F0EC24020C0CED3400FD8512822B
:1044D000851383A3858212858313740C121AAFE5AA
:1044E000826C7003E5836D60030243DD750801751E
:1044F00009007808121CCE7402121AAFAC82AD8388
:104500007A457B0A1207347402121A7A740C121A52
:104510007A7F0C021B8DC082C0839061AE7468F0FC
:10452000A3746AF090624574FBF0A304F053F4FDA9
:1045300043FE029008DD7401F09061A0E0643A90BF
:10454000619A70237433F0A37455F09061A0743AAB
:10455000F0740164017009C2919007477467802864
:1045600090074774618021743FF0A3745AF0906102
:10457000A0747FF0740164017009D29190074774B0
:10458000718005900747746A0243777F04021B8D90
:10459000C082C08390088FE06401700A900894E0A4
:1045A0006004790C80027900024378C082C0837570
:1045B000E1F1900892E060551460081460591460AD
:1045C000518059120F14900888E0F97A897B0812FB
:1045D00010F49081C412195212112A9081E012191C
:1045E00052121100900893E0F912110C7901121186
:1045F00066900886E02416F8A3E03400F9888289E2
:1046000083742CF0A3740FF07900024378120F1A10
:1046100080B4120F2080AF120F2680AA791280EA90
:1046200074F4121ABB75D90D900877E0A2E0E43358
:104630001313F8900888E0C4333354C0484401F59C
:10464000D97886790888828983A3A3A3E0F5D988DD
:10465000828983A3A882A983E8648C7003E9640833
:1046600070E37877790888828983A3E0F5D9888216
:104670008983A3A882A983E8647D7003E964087034
:10468000E575E195900877E0F97A787B081210FAE1
:10469000900D2A74C0F0A3740EF0A37422F0A374DA
:1046A00010F0A37422F0A37410F0A37422F0A3748A
:1046B00010F0A374C6F0A3740EF0A37422F0A374D8
:1046C00010F0A374DEF0A3740EF0900D387422F095
:1046D000A37410F0A37422F0A37410F0A37422F05A
:1046E000A37410F0A37422F0A37410F0A37422F04A
:1046F000A37410F0A37422F0A37410F0900886E065
:10470000F8A3E0F5838882A3A37808121934908176
:10471000C078081218A89081D8780812190E90084D
:1047200086E0240EF8A3E03400F9888289837808B3
:10473000121943900886E02414F8A3E03400F988A5
:104740008289837413F09007437402F002458BC092
:1047500082C083900898E02407F5D9900888E0C4C7
:10476000333354C0F5D97886790888828983A3A326
:10477000A3E0F5D988828983A3A882A983E8648C01
:104780007003E9640870E3900898E0601F78867908
:1047900008FAE82413F582E93400F583E0F5D988B6
:1047A000828983A3A882A9831AEA70E69008B8E0F8
:1047B0002407F5D9900888E0C4333354C04404F585
:1047C000D97886790888828983A3A3A3E0F5D9885C
:1047D000828983A3A882A983E8648C7003E96408B2
:1047E00070E39008B8E0601F78867908FAE824330F
:1047F000F582E93400F583E0F5D988828983A3A89E
:1048000082A9831AEA70E675E195900D2A74CCF0BE
:10481000A3740EF0A37422F0A37410F0A37422F01A
:10482000A37410F0A37422F0A37410F0A374C6F064
:10483000A3740EF0A37422F0A37410F0A374DEF03E
:10484000A3740EF0900D387422F0A37410F0A374CA
:1048500022F0A37410F0A37422F0A37410F0A374D8
:1048600022F0A37410F0A37422F0A37410F0A374C8
:1048700022F0A37410F0908218121952900886E06A
:10488000240EF8A3E03400F98882898312195E901F
:104890000886E02414F8A3E03400F9888289837440
:1048A00012F09007437401024377C082C0839008DE
:1048B00098E02407F5D9900888E0C4333354C04405
:1048C00002F5D97886790888828983A3A3A3E0F5C5
:1048D000D988828983A3A882A983E8648C7003E9BC
:1048E000640870E3900898E0601F78867908FAE819
:1048F0002413F582E93400F583E0F5D988828983B1
:10490000A3A882A9831AEA70E675E195900D2A742E
:10491000D8F0A3740EF0A374D8F0A3740EF0A374AF
:10492000D8F0A3740EF0A374D8F0A3740EF0A3749F
:10493000D8F0A3740EF0A374D8F0A3740EF0A3748F
:10494000DEF0A3740EF0900D387422F0A37410F012
:10495000A37422F0A37410F0A37422F0A37410F0D7
:10496000A37422F0A37410F0A37422F0A37410F0C7
:10497000A37422F0A37410F09082181219529008B8
:1049800086E0240EF8A3E03400F9888289831219A6
:104990005E900886E02414F8A3E03400F988828948
:1049A000837414F09007437404024377C082C08379
:1049B000900898E02407F5D9900888E0C433335470
:1049C000C04406F5D97886790888828983A3A3A391
:1049D000E0F5D988828983A3A882A983E8648C70D2
:1049E00003E9640870E3900898E0601F788679080E
:1049F000FAE82413F582E93400F583E0F5D98882DA
:104A00008983A3A882A9831AEA70E69008B8E024F3
:104A100007F5D9900888E0C4333354C04404F5D96D
:104A20007886790888828983A3A3A3E0F5D9888250
:104A30008983A3A882A983E8648C7003E964087061
:104A4000E39008B8E0601F78867908FAE82433F527
:104A500082E93400F583E0F5D988828983A3A882AE
:104A6000A9831AEA70E675E195900D2A74D2F0A335
:104A7000740EF0A37422F0A37410F0A37422F0A3B8
:104A80007410F0A37422F0A37410F0A37422F0A3A6
:104A90007410F0A37422F0A37410F0A374DEF0A3DA
:104AA000740EF0900D387422F0A37410F0A37422E9
:104AB000F0A37410F0A37422F0A37410F0A3742276
:104AC000F0A37410F0A37422F0A37410F0A3742266
:104AD000F0A37410F0908218121952900886E02406
:104AE0000EF8A3E03400F98882898312195E9008D9
:104AF00086E02414F8A3E03400F9888289837415D1
:104B0000F09007437403024377C082C08390088605
:104B1000E0F8A3E0F5838882A3A3A3A3A3A3E40200
:104B2000437574F7121ABB900771E0F875F004A48E
:104B3000C8AAF02AF9747328F8740739F9E824052B
:104B4000FAE93400FB8A828B83E0FCA3E0FD8882D3
:104B50008983A3A3A3A3A3A3A3A3A3ECF0A3EDF032
:104B600088828983A3A3A3A3A3A3A3E024FFF8A31C
:104B7000E034FFF98A828B83E8F0A3E9024DC77421
:104B8000F7121ABBEAFEEBFF9061D0E06003024C23
:104B90005C75D90E75D90375D904EE248CF582EFB6
:104BA0003400F583E5822408F8E5833400F9E0F564
:104BB000D9A3E865827003E9658370F2EE2484F579
:104BC00082EF3400F583E5822404F8E5833400F9AC
:104BD000E0F5D9A3E865827003E9658370F275E1B9
:104BE000957908EE248CFAEF3400FB120FCE79048D
:104BF000EE2484FAEF3400FB120FCE7C00EEF8EFC7
:104C0000F9ECFAC3E49AFA95E0FBEE2AFAEF3BFBE3
:104C1000EA248BF582EB3400F583E0C0E0E824ABB6
:104C2000F582E93400F583D0E0F00C88828983A313
:104C3000A882A983ECC3940840C7EE2470F582EFE4
:104C40003400F583E0F8A3E0F9EE2472F582EF3446
:104C500000F583E8F0A3E9F0790180027900024DC4
:104C6000C8C082C08375D90275D90375D90575E1AD
:104C700095EA2470F582EB3400F583E0F8A3E0F9BF
:104C8000EA2472F582EB3400F583E8F0A3E9F079C9
:104C90000102437874F6121ABBEAFEEBFF9008E1BA
:104CA0007406F07508E17509087808121CCE7C01BD
:104CB00079031210167402121A7A75D90675D9037F
:104CC0007582E1758308E0F5D9A3E58264E6700496
:104CD000E583640870F075E195900743E06408701F
:104CE0001EEE2470F582EF3400F583E0F8A3E0F9BE
:104CF000EE2472F582EF3400F583E8F0A3E9F07951
:104D000001024E9474F6121ABBEAFEEBFF9061D0DA
:104D1000E0706678019008E1740BF0900743E0645E
:104D20000770197508E17509087808121CCE7C0116
:104D300079031210167402121A7A7805740128F594
:104D4000D975D9037582E1758308E8FAE0F5D9A32E
:104D50001AEA70F875E195EE2470F582EF3400F5EB
:104D600083E0F8A3E0F9EE2472F582EF3400F583D6
:104D7000E8F0A3E9F0790180027900024E9474F71B
:104D8000121ABBEAFEEBFF75D90375D90375D90D6D
:104D9000EE24DEF582EF3400F583E0F5D975E19578
:104DA0007904121130EE2470F582EF3400F583E0BF
:104DB000F8A3E0F9EE2472F582EF3400F583E8F011
:104DC000A3E9F079018001F07F01021B8D74F612D6
:104DD0001ABBEAFEEBFF9061D0E0F87480C398FA4A
:104DE000EE2483F582EF3400F583E06004780480DC
:104DF000027800E8240BF8EAC3985003024E927D33
:104E0000099008E1EDF0EE24E3F8EF3400F97AE2DE
:104E10007B087C0888828983E08A828B83F0888281
:104E20008983A3A882A9838A828B83A3AA82AB8366
:104E30001CEC70E0EE2483F582EF3400F583E06033
:104E40001D7508E17509087808121CCE7C097903E4
:104E5000EEFAEFFB1210167402121A7A7D0D74012D
:104E60002DF5D975D9037582E17583088D08E0F5B4
:104E7000D9A31508E50870F675E19579041211308B
:104E8000EE241DF582EF3400F583E4F0A3F0790100
:104E9000800279007F02021B8D74F6121ABBEAFEB3
:104EA000EBFF9061D0E0F87480C398FAEE2483F5AC
:104EB00082EF3400F583E06004780480027800E833
:104EC0002408F8EAC3985003024F997D069008E140
:104ED000740CF0900760E09008E2F07A617B07784C
:104EE000E379087C028A828B83E088828983F08A56
:104EF000828B83A3AA82AB8388828983A3A882A999
:104F0000831CEC70E07A637B077C028A828B83E0EF
:104F100088828983F08A828B83A3AA82AB8388826A
:104F20008983A3A882A9831CEC70E0EE2483F58218
:104F3000EF3400F583E0601D7508E1750908780815
:104F4000121CCE7C067903EEFAEFFB1210167402E7
:104F5000121A7A7D0A74012DF5D975D9037582E18B
:104F60007583088D08E0F5D9A31508E50870F67576
:104F7000E1957904121130EE2470F582EF3400F5DA
:104F800083E0F8A3E0F9EE2472F582EF3400F583B4
:104F9000E8F0A3E9F0790180027900024E9474F6FA
:104FA000121ABBEAFEEBFF9061D0E0F87480C39860
:104FB000FAEE2483F582EF3400F583E06004780490
:104FC00080027800E82404F8EAC39850030250787D
:104FD00078029008E1E8F0EE24F5F582EF3400F570
:104FE00083E09008E2F0EE2483F582EF3400F5834D
:104FF000E0601B7508E17509087808121CCE7C0278
:105000007903EEFA1210167402121A7A78067401F5
:1050100028F5D975D9037582E17583088808E0F50C
:10502000D9A31508E50870F675E195EE2474F582AC
:10503000EF3400F583E4F0EE2480F582EF3400F5E0
:1050400083E4F0EE241DF582EF3400F583E4F0A351
:10505000F07904121130EE240DF582EF3400F5835F
:10506000E0F8A3E0F9EE2472F582EF3400F583E86E
:10507000F0A3E9F0790180027900024E9474F612EF
:105080001ABB9061D0E0F87480C398FCEA2483F5E1
:1050900082EB3400F583E06004780480027800E855
:1050A0002404F8ECC398405B79029008E17407F09F
:1050B000EA24F6F582EB3400F583E09008E2F0EAAA
:1050C0002483F582EB3400F583E060187508E17500
:1050D00009087808121CCE7C0209121016740212FC
:1050E0001A7A7906740129F5D975D9037582E175A3
:1050F0008308E9F8E0F5D9A318E870F875E1957927
:105100000180027900024E9474F5121ABBE9FCA2E8
:10511000AFE433F50AC2AF7D0080010DEA246FF5DC
:1051200082EB3400F583E0F8EDC398501A8D08EA5D
:105130002508F8EB3400F9E8246BF582E93400F532
:1051400083E06C70D68024EA246FF8EB3400F9E039
:10515000FEEA2EFAEB3400FBEA246BF582EB340016
:10516000F583ECF088828983E004F0E50AA2E092FE
:10517000AF7F03021B8D74F6121ABBA2AFE433FD9E
:10518000C2AFEA246FF582EB3400F583E014F07CC3
:105190000060368C08EA2508F8EB3400F9E8246C46
:1051A000F582E93400F583E0C0E0E8246BF582E99C
:1051B0003400F583D0E0F00CEA246FF582EB340084
:1051C000F583E0F8ECC39840CAEA246EF582EB342C
:1051D00000F58374FFF0EA246AF582EB3400F5836E
:1051E000E4F0EDA2E092AF024E94C082C083E5A845
:1051F000F8C2AFEA246BF582EB3400F583E9F0EAFC
:10520000246AF582EB3400F583E4F0E8A2E792AF7C
:1052100002437874F3121ABBEAFEEBFFECFAEDFBE3
:105220008A828B83A3A3A3A3E0541FF0EE2436F558
:1052300082EF3400F583E4F0F50AEEFCEFFD8A829C
:105240008B83E0C0E0EC245DF582ED3400F583D083
:10525000E0F0750B00E50A33333354F8F50C8A821D
:105260008B83E0F508750900E50B7808121A32E522
:1052700008A2E0502FEE2436F8EF3400F988828936
:1052800083E0F508EE2508F508EF3400F509E50898
:105290002438F582E5093400F583E50CF08882892D
:1052A00083E004F0050B050CE50BC3940840AF0543
:1052B0000A8A828B83A3AA82AB838C828D83A3AC60
:1052C00082AD83E50AC39405500302523E7F050276
:1052D0001B8D74F7121ABB90076FE0640170077A98
:1052E000007B000254497E00900775E070F1740164
:1052F000F0A3E4F0A3F09007D504F09007D8E4F011
:10530000A3F09007DB04F0900778E4F0A3F0A3F09B
:10531000A3F090078204F09007A8E4F09082201296
:10532000195290078B12195E90078FE4F0A3F0A337
:10533000F09007F3F09007E7F09007DC7480F0A39B
:10534000E4F09007E2F09007DAF090085EF0A3F046
:10535000A3F0A3F0A3F0A3F0A3F0A3F0900867F0EC
:105360009007F6F0900846F0A3F0908220121952B0
:1053700090084812195E90822012195290084C121F
:10538000195E900852E4F0900854F0900850F090A4
:10539000086AF0A3F0A3F0A3F0A3F0A3F0A3F0A396
:1053A000F0786F7907E8246FF582E93400F58374AB
:1053B000FFF00E88828983A3A882A983EEC3940498
:1053C00040E37A6F7B07787E790888828983E0C022
:1053D000E0EA2461F582EB3400F583D0E0F08882C6
:1053E0008983A3A882A9838A828B83A3AA82AB83A1
:1053F000E864837003E9640870D07A6F7B0778569D
:10540000790788828983A3E0C0E0EA24E7F582EB8C
:105410003400F583D0E0F088828983A3A882A98331
:105420008A828B83A3AA82AB83E8645E7003E964FB
:105430000770CF90076FE004F06401700890077761
:10544000E0900771F07A737B07024DC8C082C08379
:10545000900776E4F0900775F090076FF0A3F0A343
:1054600074FFF075E1F1024378C082C0837800795F
:1054700000900776E060047873790788828983A3B7
:10548000A3A3A3E0F902437874F6121ABBEAFEEB79
:10549000FF8E828F83A3A3A3E0600F8E828F83A3EE
:1054A000A3A3E4F0900770E014F090076FE014F00D
:1054B000700690077174FFF08E828F83A3A3E4F0CF
:1054C000900883E0700D900770E06401700579002A
:1054D000121112EE2465F582EF3400F583E0F8A393
:1054E000E0F9E8496029EE2465F8EF3400F988080E
:1054F00089098882F583E0FCA3E0FD900771E0FA5A
:105500007B00120CE6850882850983E4F0A3F0EEA7
:10551000FAEFFB121046024E9474F7121ABBEAFE21
:10552000EBFF8E828F83A3A3A3A3E0FA7B00120D6F
:1055300028EEFAEFFB120F9812102E024DC8C0820F
:10554000C0837856790788828983A3E4F0888289AA
:1055500083A3A882A983E8645E7003E9640770E608
:105560009007570248A574F6121ABBEAFEEBFFEC4F
:105570002403F8ED3400F988088909EC2407F8EDD4
:105580003400F9E8FCE9FD8C828D83E0F8A3E0F9B2
:10559000850882850983E0FAA3E0FB1219D9EE247D
:1055A0000DF582EF3400F583E8F0A3E9F08C828DED
:1055B00083E0F8A3E0F9850882850983E0FAA3E097
:1055C000FB1219D98B09EA45096013EE240DF58207
:1055D000EF3400F583E02401F0A3E03400F0024E44
:1055E0009474F6121ABBEAFEEBFFEE242EF582EF5E
:1055F0003400F583E0FCA3E0FD780079FAECFAEDE5
:10560000FB1219D9EE2470F582EF3400F583E8F02F
:10561000A3E9F0780079FAECFAEDFB1219D98B09BD
:10562000EA45096013EE2470F582EF3400F583E05B
:105630002401F0A3E03400F0024E9474F0121ABB7F
:10564000EAFEEBFF7410121AAF7808121934121028
:10565000D08A0C8B0D8C0E8D0F9081BC780C12189B
:10566000A89081D8780C12190E780C121CCA8E8260
:105670008F83E0F8A3E0F5838882A3A31219521266
:1056800026A67404121A7AE960030257888E828F64
:1056900083E02402F8A3E03400F9E8FAE9FB8A8207
:1056A0008B8378081218BB9081D878081219348A35
:1056B000828B837808121921EE240BF582EF3400D7
:1056C000F583C082C0838E828F83A3A3A3A3A3E0AC
:1056D0002401F8A3E03400F9D083D082E06870039D
:1056E000A3E0697005790102578A8E828F83A3A394
:1056F000A3A3A3A3A3E02401F0A3E03400F0EE24CD
:1057000074F582EF3400F583E064017036EE2475A1
:10571000F582EF3400F583E0F8A3E0F98E828F8301
:10572000A3A3A3A3A3A3A3E0687003A3E0697013DA
:10573000EE2475F582EF3400F583E02401F0A3E058
:105740003400F0EE2480F582EF3400F583E064014C
:105750007036EE2481F582EF3400F583E0F8A3E0A3
:10576000F98E828F83A3A3A3A3A3A3A3E0687003EE
:10577000A3E0697013EE2481F582EF3400F583E035
:105780002401F0A3E03400F079007F08021B8D743F
:10579000F7121ABB900771E0F875F004A4C8AAF0DC
:1057A0002AF9747328FE740739FF8028EE2465F8FF
:1057B000EF3400F988828983E0FCA3E0FD888289C8
:1057C00083E4F0A3F08E828F83A3A3A3A3E0FA7BEC
:1057D00000120CE6EE2465F582EF3400F583E0F864
:1057E000A3E0F9E849604FEE2464F582EF3400F558
:1057F00083E0F5087808121CD2EE2463F582EF34BA
:1058000000F583E0F9EE2465F582EF3400F583E0DE
:10581000FCA3E0FDEEFAEFFB120FC27401121A7A3C
:10582000E96089EE2465F582EF3400F583E0F8A3A2
:10583000E0F9E84970137C007D008E828F83A3A37A
:10584000A3A3E0FA7B00120CE6024DC874F2121A10
:10585000BBEAFEEBFF890A740E121AAFE0FAEE24DF
:1058600062F582EF3400F583E064016003025918A9
:105870009061D0E0F87480C398F50CEE2483F58233
:10588000EF3400F583E06004780480027800890832
:10589000E928F8E43400F9E824020808E93400F9BA
:1058A000E50C98E499A2D265D0334068EA7005759A
:1058B0000B028003750B01E060397509007808124E
:1058C0001CCE7AE17B08120FF87402121A7A75085E
:1058D000E17509087808121CCEAC0AA90BEEFAEFA4
:1058E000FB1210167402121A7A7404250AF50A7C47
:1058F000E17D087401250AF5D9850BD9E50A600D0B
:105900008C828D83F8E0F5D9A318E870F875E195DD
:10591000790080067907800279FF7F06021B8DC01F
:1059200082C083E960208C828D83E08A828B83F041
:105930008C828D83A3AC82AD838A828B83A3AA825F
:10594000AB8319E970E0ECFAEDFB02437874EA12DC
:105950001ABB907803E06442705E9008E0E014F0B7
:105960007056C2AF12596700782AD0E0F618D0E01E
:10597000F6E59F5407F970059081B480039081A4E7
:105980007808121934E9C4C0E07829E65508F5080A
:1059900008E65509F509740B7808121A42D0E0257B
:1059A00008F8906270E0A2E740F8E8C333906272B2
:1059B000F0906270E0D2E0F0900771E0F4700302C2
:1059C0005D70E0F875F004A4C8AAF02AF974732891
:1059D000FE740739FFEE2402F582EF3401F583E00F
:1059E000F8A3E0F9E849601EEE2402F582EF3401E5
:1059F000F583E0FAA3E0FBEE2401F582EF3401F534
:105A000083E0F91204BE8E828F83A3A3A3A3A3A372
:105A1000A3E0F8A3E0F98E828F83A3A3A3A3A3E856
:105A2000F0A3E9F0906054E090074AF0906055E0F0
:105A300090074BF0906056E090074CF0906057E074
:105A400090074DF0906058E090074EF0906059E05C
:105A500090074FF090605AE0900750F090605BE044
:105A6000900751F090605CE0FC900752F090605D10
:105A7000E0FB900753F090605EE0FD900754F090DB
:105A8000605FE0FA900755F0900750E08C08250819
:105A9000F8E43400F98D08E82508F8E93400F98BBA
:105AA00008E82508F8E93400F98A08E82508FAE941
:105AB0003400FBEE24F7F582EF3400F583E02AF0A2
:105AC000A3E03BF08C08EE24F9F582EF3400F58377
:105AD000E02508F0A3E03400F0EE24FBF582EF347B
:105AE00000F583E02401F0A3E03400F0EE24FFF59C
:105AF00082EF3400F583E0F8A3E0F9E849604290D2
:105B00006000E0C333FCE433FDE82CF582E93DF5A9
:105B100083E02AF0A3E03BF0906000E0FA900752A7
:105B2000E0FCEAC333FAE433FBE82AF8E93BF9E89E
:105B3000244AF582E93400F583E02CF0A3E0340038
