:020000040000FA
:0600000002011D0221FBBC
:03002B00021E1E94
:0300530002226E18
:03006B00021DF87B
:100083000220AFE5C754F84401F5C7790122000007
:100093000080FB120086B90003020107E47921788E
:1000A30008B800028004F709D8FCE479297802B87B
:1000B30000028004F709D8FCE490028178477909AB
:1000C3008002F0A3D8FCD9FA781A90014D7A01BACC
:1000D30000028007E493A3F608DAF9900AC7AA821C
:1000E300AB8390014E785E79038015E493A3AC82D1
:1000F300AD838A828B83F0A3AA82AB838C828D83A8
:10010300D8E9D9E77582A47583AF740312012F75FB
:100113008291758300740012012F75D00075813FA1
:10012300751881751902759F00020096C09FF59F8F
:10013300E473D09F22D083D082C09FE493C0E07445
:100143000193C0E0740293F59F220101FFFF0201B6
:100153000603020D180708434D5F48524D434D20D7
:100163004852204D6F6E69746F72000000000000EA
:100173000000ED030000F303FF030504FFFFBB00D2
:1001830012640233820100001E82022F82010000EA
:10019300FC0A025182010000FD0A022D82030000C5
:1001A3003E040202020233820100002182022F82F6
:1001B3000100001E0B024B820100004604022F8245
:1001C3000100001F0B0249820100000181022F82FE
:1001D300010000200B0247820100001C8110020273
:1001E3007D00020233820100002482022F8201007B
:1001F30000590B10B1800000005004022D8203004F
:10020300005104022F820100005A0B10D18001001B
:10021300005704022F820100005B0B10E1800100F4
:10022300005C0B022F820100005E0B10F1800100C5
:100233000059041002080233820100002A82022FAF
:1002430082010000AF0B023F820000005C04022D1C
:10025300820300005D04022F82010000B00B023D07
:10026300820100006304022F82010000B10B0255DA
:1002730082020000640401E803053F10FF0001301F
:1002830075030201060000000000000000000000EA
:10029300000000000000000000000000000000005B
:1002A30000FFFF0600800CE803FF0000B4000028F5
:1002B300002800283075A000A000A000A0000008BE
:1002C3000008E001F0001000100010001000100002
:1002D300100050005000500010001000D007000024
:1002E300000000000F00010005003075070010003A
:1002F300010081FF0000FF350A530A3B0AFF020297
:100303000208025000A0000000E80302338201004B
:10031300001B82022F820100007A0C023982010045
:10032300001E06022F820100007B0C023B820100AB
:10033300003406022F820100007C0C025782010068
:10034300003606022F820100007D0C024382080062
:10035300003706022F820100007E0C024582010055
:10036300007F0CFF0100FF2002338201000018828E
:10037300022F82010000E30C024F82000000000004
:10038300022D8203000084060B100B100B100B10C0
:100393000B100B100B100B100B100B100B100B1082
:1003A3000B109912B11293121201385A8B031201D6
:1003B30038678B031201387A8B03120138988B0349
:1003C300120138C58B03120138DD8B031201388CFF
:1003D3008C03120138848D03120138AE8D03120190
:1003E300380FEE0212013835F00212013815F1020E
:1003F300120138C3F10212013808F2021201382A3D
:10040300F20212013856F20212013895AD031201BD
:1004130038F5AD03120138759D03120138A99D0308
:10042300120138B49D03120138C89D03120138DB51
:100433009D03120138F69D031201383B9E031201FE
:1004430038499E03120138989E03120138A59E0372
:100453001201387CD50212013886D502120138C741
:10046300D50212013810D6021201384AD6021201FF
:1004730038A0D602120138C1D602120138CAD602F8
:100483001201381ED70212013847D7021201385120
:10049300D702120138BFD7021201384FD802120116
:1004A30038AAD802120138D8D80212013860D9020A
:1004B3001201389FD902120138D4D902120138E649
:1004C300D90212013805DA021201380EDA021201DA
:1004D30038D5DA0212013891FF02120138E3A8037A
:1004E300120138699F031201389F9F03120138D309
:1004F3009F0312013820A103120138FFAC0312013C
:100503003815AD031201381FAD0312013869AD036D
:100513001201387BE9021201388EE9021201384FC9
:10052300EA021201388EEA02120138ABEA02120122
:1005330038E4EA0212013831EB0212013863EB02AC
:100543001201389AEB02120138A3ED02120138DAD4
:10055300A903120138FDA9031201382CAA031201C1
:10056300386EAA03120138BDB60212013878BC02F4
:1005730012013848BD02120138B1BD02120138D749
:10058300BE02120138F3F6021201386EF7021201AD
:1005930038B8F702120138DDF802120138F2F90215
:1005A30012013874FA021201383E9403120138839F
:1005B3009403120138989403120138F29403120140
:1005C300387C95031201382796031201385E96038F
:1005D3001201385EA60312013883A603120138B351
:1005E300A603120138859103120138CA910312013F
:1005F30038DD91031201382192031201385E920310
:10060300120138369303120138059403120138FDA1
:1006130098031201384299031201385599031201C4
:1006230038719903120138AF99031201381E9A03E6
:10063300120138089B03120138FCAF031201385A28
:100643008201120138388401120138D78501120161
:100653003882860112013802870112013887870127
:10066300120138B087011201388B8B011201380255
:100673008C01120138198D01120138538D011201B9
:1006830038948D01120138DB8E01120138318F014C
:100693001201387A8F01120138E98F01120138559E
:1006A30090011201388690011201389E90011201C7
:1006B30038B79101120138C791011201387D9301B6
:1006C300120138949301120138C69301120138685C
:1006D3009501120138FC95011201388EAB0312010A
:1006E300389AAB0312013837AC0312013852B00306
:1006F30012013891B003120138E6B00312013849F0
:10070300AC0312013859AC0312013868AC0312016F
:1007130038F9AC03120138E1A70312013866A803C4
:10072300120138CAA803120138EF7F00120138E61C
:10073300FF01120138F6FF01120138F9FF0112011E
:1007430038F87F00120138419B03120138CB9C0318
:100753001201382C9D03120138729D0312013830A7
:10076300AF0312013861AF031201388EAF031201D8
:1007730038C6A40312013818A5031201388BA50348
:10078300120138F8A503120138B69603120138E0B6
:100793009603120138AF97031201388B98031201A5
:1007A300381DBF02120138E9BF021201382AC00204
:1007B30012013864C002120138C2C0021201381695
:1007C300C10212013874C1021201380AC2021201B5
:1007D3003812C3021201389CC4021201383AC5020E
:1007E300120138A1C502120138B4C502120138A89A
:1007F300C602120138F1C602120138A1F00112013A
:1008030038D3F30112013864F501120138BBF50145
:10081300120138D8F50112013858F601120138D403
:10082300F701120138A3F80112013810FC0112017B
:1008330038FAFC0112013813A3031201382AA30367
:1008430012013859A30312013892A303120138BAD3
:10085300A303120138E8A303120138FFA303120113
:100863003816A4031201382CA40312013853A4032D
:1008730012013866A4031201387CA4031201388FD5
:10088300A403120138B4A40312013811A402120103
:100893003810A50212013845A50212013866A502D7
:1008A30012013876A50212013897A502120138A366
:1008B300A60212013870A702120138E3A70212013F
:1008C3003869A802120138ACA802120138E3A80261
:1008D30012013869A9021201383BAA0212013899A0
:1008E300AA02120138B1AA021201382BAB0212017B
:1008F300382EAB0212013831AB02120138D8AB02E9
:10090300120138F0AB0212013820AC021201384058
:10091300AC021201382EAD02120138E4AD0212010D
:1009230038D3E402120138FBE40212013829E5024C
:1009330012013860E502120138C8E50212013811CC
:10094300E6021201385CE6021201389AE60212014D
:1009530038D7E60212013805E702120138ACE70284
:10096300120138B6E702120138C3E702120138F662
:10097300E702120138B8E802120138C4E802120192
:1009830038DCE802120138E6E802120138B7AA039C
:10099300120138C5AA03120138DDAA03120138F582
:1009A300AA03120138EBA90112013889AA01120125
:1009B3003801AB0112013816AC0112013850AC01F9
:1009C300120138F9AC01120138CEAD0112013832EF
:1009D300AF0112013889AF0112013810B0011201C1
:1009E30038F7B00112013844B101120138D2B10114
:1009F300120138F6B101120138CBB3011201380CE0
:100A0300B4011201382EB401120138AFB40112013E
:100A13003899B5011201385FB60112013870CE0260
:100A230012013842CF02120138EBCF021201382EE5
:100A3300D002120138BBD00212013847D102120191
:100A43003828D20212013857D20212013853D30286
:100A53001201389BD3021201389DD402120138E1EE
:100A6300D40212013807D5021201382AAE0312014B
:100A730038EC8303120138028403120138288403FB
:100A83001201385085031201385A8503120138B315
:100A93008603120138B3870312013803DB02120104
:100AA3003838DC021201386BDC02120138B5DC0283
:100AB30012013873DE021201387A6F00120138DD39
:100AC3006F001201382271001201383271001201D5
:100AD30038557100120138A07100120138457200B7
:100AE3001201383B73001201380574001201387D7E
:100AF3007500120138BF75001201385D76001201CE
:100B030038AA7600120138D07600120138BE780078
:100B1300120138C37800120138A47A00120138F8A0
:100B23007A001201385A7B00120138827B001201CD
:100B330038267C00120138E87C00120138197D0048
:100B43001201381C7D00120138647D00120138A6A1
:100B53007D001201380D7E0012013890FD01120153
:100B630038A3FD01120138BCFD0112013807FE0153
:100B7300120138E2FE0112013871FF01120138BC83
:100B8300FF011201380029001201380C290012015B
:100B9300384529001201388A2900120138412A00F8
:100BA300120138C72A00120138F32A001201382C27
:100BB3002B00120138402D001201381C2F001201A6
:100BC300380731001201383E32001201389E3400DA
:100BD3001201388A3500120138D03600120138DD8F
:100BE3003700120138FA3700120138323800120187
:100BF300384C3800120138B438001201384E3D0029
:100C0300120138EF3D00120138403E0012013867EF
:100C13003E00120138B53E00120138D33E001201E6
:100C230038273F001201382F4000120138B7400027
:100C330012013829E00212013833E002120138FEB2
:100C4300E00212013819E1021201383FE1021201F8
:100C53003883E102120138BBE102120138E4E102F8
:100C63001201385DE20212013872E2021201388782
:100C7300E202120138BEE202120138D2E20212018C
:100C83003803E3021201383DE30212013869E3023B
:100C9300120138BFE30212013813E4021201385C77
:100CA300E40212013886E402120138ABE4021201B5
:100CB30038008003120138CA8003120138AD810362
:100CC300120138238203120138658203120138921C
:100CD30083031201380080021201382980021201B5
:100CE300384280021201388781021201386582027C
:100CF300120138848202120138118302120138541E
:100D03008302120138A184021201384085021201C4
:100D130038BF87021201385688021201382A890225
:100D23001201380C8A02120138788B021201380B37
:100D33008C02120138D77E00120138407F00120165
:100D430038947F00120138BB7F001201389EF202F3
:100D53001201380BF30212013856F3021201384B19
:100D6300F40212013847F50212013831F60212017A
:100D7300384FAE0212013891AE021201386BAF0246
:100D830012013844B0021201383FB1021201381E79
:100D9300B2021201388AB20212013851B3021201AF
:100DA30038BCB30212013823B4021201384EB40224
:100DB300120138BFB40212013852B502120138BB16
:100DC300B502120138D0B50212013818B602120169
:100DD3003831B60212013896B60212013899B602BA
:100DE3001201388B8E03120138B38E03120138F1CE
:100DF3008E03120138AF8F031201381A90031201C8
:100E0300383690031201385E90031201388E900336
:100E13001201389D90031201381791031201383DD6
:100E2300910312013812C701120138EFC8011201F0
:100E330038EACA01120138BDCB0112013808CC01CE
:100E430012013853CC0112013865CC01120138A5C7
:100E5300CC01120138DACC0112013826CD0112017E
:100E63003855CD0112013878CD01120138C5CD01B5
:100E73001201384ECE011201385BD00112013846FF
:100E8300D20112013889D201120138EED3011201C5
:100E9300382FD401120138A2D401120138EED40143
:100EA30012013819D501120138828C02120138ADB2
:100EB3008C02120138949302120138B89502120180
:100EC30038739702120138D098021201381E41007C
:100ED300120138B54100120138E2410012013828ED
:100EE3004200120138674300120138FE4400120128
:100EF300387845001201389345001201380846003E
:100F03001201383747001201389248001201389411
:100F13004900120138F14A001201380A4B0012014C
:100F230038674B00120138494C001201387C4C00E1
:100F3300120138EC4C00120138664D00120138B52D
:100F43004D00120138814E00120138864F00120104
:100F530038655000120138F050001201385E51001C
:100F6300120138D25100120138FB5100120138BA74
:100F73005200120138345400120138515400120146
:100F830038705400120138015500120138265500FB
:100F93001201384E5500120138C955001201382389
:100FA30056001201387757001201383458001201E5
:100FB3003807590012013843D50112013893D5017E
:100FC3001201389FD5011201387CD601120138ACC9
:100FD300D601120138E4D60112013863D701120198
:100FE300389BD701120138EDD7011201382AD801F5
:100FF3001201384FDA011201387BDC011201387615
:10100300DE0112013851E001120138EC7F001201B8
:10101300383A9601120138849601120138639C0113
:10102300120138E49D0112013843A4011201383E34
:10103300A5011201387BA5011201389EA5011201F9
:1010430038E0A501120138E9A501120138F3A50121
:10105300120138DFA601120138D3A7011201383576
:101063005900120138AD6300120138B36300120155
:1010730038BF6A00120138BD870312013853880351
:10108300120138698803120138E3880312013839E1
:101093008903120138778903120138D489031201B5
:1010A30038518A031201385A8A03120138668A03B7
:1010B300120138798A03120138B58A03120138CB39
:1010C3008A031201382A8B0312013845FB021201ED
:1010D3003852FB021201386CFB02120138ABFB02DF
:1010E300120138E9FB021201384EFC021201386387
:1010F300FC021201386EFC021201387BFC02120161
:101103003892FC02120138A0FC02120138ABFC0237
:10111300120138B7FC02120138C6FC02120138D1A1
:10112300FC02120138F4FC021201389DFD02120187
:1011330038ADFD02120138C7FD02120138E4FD0289
:1011430012013800FE0212013825FE021201382F67
:10115300FE0212013843FE0212013862FE0212013E
:1011630038C3FE02120138C9FE02120138CFFE0253
:10117300120138D5FE02120138E1FE0212013814C1
:10118300FF0212013817E30112013899E30112013A
:101193003842E4011201388AE50112013898E70167
:1011A3001201387EE801120138B3E801120138D583
:1011B300E8011201387EE9011201384EEB011201F8
:1011C3003877EB01120138EFEB0112013821EC0102
:1011D3001201382EEC0112013879EC011201389D0D
:1011E300EC01120138EEEE01120138F8EF011201A1
:1011F3003854F00112013894B801120138A5B9012D
:1012030012013889BA0112013893BA01120138B5B3
:10121300BA01120138C1BA0112013865BC011201C9
:101223003892BC01120138A8BD01120138FDBD017D
:101233001201384CBF0112013821C0011201387D5F
:10124300C001120138E8C0011201381DC1011201A9
:101253003860C1011201382AC40112013842C401A5
:10126300120138D3C401120138E1C4011201382E2E
:10127300C5011201383CC501120138A8C50112018C
:101283003823C6011201387AC601120138F39802D5
:10129300120138159902120138269B02120138E512
:1012A3009D021201380F9F02120138CD9F021201D5
:1012B30038B9A0021201385AA1031201387FA103E1
:1012C300120138F5A10312013853C7021201385C29
:1012D300C70212013865C7021201383DC802120164
:1012E30038EEC9021201381ECA0212013849CA0275
:1012F30012013879CA02120138A4CA02120138D87D
:10130300CA0212013804CB0212013847CB02120180
:101313003872CB02120138B9CB021201380ECC025B
:1013230012013850CC02120138AACC02120138D56E
:10133300CC0212013824CD0212013854CD0212011D
:10134300387FCD02120138ADCD02120138D0CD0263
:10135300120138B3AE03120138DFAE031201380CA9
:10136300AF0312013816AF0312013826AF0312017F
:10137300389BB003120138C8B003E066701008A3AD
:10138300E066700A08A3E066700408A3E06622C062
:1013930008C3E096F50808A3E096420808A3E09680
:1013A300420808A3E0964208A2D265D033E508704C
:1013B30001D3D00822C3E7960809E7960809E79600
:1013C3000809E79622C3E09608A3E09608A3E096EF
:1013D30008A3E09622C008C3E096F50808A3E096A8
:1013E300420808A3E096420808A3E0964508700166
:1013F300D3D00822080808E630E711121832121475
:101403000F080808C64480C618181822181818E9C7
:10141300799EC608CAC608CBC608CCC6C370207955
:1014230096CACBCC7019798ECBCC70137986CC70DD
:101433000EF9802ACA33CACB33CBCC33CC33193021
:10144300E7F2CCCBCA3350147004EA30E00DE4CA9F
:101453003ACACB3BCBCC3CCC500209C3E913C6CC34
:10146300182313C6CB18C6CA18C6F9221214AF2004
:10147300F01430E72B74FFFCFBFA747F8022E4FC4A
:10148300FBFA7480801AB48008BC00F2BB00EF80C2
:101493000F50EBF9E4C39AFAE49BFBE49CFCE49958
:1014A300C6CC18C6CB18C6CA18C6F922E4C9C608E2
:1014B300CAC608CBC6D3330308CCC63392F0C39451
:1014C3007F402E94184019C9B90704CACBCC2250C7
:1014D30025C309CA33CACB33CBCC33CC33D9F4229B
:1014E300F4600DC9CCC313CB13CBCA13CAD9F6CC42
:1014F30022E4FCFBFA2214FCFBFA22E6C33318466F
:101503001846184622E7C3331947194719472218C3
:101513001818E6084608700AE608C3337005E63370
:10152300F4220822191919E7094709700AE709C3C0
:10153300337005E733F4220922E6084608C313464D
:1015430008336002E633F422E7094709C313470966
:10155300336002E733F4220012153C604F12154B3F
:101563006012E7548066F612151270111215087096
:101573003B090909F4F618F618F618F6221215278E
:1015830070151214FE08080860EAE6447FF6187620
:101593008018E4F618F6221214FE6016121508706D
:1015A30012E4F608F608F608E65480F60909091865
:1015B300181822EAC0E0EBC0E0ECC0E0EDC0E0E6C2
:1015C30087F0A4FBACF008E687F0A42CFCE435F02C
:1015D300FA1809E687F0A42C4B60027401CA35F0AF
:1015E300FCE433FB09E687F0D2F7A42CCB35F0FCFF
:1015F3001908E687F0A42BCC35F0FBE433FD08197A
:10160300E687F0D2E7A42C4ACB35F0CD3400FC09B1
:10161300E687F0D2E7A42DCC35F0FDE433FA0918C0
:10162300E687F0D2F7A42CCD35F0CA3400FC08E6E7
:1016330087F0D2E7D2F7A42ACC35F07A7E20E70BE5
:101643000ACB33CBCD33CDCC33CC33CB3350147027
:1016530004ED30E00ED2F1E4CD3DCDCC3CCC3B509B
:1016630005DA05C2F1EB547FC63308E63392F0FB8B
:10167300E73309E733C39A502D2B70190C0D4C4DEA
:1016830070151806E608C333700D20F10AA2F01393
:10169300F6E418800B4024E4F630F002768018F666
:1016A30018F618F68024D33B14501074FFA2F013DD
:1016B300F6187680E418F618F6800FA2F013F618E1
:1016C300E63303F618ECF618EDF6D0E0FDD0E0FCB7
:1016D300D0E0FBD0E0FA22080808EAC0E0EBC0E063
:1016E30086F0E7A4FA180986F0E7A42AFA1809860F
:1016F300F0E7A42AFA180986F0E7A42AFA1986F073
:10170300E7A4FBE5F02AFA190886F0E7A42BFBE52A
:10171300F03AFA190886F0E7A42BFBE5F03AFA1839
:10172300180986F0E7A4C5F02BFBE43AFA1908E799
:10173300C5F0C6A426F6E5F03BFBE43AFA1886F0BA
:10174300E7A4F6E5F00826F6E43B08F6E43A08F6E3
:10175300D0E0FBD0E0FA22E4CFC0E0E4CEC0E0E486
:10176300CDC0E0E4CCC0E075F020C3E633F608E674
:1017730033F608E633F608E633F6181818EC33FCAC
:10178300ED33FDEE33FEEF33FFC3EC9709ED97091D
:10179300EE9709EF97191919400FFFEC97FC09ED24
:1017A30097FD09EE97FE191906D5F0BEECF709ED82
:1017B300F709EEF709EFF7191919D0E0FCD0E0FDAE
:1017C300D0E0FED0E0FF2212183518181812175A6D
:1017D30012182119191922121821191919080808A0
:1017E300E618181820E7E012175A121835181818B7
:1017F30022090909E719191920E7DC080808E6187E
:10180300181820E70302175A121835181818121758
:101813005A12183518181812182119191922E4C365
:1018230097F709E497F709E497F709E497F722187C
:101833001818E4C396F608E496F608E496F608E466
:1018430096F6226016080808C6C313C618C613C640
:1018530018C613C618C613C6D5E0EA2270090808CD
:1018630008226016181818C6C333C608C633C6083C
:10187300C633C608C633C6D5E0EA22E627F608090A
:10188300E637F60809E637F60809E637F622E026D2
:10189300F608A3E036F608A3E036F608A3E036F62A
:1018A30022E026F008A3E036F008A3E036F008A310
:1018B300E036F022C3E697F60809E697F60809E64C
:1018C30097F60809E697F622C3E0C696F608A3E062
:1018D300C696F608A3E0C696F608A3E0C696F622D7
:1018E300C3E096F008A3E096F008A3E096F008A3FF
:1018F300E096F022E056F608A3E056F608A3E05679
:10190300F608A3E056F622E056F008A3E056F008E6
:10191300A3E056F008A3E056F022E0F608A3E0F6B1
:1019230008A3E0F608A3E0F622E6F008A3E6F00831
:10193300A3E6F008A3E6F022E0FAA3E0FBA3E0FCB1
:10194300A3E0FD22EAF0A3EBF0A3ECF0A3EDF02279
:10195300CAC0E0E6F0A308DAFAD0E0FA22CAC0E08F
:10196300E0A3C582CCC582C583CDC583F0A3C58260
:10197300CCC582C583CDC583DAE6D0E0CA22C3E4F1
:1019830098F8E499F91219C28026C3E49AFAE49B01
:10199300FBE920E7E91219C2E498F8E499F922C3B4
:1019A300E498F8E499F91219C2E498F8E499F9C3B0
:1019B300E49AFAE49BFB22EB20E7CFE920E7E0B9C6
:1019C3000010BB0008E88AF084F8AAF022E4FBC800
:1019D300FA22EB70227B10C833C8C933C9335007CE
:1019E300C39AC3DBF280069A50012ADBEAC833F4B8
:1019F300C8C933F4C9FA2275F008E4C833C8C93337
:101A0300C933C99AC99B5004C92AC93BD5F0ECFB19
:101A1300C833F4C8E4C9FA22600D08C6A2E713C6A6
:101A230018C613C6D5E0F322600C08C6C313C61844
:101A3300C613C6D5E0F422700422600D18C6C33362
:101A4300C608C633C6D5E0F41822251810AF08F52A
:101A530018400215198008F51840021519D2AF2253
:101A6300C0D0251810AF08F518500205198008F5E5
:101A73001850020519D2AFD0D0222518F58210AF25
:101A830008F518400215198008F51840021519D2F7
:101A9300AF851983222518F582E43519F58322E4ED
:101AA300732518C582C0E0E51934FFC583C0E0E59E
:101AB30018C3958224F810AF08858319858218808E
:101AC30008858319858218D2AFCEF0A3E520F0A351
:101AD3007808E608F0A3DEFAEFF0A3E58124FAF82C
:101AE300E608F0A3E608F0A3E608F0A30808E60872
:101AF300F0A3E608F0A315811581D0E0FED0E0F84D
:101B0300158115811581E8C0E0EEC0E0222518C5D6
:101B130082C0E0E51934FFC583C0E0E518C39582B0
:101B230024F910AF088583198582188008858319E5
:101B3300858218D2AFCEF0A3E520F0A37808E6089B
:101B4300F0A3DEFAEFF0A3E58124FBF8E608F0A3A7
:101B5300E608F0A30808E608F0A3E608F0A3158159
:101B63001581D0E0FED0E0F815811581E8C0E0EEE4
:101B7300C0E022851983851882E0A3FEE0A3F52047
:101B83007808E0A3F608DFFAE0A3FFE0A3C0E0E0F3
:101B9300A3C0E0E0A3C0E0E0A3C0E0E0A3C0E01086
:101BA300AF08858218858319800885821885831973
:101BB300D2AFD083D082020135851983851882E0A4
:101BC300A3FEE0A3F5207808E0A3F608DFFAE0A37C
:101BD300FFE0A3C0E0E0A3C0E0E0A3C0E0E0A3C057
:101BE300E010AF08858218858319800885821885DF
:101BF3008319D2AFD083D08222C0D02518C582C02A
:101C0300E0E51934FFC583C0E0E518C3958224F3EA
:101C130010AF08858319858218800885831985820A
:101C230018D2AFC8F0A3E9F0A3EAF0A3EBF0A379CD
:101C330008E709F0A3D8FAECF0A3EDF0A3EEF0A3C4
:101C4300EFF0A3D0E0F0A3D0E0F0A3D0E0F0A3E561
:101C530020F0A3E5F0F0A322851983851882E0C064
:101C6300E0A3E0F9A3E0FAA3E0FBA37808E0F60819
:101C7300A3DFFAE0FCA3E0FDA3E0FEA3E0FFA3E003
:101C8300C0E0A3E0C0E0A3E0F5D0A3E0F520A3E02B
:101C9300A3F5F010AF088583198582188008858322
:101CA30019858218D2AFD082D083D0E0F8D0E03249
:101CB30074048006740280027401C0E0F404121AF2
:101CC3007DD0E0121953227404800474028000CC86
:101CD300C0E0EDC0E0E518C39CCCAD1950011D1068
:101CE300AF068C188D1980068C188D19D2AF121976
:101CF30060D0E0FDD0E0FC22D083D082E9C0E0E4F4
:101D030093A3C386F0C5F095F0F908E493A386F096
:101D1300C5F095F0700BE493A3C3994005E90480E3
:101D230002A3E475F002A42582F582E5F03583F57C
:101D330083D0E0F9E493A3C0E0E493C0E022D0832E
:101D4300D082ECC0E0EDC0E0E493A3FCE493A3FDF8
:101D5300ED4C600D121D8DEC24FFFCED34FFFD8076
:101D6300EFE493A3FCE493A3FDED4C600D121DCCB3
:101D7300EC24FFFCED34FFFD80EFD0E0FDD0E0FC70
:101D8300E493A3C0E0E493C0E022C0E0C3E49396ED
:101D9300087401939618400FE49366700808740161
:101DA30093661870007019A3A3C3E4939608740193
:101DB300939618A3A3400DD0E0D0E0D0E0021D7DA0
:101DC300A3A3A3A3A3A3D0E022C0E0C0F088F0E4C0
:101DD300936670080874019366187000A8F0A3A3B3
:101DE300700BD0F0D0E0D0E0D0E0021D7DA3A3D0F3
:041DF300F0D0E0222A
:101DF800C0E074F2121BFCA2AFE433FEC2AFE58967
:101E0800A2E150085389FDC2C512044DEEA2E0922A
:101E1800AF7F01021C5BC0E0C0D0E8C0E0E5A8D2FB
:101E2800AFC2C7751A00A2E792AFD0E0F8D0D0D001
:101E3800E03274F5121B10EAFEEBFFEE2434F8EFE3
:101E48003400F988088909EE2435F582EF3400F565
:101E580083E0F8EE2437F582EF3400F583E0F50AE5
:101E6800EC850AF0A4FCAAF0850AF0EDA42AFDE8A6
:101E78002CF8E43DF97A257B001219C2EA8508821C
:101E8800850983F05407F87401B800028004C3334D
:101E9800D8FCC0E0E0131313541FF8EE28F8EF3411
:101EA80000F9E8245DF582E93400F583D0E0F8E034
:101EB800586008EE2434F582EF801EEE2436F58251
:101EC800EF3400F583E0F5F0EA84A8F0EE28F8EFA7
:101ED8003400F9E82438F582E93400F583E0F97F25
:101EE80004021BBC74F5121B10EAFEEBFFEE24344F
:101EF800F582EF3400F583E0C0E0EE2435F582EF9B
:101F08003400F583D0E0F08E828F83A3A3A3A3A32C
:101F1800A3A3C082C0838E828F83A3A3A3A3A3E0BD
:101F2800F8A3E0F9D083D082E0C398F508A3E0993C
:101F3800F509EE2480F582EF3400F583E064017042
:101F480069EE2481F582EF3400F583E0F8A3E0F927
:101F58008E828F83A3A3A3A3A3A3A3E0FCA3E0FD86
:101F68008E828F83A3A3A3A3A3E0FAA3E0FBC3EA13
:101F78009CEB9D5027C3EC98ED99402EC3EA98EB53
:101F88009950277C697D08EEFAEFFB120F69EE2461
:101F980080F582EF3400F583E4F0800EC3EA98EB15
:101FA8009940E0C3EC98ED9950D9EE2434F8EF3419
:101FB80000F9E8FCE9FDEE2435F582EF3400F583FD
:101FC800E0F8EE2437F582EF3400F583E0F50AE512
:101FD80008850AF0A4F508AAF0850AF0E509A42AFC
:101FE800F509E82508F8E43509F97A257B0012197E
:101FF800C2EA8C828D83F05407F87401B80002801D
:1020080004C333D8FCC0E0E0131313541FF8EE28C0
:10201800F8EF3400F9E8245DF582E93400F583D05F
:10202800E0F8E0586008EE2434F582EF801EEE24D4
:1020380036F582EF3400F583E0F5F0EA84A8F0EE97
:1020480028F8EF3400F9E82438F582E93400F583FC
:10205800E0F91228E9021EE7C082C083851882854C
:102068001983E0F8A3E0F9C3EA9CEB9D5012C3EC96
:1020780098ED994019C3EA98EB99501279018010AC
:10208800C3EA98EB9940F5C3EC98ED9950EE7900C6
:10209800D083D08222EAC39CFAEB9DFB2200000089
:1020A8008521878522C622C0E0C0D0E8C0E0E9C00B
:1020B800E0EAC0E0EBC0E0ECC0E0EDC0E0C008C082
:1020C80009C00AC00BC082C083C0F0759B00906134
:1020D80082E0A2E6400302218DE591A2E6400302D8
:1020E800218D7591BF90072EE0640570081210A12C
:1020F8001210AD80031210A7752100121107E99084
:10210800072FF079001210FB120EDF7A017B009086
:10211800072DE0F91204AD907803E06442600302F1
:1021280021D69008CBE014F060030221D6C2AF128A
:10213800213A00782AD0E0F618D0E0F6E59F540757
:10214800F970059081A88003908198780812191D6C
:10215800E9C4C0E07829E65508F50808E65509F508
:1021680009740B7808121A2BD0E02508F8906270D1
:10217800E0A2E740F8E8C333906272F0906270E042
:10218800D2E0F08049E0A2E55024E591A2E5501E96
:102198007591DF90072EE0640D7013900750E004EE
:1021A800F064287002E4F07A00E0F9121179906185
:1021B80081E0A2E35009E5E9A2E3500375E9F7A33A
:1021C800E0A2E75009E591A2E7500375917FD0F0AE
:1021D800D083D082D00BD00AD009D008D0E0FDD06F
:1021E800E0FCD0E0FBD0E0FAD0E0F9D0E0F8D0D0C5
:1021F800D0E032C0E0C0D0C082C083906183E0A24A
:10220800E05009E5BFA2E0500375BFFEE0A2E1502F
:1022180009E5BFA2E1500375BFFDE0A2E25009E560
:10222800BFA2E2500375BFFBE0A2E35009E5BFA2DD
:10223800E3500375BFF7E0A2E45009E5BFA2E450FC
:102248000375BFEFE0A2E55009E5BFA2E5500375AD
:10225800BFDFE0A2E65009E5BFA2E6500375BFBFA5
:10226800D083D0828088C0E0C0D0E8C0E0E9C0E078
:10227800EAC0E0EBC0E0ECC0E0EDC0E0C0F0E5A7EC
:10228800A2E6500FE5A1A2E6500953A7BF75A1BF6A
:102298001222D3E5A7A2E5500CE5A1A2E55006530A
:1022A800A7DF75A1DFE5A7A2E15009E5A1A2E150EA
:1022B8000375A1FDE5A7A2E2500CE5A1A2E2500634
:1022C80053A7FB75A1FBD0F00221E474F8121B1090
:1022D80075210190072EE0640670151210358A8268
:1022E8008B83A3A3A3A3A3A3E0FAA3E0FB12108FFD
:1022F800A2AFE433FED2AF900734E0640170187ADD
:10230800207B0090072DE0F91205377A207B00909A
:10231800072DE0F91204B3906182E0D2E6F090084C
:10232800CAE0602185C6228016900733E0640170F8
:1023380008E5C654F84405F5C653BEFC1220A87437
:1023480001652160E4EEA2E092AF7F01021BBC00B0
:102358008E238F2485822885832785188285198373
:10236800E0CEA3E0CF852882852783EBC9EAC8EDB4
:10237800CBECCA75F010C3E833C8E933C9EA33CAED
:10238800EB33CBC3EA9EF526EB9FF525B35004ABA0
:1023980025AA26EC33CCED33CDD5F0DAAE23AF2425
:1023A8002274EB121B1074FA121A4D8A088B098CCE
:1023B800148D1590072EE024F7C3940550069082DB
:1023C8000002250B1210358A0A8B0BAE0AAF0BEEF2
:1023D8004F7003022508AC08AD098518828519835A
:1023E800AA82AB831210BF8E828F83A3A3780812B0
:1023F800191D9081CC78081218F7851882851983E1
:10240800780C12191D9081CC780C1218F77808797D
:102418000C1213B8501F7808790C1218B790816401
:1024280078081213D84047850810850911850A12C3
:10243800850B138041850C10850D11850E12850FB3
:1024480013781079081218B790816478101213D88D
:10245800501C751000751100751200751301781065
:10246800790C1218B77810790812187E80089082B3
:1024780000781012191D7409781012185F9081687D
:10248800780812191D7810790812175A8E828F83CE
:10249800A3A3A3A3A3A3E0F8A3E0F97AD07B031234
:1024A80019C288088909E4F50AF50B781079081229
:1024B800187E7404121A98E0F8A3E0F97AD07B0326
:1024C8001219C2E8FA8A08E4F50978107908121393
:1024D800B85007781079081218B790072EE06408EA
:1024E800600AE064066005E06405701C90816C7801
:1024F800101213D850129081707810121891800819
:10250800908214781012191D85148285158378100D
:1025180012192C7406121A637F0E021BBC74F71270
:102528001B101210D19008C8E06401701090624529
:10253800E4F0A3F053F4F343FE0C5390F312107D30
:10254800E5C654804449F5C6E59E547F644970F851
:10255800906185740FF09008C6E0F47002A3E06003
:102568004E9008C7E0600814601B14602E80407508
:1025780008017509009008C6E07808121A3AE508BB
:10258800F45280802A7508017509009008C6E07821
:1025980008121A3AE508F452908014750801750972
:1025A800009008C6E07808121A3AE508F452A079B3
:1025B800007F02021BBC74F7121B10E9FEEAFF74CD
:1025C800016E700C7A807B0090072DE0F91204AD43
:1025D8009028F8E493F46008E493F9120ED3800984
:1025E80053C680E59E547F70FA1210839008C8E0A5
:1025F80064017003120EEB9008C6E0F47002A3E0C9
:10260800604B9008C7E0600814601A14602C803D85
:102618007508017509009008C6E07808121A3AE5AD
:1026280008428080287508017509009008C6E0787E
:1026380008121A3AE50842908013750801750900D6
:102648009008C6E07808121A3AE50842A01210D19C
:102658001210358A088B09A808A909E8496015E508
:10266800E170FCE82414F582E93400F583E0F460B5
:1026780003E0F5E174016F700A7A0190072DE0F923
:102688001205070225B974F1121B108A088B098CF0
:102698000A8D0B740F121A98780C12191D9081CCA0
:1026A80078081218F79081CC780C1218F778087906
:1026B8000C1213B850157808790C1218B790816469
:1026C80078081213D8401579018013780C7908120C
:1026D80018B7908164780C1213D840EB79007F0802
:1026E800021BBC74ED121B108A088B098C0A8D0B17
:1026F8007413121A98780C12191D9081CC7808124C
:1027080018F79081CC780C1218F7780C7908121306
:10271800B840117808790C1218B7AA08AB09AC0AA6
:10272800AD0B80227510007511007512007513012C
:102738007810790C1218B77810790812187EAA1038
:10274800AB11AC12AD137F0C021BBC9081CC780886
:1027580012191D8A828B83780812190A7F04021BBA
:10276800BC74F5121B108C828D83780812191D8A8F
:10277800828B8378081218E3EA2404F8EB3400F912
:102788008C828D83A3A3A3A3E0FCA3E0FD888289A8
:1027980083C3E09CF0A3E09DF088828983C3E09422
:1027A80020A3E0944E402290820C780812191D8ACA
:1027B800828B8378081218A48A828B83A3A3A3A38D
:1027C800E02420F0A3E0344EF0808074F5121B1052
:1027D800E9FE900880E0FAA3E0FBEEC333F8E433A7
:1027E800F9749128F582748039F583E02AF508A3F5
:1027F800E03BF5097808121CB79081A412193B1226
:1028080023587402121A638A088B098C0A8D0B7478
:10281800107808121846AA08AB097F04021BBC747A
:10282800F1121B108A0C8B0D8C0E8D0F740F121A5F
:1028380098E0FAA3E0FB7411121A98E0F508A3E0F7
:10284800F5097413121A98E0FEA3E0FF7808121C29
:10285800B7EA2401F508EB3400F509E4F50AF50BAD
:10286800780C79081216DA908174780812191D7894
:102878000C79081216DAAA0CAB0DAC0EAD0F1223A8
:10288800587402121A638B09EA450960047A0180B8
:10289800027A00EC2AFCED3400FDECF8EDF97A71CF
:1028A8007B021219C288088909E4F50AF50B8E82A1
:1028B8008F83780812192CECF8EDF97A717B0212E3
:1028C80019C28A088B0974057808121A3A8E828F01
:1028D80083A3A3A3A3E508F0A3E509F07F08021BDF
:0F28E800BCC082C083E9906000F0D083D0822210
:1028F800FFFFFFFFFFFFFFFFC082C083E9900CE2EC
:10290800F0022B1F74F7121AA4E990064CF07C848D
:102918007D067AFF7BFF120C0F90064D74FFF0A323
:10292800F0A3E4F0A3F07905120B9D90064CE0F9B2
:10293800120AC57A277B0C120DE902382D74F4129D
:102948001AA48A088B09EB5480603090064CE0F991
:102958001204958A0A8B0BAE0AAF0BEE4F60138EEA
:10296800828F83E064B07003120BAFEEFAEFFB12B4
:102978000483AA08E5096480FB80047A007B0002CE
:102988002AEE74F2121AA474FC121A4DEAFEEBFF36
:102998007412121A98123D14EE4F7003022A2D7405
:1029A80002121A98EEF0A3EF122D29ECF0A3ED1203
:1029B8002D29AA82AB83120ABFE9F50A706AE508D5
:1029C800450960648E828F83123CFAEE4F60567A16
:1029D800067B001204EF8A0C8B0DA80CA90DE849A0
:1029E8007005750A13804188828983E4122A3AEEB9
:1029F800F0A3EF123D25E508F0A3E509F090065293
:102A0800122AC190065270051237D7801B1237C59B
:102A18008003EAFCEBFD8C828D83122AC170F38C53
:102A2800828D8380E3750A02A90A7404121A63026C
:102A38003F14F0A3123CCBA32274F2121AA4890A01
:102A4800E975F017A4FEAFF0900651E4F090064F38
:102A5800122AC1600A1204F590064FE4F0A3F0EEC2
:102A6800FAEFFB1204EF8A088B09EA4509602FEE9A
:102A7800FCEFFD790012047190064FE508F0A3E51C
:102A880009F07B008008122AABE4F0A3F00BEBC33B
:102A9800950A40F2E50A900651F079008002791310
:102AA800023F14EB75F017A4F8A9F090064FE02840
:102AB800FAA3E0398A82F58322123469EA4B227438
:102AC800F4121AA47900EAA2E0501B75085475099B
:102AD800817808121CB77C047D007AE47B0C120B09
:102AE800977402121A637F04021B76C082C0839017
:102AF8000652122B26601C88828983A3A3E06A7081
:102B080003A3E06B8882898370E8A3A3A3A312348C
:102B18006580047A007B00D083D082020135123FA1
:102B2800FAE8492274EE121AA474FC121A4DEAFE4D
:102B3800EBFF851882851983E4F0A3F0EE240212D6
:102B480037B7EE2405123CD2EE2404F50EEF12300E
:102B5800DEE024FE603924FC604624FE605224FE38
:102B6800605E24FE7003022C3F24FE7003022CA337
:102B780024FE7003022CB224FE7003022CC124FC34
:102B88007003022CD024FE7003022CDF022D1C904F
:102B9800066B7417F0A3E4122D3112083D022D1CA8
:102BA800851882851983AC82AD83120BB5022CEC93
:102BB800851882851983AC82AD83120BBB022CEC7D
:102BC800850C08850D097402121A98AC82AD8385AC
:102BD8000882850983123465120AE38A0C8B0DACCE
:102BE8000CAD0DEC4D603BE4F50CF50D780C121CAA
:102BF800B7750C6B750D06780C121CB7750C6C75D7
:102C08000D06780C121CB77408121A98121CCE12F2
:102C1800401E121A63E9F50C700B12345B1208554A
:102C2800800F750C01850882850983122D1F1237C4
:102C3800D7850C08022CEF7402121A98AC82AD8367
:102C4800850C82850D83123230603C850C82850D9F
:102C580083A3A3121CCE75106B7511067810121C75
:102C6800B775106C7511067810121CB77408121A13
:102C780098121CCE12401E121A63E9F509700B1245
:102C8800345B12085B800F750901850C82850D8302
:102C9800122D1F1237D7850908804C85188285198F
:102CA80083AC82AD83120BC1803A85188285198363
:102CB800AC82AD83120BC7802B851882851983AC33
:102CC80082AD83120BCD801C851882851983AC8256
:102CD800AD83120BD3800D851882851983AC82AD24
:102CE80083120BD9E9F508E50860298E828F83A342
:102CF800E06414601F850E82850F83E090066B12D6
:102D08002D29123FF690066C1237D7E508A3122D2D
:102D1800311208370236C6123FFA851882851983A0
:102D280022F085188285198322F07C6B7D06850A3E
:102D380082850B831234692274EE121AA474FC1271
:102D48001A4D8A0A8B0B8C0E8D0FEA2405F508EBB9
:102D58003400F5097C157D0079007A6B7B06120436
:102D680071E5082402F50CE509123CD58518828521
:102D780019838582108583117810121CB785088203
:102D8800850983A3A3A3A3123227121CB7E508243D
:102D980005F510E5093400F5117810121CB7850CFB
:102DA80082850D8312357C120ADD7406121A638A35
:102DB800108B11AE10AF11E50A2402F50AE50B12CB
:102DC80037BAEE4F7003022EFE80177402121A985B
:102DD80012346588828983EAF0A3EBF090066BE0F1
:102DE80004F090066BE0C394054003022EFEE4F560
:102DF80010F5117810121CB775105475110678105B
:102E0800121CB77510557511067810121CB7740688
:102E1800121A98121CCE7910EEFCEFFD1240201207
:102E28001A63E9705E850882850983A3A3A3A3A317
:102E3800A3A3E0F8900654E0687048123227121CE9
:102E4800B77C557D06E5082408FAE5093400FB122D
:102E5800046B7402121A63E960298E828F83A3A31C
:102E6800A3A312346590066BE0F510740278101273
:102E78001A3A746C2510F58274063511F583EAF058
:102E8800A3EBF07402121A988582108583117810CA
:102E9800121CB77402121A98121CCE850C82850D6A
:102EA8008312348B121A638A108B11AE10AF1190F3
:102EB800066BE0F51075110074027810121A3A7456
:102EC8006B2510F874063511F988828983A3122AB4
:102ED800C17003022DCAE82403080808E93400F980
:102EE800EE4F6003022DD38882898374FFF0A3F02C
:102EF80090066BE004F090066BE0600A12345B12F7
:102F080008497900800B8508828509831237CE79B4
:102F18000A0236C674EA121AA474FE121A4D8C12EA
:102F28008D13EA2405F50CEB124008123CFE7508D7
:102F380000750900EA2402F510EB3400F511851834
:102F48008285198385820A85830B780A121CB785C6
:102F58000C82850D83A3A3A3A31230F4121CB7E53A
:102F68000C2405F50AE50D1237BA780A121CB78544
:102F78000C82850D831230F8120ADD7406121A636A
:102F88008A0A8B0BEA450B7003023099EA2404F590
:102F98000EEB1230DE123CFE8A828B83A3A3A3E0E1
:102FA800F985108285118312346F6003023099E429
:102FB800F514F5157814121CB775145475150678A0
:102FC80014121CB77514557515067814121CB774AD
:102FD80006121A98121CCE7913AC0AAD0B85108212
:102FE800851183124026121A63E9F509600302303D
:102FF80099900654E0F8E5087009E0240290066C00
:10300800F0801490066CE0FCE82402FAE43400FB3B
:10301800EA6C7001EB707E850882AA8212321E94D7
:1030280014123216506B850E82850F83E0C0E0744F
:103038006D2A1230D5D0E0F00508850E82850F8301
:10304800A3E0C0E085080A746D250A1230D5D0E0E7
:10305800F005089006541230F4121CB77C557D0612
:1030680085080A746D250A1230E8121A639006540E
:10307800E02508F50874FF6E700374FF6F6012EEA8
:1030880024010EEF3400FFE508C394145003022F07
:1030980046E508601312347985108285118312344D
:1030A8006512084F79008014E509700375090A85CF
:1030B8001282851383EEF0A3EFF0A9097402121AA5
:1030C800637F0E021B7685080C746D250CF58274DF
:1030D800063400F583223400F50F850E82F583222D
:1030E800FA74063400FB120459740222123D342289
:1030F800A3A31230FE221237C5FDEEFAEFFB2274AD
:10310800EE121AA474FE121A4D8C0E8D0FEA2405C5
:10311800F50CEB123CD5750B0090066BE4F0F50A44
:10312800EA2402F508EB3400F509804490066BE0C8
:10313800FA900654E0F812321E9417123216400D17
:1031480090066BE0F87416C398900654F012322774
:10315800121CB77C557D06746C2AFA74061230EB83
:10316800121A63900654E0F890066BE028F0050AFE
:10317800E50C2416F582E50D1230D9E0F8E50AC30E
:1031880098507490066BE0C39416506BE50AC333ED
:10319800F8E433F9E50C28FEE50D39FF851882853A
:1031A8001983AC82AD838E828F831232307008759A
:1031B8000B011237CA8050E4F510F5117810121C73
:1031C800B77510547511067810121CB7751055751F
:1031D80011067810121CB77406121A98121CCE79B0
:1031E80016850882850983124026121A63E9F50BB1
:1031F800700302313480BB7C6B7D068508828509AB
:1032080083123465120861A90B74020236C8E99466
:1032180000C365D03322EA28F8E43400F9E822E054
:10322800F5107511007810221236BD8A108B11AC7A
:1032380010AD11EC4D2274EA121AA474FC121A4D46
:103248008A0C8B0D8C128D13EA2405F50AEB1237C4
:10325800BA750800750900E50A2402F510E50B3473
:1032680000F5117402121A9885820E85830F780E64
:10327800121CB7850A82850B83A3A3A3A3123CDA89
:10328800121CB7E50A2405F50EE50B3400F50F7896
:103298000E121CB78510828511831237C012345F55
:1032A800120ADD7406121A638A0E8B0FAE0EAF0F68
:1032B800E50C2402F50EE50D3400F50F8038888200
:1032C800898374FFF005081230CE74FFF00508906A
:1032D8000654E0F50C750D00780C121CB77C557D72
:1032E8000685080C746D250C1230E8121A639006D6
:1032F80054E02508F508EE4F60278E828F83A3A33C
:10330800A3E0F9850E82850F8312346FEE24041230
:103318003CD2E96027850C82850D8312345112371F
:10332800D7E5087003023437123479850E82850F89
:1033380083123465120867790002344CE4F514F5F9
:10334800157814121CB77514547515067814121CC8
:10335800B77514557515067814121CB77408121A27
:1033680098121CCE7911EEFCEFFD850E82850F8335
:10337800124026121A63E9F509709A850882AA8212
:10338800EA9006547009E0240490066CF08025E069
:10339800F890066CE0F514E82404FCE43400FDEC35
:1033A80065147001ED708112321E941212321640AB
:1033B80003023330850C82850D83E0C0E0746D2AEA
:1033C8001230D5D0E0F00508850C82850D83A3E086
:1033D800C0E01230CED0E012349485820C85830D83
:1033E800780C121CB77404121A98121CCE8510821D
:1033F80085118312348B121A638A0C8B0DAE0CAFB5
:103408000D85080C746D250CF874063400F9EE4F20
:1034180070030232C6851882851983E08882898301
:10342800123494A3E0C0E01230CED0E00232D4E5EA
:1034380009700375090A850A82850B8312345112B3
:1034480037D7A90974040230C6123FFA851282855B
:103458001383227C6B7D06850A82850B831234696F
:1034680022E0FAA3E0FB22123469120ACBE9F5093B
:103478002290066CE0F5F0E5088490066BF07C6B12
:103488007D06221230FE120AE9740422F00508852E
:1034980018828519832274EC121AA474FE121A4D2C
:1034A8008A088B098C0E8D0FEA2405FEEB3400FF89
:1034B8001236A7EE2418123CD2EA450B70030235E7
:1034C8004A123690502912356F8A108B11EA45112D
:1034D800606B7912AC0AAD0B8508828509831234BA
:1034E80065851082851183121AA2E9F50A7058E4DD
:1034F800F50AF50B780A121CB78E828F83A3A3E016
:10350800F50A780A121CB7EE24031237B7780A12A4
:103518001CB78E828F8312357C120BFD7406121A2B
:1035280063E9F50A7021850C82850D83E0701F859B
:10353800088285098312346512086D8011750A0E98
:103548008009750A018004E50A60031237CA850CF0
:1035580082850D83E0600479008002A90A74021252
:103568001A637F0C021B76851882851983123469C9
:10357800120BEB221237C5FD8508828509831234A8
:10358800692274EE121AA474FE121A4D8A088B0965
:103598008C0C8D0DEA2405FEEB3400FF750E00122D
:1035A80036A7EA450B700302366E123690502C127D
:1035B800356F8A0E8B0FEA450F604A7912AC0AAD57
:1035C8000B850882850983123465850E82850F83F1
:1035D800121AA2E9F50E6003023671850882850980
:1035E800831238ACAA0AFB12368270147AFF7BFF6A
:1035F800123682606C88828983E50AF0A3E50BF0B5
:10360800750A008007750E0E805F050A900651E066
:10361800FAE50AC39A504AE50A75F017A4FAABF01E
:1036280088828983A3A3E02AFAA3E03BFB8A828BE2
:10363800831237C0EC4D70D2750A17750B00780AE3
:10364800121CB7EEFCEFFD1204597402121A63EE55
:10365800FCEFFD85088285098312346512087380A2
:1036680014750E098003750E01123FF2850C8285D0
:103678000D831237D7A90E023211120BDF8A108B75
:1036880011A810A911E84922E5082402F508E5095E
:103698003400F5098A828B83A3A3A3E0A2E52285DF
:1036A8001882851983AC82AD838E828F831236BDD2
:1036B8008A0A8B0B22E0FAA3E0FB120AE3227404C5
:1036C800121A637F0A021B7674EC121AA48C108DEE
:1036D80011EA2405F50CEB123CD5750F00EA24021B
:1036E800F50AEB1237BA850A82F58312346512405F
:1036F800AC70030237AC750E008071850C82850DA5
:1037080083E06401704F8E828F83A3A3121CCE8E38
:10371800828F83A3A3A3A3E0F51275130078121276
:103728001CB7EE2405F512EF3400F5137812121CBD
:10373800B712345F120BFD7406121A63E9F50F60B5
:1037480014850C82850D83E4F0123FF28510828582
:1037580011831237D77C177D007900EEFAEFFB1240
:1037680004718E828F83E4F0A3F0050E900651E079
:10377800F8E50EC398501EE50E75F017A4F8A9F0E9
:10378800850882850983A3A31240121237C0EC4D25
:10379800600302370385088285098374FFF0A3F06C
:1037A800E50F700612345F120879A90F02356AF521
:1037B8000AEF3400F50B22A31237C5FD22E0FCA363
:1037C800E0228E828F83123FFA850E82850F83E86E
:1037D800F0A3E9F022C082C08390064DE06A70032E
:1037E800A3E06B70067A4D7B0680047A007B0002AA
:1037F8002B1F74F7121AA47F00EF75F003A4F8A921
:10380800F0EC28F8ED39F988828983E06A7003A31F
:10381800E06B7006E8FAE9FB800B0FEFC3940240F7
:10382800D87A007B007F01021B7674F6121AA41264
:103838003DE370067A007B008007A3A3A3A312349C
:1038480065023EA474F2121AA4E9FE740E121A98C4
:103858001238AC7410121A98123D148C828D83E0C1
:103868006402703BA3123FF688828983E0F50CA3BB
:10387800E0F9A80C74026870037429697021750C4A
:1038880002750D00780C121CB77808121CB7780A5C
:10389800121CB7EEF9120C217406121A6380027911
:1038A80001023F14E0F50AA3E0F50B2274E8121AAE
:1038B800A474FB121A4DE9851882851983F08A16BB
:1038C8008B178C0E8D0F741F121A98123D147421C9
:1038D800121A981238AC7423121A98123CFE7510FA
:1038E800008C828D83A3A3A3E0A2E4502A741D1246
:1038F8001A981235758A828B83E582458370030294
:1039080039C0790AAC0EAD0FAA16AB17121AA2E984
:10391800F51060030239C3850E82850F83E06402C7
:103928006003023C79A3123FF6850882850983A3C8
:10393800858212858313E50E2406F50CE50F123CEB
:10394800D588828983E0FAA3E0F9EA2400F514E433
:1039580039F5157814121D4101000028012888390D
:10396800070002285F3A0328CF390029893B01293B
:10397800B13B0229583B0329893B04291A3C793C6D
:10398800EE4F703E850C82850D83123CEFFAE9FB01
:103998008A828B83E0850A82850B83123D2B121C59
:1039A800B78A828B83A31237C5FDAA08AB09120414
:1039B800597402121A63800375100EA91074050257
:1039C800400075100B80F4EE4F70F7850A82850B66
:1039D800837401F0123D04850882850983F07C0018
:1039E8007D00850E82850F83A3A3A3A3E02401FA9B
:1039F800A3E03400FB120AE3EA4B60418A828B831E
:103A0800E02402F8850A82850B83E028F0EA240482
:103A1800F8EB3400F988828983E085128285138364
:103A2800123D3D123D2B121CB78A828B831237BF81
:103A3800E5082403FAE5093400FB0239B6850A8251
:103A4800850B83E02404F07C047D007900AA12AB86
:103A5800131204710239C3EE4F60030239CA123DD2
:103A680004FEA3E0FF850A82850B837404F0EE85CB
:103A78000882850983F0EF851282851383F0740329
:103A8800121A98AC82AD83EEFAEFFB123DD17003A7
:103A9800023B358A828B83A3A3123CFA7401121A63
:103AA8009885820E85830F780E121CB77405121A3A
:103AB80098121CCE7CFF7DFF120AE97404121A6367
:103AC8008B0FEA450F7033850C82850D83123CDA23
:103AD800121CB7850C82850D83A3121CCE7C027D37
:103AE800007A317B821209157404121A63E9700A8C
:103AF8007401121A9874FFF0A3F08E828F83E06429
:103B0800027034750C02750D00780C121CB78E8289
:103B18008F831237BFE5082404FAE5091230EB1247
:103B28001A63850A82850B83E024028009740112D6
:103B38001A98EEF0A3EFF07401121A98123CEBF009
:103B48007401121A98A3123CE3A3A3A3F00239C389
:103B5800EE4F60030239CA850C82850D831237C087
:103B6800AA16AB17120C15850A82850B837402F00E
:103B7800EA850882850983F0851282851383EB80A4
:103B8800CBEE4F60030239CA123D04F8A3E0F98571
:103B98000A82850B837402F0E8850882850983F020
:103BA800E985128285138380A3850C82850D831293
:103BB8003465120453EAFC8C82A882C39EE49F40B9
:103BC8004BE86E7001EF70047C00801F85188285B9
:103BD8001983E0FAEE2AFAEF3400FBC3EA98EB9473
:103BE800005003E08004EECCC39CFCEC850A82857F
:103BF8000B83F08C0A750B00780A121CB7850C82AF
:103C0800850D83E02EFCA3E03F0239B17510070251
:103C180039C3EE4F60030239CA850C82850D8312C1
:103C28003FF6850A82850B837407F08882898312A0
:103C38003CE3123CCBE0851282851383F0E8240232
:103C4800FAE93400FB8A828B83123CE3123D1C1292
:103C58003CEBA3123D25123CF4F0E82405F8E934C6
:103C680000F988828983123CF4A3123D3DA3023BEC
:103C780051741D121A98123DDC70030239C0123FAC
:103C8800F6880C890DE8450D70030239C08E108F37
:103C9800117810121CB7780A121CB77808121CB7D2
:103CA8007406121A98E0F9AC0EAD0FAA16AB178578
:103CB8000C82850D83121AA27406121A63E9F51094
:103CC8000239C3F088828983A322F50CEF3400F50A
:103CD8000D22E0F50E750F00780E22E0850882852A
:103CE800098322123D4422123FFAE822123D44A3DE
:103CF800A322A3A3A3A3E0FEA3E0FF22850C828551
:103D08000D83E0F8A3E0F5838882E022E0F508A3BC
:103D1800E0F50922A3A3F08A828B83A322122A3C0E
:103D2800A3A322F08A828B83123D3422E0F50A7520
:103D38000B00780A22123CCB123D4422E08508820F
:103D4800850983A3A32274EE121AA474FE121A4DD5
:103D58008A0A8B0BECFAEDFB7414121A98E0F51032
:103D6800A3E0F5117416121A98E0FE7418121A9846
:103D7800E0F50EA3E0F50F851882851983AC82ADB6
:103D880083123DD1603E851882851983123DDC601F
:103D98002FA3A3123D14E50845096024780E121CD0
:103DA800B77810121CB7EEF9AC0CAD0DAA0AAB0B24
:103DB800850882850983121AA27404121A63800680
:103DC800790E80027901023211120AE38A0C8B0DF6
:103DD800EA450D22123469123DE322120BA98A82A8
:103DE8008B83E58245832274F6121AA474FE121A94
:103DF8004D740C121A98123CEF851882851983F0BD
:103E08007401121A98E9F0E4F508F5097808121C0B
:103E1800B77508027808121CB77404121A988582BC
:103E2800088583097808121CB7120BFD7406121A4C
:103E3800637402121A63806474F7121AA4EAFEEB20
:103E4800FF89087C847D06120C15EA5402600BA9D0
:103E580008EEFAEFFB120AD78002790102382D74B6
:103E6800F6121AA474FF6A700374FF6B701C7B004F
:103E7800EB75F003A4F8A9F0EC28F8ED39F9123E37
:103E8800A90BEBC39402501480E6120BE58A088B49
:103E980009A808A909E8496003123EA97F02021B84
:103EA800768882898374FF122A3AE4F02274F61223
:103EB8001AA4120BE58A828B83E58245836006A3E8
:103EC800A3E0FA80027A007B0080D174F2121AA46F
:103ED8008A088B09ECFEEDFF740E121A98E0F50AB9
:103EE800123F19701CEEFCEFFD7AFF7BFF123F19A1
:103EF80070047911801688828983E508F0A3E509A2
:103F0800F088828983A3A3E50AF079007F06021B63
:103F180076120BE58A0C8B0DA80CA90DE8492274C2
:103F2800EE121AA4EAFEEBFF8C088D09890C7412B4
:103F3800121A98123FF67414121A981237C074168F
:103F4800121A98123465750D00EC4D6003023FEAB1
:103F58007402650C6003023FE5888289831237C5C5
:103F6800F9EC2400F50EE439F50FEAF4F8EBF4F96E
:103F7800EC58F8E50F59F9E849705DE5082406F8AA
:103F8800E5093400F9880A890B8882F5831230FA2A
:103F9800120C158A108B11E50E65107004E50F657B
:103FA800116042780E121CB7850A82850B83123085
:103FB800FA120C1B7402121A63E9F50D7027780EB9
:103FC800121CB7850882850983A3A31230F8120C46
:103FD8002D7402121A63800D750D808008750D0D01
:103FE8008003750D0BA90D0236CB8E828F83123F8D
:103FF800FA22E0F8A3E0F922121A637F10021B7676
:104008003400F50D850C82F58322E028FEA3E03903
:10401800FF8E828F83227916850A82850B8312345C
:1040280069120BF774082274F2121AA4EAFEEBFF65
:10403800890B7401650B600E7402650B706379015E
:10404800120E07E9705BEEFAEFFB1240AC604775A1
:104058000A00800B7C177D007900120471050A9014
:104068000651E0F8E50AC3985021E50A75F017A44F
:10407800F8A9F0850882850983A3A3E028FAA3E0BC
:1040880039FB8A828B83122B2670C98508828509A1
:104098008374FFF0A3F07C847D06EEFAEFFB120C2C
:1040A8000F023F14120BDF8A088B09EA45092274B4
:1040B800F2121AA48A088B09ECFEEDFF740E121A8C
:1040C800981238AC900CE2E0F4603D7A097B00125B
:1040D800047DEA4B60328A828B8374B1F0A3E412C8
:1040E8003D1EA3123D1CA3E508F0A3E509124113E8
:1040F800EEF0A3EF124113A3A3E50AF0A3E50BF03A
:10410800900CE2E0F9120489023F14F08A828B8352
:10411800A3A3A3A3A322C082C0839061907404F0D8
:10412800A37448F0A37402F09061807440F0906129
:10413800BC7403F09061877419F0906265741BF089
:1041480090619C740DF090619A7433F0A37455F0EB
:104158009061A0743AF09008C8E064017009C291B7
:10416800900732746780059007327461F09028FEDA
:10417800E493906186F09028F8E493F46027E49340
:10418800540FF8906185E0686012E5C65480444990
:10419800F5C6E59E547F644970F8E8F053C680E59B
:1041A8009E547F70FA790512115B024360C082C089
:1041B80083E9540FF9906185E0696012E5C654807F
:1041C8004449F5C6E59E547F644970F8E9F053C642
:1041D80080E59E547F70FA024360C082C083E5A8E0
:1041E800F853A87E906181E4F0A3F0A3F0C2BA531B
:1041F8009AFEC289759B00C2C275E9007591007567
:10420800BF0075A91175B905906181F0A374C0F05C
:10421800A3E4F0D2BA439A0174805842A8024360DA
:10422800C082C08374F8121A4D900730E0F8A3E0FA
:10423800F9E8497003024356900730E05440602380
:104248007908851882851983AA82AB83120FC385E2
:104258001882851983AA82AB83120C99900730E0E3
:1042680054BFF0E054806010790C7AEC7B08120F90
:10427800C3900730E0547FF0E0A2E0503190619A9B
:104288007433F0A37455F09061A0743AF09008C8A4
:10429800E064017009C29190073274678005900745
:1042A800327461F0120C9F900730E054FEF0E05435
:1042B80002603190619A743FF0A3745AF09061A043
:1042C800747FF09008C8E064017009D291900732B9
:1042D80074718005900732746AF0120C9F90073051
:1042E800E054FDF0E0540460139028FCE4939061DE
:1042F80086F0120CA5900730E054FBF0E0540860FB
:10430800139028FDE493906186F0120CA590073075
:10431800E054F7F0E0541060139028FEE4939061A5
:1043280086F0120CA5900730E054EFF0E0542060BE
:104338000A120CA5900730E054DFF0A3E0540160A6
:104348000D120EEB120CAB900731E054FEF074081E
:10435800121A638003F0A3F0D083D082020135746F
:10436800EC121AA474F4121A4D851882851983ACBC
:1043780082AD837583817582C07404121960902898
:10438800FC93F460030244F4907808E0C39402506C
:10439800030244D47404121A98AC82AD83758381E5
:1043A80075822E7408121960851882851983858292
:1043B800128583137404121A98AC82AD83750EFFAC
:1043C800750FFF7FFF7E00750C48750D788015749A
:1043D800086E700302446774096E700302446774C0
:1043E8000A6E607B850C82850D83780812191D8CF6
:1043F800828D83A909E50AC9F8881074187808120B
:104408001846E5104508F8C3E098A3E099850C82A2
:10441800850D83780812191D40188C828D837418B5
:104428007808121846E5104508F8E0C398F8A3E0A4
:10443800801C74187808121846E5104508FAE9FB3C
:104448008C828D83E0F8A3E0F9EAC398F8EB99F938
:10445800C3E8950EE9950F5006880E890FEEFF0EFA
:10446800E50C2404F50CE50D3400F50DEEC39413AA
:1044780050030243D774FF650E700474FF650F6024
:10448800238F0874027808121A3A74482508F582AE
:1044980074783509F583780812191D8512828513F9
:1044A80083E508F0EC24020C0CED3400FD85128243
:1044B800851383A3858212858313740C121A98E5D9
:1044C800826C7003E5836D60030243C5750801754E
:1044D80009007808121CB77402121A98AC82AD83CE
:1044E8007A3F7B0A12071D7402121A63740C121A9F
:1044F800637F0C021B76C082C0839061AE7468F043
:10450800A3746AF090624574FBF0A304F053F4FDC1
:1045180043FE029008C87401F09061A0E0643A90EC
:10452800619A70237433F0A37455F09061A0743AC3
:10453800F0740164017009C2919007327467802891
:1045480090073274618021743FF0A3745AF090612F
:10455800A0747FF0740164017009D29190073274DD
:10456800718005900732746A02435F7F04021B76EC
:10457800C082C08390087AE06401700A90087FE0E6
:104588006004790C80027900024360C082C08375A0
:10459800E1F190087DE060551460081460591460DA
:1045A800518059120EFD900873E0F97A747B081255
:1045B80010DD9081B812193B1211139081D4121991
:1045C8003B1210E990087EE0F91210F579011211FA
:1045D8004F900871E02416F8A3E03400F988828926
:1045E800837415F0A3740FF07900024360120F036F
:1045F80080B4120F0980AF120F0F80AA791280EAD7
:1046080074F4121AA475D90D900862E0A2E0E4339C
:104618001313F8900873E0C4333354C0484401F5C9
:10462800D97871790888828983A3A3A3E0F5D9880A
:10463800828983A3A882A983E864777003E9640860
:1046480070E37862790888828983A3E0F5D9888243
:104658008983A3A882A983E864687003E964087061
:10466800E575E195900862E0F97A637B081210E33A
:10467800900D0474A9F0A3740EF0A3740BF0A37446
:1046880010F0A3740BF0A37410F0A3740BF0A374D0
:1046980010F0A374AFF0A3740EF0A3740BF0A3741E
:1046A80010F0A374C7F0A3740EF0900D12740BF001
:1046B800A37410F0A3740BF0A37410F0A3740BF0A0
:1046C800A37410F0A3740BF0A37410F0A3740BF090
:1046D800A37410F0A3740BF0A37410F0900871E0A9
:1046E800F8A3E0F5838882A3A3780812191D9081A6
:1046F800B478081218919081CC78081218F79008AD
:1047080071E0240EF8A3E03400F9888289837808E0
:1047180012192C900871E02414F8A3E03400F988E9
:104728008289837413F090072E7402F0024573C0D7
:1047380082C083900883E02407F5D9900873E0C409
:10474800333354C0F5D97871790888828983A3A353
:10475800A3E0F5D988828983A3A882A983E864772E
:104768007003E9640870E3900883E0601F7871794A
:1047780008FAE82413F582E93400F583E0F5D988CE
:10478800828983A3A882A9831AEA70E69008A3E025
:104798002407F5D9900873E0C4333354C04404F5B2
:1047A800D97871790888828983A3A3A3E0F5D98889
:1047B800828983A3A882A983E864777003E96408DF
:1047C80070E39008A3E0601F78717908FAE8243351
:1047D800F582E93400F583E0F5D988828983A3A8B6
:1047E80082A9831AEA70E675E195900D0474B5F014
:1047F800A3740EF0A3740BF0A37410F0A3740BF061
:10480800A37410F0A3740BF0A37410F0A374AFF0AA
:10481800A3740EF0A3740BF0A37410F0A374C7F084
:10482800A3740EF0900D12740BF0A37410F0A3741F
:104838000BF0A37410F0A3740BF0A37410F0A3741E
:104848000BF0A37410F0A3740BF0A37410F0A3740E
:104858000BF0A37410F090820C12193B900871E0D1
:10486800240EF8A3E03400F988828983121947904E
:104878000871E02414F8A3E03400F988828983746D
:1048880012F090072E740102435FC082C083900823
:1048980083E02407F5D9900873E0C4333354C04447
:1048A80002F5D97871790888828983A3A3A3E0F5F2
:1048B800D988828983A3A882A983E864777003E9E9
:1048C800640870E3900883E0601F78717908FAE85B
:1048D8002413F582E93400F583E0F5D988828983C9
:1048E800A3A882A9831AEA70E675E195900D04746D
:1048F800C1F0A3740EF0A374C1F0A3740EF0A374F6
:10490800C1F0A3740EF0A374C1F0A3740EF0A374E5
:10491800C1F0A3740EF0A374C1F0A3740EF0A374D5
:10492800C7F0A3740EF0900D12740BF0A37410F07E
:10493800A3740BF0A37410F0A3740BF0A37410F01D
:10494800A3740BF0A37410F0A3740BF0A37410F00D
:10495800A3740BF0A37410F090820C12193B90080A
:1049680071E0240EF8A3E03400F9888289831219D3
:1049780047900871E02414F8A3E03400F98882898C
:10498800837414F090072E740402435FC082C083BE
:10499800900883E02407F5D9900873E0C4333354B2
:1049A800C04406F5D97871790888828983A3A3A3BE
:1049B800E0F5D988828983A3A882A983E8647770FF
:1049C80003E9640870E3900883E0601F7871790850
:1049D800FAE82413F582E93400F583E0F5D98882F2
:1049E8008983A3A882A9831AEA70E69008A3E02421
:1049F80007F5D9900873E0C4333354C04404F5D99B
:104A08007871790888828983A3A3A3E0F5D988827D
:104A18008983A3A882A983E864777003E96408708E
:104A2800E39008A3E0601F78717908FAE82433F569
:104A380082E93400F583E0F5D988828983A3A882C6
:104A4800A9831AEA70E675E195900D0474BBF0A38A
:104A5800740EF0A3740BF0A37410F0A3740BF0A3FE
:104A68007410F0A3740BF0A37410F0A3740BF0A3EC
:104A78007410F0A3740BF0A37410F0A374C7F0A320
:104A8800740EF0900D12740BF0A37410F0A3740B55
:104A9800F0A37410F0A3740BF0A37410F0A3740BBC
:104AA800F0A37410F0A3740BF0A37410F0A3740BAC
:104AB800F0A37410F090820C12193B900871E02456
:104AC8000EF8A3E03400F988828983121947900808
:104AD80071E02414F8A3E03400F9888289837415FE
:104AE800F090072E740302435FC082C08390087160
:104AF800E0F8A3E0F5838882A3A3A3A3A3A3E40219
:104B0800435D74F7121AA490075CE0F875F004A4EA
:104B1800C8AAF02AF9745E28F8740739F9E8240558
:104B2800FAE93400FB8A828B83E0FCA3E0FD8882EB
:104B38008983A3A3A3A3A3A3A3A3A3ECF0A3EDF04A
:104B480088828983A3A3A3A3A3A3A3E024FFF8A334
:104B5800E034FFF98A828B83E8F0A3E9024DAF7451
:104B6800F7121AA4EAFEEBFF9061D0E06003024C52
:104B78004475D90E75D90375D904EE248CF582EFE6
:104B88003400F583E5822408F8E5833400F9E0F57C
:104B9800D9A3E865827003E9658370F2EE2484F591
:104BA80082EF3400F583E5822404F8E5833400F9C4
:104BB800E0F5D9A3E865827003E9658370F275E1D1
:104BC800957908EE248CFAEF3400FB120FB77904BC
:104BD800EE2484FAEF3400FB120FB77C00EEF8EFF6
:104BE800F9ECFAC3E49AFA95E0FBEE2AFAEF3BFBFC
:104BF800EA248BF582EB3400F583E0C0E0E824ABCF
:104C0800F582E93400F583D0E0F00C88828983A32B
:104C1800A882A983ECC3940840C7EE2470F582EFFC
:104C28003400F583E0F8A3E0F9EE2472F582EF345E
:104C380000F583E8F0A3E9F0790180027900024DDC
:104C4800B0C082C08375D90275D90375D90575E1DD
:104C580095EA2470F582EB3400F583E0F8A3E0F9D7
:104C6800EA2472F582EB3400F583E8F0A3E9F079E1
:104C78000102436074F6121AA4EAFEEBFF9008CC16
:104C88007406F07508CC7509087808121CB77C0101
:104C98007903120FFF7402121A6375D90675D903C6
:104CA8007582CC758308E0F5D9A3E58264D17004D8
:104CB800E583640870F075E19590072EE06408704C
:104CC8001EEE2470F582EF3400F583E0F8A3E0F9D6
:104CD800EE2472F582EF3400F583E8F0A3E9F07969
:104CE80001024E7C74F6121AA4EAFEEBFF9061D022
:104CF800E0706678019008CC740BF090072EE064A1
:104D08000770197508CC7509087808121CB77C015A
:104D18007903120FFF7402121A637805740128F5DB
:104D2800D975D9037582CC758308E8FAE0F5D9A35B
:104D38001AEA70F875E195EE2470F582EF3400F503
:104D480083E0F8A3E0F9EE2472F582EF3400F583EE
:104D5800E8F0A3E9F0790180027900024E7C74F74B
:104D6800121AA4EAFEEBFF75D90375D90375D90D9C
:104D7800EE24DEF582EF3400F583E0F5D975E19590
:104D88007904121119EE2470F582EF3400F583E0EE
:104D9800F8A3E0F9EE2472F582EF3400F583E8F029
:104DA800A3E9F079018001F07F01021B7674F61205
:104DB8001AA4EAFEEBFF9061D0E0F87480C398FA79
:104DC800EE2483F582EF3400F583E06004780480F4
:104DD800027800E8240BF8EAC3985003024E7A7D63
:104DE800099008CCEDF0EE24E3F8EF3400F97ACD21
:104DF8007B087C0888828983E08A828B83F088829A
:104E08008983A3A882A9838A828B83A3AA82AB837E
:104E18001CEC70E0EE2483F582EF3400F583E0604B
:104E28001D7508CC7509087808121CB77C09790328
:104E3800EEFAEFFB120FFF7402121A637D0D740174
:104E48002DF5D975D9037582CC7583088D08E0F5E1
:104E5800D9A31508E50870F675E1957904121119BA
:104E6800EE241DF582EF3400F583E4F0A3F0790118
:104E7800800279007F02021B7674F6121AA4EAFEF9
:104E8800EBFF9061D0E0F87480C398FAEE2483F5C4
:104E980082EF3400F583E06004780480027800E84B
:104EA8002408F8EAC3985003024F817D069008CC85
:104EB800740CF090074BE09008CDF07A4C7B0778A3
:104EC800CE79087C028A828B83E088828983F08A83
:104ED800828B83A3AA82AB8388828983A3A882A9B1
:104EE800831CEC70E07A4E7B077C028A828B83E01D
:104EF80088828983F08A828B83A3AA82AB83888283
:104F08008983A3A882A9831CEC70E0EE2483F58230
:104F1800EF3400F583E0601D7508CC750908780842
:104F2800121CB77C067903EEFAEFFB120FFF74022E
:104F3800121A637D0A74012DF5D975D9037582CCCF
:104F48007583088D08E0F5D9A31508E50870F6758E
:104F5800E1957904121119EE2470F582EF3400F509
:104F680083E0F8A3E0F9EE2472F582EF3400F583CC
:104F7800E8F0A3E9F0790180027900024E7C74F62A
:104F8800121AA4EAFEEBFF9061D0E0F87480C3988F
:104F9800FAEE2483F582EF3400F583E060047804A8
:104FA80080027800E82404F8EAC3985003025060AD
:104FB80078029008CCE8F0EE24F5F582EF3400F59D
:104FC80083E09008CDF0EE2483F582EF3400F5837A
:104FD800E0601B7508CC7509087808121CB77C02BC
:104FE8007903EEFA120FFF7402121A63780674013D
:104FF80028F5D975D9037582CC7583088808E0F53A
:10500800D9A31508E50870F675E195EE2474F582C4
:10501800EF3400F583E4F0EE2480F582EF3400F5F8
:1050280083E4F0EE241DF582EF3400F583E4F0A369
:10503800F07904121119EE240DF582EF3400F5838E
:10504800E0F8A3E0F9EE2472F582EF3400F583E886
:10505800F0A3E9F0790180027900024E7C74F6121F
:105068001AA49061D0E0F87480C398FCEA2483F510
:1050780082EB3400F583E06004780480027800E86D
:105088002404F8ECC398405B79029008CC7407F0CC
:10509800EA24F6F582EB3400F583E09008CDF0EAD7
:1050A8002483F582EB3400F583E060187508CC752D
:1050B80009087808121CB77C0209120FFF74021243
:1050C8001A637906740129F5D975D9037582CC75E7
:1050D8008308E9F8E0F5D9A318E870F875E195793F
:1050E8000180027900024E7C74F5121AA4E9FCA230
:1050F800AFE433F50AC2AF7D0080010DEA246FF5F5
:1051080082EB3400F583E0F8EDC398501A8D08EA75
:105118002508F8EB3400F9E8246BF582E93400F54A
:1051280083E06C70D68024EA246FF8EB3400F9E051
:10513800FEEA2EFAEB3400FBEA246BF582EB34002E
:10514800F583ECF088828983E004F0E50AA2E09216
:10515800AF7F03021B7674F6121AA4A2AFE433FDE4
:10516800C2AFEA246FF582EB3400F583E014F07CDB
:105178000060368C08EA2508F8EB3400F9E8246C5E
:10518800F582E93400F583E0C0E0E8246BF582E9B4
:105198003400F583D0E0F00CEA246FF582EB34009C
:1051A800F583E0F8ECC39840CAEA246EF582EB3444
:1051B80000F58374FFF0EA246AF582EB3400F58386
:1051C800E4F0EDA2E092AF024E7CC082C083E5A875
:1051D800F8C2AFEA246BF582EB3400F583E9F0EA14
:1051E800246AF582EB3400F583E4F0E8A2E792AF95
:1051F80002436074F3121AA4EAFEEBFFECFAEDFB2B
:105208008A828B83A3A3A3A3E0541FF0EE2436F570
:1052180082EF3400F583E4F0F50AEEFCEFFD8A82B4
:105228008B83E0C0E0EC245DF582ED3400F583D09B
:10523800E0F0750B00E50A33333354F8F50C8A8235
:105248008B83E0F508750900E50B7808121A1BE551
:1052580008A2E0502FEE2436F8EF3400F98882894E
:1052680083E0F508EE2508F508EF3400F509E508B0
:105278002438F582E5093400F583E50CF088828945
:1052880083E004F0050B050CE50BC3940840AF055B
:105298000A8A828B83A3AA82AB838C828D83A3AC78
:1052A80082AD83E50AC3940550030252267F0502A6
:1052B8001B7674F7121AA490075AE0640170077AF3
:1052C800007B000254317E00900760E070F17401A9
:1052D800F0A3E4F0A3F09007C004F09007C3E4F053
:1052E800A3F09007C604F0900763E4F0A3F0A3F0DE
:1052F800A3F090076D04F0900793E4F090821412E5
:10530800193B90077612194790077AE4F0A3F0A3A7
:10531800F09007DEF09007D2F09007C77480F0A3F2
:10532800E4F09007CDF09007C5F0900849F0A3F09D
:10533800A3F0A3F0A3F0A3F0A3F0A3F0900852F019
:105348009007E1F0900831F0A3F090821412193B15
:1053580090083312194790821412193B900837129B
:10536800194790083DE4F090083FF090083BF09012
:105378000855F0A3F0A3F0A3F0A3F0A3F0A3F0A3C3
:10538800F0785A7907E8246FF582E93400F58374D8
:10539800FFF00E88828983A3A882A983EEC39404B0
:1053A80040E37A5A7B077869790888828983E0C064
:1053B800E0EA2461F582EB3400F583D0E0F08882DE
:1053C8008983A3A882A9838A828B83A3AA82AB83B9
:1053D800E8646E7003E9640870D07A5A7B077841F4
:1053E800790788828983A3E0C0E0EA24E7F582EBA5
:1053F8003400F583D0E0F088828983A3A882A9834A
:105408008A828B83A3AA82AB83E864497003E96428
:105418000770CF90075AE004F064017008900762A3
:10542800E090075CF07A5E7B07024DB0C082C083D3
:10543800900761E4F0900760F090075AF0A3F0A39A
:1054480074FFF075E1F1024360C082C0837800798F
:1054580000900761E06004785E790788828983A3F9
:10546800A3A3A3E0F902436074F6121AA4EAFEEBC0
:10547800FF8E828F83A3A3A3E0600F8E828F83A306
:10548800A3A3E4F090075BE014F090075AE014F04F
:10549800700690075C74FFF08E828F83A3A3E4F0FC
:1054A80090086EE0700D90075BE06401700579006C
:1054B8001210FBEE2465F582EF3400F583E0F8A3C3
:1054C800E0F9E8496029EE2465F8EF3400F9880826
:1054D80089098882F583E0FCA3E0FD90075CE0FA87
:1054E8007B00120CCF850882850983E4F0A3F0EED7
:1054F800FAEFFB12102F024E7C74F7121AA4EAFE80
:10550800EBFF8E828F83A3A3A3A3E0FA7B00120D87
:1055180011EEFAEFFB120F81121017024DB0C08284
:10552800C0837841790788828983A3E4F0888289D7
:1055380083A3A882A983E864497003E9640770E635
:1055480090074202488D74F6121AA4EAFEEBFFECAB
:105558002403F8ED3400F988088909EC2407F8EDEC
:105568003400F9E8FCE9FD8C828D83E0F8A3E0F9CA
:10557800850882850983E0FAA3E0FB1219C2EE24AC
:105588000DF582EF3400F583E8F0A3E9F08C828D05
:1055980083E0F8A3E0F9850882850983E0FAA3E0AF
:1055A800FB1219C28B09EA45096013EE240DF58236
:1055B800EF3400F583E02401F0A3E03400F0024E5C
:1055C8007C74F6121AA4EAFEEBFFEE242EF582EFA5
:1055D8003400F583E0FCA3E0FD780079FAECFAEDFD
:1055E800FB1219C2EE2470F582EF3400F583E8F05F
:1055F800A3E9F0780079FAECFAEDFB1219C28B09ED
:10560800EA45096013EE2470F582EF3400F583E073
:105618002401F0A3E03400F0024E7C74F0121AA4C6
:10562800EAFEEBFF7410121A98780812191D12106E
:10563800B98A0C8B0D8C0E8D0F9081B0780C1218D6
:10564800919081CC780C1218F7780C121CB38E82CA
:105658008F83E0F8A3E0F5838882A3A312193B1295
:10566800268E7404121A63E960030257708E828FC3
:1056780083E02402F8A3E03400F9E8FAE9FB8A821F
:105688008B8378081218A49081CC780812191D8A87
:10569800828B83780812190AEE240BF582EF340006
:1056A800F583C082C0838E828F83A3A3A3A3A3E0C4
:1056B8002401F8A3E03400F9D083D082E0687003B5
:1056C800A3E069700579010257728E828F83A3A3C4
:1056D800A3A3A3A3A3E02401F0A3E03400F0EE24E5
:1056E80074F582EF3400F583E064017036EE2475BA
:1056F800F582EF3400F583E0F8A3E0F98E828F831A
:10570800A3A3A3A3A3A3A3E0687003A3E0697013F2
:10571800EE2475F582EF3400F583E02401F0A3E070
:105728003400F0EE2480F582EF3400F583E0640164
:105738007036EE2481F582EF3400F583E0F8A3E0BB
:10574800F98E828F83A3A3A3A3A3A3A3E068700306
:10575800A3E0697013EE2481F582EF3400F583E04D
:105768002401F0A3E03400F079007F08021B76746E
:10577800F7121AA490075CE0F875F004A4C8AAF020
:105788002AF9745E28FE740739FF8028EE2465F82C
:10579800EF3400F988828983E0FCA3E0FD888289E0
:1057A80083E4F0A3F08E828F83A3A3A3A3E0FA7B04
:1057B80000120CCFEE2465F582EF3400F583E0F893
:1057C800A3E0F9E849604FEE2464F582EF3400F570
:1057D80083E0F5087808121CBBEE2463F582EF34E9
:1057E80000F583E0F9EE2465F582EF3400F583E0F7
:1057F800FCA3E0FDEEFAEFFB120FAB7401121A6383
:10580800E96089EE2465F582EF3400F583E0F8A3BA
:10581800E0F9E84970137C007D008E828F83A3A392
:10582800A3A3E0FA7B00120CCF024DB074F2121A57
:10583800A4EAFEEBFF890A740E121A98E0FAEE2425
:1058480062F582EF3400F583E064016003025900D9
:105858009061D0E0F87480C398F50CEE2483F5824B
:10586800EF3400F583E0600478048002780089084A
:10587800E928F8E43400F9E824020808E93400F9D2
:10588800E50C98E499A2D265D0334068EA700575B2
:105898000B028003750B01E0603975090078081266
:1058A8001CB77ACC7B08120FE17402121A637508D0
:1058B800CC7509087808121CB7AC0AA90BEEFAEFE8
:1058C800FB120FFF7402121A637404250AF50A7C8E
:1058D800CC7D087401250AF5D9850BD9E50A600D38
:1058E8008C828D83F8E0F5D9A318E870F875E195F6
:1058F800790080067907800279FF7F06021B76C04F
:1059080082C083E960208C828D83E08A828B83F059
:105918008C828D83A3AC82AD838A828B83A3AA8277
:10592800AB8319E970E0ECFAEDFB02436074EA120C
:105938001AA4907803E06442705E9008CBE014F0FB
:105948007056C2AF12594F00782AD0E0F618D0E04E
:10595800F6E59F5407F970059081A8800390819817
:10596800780812191DE9C4C0E07829E65508F50839
:1059780008E65509F509740B7808121A2BD0E025AA
:1059880008F8906270E0A2E740F8E8C333906272CA
:10599800F0906270E0D2E0F090075CE0F4700302EF
:1059A8005D58E0F875F004A4C8AAF02AF9745E28D6
:1059B800FE740739FFEE2402F582EF3401F583E027
:1059C800F8A3E0F9E849601EEE2402F582EF3401FD
:1059D800F583E0FAA3E0FBEE2401F582EF3401F54C
:1059E80083E0F91204AD8E828F83A3A3A3A3A3A39C
:1059F800A3E0F8A3E0F98E828F83A3A3A3A3A3E86F
:105A0800F0A3E9F0906054E0900735F0906055E01D
:105A1800900736F0906056E0900737F0906057E0B6
:105A2800900738F0906058E0900739F0906059E09E
:105A380090073AF090605AE090073BF090605BE086
:105A480090073CF090605CE0FC90073DF090605D52
:105A5800E0FB90073EF090605EE0FD90073FF0901D
:105A6800605FE0FA900740F090073BE08C0825085B
:105A7800F8E43400F98D08E82508F8E93400F98BD2
:105A880008E82508F8E93400F98A08E82508FAE959
:105A98003400FBEE24F7F582EF3400F583E02AF0BA
:105AA800A3E03BF08C08EE24F9F582EF3400F5838F
:105AB800E02508F0A3E03400F0EE24FBF582EF3493
:105AC80000F583E02401F0A3E03400F0EE24FFF5B4
:105AD80082EF3400F583E0F8A3E0F9E849604290EA
:105AE8006000E0C333FCE433FDE82CF582E93DF5C2
:105AF80083E02AF0A3E03BF0906000E0FA90073DD5
:105B0800E0FCEAC333FAE433FBE82AF8E93BF9E8B6
:105B1800244AF582E93400F583E02CF0A3E0340050
:105B2800F090073BE0701190073EE0700BA3E07027
:105B380007A3E07003025C388E828F83A3A3A3A31C
