:020000040000FA
:0600000002011D021F4B6E
:03002B00021B7045
:03005300021FBECB
:03006B00021AEC8A
:10008300021DFFE5C754F84401F5C77901220000BA
:100093000080FB120086B90003020107E47921788E
:1000A30008B800028004F709D8FCE479297802B87B
:1000B30000028004F709D8FCE4900281784E7909A4
:1000C3008002F0A3D8FCD9FA781A90014D7A01BACC
:1000D30000028007E493A3F608DAF9900ACEAA8215
:1000E300AB8390014E787179038015E493A3AC82BE
:1000F300AD838A828B83F0A3AA82AB838C828D83A8
:10010300D8E9D9E77582A67583AB740312012F75FD
:100113008291758300740012012F75D00075813FA1
:10012300751881751902759F00020096C09FF59F8F
:10013300E473D09F22D083D082C09FE493C0E07445
:100143000193C0E0740293F59F220101FFFF4B4D21
:10015300204852204D6F6E69746F720000000000DA
:1001630000000002010603020D1807084B4D5F480B
:10017300524D00040000060412041804E702FFFFB6
:10018300BB001264023A820100002F820236820110
:100193000000050B025882010000060B02348203A3
:1001A30000004404020202023A8201000026820295
:1001B3003682010000270B0252820100004C040228
:1001C3003682010000280B025082010000118102D7
:1001D3003682010000290B024E8201000038811093
:1001E30002027D00020A023A8201000029820236DD
:1001F30082010000620B10B180000000560402343B
:10020300820300005704023682010000630B10A131
:10021300800100005D04023682010000640B10912E
:1002230080010000650B023682010000670B10019C
:10023300810100005F04023682010000680B10E1B7
:10024300800300006004100208023A820100002CBF
:1002530082023682010000C90B024682000000635D
:10026300040234820300006404023682010000CADF
:100273000B0244820100006A04023682010000CBB3
:100283000B0242820200006B0401E803053F10FFEA
:1002930000013075030201060000000000000000A9
:1002A300000000000000000000000000000000004B
:1002B30000000000FFFF0600800CE803FF0000B40D
:1002C300000028002800283075A000A000A000A08E
:1002D3000000080008E001F00010001000100010FA
:1002E300001000100050005000500010001000D00B
:1002F300070000000000000F000100050030750733
:10030300001000010081FF0000FF4E0A6C0A540A2E
:10031300FF02020208025000A0000000E803023AB4
:10032300820100002382023682010000940C023213
:10033300820100002506023682010000950C023E70
:10034300820100003B06023682010000960C024047
:10035300820100003D06023682010000970C024A2A
:10036300820800003E06023682010000980C024C0F
:1003730082010000990CFF0100FF20023A82010074
:10038300002082023682010000FD0C025C82000024
:100393000000000234820300008B06241024102482
:1003A30010241024102410241024102410241024AA
:1003B3001024102410B212CA12AC121201381B8A74
:1003C30003120138468A03120138708A0312013876
:1003D300928A03120138B68A03120138C38A0312C0
:1003E3000138228B03120138518C03120138ADD42A
:1003F30002120138C8D60212013881D7021201381D
:1004030075D80212013837D90212013877D902128E
:10041300013890D902120138DCD90212013838A907
:100423000312013898A903120138B7A10312013846
:10043300DFA103120138E7A103120138EFA1031270
:1004430001382CA20312013854A2031201389BA2D3
:1004530003120138A9A203120138F8A203120138CA
:100463003DDA0212013847DA0212013888DA021241
:100473000138D1DA021201380BDB0212013861DBD9
:100483000212013882DB021201388BDB02120138BF
:10049300DFDB0212013808DC0212013812DC02121F
:1004A300013880DC0212013810DD021201386BDDE5
:1004B3000212013899DD0212013821DE02120138DD
:1004C30060DE0212013895DE02120138A7DE021245
:1004D3000138C6DE02120138CFDE0212013896DF80
:1004E3000212013847AB031201381CA5031201386D
:1004F3003F9903120138759903120138A999031220
:100503000138F69A031201385DFF0212013873FFB6
:10051300021201387DFF02120138C7FF02120138AF
:100523003CEE021201384FEE0212013810EF0212B4
:1005330001384FEF021201386CEF02120138A5EFB8
:1005430002120138F2EF0212013824F002120138CC
:100553005BF00212013864F20212013813A603128F
:10056300013836A60312013865A603120138A7A67F
:1005730003120138F3BE0212013804BF021201381C
:100583005EC30212013839C402120138A2C4021236
:100593000138EDC40212013810C602120138FC867C
:1005A30003120138768703120138A9870312013831
:1005B3009C880312013871890312013895FD0112D9
:1005C3000138DAFD01120138EFFD0112013849FE4D
:1005D30001120138D3FE011201387EFF01120138E6
:1005E300B5FF0112013834A00312013859A00312D8
:1005F300013889A0031201389D8303120138E28375
:1006030003120138F58303120138538403120138AE
:10061300AD8403120138EA8403120138C48503123E
:100623000138C38603120138C794031201380C95AD
:10063300031201381F95031201383B950312013849
:10064300799503120138E89503120138D296031203
:100653000138FEAB031201385F82011201383D8479
:1006630001120138DC850112013887860112013835
:100673000787011201388C8701120138B5870112EF
:100683000138908B01120138078C011201381E8D3D
:1006930001120138588D01120138998D0112013868
:1006A300E08E01120138368F011201387F8F01125B
:1006B3000138EE8F011201385A90011201388B90E4
:1006C30001120138A39001120138BC9101120138C3
:1006D300CC910112013882930112013899930112CE
:1006E3000138CB93011201386D950112013801963F
:1006F30001120138C7A703120138D3A70312013827
:1007030070A80312013854AC0312013893AC0312DE
:100713000138FEAC0312013882A80312013892A8F3
:1007230003120138A1A80312013832A903120138B8
:100733001AA4031201389FA40312013803A503125C
:100743000138F1FF01120138E8AC03120138F8ACAB
:1007530003120138FBAC03120138F87F0012013891
:100763000B9703120138959803120138F698031278
:1007730001383C9903120138D3AA0312013800ABA4
:100783000312013816AB031201389C9E0312013881
:10079300EE9E03120138619F03120138CE9F0312AC
:1007A3000138809203120138AA9203120138799317
:1007B30003120138559403120138BDB602120138F1
:1007C30089B702120138CAB70212013804B80212FB
:1007D300013862B802120138B6B80212013814B9EE
:1007E30002120138AAB902120138B2BA0212013850
:1007F3003CBC02120138DABC0212013841BD0212BC
:10080300013854BD0212013848BE0212013891BEAC
:1008130002120138A6F001120138D8F3011201388F
:1008230069F501120138C0F501120138DDF5011235
:1008330001385DF601120138D9F701120138A8F821
:100843000112013815FC01120138FFFC01120138B5
:10085300E99C03120138009D031201382F9D0312F6
:100863000138689D03120138909D03120138BE9D23
:1008730003120138D59D03120138EC9D0312013890
:10088300029E03120138299E031201383C9E031273
:100893000138529E03120138659E031201388A9E65
:1008A3000312013811A40212013810A502120138F3
:1008B30045A50212013866A50212013876A5021277
:1008C300013897A502120138A3A60212013870A7B6
:1008D30002120138E3A70212013869A80212013893
:1008E300ACA802120138E3A80212013869A9021266
:1008F30001383BAA0212013899AA02120138B1AA9F
:10090300021201382BAB021201382EAB021201384E
:1009130031AB02120138D8AB02120138F0AB02122C
:10092300013820AC0212013840AC021201382EAD5E
:1009330002120138E4AD0212013894E902120138BF
:10094300BCE902120138EAE90212013821EA021273
:10095300013889EA02120138D2EA021201381DEB8A
:10096300021201385BEB0212013898EB02120138D4
:10097300C6EB021201386DEC0212013877EC021259
:10098300013884EC02120138B7EC0212013879ED18
:100993000212013885ED021201389DED0212013871
:1009A300A7ED02120138F0A603120138FEA60312C6
:1009B300013816A7031201382EA703120138F0A934
:1009C300011201388EAA0112013806AB0112013857
:1009D3001BAC0112013855AC01120138FEAC0112F7
:1009E3000138D3AD0112013837AF011201388EAF90
:1009F3000112013815B001120138FCB0011201389F
:100A030049B101120138D7B101120138FBB101120A
:100A13000138D0B30112013811B40112013833B4D3
:100A230001120138B4B4011201389EB50112013824
:100A330064B601120138A1CD0212013873CE02123D
:100A430001381CCF021201385FCF02120138ECCFFC
:100A53000212013878D00212013859D1021201383A
:100A630088D10212013884D202120138CCD2021288
:100A73000138CED30212013812D40212013838D40D
:100A830002120138CDA903120138277C0012013864
:100A93003D7C00120138637C001201388B7D00120B
:100AA3000138957D00120138EE7E00120138EE7F89
:100AB30000120138C4DF02120138F9E002120138D2
:100AC3002CE10212013876E10212013834E30212FA
:100AD3000138CA6C001201382D6D00120138726E94
:100AE30000120138826E00120138A56E001201381F
:100AF300F06E00120138956F001201388B700012EE
:100B03000138557100120138CD72001201380F738C
:100B130000120138AD7300120138FA730012013864
:100B23002074001201380E76001201381376001279
:100B33000138F47700120138487800120138AA7896
:100B430000120138D2780012013876790012013888
:100B5300387A00120138697A001201386C7A00126F
:100B63000138B47A00120138F67A001201385D7B3D
:100B7300001201382A90031201383D900312013804
:100B8300569003120138A190031201387C9103128D
:100B930001380B9203120138569203120138502682
:100BA300001201385C260012013895260012013824
:100BB300DA26001201389127001201381728001293
:100BC30001384328001201387C2800120138902A8A
:100BD300001201386C2C00120138572E0012013814
:100BE3008E2F00120138EE3100120138DA32001272
:100BF30001382034001201382D35001201384A35EE
:100C0300001201388235001201389C350012013878
:100C13000436001201389E3A001201383F3B00129D
:100C23000138903B00120138B73B00120138053CF4
:100C330000120138233C00120138773C00120138BE
:100C43007F3D00120138073E00120138EAE4021228
:100C53000138F4E402120138BFE502120138DAE583
:100C63000212013800E60212013844E6021201388A
:100C73007CE602120138A5E6021201381EE70212D1
:100C8300013833E70212013848E7021201387FE7DF
:100C93000212013893E702120138C4E70212013845
:100CA300FEE7021201382AE80212013880E8021234
:100CB3000138D4E8021201381DE90212013847E96C
:100CC300021201386CE90212013871FB0212013879
:100CD3003BFC021201381EFD0212013894FD021280
:100CE3000138D6FD0212013803FF021201380080D9
:100CF300021201382980021201384280021201389F
:100D0300878102120138658202120138848202123D
:100D13000138118302120138548302120138A1846D
:100D230002120138408502120138BF8702120138CE
:100D33005688021201382A89021201380C8A0212DB
:100D43000138788B021201380B8C0212013805A38B
:100D5300031201386EA303120138C2A30312013830
:100D6300E9A303120138D0F2021201383DF3021253
:100D7300013888F3021201387DF40212013879F543
:100D83000212013863F6021201384FAE0212013823
:100D930091AE021201386BAF0212013844B0021255
:100DA30001383FB1021201381EB2021201388AB271
:100DB3000212013851B302120138BCB302120138D6
:100DC30023B4021201384EB402120138BFB4021226
:100DD300013852B502120138BBB502120138D0B541
:100DE3000212013818B60212013831B60212013864
:100DF30096B60212013899B602120138308D0312E9
:100E03000138588D03120138968D03120138548E20
:100E130003120138BF8E03120138DB8E031201382F
:100E2300038F03120138338F03120138428F0312E9
:100E33000138BC8F03120138E28F0312013817C740
:100E430001120138F4C801120138EFCA0112013846
:100E5300C2CB011201380DCC0112013858CC01125A
:100E630001386ACC01120138AACC01120138DFCC57
:100E7300011201382BCD011201385ACD011201386C
:100E83007DCD01120138CACD0112013853CE0112B2
:100E9300013860D0011201384BD2011201388ED2D1
:100EA30001120138F3D30112013834D4011201388D
:100EB300A7D401120138F3D4011201381ED501124F
:100EC3000138828C02120138AD8C021201389493DE
:100ED30002120138B89502120138739702120138D1
:100EE300D098021201386E3E00120138053F0012FD
:100EF3000138323F00120138783F00120138B74001
:100F0300001201384E4200120138C8420012013863
:100F1300E34200120138584300120138874400129B
:100F23000138E24500120138E44600120138414815
:100F3300001201385A4800120138B748001201382C
:100F4300994900120138CC49001201383C4A001279
:100F53000138B64A00120138054B00120138D14B53
:100F630000120138D64C00120138B54D0012013879
:100F7300404E00120138AE4E00120138224F0012CB
:100F830001384B4F001201380A50001201388451C6
:100F930000120138A15100120138C051001201386A
:100FA3005152001201387652001201389E5200123B
:100FB3000138195300120138735300120138C75412
:100FC30000120138845500120138575600120138B7
:100FD30048D50112013898D501120138A4D5011260
:100FE300013881D601120138B1D601120138E9D690
:100FF3000112013868D701120138A0D70112013854
:10100300F2D7011201382FD80112013854DA011234
:10101300013880DC011201387BDE0112013856E011
:1010230001120138F4FF011201383F960112013811
:10103300899601120138689C01120138E99D011259
:10104300013848A40112013843A50112013880A5D3
:1010530001120138A3A501120138E5A501120138D7
:10106300EEA501120138F8A501120138E4A6011218
:101073000138D8A701120138855600120138FD60E6
:10108300001201380361001201380F6800120138A1
:10109300008003120138968003120138AC800312DA
:1010A30001382681031201387C8103120138BA8189
:1010B3000312013817820312013894820312013894
:1010C3009D8203120138A98203120138BC820312E4
:1010D3000138F882031201380E83031201386D833D
:1010E3000312013825F70212013832F702120138D0
:1010F3004CF7021201388BF702120138C9F70212BA
:1011030001382EF80212013843F8021201384EF862
:10111300021201385BF80212013872F80212013828
:1011230080F8021201388BF80212013897F8021284
:101133000138A6F802120138B1F802120138D4F8C6
:10114300021201387DF9021201388DF902120138B9
:10115300A7F902120138C4F902120138E0F90212A8
:10116300013805FA021201380FFA0212013823FA84
:101173000212013842FA02120138A3FA02120138AC
:10118300A9FA02120138AFFA02120138B5FA0212B3
:101193000138C1FA02120138F4FA021201381CE3D1
:1011A300011201389EE30112013847E401120138AC
:1011B3008FE5011201389DE70112013883E801121E
:1011C3000138B8E801120138DAE80112013883E97D
:1011D3000112013853EB011201387CEB0112013883
:1011E300F4EB0112013826EC0112013833EC011241
:1011F30001387EEC01120138A2EC01120138F3EE42
:1012030001120138FDEF0112013859F001120138C2
:1012130099B801120138AAB9011201388EBA011224
:10122300013898BA01120138BABA01120138C6BAA4
:10123300011201386ABC0112013897BC011201384E
:10124300ADBD0112013802BE0112013851BF0112B6
:10125300013826C00112013882C001120138EDC0E5
:101263000112013822C10112013865C1011201388E
:101273002FC40112013847C401120138D8C4011226
:101283000138E6C40112013833C50112013841C5E2
:1012930001120138ADC50112013828C60112013807
:1012A3007FC601120138F398021201381599021210
:1012B3000138269B02120138E59D021201380F9F67
:1012C30002120138CD9F02120138B9A0021201386F
:1012D300309B03120138559B03120138CB9B031239
:1012E300013884C6021201388DC60212013896C62F
:1012F300021201386EC7021201381FC902120138E7
:101303004FC9021201387AC902120138AAC902125E
:101313000138D5C90212013809CA0212013835CA87
:101323000212013878CA02120138A3CA0212013824
:10133300EACA021201383FCB0212013881CB0212F2
:101343000138DBCB0212013806CC0212013855CC2E
:101353000212013885CC02120138B0CC02120138D6
:10136300DECC0212013801CD0212013856AA031253
:10137300013882AA03120138AFAA03120138B9AAAD
:1013830003120138C9AA031201389DAC03120138B4
:10139300CAAC03E066701008A3E066700A08A3E015
:1013A30066700408A3E06622C3E7960809E7960877
:1013B30009E7960809E79622C3E09608A3E0960892
:1013C300A3E09608A3E09622C008C3E096F50808B8
:1013D300A3E096420808A3E096420808A3E09645D6
:1013E300087001D3D00822080808EAC0E0EBC0E087
:1013F30086F0E7A4FA180986F0E7A42AFA18098602
:10140300F0E7A42AFA180986F0E7A42AFA1986F065
:10141300E7A4FBE5F02AFA190886F0E7A42BFBE51D
:10142300F03AFA190886F0E7A42BFBE5F03AFA182C
:10143300180986F0E7A4C5F02BFBE43AFA1908E78C
:10144300C5F0C6A426F6E5F03BFBE43AFA1886F0AD
:10145300E7A4F6E5F00826F6E43B08F6E43A08F6D6
:10146300D0E0FBD0E0FA22E4CFC0E0E4CEC0E0E479
:10147300CDC0E0E4CCC0E075F020C3E633F608E667
:1014830033F608E633F608E633F6181818EC33FC9F
:10149300ED33FDEE33FEEF33FFC3EC9709ED970910
:1014A300EE9709EF97191919400FFFEC97FC09ED17
:1014B30097FD09EE97FE191906D5F0BEECF709ED75
:1014C300F709EEF709EFF7191919D0E0FCD0E0FDA1
:1014D300D0E0FED0E0FF2212154218181812146A49
:1014E3001215311919192212153119191908080879
:1014F300E618181820E7E012146A12154218181893
:1015030022090909E719191920E7DC080808E61870
:10151300181820E70302146A121542181818121437
:101523006A12154218181812153119191922E4C331
:1015330097F709E497F709E497F709E497F722E4A3
:10154300C396F608E496F608E496F608E496F622BF
:101553006016080808C6C313C618C613C618C613F0
:10156300C618C613C6D5E0EA227009080808226027
:1015730016181818C6C333C608C633C608C633C6FA
:1015830008C633C6D5E0EA22E627F60809E637F6A9
:101593000809E637F60809E637F622E026F608A337
:1015A300E036F608A3E036F608A3E036F622E02696
:1015B300F008A3E036F008A3E036F008A3E036F025
:1015C30022C3E697F60809E697F60809E697F608B0
:1015D30009E697F622C3E096F008A3E096F008A385
:1015E300E096F008A3E096F022E056F608A3E05652
:1015F300F608A3E056F608A3E056F622E056F008F4
:10160300A3E056F008A3E056F008A3E056F022E06A
:10161300F608A3E0F608A3E0F608A3E0F622E6F056
:1016230008A3E6F008A3E6F008A3E6F022E0FAA395
:10163300E0FBA3E0FCA3E0FD22EAF0A3EBF0A3ECC4
:10164300F0A3EDF022CAC0E0E6F0A308DAFAD0E096
:10165300FA22CAC0E0E0A3C582CCC582C583CDC54A
:1016630083F0A3C582CCC582C583CDC583DAE6D01A
:10167300E0CA22C3E498F8E499F91216B78026C3A6
:10168300E49AFAE49BFBE920E7E91216B7E498F839
:10169300E499F922C3E498F8E499F91216B7E498A7
:1016A300F8E499F9C3E49AFAE49BFB22EB20E7CF31
:1016B300E920E7E0B90010BB0008E88AF084F8AA43
:1016C300F022E4FBC8FA22EB70227B10C833C8C9AE
:1016D30033C9335007C39AC3DBF280069A50012AF9
:1016E300DBEAC833F4C8C933F4C9FA2275F008E455
:1016F300C833C8C933C933C99AC99B5004C92AC955
:101703003BD5F0ECFBC833F4C8E4C9FA22600D08FA
:10171300C6A2E713C618C613C6D5E0F322600C08A9
:10172300C6C313C618C613C6D5E0F42270042260DC
:101733000D18C6C333C608C633C6D5E0F418222530
:101743001810AF08F518400215198008F518400263
:101753001519D2AF22C0D0251810AF08F5185002C2
:1017630005198008F51850020519D2AFD0D02225EB
:1017730018F58210AF08F518400215198008F518FE
:1017830040021519D2AF851983222518F582E43555
:1017930019F58322E4732518C582C0E0E51934FFE7
:1017A300C583C0E0E518C3958224F810AF0885838C
:1017B300198582188008858319858218D2AFCEF0E7
:1017C300A3E520F0A37808E608F0A3DEFAEFF0A380
:1017D300E58124FAF8E608F0A3E608F0A3E608F0AA
:1017E300A30808E608F0A3E608F0A315811581D045
:1017F300E0FED0E0F8158115811581E8C0E0EEC068
:10180300E0222518C582C0E0E51934FFC583C0E096
:10181300E518C3958224F910AF08858319858218CA
:101823008008858319858218D2AFCEF0A3E520F016
:10183300A37808E608F0A3DEFAEFF0A3E58124FB22
:10184300F8E608F0A3E608F0A30808E608F0A3E624
:1018530008F0A315811581D0E0FED0E0F8158115BD
:1018630081E8C0E0EEC0E022851983851882E0A3F9
:10187300FEE0A3F5207808E0A3F608DFFAE0A3FF73
:10188300E0A3C0E0E0A3C0E0E0A3C0E0E0A3C0E0C9
:10189300E0A3C0E010AF088582188583198008850E
:1018A3008218858319D2AFD083D08202013585197E
:1018B30083851882E0A3FEE0A3F5207808E0A3F671
:1018C30008DFFAE0A3FFE0A3C0E0E0A3C0E0E0A3E9
:1018D300C0E0E0A3C0E010AF0885821885831980BB
:1018E30008858218858319D2AFD083D08222C0D0D5
:1018F3002518C582C0E0E51934FFC583C0E0E518AB
:10190300C3958224F310AF08858319858218800854
:10191300858319858218D2AFC8F0A3E9F0A3EAF052
:10192300A3EBF0A37908E709F0A3D8FAECF0A3ED51
:10193300F0A3EEF0A3EFF0A3D0E0F0A3D0E0F0A388
:10194300D0E0F0A3E520F0A3E5F0F0A3228519830E
:10195300851882E0C0E0A3E0F9A3E0FAA3E0FBA3CB
:101963007808E0F608A3DFFAE0FCA3E0FDA3E0FEBD
:10197300A3E0FFA3E0C0E0A3E0C0E0A3E0F5D0A3B1
:10198300E0F520A3E0A3F5F010AF08858319858265
:10199300188008858319858218D2AFD082D083D06E
:1019A300E0F8D0E03274048006740280027401C04F
:1019B300E0F404121772D0E0121648227404800473
:1019C30074028000CCC0E0EDC0E0E518C39CCCAD50
:1019D3001950011D10AF068C188D1980068C188DB7
:1019E30019D2AF121655D0E0FDD0E0FC22D083D03F
:1019F30082E9C0E0E493A3C386F0C5F095F0F9084B
:101A0300E493A386F0C5F095F0700BE493A3C39918
:101A13004005E9048002A3E475F002A42582F5825F
:101A2300E5F03583F583D0E0F9E493A3C0E0E493D4
:101A3300C0E022D083D082ECC0E0EDC0E0E493A309
:101A4300FCE493A3FDED4C600D121A82EC24FFFC21
:101A5300ED34FFFD80EFE493A3FCE493A3FDED4C91
:101A6300600D121AC1EC24FFFCED34FFFD80EFD0B2
:101A7300E0FDD0E0FCE493A3C0E0E493C0E022C027
:101A8300E0C3E49396087401939618400FE49366B9
:101A9300700808740193661870007019A3A3C3E457
:101AA3009396087401939618A3A3400DD0E0D0E059
:101AB300D0E0021A72A3A3A3A3A3A3D0E022C0E0A1
:101AC300C0F088F0E4936670080874019366187098
:101AD30000A8F0A3A3700BD0F0D0E0D0E0D0E002D8
:101AE3001A72A3A3D0F0D0E022C0E074F21218F16E
:101AF300A2AFE433FEC2AFE589A2E1505D5389FD95
:101B0300C2C5C292790012077E790012077E79005E
:101B130012077EE99002E8F0790012077EE990024D
:101B2300E7F0D292900AFF121B67E0FAA3E0FBC32F
:101B33009410A2D265D03340067AFF7B0F8012C384
:101B4300EA9401EB94F0A2D265D03350047A017B7E
:101B5300F09002E5121B67121797EEA2E092AF7F97
:101B630001021950E0F8A3E0F583888222C0E0C0A7
:101B7300D0E8C0E0E5A8D2AFC2C7751A00A2E792C9
:101B8300AFD0E0F8D0D0D0E03274F5121805EAFEF9
:101B9300EBFFEE2434F8EF3400F988088909EE24CA
:101BA30035F582EF3400F583E0F8EE2437F582EF64
:101BB3003400F583E0F50AEC850AF0A4FCAAF0856D
:101BC3000AF0EDA42AFDE82CF8E43DF97A257B0020
:101BD3001216B7EA850882850983F05407F8740161
:101BE300B800028004C333D8FCC0E0E013131354DD
:101BF3001FF8EE28F8EF3400F9E8245DF582E934A4
:101C030000F583D0E0F8E0586008EE2434F582EF65
:101C1300801EEE2436F582EF3400F583E0F5F0EA1A
:101C230084A8F0EE28F8EF3400F9E82438F582E9C7
:101C33003400F583E0F97F040218B174F512180536
:101C4300EAFEEBFFEE2434F582EF3400F583E0C0C7
:101C5300E0EE2435F582EF3400F583D0E0F08E8298
:101C63008F83A3A3A3A3A3A3A3C082C0838E828FC6
:101C730083A3A3A3A3A3E0F8A3E0F9D083D082E0D6
:101C8300C398F508A3E099F509EE2480F582EF34B3
:101C930000F583E064017069EE2481F582EF34007E
:101CA300F583E0F8A3E0F98E828F83A3A3A3A3A314
:101CB300A3A3E0FCA3E0FD8E828F83A3A3A3A3A32E
:101CC300E0FAA3E0FBC3EA9CEB9D5027C3EC98ED3D
:101CD30099402EC3EA98EB9950277C707D08EEFA61
:101CE300EFFB120F82EE2480F582EF3400F583E4DC
:101CF300F0800EC3EA98EB9940E0C3EC98ED99505D
:101D0300D9EE2434F8EF3400F9E8FCE9FDEE24358C
:101D1300F582EF3400F583E0F8EE2437F582EF34F3
:101D230000F583E0F50AE508850AF0A4F508AAF0B2
:101D3300850AF0E509A42AF509E82508F8E4350938
:101D4300F97A257B001216B7EA8C828D83F054074B
:101D5300F87401B800028004C333D8FCC0E0E01378
:101D63001313541FF8EE28F8EF3400F9E8245DF557
:101D730082E93400F583D0E0F8E0586008EE2434BB
:101D8300F582EF801EEE2436F582EF3400F583E012
:101D9300F5F0EA84A8F0EE28F8EF3400F9E82438E7
:101DA300F582E93400F583E0F9122639021C39C0C3
:101DB30082C083851882851983E0F8A3E0F9C3EA1A
:101DC3009CEB9D5012C3EC98ED994019C3EA98EB34
:101DD30099501279018010C3EA98EB9940F5C3EC4E
:101DE30098ED9950EE7900D083D08222EAC39CFA11
:101DF300EB9DFB22008521878522C622C0E0C0D04F
:101E0300E8C0E0E9C0E0EAC0E0EBC0E0ECC0E0ED30
:101E1300C0E0C008C009C00AC00BC082C083C0F0C4
:101E2300759B00906182E0A2E64003021EDDE5910E
:101E3300A2E64003021EDD7591BF900735E06405FD
:101E430070081210BA1210C680031210C075210058
:101E5300121120E9900736F07900121114120EF8CE
:101E63007A017B00900734E0F91204BA907803E01A
:101E730064426003021F269008D2E014F06003025C
:101E83001F26C2AF121E8A00782AD0E0F618D0E0CF
:101E9300F6E59F5407F970059081AC80039081A803
:101EA3007808121612E9C4C0E07829E65508F50847
:101EB30008E65509F509740B7808121720D0E025B8
:101EC30008F8906270E0A2E740F8E8C333906272CA
:101ED300F0906270E0D2E0F08049E0A2E55024E5A2
:101EE30091A2E5501E7591DF900735E0640D7013E4
:101EF300900757E004F064287002E4F07A00E0F9F8
:101F0300121192906181E0A2E35009E5E9A2E35046
:101F13000375E9F7A3E0A2E75009E591A2E75003AF
:101F230075917FD0F0D083D082D00BD00AD009D066
:101F330008D0E0FDD0E0FCD0E0FBD0E0FAD0E0F93F
:101F4300D0E0F8D0D0D0E032C0E0C0D0C082C083AF
:101F5300906183E0A2E05009E5BFA2E0500375BFA2
:101F6300FEE0A2E15009E5BFA2E1500375BFFDE029
:101F7300A2E25009E5BFA2E2500375BFFBE0A2E372
:101F83005009E5BFA2E3500375BFF7E0A2E450098F
:101F9300E5BFA2E4500375BFEFE0A2E55009E5BF3A
:101FA300A2E5500375BFDFE0A2E65009E5BFA2E654
:101FB300500375BFBFD083D0828088C0E0C0D0E813
:101FC300C0E0E9C0E0EAC0E0EBC0E0ECC0E0EDC097
:101FD300E0C0F0E5A7A2E6500FE5A1A2E650095341
:101FE300A7BF75A1BF122023E5A7A2E5500CE5A169
:101FF300A2E5500653A7DF75A1DFE5A7A2E15009CB
:10200300E5A1A2E1500375A1FDE5A7A2E2500CE50D
:10201300A1A2E2500653A7FB75A1FBD0F0021F3427
:1020230074F8121805752101900735E064067015E0
:1020330012104E8A828B83A3A3A3A3A3A3E0FAA3C4
:10204300E0FB1210A8A2AFE433FED2AF90073BE04F
:10205300640170187A207B00900734E0F91205447C
:102063007A207B00900734E0F91204C0906182E08B
:10207300D2E6F09008D1E0602185C6228016900751
:102083003AE064017008E5C654F84405F5C653BE4A
:10209300FC121DF87401652160E4EEA2E092AF7FAB
:1020A300010218B1008E238F24858228858327851A
:1020B3001882851983E0CEA3E0CF85288285278304
:1020C300EBC9EAC8EDCBECCA75F010C3E833C8E935
:1020D30033C9EA33CAEB33CBC3EA9EF526EB9FF54C
:1020E30025B35004AB25AA26EC33CCED33CDD5F084
:1020F300DAAE23AF242274EB12180574FA121742D6
:102103008A088B098C148D15900735E024F7C39446
:1021130005500690820002225B12104E8A0A8B0B36
:10212300AE0AAF0BEE4F7003022258AC08AD09851F
:102133001882851983AA82AB831210D88E828F836B
:10214300A3A378081216129081CC78081215EC8597
:102153001882851983780C1216129081CC780C1290
:1021630015EC7808790C1213AB501F7808790C1210
:1021730015C490817C78081213CB404785081085DD
:102183000911850A12850B138041850C10850D11E9
:10219300850E12850F13781079081215C490817C6F
:1021A30078101213CB501C751000751100751200B6
:1021B3007513017810790C1215C47810790812156B
:1021C3008B8008908200781012161274097810120E
:1021D300156C9081847808121612781079081214FD
:1021E3006A8E828F83A3A3A3A3A3A3E0F8A3E0F93A
:1021F3007AD07B031216B788088909E4F50AF50B30
:102203007810790812158B740412178DE0F8A3E087
:10221300F97AD07B031216B7E8FA8A08E4F509784D
:102223001079081213AB5007781079081215C4906F
:102233000735E06408600AE064066005E064057041
:102243001C90819478101213CB501290819C7810BB
:1022530012159E800890821C781012161285148223
:10226300851583781012162174061217587F0E02F3
:1022730018B174F71218051210EA9008CFE0640140
:102283007010906245E4F0A3F053F4F343FE0C5353
:1022930090F3121096E5C654804449F5C6E59E5462
:1022A3007F644970F8906185740FF09008CDE0F475
:1022B3007002A3E0604E9008CEE0600814601B1427
:1022C300602E80407508017509009008CDE07808FC
:1022D30012172FE508F45280802A7508017509004A
:1022E3009008CDE0780812172FE508F45290801477
:1022F3007508017509009008CDE0780812172FE5DD
:1023030008F452A079007F020218B174F71218057D
:10231300E9FEEAFF74016E700C7A807B009007344B
:10232300E0F91204BA902648E493F46008E493F9C0
:10233300120EEC800953C680E59E547F70FA12108A
:102343009C9008CFE064017003120F049008CDE065
:10235300F47002A3E0604B9008CEE0600814601AAA
:1023630014602C803D7508017509009008CDE07854
:102373000812172FE50842808028750801750900A7
:102383009008CDE0780812172FE508429080137566
:1023930008017509009008CDE0780812172FE508A9
:1023A30042A01210EA12104E8A088B09A808A90944
:1023B300E8496015E5E170FCE82414F582E934008E
:1023C300F583E0F46003E0F5E174016F700A7A01CC
:1023D300900734E0F912051402230974F112180569
:1023E3008A088B098C0A8D0B740F12178D780C12C7
:1023F30016129081CC78081215EC9081CC780C12CF
:1024030015EC7808790C1213AB50157808790C1277
:1024130015C490817C78081213CB40157901801381
:10242300780C79081215C490817C780C1213CB4078
:10243300EB79007F080218B174ED1218058A088B36
:10244300098C0A8D0B741312178D780C12161290C7
:1024530081CC78081215EC9081CC780C1215EC78AD
:102463000C79081213AB40117808790C1215C4AA21
:1024730008AB09AC0AAD0B8022751000751100750D
:1024830012007513017810790C1215C478107908AD
:1024930012158BAA10AB11AC12AD137F0C0218B13D
:1024A3009081CC78081216128A828B8378081215D1
:1024B300FF7F040218B174F51218058C828D83789E
:1024C300081216128A828B8378081215D8EA24041C
:1024D300F8EB3400F98C828D83A3A3A3A3E0FCA3C0
:1024E300E0FD88828983C3E09CF0A3E09DF08882AD
:1024F3008983C3E09420A3E0944E40229082107815
:10250300081216128A828B8378081215B18A828B7D
:1025130083A3A3A3A3E02420F0A3E0344EF08080A0
:1025230074F5121805E9FE900887E0FAA3E0FBEEC4
:10253300C333F8E433F974F128F582748039F583F1
:10254300E02AF508A3E03BF50978081219AC90815D
:10255300A41216301220A874021217588A088B0985
:102563008C0A8D0B74107808121553AA08AB097FD7
:10257300040218B174F11218058A0C8B0D8C0E8DA0
:102583000F740F12178DE0FAA3E0FB741112178D6D
:10259300E0F508A3E0F509741312178DE0FEA3E03C
:1025A300FF78081219ACEA2401F508EB3400F509A9
:1025B300E4F50AF50B780C79081213EA9081A078F8
:1025C30008121612780C79081213EAAA0CAB0DAC98
:1025D3000EAD0F1220A874021217588B09EA450991
:1025E30060047A0180027A00EC2AFCED3400FDECF1
:1025F300F8EDF97A717B021216B788088909E4F5B8
:102603000AF50B8E828F837808121621ECF8EDF908
:102613007A717B021216B78A088B0974057808123F
:10262300172F8E828F83A3A3A3A3E508F0A3E50945
:10263300F07F080218B1C082C083E9906000F0D037
:0426430083D082229C
:10264800FFFFFFFFFFFFFFFFC082C083E9900CFC84
:10265800F002286F74F7121799E9900653F07C8BF3
:102668007D067AFF7BFF120C2890065474FFF0A3B6
:10267800F0A3E4F0A3F07905120BB6900653E0F945
:10268800120ADE7A407B0C120E0202357D74F412B7
:1026980017998A088B09EB54806030900653E0F94B
:1026A8001204A28A0A8B0BAE0AAF0BEE4F60138E90
:1026B800828F83E064B07003120BC8EEFAEFFB124E
:1026C8000490AA08E5096480FB80047A007B000274
:1026D800283E74F212179974FC121742EAFEEBFFB7
:1026E800741212178D123A64EE4F700302277D742C
:1026F8000212178DEEF0A3EF122A79ECF0A3ED1277
:102708002A79AA82AB83120AD8E9F50A706AE50821
:10271800450960648E828F83123A4AEE4F60567A7A
:10272800067B001204FC8A0C8B0DA80CA90DE84945
:102738007005750A13804188828983E412278AEE1E
:10274800F0A3EF123A75E508F0A3E509F0900659F1
:102758001228119006597005123527801B1235155D
:102768008003EAFCEBFD8C828D8312281170F38CB8
:10277800828D8380E3750A02A90A7404121758022D
:102788003C64F0A3123A1BA32274F2121799890A27
:10279800E975F017A4FEAFF0900658E4F0900656DD
:1027A800122811600A120502900656E4F0A3F0EE12
:1027B800FAEFFB1204FC8A088B09EA4509602FEE40
:1027C800FCEFFD790012047E900656E508F0A3E5BB
:1027D80009F07B0080081227FBE4F0A3F00BEBC3A1
:1027E800950A40F2E50A900658F0790080027913BC
:1027F800023C64EB75F017A4F8A9F0900656E0289F
:10280800FAA3E0398A82F583221231B9EA4B22749D
:10281800F41217997900EAA2E0501B75085E750951
:102828008178081219AC7C047D007AFE7B0C120BAF
:10283800B074021217587F0402186BC082C08390CC
:102848000659122876601C88828983A3A3E06A70DF
:1028580003A3E06B8882898370E8A3A3A3A3123142
:10286800B580047A007B00D083D082020135123D06
:102878004AE8492274EE12179974FC121742EAFECC
:10288800EBFF851882851983E4F0A3F0EE24021289
:102898003507EE2405123A22EE2404F50EEF122E27
:1028A8002EE024FE603924FC604624FE605224FE9B
:1028B800605E24FE700302298F24FE70030229F350
:1028C80024FE7003022A0224FE7003022A1124FC4B
:1028D8007003022A2024FE7003022A2F022A6C9019
:1028E80006727417F0A3E4122A81120856022A6CA1
:1028F800851882851983AC82AD83120BCE022A3CDF
:10290800851882851983AC82AD83120BD4022A3CC8
:10291800850C08850D09740212178DAC82AD83856C
:1029280008828509831231B5120AFC8A0C8B0DAC1A
:102938000CAD0DEC4D603BE4F50CF50D780C12195F
:10294800AC750C72750D06780C1219AC750C737594
:102958000D06780C1219AC740812178D1219C312CF
:102968003D6E121758E9F50C700B1231AB12086E58
:10297800800F750C01850882850983122A6F12352C
:1029880027850C08022A3F740212178DAC82AD838A
:10299800850C82850D83122F80603C850C82850D05
:1029A80083A3A31219C37510727511067810121932
:1029B800AC75107375110678101219AC74081217DB
:1029C8008D1219C3123D6E121758E9F509700B12D2
:1029D80031AB120874800F750901850C82850D834F
:1029E800122A6F123527850908804C8518828519A7
:1029F80083AC82AD83120BDA803A851882851983FD
:102A0800AC82AD83120BE0802B851882851983ACCC
:102A180082AD83120BE6801C851882851983AC82EF
:102A2800AD83120BEC800D851882851983AC82ADBD
:102A380083120BF2E9F508E50860298E828F83A3DB
:102A4800E06414601F850E82850F83E09006721281
:102A58002A79123D46900673123527E508A3122AF3
:102A680081120850023416123D4A8518828519834E
:102A780022F085188285198322F07C727D06850AEA
:102A880082850B831231B92274EE12179974FC12E5
:102A980017428A0A8B0B8C0E8D0FEA2405F508EB7A
:102AA8003400F5097C157D0079007A727B061204E2
:102AB8007EE5082402F50CE509123A258518828579
:102AC800198385821085831178101219AC850882C4
:102AD800850983A3A3A3A3122F771219ACE50824B1
:102AE80005F510E5093400F51178101219AC850CBC
:102AF80082850D831232CC120AF674061217588A90
:102B0800108B11AE10AF11E50A2402F50AE50B127D
:102B1800350AEE4F7003022C4E8017740212178D7F
:102B28001231B588828983EAF0A3EBF0900672E04F
:102B380004F0900672E0C394054003022C4EE4F5BD
:102B480010F51178101219AC75105B751106781014
:102B58001219AC75105C75110678101219AC740650
:102B680012178D1219C37910EEFCEFFD123D701289
:102B78001758E9705E850882850983A3A3A3A3A3D8
:102B8800A3A3E0F890065BE0687048122F7712194B
:102B9800AC7C5C7D06E5082408FAE5093400FB12E4
:102BA80004787402121758E960298E828F83A3A3D0
:102BB800A3A31231B5900672E0F5107402781012D2
:102BC800172F74732510F58274063511F583EAF012
:102BD800A3EBF0740212178D85821085831178108B
:102BE8001219AC740212178D1219C3850C82850D47
:102BF800831231DB1217588A108B11AE10AF119067
:102C08000672E0F5107511007402781012172F740F
:102C1800722510F874063511F988828983A3122861
:102C2800117003022B1AE82403080808E93400F994
:102C3800EE4F6003022B238882898374FFF0A3F090
:102C4800900672E004F0900672E0600A1231AB124E
:102C580008627900800B85088285098312351E7900
:102C68000A02341674EA12179974FE1217428C126B
:102C78008D13EA2405F50CEB123D58123A4E7508EF
:102C880000750900EA2402F510EB3400F5118518E7
:102C98008285198385820A85830B780A1219AC8587
:102CA8000C82850D83A3A3A3A3122E441219ACE5AD
:102CB8000C2405F50AE50D12350A780A1219AC85B7
:102CC8000C82850D83122E48120AF67406121758C4
:102CD8008A0A8B0BEA450B7003022DE9EA2404F5F6
:102CE8000EEB122E2E123A4E8A828B83A3A3A3E0F8
:102CF800F98510828511831231BF6003022DE9E442
:102D0800F514F51578141219AC75145B7515067859
:102D1800141219AC75145C75150678141219AC7474
:102D28000612178D1219C37913AC0AAD0B851082E0
:102D3800851183123D76121758E9F5096003022DB3
:102D4800E990065BE0F8E5087009E0240290067354
:102D5800F08014900673E0FCE82402FAE43400FBE7
:102D6800EA6C7001EB707E850882AA82122F6E943D
:102D780014122F66506B850E82850F83E0C0E074B5
:102D8800742A122E25D0E0F00508850E82850F835F
:102D9800A3E0C0E085080A7474250A122E25D0E045
:102DA800F0050890065B122E441219AC7C5C7D0677
:102DB80085080A7474250A122E3812175890065B73
:102DC800E02508F50874FF6E700374FF6F6012EE5B
:102DD80024010EEF3400FFE508C394145003022CBD
:102DE80096E50860131231C9851082851183123166
:102DF800B512086879008014E509700375090A8519
:102E08001282851383EEF0A3EFF0A909740212175A
:102E1800587F0E02186B85080C7474250CF58274A3
:102E2800063400F583223400F50F850E82F58322DF
:102E3800FA74063400FB120466740222123A8422E1
:102E4800A3A3122E4E22123515FDEEFAEFFB2274C3
:102E5800EE12179974FE1217428C0E8D0FEA240594
:102E6800F50CEB123A25750B00900672E4F0F50AA2
:102E7800EA2402F508EB3400F5098044900672E074
:102E8800FA90065BE0F8122F6E9417122F66400D29
:102E9800900672E0F87416C39890065BF0122F77CC
:102EA8001219AC7C5C7D0674732AFA7406122E3BE8
:102EB80012175890065BE0F8900672E028F0050AB1
:102EC800E50C2416F582E50D122E29E0F8E50AC373
:102ED800985074900672E0C39416506BE50AC33399
:102EE800F8E433F9E50C28FEE50D39FF85188285ED
:102EF8001983AC82AD838E828F83122F8070087500
:102F08000B0112351A8050E4F510F51178101219DA
:102F1800AC75105B75110678101219AC75105C75DC
:102F2800110678101219AC740612178D1219C3798C
:102F380016850882850983123D76121758E9F50B24
:102F48007003022E8480BB7C727D06850882850909
:102F5800831231B512087AA90B7402023418E99465
:102F680000C365D03322EA28F8E43400F9E822E007
:102F7800F51075110078102212340D8A108B11ACDF
:102F880010AD11EC4D2274EA12179974FC12174215
:102F98008A0C8B0D8C128D13EA2405F50AEB123579
:102FA8000A750800750900E50A2402F510E50B34D6
:102FB80000F511740212178D85820E85830F780E25
:102FC8001219AC850A82850B83A3A3A3A3123A2AFC
:102FD8001219ACE50A2405F50EE50B3400F50F7857
:102FE8000E1219AC8510828511831235101231AF7B
:102FF800120AF674061217588A0E8B0FAE0EAF0F10
:10300800E50C2402F50EE50D3400F50F80388882B2
:10301800898374FFF00508122E1E74FFF0050890CE
:10302800065BE0F50C750D00780C1219AC7C5C7D24
:103038000685080C7474250C122E38121758900641
:103048005BE02508F508EE4F60278E828F83A3A3E7
:10305800A3E0F9850E82850F831231BFEE24041296
:103068003A22E96027850C82850D831231A1123539
:1030780027E50870030231871231C9850E82850F52
:10308800831231B5120880790002319CE4F514F5F9
:103098001578141219AC75145B7515067814121985
:1030A800AC75145C75150678141219AC74081217EF
:1030B8008D1219C37911EEFCEFFD850E82850F8301
:1030C800123D76121758E9F509709A850882AA8286
:1030D800EA90065B7009E02404900673F08025E00E
:1030E800F8900673E0F514E82404FCE43400FDECE1
:1030F80065147001ED7081122F6E9412122F6640C4
:1031080003023080850C82850D83E0C0E074742A48
:10311800122E25D0E0F00508850C82850D83A3E0EA
:10312800C0E0122E1ED0E01231E485820C85830D9A
:10313800780C1219AC740412178D1219C3851082F9
:103148008511831231DB1217588A0C8B0DAE0CAF28
:103158000D85080C7474250CF874063400F9EE4FCC
:103168007003023016851882851983E08882898366
:103178001231E4A3E0C0E0122E1ED0E0023024E5B4
:1031880009700375090A850A82850B831231A11219
:103198003527A9097404022E16123D4A8512828524
:1031A8001383227C727D06850A82850B831231B9CE
:1031B80022E0FAA3E0FB221231B9120AE4E9F50988
:1031C80022900673E0F5F0E50884900672F07C72B0
:1031D8007D0622122E4E120B02740422F005088579
:1031E80018828519832274EC12179974FE121742FB
:1031F8008A088B098C0E8D0FEA2405FEEB3400FF3C
:103208001233F7EE2418123A22EA450B7003023201
:103218009A1233E050291232BF8A108B11EA4511F5
:10322800606B7912AC0AAD0B85088285098312316F
:10323800B5851082851183121797E9F50A7058E44D
:10324800F50AF50B780A1219AC8E828F83A3A3E0D6
:10325800F50A780A1219ACEE2403123507780A1217
:1032680019AC8E828F831232CC120C167406121788
:1032780058E9F50A7021850C82850D83E0701F8559
:1032880008828509831231B51208868011750A0EE5
:103298008009750A018004E50A600312351A850C55
:1032A80082850D83E0600479008002A90A74021205
:1032B80017587F0C02186B8518828519831231B94B
:1032C800120C0422123515FD8508828509831231F6
:1032D800B92274EE12179974FE1217428A088B09E4
:1032E8008C0C8D0DEA2405FEEB3400FF750E0012E0
:1032F80033F7EA450B70030233BE1233E0502C1249
:1033080032BF8A0E8B0FEA450F604A7912AC0AADBC
:103318000B8508828509831231B5850E82850F8356
:10332800121797E9F50E60030233C18508828509F3
:10333800831235FCAA0AFB1233D270147AFF7BFF82
:103348001233D2606C88828983E50AF0A3E50BF01A
:10335800750A008007750E0E805F050A900658E012
:10336800FAE50AC39A504AE50A75F017A4FAABF0D1
:1033780088828983A3A3E02AFAA3E03BFB8A828B95
:1033880083123510EC4D70D2750A17750B00780A48
:103398001219ACEEFCEFFD1204667402121758EE17
:1033A800FCEFFD8508828509831231B512088C80EF
:1033B80014750E098003750E01123D42850C828535
:1033C8000D83123527A90E022F61120BF88A108B74
:1033D80011A810A911E84922E5082402F508E50911
:1033E8003400F5098A828B83A3A3A3E0A2E5228592
:1033F8001882851983AC82AD838E828F8312340D37
:103408008A0A8B0B22E0FAA3E0FB120AFC2274045E
:103418001217587F0A02186B74EC1217998C108DCA
:1034280011EA2405F50CEB123A25750F00EA24027F
:10343800F50AEB12350A850A82F5831231B5123D79
:10344800FC70030234FC750E008071850C82850DBA
:1034580083E06401704F8E828F83A3A31219C38EF9
:10346800828F83A3A3A3A3E0F51275130078121229
:1034780019ACEE2405F512EF3400F5137812121981
:10348800AC1231AF120C167406121758E9F50F601A
:1034980014850C82850D83E4F0123D4285108285E7
:1034A80011831235277C177D007900EEFAEFFB12A5
:1034B800047E8E828F83E4F0A3F0050E900658E018
:1034C800F8E50EC398501EE50E75F017A4F8A9F09C
:1034D800850882850983A3A3123D62123510EC4D3D
:1034E800600302345385088285098374FFF0A3F0D2
:1034F800E50F70061231AF120892A90F0232BAF521
:103508000AEF3400F50B22A3123515FD22E0FCA3C7
:10351800E0228E828F83123D4A850E82850F83E8D2
:10352800F0A3E9F022C082C083900654E06A7003D9
:10353800A3E06B70067A547B0680047A007B000255
:10354800286F74F71217997F00EF75F003A4F8A994
:10355800F0EC28F8ED39F988828983E06A7003A3D2
:10356800E06B7006E8FAE9FB800B0FEFC3940240AA
:10357800D87A007B007F0102186B74F61217991233
:103588003B3370067A007B008007A3A3A3A3123104
:10359800B5023BF474F2121799E9FE740E12178DF6
:1035A8001235FC741012178D123A648C828D83E0E8
:1035B8006402703BA3123D4688828983E0F50CA320
:1035C800E0F9A80C74026870037429697021750CFD
:1035D80002750D00780C1219AC78081219AC780A2B
:1035E8001219ACEEF9120C3A7406121758800279C7
:1035F80001023C64E0F50AA3E0F50B2274E8121717
:103608009974FB121742E9851882851983F08A1686
:103618008B178C0E8D0F741F12178D123A6474213C
:1036280012178D1235FC742312178D123A4E75102D
:10363800008C828D83A3A3A3E0A2E4502A741D12F8
:10364800178D1232C58A828B83E582458370030207
:103658003710790AAC0EAD0FAA16AB17121797E9F7
:10366800F5106003023713850E82850F83E064022C
:1036780060030239C9A3123D46850882850983A3E0
:10368800858212858313E50E2406F50CE50F123AA0
:103698002588828983E0FAA3E0F9EA2400F514E496
:1036A80039F5157814121A36010000280128D83681
:1036B80007000228AF3703281F370029D938012906
:1036C80001390229A8380329D93804296A39C9399E
:1036D800EE4F703E850C82850D83123A3FFAE9FB66
:1036E8008A828B83E0850A82850B83123A7B1219C2
:1036F800AC8A828B83A3123515FDAA08AB09120484
:10370800667402121758800375100EA9107405020A
:103718003D5075100B80F4EE4F70F7850A82850BCB
:10372800837401F0123A54850882850983F07C007D
:103738007D00850E82850F83A3A3A3A3E02401FA4D
:10374800A3E03400FB120AFCEA4B60418A828B83B7
:10375800E02402F8850A82850B83E028F0EA240435
:10376800F8EB3400F988828983E085128285138317
:10377800123A8D123A7B1219AC8A828B8312350F5A
:10378800E5082403FAE5093400FB023706850A82B6
:10379800850B83E02404F07C047D007900AA12AB39
:1037A8001312047E023713EE4F600302371A123ADF
:1037B80054FEA3E0FF850A82850B837404F0EE852E
:1037C8000882850983F0EF851282851383F07403DC
:1037D80012178DAC82AD83EEFAEFFB123B2170031A
:1037E8000238858A828B83A3A3123A4A740112177E
:1037F8008D85820E85830F780E1219AC7405121709
:103808008D1219C37CFF7DFF120B02740412175826
:103818008B0FEA450F7033850C82850D83123A2A87
:103828001219AC850C82850D83A31219C37C027D05
:10383800007A387B8212092E7404121758E9700A2C
:10384800740112178D74FFF0A3F08E828F83E064E9
:10385800027034750C02750D00780C1219AC8E824A
:103868008F8312350FE5082404FAE509122E3B125E
:103878001758850A82850B83E02402800974011297
:10388800178DEEF0A3EFF0740112178D123A3BF08A
:10389800740112178DA3123A33A3A3A3F0023713AE
:1038A800EE4F600302371A850C82850D831235109E
:1038B800AA16AB17120C2E850A82850B837402F0A8
:1038C800EA850882850983F0851282851383EB8057
:1038D800CBEE4F600302371A123A54F8A3E0F98589
:1038E8000A82850B837402F0E8850882850983F0D3
:1038F800E985128285138380A3850C82850D831246
:1039080031B5120460EAFC8C82A882C39EE49F4011
:103918004BE86E7001EF70047C00801F851882856B
:103928001983E0FAEE2AFAEF3400FBC3EA98EB9425
:10393800005003E08004EECCC39CFCEC850A828531
:103948000B83F08C0A750B00780A1219AC850C826F
:10395800850D83E02EFCA3E03F02370175100702B6
:103968003713EE4F600302371A850C82850D8312D8
:103978003D46850A82850B837407F0888289831205
:103988003A33123A1BE0851282851383F0E8240249
:10399800FAE93400FB8A828B83123A33123A6C12AA
:1039A8003A3BA3123A75123A44F0E82405F8E93490
:1039B80000F988828983123A44A3123A8DA3023807
:1039C800A1741D12178D123B2C7003023710123D83
:1039D80046880C890DE8450D70030237108E108F4C
:1039E8001178101219AC780A1219AC78081219ACAF
:1039F800740612178DE0F9AC0EAD0FAA16AB178539
:103A08000C82850D831217977406121758E9F51062
:103A1800023713F088828983A322F50CEF3400F56E
:103A28000D22E0F50E750F00780E22E085088285DC
:103A3800098322123A9422123D4AE822123A94A3A8
:103A4800A322A3A3A3A3E0FEA3E0FF22850C828503
:103A58000D83E0F8A3E0F5838882E022E0F508A36F
:103A6800E0F50922A3A3F08A828B83A32212278C74
:103A7800A3A322F08A828B83123A8422E0F50A7586
:103A88000B00780A22123A1B123A9422E085088227
:103A9800850983A3A32274EE12179974FE121742A4
:103AA8008A0A8B0BECFAEDFB741412178DE0F510F3
:103AB800A3E0F511741612178DE0FE741812178D15
:103AC800E0F50EA3E0F50F851882851983AC82AD69
:103AD80083123B21603E851882851983123B2C6036
:103AE8002FA3A3123A64E50845096024780E121939
:103AF800AC78101219ACEEF9AC0CAD0DAA0AAB0BF0
:103B0800850882850983121797740412175880064E
:103B1800790E80027901022F61120AFC8A0C8B0D42
:103B2800EA450D221231B9123B3322120BC28A82A6
:103B38008B83E58245832274F612179974FE121757
:103B480042740C12178D123A3F851882851983F03A
:103B5800740112178DE9F0E4F508F50978081219CF
:103B6800AC75080278081219AC740412178D858296
:103B78000885830978081219AC120C1674061217F6
:103B8800587402121758806474F7121799EAFEEBFA
:103B9800FF89087C8B7D06120C2EEA5402600BA963
:103BA80008EEFAEFFB120AF08002790102357D7403
:103BB800F612179974FF6A700374FF6B701C7B0010
:103BC800EB75F003A4F8A9F0EC28F8ED39F9123BED
:103BD800F90BEBC39402501480E6120BFE8A088B93
:103BE80009A808A909E8496003123BF97F020218ED
:103BF8006B8882898374FF12278AE4F02274F61294
:103C08001799120BFE8A828B83E58245836006A38F
:103C1800A3E0FA80027A007B0080D174F21217992F
:103C28008A088B09ECFEEDFF740E12178DE0F50A79
:103C3800123C69701CEEFCEFFD7AFF7BFF123C69B9
:103C480070047911801688828983E508F0A3E50954
:103C5800F088828983A3A3E50AF079007F06021819
:103C68006B120BFE8A0C8B0DA80CA90DE849227467
:103C7800EE121799EAFEEBFF8C088D09890C741275
:103C880012178D123D46741412178D1235107416C2
:103C980012178D1231B5750D00EC4D6003023D3AD7
:103CA8007402650C6003023D3588828983123515DC
:103CB800F9EC2400F50EE439F50FEAF4F8EBF4F921
:103CC800EC58F8E50F59F9E849705DE5082406F85D
:103CD800E5093400F9880A890B8882F583122E4A8F
:103CE800120C2E8A108B11E50E65107004E50F6515
:103CF800116042780E1219AC850A82850B83122E48
:103D08004A120C347402121758E9F50D7027780E10
:103D18001219AC850882850983A3A3122E48120CB8
:103D2800467402121758800D750D808008750D0DA8
:103D38008003750D0BA90D02341B8E828F83123DF3
:103D48004A22E0F8A3E0F9221217587F1002186BF4
:103D58003400F50D850C82F58322E028FEA3E039B6
:103D6800FF8E828F83227916850A82850B83123112
:103D7800B9120C1074082274F2121799EAFEEBFFBC
:103D8800890B7401650B600E7402650B7063790111
:103D9800120E20E9705BEEFAEFFB123DFC604775EE
:103DA8000A00800B7C177D00790012047E050A90BA
:103DB8000658E0F8E50AC3985021E50A75F017A4FB
:103DC800F8A9F0850882850983A3A3E028FAA3E06F
:103DD80039FB8A828B8312287670C9850882850907
:103DE8008374FFF0A3F07C8B7D06EEFAEFFB120CD8
:103DF80028023C64120BF88A088B09EA45092274E8
:103E0800F21217998A088B09ECFEEDFF740E12174F
:103E18008D1235FC900CFCE0F4603D7A097B0012B1
:103E2800048AEA4B60328A828B8374B1F0A3E4126D
:103E38003A6EA3123A6CA3E508F0A3E509123E63B3
:103E4800EEF0A3EF123E63A3A3E50AF0A3E50BF09F
:103E5800900CFCE0F9120496023C64F08A828B8391
:103E6800A3A3A3A3A322C082C0839061907404F08B
:103E7800A37448F0A37402F09061807440F09061DC
:103E8800BC7403F09061877419F0906265741BF03C
:103E980090619C740DF090619A7433F0A37455F09E
:103EA8009061A0743AF09008CFE064017009C29163
:103EB800900739746780059007397461F090264E31
:103EC800E493906186F0902648E493F46027E493A5
:103ED800540FF8906185E0686012E5C65480444943
:103EE800F5C6E59E547F644970F8E8F053C680E54E
:103EF8009E547F70FA79051211740240B0C082C0D6
:103F080083E9540FF9906185E0696012E5C6548031
:103F18004449F5C6E59E547F644970F8E9F053C6F4
:103F280080E59E547F70FA0240B0C082C083E5A845
:103F3800F853A87E906181E4F0A3F0A3F0C2BA53CD
:103F48009AFEC289759B00C2C275E9007591007519
:103F5800BF0075A91175B905906181F0A374C0F00F
:103F6800A3E4F0D2BA439A0174805842A80240B040
:103F7800C082C08374F8121742900737E0F8A3E0B4
:103F8800F9E84970030240A6900737E054406023DF
:103F98007908851882851983AA82AB83120FDC857C
:103FA8001882851983AA82AB83120CB2900737E076
:103FB80054BFF0E054806010790C7AF37B08120F3C
:103FC800DC900737E0547FF0E0A2E0503190619A2E
:103FD8007433F0A37455F09061A0743AF09008CF50
:103FE800E064017009C291900739746780059007F1
:103FF800397461F0120CB8900737E054FEF0E054C1
:1040080002603190619A743FF0A3745AF09061A0F5
:10401800747FF09008CFE064017009D2919007395D
:1040280074718005900739746AF0120CB8900737DC
:10403800E054FDF0E05404601390264CE493906142
:1040480086F0120CBE900737E054FBF0E05408608D
:104058001390264DE493906186F0120CBE900737BA
:10406800E054F7F0E05410601390264EE49390610A
:1040780086F0120CBE900737E054EFF0E054206051
:104088000A120CBE900737E054DFF0A3E054016039
:104098000D120F04120CC4900738E054FEF0740897
:1040A8001217588003F0A3F0D083D0820201357430
:1040B800EC12179974F4121742851882851983AC8B
:1040C80082AD837583817582C47404121655902657
:1040D8004C93F46003024244907808E0C394025081
:1040E80003024224740412178DAC82AD8375838158
:1040F80075824A7408121655851882851983858237
:1041080012858313740412178DAC82AD83750EFF6C
:10411800750FFF7FFF7E00750C48750D788015744C
:10412800086E70030241B774096E70030241B774D8
:104138000A6E607B850C82850D8378081216128CB6
:10414800828D83A909E50AC9F888107418780812BD
:104158001553E5104508F8C3E098A3E099850C824B
:10416800850D83780812161240188C828D83741876
:104178007808121553E5104508F8E0C398F8A3E04D
:10418800801C74187808121553E5104508FAE9FBE5
:104198008C828D83E0F8A3E0F9EAC398F8EB99F9EB
:1041A800C3E8950EE9950F5006880E890FEEFF0EAD
:1041B800E50C2404F50CE50D3400F50DEEC394135D
:1041C800500302412774FF650E700474FF650F6089
:1041D800238F087402780812172F74482508F5826F
:1041E80074783509F58378081216128512828513BA
:1041F80083E508F0EC24020C0CED3400FD851282F6
:10420800851383A3858212858313740C12178DE599
:10421800826C7003E5836D600302411575080175B2
:10422800090078081219AC740212178DAC82AD839C
:104238007A937B091207367402121758740C1217F6
:10424800587F0C02186BC082C0839061AE7468F00E
:10425800A3746AF090624574FBF0A304F053F4FD74
:1042680043FE029008CF7401F09061A0E0643A9098
:10427800619A70237433F0A37455F09061A0743A76
:10428800F0740164017009C291900739746780283D
:1042980090073974618021743FF0A3745AF09061DB
:1042A800A0747FF0740164017009D2919007397489
:1042B800718005900739746A0240AF7F0402186B59
:1042C800C082C083900881E06401700A900886E08B
:1042D8006004790C800279000240B0C082C0837506
:1042E800E1F1900884E06055146008146059146086
:1042F800518059120F1690087AE0F97A7B7B0812E0
:1043080010F69081BC12163012112C90820C1216E5
:1043180030121102900885E0F912110E790112117C
:1043280068900878E02416F8A3E03400F9888289B8
:1043380083742EF0A3740FF079000240B0120F1CA2
:1043480080B4120F2280AF120F2880AA791280EA57
:1043580074F412179975D90D900869E0A2E0E43356
:104368001313F890087AE0C4333354C0484401F575
:10437800D97878790888828983A3A3A3E0F5D988B6
:10438800828983A3A882A983E8647E7003E964080C
:1043980070E37869790888828983A3E0F5D98882EF
:1043A8008983A3A882A983E8646F7003E96408700D
:1043B800E575E195900869E0F97A6A7B081210FCC6
:1043C800900D1E74C2F0A3740EF0A37424F0A374AD
:1043D80010F0A37424F0A37410F0A37424F0A37451
:1043E80010F0A374C8F0A3740EF0A37424F0A3749F
:1043F80010F0A374E0F0A3740EF0900D2C7424F068
:10440800A37410F0A37424F0A37410F0A37424F020
:10441800A37410F0A37424F0A37410F0A37424F010
:10442800A37410F0A37424F0A37410F0900878E03B
:10443800F8A3E0F5838882A3A37808121612908166
:10444800B8780812159E9081CC78081215EC90085F
:1044580078E0240EF8A3E03400F98882898378088C
:10446800121621900878E02414F8A3E03400F988A3
:104478008289837413F09007357402F00242C3C036
:1044880082C08390088AE02407F5D990087AE0C4AE
:10449800333354C0F5D97878790888828983A3A3FF
:1044A800A3E0F5D988828983A3A882A983E8647EDA
:1044B8007003E9640870E390088AE0601F787879EF
:1044C80008FAE82413F582E93400F583E0F5D98881
:1044D800828983A3A882A9831AEA70E69008AAE0D1
:1044E8002407F5D990087AE0C4333354C04404F55E
:1044F800D97878790888828983A3A3A3E0F5D98835
:10450800828983A3A882A983E8647E7003E964088A
:1045180070E39008AAE0601F78787908FAE82433F5
:10452800F582E93400F583E0F5D988828983A3A868
:1045380082A9831AEA70E675E195900D1E74CEF093
:10454800A3740EF0A37424F0A37410F0A37424F0E1
:10455800A37410F0A37424F0A37410F0A374C8F02B
:10456800A3740EF0A37424F0A37410F0A374E0F005
:10457800A3740EF0900D2C7424F0A37410F0A3749F
:1045880024F0A37410F0A37424F0A37410F0A3749F
:1045980024F0A37410F0A37424F0A37410F0A3748F
:1045A80024F0A37410F0908210121630900878E06E
:1045B800240EF8A3E03400F98882898312163C900F
:1045C8000878E02414F8A3E03400F9888289837419
:1045D80012F090073574010240AFC082C083900882
:1045E8008AE02407F5D990087AE0C4333354C044EC
:1045F80002F5D97878790888828983A3A3A3E0F59E
:10460800D988828983A3A882A983E8647E7003E994
:10461800640870E390088AE0601F78787908FAE8FF
:104628002413F582E93400F583E0F5D9888289837B
:10463800A3A882A9831AEA70E675E195900D1E7405
:10464800DAF0A3740EF0A374DAF0A3740EF0A37476
:10465800DAF0A3740EF0A374DAF0A3740EF0A37466
:10466800DAF0A3740EF0A374DAF0A3740EF0A37456
:10467800E0F0A3740EF0900D2C7424F0A37410F0E5
:10468800A37424F0A37410F0A37424F0A37410F09E
:10469800A37424F0A37410F0A37424F0A37410F08E
:1046A800A37424F0A37410F09082101216309008AE
:1046B80078E0240EF8A3E03400F988828983121682
:1046C8003C900878E02414F8A3E03400F988828943
:1046D800837414F090073574040240AFC082C0831D
:1046E80090088AE02407F5D990087AE0C433335457
:1046F800C04406F5D97878790888828983A3A3A36A
:10470800E0F5D988828983A3A882A983E8647E70AA
:1047180003E9640870E390088AE0601F78787908F4
:10472800FAE82413F582E93400F583E0F5D98882A4
:104738008983A3A882A9831AEA70E69008AAE024CC
:1047480007F5D990087AE0C4333354C04404F5D946
:104758007878790888828983A3A3A3E0F5D9888229
:104768008983A3A882A983E8647E7003E96408703A
:10477800E39008AAE0601F78787908FAE82433F50E
:1047880082E93400F583E0F5D988828983A3A88279
:10479800A9831AEA70E675E195900D1E74D4F0A30A
:1047A800740EF0A37424F0A37410F0A37424F0A37F
:1047B8007410F0A37424F0A37410F0A37424F0A36D
:1047C8007410F0A37424F0A37410F0A374E0F0A3A1
:1047D800740EF0900D2C7424F0A37410F0A37424BC
:1047E800F0A37410F0A37424F0A37410F0A374243D
:1047F800F0A37410F0A37424F0A37410F0A374242D
:10480800F0A37410F0908210121630900878E0240B
:104818000EF8A3E03400F98882898312163C9008C8
:1048280078E02414F8A3E03400F9888289837415A9
:10483800F090073574030240AFC082C083900878B7
:10484800E0F8A3E0F5838882A3A3A3A3A3A3E402CB
:1048580040AD74F7121799900763E0F875F004A457
:10486800C8AAF02AF9746528F8740739F9E8240504
:10487800FAE93400FB8A828B83E0FCA3E0FD88829E
:104888008983A3A3A3A3A3A3A3A3A3ECF0A3EDF0FD
:1048980088828983A3A3A3A3A3A3A3E024FFF8A3E7
:1048A800E034FFF98A828B83E8F0A3E9024AFF74B7
:1048B800F7121799EAFEEBFF9061D0E06003024916
:1048C8009475D90E75D90375D904EE248CF582EF49
:1048D8003400F583E5822408F8E5833400F9E0F52F
:1048E800D9A3E865827003E9658370F2EE2484F544
:1048F80082EF3400F583E5822404F8E5833400F977
:10490800E0F5D9A3E865827003E9658370F275E183
:10491800957908EE248CFAEF3400FB120FD0790455
:10492800EE2484FAEF3400FB120FD07C00EEF8EF8F
:10493800F9ECFAC3E49AFA95E0FBEE2AFAEF3BFBAE
:10494800EA248BF582EB3400F583E0C0E0E824AB81
:10495800F582E93400F583D0E0F00C88828983A3DE
:10496800A882A983ECC3940840C7EE2470F582EFAF
:104978003400F583E0F8A3E0F9EE2472F582EF3411
:1049880000F583E8F0A3E9F0790180027900024B91
:1049980000C082C08375D90275D90375D90575E140
:1049A80095EA2470F582EB3400F583E0F8A3E0F98A
:1049B800EA2472F582EB3400F583E8F0A3E9F07994
:1049C800010240B074F6121799EAFEEBFF9008D383
:1049D8007406F07508D375090878081219AC7C01BB
:1049E8007903121018740212175875D90675D9036D
:1049F8007582D3758308E0F5D9A3E58264D870047D
:104A0800E583640870F075E195900735E0640870F7
:104A18001EEE2470F582EF3400F583E0F8A3E0F988
:104A2800EE2472F582EF3400F583E8F0A3E9F0791B
:104A380001024BCC74F6121799EAFEEBFF9061D095
:104A4800E0706678019008D3740BF0900735E06445
:104A58000770197508D375090878081219AC7C0114
:104A6800790312101874021217587805740128F582
:104A7800D975D9037582D3758308E8FAE0F5D9A307
:104A88001AEA70F875E195EE2470F582EF3400F5B6
:104A980083E0F8A3E0F9EE2472F582EF3400F583A1
:104AA800E8F0A3E9F0790180027900024BCC74F7B1
:104AB800121799EAFEEBFF75D90375D90375D90D5D
:104AC800EE24DEF582EF3400F583E0F5D975E19543
:104AD8007904121132EE2470F582EF3400F583E088
:104AE800F8A3E0F9EE2472F582EF3400F583E8F0DC
:104AF800A3E9F079018001F07F0102186B74F612C6
:104B08001799EAFEEBFF9061D0E0F87480C398FA39
:104B1800EE2483F582EF3400F583E06004780480A6
:104B2800027800E8240BF8EAC3985003024BCA7DC8
:104B3800099008D3EDF0EE24E3F8EF3400F97AD4C5
:104B48007B087C0888828983E08A828B83F088824C
:104B58008983A3A882A9838A828B83A3AA82AB8331
:104B68001CEC70E0EE2483F582EF3400F583E060FE
:104B78001D7508D375090878081219AC7C097903E2
:104B8800EEFAEFFB12101874021217587D0D74011B
:104B98002DF5D975D9037582D37583088D08E0F58D
:104BA800D9A31508E50870F675E195790412113254
:104BB800EE241DF582EF3400F583E4F0A3F07901CB
:104BC800800279007F0202186B74F6121799EAFEC8
:104BD800EBFF9061D0E0F87480C398FAEE2483F577
:104BE80082EF3400F583E06004780480027800E8FE
:104BF8002408F8EAC3985003024CD17D069008D3E4
:104C0800740CF0900752E09008D4F07A537B077840
:104C1800D579087C028A828B83E088828983F08A2E
:104C2800828B83A3AA82AB8388828983A3A882A963
:104C3800831CEC70E07A557B077C028A828B83E0C8
:104C480088828983F08A828B83A3AA82AB83888235
:104C58008983A3A882A9831CEC70E0EE2483F582E3
:104C6800EF3400F583E0601D7508D37509087808EE
:104C78001219AC7C067903EEFAEFFB1210187402D5
:104C88001217587D0A74012DF5D975D9037582D389
:104C98007583088D08E0F5D9A31508E50870F67541
:104CA800E1957904121132EE2470F582EF3400F5A3
:104CB80083E0F8A3E0F9EE2472F582EF3400F5837F
:104CC800E8F0A3E9F0790180027900024BCC74F690
:104CD800121799EAFEEBFF9061D0E0F87480C39850
:104CE800FAEE2483F582EF3400F583E0600478045B
:104CF80080027800E82404F8EAC3985003024DB013
:104D080078029008D3E8F0EE24F5F582EF3400F548
:104D180083E09008D4F0EE2483F582EF3400F58325
:104D2800E0601B7508D375090878081219AC7C0275
:104D38007903EEFA121018740212175878067401E3
:104D480028F5D975D9037582D37583088808E0F5E5
:104D5800D9A31508E50870F675E195EE2474F58277
:104D6800EF3400F583E4F0EE2480F582EF3400F5AB
:104D780083E4F0EE241DF582EF3400F583E4F0A31C
:104D8800F07904121132EE240DF582EF3400F58328
:104D9800E0F8A3E0F9EE2472F582EF3400F583E839
:104DA800F0A3E9F0790180027900024BCC74F61285
:104DB80017999061D0E0F87480C398FCEA2483F5D1
:104DC80082EB3400F583E06004780480027800E820
:104DD8002404F8ECC398405B79029008D37407F078
:104DE800EA24F6F582EB3400F583E09008D4F0EA83
:104DF8002483F582EB3400F583E060187508D375D9
:104E0800090878081219AC7C0209121018740212E9
:104E180017587906740129F5D975D9037582D375A0
:104E28008308E9F8E0F5D9A318E870F875E19579F1
:104E38000180027900024BCC74F5121799E9FCA2A3
:104E4800AFE433F50AC2AF7D0080010DEA246FF5A7
:104E580082EB3400F583E0F8EDC398501A8D08EA28
:104E68002508F8EB3400F9E8246BF582E93400F5FD
:104E780083E06C70D68024EA246FF8EB3400F9E004
:104E8800FEEA2EFAEB3400FBEA246BF582EB3400E1
:104E9800F583ECF088828983E004F0E50AA2E092C9
:104EA800AF7F0302186B74F6121799A2AFE433FDB3
:104EB800C2AFEA246FF582EB3400F583E014F07C8E
:104EC8000060368C08EA2508F8EB3400F9E8246C11
:104ED800F582E93400F583E0C0E0E8246BF582E967
:104EE8003400F583D0E0F00CEA246FF582EB34004F
:104EF800F583E0F8ECC39840CAEA246EF582EB34F7
:104F080000F58374FFF0EA246AF582EB3400F58338
:104F1800E4F0EDA2E092AF024BCCC082C083E5A8DA
:104F2800F8C2AFEA246BF582EB3400F583E9F0EAC6
:104F3800246AF582EB3400F583E4F0E8A2E792AF47
:104F48000240B074F3121799EAFEEBFFECFAEDFB9E
:104F58008A828B83A3A3A3A3E0541FF0EE2436F523
:104F680082EF3400F583E4F0F50AEEFCEFFD8A8267
:104F78008B83E0C0E0EC245DF582ED3400F583D04E
:104F8800E0F0750B00E50A33333354F8F50C8A82E8
:104F98008B83E0F508750900E50B7808121710E512
:104FA80008A2E0502FEE2436F8EF3400F988828901
:104FB80083E0F508EE2508F508EF3400F509E50863
:104FC8002438F582E5093400F583E50CF0888289F8
:104FD80083E004F0050B050CE50BC3940840AF050E
:104FE8000A8A828B83A3AA82AB838C828D83A3AC2B
:104FF80082AD83E50AC394055003024F767F05020C
:10500800186B74F7121799900761E0640170077ABA
:10501800007B000251817E00900767E070F1740107
:10502800F0A3E4F0A3F09007C704F09007CAE4F0F7
:10503800A3F09007CD04F090076AE4F0A3F0A3F082
:10504800A3F090077404F090079AE4F090821C1281
:10505800163090077D12163C900781E4F0A3F0A368
:10506800F09007E5F09007D9F09007CE7480F0A390
:10507800E4F09007D4F09007CCF0900850F0A3F03B
:10508800A3F0A3F0A3F0A3F0A3F0A3F0900859F0C5
:105098009007E8F0900838F0A3F090821C121630C0
:1050A80090083A12163C90821C12163090083E1254
:1050B800163C900844E4F0900846F0900842F090BE
:1050C800085CF0A3F0A3F0A3F0A3F0A3F0A3F0A36F
:1050D800F078617907E8246FF582E93400F5837484
:1050E800FFF00E88828983A3A882A983EEC3940463
:1050F80040E37A617B077870790888828983E0C009
:10510800E0EA2461F582EB3400F583D0E0F0888290
:105118008983A3A882A9838A828B83A3AA82AB836B
:10512800E864757003E9640870D07A617B07784891
:10513800790788828983A3E0C0E0EA24E7F582EB57
:105148003400F583D0E0F088828983A3A882A983FC
:105158008A828B83A3AA82AB83E864507003E964D4
:105168000770CF900761E004F06401700890076948
:10517800E0900763F07A657B07024B00C082C0832A
:10518800900768E4F0900767F0900761F0A3F0A338
:1051980074FFF075E1F10240B0C082C083780079F5
:1051A80000900768E060047865790788828983A39E
:1051B800A3A3A3E0F90240B074F6121799EAFEEB34
:1051C800FF8E828F83A3A3A3E0600F8E828F83A3B9
:1051D800A3A3E4F0900762E014F0900761E014F0F4
:1051E800700690076374FFF08E828F83A3A3E4F0A8
:1051F800900875E0700D900762E064017005790011
:10520800121114EE2465F582EF3400F583E0F8A35B
:10521800E0F9E8496029EE2465F8EF3400F98808D8
:1052280089098882F583E0FCA3E0FD900763E0FA32
:105238007B00120CE8850882850983E4F0A3F0EE70
:10524800FAEFFB121048024BCC74F7121799EAFEDA
:10525800EBFF8E828F83A3A3A3A3E0FA7B00120D3A
:105268002AEEFAEFFB120F9A121030024B00C0829E
:10527800C0837848790788828983A3E4F088828983
:1052880083A3A882A983E864507003E9640770E6E1
:105298009007490245DD74F6121799EAFEEBFFEC18
:1052A8002403F8ED3400F988088909EC2407F8ED9F
:1052B8003400F9E8FCE9FD8C828D83E0F8A3E0F97D
:1052C800850882850983E0FAA3E0FB1216B7EE246D
:1052D8000DF582EF3400F583E8F0A3E9F08C828DB8
:1052E80083E0F8A3E0F9850882850983E0FAA3E062
:1052F800FB1216B78B09EA45096013EE240DF582F7
:10530800EF3400F583E02401F0A3E03400F0024B11
:10531800CC74F6121799EAFEEBFFEE242EF582EF15
:105328003400F583E0FCA3E0FD780079FAECFAEDAF
:10533800FB1216B7EE2470F582EF3400F583E8F01F
:10534800A3E9F0780079FAECFAEDFB1216B78B09AD
:10535800EA45096013EE2470F582EF3400F583E026
:105368002401F0A3E03400F0024BCC74F01217993A
:10537800EAFEEBFF741012178D780812161212103D
:10538800D28A0C8B0D8C0E8D0F9081B4780C12156F
:105398009E9081CC780C1215EC780C1219A88E828C
:1053A8008F83E0F8A3E0F5838882A3A31216301256
:1053B80023DE7404121758E960030254C08E828FEA
:1053C80083E02402F8A3E03400F9E8FAE9FB8A82D2
:1053D8008B8378081215B19081CC78081216128A3E
:1053E800828B8378081215FFEE240BF582EF3400C8
:1053F800F583C082C0838E828F83A3A3A3A3A3E077
:105408002401F8A3E03400F9D083D082E068700367
:10541800A3E069700579010254C28E828F83A3A329
:10542800A3A3A3A3A3E02401F0A3E03400F0EE2497
:1054380074F582EF3400F583E064017036EE24756C
:10544800F582EF3400F583E0F8A3E0F98E828F83CC
:10545800A3A3A3A3A3A3A3E0687003A3E0697013A5
:10546800EE2475F582EF3400F583E02401F0A3E023
:105478003400F0EE2480F582EF3400F583E0640117
:105488007036EE2481F582EF3400F583E0F8A3E06E
:10549800F98E828F83A3A3A3A3A3A3A3E0687003B9
:1054A800A3E0697013EE2481F582EF3400F583E000
:1054B8002401F0A3E03400F079007F0802186B742F
:1054C800F7121799900763E0F875F004A4C8AAF0DA
:1054D8002AF9746528FE740739FF8028EE2465F8D8
:1054E800EF3400F988828983E0FCA3E0FD88828993
:1054F80083E4F0A3F08E828F83A3A3A3A3E0FA7BB7
:1055080000120CE8EE2465F582EF3400F583E0F82C
:10551800A3E0F9E849604FEE2464F582EF3400F522
:1055280083E0F50878081219B0EE2463F582EF34A9
:1055380000F583E0F9EE2465F582EF3400F583E0A9
:10554800FCA3E0FDEEFAEFFB120FC474011217582A
:10555800E96089EE2465F582EF3400F583E0F8A36D
:10556800E0F9E84970137C007D008E828F83A3A345
:10557800A3A3E0FA7B00120CE8024B0074F21217A6
:1055880099EAFEEBFF890A740E12178DE0FAEE24F1
:1055980062F582EF3400F583E0640160030256503F
:1055A8009061D0E0F87480C398F50CEE2483F582FE
:1055B800EF3400F583E060047804800278008908FD
:1055C800E928F8E43400F9E824020808E93400F985
:1055D800E50C98E499A2D265D0334068EA70057565
:1055E8000B028003750B01E0603975090078081219
:1055F80019AC7AD37B08120FFA740212175875087F
:10560800D375090878081219ACAC0AA90BEEFAEFA1
:10561800FB12101874021217587404250AF50A7C34
:10562800D37D087401250AF5D9850BD9E50A600DE3
:105638008C828D83F8E0F5D9A318E870F875E195A8
:10564800790080067907800279FF7F0602186BC00F
:1056580082C083E960208C828D83E08A828B83F00C
:105668008C828D83A3AC82AD838A828B83A3AA822A
:10567800AB8319E970E0ECFAEDFB0240B074EA1272
:105688001799907803E06442705E9008D2E014F0B5
:105698007056C2AF12569F00782AD0E0F618D0E0B4
:1056A800F6E59F5407F970059081AC80039081A8B6
:1056B8007808121612E9C4C0E07829E65508F508FA
:1056C80008E65509F509740B7808121720D0E0256B
:1056D80008F8906270E0A2E740F8E8C3339062727D
:1056E800F0906270E0D2E0F0900763E0F47003029B
:1056F8005AA8E0F875F004A4C8AAF02AF974652835
:10570800FE740739FFEE2402F582EF3401F583E0D9
:10571800F8A3E0F9E849601EEE2402F582EF3401AF
:10572800F583E0FAA3E0FBEE2401F582EF3401F5FE
:1057380083E0F91204BA8E828F83A3A3A3A3A3A341
:10574800A3E0F8A3E0F98E828F83A3A3A3A3A3E821
:10575800F0A3E9F0906054E090073CF0906055E0C9
:1057680090073DF0906056E090073EF0906057E05B
:1057780090073FF0906058E0900740F0906059E043
:10578800900741F090605AE0900742F090605BE02B
:10579800900743F090605CE0FC900744F090605DF7
:1057A800E0FB900745F090605EE0FD900746F090C2
:1057B800605FE0FA900747F0900742E08C08250800
:1057C800F8E43400F98D08E82508F8E93400F98B85
:1057D80008E82508F8E93400F98A08E82508FAE90C
:1057E8003400FBEE24F7F582EF3400F583E02AF06D
:1057F800A3E03BF08C08EE24F9F582EF3400F58342
:10580800E02508F0A3E03400F0EE24FBF582EF3445
:1058180000F583E02401F0A3E03400F0EE24FFF566
:1058280082EF3400F583E0F8A3E0F9E8496042909C
:105838006000E0C333FCE433FDE82CF582E93DF574
:1058480083E02AF0A3E03BF0906000E0FA90074480
:10585800E0FCEAC333FAE433FBE82AF8E93BF9E869
:10586800244AF582E93400F583E02CF0A3E0340003
:10587800F0900742E07011900745E0700BA3E070CC
:1058880007A3E070030259888E828F83A3A3A3A382
:10589800A3E0F8A3E0F9EE240DF582EF3400F583D8
:1058A800E028F8A3E039F9EE240BF582EF3400F58F
:1058B80083E8F0A3E9F0EE240FF582EF3400F583D6
:1058C800E4F0EE241CF582EF3400F583E064017007
:1058D8001EEE2420F582EF3400F583E0F8A3E0F90A
:1058E800EE241DF582EF3400F583E8F0A3E9F0908B
:1058F800073DE06052EE241CF582EF3400F5837416
:1059080001F0EE246AF582EF3400F583E07038EE9A
:105918002474F582EF3400F583E0702BEE2480F5D3
:1059280082EF3400F583E0701EEE2420F582EF3418
:1059380000F583E0F8A3E0F9EE241DF582EF3400CA
:10594800F583E8F0A3E9F0906062E07003025A3B47
:105958008E828F83E0F8A3E0F9E82406FCE934009E
:10596800FDE82402FAE93400FB1210CC8E828F8302
:10597800E02412F8A3E03400F988828983025A45AA
:10598800900744E0603AEE240FF582EF3400F58387
:10599800E4F0EE241CF582EF3400F583E064017036
:1059A80040EE2420F582EF3400F583E0F8A3E0F917
:1059B800EE241DF582EF3400F583E8F0A3E980209A
:1059C800EE24FDF582EF3400F583E02401F0A3E036
:1059D8003400F0EE241DF582EF3400F583E4F0A3E3
:1059E800F0EE240BF582EF3400F583E0F8A3E0F93C
:1059F8008E828F83A3A3A3A3A3E0687003A3E069A7
:105A080060030258F7EE240FF582EF3400F583E0C7
:105A180060128E828F83A3A3A3A3A3E06405700200
:105A2800A3E0600B7908EEFAEFFB120FA080717902
:105A38003E80F3EE241DF582EF3400F583E4F0A3F5
:105A4800F0906060E0C0E0EE2469F582EF3400F584
:105A580083D0E0F0900742E0F8EE2467F582EF3457
:105A680000F583E028025BA89008D0E06401703557
:105A7800121180EE2467F582EF3400F583E070069A
:105A88009060607480F0EEFAEFFB12108AE964010E
:105A9800600E120FBE121084E96401600312103008
:105AA8007F0E02186BEE2483F582EF3400F583E055
:105AB8006004780480027800E50CC398F9120CDCC5
:105AC8008A0A8B0BEA450B60A7EE2483F582EF3434
:105AD80000F583E070048A088B09E50C60128508DC
:105AE80082850983F512E5D9F0A31512E51270F63F
:105AF800EE2483F582EF3400F583E0603774FC25EB
:105B08000CF50C78081219ACAC0CA90DEEFAEFFBE9
:105B180012101E7402121758E970197403650D707B
:105B280003025BE8E50A24FBFAE50B34FFFB1205E8
