:020000040000FA
:0600000002011D0223C3F2
:03002B00021FE6CB
:030053000224364E
:03006B00021FC0B1
:10008300022277E5C754F84401F5C779012200003D
:100093000080FB120086B90003020107E47921788E
:1000A30008B800028004F709D8FCE479297802B87B
:1000B30000028004F709D8FCE490028178427909B0
:1000C3008002F0A3D8FCD9FA781A90014D7A01BACC
:1000D30000028007E493A3F608DAF9900AC2AA8221
:1000E300AB8390014E780679038015E493A3AC8229
:1000F300AD838A828B83F0A3AA82AB838C828D83A8
:10010300D8E9D9E77582E57583AD740312012F75BC
:100113008291758300740012012F75D00075813FA1
:10012300751881751902759F00020096C09FF59F8F
:10013300E473D09F22D083D082C09FE493C0E07445
:100143000193C0E0740293F59F220101FFFF0201B6
:100153000603020D180708434D5F48524D434D20D7
:1001630048656172742052617465204D6F6E6974C5
:100173006F727D03000083038F03FFFFBB001264D4
:1001830002F781010000EA8102F381010000F50A10
:10019300021382010000F60A02F181030000450404
:1001A30002020202F781010000E48102F3810100EF
:1001B30000170B020D820100004D0402F3810100C0
:1001C30000180B020B82010000B18002F3810100D1
:1001D30000190B020982010000CC8010020802F70B
:1001E30081010000E78102F381010000520B020349
:1001F30082000000570402F181030000580402F357
:1002030081010000530B0201820100005E0402F32E
:1002130081010000540B02FF810200005F0401E82A
:1002230003053F10FF0001307503020106000000C3
:1002330000000000000000000000000000000000BB
:10024300000000000000000000FFFF0600800CE833
:1002530003FF0000B4000028002800283075A00028
:10026300A000A000A00000080008E001F0001000BA
:10027300100010001000100010005000500050003B
:1002830010001000D0070000000000000F00010064
:100293000500307507001000010081FF0000FFA773
:1002A30009C509AD09FF02020208025000A00000BF
:1002B30000E80302F781010000E18102F3810100FC
:1002C300001D0C02EF81010000190602F3810100F9
:1002D300001E0C02ED810100002F0602F3810100D4
:1002E300001F0C02FB81010000310602F3810100B3
:1002F30000200C021782080000320602F38101007D
:1003030000210C02FD81010000220CFF0100FF20EF
:1003130002F781010000DE8102F381010000860CF7
:10032300020782000000000002F1810300007F0643
:100333007D0F7D0F7D0F7D0F7D0F7D0F7D0F7D0F5A
:100343007D0F7D0F7D0F7D0F7D0F0B122312051285
:10035300120138D09C03120138059D03120138188D
:100363009D03120138289D031201383C9E0312019C
:1003730038EC8303120138EB8503120138A086039E
:100383001201384B87031201388087031201389812
:100393008703120138BCFF02120138D09A031201FD
:1003A30038DC9A03120138219B031201382C9B037A
:1003B300120138349B03120138479B031201386240
:1003C3009B031201388B9B03120138A49B03120178
:1003D30038EE9B03120138FC9B031201384B9C033C
:1003E3001201388EDB0212013898DB02120138D970
:1003F300DB0212013822DC021201385CDC0212013A
:1004030038B2DC02120138D3DC02120138DCDC0220
:1004130012013830DD0212013859DD02120138634E
:10042300DD02120138D1DD0212013861DE02120150
:1004330038BCDE02120138EADE0212013872DF0232
:10044300120138B1DF02120138E6DF02120138F877
:10045300DF0212013817E00212013820E002120114
:1004630038E7E00212013886AD031201385AA703B8
:1004730012013804FE011201383AFE011201386EEE
:10048300FE01120138BBFF0112013876AB031201E2
:10049300388CAB0312013896AB03120138E0AB037F
:1004A3001201388DEF02120138A0EF0212013861F8
:1004B300F002120138A0F002120138BDF00212015D
:1004C30038F6F00212013843F10212013875F102D5
:1004D300120138ACF102120138B5F302120138519E
:1004E300A80312013874A803120138A3A803120148
:1004F30038E5A8031201384FAE0212013825B402C1
:1005030012013804B5021201386DB5021201389395
:10051300B602120138A6D50212013845D6021201DD
:10052300388FD60212013811D70212013801D802CE
:100533001201381AD90212013822DA02120138A83C
:10054300DA02120138438F03120138888F03120134
:10055300389D8F03120138F78F03120138819003FE
:100563001201382C9103120138639103120138C030
:10057300A303120138E5A30312013815A4031201E2
:10058300385896031201389D9603120138B096032A
:10059300120138CC96031201380A970312013879F5
:1005A30097031201386398031201383DAE03120119
:1005B300381A8201120138F8830112013897850134
:1005C300120138428601120138C2860112013847EE
:1005D30087011201387087011201384B8B01120118
:1005E30038C28B01120138D98C01120138138D01E5
:1005F300120138548D011201389B8E01120138F11A
:100603008E011201383A8F01120138A98F011201AC
:10061300381590011201384690011201385E90019D
:100623001201387791011201388791011201383D87
:100633009301120138549301120138869301120178
:1006430038289501120138BC950112013805AA0317
:1006530012013811AA03120138AEAA03120138930A
:10066300AE03120138D2AE031201383DAF031201BB
:1006730038C0AA03120138D0AA03120138DFAA0333
:1006830012013870AB0312013858A603120138DD8A
:10069300A60312013841A703120138EE7F001201AD
:1006A3003827AF0312013837AF031201383AAF03CB
:1006B300120138F87F001201389C98031201382682
:1006C3009A03120138879A03120138CD9A03120153
:1006D3003812AD0312013843AD0312013870AD0374
:1006E30012013828A2031201387AA203120138ED4D
:1006F300A2031201385AA303120138119403120101
:10070300383B94031201380A9503120138E6950326
:1007130012013847BF0212013813C00212013854C4
:10072300C0021201388EC002120138ECC00212015D
:100733003840C1021201389EC10212013834C2028C
:100743001201383CC302120138C6C40212013864D4
:10075300C502120138CBC502120138DEC5021201EF
:1007630038D2C6021201381BC70212013815F10133
:1007730012013847F401120138D8F5011201382F5C
:10078300F6011201384CF601120138CCF6011201C0
:100793003848F80112013817F90112013884FC01B5
:1007A3001201386EFD0112013875A0031201388C55
:1007B300A003120138BBA003120138F4A0031201F5
:1007C300381CA1031201384AA10312013861A103A5
:1007D30012013878A1031201388EA103120138B532
:1007E300A103120138C8A103120138DEA1031201CB
:1007F30038F1A10312013816A20312013811A40221
:1008030012013810A50212013845A50212013866FB
:10081300A50212013876A50212013897A50212012A
:1008230038A3A60212013870A702120138E3A70207
:1008330012013869A802120138ACA802120138E388
:10084300A80212013869A9021201383BAA02120157
:100853003899AA02120138B1AA021201382BAB024D
:100863001201382EAB0212013831AB02120138D813
:10087300AB02120138F0AB0212013820AC021201B4
:100883003840AC021201382EAD02120138E4AD0239
:10089300120138E5EA021201380DEB021201383B6E
:1008A300EB0212013872EB02120138DAEB02120189
:1008B3003823EC021201386EEC02120138ACEC0260
:1008C300120138E9EC0212013817ED02120138BEA9
:1008D300ED02120138C8ED02120138D5ED02120102
:1008E3003808EE02120138CAEE02120138D6EE02BF
:1008F300120138EEEE02120138F8EE021201382E20
:10090300A9031201383CA90312013854A9031201A7
:10091300386CA903120138427100120138E07100EA
:100923001201385872001201386D7300120138A792
:10093300730012013850740012013825750012013A
:1009430038897600120138E07600120138677700A3
:100953001201384E78001201389B780012013829B1
:1009630079001201384D7900120138227B001201FF
:1009730038637B00120138857B00120138067C0046
:10098300120138F07C00120138B67D001201389A4A
:10099300CE021201386CCF0212013815D0021201B7
:1009A3003858D002120138E5D00212013871D10251
:1009B30012013852D20212013881D2021201387D5B
:1009C300D302120138C5D302120138C7D40212016F
:1009D300380BD50212013831D5021201380CAC03A1
:1009E300120138D58703120138EB8703120138113E
:1009F300880312013839890312013843890312012C
:100A0300389C8A031201389C8B0312013815E102CA
:100A13001201384AE2021201387DE202120138C79C
:100A2300E20212013885E402120138ABA901120176
:100A3300380EAA0112013853AB0112013863AB011E
:100A430012013886AB01120138D1AB01120138769D
:100A5300AC011201386CAD0112013836AE0112013E
:100A630038AEAF01120138F0AF011201388EB00178
:100A7300120138DBB00112013801B101120138EF64
:100A8300B201120138F4B201120138D5B4011201D6
:100A93003829B5011201388BB501120138B3B501FC
:100AA30012013857B60112013819B7011201384A39
:100AB300B7011201384DB70112013895B701120180
:100AC30038D7B7011201383EB801120138BB910380
:100AD300120138CE9103120138E791031201383223
:100AE30092031201380D93031201389C93031201F0
:100AF30038E79303120138C82A00120138D42A00B8
:100B03001201380D2B00120138522B001201380943
:100B13002C001201388F2C00120138BB2C0012015B
:100B230038F42C00120138082F00120138E4300089
:100B3300120138CF32001201380634001201386630
:100B4300360012013852370012013898380012016A
:100B530038A53900120138C23900120138FA3900B8
:100B6300120138143A001201387C3A001201381687
:100B73003F00120138B73F0012013808400012014C
:100B8300382F40001201387D40001201389B40008D
:100B9300120138EF4000120138F741001201387F8B
:100BA30042001201383BE60212013845E602120107
:100BB3003810E7021201382BE70212013851E7021D
:100BC30012013895E702120138CDE702120138F617
:100BD300E7021201386FE80212013884E8021201B9
:100BE3003899E802120138D0E802120138E4E80229
:100BF30012013815E9021201384FE9021201387B5C
:100C0300E902120138D1E90212013825EA02120180
:100C1300386EEA0212013898EA02120138BDEA027C
:100C2300120138008003120138CA8003120138AD63
:100C330081031201382382031201386582031201F2
:100C4300389283031201380080021201382980028E
:100C5300120138428002120138878102120138657D
:100C630082021201388482021201381183021201B6
:100C730038548302120138A18402120138408502DC
:100C8300120138BF87021201385688021201382A2E
:100C930089021201380C8A02120138788B02120180
:100CA300380B8C0212013843A503120138ACA5039B
:100CB30012013800A60312013827A60312013821B6
:100CC300F4021201388EF402120138D9F40212012F
:100CD30038CEF502120138CAF602120138B4F7020F
:100CE300120138D9B6021201381BB702120138F5C6
:100CF300B702120138CEB802120138C9B902120183
:100D030038A8BA0212013814BB02120138DBBB0245
:100D130012013846BC02120138ADBC02120138D8A8
:100D2300BC0212013849BD02120138DCBD021201B6
:100D33003845BE021201385ABE02120138A2BE0261
:100D4300120138BBBE0212013820BF021201382340
:100D5300BF02120138C2FC02120138EAFC0212017E
:100D63003828FD02120138E6FD0212013851FE0255
:100D73001201386DFE0212013895FE02120138C5C8
:100D8300FE02120138D4FE021201384EFF02120194
:100D93003874FF0212013886C70112013863C90192
:100DA3001201385ECB0112013831CC011201387CBB
:100DB300CC01120138C7CC01120138D9CC01120180
:100DC3003819CD011201384ECD011201389ACD01E7
:100DD300120138C9CD01120138ECCD0112013839A5
:100DE300CE01120138C2CE01120138CFD001120157
:100DF30038BAD201120138FDD20112013862D4018E
:100E0300120138A3D40112013816D5011201386238
:100E1300D5011201388DD501120138828C021201DD
:100E230038AD8C02120138949302120138B895023E
:100E3300120138739702120138D09802120138E672
:100E430042001201387D4300120138AA4300120107
:100E530038F043001201382F4500120138C646000E
:100E63001201384047001201385B4700120138D0A5
:100E73004700120138FF48001201385A4A00120194
:100E8300385C4B00120138B94C00120138D24C00C7
:100E93001201382F4D00120138114E00120138444F
:100EA3004E00120138B44E001201382E4F001201C9
:100EB300387D4F001201384950001201384E51005D
:100EC3001201382D5200120138B85200120138268F
:100ED30053001201389A5300120138C35300120110
:100EE30038825400120138FC55001201381956009B
:100EF300120138385600120138C95600120138EE73
:100F0300560012013816570012013891570012018A
:100F130038EB57001201383F5900120138FC5900D1
:100F2300120138CF5A00120138B7D5011201380720
:100F3300D60112013813D601120138F0D60112017D
:100F43003820D70112013858D701120138D7D701F9
:100F53001201380FD80112013861D8011201389EED
:100F6300D801120138C3DA01120138EFDC01120192
:100F730038EADE01120138C5E001120138EB7F00C7
:100F8300120138FA950112013844960112013823EF
:100F93009C01120138A49D0112013803A40112011E
:100FA30038FEA4011201383BA5011201385EA501E8
:100FB300120138A0A501120138A9A501120138B305
:100FC300A5011201389FA60112013893A70112014E
:100FD30038FD5A001201387565001201387B65002F
:100FE300120138876C00120138A68B031201383CBA
:100FF3008C03120138528C03120138CC8C0312017A
:1010030038228D03120138608D03120138BD8D0320
:101013001201383A8E03120138438E031201384FFE
:101023008E03120138628E031201389E8E03120161
:1010330038B48E03120138138F0312013876F80285
:1010430012013883F8021201389DF802120138DCCC
:10105300F8021201381AF9021201387FF90212015B
:101063003894F9021201389FF902120138ACF902DF
:10107300120138C3F902120138D1F902120138DC26
:10108300F902120138E8F902120138F7F9021201E4
:101093003802FA0212013825FA02120138CEFA0296
:1010A300120138DEFA02120138F8FA021201381579
:1010B300FB0212013831FB0212013856FB02120106
:1010C3003860FB0212013874FB0212013893FB02F1
:1010D300120138F4FB02120138FAFB021201380044
:1010E300FC0212013806FC0212013812FC02120142
:1010F3003845FC021201388BE3011201380DE4017B
:10110300120138B6E401120138FEE5011201380C70
:10111300E801120138F2E80112013827E90112014E
:101123003849E901120138F2E901120138C2EB0131
:10113300120138EBEB0112013863EC01120138950F
:10114300EC01120138A2EC01120138EDEC0112019D
:101153003811ED0112013862EF011201386CF00110
:10116300120138C8F00112013808B9011201381907
:10117300BA01120138FDBA0112013807BB0112018D
:101183003829BB0112013835BB01120138D9BC0122
:1011930012013806BD011201381CBE01120138715B
:1011A300BE01120138C0BF0112013895C0011201FE
:1011B30038F1C0011201385CC10112013891C1013B
:1011C300120138D4C1011201389EC401120138B68C
:1011D300C40112013847C50112013855C501120176
:1011E30038A2C501120138B0C5011201381CC6016D
:1011F30012013897C601120138EEC601120138F305
:101203009802120138159902120138269B02120125
:1012130038E59D021201380F9F02120138CD9F025B
:10122300120138B9A002120138BC9E03120138E141
:101233009E03120138579F031201387DC702120122
:101243003886C7021201388FC70212013867C802F5
:1012530012013818CA0212013848CA02120138733F
:10126300CA02120138A3CA02120138CECA021201FD
:101273003802CB021201382ECB0212013871CB0295
:101283001201389CCB02120138E3CB021201383829
:10129300CC021201387ACC02120138D4CC021201EA
:1012A30038FFCC021201384ECD021201387ECD0236
:1012B300120138A9CD02120138D7CD02120138FA32
:1012C300CD0212013895AC03120138C1AC031201EF
:1012D30038EEAC03120138F8AC0312013808AD0341
:1012E300120138DCAE0312013809AF03E066701057
:1012F30008A3E066700A08A3E066700408A3E0662A
:1013030022C008C3E096F50808A3E096420808A3A4
:10131300E096420808A3E0964208A2D265D033E5DE
:10132300087001D3D00822C3E7960809E796080995
:10133300E7960809E79622C3E09608A3E09608A378
:10134300E09608A3E09622C008C3E096F50808A338
:10135300E096420808A3E096420808A3E0964508F1
:101363007001D3D00822080808E630E7111219E00B
:10137300121381080808C64480C6181818221818C2
:1013830018E9799EC608CAC608CBC608CCC6C3707E
:10139300207996CACBCC7019798ECBCC7013798611
:1013A300CC700EF9802ACA33CACB33CBCC33CC33BF
:1013B3001930E7F2CCCBCA3350147004EA30E00D95
:1013C300E4CA3ACACB3BCBCC3CCC500209C3E913A9
:1013D300C6CC182313C6CB18C6CA18C6F9221214D2
:1013E3002120F01430E72B74FFFCFBFA747F80227A
:1013F300E4FCFBFA7480801AB48008BC00F2BB00E2
:10140300EF800F50EBF9E4C39AFAE49BFBE49CFCF6
:10141300E499C6CC18C6CB18C6CA18C6F922E4C9C3
:10142300C608CAC608CBC6D3330308CCC63392F06A
:10143300C3947F402E94184019C9B90704CACBCC72
:10144300225025C309CA33CACB33CBCC33CC33D9CF
:10145300F422F4600DC9CCC313CB13CBCA13CAD97E
:10146300F6CC22E4FCFBFA2214FCFBFA22E6C3339B
:1014730018461846184622E7C33319471947194730
:1014830022181818E6084608700AE608C3337005E0
:10149300E633F4220822191919E7094709700AE704
:1014A30009C3337005E733F4220922E6084608C36B
:1014B300134608336002E633F422E7094709C313EE
:1014C3004709336002E733F422001214AE604F126F
:1014D30014BD6012E7548066F6121484701112145E
:1014E3007A703B090909F4F618F618F618F6221271
:1014F3001499701512147008080860EAE6447FF620
:1015030018768018E4F618F6221214706016121476
:101513007A7012E4F608F608F608E65480F609092C
:101523000918181822EAC0E0EBC0E0ECC0E0EDC0F7
:10153300E0E687F0A4FBACF008E687F0A42CFCE41B
:1015430035F0FA1809E687F0A42C4B60027401CA3F
:1015530035F0FCE433FB09E687F0D2F7A42CCB3556
:10156300F0FC1908E687F0A42BCC35F0FBE433FD3F
:101573000819E687F0D2E7A42C4ACB35F0CD340026
:10158300FC09E687F0D2E7A42DCC35F0FDE433FA6D
:101593000918E687F0D2F7A42CCD35F0CA3400FC45
:1015A30008E687F0D2E7D2F7A42ACC35F07A7E207A
:1015B300E70B0ACB33CBCD33CDCC33CC33CB33504A
:1015C300147004ED30E00ED2F1E4CD3DCDCC3CCC33
:1015D3003B5005DA05C2F1EB547FC63308E633927C
:1015E300F0FBE73309E733C39A502D2B70190C0D29
:1015F3004C4D70151806E608C333700D20F10AA28E
:10160300F013F6E418800B4024E4F630F002768001
:1016130018F618F618F68024D33B14501074FFA262
:10162300F013F6187680E418F618F6800FA2F0137C
:10163300F618E63303F618ECF618EDF6D0E0FDD015
:10164300E0FCD0E0FBD0E0FA221214BD6046121495
:10165300AE603DE9687008F618F618F618F62274BD
:101663008067F7121680090909748067F72212143C
:10167300AE601D1214BD7005191919801A12148455
:10168300701F121499C37003E667331919194007C1
:101693001818182208080874FFF618F618F618F632
:1016A30022121499601712147A702192F012147096
:1016B3007019501720F014080808090909E7F618EB
:1016C30019E7F61819E7F61819E7F62212147060ED
:1016D300E6E869701F0808E62480F608E436F61881
:1016E300547FB47F0CE654806007F6E418F618F6CE
:1016F30022181822E9C6CC08C6CD08C6CE08C6CF24
:10170300C0E0E8C0E0EAC0E0EBC0E009E9F809E7BF
:10171300FA09E7FBE6F918E6F8C3EC98ED99EE9AB7
:10172300EBC2E7F5F0EFC2E795F0500E600CEBCF9C
:10173300FBEACEFAE9CDF9E8CCF8EAA2E7D2E7FA78
:10174300EB33FB13F5F0EEA2E7D2E7FEEF33FFC571
:10175300F013A2E730E601B313C5F0C3C0E0C0F055
:101763007F00C39BFB605B9418600C401AD0E0239E
:10177300F9D0E0F802184F8AF0E9486003D2F0E4A8
:10178300AFF0FAF9F8803BEB30E40D89F0EA60033F
:10179300D2F0E4AFF0F9CAF8EB30E30D88F0EF6074
:1017A30002D2F0AFF0E4CAC9F8EB54076014FBC3EC
:1017B300EA13FAE913F9E813F8EF135002D2E0FF42
:1017C300DBEDD0E0C0E030E739C3E49FFFF5F0EC98
:1017D30098FC42F0ED99FD42F0EE9AFE42F0D0E023
:1017E300F9D0E0F8E5F0607AE923F9EE20E742D892
:1017F300028067C3EF33FFEC33FCED33FDEE33FEC2
:1018030080EAEC28FCED39FDEE3AFED0E023F9D076
:10181300E0F84002801BC3EE13FEED13FDEC13FC56
:10182300EF135002D2E0FF08B800067F7F74FF80F9
:101833002EEF3350178CF020F00260100CBC000C1C
:101843000DBD00080EBE000408E860DFE933E813AD
:10185300FFEE2313FE4F4D4C8008E95480FFE4FE56
:10186300FDFCEE33EF33F47004FCFD7E80D0E0FB2F
:10187300D0E0FAD0E0F8D0E0CFC618CEC618CDC677
:1018830018CCC6F922080808EAC0E0EBC0E086F0ED
:10189300E7A4FA180986F0E7A42AFA180986F0E7FC
:1018A300A42AFA180986F0E7A42AFA1986F0E7A40D
:1018B300FBE5F02AFA190886F0E7A42BFBE5F03ADA
:1018C300FA190886F0E7A42BFBE5F03AFA18180991
:1018D30086F0E7A4C5F02BFBE43AFA1908E7C5F054
:1018E300C6A426F6E5F03BFBE43AFA1886F0E7A433
:1018F300F6E5F00826F6E43B08F6E43A08F6D0E00D
:10190300FBD0E0FA22E4CFC0E0E4CEC0E0E4CDC0F7
:10191300E0E4CCC0E075F020C3E633F608E633F626
:1019230008E633F608E633F6181818EC33FCED3303
:10193300FDEE33FEEF33FFC3EC9709ED9709EE9706
:1019430009EF97191919400FFFEC97FC09ED97FD63
:1019530009EE97FE191906D5F0BEECF709EDF70964
:10196300EEF709EFF7191919D0E0FCD0E0FDD0E04C
:10197300FED0E0FF221219E31818181219081219E1
:10198300CF191919221219CF191919080808E618BD
:10199300181820E7E01219081219E3181818220979
:1019A3000909E719191920E7DC080808E6181818C7
:1019B30020E7030219081219E3181818121908125C
:1019C30019E31818181219CF19191922E4C397F734
:1019D30009E497F709E497F709E497F72218181829
:1019E300E4C396F608E496F608E496F608E496F659
:1019F300226017080808C6A2E713C618C613C6183C
:101A0300C613C618C613C6D5E0E92260160808082F
:101A1300C6C313C618C613C618C613C618C613C63C
:101A2300D5E0EA227009080808226016181818C6BB
:101A3300C333C608C633C608C633C608C633C6D5BD
:101A4300E0EA22E627F60809E637F60809E637F65C
:101A53000809E637F622E026F608A3E036F608A3DF
:101A6300E036F608A3E036F622E026F008A3E036D7
:101A7300F008A3E036F008A3E036F022C3E697F6B9
:101A83000809E697F60809E697F60809E697F622A5
:101A9300C3E0C696F608A3E0C696F608A3E0C6968A
:101AA300F608A3E0C696F622C3E096F008A3E096F4
:101AB300F008A3E096F008A3E096F022E056F608BB
:101AC300A3E056F608A3E056F608A3E056F622E094
:101AD30056F008A3E056F008A3E056F008A3E0563A
:101AE300F022E0F608A3E0F608A3E0F608A3E0F688
:101AF30022E6F008A3E6F008A3E6F008A3E6F02246
:101B0300E0FAA3E0FBA3E0FCA3E0FD22EAF0A3EBF1
:101B1300F0A3ECF0A3EDF022CAC0E0E6F0A308DAEC
:101B2300FAD0E0FA22CAC0E0E0A3C582CCC582C5E0
:101B330083CDC583F0A3C582CCC582C583CDC583C0
:101B4300DAE6D0E0CA22C3E498F8E499F9121B8AD2
:101B53008026C3E49AFAE49BFBE920E7E9121B8A97
:101B6300E498F8E499F922C3E498F8E499F9121B8C
:101B73008AE498F8E499F9C3E49AFAE49BFB22EB2C
:101B830020E7CFE920E7E0B90010BB0008E88AF0BE
:101B930084F8AAF022E4FBC8FA22EB70227B10C877
:101BA30033C8C933C9335007C39AC3DBF280069ADB
:101BB30050012ADBEAC833F4C8C933F4C9FA2275E1
:101BC300F008E4C833C8C933C933C99AC99B500460
:101BD300C92AC93BD5F0ECFBC833F4C8E4C9FA22DF
:101BE300600D08C6A2E713C618C613C6D5E0F322D4
:101BF300600C08C6C313C618C613C6D5E0F422701A
:101C03000422600D18C6C333C608C633C6D5E0F434
:101C13001822251810AF08F518400215198008F589
:101C23001840021519D2AF22C0D0251810AF08F5FD
:101C330018500205198008F51850020519D2AFD0C3
:101C4300D0222518F58210AF08F518400215198027
:101C530008F51840021519D2AF851983222518F506
:101C630082E43519F58322E4732518C582C0E0E5C3
:101C73001934FFC583C0E0E518C3958224F810AF7B
:101C8300088583198582188008858319858218D26F
:101C9300AFCEF0A3E520F0A37808E608F0A3DEFAC0
:101CA300EFF0A3E58124FAF8E608F0A3E608F0A331
:101CB300E608F0A30808E608F0A3E608F0A31581F8
:101CC3001581D0E0FED0E0F8158115811581E8C0BB
:101CD300E0EEC0E0222518C582C0E0E51934FFC557
:101CE30083C0E0E518C3958224F910AF08858319F2
:101CF3008582188008858319858218D2AFCEF0A318
:101D0300E520F0A37808E608F0A3DEFAEFF0A3E5F8
:101D13008124FBF8E608F0A3E608F0A30808E60828
:101D2300F0A3E608F0A315811581D0E0FED0E0F81A
:101D330015811581E8C0E0EEC0E02285198385187E
:101D430082E0A3FEE0A3F5207808E0A3F608DFFA1B
:101D5300E0A3FFE0A3C0E0E0A3C0E0E0A3C0E0E0B5
:101D6300A3C0E0E0A3C0E010AF0885821885831903
:101D73008008858218858319D2AFD083D08202016F
:101D830035851983851882E0A3FEE0A3F520780842
:101D9300E0A3F608DFFAE0A3FFE0A3C0E0E0A3C0FE
:101DA300E0E0A3C0E0E0A3C0E010AF08858218859F
:101DB30083198008858218858319D2AFD083D08296
:101DC30022C0D02518C582C0E0E51934FFC583C001
:101DD300E0E518C3958224F310AF08858319858243
:101DE300188008858319858218D2AFC8F0A3E9F05B
:101DF300A3EAF0A3EBF0A37908E709F0A3D8FAEC80
:101E0300F0A3EDF0A3EEF0A3EFF0A3D0E0F0A3D0A6
:101E1300E0F0A3D0E0F0A3E520F0A3E5F0F0A322E7
:101E2300851983851882E0C0E0A3E0F9A3E0FAA353
:101E3300E0FBA37808E0F608A3DFFAE0FCA3E0FDEB
:101E4300A3E0FEA3E0FFA3E0C0E0A3E0C0E0A3E0C3
:101E5300F5D0A3E0F520A3E0A3F5F010AF08858348
:101E6300198582188008858319858218D2AFD0829C
:101E7300D083D0E0F8D0E03274048006740280028C
:101E83007401C0E0F404121C45D0E0121B1B227441
:101E930004800474028000CCC0E0EDC0E0E518C308
:101EA3009CCCAD1950011D10AF068C188D198006FE
:101EB3008C188D19D2AF121B28D0E0FDD0E0FC2284
:101EC300D083D082E9C0E0E493A3C386F0C5F09544
:101ED300F0F908E493A386F0C5F095F0700BE49352
:101EE300A3C3994005E9048002A3E475F002A42585
:101EF30082F582E5F03583F583D0E0F9E493A3C05E
:101F0300E0E493C0E022D083D082ECC0E0EDC0E0F7
:101F1300E493A3FCE493A3FDED4C600D121F55EC79
:101F230024FFFCED34FFFD80EFE493A3FCE493A3D3
:101F3300FDED4C600D121F94EC24FFFCED34FFFD0E
:101F430080EFD0E0FDD0E0FCE493A3C0E0E493C0D5
:101F5300E022C0E0C3E49396087401939618400FFF
:101F6300E49366700808740193661870007019A3EF
:101F7300A3C3E49396087401939618A3A3400DD0CA
:101F8300E0D0E0D0E0021F45A3A3A3A3A3A3D0E026
:101F930022C0E0C0F088F0E49366700808740193EF
:101FA30066187000A8F0A3A3700BD0F0D0E0D0E0C7
:0C1FB300D0E0021F45A3A3D0F0D0E02234
:101FC000C0E074F2121DC4A2AFE433FEC2AFE589D3
:101FD000A2E150085389FDC2C51203DDEEA2E092D2
:101FE000AF7F01021E23C0E0C0D0E8C0E0E5A8D268
:101FF000AFC2C7751A00A2E792AFD0E0F8D0D0D038
:10200000E03274F5121CD8EAFEEBFFEE2434F8EF50
:102010003400F988088909EE2435F582EF3400F59B
:1020200083E0F8EE2437F582EF3400F583E0F50A1B
:10203000EC850AF0A4FCAAF0850AF0EDA42AFDE8DC
:102040002CF8E43DF97A257B00121B8AEA85088288
:10205000850983F05407F87401B800028004C33383
:10206000D8FCC0E0E0131313541FF8EE28F8EF3447
:1020700000F9E8245DF582E93400F583D0E0F8E06A
:10208000586008EE2434F582EF801EEE2436F58287
:10209000EF3400F583E0F5F0EA84A8F0EE28F8EFDD
:1020A0003400F9E82438F582E93400F583E0F97F5B
:1020B00004021D8474F5121CD8EAFEEBFFEE2434F2
:1020C000F582EF3400F583E0C0E0EE2435F582EFD1
:1020D0003400F583D0E0F08E828F83A3A3A3A3A363
:1020E000A3A3C082C0838E828F83A3A3A3A3A3E0F4
:1020F000F8A3E0F9D083D082E0C398F508A3E09973
:10210000F509EE2480F582EF3400F583E064017078
:1021100069EE2481F582EF3400F583E0F8A3E0F95D
:102120008E828F83A3A3A3A3A3A3A3E0FCA3E0FDBC
:102130008E828F83A3A3A3A3A3E0FAA3E0FBC3EA49
:102140009CEB9D5027C3EC98ED99402EC3EA98EB89
:102150009950277C647D08EEFAEFFB120EDBEE242B
:1021600080F582EF3400F583E4F0800EC3EA98EB4B
:102170009940E0C3EC98ED9950D9EE2434F8EF344F
:1021800000F9E8FCE9FDEE2435F582EF3400F58333
:10219000E0F8EE2437F582EF3400F583E0F50AE548
:1021A00008850AF0A4F508AAF0850AF0E509A42A32
:1021B000F509E82508F8E43509F97A257B00121BB2
:1021C0008AEA8C828D83F05407F87401B80002808B
:1021D00004C333D8FCC0E0E0131313541FF8EE28F7
:1021E000F8EF3400F9E8245DF582E93400F583D096
:1021F000E0F8E0586008EE2434F582EF801EEE240B
:1022000036F582EF3400F583E0F5F0EA84A8F0EECD
:1022100028F8EF3400F9E82438F582E93400F58332
:10222000E0F9122AB10220AFC082C08385188285EE
:102230001983E0F8A3E0F9C3EA9CEB9D5012C3ECCC
:1022400098ED994019C3EA98EB99501279018010E2
:10225000C3EA98EB9940F5C3EC98ED9950EE7900FC
:10226000D083D08222EAC39CFAEB9DFB22000000BF
:102270008521878522C622C0E0C0D0E8C0E0E9C041
:10228000E0EAC0E0EBC0E0ECC0E0EDC0E0C008C0B8
:1022900009C00AC00BC082C083C0F0759B0090616A
:1022A00082E0A2E64003022355E591A2E640030244
:1022B00023557591BF900729E0640570081210132B
:1022C00012101F8003121019752100121079E99065
:1022D000072AF0790012106D120E517A017B0090DE
:1022E0000728E0F912043D907803E064426003029D
:1022F000239E9008C6E014F0600302239EC2AF1232
:10230000230200782AD0E0F618D0E0F6E59F5407C3
:10231000F9700590816A80039081667808121AE549
:10232000E9C4C0E07829E65508F50808E65509F53E
:1023300009740B7808121BF3D0E02508F89062703E
:10234000E0A2E740F8E8C333906272F0906270E078
:10235000D2E0F08049E0A2E55024E591A2E5501ECC
:102360007591DF900729E0640D701390074BE0042E
:10237000F064287002E4F07A00E0F91210EB90614A
:1023800081E0A2E35009E5E9A2E3500375E9F7A370
:10239000E0A2E75009E591A2E7500375917FD0F0E4
:1023A000D083D082D00BD00AD009D008D0E0FDD0A5
:1023B000E0FCD0E0FBD0E0FAD0E0F9D0E0F8D0D0FB
:1023C000D0E032C0E0C0D0C082C083906183E0A280
:1023D000E05009E5BFA2E0500375BFFEE0A2E15066
:1023E00009E5BFA2E1500375BFFDE0A2E25009E597
:1023F000BFA2E2500375BFFBE0A2E35009E5BFA214
:10240000E3500375BFF7E0A2E45009E5BFA2E45032
:102410000375BFEFE0A2E55009E5BFA2E5500375E3
:10242000BFDFE0A2E65009E5BFA2E6500375BFBFDB
:10243000D083D0828088C0E0C0D0E8C0E0E9C0E0AE
:10244000EAC0E0EBC0E0ECC0E0EDC0E0C0F0E5A722
:10245000A2E6500FE5A1A2E6500953A7BF75A1BFA0
:1024600012249BE5A7A2E5500CE5A1A2E550065376
:10247000A7DF75A1DFE5A7A2E15009E5A1A2E15020
:102480000375A1FDE5A7A2E2500CE5A1A2E250066A
:1024900053A7FB75A1FBD0F00223AC74F8121CD833
:1024A000752101900729E064067015120FA78A8232
:1024B0008B83A3A3A3A3A3A3E0FAA3E0FB121001C1
:1024C000A2AFE433FED2AF90072FE0640170187A18
:1024D000207B00900728E0F91204C77A207B009047
:1024E0000728E0F9120443906182E0D2E6F09008F8
:1024F000C5E0602185C622801690072EE064017039
:1025000008E5C654F84405F5C653BEFC12227074A3
:1025100001652160E4EEA2E092AF7F01021D84001C
:102520008E238F24858228858327851882851983A9
:10253000E0CEA3E0CF852882852783EBC9EAC8EDEA
:10254000CBECCA75F010C3E833C8E933C9EA33CA23
:10255000EB33CBC3EA9EF526EB9FF525B35004ABD6
:1025600025AA26EC33CCED33CDD5F0DAAE23AF245B
:102570002274EB121CD874FA121C158A088B098C71
:10258000148D15900729E024F7C394055006908117
:10259000BE0226D3120FA78A0A8B0BAE0AAF0BEE30
:1025A0004F70030226D0AC08AD09851882851983C7
:1025B000AA82AB831210318E828F83A3A378081274
:1025C0001AE590818E7808121ABF851882851983C2
:1025D000780C121AE590818E780C121ABF7808795F
:1025E0000C12132A501F7808790C121A7F9081322E
:1025F000780812134A4047850810850911850A1288
:10260000850B138041850C10850D11850E12850FE9
:102610001378107908121A7F908132781012134AB9
:10262000501C75100075110075120075130178109B
:10263000790C121A7F78107908121A468008908156
:10264000BE7810121AE574097810121A2790812E9C
:102650007808121AE5781079081219088E828F838B
:10266000A3A3A3A3A3A3E0F8A3E0F97AD07B03126A
:102670001B8A88088909E4F50AF50B781079081295
:102680001A467404121C60E0F8A3E0F97AD07B03C8
:10269000121B8AE8FA8A08E4F509781079081213FF
:1026A0002A500778107908121A7F900729E06408E9
:1026B000600AE064066005E06405701C90812A7879
:1026C0001012134A50129081267810121A5980085D
:1026D0009081D67810121AE58514828515837810BA
:1026E000121AF47406121C2B7F0E021D8474F7124A
:1026F0001CD81210439008C3E0640170109062452A
:10270000E4F0A3F053F4F343FE0C5390F3120FEFF5
:10271000E5C654804449F5C6E59E547F644970F887
:10272000906185740FF09008C1E0F47002A3E0603E
:102730004E9008C2E0600814601B14602E80407543
:1027400008017509009008C1E07808121C02E5082C
:10275000F45280802A7508017509009008C1E0785C
:1027600008121C02E508F4529080147508017509DE
:10277000009008C1E07808121C02E508F452A07924
:10278000007F02021D8474F7121CD8E9FEEAFF7470
:10279000016E700C7A807B00900728E0F912043DEE
:1027A000902AC0E493F46008E493F9120E4580097E
:1027B00053C680E59E547F70FA120FF59008C3E06F
:1027C00064017003120E5D9008C1E0F47002A3E092
:1027D000604B9008C2E0600814601A14602C803DC1
:1027E0007508017509009008C1E07808121C02E51F
:1027F00008428080287508017509009008C1E078BA
:1028000008121C02E5084290801375080175090042
:102810009008C1E07808121C02E50842A01210439B
:10282000120FA78A088B09A808A909E8496015E5CD
:10283000E170FCE82414F582E93400F583E0F460EB
:1028400003E0F5E174016F700A7A01900728E0F95E
:1028500012049702278174F1121CD88A088B098C04
:102860000A8D0B740F121C60780C121AE590818E81
:102870007808121ABF90818E780C121ABF780879E6
:102880000C12132A50157808790C121A7F90813295
:10289000780812134A401579018013780C790812D0
:1028A0001A7F908132780C12134A40EB79007F082E
:1028B000021D8474ED121CD88A088B098C0A8D0BBA
:1028C0007413121C60780C121AE590818E7808122D
:1028D0001ABF90818E780C121ABF780C79081213E7
:1028E0002A40117808790C121A7FAA08AB09AC0AA1
:1028F000AD0B802275100075110075120075130163
:102900007810790C121A7F78107908121A46AA10DA
:10291000AB11AC12AD137F0C021D8490818E780830
:10292000121AE58A828B837808121AD27F04021D5C
:102930008474F5121CD88C828D837808121AE58A6B
:10294000828B837808121AABEA2404F8EB3400F97E
:102950008C828D83A3A3A3A3E0FCA3E0FD888289DE
:1029600083C3E09CF0A3E09DF088828983C3E09458
:1029700020A3E0944E40229081B67808121AE58A8E
:10298000828B837808121A6C8A828B83A3A3A3A3F9
:10299000E02420F0A3E0344EF0808074F5121CD8BF
:1029A000E9FE90087BE0FAA3E0FBEEC333F8E433E2
:1029B000F974A128F582748039F583E02AF508A31B
:1029C000E03BF5097808121E7F90815E121B03120E
:1029D00025207402121C2B8A088B098C0A8D0B741B
:1029E000107808121A0EAA08AB097F04021D84741D
:1029F000F1121CD88A0C8B0D8C0E8D0F740F121CCB
:102A000060E0FAA3E0FB7411121C60E0F508A3E09B
:102A1000F5097413121C60E0FEA3E0FF7808121E93
:102A20007FEA2401F508EB3400F509E4F50AF50B1B
:102A3000780C79081218889081167808121AE578AF
:102A40000C7908121888AA0CAB0DAC0EAD0F12252C
:102A5000207402121C2B8B09EA450960047A01805C
:102A6000027A00EC2AFCED3400FDECF8EDF97A7105
:102A70007B02121B8A88088909E4F50AF50B8E820D
:102A80008F837808121AF4ECF8EDF97A717B021250
:102A90001B8A8A088B0974057808121C028E828FA3
:102AA00083A3A3A3A3E508F0A3E509F07F08021D13
:0F2AB00084C082C083E9906000F0D083D082227E
:102AC000FFFFFFFFFFFFFFFFC082C083E9900C857F
:102AD000F0022CE774F7121C6CE9900647F07C7F3B
:102AE0007D067AFF7BFF120B8190064874FFF0A3EE
:102AF000F0A3E4F0A3F07905120B0F900647E0F97C
:102B0000120A377A997B0B120D5B0239F574F412B5
:102B10001C6C8A088B09EB54806030900647E0F902
:102B20001204258A0A8B0BAE0AAF0BEE4F60138E90
:102B3000828F83E064B07003120B21EEFAEFFB1278
:102B40000413AA08E5096480FB80047A007B000274
:102B50002CB674F2121C6C74FC121C15EAFEEBFF0E
:102B60007412121C60123EDCEE4F7003022BF574DF
:102B700002121C60EEF0A3EF122EF1ECF0A3ED12A6
:102B80002EF1AA82AB83120A31E9F50A706AE508D0
:102B9000450960648E828F83123EC2EE4F60567A82
:102BA000067B0012047F8A0C8B0DA80CA90DE84946
:102BB0007005750A13804188828983E4122C02EE25
:102BC000F0A3EF123EEDE508F0A3E509F090064D05
:102BD000122C8990064D700512399F801B12398D79
:102BE0008003EAFCEBFD8C828D83122C8970F38CC0
:102BF000828D8380E3750A02A90A7404121C2B02D9
:102C000040DCF0A3123E93A32274F2121C6C890ADA
:102C1000E975F017A4FEAFF090064CE4F090064A78
:102C2000122C89600A12048590064AE4F0A3F0EEA3
:102C3000FAEFFB12047F8A088B09EA4509602FEE40
:102C4000FCEFFD790012040190064AE508F0A3E5C7
:102C500009F07B008008122C73E4F0A3F00BEBC3A7
:102C6000950A40F2E50A90064CF07900800279134B
:102C70000240DCEB75F017A4F8A9F090064AE028B2
:102C8000FAA3E0398A82F58322123631EA4B2274A4
:102C9000F4121C6C7900EAA2E0501B750804750957
:102CA000817808121E7F7C047D007A877B0C120BD2
:102CB000097402121C2B7F04021D3EC082C0839047
:102CC000064D122CEE601C88828983A3A3E06A70F3
:102CD00003A3E06B8882898370E8A3A3A3A31236C1
:102CE0002D80047A007B00D083D08202013512410E
:102CF000C2E8492274EE121C6C74FC121C15EAFE28
:102D0000EBFF851882851983E4F0A3F0EE2402120C
:102D1000397FEE2405123E9AEE2404F50EEF1232AE
:102D2000A6E024FE603924FC604624FE605224FEA6
:102D3000605E24FE7003022E0724FE7003022E6BD9
:102D400024FE7003022E7A24FE7003022E8924FCD6
:102D50007003022E9824FE7003022EA7022EE49028
:102D600006667417F0A3E4122EF91207AF022EE4E0
:102D7000851882851983AC82AD83120B27022EB48D
:102D8000851882851983AC82AD83120B2D022EB477
:102D9000850C08850D097402121C60AC82AD838518
:102DA000088285098312362D120A558A0C8B0DACC8
:102DB0000CAD0DEC4D603BE4F50CF50D780C121EDE
:102DC0007F750C66750D06780C121E7F750C677585
:102DD0000D06780C121E7F7408121C60121E9612CB
:102DE00041E6121C2BE9F50C700B1236231207C7B3
:102DF000800F750C01850882850983122EE7123930
:102E00009F850C08022EB77402121C60AC82AD8341
:102E1000850C82850D831233F8603C850C82850D0C
:102E200083A3A3121E967510667511067810121EE4
:102E30007F7510677511067810121E7F7408121CBA
:102E400060121E961241E6121C2BE9F509700B1256
:102E500036231207CD800F750901850C82850D83FD
:102E6000122EE712399F850908804C851882851932
:102E700083AC82AD83120B33803A85188285198327
:102E8000AC82AD83120B39802B851882851983ACF7
:102E900082AD83120B3F801C851882851983AC821A
:102EA000AD83120B45800D851882851983AC82ADE8
:102EB00083120B4BE9F508E50860298E828F83A306
:102EC000E06414601F850E82850F83E09006661211
:102ED0002EF11241BE90066712399FE508A3122E0B
:102EE000F91207A902388E1241C28518828519830A
:102EF00022F085188285198322F07C667D06850A7A
:102F000082850B831236312274EE121C6C74FC1213
:102F10001C158A0A8B0B8C0E8D0FEA2405F508EB25
:102F20003400F5097C157D0079007A667B06120471
:102F300001E5082402F50CE509123E9D85188285FD
:102F400019838582108583117810121E7F8508826F
:102F5000850983A3A3A3A31233EF121E7FE50824E0
:102F600005F510E5093400F5117810121E7F850C67
:102F700082850D83123744120A4F7406121C2B8A65
:102F8000108B11AE10AF11E50A2402F50AE50B1201
:102F90003982EE4F70030230C680177402121C6033
:102FA00012362D88828983EAF0A3EBF0900666E062
:102FB00004F0900666E0C3940540030230C6E4F5D1
:102FC00010F5117810121E7F75104F7511067810CC
:102FD000121E7F7510507511067810121E7F740630
:102FE000121C60121E967910EEFCEFFD1241E812E1
:102FF0001C2BE9705E850882850983A3A3A3A3A384
:10300000A3A3E0F890064FE06870481233EF121E59
:103010007F7C507D06E5082408FAE5093400FB12A0
:1030200003FB7402121C2BE960298E828F83A3A3F9
:10303000A3A312362D900666E0F5107402781012E4
:103040001C0274672510F58274063511F583EAF0C9
:10305000A3EBF07402121C60858210858311781036
:10306000121E7F7402121C60121E96850C82850D42
:1030700083123653121C2B8A108B11AE10AF119095
:103080000666E0F51075110074027810121C0274C7
:10309000662510F874063511F988828983A3122CED
:1030A000897003022F92E82403080808E93400F924
:1030B000EE4F6003022F9B8882898374FFF0A3F098
:1030C000900666E004F0900666E0600A123623126D
:1030D00007BB7900800B85088285098312399679B0
:1030E0000A02388E74EA121C6C74FE121C158C12C3
:1030F0008D13EA2405F50CEB1241D0123EC675087B
:1031000000750900EA2402F510EB3400F51185186A
:103110008285198385820A85830B780A121E7F8532
:103120000C82850D83A3A3A3A31232BC121E7FE5DC
:103130000C2405F50AE50D123982780A121E7F85E6
:103140000C82850D831232C0120A4F7406121C2B9A
:103150008A0A8B0BEA450B7003023261EA2404F5FC
:103160000EEB1232A6123EC68A828B83A3A3A3E083
:10317000F98510828511831236376003023261E4CB
:10318000F514F5157814121E7F75144F7515067811
:1031900014121E7F7514507515067814121E7F7454
:1031A00006121C60121E967913AC0AAD0B851082B4
:1031B0008511831241EE121C2BE9F50960030232DE
:1031C0006190064FE0F8E5087009E0240290066778
:1031D000F08014900667E0FCE82402FAE43400FB77
:1031E000EA6C7001EB707E850882AA821233E69445
:1031F000141233DE506B850E82850F83E0C0E074BD
:10320000682A12329DD0E0F00508850E82850F8372
:10321000A3E0C0E085080A7468250A12329DD0E058
:10322000F0050890064F1232BC121E7F7C507D06BE
:1032300085080A7468250A1232B0121C2B90064FBA
:10324000E02508F50874FF6E700374FF6F6012EEDE
:1032500024010EEF3400FFE508C39414500302313B
:103260000EE50860131236418510828511831236EF
:103270002D1207C179008014E509700375090A85CC
:103280001282851383EEF0A3EFF0A9097402121CD9
:103290002B7F0E021D3E85080C7468250CF5827488
:1032A000063400F583223400F50F850E82F5832263
:1032B000FA74063400FB1203E9740222123EFC2267
:1032C000A3A31232C62212398DFDEEFAEFFB22744F
:1032D000EE121C6C74FE121C158C0E8D0FEA240568
:1032E000F50CEB123E9D750B00900666E4F0F50AB6
:1032F000EA2402F508EB3400F5098044900666E004
:10330000FA90064FE0F81233E694171233DE400DC0
:10331000900666E0F87416C39890064FF01233EFEB
:10332000121E7F7C507D0674672AFA74061232B32F
:10333000121C2B90064FE0F8900666E028F0050A74
:10334000E50C2416F582E50D1232A1E0F8E50AC37A
:10335000985074900666E0C39416506BE50AC33328
:10336000F8E433F9E50C28FEE50D39FF8518828570
:103370001983AC82AD838E828F831233F870087507
:103380000B011239928050E4F510F5117810121EDD
:103390007F75104F7511067810121E7F75105075CD
:1033A00011067810121E7F7406121C60121E967988
:1033B000168508828509831241EE121C2BE9F50B54
:1033C00070030232FC80BB7C667D0685088285091D
:1033D0008312362D1207D3A90B7402023890E99498
:1033E00000C365D03322EA28F8E43400F9E822E08B
:1033F000F5107511007810221238858A108B11ACE7
:1034000010AD11EC4D2274EA121C6C74FC121C15E8
:103410008A0C8B0D8C128D13EA2405F50AEB1239F8
:1034200082750800750900E50A2402F510E50B34E1
:1034300000F5117402121C6085820E85830F780ED0
:10344000121E7F850A82850B83A3A3A3A3123EA22B
:10345000121E7FE50A2405F50EE50B3400F50F7802
:103460000E121E7F8510828511831239881236272D
:10347000120A4F7406121C2B8A0E8B0FAE0EAF0F62
:10348000E50C2402F50EE50D3400F50F8038888236
:10349000898374FFF0050812329674FFF0050890D6
:1034A000064FE0F50C750D00780C121E7F7C507DE8
:1034B0000685080C7468250C1232B0121C2B90067D
:1034C0004FE02508F508EE4F60278E828F83A3A377
:1034D000A3E0F9850E82850F83123637EE2404129D
:1034E0003E9AE96027850C82850D831236191239C0
:1034F0009FE50870030235FF123641850E82850F65
:103500008312362D1207D97900023614E4F514F52A
:10351000157814121E7F75144F7515067814121E37
:103520007F7514507515067814121E7F7408121CCE
:1035300060121E967911EEFCEFFD850E82850F83D9
:103540001241EE121C2BE9F509709A850882AA82B5
:10355000EA90064F7009E02404900667F08025E0A9
:10356000F8900667E0F514E82404FCE43400FDEC70
:1035700065147001ED70811233E694121233DE404F
:10358000030234F8850C82850D83E0C0E074682A5C
:1035900012329DD0E0F00508850C82850D83A3E0F2
:1035A000C0E0123296D0E012365C85820C85830D25
:1035B000780C121E7F7404121C60121E96851082F5
:1035C000851183123653121C2B8A0C8B0DAE0CAF57
:1035D0000D85080C7468250CF874063400F9EE4F5C
:1035E000700302348E851882851983E0888289836E
:1035F00012365CA3E0C0E0123296D0E002349CE5C3
:1036000009700375090A850A82850B83123619121F
:10361000399FA909740402328E1241C28512828533
:103620001383227C667D06850A82850B83123631E0
:1036300022E0FAA3E0FB22123631120A3DE9F50935
:1036400022900667E0F5F0E50884900666F07C6657
:103650007D06221232C6120A5B740422F005088528
:1036600018828519832274EC121C6C74FE121C15CE
:103670008A088B098C0E8D0FEA2405FEEB3400FFBF
:1036800012386FEE2418123E9AEA450B7003023787
:103690001212385850291237378A108B11EA451107
:1036A000606B7912AC0AAD0B8508828509831236EE
:1036B0002D851082851183121C6AE9F50A7058E481
:1036C000F50AF50B780A121E7F8E828F83A3A3E082
:1036D000F50A780A121E7FEE240312397F780A1247
:1036E0001E7F8E828F83123744120B6F7406121C5A
:1036F0002BE9F50A7021850C82850D83E0701F850A
:10370000088285098312362D1207DF8011750A0E93
:103710008009750A018004E50A6003123992850C5C
:1037200082850D83E0600479008002A90A74021288
:103730001C2B7F0C021D3E851882851983123631A1
:10374000120B5D2212398DFD8508828509831236A0
:10375000312274EE121C6C74FE121C158A088B093F
:103760008C0C8D0DEA2405FEEB3400FF750E001263
:10377000386FEA450B7003023836123858502C1255
:1037800037378A0E8B0FEA450F604A7912AC0AADC3
:103790000B85088285098312362D850E82850F835D
:1037A000121C6AE9F50E6003023839850882850922
:1037B00083123A74AA0AFB12384A70147AFF7BFF0C
:1037C00012384A606C88828983E50AF0A3E50BF021
:1037D000750A008007750E0E805F050A90064CE0A2
:1037E000FAE50AC39A504AE50A75F017A4FAABF055
:1037F00088828983A3A3E02AFAA3E03BFB8A828B19
:1038000083123988EC4D70D2750A17750B00780A4F
:10381000121E7FEEFCEFFD1203E97402121C2BEE68
:10382000FCEFFD85088285098312362D1207E5809D
:1038300014750E098003750E011241BA850C82853C
:103840000D8312399FA90E0233D9120B518A108BA6
:1038500011A810A911E84922E5082402F508E50994
:103860003400F5098A828B83A3A3A3E0A2E5228515
:103870001882851983AC82AD838E828F831238853E
:103880008A0A8B0B22E0FAA3E0FB120A5522740489
:10389000121C2B7F0A021D3E74EC121C6C8C108DC6
:1038A00011EA2405F50CEB123E9D750F00EA240287
:1038B000F50AEB123982850A82F58312362D1242FF
:1038C000747003023974750E008071850C82850D49
:1038D00083E06401704F8E828F83A3A3121E968EA5
:1038E000828F83A3A3A3A3E0F512751300781212AD
:1038F0001E7FEE2405F512EF3400F5137812121E28
:103900007F123627120B6F7406121C2BE9F50F601D
:1039100014850C82850D83E4F01241BA85108285EE
:10392000118312399F7C177D007900EEFAEFFB12AC
:1039300004018E828F83E4F0A3F0050E90064CE024
:10394000F8E50EC398501EE50E75F017A4F8A9F01F
:10395000850882850983A3A31241DA123988EC4DC8
:1039600060030238CB85088285098374FFF0A3F0D9
:10397000E50F70061236271207EBA90F023732F552
:103980000AEF3400F50B22A312398DFD22E0FCA3CF
:10399000E0228E828F831241C2850E82850F83E8DA
:1039A000F0A3E9F022C082C083900648E06A700369
:1039B000A3E06B70067A487B0680047A007B0002E5
:1039C0002CE774F7121C6C7F00EF75F003A4F8A9C4
:1039D000F0EC28F8ED39F988828983E06A7003A356
:1039E000E06B7006E8FAE9FB800B0FEFC39402402E
:1039F000D87A007B007F01021D3E74F6121C6C1207
:103A00003FAB70067A007B008007A3A3A3A3123606
:103A10002D02406C74F2121C6CE9FE740E121C60D4
:103A2000123A747410121C60123EDC8C828D83E09A
:103A30006402703BA31241BE88828983E0F50CA327
:103A4000E0F9A80C74026870037429697021750C80
:103A500002750D00780C121E7F7808121E7F780AFE
:103A6000121E7FEEF9120B937406121C2B80027942
:103A7000010240DCE0F50AA3E0F50B2274E8121C19
:103A80006C74FB121C15E9851882851983F08A165F
:103A90008B178C0E8D0F741F121C60123EDC74216C
:103AA000121C60123A747423121C60123EC6751008
:103AB000008C828D83A3A3A3E0A2E4502A741D127C
:103AC0001C6012373D8A828B83E582458370030236
:103AD0003B88790AAC0EAD0FAA16AB17121C6AE927
:103AE000F5106003023B8B850E82850F83E0640234
:103AF0006003023E41A31241BE850882850983A36B
:103B0000858212858313E50E2406F50CE50F123E1F
:103B10009D88828983E0FAA3E0F9EA2400F514E4A1
:103B200039F5157814121F09010000280128503BAF
:103B300007000228273C0328973B0029513D012913
:103B4000793D0229203D0329513D0429E23D413EB2
:103B5000EE4F703E850C82850D83123EB7FAE9FB6D
:103B60008A828B83E0850A82850B83123EF3121EC4
:103B70007F8A828B83A312398DFDAA08AB091203B9
:103B8000E97402121C2B800375100EA91074050233
:103B900041C875100B80F4EE4F70F7850A82850BD3
:103BA000837401F0123ECC850882850983F07C0085
:103BB0007D00850E82850F83A3A3A3A3E02401FAD1
:103BC000A3E03400FB120A55EA4B60418A828B83E2
:103BD000E02402F8850A82850B83E028F0EA2404B9
:103BE000F8EB3400F988828983E08512828513839B
:103BF000123F05123EF3121E7F8A828B8312398791
:103C0000E5082403FAE5093400FB023B7E850A82BD
:103C1000850B83E02404F07C047D007900AA12ABBC
:103C200013120401023B8BEE4F6003023B92123EE3
:103C3000CCFEA3E0FF850A82850B837404F0EE8539
:103C40000882850983F0EF851282851383F074035F
:103C5000121C60AC82AD83EEFAEFFB123F99700349
:103C6000023CFD8A828B83A3A3123EC27401121C04
:103C70006085820E85830F780E121E7F7405121CDC
:103C800060121E967CFF7DFF120A5B7404121C2BCF
:103C90008B0FEA450F7033850C82850D83123EA28F
:103CA000121E7F850C82850D83A3121E967C027DD9
:103CB000007AF57B811208877404121C2BE9700AC4
:103CC0007401121C6074FFF0A3F08E828F83E06495
:103CD000027034750C02750D00780C121E7F8E82F6
:103CE0008F83123987E5082404FAE5091232B312EA
:103CF0001C2B850A82850B83E02402800974011243
:103D00001C60EEF0A3EFF07401121C60123EB3F0E1
:103D10007401121C60A3123EABA3A3A3F0023B8B61
:103D2000EE4F6003023B92850C82850D8312398829
:103D3000AA16AB17120B87850A82850B837402F0D3
:103D4000EA850882850983F0851282851383EB80DA
:103D5000CBEE4F6003023B92123ECCF8A3E0F98514
:103D60000A82850B837402F0E8850882850983F056
:103D7000E985128285138380A3850C82850D8312C9
:103D8000362D1203E3EAFC8C82A882C39EE49F4096
:103D90004BE86E7001EF70047C00801F85188285EF
:103DA0001983E0FAEE2AFAEF3400FBC3EA98EB94A9
:103DB000005003E08004EECCC39CFCEC850A8285B5
:103DC0000B83F08C0A750B00780A121E7F850C821B
:103DD000850D83E02EFCA3E03F023B7975100702BE
:103DE0003B8BEE4F6003023B92850C82850D831264
:103DF00041BE850A82850B837407F088828983120D
:103E00003EAB123E93E0851282851383F0E82402D4
:103E1000FAE93400FB8A828B83123EAB123EE41235
:103E20003EB3A3123EED123EBCF0E82405F8E9349F
:103E300000F988828983123EBCA3123F05A3023D8C
:103E400019741D121C60123FA47003023B881241BA
:103E5000BE880C890DE8450D7003023B888E108FDB
:103E6000117810121E7F780A121E7F7808121E7FAA
:103E70007406121C60E0F9AC0EAD0FAA16AB1785E4
:103E80000C82850D83121C6A7406121C2BE9F51036
:103E9000023B8BF088828983A322F50CEF3400F576
:103EA0000D22E0F50E750F00780E22E08508828560
:103EB000098322123F0C221241C2E822123F0CA3B6
:103EC000A322A3A3A3A3E0FEA3E0FF22850C828587
:103ED0000D83E0F8A3E0F5838882E022E0F508A3F3
:103EE000E0F50922A3A3F08A828B83A322122C047B
:103EF000A3A322F08A828B83123EFC22E0F50A758E
:103F00000B00780A22123E93123F0C22E0850882B1
:103F1000850983A3A32274EE121C6C74FE121C1577
:103F20008A0A8B0BECFAEDFB7414121C60E0F5109E
:103F3000A3E0F5117416121C60E0FE7418121C60E8
:103F4000E0F50EA3E0F50F851882851983AC82ADEC
:103F500083123F99603E851882851983123FA460C1
:103F60002FA3A3123EDCE50845096024780E121E3B
:103F70007F7810121E7FEEF9AC0CAD0DAA0AAB0BC8
:103F8000850882850983121C6A7404121C2B800622
:103F9000790E800279010233D9120A558A0C8B0DF1
:103FA000EA450D22123631123FAB22120B1B8A82D8
:103FB0008B83E58245832274F6121C6C74FE121CFE
:103FC00015740C121C60123EB7851882851983F097
:103FD0007401121C60E9F0E4F508F5097808121E76
:103FE0007F7508027808121E7F7404121C60858297
:103FF000088583097808121E7F120B6F7406121C45
:104000002B7402121C2B806474F7121C6CEAFEEBFA
:10401000FF89087C7F7D06120B87EA5402600BA99A
:1040200008EEFAEFFB120A49800279010239F574B1
:10403000F6121C6C74FF6A700374FF6B701C7B00BB
:10404000EB75F003A4F8A9F0EC28F8ED39F912406B
:10405000710BEBC39402501480E6120B578A088B45
:1040600009A808A909E84960031240717F02021DEE
:104070003E8882898374FF122C02E4F02274F612C7
:104080001C6C120B578A828B83E58245836006A3E2
:10409000A3E0FA80027A007B0080D174F2121C6CDB
:1040A0008A088B09ECFEEDFF740E121C60E0F50A25
:1040B0001240E1701CEEFCEFFD7AFF7BFF1240E145
:1040C00070047911801688828983E508F0A3E509D8
:1040D000F088828983A3A3E50AF079007F06021D98
:1040E0003E120B578A0C8B0DA80CA90DE8492274BF
:1040F000EE121C6CEAFEEBFF8C088D09890C741221
:10410000121C601241BE7414121C6012398874169D
:10411000121C6012362D750D00EC4D60030241B289
:104120007402650C60030241AD8882898312398D67
:10413000F9EC2400F50EE439F50FEAF4F8EBF4F9A4
:10414000EC58F8E50F59F9E849705DE5082406F8E0
:10415000E5093400F9880A890B8882F5831232C296
:10416000120B878A108B11E50E65107004E50F6540
:10417000116042780E121E7F850A82850B831232EF
:10418000C2120B8D7402121C2BE9F50D7027780EEC
:10419000121E7F850882850983A3A31232C0120BE9
:1041A0009F7402121C2B800D750D808008750D0DFB
:1041B0008003750D0BA90D0238938E828F831241F7
:1041C000C222E0F8A3E0F922121C2B7F10021D3E50
:1041D0003400F50D850C82F58322E028FEA3E0393A
:1041E000FF8E828F83227916850A82850B83123691
:1041F00031120B6974082274F2121C6CEAFEEBFF98
:10420000890B7401650B600E7402650B7063790194
:10421000120D79E9705BEEFAEFFB1242746047759C
:104220000A00800B7C177D007900120401050A90BA
:10423000064CE0F8E50AC3985021E50A75F017A48A
:10424000F8A9F0850882850983A3A3E028FAA3E0F2
:1042500039FB8A828B83122CEE70C985088285090E
:104260008374FFF0A3F07C7F7D06EEFAEFFB120B68
:10427000810240DC120B518A088B09EA450922743D
:10428000F2121C6C8A088B09ECFEEDFF740E121CF6
:1042900060123A74900C85E0F4603D7A097B00125C
:1042A000040DEA4B60328A828B8374B1F0A3E4126E
:1042B0003EE6A3123EE4A3E508F0A3E5091242DBC3
:1042C000EEF0A3EF1242DBA3A3E50AF0A3E50BF0A7
:1042D000900C85E0F91204190240DCF08A828B838D
:1042E000A3A3A3A3A322C082C0839061907404F00F
:1042F000A37448F0A37402F09061807440F0906160
:10430000BC7403F09061877419F0906265741BF0BF
:1043100090619C740DF090619A7433F0A37455F021
:104320009061A0743AF09008C3E064017009C291F2
:1043300090072D7467800590072D7461F0902AC650
:10434000E493906186F0902AC0E493F46027E493AC
:10435000540FF8906185E0686012E5C654804449C6
:10436000F5C6E59E547F644970F8E8F053C680E5D1
:104370009E547F70FA79051210CD024528C082C084
:1043800083E9540FF9906185E0696012E5C65480B5
:104390004449F5C6E59E547F644970F8E9F053C678
:1043A00080E59E547F70FA024528C082C083E5A84C
:1043B000F853A87E906181E4F0A3F0A3F0C2BA5351
:1043C0009AFEC289759B00C2C275E900759100759D
:1043D000BF0075A91175B905906181F0A374C0F093
:1043E000A3E4F0D2BA439A0174805842A802452847
:1043F000C082C08374F8121C1590072BE0F8A3E06C
:10440000F9E849700302451E90072BE054406023F1
:104410007908851882851983AA82AB83120F3585A6
:104420001882851983AA82AB83120C0B90072BE0AC
:1044300054BFF0E054806010790C7AE77B08120FCB
:104440003590072BE0547FF0E0A2E0503190619A64
:104450007433F0A37455F09061A0743AF09008C3DF
:10446000E064017009C29190072D74678005900780
:104470002D7461F0120C1190072BE054FEF0E05403
:1044800002603190619A743FF0A3745AF09061A079
:10449000747FF09008C3E064017009D29190072DF9
:1044A0007471800590072D746AF0120C1190072B1F
:1044B000E054FDF0E054046013902AC4E49390614A
:1044C00086F0120C1790072BE054FBF0E0540860C4
:1044D00013902AC5E493906186F0120C1790072B75
:1044E000E054F7F0E054106013902AC6E493906112
:1044F00086F0120C1790072BE054EFF0E054206088
:104500000A120C1790072BE054DFF0A3E05401606F
:104510000D120E5D120C1D90072CE054FEF0740875
:10452000121C2B8003F0A3F0D083D08202013574DB
:10453000EC121C6C74F4121C15851882851983AC5E
:1045400082AD837583817582827404121B28902A40
:10455000C493F460030246BC907808E0C394025010
:104560000302469C7404121C60AC82AD8375838088
:104570007582D77408121B28851882851983858255
:10458000128583137404121C60AC82AD83750EFF18
:10459000750FFF7FFF7E00750C48750D78801574D0
:1045A000086E700302462F74096E700302462F7462
:1045B0000A6E607B850C82850D837808121AE58C63
:1045C000828D83A909E50AC9F88810741878081241
:1045D0001A0EE5104508F8C3E098A3E099850C820F
:1045E000850D837808121AE540188C828D83741823
:1045F0007808121A0EE5104508F8E0C398F8A3E011
:10460000801C74187808121A0EE5104508FAE9FBA8
:104610008C828D83E0F8A3E0F9EAC398F8EB99F96E
:10462000C3E8950EE9950F5006880E890FEEFF0E30
:10463000E50C2404F50CE50D3400F50DEEC39413E0
:10464000500302459F74FF650E700474FF650F6090
:10465000238F0874027808121C0274482508F5821A
:1046600074783509F5837808121AE5851282851366
:1046700083E508F0EC24020C0CED3400FD85128279
:10468000851383A3858212858313740C121C60E545
:10469000826C7003E5836D600302458D75080175BA
:1046A00009007808121E7F7402121C60AC82AD8370
:1046B0007AB17B0A12068F7402121C2B740C121C26
:1046C0002B7F0C021D3EC082C0839061AE7468F0E7
:1046D000A3746AF090624574FBF0A304F053F4FDF8
:1046E00043FE029008C37401F09061A0E0643A9028
:1046F000619A70237433F0A37455F09061A0743AFA
:10470000F0740164017009C29190072D74678028CC
:1047100090072D74618021743FF0A3745AF090616A
:10472000A0747FF0740164017009D29190072D7418
:1047300071800590072D746A0245277F04021D3E93
:10474000C082C083900875E06401700A90087AE026
:104750006004790C80027900024528C082C083750C
:10476000E1F1900878E06055146008146059146015
:10477000518059120E6F90086EE0F97A6F7B081223
:10478000104F90817A121B031210859081D2121B58
:104790000312105B900879E0F9121067790112108A
:1047A000C190086CE02416F8A3E03400F9888289EF
:1047B000837487F0A3740EF07900024528120E75F9
:1047C00080B4120E7B80AF120E8180AA791280EA2B
:1047D00074F4121C6C75D90D90085DE0A2E0E4330E
:1047E0001313F890086EE0C4333354C0484401F505
:1047F000D9786C790888828983A3A3A3E0F5D98846
:10480000828983A3A882A983E864727003E964089B
:1048100070E3785D790888828983A3E0F5D988827E
:104820008983A3A882A983E864637003E96408709C
:10483000E575E19590085DE0F97A5E7B0812105508
:10484000900CA7741BF0A3740EF0A3747DF0A374F6
:104850000FF0A3747DF0A3740FF0A3747DF0A37424
:104860000FF0A37421F0A3740EF0A3747DF0A37471
:104870000FF0A37439F0A3740EF0900CB5747DF0B2
:10488000A3740FF0A3747DF0A3740FF0A3747DF0F4
:10489000A3740FF0A3747DF0A3740FF0A3747DF0E4
:1048A000A3740FF0A3747DF0A3740FF090086CE074
:1048B000F8A3E0F5838882A3A37808121AE5908113
:1048C000767808121A5990818E7808121ABF9008CB
:1048D0006CE0240EF8A3E03400F98882898378081C
:1048E000121AF490086CE02414F8A3E03400F9885C
:1048F0008289837413F09007297402F002473BC049
:1049000082C08390087EE02407F5D990086EE0C449
:10491000333354C0F5D9786C790888828983A3A38E
:10492000A3E0F5D988828983A3A882A983E8647269
:104930007003E9640870E390087EE0601F786C798A
:1049400008FAE82413F582E93400F583E0F5D98804
:10495000828983A3A882A9831AEA70E690089EE060
:104960002407F5D990086EE0C4333354C04404F5ED
:10497000D9786C790888828983A3A3A3E0F5D988C4
:10498000828983A3A882A983E864727003E964081A
:1049900070E390089EE0601F786C7908FAE8243391
:1049A000F582E93400F583E0F5D988828983A3A8EC
:1049B00082A9831AEA70E675E195900CA77427F036
:1049C000A3740EF0A3747DF0A3740FF0A3747DF0B4
:1049D000A3740FF0A3747DF0A3740FF0A37421F0FF
:1049E000A3740EF0A3747DF0A3740FF0A37439F0D8
:1049F000A3740EF0900CB5747DF0A3740FF0A37443
:104A00007DF0A3740FF0A3747DF0A3740FF0A37472
:104A10007DF0A3740FF0A3747DF0A3740FF0A37462
:104A20007DF0A3740FF09081B6121B0390086CE028
:104A3000240EF8A3E03400F988828983121B0F90BA
:104A4000086CE02414F8A3E03400F98882898374A8
:104A500012F09007297401024527C082C083900894
:104A60007EE02407F5D990086EE0C4333354C04487
:104A700002F5D9786C790888828983A3A3A3E0F52D
:104A8000D988828983A3A882A983E864727003E924
:104A9000640870E390087EE0601F786C7908FAE89B
:104AA0002413F582E93400F583E0F5D988828983FF
:104AB000A3A882A9831AEA70E675E195900CA77401
:104AC00033F0A3740EF0A37433F0A3740EF0A37448
:104AD00033F0A3740EF0A37433F0A3740EF0A37438
:104AE00033F0A3740EF0A37433F0A3740EF0A37428
:104AF00039F0A3740EF0900CB5747DF0A3740FF030
:104B0000A3747DF0A3740FF0A3747DF0A3740FF071
:104B1000A3747DF0A3740FF0A3747DF0A3740FF061
:104B2000A3747DF0A3740FF09081B6121B0390085C
:104B30006CE0240EF8A3E03400F988828983121B0C
:104B40000F90086CE02414F8A3E03400F9888289FF
:104B5000837414F09007297404024527C082C0832F
:104B600090087EE02407F5D990086EE0C4333354F2
:104B7000C04406F5D9786C790888828983A3A3A3F9
:104B8000E0F5D988828983A3A882A983E86472703A
:104B900003E9640870E390087EE0601F786C790890
:104BA000FAE82413F582E93400F583E0F5D9888228
:104BB0008983A3A882A9831AEA70E690089EE0245C
:104BC00007F5D990086EE0C4333354C04404F5D9D6
:104BD000786C790888828983A3A3A3E0F5D98882B9
:104BE0008983A3A882A983E864727003E9640870CA
:104BF000E390089EE0601F786C7908FAE82433F5AA
:104C000082E93400F583E0F5D988828983A3A882FC
:104C1000A9831AEA70E675E195900CA7742DF0A3AC
:104C2000740EF0A3747DF0A3740FF0A3747DF0A351
:104C3000740FF0A3747DF0A3740FF0A3747DF0A340
:104C4000740FF0A3747DF0A3740FF0A37439F0A374
:104C5000740EF0900CB5747DF0A3740FF0A3747D06
:104C6000F0A3740FF0A3747DF0A3740FF0A3747D10
:104C7000F0A3740FF0A3747DF0A3740FF0A3747D00
:104C8000F0A3740FF09081B6121B0390086CE0241F
:104C90000EF8A3E03400F988828983121B0F900874
:104CA0006CE02414F8A3E03400F988828983741539
:104CB000F09007297403024527C082C08390086CD6
:104CC000E0F8A3E0F5838882A3A3A3A3A3A3E4024F
:104CD000452574F7121C6C900757E0F875F004A492
:104CE000C8AAF02AF9745928F8740739F9E8240594
:104CF000FAE93400FB8A828B83E0FCA3E0FD888222
:104D00008983A3A3A3A3A3A3A3A3A3ECF0A3EDF080
:104D100088828983A3A3A3A3A3A3A3E024FFF8A36A
:104D2000E034FFF98A828B83E8F0A3E9024F7774BD
:104D3000F7121C6CEAFEEBFF9061D0E06003024EBC
:104D40000C75D90E75D90375D904EE248CF582EF54
:104D50003400F583E5822408F8E5833400F9E0F5B2
:104D6000D9A3E865827003E9658370F2EE2484F5C7
:104D700082EF3400F583E5822404F8E5833400F9FA
:104D8000E0F5D9A3E865827003E9658370F275E107
:104D9000957908EE248CFAEF3400FB120F29790480
:104DA000EE2484FAEF3400FB120F297C00EEF8EFBA
:104DB000F9ECFAC3E49AFA95E0FBEE2AFAEF3BFB32
:104DC000EA248BF582EB3400F583E0C0E0E824AB05
:104DD000F582E93400F583D0E0F00C88828983A362
:104DE000A882A983ECC3940840C7EE2470F582EF33
:104DF0003400F583E0F8A3E0F9EE2472F582EF3495
:104E000000F583E8F0A3E9F0790180027900024F10
:104E100078C082C08375D90275D90375D90575E14B
:104E200095EA2470F582EB3400F583E0F8A3E0F90D
:104E3000EA2472F582EB3400F583E8F0A3E9F07917
:104E40000102452874F6121C6CEAFEEBFF9008C7BD
:104E50007406F07508C77509087808121E7F7C0172
:104E60007903120F717402121C2B75D90675D903C0
:104E70007582C7758308E0F5D9A3E58264CC700418
:104E8000E583640870F075E195900729E064087087
:104E90001EEE2470F582EF3400F583E0F8A3E0F90C
:104EA000EE2472F582EF3400F583E8F0A3E9F0799F
:104EB0000102504474F6121C6CEAFEEBFF9061D0C4
:104EC000E0706678019008C7740BF0900729E064E1
:104ED0000770197508C77509087808121E7F7C01CC
:104EE0007903120F717402121C2B7805740128F5D6
:104EF000D975D9037582C7758308E8FAE0F5D9A397
:104F00001AEA70F875E195EE2470F582EF3400F539
:104F100083E0F8A3E0F9EE2472F582EF3400F58324
:104F2000E8F0A3E9F079018002790002504474F7B7
:104F3000121C6CEAFEEBFF75D90375D90375D90D08
:104F4000EE24DEF582EF3400F583E0F5D975E195C6
:104F5000790412108BEE2470F582EF3400F583E0B3
:104F6000F8A3E0F9EE2472F582EF3400F583E8F05F
:104F7000A3E9F079018001F07F01021D3E74F61271
:104F80001C6CEAFEEBFF9061D0E0F87480C398FAE5
:104F9000EE2483F582EF3400F583E060047804802A
:104FA000027800E8240BF8EAC39850030250427DCF
:104FB000099008C7EDF0EE24E3F8EF3400F97AC861
:104FC0007B087C0888828983E08A828B83F08882D0
:104FD0008983A3A882A9838A828B83A3AA82AB83B5
:104FE0001CEC70E0EE2483F582EF3400F583E06082
:104FF0001D7508C77509087808121E7F7C0979039A
:10500000EEFAEFFB120F717402121C2B7D0D74016E
:105010002DF5D975D9037582C77583088D08E0F51C
:10502000D9A31508E50870F675E195790412108B7F
:10503000EE241DF582EF3400F583E4F0A3F079014E
:10504000800279007F02021D3E74F6121C6CEAFE9B
:10505000EBFF9061D0E0F87480C398FAEE2483F5FA
:1050600082EF3400F583E06004780480027800E881
:105070002408F8EAC39850030251497D069008C7F6
:10508000740CF0900746E09008C8F07A477B0778E8
:10509000C979087C028A828B83E088828983F08ABE
:1050A000828B83A3AA82AB8388828983A3A882A9E7
:1050B000831CEC70E07A497B077C028A828B83E058
:1050C00088828983F08A828B83A3AA82AB838882B9
:1050D0008983A3A882A9831CEC70E0EE2483F58267
:1050E000EF3400F583E0601D7508C775090878087E
:1050F000121E7F7C067903EEFAEFFB120F71740229
:10510000121C2B7D0A74012DF5D975D9037582C740
:105110007583088D08E0F5D9A31508E50870F675C4
:10512000E195790412108BEE2470F582EF3400F5CE
:1051300083E0F8A3E0F9EE2472F582EF3400F58302
:10514000E8F0A3E9F079018002790002504474F696
:10515000121C6CEAFEEBFF9061D0E0F87480C398FB
:10516000FAEE2483F582EF3400F583E060047804DE
:1051700080027800E82404F8EAC398500302522819
:1051800078029008C7E8F0EE24F5F582EF3400F5D8
:1051900083E09008C8F0EE2483F582EF3400F583B5
:1051A000E0601B7508C77509087808121E7F7C022D
:1051B0007903EEFA120F717402121C2B7806740137
:1051C00028F5D975D9037582C77583088808E0F575
:1051D000D9A31508E50870F675E195EE2474F582FB
:1051E000EF3400F583E4F0EE2480F582EF3400F52F
:1051F00083E4F0EE241DF582EF3400F583E4F0A3A0
:10520000F0790412108BEE240DF582EF3400F58353
:10521000E0F8A3E0F9EE2472F582EF3400F583E8BC
:10522000F0A3E9F079018002790002504474F6128B
:105230001C6C9061D0E0F87480C398FCEA2483F57C
:1052400082EB3400F583E06004780480027800E8A3
:105250002404F8ECC398405B79029008C77407F007
:10526000EA24F6F582EB3400F583E09008C8F0EA12
:105270002483F582EB3400F583E060187508C77568
:1052800009087808121E7F7C0209120F717402123D
:105290001C2B7906740129F5D975D9037582C77558
:1052A0008308E9F8E0F5D9A318E870F875E1957975
:1052B000018002790002504474F5121C6CE9FCA2D2
:1052C000AFE433F50AC2AF7D0080010DEA246FF52B
:1052D00082EB3400F583E0F8EDC398501A8D08EAAC
:1052E0002508F8EB3400F9E8246BF582E93400F581
:1052F00083E06C70D68024EA246FF8EB3400F9E088
:10530000FEEA2EFAEB3400FBEA246BF582EB340064
:10531000F583ECF088828983E004F0E50AA2E0924C
:10532000AF7F03021D3E74F6121C6CA2AFE433FD86
:10533000C2AFEA246FF582EB3400F583E014F07C11
:105340000060368C08EA2508F8EB3400F9E8246C94
:10535000F582E93400F583E0C0E0E8246BF582E9EA
:105360003400F583D0E0F00CEA246FF582EB3400D2
:10537000F583E0F8ECC39840CAEA246EF582EB347A
:1053800000F58374FFF0EA246AF582EB3400F583BC
:10539000E4F0EDA2E092AF025044C082C083E5A8E1
:1053A000F8C2AFEA246BF582EB3400F583E9F0EA4A
:1053B000246AF582EB3400F583E4F0E8A2E792AFCB
:1053C00002452874F3121C6CEAFEEBFFECFAEDFBCD
:1053D0008A828B83A3A3A3A3E0541FF0EE2436F5A7
:1053E00082EF3400F583E4F0F50AEEFCEFFD8A82EB
:1053F0008B83E0C0E0EC245DF582ED3400F583D0D2
:10540000E0F0750B00E50A33333354F8F50C8A826B
:105410008B83E0F508750900E50B7808121BE3E5BE
:1054200008A2E0502FEE2436F8EF3400F988828984
:1054300083E0F508EE2508F508EF3400F509E508E6
:105440002438F582E5093400F583E50CF08882897B
:1054500083E004F0050B050CE50BC3940840AF0591
:105460000A8A828B83A3AA82AB838C828D83A3ACAE
:1054700082AD83E50AC3940550030253EE7F050213
:105480001D3E74F7121C6C900755E0640170077A9A
:10549000007B000255F97E0090075BE070F174011B
:1054A000F0A3E4F0A3F09007BB04F09007BEE4F093
:1054B000A3F09007C104F090075EE4F0A3F0A3F01E
:1054C000A3F090076804F090078EE4F09081D61264
:1054D0001B03900771121B0F900775E4F0A3F0A354
:1054E000F09007D9F09007CDF09007C27480F0A338
:1054F000E4F09007C8F09007C0F0900844F0A3F0E3
:10550000A3F0A3F0A3F0A3F0A3F0A3F090084DF054
:105510009007DCF090082CF0A3F09081D6121B03CA
:1055200090082E121B0F9081D6121B039008321286
:105530001B0F900838E4F090083AF0900836F0908D
:105540000850F0A3F0A3F0A3F0A3F0A3F0A3F0A3FE
:10555000F078557907E8246FF582E93400F5837413
:10556000FFF00E88828983A3A882A983EEC39404E6
:1055700040E37A557B077864790888828983E0C0A4
:10558000E0EA2461F582EB3400F583D0E0F0888214
:105590008983A3A882A9838A828B83A3AA82AB83EF
:1055A000E864697003E9640870D07A557B07783C39
:1055B000790788828983A3E0C0E0EA24E7F582EBDB
:1055C0003400F583D0E0F088828983A3A882A98380
:1055D0008A828B83A3AA82AB83E864447003E96464
:1055E0000770CF900755E004F06401700890075DE4
:1055F000E0900757F07A597B07024F78C082C0834A
:1056000090075CE4F090075BF0900755F0A3F0A3DF
:1056100074FFF075E1F1024528C082C083780079FB
:105620000090075CE060047859790788828983A339
:10563000A3A3A3E0F902452874F6121C6CEAFEEB62
:10564000FF8E828F83A3A3A3E0600F8E828F83A33C
:10565000A3A3E4F0900756E014F0900755E014F08F
:10566000700690075774FFF08E828F83A3A3E4F037
:10567000900869E0700D900756E0640170057900AC
:1056800012106DEE2465F582EF3400F583E0F8A387
:10569000E0F9E8496029EE2465F8EF3400F988085C
:1056A00089098882F583E0FCA3E0FD900757E0FAC2
:1056B0007B00120C41850882850983E4F0A3F0EE9B
:1056C000FAEFFB120FA102504474F7121C6CEAFEB1
:1056D000EBFF8E828F83A3A3A3A3E0FA7B00120CBF
:1056E00083EEFAEFFB120EF3120F89024F78C0829D
:1056F000C083783C790788828983A3E4F088828913
:1057000083A3A882A983E864447003E9640770E670
:1057100090073D024A5574F6121C6CEAFEEBFFEC52
:105720002403F8ED3400F988088909EC2407F8ED22
:105730003400F9E8FCE9FD8C828D83E0F8A3E0F900
:10574000850882850983E0FAA3E0FB121B8AEE2418
:105750000DF582EF3400F583E8F0A3E9F08C828D3B
:1057600083E0F8A3E0F9850882850983E0FAA3E0E5
:10577000FB121B8A8B09EA45096013EE240DF582A2
:10578000EF3400F583E02401F0A3E03400F0025090
:105790004474F6121C6CEAFEEBFFEE242EF582EF49
:1057A0003400F583E0FCA3E0FD780079FAECFAED33
:1057B000FB121B8AEE2470F582EF3400F583E8F0CB
:1057C000A3E9F0780079FAECFAEDFB121B8A8B0959
:1057D000EA45096013EE2470F582EF3400F583E0AA
:1057E0002401F0A3E03400F002504474F0121C6C69
:1057F000EAFEEBFF7410121C607808121AE5121012
:105800002B8A0C8B0D8C0E8D0F908172780C121AD6
:105810005990818E780C121ABF780C121E7B8E82E2
:105820008F83E0F8A3E0F5838882A3A3121B031201
:1058300028567404121C2BE960030259388E828F9B
:1058400083E02402F8A3E03400F9E8FAE9FB8A8255
:105850008B837808121A6C90818E7808121AE58A68
:10586000828B837808121AD2EE240BF582EF340073
:10587000F583C082C0838E828F83A3A3A3A3A3E0FA
:105880002401F8A3E03400F9D083D082E0687003EB
:10589000A3E0697005790102593A8E828F83A3A330
:1058A000A3A3A3A3A3E02401F0A3E03400F0EE241B
:1058B00074F582EF3400F583E064017036EE2475F0
:1058C000F582EF3400F583E0F8A3E0F98E828F8350
:1058D000A3A3A3A3A3A3A3E0687003A3E069701329
:1058E000EE2475F582EF3400F583E02401F0A3E0A7
:1058F0003400F0EE2480F582EF3400F583E064019B
:105900007036EE2481F582EF3400F583E0F8A3E0F1
:10591000F98E828F83A3A3A3A3A3A3A3E06870033C
:10592000A3E0697013EE2481F582EF3400F583E083
:105930002401F0A3E03400F079007F08021D3E74DA
:10594000F7121C6C900757E0F875F004A4C8AAF091
:105950002AF9745928FE740739FF8028EE2465F867
:10596000EF3400F988828983E0FCA3E0FD88828916
:1059700083E4F0A3F08E828F83A3A3A3A3E0FA7B3A
:1059800000120C41EE2465F582EF3400F583E0F857
:10599000A3E0F9E849604FEE2464F582EF3400F5A6
:1059A00083E0F5087808121E83EE2463F582EF3455
:1059B00000F583E0F9EE2465F582EF3400F583E02D
:1059C000FCA3E0FDEEFAEFFB120F1D7401121C2B7D
:1059D000E96089EE2465F582EF3400F583E0F8A3F1
:1059E000E0F9E84970137C007D008E828F83A3A3C9
:1059F000A3A3E0FA7B00120C41024F7874F2121C50
:105A00006CEAFEEBFF890A740E121C60E0FAEE24C9
:105A100062F582EF3400F583E064016003025AC846
:105A20009061D0E0F87480C398F50CEE2483F58281
:105A3000EF3400F583E06004780480027800890880
:105A4000E928F8E43400F9E824020808E93400F908
:105A5000E50C98E499A2D265D0334068EA700575E8
:105A60000B028003750B01E060397509007808129C
:105A70001E7F7AC77B08120F537402121C2B750805
:105A8000C77509087808121E7FAC0AA90BEEFAEF59
:105A9000FB120F717402121C2B7404250AF50A7C88
:105AA000C77D087401250AF5D9850BD9E50A600D73
:105AB0008C828D83F8E0F5D9A318E870F875E1952C
:105AC000790080067907800279FF7F06021D3EC0BB
:105AD00082C083E960208C828D83E08A828B83F090
:105AE0008C828D83A3AC82AD838A828B83A3AA82AE
:105AF000AB8319E970E0ECFAEDFB02452874EA1279
:105B00001C6C907803E06442705E9008C6E014F06C
:105B10007056C2AF125B1700782AD0E0F618D0E0BA
:105B2000F6E59F5407F9700590816A8003908166BD
:105B30007808121AE5E9C4C0E07829E65508F508A6
