:020000040000FA
:0600000002011D021F2B8E
:03002B00021B4E67
:03005300021F9EEB
:03006B00021AEC8A
:10008300021DDFE5C754F84401F5C77901220000DA
:100093000080FB120086B90003020107E47921788E
:1000A30008B800028004F709D8FCE479297802B87B
:1000B30000028004F709D8FCE490028178507909A2
:1000C3008002F0A3D8FCD9FA781A90014D7A01BACC
:1000D30000028007E493A3F608DAF9900AD0AA8213
:1000E300AB8390014E787179038015E493A3AC82BE
:1000F300AD838A828B83F0A3AA82AB838C828D83A8
:10010300D8E9D9E77582B77583AB740312012F75EC
:100113008291758300740012012F75D00075813FA1
:10012300751881751902759F00020096C09FF59F8F
:10013300E473D09F22D083D082C09FE493C0E07445
:100143000193C0E0740293F59F220101FFFF4B4D21
:10015300204852204D6F6E69746F720000000000DA
:1001630000000002010603020D1807084B4D5F480B
:10017300524D00040000060412041804E702FFFFB6
:10018300BB001264023E820100003382023A820104
:100193000000070B025C82010000080B0238820397
:1001A30000004604020202023E820100002A82028B
:1001B3003A82010000290B0256820100004E04021C
:1001C3003A820100002A0B025482010000118102CD
:1001D3003A820100002B0B02528201000038811089
:1001E30002027D00020A023E820100002D82023AD1
:1001F30082010000640B10A1800000005804023843
:10020300820300005904023A82010000650B109139
:10021300800100005F04023A82010000660B1001B6
:1002230081010000670B023A82010000690B108113
:10023300800100006104023A820100006A0B10D1C0
:10024300800300006204100208023E8201000030B5
:1002530082023A82010000CB0B024A820000006551
:10026300040238820300006604023A82010000CCD3
:100273000B0248820100006C04023A82010000CDA7
:100283000B0246820200006D0401E803053F10FFE4
:1002930000013075030201060000000000000000A9
:1002A300000000000000000000000000000000004B
:1002B30000000000FFFF0600800CE803FF0000B40D
:1002C300000028002800283075A000A000A000A08E
:1002D3000000080008E001F00010001000100010FA
:1002E300001000100050005000500010001000D00B
:1002F300070000000000000F000100050030750733
:10030300001000010081FF0000FF4E0A6C0A540A2E
:10031300FF02020208025000A0000000E803023EB0
:10032300820100002782023A82010000960C023605
:10033300820100002706023A82010000970C024264
:10034300820100003D06023A82010000980C02443B
:10035300820100003F06023A82010000990C024E1E
:10036300820800004006023A820100009A0C0260F3
:10037300820100009B0CFF0100FF20023E8201006E
:10038300002482023A82010000FF0C025082000026
:100393000000000238820300008D0624102410247C
:1003A30010241024102410241024102410241024AA
:1003B3001024102410B212CA12AC12120138518A3E
:1003C300031201387C8A03120138A68A031201380A
:1003D300C88A03120138EC8A03120138F98A03121E
:1003E3000138588B03120138878C03120138ADD4BE
:1003F30002120138C8D60212013881D7021201381D
:1004030075D80212013837D90212013877D902128E
:10041300013890D902120138DCD90212013849A9F6
:1004230003120138A9A903120138EDA103120138FF
:1004330015A2031201381DA20312013825A20312CB
:10044300013862A2031201388AA203120138D1A231
:1004530003120138DFA2031201382EA3031201385D
:100463003DDA0212013847DA0212013888DA021241
:100473000138D1DA021201380BDB0212013861DBD9
:100483000212013882DB021201388BDB02120138BF
:10049300DFDB0212013808DC0212013812DC02121F
:1004A300013880DC0212013810DD021201386BDDE5
:1004B3000212013899DD0212013821DE02120138DD
:1004C30060DE0212013895DE02120138A7DE021245
:1004D3000138C6DE02120138CFDE0212013896DF80
:1004E3000212013858AB0312013852A50312013826
:1004F300759903120138AB9903120138DF9903127E
:1005030001382C9B03120138B3A803120138C9A880
:1005130003120138D3A8031201381DA903120138AD
:100523003CEE021201384FEE0212013810EF0212B4
:1005330001384FEF021201386CEF02120138A5EFB8
:1005430002120138F2EF0212013824F002120138CC
:100553005BF00212013864F20212013849A6031259
:1005630001386CA6031201389BA603120138DDA6DD
:1005730003120138F3BE0212013804BF021201381C
:100583005EC30212013839C402120138A2C4021236
:100593000138EDC40212013810C602120138FC867C
:1005A30003120138788703120138AD87031201382B
:1005B300A58803120138A9890312013899FD011294
:1005C3000138DEFD01120138F3FD011201384DFE41
:1005D30001120138D7FE0112013882FF01120138DE
:1005E300B9FF011201386AA0031201388FA0031268
:1005F3000138BFA0031201389D8303120138E2833F
:1006030003120138F58303120138538403120138AE
:10061300AD8403120138EA8403120138C48503123E
:100623000138C38603120138FD9403120138429541
:1006330003120138559503120138719503120138DD
:10064300AF95031201381E9603120138089703125F
:1006530001380FAC0312013863820112013841845F
:1006630001120138E085011201388B86011201382D
:100673000B8701120138908701120138B9870112E3
:100683000138948B011201380B8C01120138228D31
:10069300011201385C8D011201389D8D0112013860
:1006A300E48E011201383A8F01120138838F01124F
:1006B3000138F28F011201385E90011201388F90D8
:1006C30001120138A79001120138C09101120138BB
:1006D300D091011201388693011201389D930112C2
:1006E3000138CF9301120138719501120138059633
:1006F3000112013842FF021201384EFF0212013883
:10070300EBFF0212013865AC03120138A4AC0312EB
:1007130001380FAD03120138FDA7031201380DA8EC
:10072300031201381CA803120138ADA803120138C3
:1007330050A403120138D5A40312013839A50312BA
:100743000138F37F00120138F9AC0312013809AD07
:10075300031201380CAD03120138F87F001201387F
:10076300419703120138CB98031201382C990312D5
:100773000138729903120138E4AA0312013811AB4C
:100783000312013827AB03120138D29E031201383A
:10079300249F03120138979F0312013804A0031208
:1007A3000138B69203120138E09203120138AF9375
:1007B300031201388B9403120138BDB602120138BB
:1007C30089B702120138CAB70212013804B80212FB
:1007D300013862B802120138B6B80212013814B9EE
:1007E30002120138AAB902120138B2BA0212013850
:1007F3003CBC02120138DABC0212013841BD0212BC
:10080300013854BD0212013848BE0212013891BEAC
:1008130002120138AAF001120138DCF30112013887
:100823006DF501120138C4F501120138E1F5011229
:10083300013861F601120138DDF701120138ACF815
:100843000112013819FC0112013803FD01120138AC
:100853001F9D03120138369D03120138659D031253
:1008630001389E9D03120138C69D03120138F49D81
:10087300031201380B9E03120138229E0312013822
:10088300389E031201385F9E03120138729E0312D1
:100893000138889E031201389B9E03120138C09EC3
:1008A3000312013811A40212013810A502120138F3
:1008B30045A50212013866A50212013876A5021277
:1008C300013897A502120138A3A60212013870A7B6
:1008D30002120138E3A70212013869A80212013893
:1008E300ACA802120138E3A80212013869A9021266
:1008F30001383BAA0212013899AA02120138B1AA9F
:10090300021201382BAB021201382EAB021201384E
:1009130031AB02120138D8AB02120138F0AB02122C
:10092300013820AC0212013840AC021201382EAD5E
:1009330002120138E4AD0212013894E902120138BF
:10094300BCE902120138EAE90212013821EA021273
:10095300013889EA02120138D2EA021201381DEB8A
:10096300021201385BEB0212013898EB02120138D4
:10097300C6EB021201386DEC0212013877EC021259
:10098300013884EC02120138B7EC0212013879ED18
:100993000212013885ED021201389DED0212013871
:1009A300A7ED0212013826A70312013834A7031258
:1009B30001384CA70312013864A703120138F4A9C4
:1009C3000112013892AA011201380AAB011201384F
:1009D3001FAC0112013859AC0112013802AD0112EA
:1009E3000138D7AD011201383BAF0112013892AF84
:1009F3000112013819B00112013800B10112013896
:100A03004DB101120138DBB101120138FFB10112FE
:100A13000138D4B30112013815B40112013837B4C7
:100A230001120138B8B401120138A2B5011201381C
:100A330068B601120138A1CD0212013873CE021239
:100A430001381CCF021201385FCF02120138ECCFFC
:100A53000212013878D00212013859D1021201383A
:100A630088D10212013884D202120138CCD2021288
:100A73000138CED30212013812D40212013838D40D
:100A830002120138DEA90312013871FB0212013888
:100A930087FB02120138ADFB02120138D5FC0212AA
:100AA3000138DFFC0212013838FE0212013838FF28
:100AB30002120138C4DF02120138F9E002120138D0
:100AC3002CE10212013876E10212013834E30212FA
:100AD3000138AA6C001201380D6D00120138526EF4
:100AE30000120138626E00120138856E001201385F
:100AF300D06E00120138756F001201386B7000124E
:100B03000138357100120138AD7200120138EF72ED
:100B1300001201388D7300120138DA7300120138A4
:100B2300007400120138EE7500120138F3750012DB
:100B33000138D477001201382878001201388A78F6
:100B430000120138B27800120138567900120138C8
:100B5300187A00120138497A001201384C7A0012CF
:100B63000138947A00120138D67A001201383D7B9D
:100B73000012013860900312013873900312013898
:100B83008C9003120138D79003120138B2910312EB
:100B930001384192031201388C9203120138302636
:100BA300001201383C260012013875260012013864
:100BB300BA2600120138712700120138F7270012F4
:100BC30001382328001201385C2800120138702AEA
:100BD300001201384C2C00120138372E0012013854
:100BE3006E2F00120138CE3100120138BA320012D2
:100BF30001380034001201380D35001201382A354E
:100C0300001201386235001201387C3500120138B8
:100C1300E435001201387E3A001201381F3B0012FE
:100C23000138703B00120138973B00120138E53B55
:100C330000120138033C00120138573C00120138FE
:100C43005F3D00120138E73D00120138EAE4021269
:100C53000138F4E402120138BFE502120138DAE583
:100C63000212013800E60212013844E6021201388A
:100C73007CE602120138A5E6021201381EE70212D1
:100C8300013833E70212013848E7021201387FE7DF
:100C93000212013893E702120138C4E70212013845
:100CA300FEE7021201382AE80212013880E8021234
:100CB3000138D4E8021201381DE90212013847E96C
:100CC300021201386CE902120138077C0012013864
:100CD300D17C00120138B47D001201382A7E001243
:100CE30001386C7E00120138997F001201380080B0
:100CF300021201382980021201384280021201389F
:100D0300878102120138658202120138848202123D
:100D13000138118302120138548302120138A1846D
:100D230002120138408502120138BF8702120138CE
:100D33005688021201382A89021201380C8A0212DB
:100D43000138788B021201380B8C021201383BA355
:100D530003120138A4A303120138F8A303120138C4
:100D63001FA403120138D0F2021201383DF302121C
:100D7300013888F3021201387DF40212013879F543
:100D83000212013863F6021201384FAE0212013823
:100D930091AE021201386BAF0212013844B0021255
:100DA30001383FB1021201381EB2021201388AB271
:100DB3000212013851B302120138BCB302120138D6
:100DC30023B4021201384EB402120138BFB4021226
:100DD300013852B502120138BBB502120138D0B541
:100DE3000212013818B60212013831B60212013864
:100DF30096B60212013899B602120138668D0312B3
:100E030001388E8D03120138CC8D031201388A8E7E
:100E130003120138F58E03120138118F03120138C2
:100E2300398F03120138698F03120138788F031247
:100E33000138F28F031201381890031201381BC7CF
:100E430001120138F8C801120138F3CA011201383E
:100E5300C6CB0112013811CC011201385CCC01124E
:100E630001386ECC01120138AECC01120138E3CC4B
:100E7300011201382FCD011201385ECD0112013864
:100E830081CD01120138CECD0112013857CE0112A6
:100E9300013864D0011201384FD20112013892D2C5
:100EA30001120138F7D30112013838D40112013885
:100EB300ABD401120138F7D40112013822D5011243
:100EC3000138828C02120138AD8C021201389493DE
:100ED30002120138B89502120138739702120138D1
:100EE300D098021201384E3E00120138E53E00123E
:100EF3000138123F00120138583F00120138974061
:100F0300001201382E4200120138A84200120138A3
:100F1300C3420012013838430012013867440012FB
:100F23000138C24500120138C44600120138214875
:100F3300001201383A48001201389748001201386C
:100F4300794900120138AC49001201381C4A0012D9
:100F53000138964A00120138E54A00120138B14BB4
:100F630000120138B64C00120138954D00120138B9
:100F7300204E001201388E4E00120138024F00122B
:100F830001382B4F00120138EA4F00120138645127
:100F930000120138815100120138A05100120138AA
:100FA3003152001201385652001201387E5200129B
:100FB3000138F95200120138535300120138A75473
:100FC30000120138645500120138375600120138F7
:100FD3004CD5011201389CD501120138A8D5011254
:100FE300013885D601120138B5D601120138EDD684
:100FF300011201386CD701120138A4D7011201384C
:10100300F6D70112013833D80112013858DA011228
:10101300013884DC011201387FDE011201385AE005
:1010230001120138F5FF011201384396011201380C
:101033008D96011201386C9C01120138ED9D01124D
:1010430001384CA40112013847A50112013884A5C7
:1010530001120138A7A501120138E9A501120138CF
:10106300F2A501120138FCA501120138E8A601120C
:101073000138DCA701120138655600120138DD6022
:1010830000120138E36000120138EF6700120138E3
:10109300008003120138968003120138AC800312DA
:1010A30001382681031201387C8103120138BA8189
:1010B3000312013817820312013894820312013894
:1010C3009D8203120138A98203120138BC820312E4
:1010D3000138F882031201380E83031201386D833D
:1010E3000312013825F70212013832F702120138D0
:1010F3004CF7021201388BF702120138C9F70212BA
:1011030001382EF80212013843F8021201384EF862
:10111300021201385BF80212013872F80212013828
:1011230080F8021201388BF80212013897F8021284
:101133000138A6F802120138B1F802120138D4F8C6
:10114300021201387DF9021201388DF902120138B9
:10115300A7F902120138C4F902120138E0F90212A8
:10116300013805FA021201380FFA0212013823FA84
:101173000212013842FA02120138A3FA02120138AC
:10118300A9FA02120138AFFA02120138B5FA0212B3
:101193000138C1FA02120138F4FA0212013820E3CD
:1011A30001120138A2E3011201384BE401120138A4
:1011B30093E501120138A1E70112013887E8011212
:1011C3000138BCE801120138DEE80112013887E971
:1011D3000112013857EB0112013880EB011201387B
:1011E300F8EB011201382AEC0112013837EC011235
:1011F300013882EC01120138A6EC01120138F7EE36
:101203000112013801F0011201385DF001120138B9
:101213009DB801120138AEB90112013892BA011218
:1012230001389CBA01120138BEBA01120138CABA98
:10123300011201386EBC011201389BBC0112013846
:10124300B1BD0112013806BE0112013855BF0112AA
:1012530001382AC00112013886C001120138F1C0D9
:101263000112013826C10112013869C10112013886
:1012730033C4011201384BC401120138DCC401121A
:101283000138EAC40112013837C50112013845C5D6
:1012930001120138B1C5011201382CC601120138FF
:1012A30083C601120138F39802120138159902120C
:1012B3000138269B02120138E59D021201380F9F67
:1012C30002120138CD9F02120138B9A0021201386F
:1012D300669B031201388B9B03120138019C031296
:1012E300013884C6021201388DC60212013896C62F
:1012F300021201386EC7021201381FC902120138E7
:101303004FC9021201387AC902120138AAC902125E
:101313000138D5C90212013809CA0212013835CA87
:101323000212013878CA02120138A3CA0212013824
:10133300EACA021201383FCB0212013881CB0212F2
:101343000138DBCB0212013806CC0212013855CC2E
:101353000212013885CC02120138B0CC02120138D6
:10136300DECC0212013801CD0212013867AA031242
:10137300013893AA03120138C0AA03120138CAAA7A
:1013830003120138DAAA03120138AEAC0312013892
:10139300DBAC03E066701008A3E066700A08A3E004
:1013A30066700408A3E06622C3E7960809E7960877
:1013B30009E7960809E79622C3E09608A3E0960892
:1013C300A3E09608A3E09622C008C3E096F50808B8
:1013D300A3E096420808A3E096420808A3E09645D6
:1013E300087001D3D00822080808EAC0E0EBC0E087
:1013F30086F0E7A4FA180986F0E7A42AFA18098602
:10140300F0E7A42AFA180986F0E7A42AFA1986F065
:10141300E7A4FBE5F02AFA190886F0E7A42BFBE51D
:10142300F03AFA190886F0E7A42BFBE5F03AFA182C
:10143300180986F0E7A4C5F02BFBE43AFA1908E78C
:10144300C5F0C6A426F6E5F03BFBE43AFA1886F0AD
:10145300E7A4F6E5F00826F6E43B08F6E43A08F6D6
:10146300D0E0FBD0E0FA22E4CFC0E0E4CEC0E0E479
:10147300CDC0E0E4CCC0E075F020C3E633F608E667
:1014830033F608E633F608E633F6181818EC33FC9F
:10149300ED33FDEE33FEEF33FFC3EC9709ED970910
:1014A300EE9709EF97191919400FFFEC97FC09ED17
:1014B30097FD09EE97FE191906D5F0BEECF709ED75
:1014C300F709EEF709EFF7191919D0E0FCD0E0FDA1
:1014D300D0E0FED0E0FF2212154218181812146A49
:1014E3001215311919192212153119191908080879
:1014F300E618181820E7E012146A12154218181893
:1015030022090909E719191920E7DC080808E61870
:10151300181820E70302146A121542181818121437
:101523006A12154218181812153119191922E4C331
:1015330097F709E497F709E497F709E497F722E4A3
:10154300C396F608E496F608E496F608E496F622BF
:101553006016080808C6C313C618C613C618C613F0
:10156300C618C613C6D5E0EA227009080808226027
:1015730016181818C6C333C608C633C608C633C6FA
:1015830008C633C6D5E0EA22E627F60809E637F6A9
:101593000809E637F60809E637F622E026F608A337
:1015A300E036F608A3E036F608A3E036F622E02696
:1015B300F008A3E036F008A3E036F008A3E036F025
:1015C30022C3E697F60809E697F60809E697F608B0
:1015D30009E697F622C3E096F008A3E096F008A385
:1015E300E096F008A3E096F022E056F608A3E05652
:1015F300F608A3E056F608A3E056F622E056F008F4
:10160300A3E056F008A3E056F008A3E056F022E06A
:10161300F608A3E0F608A3E0F608A3E0F622E6F056
:1016230008A3E6F008A3E6F008A3E6F022E0FAA395
:10163300E0FBA3E0FCA3E0FD22EAF0A3EBF0A3ECC4
:10164300F0A3EDF022CAC0E0E6F0A308DAFAD0E096
:10165300FA22CAC0E0E0A3C582CCC582C583CDC54A
:1016630083F0A3C582CCC582C583CDC583DAE6D01A
:10167300E0CA22C3E498F8E499F91216B78026C3A6
:10168300E49AFAE49BFBE920E7E91216B7E498F839
:10169300E499F922C3E498F8E499F91216B7E498A7
:1016A300F8E499F9C3E49AFAE49BFB22EB20E7CF31
:1016B300E920E7E0B90010BB0008E88AF084F8AA43
:1016C300F022E4FBC8FA22EB70227B10C833C8C9AE
:1016D30033C9335007C39AC3DBF280069A50012AF9
:1016E300DBEAC833F4C8C933F4C9FA2275F008E455
:1016F300C833C8C933C933C99AC99B5004C92AC955
:101703003BD5F0ECFBC833F4C8E4C9FA22600D08FA
:10171300C6A2E713C618C613C6D5E0F322600C08A9
:10172300C6C313C618C613C6D5E0F42270042260DC
:101733000D18C6C333C608C633C6D5E0F418222530
:101743001810AF08F518400215198008F518400263
:101753001519D2AF22C0D0251810AF08F5185002C2
:1017630005198008F51850020519D2AFD0D02225EB
:1017730018F58210AF08F518400215198008F518FE
:1017830040021519D2AF851983222518F582E43555
:1017930019F58322E4732518C582C0E0E51934FFE7
:1017A300C583C0E0E518C3958224F810AF0885838C
:1017B300198582188008858319858218D2AFCEF0E7
:1017C300A3E520F0A37808E608F0A3DEFAEFF0A380
:1017D300E58124FAF8E608F0A3E608F0A3E608F0AA
:1017E300A30808E608F0A3E608F0A315811581D045
:1017F300E0FED0E0F8158115811581E8C0E0EEC068
:10180300E0222518C582C0E0E51934FFC583C0E096
:10181300E518C3958224F910AF08858319858218CA
:101823008008858319858218D2AFCEF0A3E520F016
:10183300A37808E608F0A3DEFAEFF0A3E58124FB22
:10184300F8E608F0A3E608F0A30808E608F0A3E624
:1018530008F0A315811581D0E0FED0E0F8158115BD
:1018630081E8C0E0EEC0E022851983851882E0A3F9
:10187300FEE0A3F5207808E0A3F608DFFAE0A3FF73
:10188300E0A3C0E0E0A3C0E0E0A3C0E0E0A3C0E0C9
:10189300E0A3C0E010AF088582188583198008850E
:1018A3008218858319D2AFD083D08202013585197E
:1018B30083851882E0A3FEE0A3F5207808E0A3F671
:1018C30008DFFAE0A3FFE0A3C0E0E0A3C0E0E0A3E9
:1018D300C0E0E0A3C0E010AF0885821885831980BB
:1018E30008858218858319D2AFD083D08222C0D0D5
:1018F3002518C582C0E0E51934FFC583C0E0E518AB
:10190300C3958224F310AF08858319858218800854
:10191300858319858218D2AFC8F0A3E9F0A3EAF052
:10192300A3EBF0A37908E709F0A3D8FAECF0A3ED51
:10193300F0A3EEF0A3EFF0A3D0E0F0A3D0E0F0A388
:10194300D0E0F0A3E520F0A3E5F0F0A3228519830E
:10195300851882E0C0E0A3E0F9A3E0FAA3E0FBA3CB
:101963007808E0F608A3DFFAE0FCA3E0FDA3E0FEBD
:10197300A3E0FFA3E0C0E0A3E0C0E0A3E0F5D0A3B1
:10198300E0F520A3E0A3F5F010AF08858319858265
:10199300188008858319858218D2AFD082D083D06E
:1019A300E0F8D0E03274048006740280027401C04F
:1019B300E0F404121772D0E0121648227404800473
:1019C30074028000CCC0E0EDC0E0E518C39CCCAD50
:1019D3001950011D10AF068C188D1980068C188DB7
:1019E30019D2AF121655D0E0FDD0E0FC22D083D03F
:1019F30082E9C0E0E493A3C386F0C5F095F0F9084B
:101A0300E493A386F0C5F095F0700BE493A3C39918
:101A13004005E9048002A3E475F002A42582F5825F
:101A2300E5F03583F583D0E0F9E493A3C0E0E493D4
:101A3300C0E022D083D082ECC0E0EDC0E0E493A309
:101A4300FCE493A3FDED4C600D121A82EC24FFFC21
:101A5300ED34FFFD80EFE493A3FCE493A3FDED4C91
:101A6300600D121AC1EC24FFFCED34FFFD80EFD0B2
:101A7300E0FDD0E0FCE493A3C0E0E493C0E022C027
:101A8300E0C3E49396087401939618400FE49366B9
:101A9300700808740193661870007019A3A3C3E457
:101AA3009396087401939618A3A3400DD0E0D0E059
:101AB300D0E0021A72A3A3A3A3A3A3D0E022C0E0A1
:101AC300C0F088F0E4936670080874019366187098
:101AD30000A8F0A3A3700BD0F0D0E0D0E0D0E002D8
:101AE3001A72A3A3D0F0D0E022C0E074F21218F16E
:101AF300A2AFE433FEC2AFE589A2E1503B5389FDB7
:101B0300C2C5C292790012077E790012077E79005E
:101B130012077EE99002E8F0790012077EE990024D
:101B2300E7F0D292900B01121B45E0FAA3E0FB9081
:101B330002E5121B45121797EEA2E092AF7F010256
:101B43001950E0F8A3E0F583888222C0E0C0D0E812
:101B5300C0E0E5A8D2AFC2C7751A00A2E792AFD022
:101B6300E0F8D0D0D0E03274F5121805EAFEEBFFAE
:101B7300EE2434F8EF3400F988088909EE2435F5AA
:101B830082EF3400F583E0F8EE2437F582EF34007A
:101B9300F583E0F50AEC850AF0A4FCAAF0850AF0C7
:101BA300EDA42AFDE82CF8E43DF97A257B00121612
:101BB300B7EA850882850983F05407F87401B800F1
:101BC300028004C333D8FCC0E0E0131313541FF89E
:101BD300EE28F8EF3400F9E8245DF582E93400F5E6
:101BE30083D0E0F8E0586008EE2434F582EF801EDD
:101BF300EE2436F582EF3400F583E0F5F0EA84A8AD
:101C0300F0EE28F8EF3400F9E82438F582E93400DF
:101C1300F583E0F97F040218B174F5121805EAFEA2
:101C2300EBFFEE2434F582EF3400F583E0C0E0EE01
:101C33002435F582EF3400F583D0E0F08E828F8374
:101C4300A3A3A3A3A3A3A3C082C0838E828F83A3D2
:101C5300A3A3A3A3E0F8A3E0F9D083D082E0C398C1
:101C6300F508A3E099F509EE2480F582EF3400F539
:101C730083E064017069EE2481F582EF3400F5831B
:101C8300E0F8A3E0F98E828F83A3A3A3A3A3A3A366
:101C9300E0FCA3E0FD8E828F83A3A3A3A3A3E0FABA
:101CA300A3E0FBC3EA9CEB9D5027C3EC98ED99405E
:101CB3002EC3EA98EB9950277C727D08EEFAEFFB6E
:101CC300120F82EE2480F582EF3400F583E4F08076
:101CD3000EC3EA98EB9940E0C3EC98ED9950D9EE26
:101CE3002434F8EF3400F9E8FCE9FDEE2435F582FD
:101CF300EF3400F583E0F8EE2437F582EF3400F596
:101D030083E0F50AE508850AF0A4F508AAF0850A38
:101D1300F0E509A42AF509E82508F8E43509F97A74
:101D2300257B001216B7EA8C828D83F05407F87472
:101D330001B800028004C333D8FCC0E0E0131313DE
:101D4300541FF8EE28F8EF3400F9E8245DF582E932
:101D53003400F583D0E0F8E0586008EE2434F582CF
:101D6300EF801EEE2436F582EF3400F583E0F5F0C4
:101D7300EA84A8F0EE28F8EF3400F9E82438F58275
:101D8300E93400F583E0F9122619021C17C082C05A
:101D930083851882851983E0F8A3E0F9C3EA9CEBF5
:101DA3009D5012C3EC98ED994019C3EA98EB9950F2
:101DB3001279018010C3EA98EB9940F5C3EC98EDD2
:101DC3009950EE7900D083D08222EAC39CFAEB9D2E
:101DD300FB220000008521878522C622C0E0C0D0F7
:101DE300E8C0E0E9C0E0EAC0E0EBC0E0ECC0E0ED51
:101DF300C0E0C008C009C00AC00BC082C083C0F0E5
:101E0300759B00906182E0A2E64003021EBDE5914E
:101E1300A2E64003021EBD7591BF900737E064053B
:101E230070081210BA1210C680031210C075210078
:101E3300121120E9900738F07900121114120EF8EC
:101E43007A017B00900736E0F91204BA907803E038
:101E530064426003021F069008D4E014F06003029A
:101E63001F06C2AF121E6A00782AD0E0F618D0E02F
:101E7300F6E59F5407F970059081B080039081AC1B
:101E83007808121612E9C4C0E07829E65508F50867
:101E930008E65509F509740B7808121720D0E025D8
:101EA30008F8906270E0A2E740F8E8C333906272EA
:101EB300F0906270E0D2E0F08049E0A2E55024E5C2
:101EC30091A2E5501E7591DF900737E0640D701302
:101ED300900759E004F064287002E4F07A00E0F916
:101EE300121192906181E0A2E35009E5E9A2E35067
:101EF3000375E9F7A3E0A2E75009E591A2E75003D0
:101F030075917FD0F0D083D082D00BD00AD009D086
:101F130008D0E0FDD0E0FCD0E0FBD0E0FAD0E0F95F
:101F2300D0E0F8D0D0D0E032C0E0C0D0C082C083CF
:101F3300906183E0A2E05009E5BFA2E0500375BFC2
:101F4300FEE0A2E15009E5BFA2E1500375BFFDE049
:101F5300A2E25009E5BFA2E2500375BFFBE0A2E392
:101F63005009E5BFA2E3500375BFF7E0A2E45009AF
:101F7300E5BFA2E4500375BFEFE0A2E55009E5BF5A
:101F8300A2E5500375BFDFE0A2E65009E5BFA2E674
:101F9300500375BFBFD083D0828088C0E0C0D0E833
:101FA300C0E0E9C0E0EAC0E0EBC0E0ECC0E0EDC0B7
:101FB300E0C0F0E5A7A2E6500FE5A1A2E650095361
:101FC300A7BF75A1BF122003E5A7A2E5500CE5A1A9
:101FD300A2E5500653A7DF75A1DFE5A7A2E15009EB
:101FE300E5A1A2E1500375A1FDE5A7A2E2500CE52E
:101FF300A1A2E2500653A7FB75A1FBD0F0021F1468
:1020030074F8121805752101900737E064067015FE
:1020130012104E8A828B83A3A3A3A3A3A3E0FAA3E4
:10202300E0FB1210A8A2AFE433FED2AF90073DE06D
:10203300640170187A207B00900736E0F91205449A
:102043007A207B00900736E0F91204C0906182E0A9
:10205300D2E6F09008D3E0602185C622801690076F
:102063003CE064017008E5C654F84405F5C653BE68
:10207300FC121DD87401652160E4EEA2E092AF7FEB
:10208300010218B1008E238F24858228858327853A
:102093001882851983E0CEA3E0CF85288285278324
:1020A300EBC9EAC8EDCBECCA75F010C3E833C8E955
:1020B30033C9EA33CAEB33CBC3EA9EF526EB9FF56C
:1020C30025B35004AB25AA26EC33CCED33CDD5F0A4
:1020D300DAAE23AF242274EB12180574FA121742F6
:1020E3008A088B098C148D15900737E024F7C39465
:1020F30005500690820402223B12104E8A0A8B0B73
:10210300AE0AAF0BEE4F7003022238AC08AD09855F
:102113001882851983AA82AB831210D88E828F838B
:10212300A3A378081216129081D078081215EC85B3
:102133001882851983780C1216129081D0780C12AC
:1021430015EC7808790C1213AB501F7808790C1230
:1021530015C490817C78081213CB404785081085FD
:102163000911850A12850B138041850C10850D1109
:10217300850E12850F13781079081215C490817C8F
:1021830078101213CB501C751000751100751200D6
:102193007513017810790C1215C47810790812158B
:1021A3008B8008908204781012161274097810122A
:1021B300156C908180780812161278107908121421
:1021C3006A8E828F83A3A3A3A3A3A3E0F8A3E0F95A
:1021D3007AD07B031216B788088909E4F50AF50B50
:1021E3007810790812158B740412178DE0F8A3E0A8
:1021F300F97AD07B031216B7E8FA8A08E4F509786E
:102203001079081213AB5007781079081215C4908F
:102213000737E06408600AE064066005E06405705F
:102223001C90818878101213CB50129081987810EB
:1022330012159E800890822078101216128514823F
:10224300851583781012162174061217587F0E0213
:1022530018B174F71218051210EA9008D1E064015E
:102263007010906245E4F0A3F053F4F343FE0C5373
:1022730090F3121096E5C654804449F5C6E59E5482
:102283007F644970F8906185740FF09008CFE0F493
:102293007002A3E0604E9008D0E0600814601B1445
:1022A300602E80407508017509009008CFE078081A
:1022B30012172FE508F45280802A7508017509006A
:1022C3009008CFE0780812172FE508F45290801495
:1022D3007508017509009008CFE0780812172FE5FB
:1022E30008F452A079007F020218B174F71218059E
:1022F300E9FEEAFF74016E700C7A807B009007366A
:10230300E0F91204BA902628E493F46008E493F900
:10231300120EEC800953C680E59E547F70FA1210AA
:102323009C9008D1E064017003120F049008CFE081
:10233300F47002A3E0604B9008D0E0600814601AC8
:1023430014602C803D7508017509009008CFE07872
:102353000812172FE50842808028750801750900C7
:102363009008CFE0780812172FE508429080137584
:1023730008017509009008CFE0780812172FE508C7
:1023830042A01210EA12104E8A088B09A808A90964
:10239300E8496015E5E170FCE82414F582E93400AE
:1023A300F583E0F46003E0F5E174016F700A7A01EC
:1023B300900736E0F91205140222E974F1121805A8
:1023C3008A088B098C0A8D0B740F12178D780C12E7
:1023D30016129081D078081215EC9081D0780C12E7
:1023E30015EC7808790C1213AB50157808790C1298
:1023F30015C490817C78081213CB401579018013A2
:10240300780C79081215C490817C780C1213CB4098
:10241300EB79007F080218B174ED1218058A088B56
:10242300098C0A8D0B741312178D780C12161290E7
:1024330081D078081215EC9081D0780C1215EC78C5
:102443000C79081213AB40117808790C1215C4AA41
:1024530008AB09AC0AAD0B8022751000751100752D
:1024630012007513017810790C1215C478107908CD
:1024730012158BAA10AB11AC12AD137F0C0218B15D
:102483009081D078081216128A828B8378081215ED
:10249300FF7F040218B174F51218058C828D8378BE
:1024A300081216128A828B8378081215D8EA24043C
:1024B300F8EB3400F98C828D83A3A3A3A3E0FCA3E0
:1024C300E0FD88828983C3E09CF0A3E09DF08882CD
:1024D3008983C3E09420A3E0944E40229082147831
:1024E300081216128A828B8378081215B18A828B9E
:1024F30083A3A3A3A3E02420F0A3E0344EF08080C1
:1025030074F5121805E9FE900889E0FAA3E0FBEEE2
:10251300C333F8E433F974F128F582748039F58311
:10252300E02AF508A3E03BF50978081219AC90817D
:10253300A812163012208874021217588A088B09C1
:102543008C0A8D0B74107808121553AA08AB097FF7
:10255300040218B174F11218058A0C8B0D8C0E8DC0
:102563000F740F12178DE0FAA3E0FB741112178D8D
:10257300E0F508A3E0F509741312178DE0FEA3E05C
:10258300FF78081219ACEA2401F508EB3400F509C9
:10259300E4F50AF50B780C79081213EA9081A07818
:1025A30008121612780C79081213EAAA0CAB0DACB8
:1025B3000EAD0F12208874021217588B09EA4509D1
:1025C30060047A0180027A00EC2AFCED3400FDEC11
:1025D300F8EDF97A717B021216B788088909E4F5D8
:1025E3000AF50B8E828F837808121621ECF8EDF929
:1025F3007A717B021216B78A088B09740578081260
:10260300172F8E828F83A3A3A3A3E508F0A3E50965
:10261300F07F080218B1C082C083E9906000F0D057
:0426230083D08222BC
:10262800FFFFFFFFFFFFFFFFC082C083E9900CFEA2
:10263800F002284F74F7121799E9900655F07C8D2F
:102648007D067AFF7BFF120C2890065674FFF0A3D4
:10265800F0A3E4F0A3F07905120BB6900655E0F963
:10266800120ADE7A407B0C120E0202355D74F412F7
:1026780017998A088B09EB54806030900655E0F969
:102688001204A28A0A8B0BAE0AAF0BEE4F60138EB0
:10269800828F83E064B07003120BC8EEFAEFFB126E
:1026A8000490AA08E5096480FB80047A007B000294
:1026B800281E74F212179974FC121742EAFEEBFFF7
:1026C800741212178D123A44EE4F700302275D748C
:1026D8000212178DEEF0A3EF122A59ECF0A3ED12B7
:1026E8002A59AA82AB83120AD8E9F50A706AE50862
:1026F800450960648E828F83123A2AEE4F60567ABB
:10270800067B001204FC8A0C8B0DA80CA90DE84965
:102718007005750A13804188828983E412276AEE5E
:10272800F0A3EF123A55E508F0A3E509F090065B2F
:102738001227F190065B7005123507801B1234F5DD
:102748008003EAFCEBFD8C828D831227F170F38CF9
:10275800828D8380E3750A02A90A7404121758024D
:102768003C44F0A31239FBA32274F2121799890A88
:10277800E975F017A4FEAFF090065AE4F0900658F9
:102788001227F1600A120502900658E4F0A3F0EE51
:10279800FAEFFB1204FC8A088B09EA4509602FEE60
:1027A800FCEFFD790012047E900658E508F0A3E5D9
:1027B80009F07B0080081227DBE4F0A3F00BEBC3E1
:1027C800950A40F2E50A90065AF0790080027913DA
:1027D800023C44EB75F017A4F8A9F0900658E028DD
:1027E800FAA3E0398A82F58322123199EA4B2274DE
:1027F800F41217997900EAA2E0501B75085E750972
:102808008178081219AC7C047D007A007B0D120BCC
:10281800B074021217587F0402186BC082C08390EC
:10282800065B122856601C88828983A3A3E06A701D
:1028380003A3E06B8882898370E8A3A3A3A3123162
:102848009580047A007B00D083D082020135123D46
:102858002AE8492274EE12179974FC121742EAFE0C
:10286800EBFF851882851983E4F0A3F0EE240212A9
:1028780034E7EE2405123A02EE2404F50EEF122E88
:102888000EE024FE603924FC604624FE605224FEDB
:10289800605E24FE700302296F24FE70030229D3B0
:1028A80024FE70030229E224FE70030229F124FCAD
:1028B8007003022A0024FE7003022A0F022A4C9099
:1028C80006747417F0A3E4122A61120856022A4CFF
:1028D800851882851983AC82AD83120BCE022A1C1F
:1028E800851882851983AC82AD83120BD4022A1C09
:1028F800850C08850D09740212178DAC82AD83858D
:102908000882850983123195120AFC8A0C8B0DAC5A
:102918000CAD0DEC4D603BE4F50CF50D780C12197F
:10292800AC750C74750D06780C1219AC750C7575B0
:102938000D06780C1219AC740812178D1219C312EF
:102948003D4E121758E9F50C700B12318B12086EB8
:10295800800F750C01850882850983122A4F12356C
:1029680007850C08022A1F740212178DAC82AD83EA
:10297800850C82850D83122F60603C850C82850D45
:1029880083A3A31219C37510747511067810121950
:10299800AC75107575110678101219AC74081217F9
:1029A8008D1219C3123D4E121758E9F509700B1212
:1029B800318B120874800F750901850C82850D838F
:1029C800122A4F123507850908804C851882851907
:1029D80083AC82AD83120BDA803A8518828519831D
:1029E800AC82AD83120BE0802B851882851983ACED
:1029F80082AD83120BE6801C851882851983AC8210
:102A0800AD83120BEC800D851882851983AC82ADDD
:102A180083120BF2E9F508E50860298E828F83A3FB
:102A2800E06414601F850E82850F83E0900674129F
:102A38002A59123D26900675123507E508A3122A71
:102A4800611208500233F6123D2A851882851983CF
:102A580022F085188285198322F07C747D06850A08
:102A680082850B831231992274EE12179974FC1225
:102A780017428A0A8B0B8C0E8D0FEA2405F508EB9A
:102A88003400F5097C157D0079007A747B06120400
:102A98007EE5082402F50CE509123A0585188285B9
:102AA800198385821085831178101219AC850882E4
:102AB800850983A3A3A3A3122F571219ACE50824F1
:102AC80005F510E5093400F51178101219AC850CDC
:102AD80082850D831232AC120AF674061217588AD0
:102AE800108B11AE10AF11E50A2402F50AE50B129E
:102AF80034EAEE4F7003022C2E8017740212178DE1
:102B080012319588828983EAF0A3EBF0900674E08D
:102B180004F0900674E0C394054003022C2EE4F5FB
:102B280010F51178101219AC75105D751106781032
:102B38001219AC75105E75110678101219AC74066E
:102B480012178D1219C37910EEFCEFFD123D5012C9
:102B58001758E9705E850882850983A3A3A3A3A3F8
:102B6800A3A3E0F890065DE0687048122F57121989
:102B7800AC7C5E7D06E5082408FAE5093400FB1202
:102B880004787402121758E960298E828F83A3A3F0
:102B9800A3A3123195900674E0F510740278101210
:102BA800172F74752510F58274063511F583EAF030
:102BB800A3EBF0740212178D8582108583117810AB
:102BC8001219AC740212178D1219C3850C82850D67
:102BD800831231BB1217588A108B11AE10AF1190A7
:102BE8000674E0F5107511007402781012172F742E
:102BF800742510F874063511F988828983A3122781
:102C0800F17003022AFAE82403080808E93400F9F5
:102C1800EE4F6003022B038882898374FFF0A3F0D0
:102C2800900674E004F0900674E0600A12318B128A
:102C380008627900800B8508828509831234FE7941
:102C48000A0233F674EA12179974FE1217428C12AC
:102C58008D13EA2405F50CEB123D38123A2E75084F
:102C680000750900EA2402F510EB3400F511851807
:102C78008285198385820A85830B780A1219AC85A7
:102C88000C82850D83A3A3A3A3122E241219ACE5ED
:102C98000C2405F50AE50D1234EA780A1219AC85F8
:102CA8000C82850D83122E28120AF6740612175804
:102CB8008A0A8B0BEA450B7003022DC9EA2404F536
:102CC8000EEB122E0E123A2E8A828B83A3A3A3E058
:102CD800F985108285118312319F6003022DC9E4A2
:102CE800F514F51578141219AC75145D7515067878
:102CF800141219AC75145E75150678141219AC7493
:102D08000612178D1219C37913AC0AAD0B85108200
:102D1800851183123D56121758E9F5096003022DF3
:102D2800C990065DE0F8E5087009E0240290067590
:102D3800F08014900675E0FCE82402FAE43400FB05
:102D4800EA6C7001EB707E850882AA82122F4E947D
:102D580014122F46506B850E82850F83E0C0E074F5
:102D6800762A122E05D0E0F00508850E82850F839D
:102D7800A3E0C0E085080A7476250A122E05D0E083
:102D8800F0050890065D122E241219AC7C5E7D06B3
:102D980085080A7476250A122E1812175890065DAF
:102DA800E02508F50874FF6E700374FF6F6012EE7B
:102DB80024010EEF3400FFE508C394145003022CDD
:102DC80076E50860131231A98510828511831231C6
:102DD8009512086879008014E509700375090A8559
:102DE8001282851383EEF0A3EFF0A909740212177B
:102DF800587F0E02186B85080C7476250CF58274C2
:102E0800063400F583223400F50F850E82F58322FF
:102E1800FA74063400FB120466740222123A642221
:102E2800A3A3122E2E221234F5FDEEFAEFFB227424
:102E3800EE12179974FE1217428C0E8D0FEA2405B4
:102E4800F50CEB123A05750B00900674E4F0F50AE0
:102E5800EA2402F508EB3400F5098044900674E092
:102E6800FA90065DE0F8122F4E9417122F46400D87
:102E7800900674E0F87416C39890065DF0122F5708
:102E88001219AC7C5E7D0674752AFA7406122E1B24
:102E980012175890065DE0F8900674E028F0050ACD
:102EA800E50C2416F582E50D122E09E0F8E50AC3B3
:102EB800985074900674E0C39416506BE50AC333B7
:102EC800F8E433F9E50C28FEE50D39FF851882850D
:102ED8001983AC82AD838E828F83122F6070087540
:102EE8000B011234FA8050E4F510F511781012191C
:102EF800AC75105D75110678101219AC75105E75F9
:102F0800110678101219AC740612178D1219C379AC
:102F180016850882850983123D56121758E9F50B64
:102F28007003022E6480BB7C747D06850882850947
:102F38008312319512087AA90B74020233F8E994C6
:102F480000C365D03322EA28F8E43400F9E822E027
:102F5800F5107511007810221233ED8A108B11AC20
:102F680010AD11EC4D2274EA12179974FC12174235
:102F78008A0C8B0D8C128D13EA2405F50AEB12349A
:102F8800EA750800750900E50A2402F510E50B3416
:102F980000F511740212178D85820E85830F780E45
:102FA8001219AC850A82850B83A3A3A3A3123A0A3C
:102FB8001219ACE50A2405F50EE50B3400F50F7877
:102FC8000E1219AC8510828511831234F012318FDC
:102FD800120AF674061217588A0E8B0FAE0EAF0F30
:102FE800E50C2402F50EE50D3400F50F80388882D3
:102FF800898374FFF00508122DFE74FFF005089010
:10300800065DE0F50C750D00780C1219AC7C5E7D40
:103018000685080C7476250C122E1812175890067F
:103028005DE02508F508EE4F60278E828F83A3A305
:10303800A3E0F9850E82850F8312319FEE240412D6
:103048003A02E96027850C82850D83123181123599
:1030580007E50870030231671231A9850E82850FD2
:1030680083123195120880790002317CE4F514F559
:103078001578141219AC75145D75150678141219A3
:10308800AC75145E75150678141219AC740812170D
:103098008D1219C37911EEFCEFFD850E82850F8321
:1030A800123D56121758E9F509709A850882AA82C6
:1030B800EA90065D7009E02404900675F08025E02A
:1030C800F8900675E0F514E82404FCE43400FDECFF
:1030D80065147001ED7081122F4E9412122F464024
:1030E80003023060850C82850D83E0C0E074762A87
:1030F800122E05D0E0F00508850C82850D83A3E02B
:10310800C0E0122DFED0E01231C485820C85830DFB
:10311800780C1219AC740412178D1219C385108219
:103128008511831231BB1217588A0C8B0DAE0CAF68
:103138000D85080C7476250CF874063400F9EE4FEA
:103148007003022FF6851882851983E088828983A7
:103158001231C4A3E0C0E0122DFED0E0023004E535
:1031680009700375090A850A82850B831231811259
:103178003507A9097404022DF6123D2A85128285A5
:103188001383227C747D06850A82850B831231990C
:1031980022E0FAA3E0FB22123199120AE4E9F509C8
:1031A80022900675E0F5F0E50884900674F07C74CA
:1031B8007D0622122E2E120B02740422F0050885B9
:1031C80018828519832274EC12179974FE1217421B
:1031D8008A088B098C0E8D0FEA2405FEEB3400FF5C
:1031E8001233D7EE2418123A02EA450B7003023262
:1031F8007A1233C0502912329F8A108B11EA451176
:10320800606B7912AC0AAD0B85088285098312318F
:1032180095851082851183121797E9F50A7058E48D
:10322800F50AF50B780A1219AC8E828F83A3A3E0F6
:10323800F50A780A1219ACEE24031234E7780A1258
:1032480019AC8E828F831232AC120C1674061217C8
:1032580058E9F50A7021850C82850D83E0701F8579
:1032680008828509831231951208868011750A0E25
:103278008009750A018004E50A60031234FA850C96
:1032880082850D83E0600479008002A90A74021225
:1032980017587F0C02186B8518828519831231998B
:1032A800120C04221234F5FD850882850983123137
:1032B800992274EE12179974FE1217428A088B0924
:1032C8008C0C8D0DEA2405FEEB3400FF750E001200
:1032D80033D7EA450B700302339E1233C0502C12C9
:1032E800329F8A0E8B0FEA450F604A7912AC0AADFD
:1032F8000B850882850983123195850E82850F8397
:10330800121797E9F50E60030233A1850882850933
:10331800831235DCAA0AFB1233B270147AFF7BFFE2
:103328001233B2606C88828983E50AF0A3E50BF05A
:10333800750A008007750E0E805F050A90065AE030
:10334800FAE50AC39A504AE50A75F017A4FAABF0F1
:1033580088828983A3A3E02AFAA3E03BFB8A828BB5
:10336800831234F0EC4D70D2750A17750B00780A89
:103378001219ACEEFCEFFD1204667402121758EE37
:10338800FCEFFD85088285098312319512088C802F
:1033980014750E098003750E01123D22850C828575
:1033A8000D83123507A90E022F41120BF88A108BD4
:1033B80011A810A911E84922E5082402F508E50931
:1033C8003400F5098A828B83A3A3A3E0A2E52285B2
:1033D8001882851983AC82AD838E828F831233ED78
:1033E8008A0A8B0B22E0FAA3E0FB120AFC2274047F
:1033F8001217587F0A02186B74EC1217998C108DEB
:1034080011EA2405F50CEB123A05750F00EA2402BF
:10341800F50AEB1234EA850A82F583123195123DDA
:10342800DC70030234DC750E008071850C82850D1A
:1034380083E06401704F8E828F83A3A31219C38E19
:10344800828F83A3A3A3A3E0F51275130078121249
:1034580019ACEE2405F512EF3400F51378121219A1
:10346800AC12318F120C167406121758E9F50F605A
:1034780014850C82850D83E4F0123D228510828527
:1034880011831235077C177D007900EEFAEFFB12E5
:10349800047E8E828F83E4F0A3F0050E90065AE036
:1034A800F8E50EC398501EE50E75F017A4F8A9F0BC
:1034B800850882850983A3A3123D421234F0EC4D9E
:1034C800600302343385088285098374FFF0A3F012
:1034D800E50F700612318F120892A90F02329AF581
:1034E8000AEF3400F50B22A31234F5FD22E0FCA309
:1034F800E0228E828F83123D2A850E82850F83E813
:10350800F0A3E9F022C082C083900656E06A7003F7
:10351800A3E06B70067A567B0680047A007B000273
:10352800284F74F71217997F00EF75F003A4F8A9D4
:10353800F0EC28F8ED39F988828983E06A7003A3F2
:10354800E06B7006E8FAE9FB800B0FEFC3940240CA
:10355800D87A007B007F0102186B74F61217991253
:103568003B1370067A007B008007A3A3A3A3123144
:1035780095023BD474F2121799E9FE740E12178D56
:103588001235DC741012178D123A448C828D83E048
:103598006402703BA3123D2688828983E0F50CA360
:1035A800E0F9A80C74026870037429697021750C1D
:1035B80002750D00780C1219AC78081219AC780A4B
:1035C8001219ACEEF9120C3A7406121758800279E7
:1035D80001023C44E0F50AA3E0F50B2274E8121757
:1035E8009974FB121742E9851882851983F08A16A7
:1035F8008B178C0E8D0F741F12178D123A4474217D
:1036080012178D1235DC742312178D123A2E75108D
:10361800008C828D83A3A3A3E0A2E4502A741D1218
:10362800178D1232A58A828B83E582458370030247
:1036380036F0790AAC0EAD0FAA16AB17121797E938
:10364800F51060030236F3850E82850F83E064026D
:1036580060030239A9A3123D26850882850983A340
:10366800858212858313E50E2406F50CE50F123AC0
:103678000588828983E0FAA3E0F9EA2400F514E4D6
:1036880039F5157814121A36010000280128B836C1
:10369800070002288F370328FF360029B938012987
:1036A800E138022988380329B93804294A39A9395F
:1036B800EE4F703E850C82850D83123A1FFAE9FBA6
:1036C8008A828B83E0850A82850B83123A5B121902
:1036D800AC8A828B83A31234F5FDAA08AB091204C5
:1036E800667402121758800375100EA9107405022B
:1036F8003D3075100B80F4EE4F70F7850A82850B0C
:10370800837401F0123A34850882850983F07C00BD
:103718007D00850E82850F83A3A3A3A3E02401FA6D
:10372800A3E03400FB120AFCEA4B60418A828B83D7
:10373800E02402F8850A82850B83E028F0EA240455
:10374800F8EB3400F988828983E085128285138337
:10375800123A6D123A5B1219AC8A828B831234EFDB
:10376800E5082403FAE5093400FB0236E6850A82F7
:10377800850B83E02404F07C047D007900AA12AB59
:103788001312047E0236F3EE4F60030236FA123A41
:1037980034FEA3E0FF850A82850B837404F0EE856E
:1037A8000882850983F0EF851282851383F07403FC
:1037B80012178DAC82AD83EEFAEFFB123B0170035A
:1037C8000238658A828B83A3A3123A2A74011217DE
:1037D8008D85820E85830F780E1219AC7405121729
:1037E8008D1219C37CFF7DFF120B02740412175847
:1037F8008B0FEA450F7033850C82850D83123A0AC8
:103808001219AC850C82850D83A31219C37C027D25
:10381800007A3C7B8212092E7404121758E9700A48
:10382800740112178D74FFF0A3F08E828F83E06409
:10383800027034750C02750D00780C1219AC8E826A
:103848008F831234EFE5082404FAE509122E1B12BF
:103858001758850A82850B83E024028009740112B7
:10386800178DEEF0A3EFF0740112178D123A1BF0CA
:10387800740112178DA3123A13A3A3A3F00236F30F
:10388800EE4F60030236FA850C82850D831234F000
:10389800AA16AB17120C2E850A82850B837402F0C8
:1038A800EA850882850983F0851282851383EB8077
:1038B800CBEE4F60030236FA123A34F8A3E0F985EA
:1038C8000A82850B837402F0E8850882850983F0F3
:1038D800E985128285138380A3850C82850D831266
:1038E8003195120460EAFC8C82A882C39EE49F4052
:1038F8004BE86E7001EF70047C00801F851882858C
:103908001983E0FAEE2AFAEF3400FBC3EA98EB9445
:10391800005003E08004EECCC39CFCEC850A828551
:103928000B83F08C0A750B00780A1219AC850C828F
:10393800850D83E02EFCA3E03F0236E175100702F7
:1039480036F3EE4F60030236FA850C82850D83123A
:103958003D26850A82850B837407F0888289831245
:103968003A131239FBE0851282851383F0E82402AA
:10397800FAE93400FB8A828B83123A13123A4C120A
:103988003A1BA3123A55123A24F0E82405F8E93410
:1039980000F988828983123A24A3123A6DA3023867
:1039A80081741D12178D123B0C70030236F0123D04
:1039B80026880C890DE8450D70030236F08E108FAD
:1039C8001178101219AC780A1219AC78081219ACCF
:1039D800740612178DE0F9AC0EAD0FAA16AB178559
:1039E8000C82850D831217977406121758E9F51083
:1039F8000236F3F088828983A322F50CEF3400F5B0
:103A08000D22E0F50E750F00780E22E085088285FC
:103A1800098322123A7422123D2AE822123A74A328
:103A2800A322A3A3A3A3E0FEA3E0FF22850C828523
:103A38000D83E0F8A3E0F5838882E022E0F508A38F
:103A4800E0F50922A3A3F08A828B83A32212276CB4
:103A5800A3A322F08A828B83123A6422E0F50A75C6
:103A68000B00780A221239FB123A7422E085088288
:103A7800850983A3A32274EE12179974FE121742C4
:103A88008A0A8B0BECFAEDFB741412178DE0F51013
:103A9800A3E0F511741612178DE0FE741812178D35
:103AA800E0F50EA3E0F50F851882851983AC82AD89
:103AB80083123B01603E851882851983123B0C6096
:103AC8002FA3A3123A44E50845096024780E121979
:103AD800AC78101219ACEEF9AC0CAD0DAA0AAB0B10
:103AE800850882850983121797740412175880066F
:103AF800790E80027901022F41120AFC8A0C8B0D83
:103B0800EA450D22123199123B1322120BC28A8206
:103B18008B83E58245832274F612179974FE121777
:103B280042740C12178D123A1F851882851983F07A
:103B3800740112178DE9F0E4F508F50978081219EF
:103B4800AC75080278081219AC740412178D8582B6
:103B58000885830978081219AC120C167406121716
:103B6800587402121758806474F7121799EAFEEB1A
:103B7800FF89087C8D7D06120C2EEA5402600BA981
:103B880008EEFAEFFB120AF08002790102355D7443
:103B9800F612179974FF6A700374FF6B701C7B0030
:103BA800EB75F003A4F8A9F0EC28F8ED39F9123B0D
:103BB800D90BEBC39402501480E6120BFE8A088BD3
:103BC80009A808A909E8496003123BD97F0202182D
:103BD8006B8882898374FF12276AE4F02274F612D4
:103BE8001799120BFE8A828B83E58245836006A3B0
:103BF800A3E0FA80027A007B0080D174F212179950
:103C08008A088B09ECFEEDFF740E12178DE0F50A99
:103C1800123C49701CEEFCEFFD7AFF7BFF123C4919
:103C280070047911801688828983E508F0A3E50974
:103C3800F088828983A3A3E50AF079007F06021839
:103C48006B120BFE8A0C8B0DA80CA90DE849227487
:103C5800EE121799EAFEEBFF8C088D09890C741295
:103C680012178D123D26741412178D1234F0741623
:103C780012178D123195750D00EC4D6003023D1A37
:103C88007402650C6003023D15888289831234F53D
:103C9800F9EC2400F50EE439F50FEAF4F8EBF4F941
:103CA800EC58F8E50F59F9E849705DE5082406F87D
:103CB800E5093400F9880A890B8882F583122E2ACF
:103CC800120C2E8A108B11E50E65107004E50F6535
:103CD800116042780E1219AC850A82850B83122E68
:103CE8002A120C347402121758E9F50D7027780E51
:103CF8001219AC850882850983A3A3122E28120CF9
:103D0800467402121758800D750D808008750D0DC8
:103D18008003750D0BA90D0233FB8E828F83123D34
:103D28002A22E0F8A3E0F9221217587F1002186B34
:103D38003400F50D850C82F58322E028FEA3E039D6
:103D4800FF8E828F83227916850A82850B83123132
:103D580099120C1074082274F2121799EAFEEBFFFC
:103D6800890B7401650B600E7402650B7063790131
:103D7800120E20E9705BEEFAEFFB123DDC6047752E
:103D88000A00800B7C177D00790012047E050A90DA
:103D9800065AE0F8E50AC3985021E50A75F017A419
:103DA800F8A9F0850882850983A3A3E028FAA3E08F
:103DB80039FB8A828B8312285670C9850882850947
:103DC8008374FFF0A3F07C8D7D06EEFAEFFB120CF6
:103DD80028023C44120BF88A088B09EA4509227428
:103DE800F21217998A088B09ECFEEDFF740E121770
:103DF8008D1235DC900CFEE0F4603D7A097B0012F0
:103E0800048AEA4B60328A828B8374B1F0A3E4128D
:103E18003A4EA3123A4CA3E508F0A3E509123E4333
:103E2800EEF0A3EF123E43A3A3E50AF0A3E50BF0DF
:103E3800900CFEE0F9120496023C44F08A828B83CF
:103E4800A3A3A3A3A322C082C0839061907404F0AB
:103E5800A37448F0A37402F09061807440F09061FC
:103E6800BC7403F09061877419F0906265741BF05C
:103E780090619C740DF090619A7433F0A37455F0BE
:103E88009061A0743AF09008D1E064017009C29181
:103E980090073B7467800590073B7461F090262E6D
:103EA800E493906186F0902628E493F46027E493E5
:103EB800540FF8906185E0686012E5C65480444963
:103EC800F5C6E59E547F644970F8E8F053C680E56E
:103ED8009E547F70FA7905121174024090C082C016
:103EE80083E9540FF9906185E0696012E5C6548052
:103EF8004449F5C6E59E547F644970F8E9F053C615
:103F080080E59E547F70FA024090C082C083E5A885
:103F1800F853A87E906181E4F0A3F0A3F0C2BA53ED
:103F28009AFEC289759B00C2C275E9007591007539
:103F3800BF0075A91175B905906181F0A374C0F02F
:103F4800A3E4F0D2BA439A0174805842A802409080
:103F5800C082C08374F8121742900739E0F8A3E0D2
:103F6800F9E8497003024086900739E0544060231D
:103F78007908851882851983AA82AB83120FDC859C
:103F88001882851983AA82AB83120CB2900739E094
:103F980054BFF0E054806010790C7AF57B08120F5A
:103FA800DC900739E0547FF0E0A2E0503190619A4C
:103FB8007433F0A37455F09061A0743AF09008D16E
:103FC800E064017009C29190073B7467800590070F
:103FD8003B7461F0120CB8900739E054FEF0E054DD
:103FE80002603190619A743FF0A3745AF09061A016
:103FF800747FF09008D1E064017009D29190073B7A
:104008007471800590073B746AF0120CB8900739F8
:10401800E054FDF0E05404601390262CE493906182
:1040280086F0120CBE900739E054FBF0E0540860AB
:104038001390262DE493906186F0120CBE900739F8
:10404800E054F7F0E05410601390262EE49390614A
:1040580086F0120CBE900739E054EFF0E05420606F
:104068000A120CBE900739E054DFF0A3E054016057
:104078000D120F04120CC490073AE054FEF07408B5
:104088001217588003F0A3F0D083D0820201357450
:10409800EC12179974F4121742851882851983ACAB
:1040A80082AD837583817582C87404121655902673
:1040B8002C93F46003024224907808E0C3940250E1
:1040C80003024204740412178DAC82AD8375838198
:1040D80075824A7408121655851882851983858257
:1040E80012858313740412178DAC82AD83750EFF8D
:1040F800750FFF7FFF7E00750C48750D788015746D
:10410800086E700302419774096E70030241977438
:104118000A6E607B850C82850D8378081216128CD6
:10412800828D83A909E50AC9F888107418780812DD
:104138001553E5104508F8C3E098A3E099850C826B
:10414800850D83780812161240188C828D83741896
:104158007808121553E5104508F8E0C398F8A3E06D
:10416800801C74187808121553E5104508FAE9FB05
:104178008C828D83E0F8A3E0F9EAC398F8EB99F90B
:10418800C3E8950EE9950F5006880E890FEEFF0ECD
:10419800E50C2404F50CE50D3400F50DEEC394137D
:1041A800500302410774FF650E700474FF650F60C9
:1041B800238F087402780812172F74482508F5828F
:1041C80074783509F58378081216128512828513DA
:1041D80083E508F0EC24020C0CED3400FD85128216
:1041E800851383A3858212858313740C12178DE5BA
:1041F800826C7003E5836D60030240F575080175F4
:10420800090078081219AC740212178DAC82AD83BC
:104218007A8B7B091207367402121758740C12171E
:10422800587F0C02186BC082C0839061AE7468F02E
:10423800A3746AF090624574FBF0A304F053F4FD94
:1042480043FE029008D17401F09061A0E0643A90B6
:10425800619A70237433F0A37455F09061A0743A96
:10426800F0740164017009C29190073B746780285B
:1042780090073B74618021743FF0A3745AF09061F9
:10428800A0747FF0740164017009D29190073B74A7
:1042980071800590073B746A02408F7F0402186B97
:1042A800C082C083900883E06401700A900888E0A7
:1042B8006004790C80027900024090C082C0837546
:1042C800E1F1900886E060551460081460591460A4
:1042D800518059120F1690087CE0F97A7D7B0812FC
:1042E80010F69081C012163012112C9082101216FE
:1042F80030121102900887E0F912110E790112119B
:104308006890087AE02416F8A3E03400F9888289D6
:1043180083742EF0A3740FF07900024090120F1CE2
:1043280080B4120F2280AF120F2880AA791280EA77
:1043380074F412179975D90D90086BE0A2E0E43374
:104348001313F890087CE0C4333354C0484401F593
:10435800D9787A790888828983A3A3A3E0F5D988D4
:10436800828983A3A882A983E864807003E964082A
:1043780070E3786B790888828983A3E0F5D988820D
:104388008983A3A882A983E864717003E96408702B
:10439800E575E19590086BE0F97A6C7B081210FCE2
:1043A800900D2074C2F0A3740EF0A37424F0A374CB
:1043B80010F0A37424F0A37410F0A37424F0A37471
:1043C80010F0A374C8F0A3740EF0A37424F0A374BF
:1043D80010F0A374E0F0A3740EF0900D2E7424F086
:1043E800A37410F0A37424F0A37410F0A37424F041
:1043F800A37410F0A37424F0A37410F0A37424F031
:10440800A37410F0A37424F0A37410F090087AE059
:10441800F8A3E0F5838882A3A37808121612908186
:10442800BC780812159E9081D078081215EC900877
:104438007AE0240EF8A3E03400F9888289837808AA
:1044480012162190087AE02414F8A3E03400F988C1
:104458008289837413F09007377402F00242A3C074
:1044680082C08390088CE02407F5D990087CE0C4CA
:10447800333354C0F5D9787A790888828983A3A31D
:10448800A3E0F5D988828983A3A882A983E86480F8
:104498007003E9640870E390088CE0601F787A790B
:1044A80008FAE82413F582E93400F583E0F5D988A1
:1044B800828983A3A882A9831AEA70E69008ACE0EF
:1044C8002407F5D990087CE0C4333354C04404F57C
:1044D800D9787A790888828983A3A3A3E0F5D98853
:1044E800828983A3A882A983E864807003E96408A9
:1044F80070E39008ACE0601F787A7908FAE8243312
:10450800F582E93400F583E0F5D988828983A3A888
:1045180082A9831AEA70E675E195900D2074CEF0B1
:10452800A3740EF0A37424F0A37410F0A37424F001
:10453800A37410F0A37424F0A37410F0A374C8F04B
:10454800A3740EF0A37424F0A37410F0A374E0F025
:10455800A3740EF0900D2E7424F0A37410F0A374BD
:1045680024F0A37410F0A37424F0A37410F0A374BF
:1045780024F0A37410F0A37424F0A37410F0A374AF
:1045880024F0A37410F090821412163090087AE088
:10459800240EF8A3E03400F98882898312163C902F
:1045A800087AE02414F8A3E03400F9888289837437
:1045B80012F0900737740102408FC082C0839008C0
:1045C8008CE02407F5D990087CE0C4333354C04408
:1045D80002F5D9787A790888828983A3A3A3E0F5BC
:1045E800D988828983A3A882A983E864807003E9B3
:1045F800640870E390088CE0601F787A7908FAE81C
:104608002413F582E93400F583E0F5D9888289839B
:10461800A3A882A9831AEA70E675E195900D207423
:10462800DAF0A3740EF0A374DAF0A3740EF0A37496
:10463800DAF0A3740EF0A374DAF0A3740EF0A37486
:10464800DAF0A3740EF0A374DAF0A3740EF0A37476
:10465800E0F0A3740EF0900D2E7424F0A37410F003
:10466800A37424F0A37410F0A37424F0A37410F0BE
:10467800A37424F0A37410F0A37424F0A37410F0AE
:10468800A37424F0A37410F09082141216309008CA
:104698007AE0240EF8A3E03400F9888289831216A0
:1046A8003C90087AE02414F8A3E03400F988828961
:1046B800837414F0900737740402408FC082C0835B
:1046C80090088CE02407F5D990087CE0C433335473
:1046D800C04406F5D9787A790888828983A3A3A388
:1046E800E0F5D988828983A3A882A983E8648070C9
:1046F80003E9640870E390088CE0601F787A790811
:10470800FAE82413F582E93400F583E0F5D98882C4
:104718008983A3A882A9831AEA70E69008ACE024EA
:1047280007F5D990087CE0C4333354C04404F5D964
:10473800787A790888828983A3A3A3E0F5D9888247
:104748008983A3A882A983E864807003E964087058
:10475800E39008ACE0601F787A7908FAE82433F52A
:1047680082E93400F583E0F5D988828983A3A88299
:10477800A9831AEA70E675E195900D2074D4F0A328
:10478800740EF0A37424F0A37410F0A37424F0A39F
:104798007410F0A37424F0A37410F0A37424F0A38D
:1047A8007410F0A37424F0A37410F0A374E0F0A3C1
:1047B800740EF0900D2E7424F0A37410F0A37424DA
:1047C800F0A37410F0A37424F0A37410F0A374245D
:1047D800F0A37410F0A37424F0A37410F0A374244D
:1047E800F0A37410F090821412163090087AE02426
:1047F8000EF8A3E03400F98882898312163C9008E9
:104808007AE02414F8A3E03400F9888289837415C7
:10481800F0900737740302408FC082C08390087AF3
:10482800E0F8A3E0F5838882A3A3A3A3A3A3E402EB
:10483800408D74F7121799900765E0F875F004A495
:10484800C8AAF02AF9746728F8740739F9E8240522
:10485800FAE93400FB8A828B83E0FCA3E0FD8882BE
:104868008983A3A3A3A3A3A3A3A3A3ECF0A3EDF01D
:1048780088828983A3A3A3A3A3A3A3E024FFF8A307
:10488800E034FFF98A828B83E8F0A3E9024ADF74F7
:10489800F7121799EAFEEBFF9061D0E06003024936
:1048A8007475D90E75D90375D904EE248CF582EF89
:1048B8003400F583E5822408F8E5833400F9E0F54F
:1048C800D9A3E865827003E9658370F2EE2484F564
:1048D80082EF3400F583E5822404F8E5833400F997
:1048E800E0F5D9A3E865827003E9658370F275E1A4
:1048F800957908EE248CFAEF3400FB120FD0790476
:10490800EE2484FAEF3400FB120FD07C00EEF8EFAF
:10491800F9ECFAC3E49AFA95E0FBEE2AFAEF3BFBCE
:10492800EA248BF582EB3400F583E0C0E0E824ABA1
:10493800F582E93400F583D0E0F00C88828983A3FE
:10494800A882A983ECC3940840C7EE2470F582EFCF
:104958003400F583E0F8A3E0F9EE2472F582EF3431
:1049680000F583E8F0A3E9F0790180027900024AB2
:10497800E0C082C08375D90275D90375D90575E180
:1049880095EA2470F582EB3400F583E0F8A3E0F9AA
:10499800EA2472F582EB3400F583E8F0A3E9F079B4
:1049A8000102409074F6121799EAFEEBFF9008D5C1
:1049B8007406F07508D575090878081219AC7C01D9
:1049C8007903121018740212175875D90675D9038D
:1049D8007582D5758308E0F5D9A3E58264DA700499
:1049E800E583640870F075E195900737E064087016
:1049F8001EEE2470F582EF3400F583E0F8A3E0F9A9
:104A0800EE2472F582EF3400F583E8F0A3E9F0793B
:104A180001024BAC74F6121799EAFEEBFF9061D0D5
:104A2800E0706678019008D5740BF0900737E06461
:104A38000770197508D575090878081219AC7C0132
:104A4800790312101874021217587805740128F5A2
:104A5800D975D9037582D5758308E8FAE0F5D9A325
:104A68001AEA70F875E195EE2470F582EF3400F5D6
:104A780083E0F8A3E0F9EE2472F582EF3400F583C1
:104A8800E8F0A3E9F0790180027900024BAC74F7F1
:104A9800121799EAFEEBFF75D90375D90375D90D7D
:104AA800EE24DEF582EF3400F583E0F5D975E19563
:104AB8007904121132EE2470F582EF3400F583E0A8
:104AC800F8A3E0F9EE2472F582EF3400F583E8F0FC
:104AD800A3E9F079018001F07F0102186B74F612E6
:104AE8001799EAFEEBFF9061D0E0F87480C398FA5A
:104AF800EE2483F582EF3400F583E06004780480C7
:104B0800027800E8240BF8EAC3985003024BAA7D08
:104B1800099008D5EDF0EE24E3F8EF3400F97AD6E1
:104B28007B087C0888828983E08A828B83F088826C
:104B38008983A3A882A9838A828B83A3AA82AB8351
:104B48001CEC70E0EE2483F582EF3400F583E0601E
:104B58001D7508D575090878081219AC7C09790300
:104B6800EEFAEFFB12101874021217587D0D74013B
:104B78002DF5D975D9037582D57583088D08E0F5AB
:104B8800D9A31508E50870F675E195790412113274
:104B9800EE241DF582EF3400F583E4F0A3F07901EB
:104BA800800279007F0202186B74F6121799EAFEE8
:104BB800EBFF9061D0E0F87480C398FAEE2483F597
:104BC80082EF3400F583E06004780480027800E81E
:104BD8002408F8EAC3985003024CB17D069008D522
:104BE800740CF0900754E09008D6F07A557B07785B
:104BF800D779087C028A828B83E088828983F08A4D
:104C0800828B83A3AA82AB8388828983A3A882A983
:104C1800831CEC70E07A577B077C028A828B83E0E6
:104C280088828983F08A828B83A3AA82AB83888255
:104C38008983A3A882A9831CEC70E0EE2483F58203
:104C4800EF3400F583E0601D7508D575090878080C
:104C58001219AC7C067903EEFAEFFB1210187402F5
:104C68001217587D0A74012DF5D975D9037582D5A7
:104C78007583088D08E0F5D9A31508E50870F67561
:104C8800E1957904121132EE2470F582EF3400F5C3
:104C980083E0F8A3E0F9EE2472F582EF3400F5839F
:104CA800E8F0A3E9F0790180027900024BAC74F6D0
:104CB800121799EAFEEBFF9061D0E0F87480C39870
:104CC800FAEE2483F582EF3400F583E0600478047B
:104CD80080027800E82404F8EAC3985003024D9053
:104CE80078029008D5E8F0EE24F5F582EF3400F567
:104CF80083E09008D6F0EE2483F582EF3400F58344
:104D0800E0601B7508D575090878081219AC7C0293
:104D18007903EEFA12101874021217587806740103
:104D280028F5D975D9037582D57583088808E0F503
:104D3800D9A31508E50870F675E195EE2474F58297
:104D4800EF3400F583E4F0EE2480F582EF3400F5CB
:104D580083E4F0EE241DF582EF3400F583E4F0A33C
:104D6800F07904121132EE240DF582EF3400F58348
:104D7800E0F8A3E0F9EE2472F582EF3400F583E859
:104D8800F0A3E9F0790180027900024BAC74F612C5
:104D980017999061D0E0F87480C398FCEA2483F5F1
:104DA80082EB3400F583E06004780480027800E840
:104DB8002404F8ECC398405B79029008D57407F096
:104DC800EA24F6F582EB3400F583E09008D6F0EAA1
:104DD8002483F582EB3400F583E060187508D575F7
:104DE800090878081219AC7C02091210187402120A
:104DF80017587906740129F5D975D9037582D575BF
:104E08008308E9F8E0F5D9A318E870F875E1957911
:104E18000180027900024BAC74F5121799E9FCA2E3
:104E2800AFE433F50AC2AF7D0080010DEA246FF5C7
:104E380082EB3400F583E0F8EDC398501A8D08EA48
:104E48002508F8EB3400F9E8246BF582E93400F51D
:104E580083E06C70D68024EA246FF8EB3400F9E024
:104E6800FEEA2EFAEB3400FBEA246BF582EB340001
:104E7800F583ECF088828983E004F0E50AA2E092E9
:104E8800AF7F0302186B74F6121799A2AFE433FDD3
:104E9800C2AFEA246FF582EB3400F583E014F07CAE
:104EA8000060368C08EA2508F8EB3400F9E8246C31
:104EB800F582E93400F583E0C0E0E8246BF582E987
:104EC8003400F583D0E0F00CEA246FF582EB34006F
:104ED800F583E0F8ECC39840CAEA246EF582EB3417
:104EE80000F58374FFF0EA246AF582EB3400F58359
:104EF800E4F0EDA2E092AF024BACC082C083E5A81B
:104F0800F8C2AFEA246BF582EB3400F583E9F0EAE6
:104F1800246AF582EB3400F583E4F0E8A2E792AF67
:104F280002409074F3121799EAFEEBFFECFAEDFBDE
:104F38008A828B83A3A3A3A3E0541FF0EE2436F543
:104F480082EF3400F583E4F0F50AEEFCEFFD8A8287
:104F58008B83E0C0E0EC245DF582ED3400F583D06E
:104F6800E0F0750B00E50A33333354F8F50C8A8208
:104F78008B83E0F508750900E50B7808121710E532
:104F880008A2E0502FEE2436F8EF3400F988828921
:104F980083E0F508EE2508F508EF3400F509E50883
:104FA8002438F582E5093400F583E50CF088828918
:104FB80083E004F0050B050CE50BC3940840AF052E
:104FC8000A8A828B83A3AA82AB838C828D83A3AC4B
:104FD80082AD83E50AC394055003024F567F05024C
:104FE800186B74F7121799900763E0640170077AD9
:104FF800007B000251617E00900769E070F1740146
:10500800F0A3E4F0A3F09007C904F09007CCE4F013
:10501800A3F09007CF04F090076CE4F0A3F0A3F09E
:10502800A3F090077604F090079CE4F09082201299
:10503800163090077F12163C900783E4F0A3F0A384
:10504800F09007E7F09007DBF09007D07480F0A3AA
:10505800E4F09007D6F09007CEF0900852F0A3F055
:10506800A3F0A3F0A3F0A3F0A3F0A3F090085BF0E3
:105078009007EAF090083AF0A3F0908220121630D8
:1050880090083C12163C908220121630900840126C
:10509800163C900846E4F0900848F0900844F090D8
:1050A800085EF0A3F0A3F0A3F0A3F0A3F0A3F0A38D
:1050B800F078637907E8246FF582E93400F58374A2
:1050C800FFF00E88828983A3A882A983EEC3940483
:1050D80040E37A637B077872790888828983E0C025
:1050E800E0EA2461F582EB3400F583D0E0F08882B1
:1050F8008983A3A882A9838A828B83A3AA82AB838C
:10510800E864777003E9640870D07A637B07784AAB
:10511800790788828983A3E0C0E0EA24E7F582EB77
:105128003400F583D0E0F088828983A3A882A9831C
:105138008A828B83A3AA82AB83E864527003E964F2
:105148000770CF900763E004F06401700890076B64
:10515800E0900765F07A677B07024AE0C082C08367
:1051680090076AE4F0900769F0900763F0A3F0A352
:1051780074FFF075E1F1024090C082C08378007935
:105188000090076AE060047867790788828983A3BA
:10519800A3A3A3E0F902409074F6121799EAFEEB74
:1051A800FF8E828F83A3A3A3E0600F8E828F83A3D9
:1051B800A3A3E4F0900764E014F0900763E014F010
:1051C800700690076574FFF08E828F83A3A3E4F0C6
:1051D800900877E0700D900764E06401700579002D
:1051E800121114EE2465F582EF3400F583E0F8A37C
:1051F800E0F9E8496029EE2465F8EF3400F98808F9
:1052080089098882F583E0FCA3E0FD900765E0FA50
:105218007B00120CE8850882850983E4F0A3F0EE90
:10522800FAEFFB121048024BAC74F7121799EAFE1A
:10523800EBFF8E828F83A3A3A3A3E0FA7B00120D5A
:105248002AEEFAEFFB120F9A121030024AE0C082DF
:10525800C083784A790788828983A3E4F0888289A1
:1052680083A3A882A983E864527003E9640770E6FF
:1052780090074B0245BD74F6121799EAFEEBFFEC56
:105288002403F8ED3400F988088909EC2407F8EDBF
:105298003400F9E8FCE9FD8C828D83E0F8A3E0F99D
:1052A800850882850983E0FAA3E0FB1216B7EE248D
:1052B8000DF582EF3400F583E8F0A3E9F08C828DD8
:1052C80083E0F8A3E0F9850882850983E0FAA3E082
:1052D800FB1216B78B09EA45096013EE240DF58217
:1052E800EF3400F583E02401F0A3E03400F0024B32
:1052F800AC74F6121799EAFEEBFFEE242EF582EF56
:105308003400F583E0FCA3E0FD780079FAECFAEDCF
:10531800FB1216B7EE2470F582EF3400F583E8F03F
:10532800A3E9F0780079FAECFAEDFB1216B78B09CD
:10533800EA45096013EE2470F582EF3400F583E046
:105348002401F0A3E03400F0024BAC74F01217997A
:10535800EAFEEBFF741012178D780812161212105D
:10536800D28A0C8B0D8C0E8D0F9081B8780C12158B
:105378009E9081D0780C1215EC780C1219A88E82A8
:105388008F83E0F8A3E0F5838882A3A31216301276
:1053980023BE7404121758E960030254A08E828F4A
:1053A80083E02402F8A3E03400F9E8FAE9FB8A82F2
:1053B8008B8378081215B19081D078081216128A5A
:1053C800828B8378081215FFEE240BF582EF3400E8
:1053D800F583C082C0838E828F83A3A3A3A3A3E097
:1053E8002401F8A3E03400F9D083D082E068700388
:1053F800A3E069700579010254A28E828F83A3A36A
:10540800A3A3A3A3A3E02401F0A3E03400F0EE24B7
:1054180074F582EF3400F583E064017036EE24758C
:10542800F582EF3400F583E0F8A3E0F98E828F83EC
:10543800A3A3A3A3A3A3A3E0687003A3E0697013C5
:10544800EE2475F582EF3400F583E02401F0A3E043
:105458003400F0EE2480F582EF3400F583E0640137
:105468007036EE2481F582EF3400F583E0F8A3E08E
:10547800F98E828F83A3A3A3A3A3A3A3E0687003D9
:10548800A3E0697013EE2481F582EF3400F583E020
:105498002401F0A3E03400F079007F0802186B744F
:1054A800F7121799900765E0F875F004A4C8AAF0F8
:1054B8002AF9746728FE740739FF8028EE2465F8F6
:1054C800EF3400F988828983E0FCA3E0FD888289B3
:1054D80083E4F0A3F08E828F83A3A3A3A3E0FA7BD7
:1054E80000120CE8EE2465F582EF3400F583E0F84D
:1054F800A3E0F9E849604FEE2464F582EF3400F543
:1055080083E0F50878081219B0EE2463F582EF34C9
:1055180000F583E0F9EE2465F582EF3400F583E0C9
:10552800FCA3E0FDEEFAEFFB120FC474011217584A
:10553800E96089EE2465F582EF3400F583E0F8A38D
:10554800E0F9E84970137C007D008E828F83A3A365
:10555800A3A3E0FA7B00120CE8024AE074F21217E7
:1055680099EAFEEBFF890A740E12178DE0FAEE2411
:1055780062F582EF3400F583E0640160030256307F
:105588009061D0E0F87480C398F50CEE2483F5821E
:10559800EF3400F583E0600478048002780089081D
:1055A800E928F8E43400F9E824020808E93400F9A5
:1055B800E50C98E499A2D265D0334068EA70057585
:1055C8000B028003750B01E0603975090078081239
:1055D80019AC7AD57B08120FFA740212175875089D
:1055E800D575090878081219ACAC0AA90BEEFAEFC0
:1055F800FB12101874021217587404250AF50A7C55
:10560800D57D087401250AF5D9850BD9E50A600D01
:105618008C828D83F8E0F5D9A318E870F875E195C8
:10562800790080067907800279FF7F0602186BC02F
:1056380082C083E960208C828D83E08A828B83F02C
:105648008C828D83A3AC82AD838A828B83A3AA824A
:10565800AB8319E970E0ECFAEDFB02409074EA12B2
:105668001799907803E06442705E9008D4E014F0D3
:105678007056C2AF12567F00782AD0E0F618D0E0F4
:10568800F6E59F5407F970059081B080039081ACCE
:105698007808121612E9C4C0E07829E65508F5081A
:1056A80008E65509F509740B7808121720D0E0258B
:1056B80008F8906270E0A2E740F8E8C3339062729D
:1056C800F0906270E0D2E0F0900765E0F4700302B9
:1056D8005A88E0F875F004A4C8AAF02AF974672873
:1056E800FE740739FFEE2402F582EF3401F583E0FA
:1056F800F8A3E0F9E849601EEE2402F582EF3401D0
:10570800F583E0FAA3E0FBEE2401F582EF3401F51E
:1057180083E0F91204BA8E828F83A3A3A3A3A3A361
:10572800A3E0F8A3E0F98E828F83A3A3A3A3A3E841
:10573800F0A3E9F0906054E090073EF0906055E0E7
:1057480090073FF0906056E0900740F0906057E077
:10575800900741F0906058E0900742F0906059E05F
:10576800900743F090605AE0900744F090605BE047
:10577800900745F090605CE0FC900746F090605D13
:10578800E0FB900747F090605EE0FD900748F090DE
:10579800605FE0FA900749F0900744E08C0825081C
:1057A800F8E43400F98D08E82508F8E93400F98BA5
:1057B80008E82508F8E93400F98A08E82508FAE92C
:1057C8003400FBEE24F7F582EF3400F583E02AF08D
:1057D800A3E03BF08C08EE24F9F582EF3400F58362
:1057E800E02508F0A3E03400F0EE24FBF582EF3466
:1057F80000F583E02401F0A3E03400F0EE24FFF587
:1058080082EF3400F583E0F8A3E0F9E849604290BC
:105818006000E0C333FCE433FDE82CF582E93DF594
:1058280083E02AF0A3E03BF0906000E0FA9007469E
:10583800E0FCEAC333FAE433FBE82AF8E93BF9E889
:10584800244AF582E93400F583E02CF0A3E0340023
:10585800F0900744E07011900747E0700BA3E070E8
:1058680007A3E070030259688E828F83A3A3A3A3C2
:10587800A3E0F8A3E0F9EE240DF582EF3400F583F8
:10588800E028F8A3E039F9EE240BF582EF3400F5AF
:1058980083E8F0A3E9F0EE240FF582EF3400F583F6
:1058A800E4F0EE241CF582EF3400F583E064017027
:1058B8001EEE2420F582EF3400F583E0F8A3E0F92A
:1058C800EE241DF582EF3400F583E8F0A3E9F090AB
:1058D800073FE06052EE241CF582EF3400F5837434
:1058E80001F0EE246AF582EF3400F583E07038EEBB
:1058F8002474F582EF3400F583E0702BEE2480F5F4
:1059080082EF3400F583E0701EEE2420F582EF3438
:1059180000F583E0F8A3E0F9EE241DF582EF3400EA
:10592800F583E8F0A3E9F0906062E07003025A1B87
:105938008E828F83E0F8A3E0F9E82406FCE93400BE
:10594800FDE82402FAE93400FB1210CC8E828F8322
:10595800E02412F8A3E03400F988828983025A25EA
:10596800900746E0603AEE240FF582EF3400F583A5
:10597800E4F0EE241CF582EF3400F583E064017056
:1059880040EE2420F582EF3400F583E0F8A3E0F937
:10599800EE241DF582EF3400F583E8F0A3E98020BA
:1059A800EE24FDF582EF3400F583E02401F0A3E056
:1059B8003400F0EE241DF582EF3400F583E4F0A303
:1059C800F0EE240BF582EF3400F583E0F8A3E0F95C
:1059D8008E828F83A3A3A3A3A3E0687003A3E069C7
:1059E80060030258D7EE240FF582EF3400F583E008
:1059F80060128E828F83A3A3A3A3A3E06405700221
:105A0800A3E0600B7908EEFAEFFB120FA080717922
:105A18003E80F3EE241DF582EF3400F583E4F0A315
:105A2800F0906060E0C0E0EE2469F582EF3400F5A4
:105A380083D0E0F0900744E0F8EE2467F582EF3475
:105A480000F583E028025B889008D2E06401703595
:105A5800121180EE2467F582EF3400F583E07006BA
:105A68009060607480F0EEFAEFFB12108AE964012E
:105A7800600E120FBE121084E96401600312103028
:105A88007F0E02186BEE2483F582EF3400F583E075
:105A98006004780480027800E50CC398F9120CDCE5
:105AA8008A0A8B0BEA450B60A7EE2483F582EF3454
:105AB80000F583E070048A088B09E50C60128508FC
:105AC80082850983F512E5D9F0A31512E51270F65F
:105AD800EE2483F582EF3400F583E0603774FC250B
:105AE8000CF50C78081219ACAC0CA90DEEFAEFFB0A
:105AF80012101E7402121758E970197403650D709C
:105B080003025BC8E50A24FBFAE50B34FFFB120528
:105B180002025BC87403650D7003025BCD850C0E31
:105B2800750F00780E1219ACAC08AD09AA0AAB0BB8
