:020000040000FA
:0600000002011D02216750
:03002B00021D8A29
:030053000221DAAD
:03006B00021D640F
:1000830002201BE5C754F84401F5C779012200009B
:100093000080FB120086B90003020107E47921788E
:1000A30008B800028004F709D8FCE479297802B87B
:1000B30000028004F709D8FCE490028178327909C0
:1000C3008002F0A3D8FCD9FA781A90014D7A01BACC
:1000D30000028007E493A3F608DAF9900AB2AA8231
:1000E300AB8390014E780679038015E493A3AC8229
:1000F300AD838A828B83F0A3AA82AB838C828D83A8
:10010300D8E9D9E77582147583AA740312012F7590
:100113008291758300740012012F75D00075813FA1
:10012300751881751902759F00020096C09FF59F8F
:10013300E473D09F22D083D082C09FE493C0E07445
:100143000193C0E0740293F59F220101FFFF0201B6
:100153000603020D180708434D5F48524D434D20D7
:1001630048656172742052617465204D6F6E6974C5
:100173006F728303000089039503FFFFBB001264C2
:1001830002DB81010000C58102D781010000E50A7D
:1001930002F781010000E60A02D58103000035045D
:1001A30002020202DB81010000C88102D781010043
:1001B30000070B02F1810100003D0402D781010019
:1001C30000080B02EF81010000B18002D78101001A
:1001D30000090B02ED81010000CC8010020802DB54
:1001E30081010000CB8102D781010000420B02E7AD
:1001F30081000000470402D581030000480402D7B0
:1002030081010000430B02E5810100004E0402D787
:1002130081010000440B02E3810200004F0401E866
:1002230003053F10FF0001307503020106000000C3
:1002330000000000000000000000000000000000BB
:10024300000000000000000000FFFF0600800CE833
:1002530003FF0000B4000028002800283075A00028
:10026300A000A000A00000080008E001F0001000BA
:10027300100010001000100010005000500050003B
:1002830010001000D0070000000000000F00010064
:100293000500307507001000010081FF0000FFA179
:1002A30009BF09A709FF02020208025000A00000CB
:1002B30000E80302DB81010000C28102D781010053
:1002C300000D0C02D381010000090602D781010051
:1002D300000E0C02D1810100001F0602D78101002C
:1002E300000F0C02FB81010000210602D7810100EF
:1002F30000100C02E181080000220602D7810100F0
:1003030000110C02EB81010000120CFF0100FF2021
:1003130002DB81010000CE8102D781010000760C4F
:1003230002F581000000000002D5810300006F0682
:10033300770F770F770F770F770F770F770F770F8A
:10034300770F770F770F770F770F05121D12FF11B6
:10035300120138F19203120138269303120138393E
:100363009303120138499303120138EC93031201EA
:100373003866940312013802FB02120138F5FC02BD
:10038300120138AAFD021201386CFE02120138A1D3
:10039300FE02120138B9FE02120138C2AA03120189
:1003A30038AF9903120138BB9903120138009A033D
:1003B3001201380B9A03120138139A0312013826DB
:1003C3009A03120138419A031201386A9A031201FF
:1003D30038839A03120138CD9A03120138DB9A034A
:1003E3001201382A9B031201387CD5021201388688
:1003F300D502120138C7D50212013810D6021201F4
:10040300384AD602120138A0D602120138C1D602E8
:10041300120138CAD6021201381ED7021201384718
:10042300D70212013851D702120138BFD702120185
:10043300384FD802120138AAD802120138D8D8028C
:1004430012013860D9021201389FD902120138D43F
:10045300D902120138E6D90212013805DA02120173
:10046300380EDA02120138D5DA02120138B5A903BF
:1004730012013889A303120138AF9B03120138E537
:100483009B03120138199C03120138669D03120164
:1004930038A5A703120138BBA703120138C5A70368
:1004A3001201380FA8031201387BE9021201388EBA
:1004B300E9021201384FEA021201388EEA021201F0
:1004C30038ABEA02120138E4EA0212013831EB02D6
:1004D30012013863EB021201389AEB02120138A3BE
:1004E300ED0212013880A403120138A3A403120100
:1004F30038D2A40312013814A503120138BDB60281
:1005030012013878BC0212013848BD02120138B119
:10051300BD02120138D7BE0212013864F202120181
:1005230038DFF20212013829F3021201384EF402C5
:1005330012013863F502120138E5F502120138346D
:10054300FD0112013879FD011201388EFD011201FE
:1005530038E8FD0112013872FE011201381DFF0156
:1005630012013854FF01120138F1A00312013816A9
:10057300A10312013846A103120138379503120172
:10058300387C95031201388F9503120138AB95031C
:10059300120138E9950312013858960312013842C3
:1005A30097031201386CAA03120138FE810112016C
:1005B30038DC83011201387B85011201382686015C
:1005C300120138A686011201382B87011201385413
:1005D30087011201382F8B01120138A68B011201FA
:1005E30038BD8C01120138F78C01120138388D01A6
:1005F3001201387F8E01120138D58E011201381E87
:100603008F011201388D8F01120138F98F01120108
:10061300382A90011201384290011201385B91018E
:100623001201386B910112013821930112013838FC
:1006330093011201386A93011201380C95011201DA
:1006430038A0950112013834A60312013840A603DD
:10065300120138DDA603120138ACFF01120138EB99
:10066300FF0112013858AB03120138EFA603120140
:1006730038FFA6031201380EA7031201389FA70300
:10068300120138F6FE021201387BFF02120138DF35
:10069300FF02120138F8FF0112013842AB031201C5
:1006A3003852AB0312013855AB03120138F87F00FF
:1006B3001201387B9703120138059903120138663A
:1006C3009903120138AC990312013841A9031201AD
:1006D3003872A9031201389FA903120138599F03E5
:1006E300120138AB9F031201381EA0031201388B8D
:1006F300A003120138AA9003120138D49003120107
:1007030038A391031201387F92031201381DBF02EF
:10071300120138E9BF021201382AC00212013864FB
:10072300C002120138C2C00212013816C1021201FE
:100733003874C1021201380AC20212013812C3020C
:100743001201389CC4021201383AC502120138A1C1
:10075300C502120138B4C502120138A8C60212013B
:1007630038F1C60212013845F00112013877F3015E
:1007730012013808F5011201385FF5011201387CC6
:10078300F501120138FCF50112013878F701120165
:100793003847F801120138B4FB011201389EFC01FD
:1007A300120138437E001201385A7E001201388943
:1007B3007E00120138C27E00120138EA7E00120167
:1007C30038187F001201382F7F00120138467F004E
:1007D3001201385C7F00120138837F0012013896C2
:1007E3007F00120138AC7F00120138BF7F00120175
:1007F30038E47F0012013811A40212013810A50257
:1008030012013845A50212013866A5021201387695
:10081300A50212013897A502120138A3A6021201FC
:100823003870A702120138E3A70212013869A8023F
:10083300120138ACA802120138E3A8021201386988
:10084300A9021201383BAA0212013899AA02120125
:1008530038B1AA021201382BAB021201382EAB02B7
:1008630012013831AB02120138D8AB02120138F051
:10087300AB0212013820AC0212013840AC02120163
:10088300382EAD02120138E4AD02120138D3E4026E
:10089300120138FBE40212013829E5021201386023
:1008A300E502120138C8E50212013811E60212010D
:1008B300385CE6021201389AE602120138D7E602E2
:1008C30012013805E702120138ACE702120138B60B
:1008D300E702120138C3E702120138F6E7021201F8
:1008E30038B8E802120138C4E802120138DCE80221
:1008F300120138E6E8021201385DA5031201386BD4
:10090300A50312013883A5031201389BA503120125
:10091300388FA9011201382DAA01120138A5AA01A5
:10092300120138BAAB01120138F4AB011201389D40
:10093300AC0112013872AD01120138D6AE011201B9
:10094300382DAF01120138B4AF011201389BB00149
:10095300120138E8B00112013876B1011201389A58
:10096300B1011201386FB301120138B0B3011201A2
:1009730038D2B30112013853B4011201383DB50125
:1009830012013803B60112013870CE021201384247
:10099300CF02120138EBCF021201382ED00212011E
:1009A30038BBD00212013847D10212013828D202D3
:1009B30012013857D20212013853D3021201389B65
:1009C300D3021201389DD402120138E1D40212017C
:1009D3003807D5021201383BA803120138EC830310
:1009E300120138028403120138288403120138509B
:1009F30085031201385A8503120138B386031201A5
:100A030038B3870312013803DB0212013838DC02E2
:100A13001201386BDC02120138B5DC0212013873A3
:100A2300DE02120138E66E00120138496F0012012E
:100A3300388E70001201389E7000120138C17000A8
:100A43001201380C7100120138B17100120138A77C
:100A53007200120138717300120138E97400120137
:100A6300382B7500120138C975001201381676004B
:100A73001201383C76001201382A78001201382F0F
:100A83007800120138107A00120138647A001201DA
:100A930038C67A00120138EE7A00120138927B00D0
:100AA300120138547C00120138857C001201388809
:100AB3007C00120138D07C00120138127D00120133
:100AC30038797D00120138548E03120138678E0382
:100AD300120138808E03120138CB8E03120138A61F
:100AE3008F031201383590031201388090031201ED
:100AF300386C2800120138782800120138B1280018
:100B0300120138F62800120138AD290012013833DA
:100B13002A001201385F2A00120138982A001201B4
:100B230038AC2C00120138882E00120138733000C3
:100B3300120138AA31001201380A3400120138F6C2
:100B430034001201383C36001201384937001201D3
:100B5300386637001201389E3700120138B8370063
:100B6300120138203800120138BA3C001201385BF8
:100B73003D00120138AC3D00120138D33D00120193
:100B830038213E001201383F3E00120138933E00E7
:100B93001201389B3F00120138234000120138290B
:100BA300E00212013833E002120138FEE0021201C2
:100BB3003819E1021201383FE10212013883E102E0
:100BC300120138BBE102120138E4E1021201385D7F
:100BD300E20212013872E20212013887E2021201C4
:100BE30038BEE202120138D2E20212013803E302F4
:100BF3001201383DE30212013869E302120138BFE2
:100C0300E30212013813E4021201385CE402120118
:100C13003886E402120138ABE40212013800800383
:100C2300120138CA8003120138AD8103120138233F
:100C33008203120138658203120138928303120181
:100C430038008002120138298002120138428002E2
:100C53001201388781021201386582021201388439
:100C630082021201381183021201385483021201E5
:100C730038A18402120138408502120138BF87026D
:100C83001201385688021201382A89021201380CDF
:100C93008A02120138788B021201380B8C0212017E
:100CA3003874A203120138DDA20312013831A30301
:100CB30012013858A3031201380FEE021201387CD7
:100CC300EE02120138C7EE02120138BCEF02120124
:100CD30038B8F002120138A2F1021201384FAE0205
:100CE30012013891AE021201386BAF02120138447F
:100CF300B0021201383FB1021201381EB2021201D2
:100D0300388AB20212013851B302120138BCB3025D
:100D130012013823B4021201384EB402120138BF53
:100D2300B40212013852B502120138BBB5021201E6
:100D330038D0B50212013818B60212013831B602A2
:100D430012013896B60212013899B6021201385AC6
:100D53008B03120138828B03120138C08B031201FB
:100D6300387E8C03120138E98C03120138058D0398
:100D73001201382D8D031201385D8D031201386C79
:100D83008D03120138E68D031201380C8E03120114
:100D930038B6C60112013893C8011201388ECA0150
:100DA30012013861CB01120138ACCB01120138F7C3
:100DB300CB0112013809CC0112013849CC011201CF
:100DC300387ECC01120138CACC01120138F9CC01AA
:100DD3001201381CCD0112013869CD01120138F21C
:100DE300CD01120138FFCF01120138EAD1011201FE
:100DF300382DD20112013892D301120138D3D30115
:100E030012013846D40112013892D401120138BDBF
:100E1300D401120138828C02120138AD8C02120106
:100E230038949302120138B895021201387397026D
:100E3300120138D098021201388A40001201382179
:100E430041001201384E4100120138944100120151
:100E530038D342001201386A4400120138E44400D6
:100E6300120138FF4400120138744500120138A3FF
:100E73004600120138FE47001201380049001201F2
:100E8300385D4A00120138764A00120138D34A000D
:100E9300120138B54B00120138E84B0012013858E3
:100EA3004C00120138D24C00120138214D001201BE
:100EB30038ED4D00120138F24E00120138D14F00C7
:100EC3001201385C5000120138CA50001201383E3A
:100ED30051001201386751001201382652001201E5
:100EE30038A05300120138BD5300120138DC5300FF
:100EF3001201386D5400120138925400120138BAAD
:100F030054001201383555001201388F5500120173
:100F130038E35600120138A0570012013873580005
:100F2300120138E7D40112013837D50112013843D1
:100F3300D50112013820D60112013850D601120111
:100F43003888D60112013807D7011201383FD7017B
:100F530012013891D701120138CED701120138F3AB
:100F6300D9011201381FDC011201381ADE01120106
:100F730038F5DF01120138F5FF01120138DE950162
:100F8300120138289601120138079C011201388892
:100F93009D01120138E7A301120138E2A4011201F5
:100FA300381FA50112013842A50112013884A50199
:100FB3001201388DA50112013897A501120138835A
:100FC300A60112013877A701120138A158001201B6
:100FD300381963001201381F63001201382B6A00AD
:100FE300120138BD8703120138538803120138698F
:100FF3008803120138E38803120138398903120187
:1010030038778903120138D48903120138518A03CE
:101013001201385A8A03120138668A031201387999
:101023008A03120138B58A03120138CB8A031201ED
:10103300382A8B03120138B6F602120138C3F602BE
:10104300120138DDF6021201381CF7021201385A78
:10105300F702120138BFF702120138D4F702120166
:1010630038DFF702120138ECF70212013803F802F5
:1010730012013811F8021201381CF8021201382843
:10108300F80212013837F80212013842F80212014D
:101093003865F8021201380EF9021201381EF902FE
:1010A30012013838F90212013855F9021201387168
:1010B300F90212013896F902120138A0F90212015D
:1010C30038B4F902120138D3F90212013834FA02A2
:1010D3001201383AFA0212013840FA021201384674
:1010E300FA0212013852FA0212013885FA02120189
:1010F30038BBE2011201383DE301120138E6E30196
:101103001201382EE5011201383CE70112013822A1
:10111300E80112013857E80112013879E801120198
:101123003822E901120138F2EA011201381BEB01FE
:1011330012013893EB01120138C5EB01120138D2C9
:10114300EB011201381DEC0112013841EC011201CF
:101153003892EE011201389CEF01120138F8EF01C9
:1011630012013838B80112013849B9011201382D7A
:10117300BA0112013837BA0112013859BA01120102
:101183003865BA0112013809BC0112013836BC01B5
:101193001201384CBD01120138A1BD01120138F012
:1011A300BE01120138C5BF0112013821C00112016D
:1011B300388CC001120138C1C00112013804C101C9
:1011C300120138CEC301120138E6C3011201387788
:1011D300C40112013885C401120138D2C4011201BD
:1011E30038E0C4011201384CC501120138C7C501EA
:1011F3001201381EC601120138F398021201381584
:101203009902120138269B02120138E59D02120150
:10121300380F9F02120138CD9F02120138B9A00284
:10122300120138A09D03120138C59D031201383BFA
:101233009E0312013853C7021201385CC702120120
:101243003865C7021201383DC802120138EEC902DF
:101253001201381ECA0212013849CA021201387932
:10126300CA02120138A4CA02120138D8CA021201F2
:101273003804CB0212013847CB0212013872CB0279
:10128300120138B9CB021201380ECC0212013850C8
:10129300CC02120138AACC02120138D5CC021201B9
:1012A3003824CD0212013854CD021201387FCD0209
:1012B300120138ADCD02120138D0CD02120138C46B
:1012C300A803120138F0A8031201381DA903120163
:1012D3003827A90312013837A903120138F7AA03E3
:1012E30012013824AB03E066701008A3E066700AAD
:1012F30008A3E066700408A3E06622C008C3E09672
:10130300F50808A3E096420808A3E096420808A35C
:10131300E0964208A2D265D033E5087001D3D00825
:1013230022C3E7960809E7960809E7960809E796AE
:1013330022C3E09608A3E09608A3E09608A3E096EC
:1013430022C008C3E096F50808A3E096420808A364
:10135300E096420808A3E09645087001D3D008221E
:10136300080808E630E71112179E12137B080808D5
:10137300C64480C618181822181818E9799EC6089A
:10138300CAC608CBC608CCC6C370207996CACBCCD4
:101393007019798ECBCC70137986CC700EF9802AB4
:1013A300CA33CACB33CBCC33CC331930E7F2CCCBF3
:1013B300CA3350147004EA30E00DE4CA3ACACB3B96
:1013C300CBCC3CCC500209C3E913C6CC182313C6BB
:1013D300CB18C6CA18C6F92212141B20F01430E722
:1013E3002B74FFFCFBFA747F8022E4FCFBFA74800D
:1013F300801AB48008BC00F2BB00EF800F50EBF9F9
:10140300E4C39AFAE49BFBE49CFCE499C6CC18C6BB
:10141300CB18C6CA18C6F922E4C9C608CAC608CB7F
:10142300C6D3330308CCC63392F0C3947F402E94C3
:10143300184019C9B90704CACBCC225025C309CA1D
:1014430033CACB33CBCC33CC33D9F422F4600DC9BC
:10145300CCC313CB13CBCA13CAD9F6CC22E4FCFBFF
:10146300FA2214FCFBFA22E6C33318461846184640
:1014730022E7C33319471947194722181818E608F2
:101483004608700AE608C3337005E633F4220822DF
:10149300191919E7094709700AE709C3337005E702
:1014A30033F4220922E6084608C3134608336002D0
:1014B300E633F422E7094709C3134709336002E718
:1014C30033F422001214A8604F1214B76012E754C9
:1014D3008066F612147E7011121474703B090909A8
:1014E300F4F618F618F618F622121493701512145F
:1014F3006A08080860EAE6447FF618768018E4F67E
:1015030018F62212146A60161214747012E4F608A4
:10151300F608F608E65480F609090918181822EAAD
:10152300C0E0EBC0E0ECC0E0EDC0E0E687F0A4FB78
:10153300ACF008E687F0A42CFCE435F0FA1809E6D1
:1015430087F0A42C4B60027401CA35F0FCE433FB32
:1015530009E687F0D2F7A42CCB35F0FC1908E6870F
:10156300F0A42BCC35F0FBE433FD0819E687F0D269
:10157300E7A42C4ACB35F0CD3400FC09E687F0D242
:10158300E7A42DCC35F0FDE433FA0918E687F0D251
:10159300F7A42CCD35F0CA3400FC08E687F0D2E777
:1015A300D2F7A42ACC35F07A7E20E70B0ACB33CBD3
:1015B300CD33CDCC33CC33CB3350147004ED30E08A
:1015C3000ED2F1E4CD3DCDCC3CCC3B5005DA05C287
:1015D300F1EB547FC63308E63392F0FBE73309E7B8
:1015E30033C39A502D2B70190C0D4C4D70151806E2
:1015F300E608C333700D20F10AA2F013F6E4188055
:101603000B4024E4F630F002768018F618F618F64C
:101613008024D33B14501074FFA2F013F618768085
:10162300E418F618F6800FA2F013F618E63303F663
:1016330018ECF618EDF6D0E0FDD0E0FCD0E0FBD0DE
:10164300E0FA22080808EAC0E0EBC0E086F0E7A46D
:10165300FA180986F0E7A42AFA180986F0E7A42AFB
:10166300FA180986F0E7A42AFA1986F0E7A4FBE53D
:10167300F02AFA190886F0E7A42BFBE5F03AFA19E9
:101683000886F0E7A42BFBE5F03AFA18180986F070
:10169300E7A4C5F02BFBE43AFA1908E7C5F0C6A4A2
:1016A30026F6E5F03BFBE43AFA1886F0E7A4F6E504
:1016B300F00826F6E43B08F6E43A08F6D0E0FBD05F
:1016C300E0FA22E4CFC0E0E4CEC0E0E4CDC0E0E441
:1016D300CCC0E075F020C3E633F608E633F608E63F
:1016E30033F608E633F6181818EC33FCED33FDEE49
:1016F30033FEEF33FFC3EC9709ED9709EE9709EF3C
:1017030097191919400FFFEC97FC09ED97FD09EEA6
:1017130097FE191906D5F0BEECF709EDF709EEF7B8
:1017230009EFF7191919D0E0FCD0E0FDD0E0FED0A5
:10173300E0FF221217A11818181216C612178D19D6
:1017430019192212178D191919080808E6181818FB
:1017530020E7E01216C61217A11818182209090962
:10176300E719191920E7DC080808E618181820E714
:10177300030216C61217A11818181216C61217A1BB
:1017830018181812178D19191922E4C397F709E4C9
:1017930097F709E497F709E497F722181818E4C3B1
:1017A30096F608E496F608E496F608E496F62260C0
:1017B30016080808C6C313C618C613C618C613C628
:1017C30018C613C6D5E0EA22700908080822601675
:1017D300181818C6C333C608C633C608C633C608A6
:1017E300C633C6D5E0EA22E627F60809E637F60847
:1017F30009E637F60809E637F622E026F608A3E0FD
:1018030036F608A3E036F608A3E036F622E026F023
:1018130008A3E036F008A3E036F008A3E036F02290
:10182300C3E697F60809E697F60809E697F6080966
:10183300E697F622C3E0C696F608A3E0C696F60836
:10184300A3E0C696F608A3E0C696F622C3E096F098
:1018530008A3E096F008A3E096F008A3E096F02230
:10186300E056F608A3E056F608A3E056F608A3E010
:1018730056F622E056F008A3E056F008A3E056F02F
:1018830008A3E056F022E0F608A3E0F608A3E0F68A
:1018930008A3E0F622E6F008A3E6F008A3E6F008C2
:1018A300A3E6F022E0FAA3E0FBA3E0FCA3E0FD2221
:1018B300EAF0A3EBF0A3ECF0A3EDF022CAC0E0E65C
:1018C300F0A308DAFAD0E0FA22CAC0E0E0A3C582A6
:1018D300CCC582C583CDC583F0A3C582CCC582C5E3
:1018E30083CDC583DAE6D0E0CA22C3E498F8E4994D
:1018F300F912192E8026C3E49AFAE49BFBE920E748
:10190300E912192EE498F8E499F922C3E498F8E46B
:1019130099F912192EE498F8E499F9C3E49AFAE4D0
:101923009BFB22EB20E7CFE920E7E0B90010BB00E7
:1019330008E88AF084F8AAF022E4FBC8FA22EB70E4
:10194300227B10C833C8C933C9335007C39AC3DBDA
:10195300F280069A50012ADBEAC833F4C8C933F48B
:10196300C9FA2275F008E4C833C8C933C933C99A20
:10197300C99B5004C92AC93BD5F0ECFBC833F4C852
:10198300E4C9FA22600D08C6A2E713C618C613C637
:10199300D5E0F322600C08C6C313C618C613C6D518
:1019A300E0F422700422600D18C6C333C608C633A0
:1019B300C6D5E0F41822251810AF08F51840021513
:1019C300198008F51840021519D2AF22C0D0251886
:1019D30010AF08F518500205198008F518500205D4
:1019E30019D2AFD0D0222518F58210AF08F51840D0
:1019F3000215198008F51840021519D2AF8519830D
:101A0300222518F582E43519F58322E4732518C5D8
:101A130082C0E0E51934FFC583C0E0E518C39582B1
:101A230024F810AF088583198582188008858319E7
:101A3300858218D2AFCEF0A3E520F0A37808E6089C
:101A4300F0A3DEFAEFF0A3E58124FAF8E608F0A3A9
:101A5300E608F0A3E608F0A30808E608F0A3E60802
:101A6300F0A315811581D0E0FED0E0F81581158132
:101A73001581E8C0E0EEC0E0222518C582C0E0E58C
:101A83001934FFC583C0E0E518C3958224F910AF6C
:101A9300088583198582188008858319858218D261
:101AA300AFCEF0A3E520F0A37808E608F0A3DEFAB2
:101AB300EFF0A3E58124FBF8E608F0A3E608F0A322
:101AC3000808E608F0A3E608F0A315811581D0E025
:101AD300FED0E0F815811581E8C0E0EEC0E0228574
:101AE3001983851882E0A3FEE0A3F5207808E0A31C
:101AF300F608DFFAE0A3FFE0A3C0E0E0A3C0E0E064
:101B0300A3C0E0E0A3C0E0E0A3C0E010AF0885827B
:101B1300188583198008858218858319D2AFD083ED
:101B2300D082020135851983851882E0A3FEE0A3E4
:101B3300F5207808E0A3F608DFFAE0A3FFE0A3C0EE
:101B4300E0E0A3C0E0E0A3C0E0E0A3C0E010AF0882
:101B53008582188583198008858218858319D2AFF9
:101B6300D083D08222C0D02518C582C0E0E51934C5
:101B7300FFC583C0E0E518C3958224F310AF088541
:101B830083198582188008858319858218D2AFC886
:101B9300F0A3E9F0A3EAF0A3EBF0A37908E709F0D7
:101BA300A3D8FAECF0A3EDF0A3EEF0A3EFF0A3D0EB
:101BB300E0F0A3D0E0F0A3D0E0F0A3E520F0A3E5AC
:101BC300F0F0A322851983851882E0C0E0A3E0F931
:101BD300A3E0FAA3E0FBA37808E0F608A3DFFAE0AA
:101BE300FCA3E0FDA3E0FEA3E0FFA3E0C0E0A3E0CD
:101BF300C0E0A3E0F5D0A3E0F520A3E0A3F5F01047
:101C0300AF08858319858218800885831985821812
:101C1300D2AFD082D083D0E0F8D0E0327404800613
:101C2300740280027401C0E0F4041219E9D0E012D6
:101C330018BF227404800474028000CCC0E0EDC09D
:101C4300E0E518C39CCCAD1950011D10AF068C18EC
:101C53008D1980068C188D19D2AF1218CCD0E0FDE7
:101C6300D0E0FC22D083D082E9C0E0E493A3C38612
:101C7300F0C5F095F0F908E493A386F0C5F095F06C
:101C8300700BE493A3C3994005E9048002A3E475B0
:101C9300F002A42582F582E5F03583F583D0E0F9DF
:101CA300E493A3C0E0E493C0E022D083D082ECC0ED
:101CB300E0EDC0E0E493A3FCE493A3FDED4C600DE1
:101CC300121CF9EC24FFFCED34FFFD80EFE493A339
:101CD300FCE493A3FDED4C600D121D38EC24FFFCD6
:101CE300ED34FFFD80EFD0E0FDD0E0FCE493A3C032
:101CF300E0E493C0E022C0E0C3E493960874019348
:101D03009618400FE4936670080874019366187080
:101D1300007019A3A3C3E49396087401939618A3C0
:101D2300A3400DD0E0D0E0D0E0021CE9A3A3A3A31D
:101D3300A3A3D0E022C0E0C0F088F0E4936670086B
:101D43000874019366187000A8F0A3A3700BD0F079
:101D5300D0E0D0E0D0E0021CE9A3A3D0F0D0E02291
:101D6400C0E074F2121B68A2AFE433FEC2AFE5898F
:101D7400A2E150085389FDC2C51203E3EEA2E0922A
:101D8400AF7F01021BC7C0E0C0D0E8C0E0E5A8D225
:101D9400AFC2C7751A00A2E792AFD0E0F8D0D0D096
:101DA400E03274F5121A7CEAFEEBFFEE2434F8EF0D
:101DB4003400F988088909EE2435F582EF3400F5FA
:101DC40083E0F8EE2437F582EF3400F583E0F50A7A
:101DD400EC850AF0A4FCAAF0850AF0EDA42AFDE83B
:101DE4002CF8E43DF97A257B0012192EEA85088245
:101DF400850983F05407F87401B800028004C333E2
:101E0400D8FCC0E0E0131313541FF8EE28F8EF34A5
:101E140000F9E8245DF582E93400F583D0E0F8E0C8
:101E2400586008EE2434F582EF801EEE2436F582E5
:101E3400EF3400F583E0F5F0EA84A8F0EE28F8EF3B
:101E44003400F9E82438F582E93400F583E0F97FB9
:101E540004021B2874F5121A7CEAFEEBFFEE24340C
:101E6400F582EF3400F583E0C0E0EE2435F582EF2F
:101E74003400F583D0E0F08E828F83A3A3A3A3A3C1
:101E8400A3A3C082C0838E828F83A3A3A3A3A3E052
:101E9400F8A3E0F9D083D082E0C398F508A3E099D1
:101EA400F509EE2480F582EF3400F583E0640170D7
:101EB40069EE2481F582EF3400F583E0F8A3E0F9BC
:101EC4008E828F83A3A3A3A3A3A3A3E0FCA3E0FD1B
:101ED4008E828F83A3A3A3A3A3E0FAA3E0FBC3EAA8
:101EE4009CEB9D5027C3EC98ED99402EC3EA98EBE8
:101EF4009950277C547D08EEFAEFFB120ED5EE24A0
:101F040080F582EF3400F583E4F0800EC3EA98EBA9
:101F14009940E0C3EC98ED9950D9EE2434F8EF34AD
:101F240000F9E8FCE9FDEE2435F582EF3400F58391
:101F3400E0F8EE2437F582EF3400F583E0F50AE5A6
:101F440008850AF0A4F508AAF0850AF0E509A42A90
:101F5400F509E82508F8E43509F97A257B00121912
:101F64002EEA8C828D83F05407F87401B800028045
:101F740004C333D8FCC0E0E0131313541FF8EE2855
:101F8400F8EF3400F9E8245DF582E93400F583D0F4
:101F9400E0F8E0586008EE2434F582EF801EEE2469
:101FA40036F582EF3400F583E0F5F0EA84A8F0EE2C
:101FB40028F8EF3400F9E82438F582E93400F58391
:101FC400E0F9122855021E53C082C0838518828509
:101FD4001983E0F8A3E0F9C3EA9CEB9D5012C3EC2B
:101FE40098ED994019C3EA98EB9950127901801041
:101FF400C3EA98EB9940F5C3EC98ED9950EE79005B
:10200400D083D08222EAC39CFAEB9DFB220000001D
:102014008521878522C622C0E0C0D0E8C0E0E9C09F
:10202400E0EAC0E0EBC0E0ECC0E0EDC0E0C008C016
:1020340009C00AC00BC082C083C0F0759B009061C8
:1020440082E0A2E640030220F9E591A2E640030201
:1020540020F97591BF900719E06405700812100DFE
:102064001210198003121013752100121073E990D5
:10207400071AF07900121067120E4B7A017B009058
:102084000718E0F9120443907803E0644260030205
:1020940021429008B6E014F06003022142C2AF125C
:1020A40020A600782AD0E0F618D0E0F6E59F540781
:1020B400F9700590814E800390814A78081218893E
:1020C400E9C4C0E07829E65508F50808E65509F59D
:1020D40009740B7808121997D0E02508F8906270FB
:1020E400E0A2E740F8E8C333906272F0906270E0D7
:1020F400D2E0F08049E0A2E55024E591A2E5501E2B
:102104007591DF900719E0640D701390073BE004AC
:10211400F064287002E4F07A00E0F91210E59061AE
:1021240081E0A2E35009E5E9A2E3500375E9F7A3CE
:10213400E0A2E75009E591A2E7500375917FD0F042
:10214400D083D082D00BD00AD009D008D0E0FDD003
:10215400E0FCD0E0FBD0E0FAD0E0F9D0E0F8D0D059
:10216400D0E032C0E0C0D0C082C083906183E0A2DE
:10217400E05009E5BFA2E0500375BFFEE0A2E150C4
:1021840009E5BFA2E1500375BFFDE0A2E25009E5F5
:10219400BFA2E2500375BFFBE0A2E35009E5BFA272
:1021A400E3500375BFF7E0A2E45009E5BFA2E45091
:1021B4000375BFEFE0A2E55009E5BFA2E550037542
:1021C400BFDFE0A2E65009E5BFA2E6500375BFBF3A
:1021D400D083D0828088C0E0C0D0E8C0E0E9C0E00D
:1021E400EAC0E0EBC0E0ECC0E0EDC0E0C0F0E5A781
:1021F400A2E6500FE5A1A2E6500953A7BF75A1BFFF
:1022040012223FE5A7A2E5500CE5A1A2E550065332
:10221400A7DF75A1DFE5A7A2E15009E5A1A2E1507E
:102224000375A1FDE5A7A2E2500CE5A1A2E25006C8
:1022340053A7FB75A1FBD0F002215074F8121A7C4D
:10224400752101900719E064067015120FA18A82A6
:102254008B83A3A3A3A3A3A3E0FAA3E0FB120FFB26
:10226400A2AFE433FED2AF90071FE0640170187A86
:10227400207B00900718E0F91204CD7A207B0090AF
:102284000718E0F9120449906182E0D2E6F0900860
:10229400B5E0602185C622801690071EE0640170B7
:1022A40008E5C654F84405F5C653BEFC1220147460
:1022B40001652160E4EEA2E092AF7F01021B2800D9
:1022C4008E238F2485822885832785188285198308
:1022D400E0CEA3E0CF852882852783EBC9EAC8ED49
:1022E400CBECCA75F010C3E833C8E933C9EA33CA82
:1022F400EB33CBC3EA9EF526EB9FF525B35004AB35
:1023040025AA26EC33CCED33CDD5F0DAAE23AF24B9
:102314002274EB121A7C74FA1219B98A088B098C8C
:10232400148D15900719E024F7C394055006908185
:10233400A2022477120FA18A0A8B0BAE0AAF0BEE0E
:102344004F7003022474AC08AD0985188285198383
:10235400AA82AB8312102B8E828F83A3A3780812D8
:10236400188990816E7808121863851882851983FC
:10237400780C12188990816E780C12186378087999
:102384000C121324501F7808790C1218239081160C
:1023940078081213444047850810850911850A12EC
:1023A400850B138041850C10850D11850E12850F48
:1023B4001378107908121823908116781012134498
:1023C400501C7510007511007512007513017810FA
:1023D400790C121823781079081217EA8008908172
:1023E400A27810121889740978101217CB908112F0
:1023F4007808121889781079081216C68E828F838D
:10240400A3A3A3A3A3A3E0F8A3E0F97AD07B0312C8
:10241400192E88088909E4F50AF50B781079081251
:1024240017EA7404121A04E0F8A3E0F97AD07B03E3
:1024340012192EE8FA8A08E4F509781079081213BB
:1024440024500778107908121823900719E06408BB
:10245400600AE064066005E06405701C90810E78F3
:1024640010121344501290810A78101217FD80083C
:102474009081BA7810121889851482851583781092
:1024840012189874061219CF7F0E021B2874F712C3
:102494001A7C12103D9008B3E064017010906245FC
:1024A400E4F0A3F053F4F343FE0C5390F3120FE95A
:1024B400E5C654804449F5C6E59E547F644970F8E6
:1024C400906185740FF09008B1E0F47002A3E060AD
:1024D4004E9008B2E0600814601B14602E804075B2
:1024E40008017509009008B1E078081219A6E508FA
:1024F400F45280802A7508017509009008B1E078CB
:10250400081219A6E508F45290801475080175099B
:10251400009008B1E078081219A6E508F452A079F1
:10252400007F02021B2874F7121A7CE9FEEAFF748A
:10253400016E700C7A807B00900718E0F912044356
:10254400902864E493F46008E493F9120E3F800940
:1025540053C680E59E547F70FA120FEF9008B3E0E3
:1025640064017003120E579008B1E0F47002A3E006
:10257400604B9008B2E0600814601A14602C803D2F
:102584007508017509009008B1E078081219A6E5EC
:1025940008428080287508017509009008B1E07828
:1025A400081219A6E5084290801375080175090000
:1025B4009008B1E078081219A6E50842A012103D6F
:1025C400120FA18A088B09A808A909E8496015E532
:1025D400E170FCE82414F582E93400F583E0F4604A
:1025E40003E0F5E174016F700A7A01900718E0F9CD
:1025F40012049D02252574F1121A7C8A088B098C19
:102604000A8D0B740F121A04780C12188990816EBB
:10261400780812186390816E780C12186378087920
:102624000C12132450157808790C12182390811673
:102634007808121344401579018013780C79081234
:102644001823908116780C12134440EB79007F080C
:10265400021B2874ED121A7C8A088B098C0A8D0BD4
:102664007413121A04780C12188990816E78081267
:10267400186390816E780C121863780C7908121321
:102684002440117808790C121823AA08AB09AC0A63
:10269400AD0B8022751000751100751200751301C1
:1026A4007810790C121823781079081217EAAA10F6
:1026B400AB11AC12AD137F0C021B2890816E78080D
:1026C4001218898A828B8378081218767F04021B79
:1026D4002874F5121A7C8C828D8378081218898AE2
:1026E400828B83780812184FEA2404F8EB3400F93B
:1026F4008C828D83A3A3A3A3E0FCA3E0FD8882893D
:1027040083C3E09CF0A3E09DF088828983C3E094B6
:1027140020A3E0944E40229081B278081218898A4E
:10272400828B8378081218108A828B83A3A3A3A3B5
:10273400E02420F0A3E0344EF0808074F5121A7C7B
:10274400E9FE90086BE0FAA3E0FBEEC333F8E43350
:10275400F9748128F582748039F583E02AF508A399
:10276400E03BF5097808121C239081421218A71245
:1027740022C474021219CF8A088B098C0A8D0B7437
:102784001078081217B2AA08AB097F04021B287438
:10279400F1121A7C8A0C8B0D8C0E8D0F740F121A89
:1027A40004E0FAA3E0FB7411121A04E0F508A3E0B4
:1027B400F5097413121A04E0FEA3E0FF7808121C52
:1027C40023EA2401F508EB3400F509E4F50AF50BD6
:1027D400780C790812164690811A780812188978AC
:1027E4000C7908121646AA0CAB0DAC0EAD0F1222D2
:1027F400C474021219CF8B09EA450960047A018076
:10280400027A00EC2AFCED3400FDECF8EDF97A7163
:102814007B0212192E88088909E4F50AF50B8E82C9
:102824008F837808121898ECF8EDF97A717B02120C
:10283400192E8A088B09740578081219A68E828FBE
:1028440083A3A3A3A3E508F0A3E509F07F08021B73
:0F28540028C082C083E9906000F0D083D0822238
:10286400FFFFFFFFFFFFFFFFC082C083E9900C75ED
:10287400F0022A8B74F7121A10E9900637F07C6F75
:102884007D067AFF7BFF120B7B90063874FFF0A362
:10289400F0A3E4F0A3F07905120B09900637E0F9F0
:1028A400120A317A937B0B120D5502379974F41284
:1028B4001A108A088B09EB54806030900637E0F9CF
:1028C40012042B8A0A8B0BAE0AAF0BEE4F60138EE9
:1028D400828F83E064B07003120B1BEEFAEFFB12DD
:1028E4000419AA08E5096480FB80047A007B0002CD
:1028F4002A5A74F2121A1074FC1219B9EAFEEBFF88
:102904007412121A04123C80EE4F70030229997457
:1029140002121A04EEF0A3EF122C95ECF0A3ED12C0
:102924002C95AA82AB83120A2BE9F50A706AE50892
:10293400450960648E828F83123C66EE4F60567A3E
:10294400067B001204858A0C8B0DA80CA90DE8499E
:102954007005750A13804188828983E41229A6EEE2
:10296400F0A3EF123C91E508F0A3E509F090063DD1
:10297400122A2D90063D7005123743801B12373101
:102984008003EAFCEBFD8C828D83122A2D70F38C7C
:10299400828D8380E3750A02A90A74041219CF0296
:1029A4003E80F0A3123C37A32274F2121A10890A53
:1029B400E975F017A4FEAFF090063CE4F090063AF7
:1029C400122A2D600A12048B90063AE4F0A3F0EE6A
:1029D400FAEFFB1204858A088B09EA4509602FEE99
:1029E400FCEFFD790012040790063AE508F0A3E530
:1029F40009F07B008008122A17E4F0A3F00BEBC364
:102A0400950A40F2E50A90063CF0790080027913B9
:102A1400023E80EB75F017A4F8A9F090063AE0287E
:102A2400FAA3E0398A82F583221233D5EA4B227461
:102A3400F4121A107900EAA2E0501B7508EC75092B
:102A4400807808121C237C047D007A777B0C120B9F
:102A54000374021219CF7F04021AE2C082C0839069
:102A6400063D122A92601C88828983A3A3E06A70BF
:102A740003A3E06B8882898370E8A3A3A3A3123322
:102A8400D180047A007B00D083D082020135123FCA
:102A940066E8492274EE121A1074FC1219B9EAFE9F
:102AA400EBFF851882851983E4F0A3F0EE2402126B
:102AB4003723EE2405123C3EEE2404F50EEF1230CB
:102AC4004AE024FE603924FC604624FE605224FE61
:102AD400605E24FE7003022BAB24FE7003022C0FF5
:102AE40024FE7003022C1E24FE7003022C2D24FCF1
:102AF4007003022C3C24FE7003022C4B022C8890A1
:102B040006567417F0A3E4122C9D1207A9022C8810
:102B1400851882851983AC82AD83120B21022C584F
:102B2400851882851983AC82AD83120B27022C5839
:102B3400850C08850D097402121A04AC82AD8385D4
:102B440008828509831233D1120A4F8A0C8B0DAC8B
:102B54000CAD0DEC4D603BE4F50CF50D780C121C3E
:102B640023750C56750D06780C121C23750C5775BD
:102B74000D06780C121C237408121A04121C3A1243
:102B84003F8A1219CFE9F50C700B1233C71207C133
:102B9400800F750C01850882850983122C8B1237EE
:102BA40043850C08022C5B7402121A04AC82AD83B8
:102BB400850C82850D8312319C603C850C82850DC9
:102BC40083A3A3121C3A7510567511067810121CB3
:102BD400237510577511067810121C237408121AE5
:102BE40004121C3A123F8A1219CFE9F509700B122C
:102BF40033C71207C7800F750901850C82850D83C1
:102C0400122C8B123743850908804C85188285194C
:102C140083AC82AD83120B2D803A8518828519838B
:102C2400AC82AD83120B33802B851882851983AC5B
:102C340082AD83120B39801C851882851983AC827E
:102C4400AD83120B3F800D851882851983AC82AD4C
:102C540083120B45E9F508E50860298E828F83A36A
:102C6400E06414601F850E82850F83E0900656127F
:102C74002C95123F62900657123743E508A3122C95
:102C84009D1207A3023632123F6685188285198386
:102C940022F085188285198322F07C567D06850AE8
:102CA40082850B831233D52274EE121A1074FC122F
:102CB40019B98A0A8B0B8C0E8D0FEA2405F508EBE3
:102CC4003400F5097C157D0079007A567B061204E0
:102CD40007E5082402F50CE509123C4185188285B4
:102CE40019838582108583117810121C238508822C
:102CF400850983A3A3A3A3123193121C23E50824FB
:102D040005F510E5093400F5117810121C23850C23
:102D140082850D831234E8120A4974061219CF8A87
:102D2400108B11AE10AF11E50A2402F50AE50B125F
:102D34003726EE4F7003022E6A80177402121A04AB
:102D44001233D188828983EAF0A3EBF0900656E02F
:102D540004F0900656E0C394054003022E6AE4F59D
:102D640010F5117810121C2375103F751106781098
:102D7400121C237510407511067810121C2374065A
:102D8400121A04121C3A7910EEFCEFFD123F8C1259
:102D940019CFE9705E850882850983A3A3A3A3A341
:102DA400A3A3E0F890063FE0687048123193121C28
:102DB400237C407D06E5082408FAE5093400FB126B
:102DC400040174021219CFE960298E828F83A3A3B0
:102DD400A3A31233D1900656E0F5107402781012B2
:102DE40019A674572510F58274063511F583EAF097
:102DF400A3EBF07402121A048582108583117810F3
:102E0400121C237402121A04121C3A850C82850DBA
:102E1400831233F71219CF8A108B11AE10AF1190B1
:102E24000656E0F510751100740278101219A67494
:102E3400562510F874063511F988828983A3122A5D
:102E44002D7003022D36E82403080808E93400F93C
:102E5400EE4F6003022D3F8882898374FFF0A3F054
:102E6400900656E004F0900656E0600A1233C7124A
:102E740007B57900800B85088285098312373A7972
:102E84000A02363274EA121A1074FE1219B98C123C
:102E94008D13EA2405F50CEB123F74123C6A750895
:102EA40000750900EA2402F510EB3400F5118518C9
:102EB4008285198385820A85830B780A121C2385EF
:102EC4000C82850D83A3A3A3A3123060121C23E5F7
:102ED4000C2405F50AE50D123726780A121C238501
:102EE4000C82850D83123064120A4974061219CFBC
:102EF4008A0A8B0BEA450B7003023005EA2404F5B9
:102F04000EEB12304A123C6A8A828B83A3A3A3E09D
:102F1400F98510828511831233DB6003023005E4E6
:102F2400F514F5157814121C2375143F75150678DD
:102F340014121C237514407515067814121C23747E
:102F440006121A04121C3A7913AC0AAD0B851082CE
:102F5400851183123F921219CFE9F50960030230FB
:102F64000590063FE0F8E5087009E0240290065752
:102F7400F08014900657E0FCE82402FAE43400FBE5
:102F8400EA6C7001EB707E850882AA8212318A9401
:102F940014123182506B850E82850F83E0C0E07479
:102FA400582A123041D0E0F00508850E82850F833F
:102FB400A3E0C0E085080A7458250A123041D0E025
:102FC400F0050890063F123060121C237C407D06F9
:102FD40085080A7458250A1230541219CF90063FF6
:102FE400E02508F50874FF6E700374FF6F6012EE3D
:102FF40024010EEF3400FFE508C394145003022E9D
:10300400B2E50860131233E585108285118312330B
:10301400D11207BB79008014E509700375090A858C
:103024001282851383EEF0A3EFF0A909740212193A
:10303400CF7F0E021AE285080C7458250CF58274B1
:10304400063400F583223400F50F850E82F58322C1
:10305400FA74063400FB1203EF740222123CA0221D
:10306400A3A312306A22123731FDEEFAEFFB227469
:10307400EE121A1074FE1219B98C0E8D0FEA240583
:10308400F50CEB123C41750B00900656E4F0F50A82
:10309400EA2402F508EB3400F5098044900656E072
:1030A400FA90063FE0F812318A9417123182400DEB
:1030B400900656E0F87416C39890063FF0123193C8
:1030C400121C237C407D0674572AFA74061230576A
:1030D4001219CF90063FE0F8900656E028F0050A52
:1030E400E50C2416F582E50D123045E0F8E50AC337
:1030F400985074900656E0C39416506BE50AC33397
:10310400F8E433F9E50C28FEE50D39FF85188285CE
:103114001983AC82AD838E828F8312319C700875C3
:103124000B011237368050E4F510F5117810121C9B
:103134002375103F7511067810121C237510407505
:1031440011067810121C237406121A04121C3A7900
:1031540016850882850983123F921219CFE9F50B6F
:1031640070030230A080BB7C567D068508828509E9
:10317400831233D11207CDA90B7402023634E994B9
:1031840000C365D03322EA28F8E43400F9E822E0E9
:10319400F5107511007810221236298A108B11ACA3
:1031A40010AD11EC4D2274EA121A1074FC1219B904
:1031B4008A0C8B0D8C128D13EA2405F50AEB123759
:1031C40026750800750900E50A2402F510E50B349C
:1031D40000F5117402121A0485820E85830F780E8D
:1031E400121C23850A82850B83A3A3A3A3123C4646
:1031F400121C23E50A2405F50EE50B3400F50F78BF
:103204000E121C2385108285118312372C1233CBA6
:10321400120A4974061219CF8A0E8B0FAE0EAF0F25
:10322400E50C2402F50EE50D3400F50F8038888294
:10323400898374FFF0050812303A74FFF005089092
:10324400063FE0F50C750D00780C121C237C407DC4
:103254000685080C7458250C1230541219CF9006A8
:103264003FE02508F508EE4F60278E828F83A3A3E5
:10327400A3E0F9850E82850F831233DBEE2404125A
:103284003C3EE96027850C82850D831233BD1237DD
:1032940043E50870030233A31233E5850E82850FDC
:1032A400831233D11207D379000233B8E4F514F54D
:1032B400157814121C2375143F7515067814121C06
:1032C400237514407515067814121C237408121AF9
:1032D40004121C3A7911EEFCEFFD850E82850F83F2
:1032E400123F921219CFE9F509709A850882AA82D1
:1032F400EA90063F7009E02404900657F08025E028
:10330400F8900657E0F514E82404FCE43400FDECDE
:1033140065147001ED708112318A94121231824069
:103324000302329C850C82850D83E0C0E074582A28
:10333400123041D0E0F00508850C82850D83A3E0AE
:10334400C0E012303AD0E012340085820C85830D3F
:10335400780C121C237404121A04121C3A8510826D
:103364008511831233F71219CF8A0C8B0DAE0CAF73
:103374000D85080C7458250CF874063400F9EE4FCA
:103384007003023232851882851983E0888289832A
:10339400123400A3E0C0E012303AD0E0023240E53B
:1033A40009700375090A850A82850B831233BD12DD
:1033B4003743A9097404023032123F6685128285AC
:1033C4001383227C567D06850A82850B831233D5AE
:1033D40022E0FAA3E0FB221233D5120A37E9F509F9
:1033E40022900657E0F5F0E50884900656F07C56E6
:1033F4007D062212306A120A55740422F0050885EB
:1034040018828519832274EC121A1074FE1219B9E9
:103414008A088B098C0E8D0FEA2405FEEB3400FF1D
:10342400123613EE2418123C3EEA450B70030234A4
:10343400B61235FC50291234DB8A108B11EA45117F
:10344400606B7912AC0AAD0B85088285098312334F
:10345400D1851082851183121A0EE9F50A7058E499
:10346400F50AF50B780A121C238E828F83A3A3E03E
:10347400F50A780A121C23EE2403123723780A1261
:103484001C238E828F831234E8120B69740612197E
:10349400CFE9F50A7021850C82850D83E0701F85C4
:1034A40008828509831233D11207D98011750A0E57
:1034B4008009750A018004E50A6003123736850C19
:1034C40082850D83E0600479008002A90A740212E7
:1034D40019CF7F0C021AE28518828519831233D51D
:1034E400120B5722123731FD850882850983123366
:1034F400D52274EE121A1074FE1219B98A088B09B7
:103504008C0C8D0DEA2405FEEB3400FF750E0012C1
:103514003613EA450B70030235DA1235FC502C12CF
:1035240034DB8A0E8B0FEA450F604A7912AC0AAD80
:103534000B8508828509831233D1850E82850F831A
:10354400121A0EE9F50E60030235DD85088285093D
:1035540083123818AA0AFB1235EE70147AFF7BFF27
:103564001235EE606C88828983E50AF0A3E50BF0DE
:10357400750A008007750E0E805F050A90063CE010
:10358400FAE50AC39A504AE50A75F017A4FAABF0B3
:1035940088828983A3A3E02AFAA3E03BFB8A828B77
:1035A4008312372CEC4D70D2750A17750B00780A0C
:1035B400121C23EEFCEFFD1203EF74021219CFEE7E
:1035C400FCEFFD8508828509831233D11207DF8061
:1035D40014750E098003750E01123F5E850C8285F9
:1035E4000D83123743A90E02317D120B4B8A108BC7
:1035F40011A810A911E84922E5082402F508E509F3
:103604003400F5098A828B83A3A3A3E0A2E5228573
:103614001882851983AC82AD838E828F83123629FA
:103624008A0A8B0B22E0FAA3E0FB120A4F227404ED
:103634001219CF7F0A021AE274EC121A108C108D40
:1036440011EA2405F50CEB123C41750F00EA240243
:10365400F50AEB123726850A82F5831233D112401C
:10366400187003023718750E008071850C82850D61
:1036740083E06401704F8E828F83A3A3121C3A8E61
:10368400828F83A3A3A3A3E0F5127513007812120B
:103694001C23EE2405F512EF3400F5137812121CE6
:1036A400231233CB120B6974061219CFE9F50F609C
:1036B40014850C82850D83E4F0123F5E85108285AB
:1036C40011831237437C177D007900EEFAEFFB1269
:1036D40004078E828F83E4F0A3F0050E90063CE08D
:1036E400F8E50EC398501EE50E75F017A4F8A9F07E
:1036F400850882850983A3A3123F7E12372CEC4DE3
:10370400600302366F85088285098374FFF0A3F095
:10371400E50F70061233CB1207E5A90F0234D6F574
:103724000AEF3400F50B22A3123731FD22E0FCA38B
:10373400E0228E828F83123F66850E82850F83E896
:10374400F0A3E9F022C082C083900638E06A7003D7
:10375400A3E06B70067A387B0680047A007B000253
:103764002A8B74F7121A107F00EF75F003A4F8A9DE
:10377400F0EC28F8ED39F988828983E06A7003A3B4
:10378400E06B7006E8FAE9FB800B0FEFC39402408C
:10379400D87A007B007F01021AE274F6121A101222
:1037A4003D4F70067A007B008007A3A3A3A31233C6
:1037B400D1023E1074F2121A10E9FE740E121A04A9
:1037C4001238187410121A04123C808C828D83E013
:1037D4006402703BA3123F6288828983E0F50CA3E4
:1037E400E0F9A80C74026870037429697021750CDF
:1037F40002750D00780C121C237808121C23780A19
:10380400121C23EEF9120B8D74061219CF80027963
:1038140001023E80E0F50AA3E0F50B2274E8121AD7
:103824001074FB1219B9E9851882851983F08A1678
:103834008B178C0E8D0F741F121A04123C80742186
:10384400121A041238187423121A04123C6A7510DE
:10385400008C828D83A3A3A3E0A2E4502A741D12DA
:103864001A041234E18A828B83E582458370030251
:10387400392C790AAC0EAD0FAA16AB17121A0EE941
:10388400F510600302392F850E82850F83E06402F0
:103894006003023BE5A3123F62850882850983A386
:1038A400858212858313E50E2406F50CE50F123C80
:1038B4004188828983E0FAA3E0F9EA2400F514E45C
:1038C40039F5157814121CAD010000280128F438CC
:1038D40007000228CB3903283B390029F53A01298E
:1038E4001D3B0229C43A0329F53A0429863BE53BEA
:1038F400EE4F703E850C82850D83123C5BFAE9FB2A
:103904008A828B83E0850A82850B83123C97121C82
:10391400238A828B83A3123731FDAA08AB091203D1
:10392400EF74021219CF800375100EA910740502EA
:103934003F6C75100B80F4EE4F70F7850A82850B8F
:10394400837401F0123C70850882850983F07C0041
:103954007D00850E82850F83A3A3A3A3E02401FA2F
:10396400A3E03400FB120A4FEA4B60418A828B8346
:10397400E02402F8850A82850B83E028F0EA240417
:10398400F8EB3400F988828983E0851282851383F9
:10399400123CA9123C97121C238A828B8312372B68
:1039A400E5082403FAE5093400FB023922850A827A
:1039B400850B83E02404F07C047D007900AA12AB1B
:1039C4001312040702392FEE4F6003023936123CFA
:1039D40070FEA3E0FF850A82850B837404F0EE85F4
:1039E4000882850983F0EF851282851383F07403BE
:1039F400121A04AC82AD83EEFAEFFB123D3D700364
:103A0400023AA18A828B83A3A3123C667401121A20
:103A14000485820E85830F780E121C237405121AF6
:103A240004121C3A7CFF7DFF120A5574041219CF4C
:103A34008B0FEA450F7033850C82850D83123C464B
:103A4400121C23850C82850D83A3121C3A7C027DF3
:103A5400007AD97B8112088174041219CFE9700AA3
:103A64007401121A0474FFF0A3F08E828F83E06451
:103A7400027034750C02750D00780C121C238E82B2
:103A84008F8312372BE5082404FAE5091230571204
:103A940019CF850A82850B83E02402800974011200
:103AA4001A04EEF0A3EFF07401121A04123C57F05A
:103AB4007401121A04A3123C4FA3A3A3F002392FDA
:103AC400EE4F6003023936850C82850D8312372C44
:103AD400AA16AB17120B81850A82850B837402F038
:103AE400EA850882850983F0851282851383EB8039
:103AF400CBEE4F6003023936123C70F8A3E0F9852F
:103B04000A82850B837402F0E8850882850983F0B4
:103B1400E985128285138380A3850C82850D831227
:103B240033D11203E9EAFC8C82A882C39EE49F404D
:103B34004BE86E7001EF70047C00801F851882854D
:103B44001983E0FAEE2AFAEF3400FBC3EA98EB9407
:103B5400005003E08004EECCC39CFCEC850A828513
:103B64000B83F08C0A750B00780A121C23850C82D7
:103B7400850D83E02EFCA3E03F02391D751007027A
:103B8400392FEE4F6003023936850C82850D83127E
:103B94003F62850A82850B837407F08882898312C9
:103BA4003C4F123C37E0851282851383F0E82402EF
:103BB400FAE93400FB8A828B83123C4F123C881250
:103BC4003C57A3123C91123C60F0E82405F8E93418
:103BD40000F988828983123C60A3123CA9A3023AAB
:103BE400BD741D121A04123D48700302392C123F91
:103BF40062880C890DE8450D700302392C8E108FF4
:103C0400117810121C23780A121C237808121C2322
:103C14007406121A04E0F9AC0EAD0FAA16AB1785A0
:103C24000C82850D83121A0E74061219CFE9F51051
:103C340002392FF088828983A322F50CEF3400F532
:103C44000D22E0F50E750F00780E22E085088285BE
:103C5400098322123CB022123F66E822123CB0A330
:103C6400A322A3A3A3A3E0FEA3E0FF22850C8285E5
:103C74000D83E0F8A3E0F5838882E022E0F508A351
:103C8400E0F50922A3A3F08A828B83A3221229A838
:103C9400A3A322F08A828B83123CA022E0F50A754A
:103CA4000B00780A22123C37123CB022E0850882CD
:103CB400850983A3A32274EE121A1074FE1219B993
:103CC4008A0A8B0BECFAEDFB7414121A04E0F5105B
:103CD400A3E0F5117416121A04E0FE7418121A0403
:103CE400E0F50EA3E0F50F851882851983AC82AD4B
:103CF40083123D3D603E851882851983123D4860DC
:103D04002FA3A3123C80E50845096024780E121CF9
:103D1400237810121C23EEF9AC0CAD0DAA0AAB0BE0
:103D2400850882850983121A0E74041219CF80063D
:103D3400790E8002790102317D120A4F8A0C8B0DB3
:103D4400EA450D221233D5123D4F22120B158A82F9
:103D54008B83E58245832274F6121A1074FE1219BD
:103D6400B9740C121A04123C5B851882851983F00D
:103D74007401121A04E9F0E4F508F5097808121C34
:103D8400237508027808121C237404121A0485820D
:103D9400088583097808121C23120B69740612190A
:103DA400CF74021219CF806474F7121A10EAFEEB72
:103DB400FF89087C6F7D06120B81EA5402600BA90F
:103DC40008EEFAEFFB120A43800279010237997474
:103DD400F6121A1074FF6A700374FF6B701C7B0078
:103DE400EB75F003A4F8A9F0EC28F8ED39F9123ECC
:103DF400150BEBC39402501480E6120B518A088B06
:103E040009A808A909E8496003123E157F02021AAD
:103E1400E28882898374FF1229A6E4F02274F612E0
:103E24001A10120B518A828B83E58245836006A3A4
:103E3400A3E0FA80027A007B0080D174F2121A1097
:103E44008A088B09ECFEEDFF740E121A04E0F50AE1
:103E5400123E85701CEEFCEFFD7AFF7BFF123E855F
:103E640070047911801688828983E508F0A3E50936
:103E7400F088828983A3A3E50AF079007F06021AF9
:103E8400E2120B518A0C8B0DA80CA90DE84922747F
:103E9400EE121A10EAFEEBFF8C088D09890C7412DD
:103EA400121A04123F627414121A0412372C741674
:103EB400121A041233D1750D00EC4D6003023F5603
:103EC4007402650C6003023F518882898312373182
:103ED400F9EC2400F50EE439F50FEAF4F8EBF4F903
:103EE400EC58F8E50F59F9E849705DE5082406F83F
:103EF400E5093400F9880A890B8882F58312306653
:103F0400120B818A108B11E50E65107004E50F65A4
:103F1400116042780E121C23850A82850B831230AD
:103F240066120B8774021219CFE9F50D7027780E0B
:103F3400121C23850882850983A3A3123064120B03
:103F44009974021219CF800D750D808008750D0DBE
:103F54008003750D0BA90D0236378E828F83123FB5
:103F64006622E0F8A3E0F9221219CF7F10021AE2C8
:103F74003400F50D850C82F58322E028FEA3E03998
:103F8400FF8E828F83227916850A82850B831233F2
:103F9400D5120B6374082274F2121A10EAFEEBFFB6
:103FA400890B7401650B600E7402650B70637901F3
:103FB400120D73E9705BEEFAEFFB1240186047755F
:103FC4000A00800B7C177D007900120407050A9013
:103FD400063CE0F8E50AC3985021E50A75F017A4F9
:103FE400F8A9F0850882850983A3A3E028FAA3E051
:103FF40039FB8A828B83122A9270C98508828509CB
:104004008374FFF0A3F07C6F7D06EEFAEFFB120BD6
:104014007B023E80120B4B8A088B09EA4509227405
:10402400F2121A108A088B09ECFEEDFF740E121AB4
:1040340004123818900C75E0F4603D7A097B001284
:104044000413EA4B60328A828B8374B1F0A3E412C6
:104054003C8AA3123C88A3E508F0A3E50912407F3B
:10406400EEF0A3EF12407FA3A3E50AF0A3E50BF063
:10407400900C75E0F912041F023E80F08A828B8353
:10408400A3A3A3A3A322C082C0839061907404F06D
:10409400A37448F0A37402F09061807440F09061BE
:1040A400BC7403F09061877419F0906265741BF01E
:1040B40090619C740DF090619A7433F0A37455F080
:1040C4009061A0743AF09008B3E064017009C29161
:1040D40090071D7467800590071D7461F090286A2D
:1040E400E493906186F0902864E493F46027E49369
:1040F400540FF8906185E0686012E5C65480444925
:10410400F5C6E59E547F644970F8E8F053C680E52F
:104114009E547F70FA79051210C70242CCC082C047
:1041240083E9540FF9906185E0696012E5C6548013
:104134004449F5C6E59E547F644970F8E9F053C6D6
:1041440080E59E547F70FA0242CCC082C083E5A809
:10415400F853A87E906181E4F0A3F0A3F0C2BA53AF
:104164009AFEC289759B00C2C275E90075910075FB
:10417400BF0075A91175B905906181F0A374C0F0F1
:10418400A3E4F0D2BA439A0174805842A80242CC04
:10419400C082C08374F81219B990071BE0F8A3E039
:1041A400F9E84970030242C290071BE054406023BF
:1041B4007908851882851983AA82AB83120F2F850B
:1041C4001882851983AA82AB83120C0590071BE021
:1041D40054BFF0E054806010790C7AD77B08120F3A
:1041E4002F90071BE0547FF0E0A2E0503190619AD9
:1041F4007433F0A37455F09061A0743AF09008B34E
:10420400E064017009C29190071D746780059007EE
:104214001D7461F0120C0B90071BE054FEF0E05487
:1042240002603190619A743FF0A3745AF09061A0D7
:10423400747FF09008B3E064017009D29190071D77
:104244007471800590071D746AF0120C0B90071BA3
:10425400E054FDF0E054046013902868E493906106
:1042640086F0120C1190071BE054FBF0E054086038
:1042740013902869E493906186F0120C1190071B47
:10428400E054F7F0E05410601390286AE4939061CE
:1042940086F0120C1190071BE054EFF0E0542060FC
:1042A4000A120C1190071BE054DFF0A3E0540160E4
:1042B4000D120E57120C1790071CE054FEF07408F0
:1042C4001219CF8003F0A3F0D083D0820201357499
:1042D400EC121A1074F41219B9851882851983AC7A
:1042E40082AD8375838175826674041218CC90281C
:1042F4006893F46003024460907808E0C394025029
:10430400030244407404121A04AC82AD83758380A2
:104314007582D774081218CC851882851983858212
:10432400128583137404121A04AC82AD83750EFFD4
:10433400750FFF7FFF7E00750C48750D788015742E
:10434400086E70030243D374096E70030243D3747E
:104354000A6E607B850C82850D8378081218898C1F
:10436400828D83A909E50AC9F8881074187808129F
:1043740017B2E5104508F8C3E098A3E099850C82CC
:10438400850D83780812188940188C828D837418DF
:1043940078081217B2E5104508F8E0C398F8A3E0CE
:1043A400801C741878081217B2E5104508FAE9FB66
:1043B4008C828D83E0F8A3E0F9EAC398F8EB99F9CD
:1043C400C3E8950EE9950F5006880E890FEEFF0E8F
:1043D400E50C2404F50CE50D3400F50DEEC394133F
:1043E400500302434374FF650E700474FF650F604D
:1043F400238F08740278081219A674482508F582D8
:1044040074783509F5837808121889851282851322
:1044140083E508F0EC24020C0CED3400FD851282D7
:10442400851383A3858212858313740C121A04E501
:10443400826C7003E5836D60030243317508017576
:1044440009007808121C237402121A04AC82AD838A
:104454007A1A7B0A12068974021219CF740C121983
:10446400CF7F0C021AE2C082C0839061AE7468F000
:10447400A3746AF090624574FBF0A304F053F4FD56
:1044840043FE029008B37401F09061A0E0643A9096
:10449400619A70237433F0A37455F09061A0743A58
:1044A400F0740164017009C29190071D746780283B
:1044B40090071D74618021743FF0A3745AF09061D9
:1044C400A0747FF0740164017009D29190071D7487
:1044D40071800590071D746A0242CB7F04021AE2C0
:1044E400C082C083900865E06401700A90086AE0A5
:1044F4006004790C800279000242CCC082C08375CA
:10450400E1F1900868E06055146008146059146083
:10451400518059120E6990085EE0F97A5F7B0812A7
:10452400104990815E1218A712107F9081AA121868
:10453400A7121055900869E0F91210617901121060
:10454400BB90085CE02416F8A3E03400F988828963
:10455400837481F0A3740EF079000242CC120E6FC2
:1045640080B4120E7580AF120E7B80AA791280EA95
:1045740074F4121A1075D90D90084DE0A2E0E433DA
:104584001313F890085EE0C4333354C0484401F573
:10459400D9785C790888828983A3A3A3E0F5D988B4
:1045A400828983A3A882A983E864627003E964080A
:1045B40070E3784D790888828983A3E0F5D98882ED
:1045C4008983A3A882A983E864537003E96408700B
:1045D400E575E19590084DE0F97A4E7B0812104F8D
:1045E400900C977415F0A3740EF0A37477F0A37471
:1045F4000FF0A37477F0A3740FF0A37477F0A3748F
:104604000FF0A3741BF0A3740EF0A37477F0A374DB
:104614000FF0A37433F0A3740EF0900CA57477F02C
:10462400A3740FF0A37477F0A3740FF0A37477F05E
:10463400A3740FF0A37477F0A3740FF0A37477F04E
:10464400A3740FF0A37477F0A3740FF090085CE0E8
:10465400F8A3E0F5838882A3A378081218899081CF
:104664005A78081217FD90816E7808121863900822
:104674005CE0240EF8A3E03400F98882898378088A
:1046840012189890085CE02414F8A3E03400F98828
:104694008289837413F09007197402F00244DFC016
:1046A40082C08390086EE02407F5D990085EE0C4C8
:1046B400333354C0F5D9785C790888828983A3A3FD
:1046C400A3E0F5D988828983A3A882A983E86462D8
:1046D4007003E9640870E390086EE0601F785C7909
:1046E40008FAE82413F582E93400F583E0F5D98863
:1046F400828983A3A882A9831AEA70E690088EE0CF
:104704002407F5D990085EE0C4333354C04404F55B
:10471400D9785C790888828983A3A3A3E0F5D98832
:10472400828983A3A882A983E864627003E9640888
:1047340070E390088EE0601F785C7908FAE824330F
:10474400F582E93400F583E0F5D988828983A3A84A
:1047540082A9831AEA70E675E195900C977421F0AA
:10476400A3740EF0A37477F0A3740FF0A37477F01E
:10477400A3740FF0A37477F0A3740FF0A3741BF069
:10478400A3740EF0A37477F0A3740FF0A37433F042
:10479400A3740EF0900CA57477F0A3740FF0A374B7
:1047A40077F0A3740FF0A37477F0A3740FF0A374DD
:1047B40077F0A3740FF0A37477F0A3740FF0A374CD
:1047C40077F0A3740FF09081B21218A790085CE000
:1047D400240EF8A3E03400F9888289831218B39078
:1047E400085CE02414F8A3E03400F9888289837417
:1047F40012F090071974010242CBC082C083900862
:104804006EE02407F5D990085EE0C4333354C04405
:1048140002F5D9785C790888828983A3A3A3E0F59B
:10482400D988828983A3A882A983E864627003E992
:10483400640870E390086EE0601F785C7908FAE819
:104844002413F582E93400F583E0F5D9888289835D
:10485400A3A882A9831AEA70E675E195900C97746F
:104864002DF0A3740EF0A3742DF0A3740EF0A374B2
:104874002DF0A3740EF0A3742DF0A3740EF0A374A2
:104884002DF0A3740EF0A3742DF0A3740EF0A37492
:1048940033F0A3740EF0900CA57477F0A3740FF0AA
:1048A400A37477F0A3740FF0A37477F0A3740FF0DC
:1048B400A37477F0A3740FF0A37477F0A3740FF0CC
:1048C400A37477F0A3740FF09081B21218A7900824
:1048D4005CE0240EF8A3E03400F98882898312187E
:1048E400B390085CE02414F8A3E03400F9888289CA
:1048F400837414F090071974040242CBC082C083FD
:1049040090086EE02407F5D990085EE0C433335470
:10491400C04406F5D9785C790888828983A3A3A367
:10492400E0F5D988828983A3A882A983E8646270A8
:1049340003E9640870E390086EE0601F785C79080E
:10494400FAE82413F582E93400F583E0F5D9888286
:104954008983A3A882A9831AEA70E690088EE024CA
:1049640007F5D990085EE0C4333354C04404F5D944
:10497400785C790888828983A3A3A3E0F5D9888227
:104984008983A3A882A983E864627003E964087038
:10499400E390088EE0601F785C7908FAE82433F528
:1049A40082E93400F583E0F5D988828983A3A8825B
:1049B400A9831AEA70E675E195900C977427F0A321
:1049C400740EF0A37477F0A3740FF0A37477F0A3BC
:1049D400740FF0A37477F0A3740FF0A37477F0A3AB
:1049E400740FF0A37477F0A3740FF0A37433F0A3DF
:1049F400740EF0900CA57477F0A3740FF0A3747781
:104A0400F0A3740FF0A37477F0A3740FF0A374777A
:104A1400F0A3740FF0A37477F0A3740FF0A374776A
:104A2400F0A3740FF09081B21218A790085CE024F0
:104A34000EF8A3E03400F9888289831218B3900831
:104A44005CE02414F8A3E03400F9888289837415A7
:104A5400F090071974030242CBC082C08390085CB3
:104A6400E0F8A3E0F5838882A3A3A3A3A3A3E402AD
:104A740042C974F7121A10900747E0F875F004A4BD
:104A8400C8AAF02AF9744928F8740739F9E8240502
:104A9400FAE93400FB8A828B83E0FCA3E0FD888280
:104AA4008983A3A3A3A3A3A3A3A3A3ECF0A3EDF0DF
:104AB40088828983A3A3A3A3A3A3A3E024FFF8A3C9
:104AC400E034FFF98A828B83E8F0A3E9024D1B747A
:104AD400F7121A10EAFEEBFF9061D0E06003024B7C
:104AE400B075D90E75D90375D904EE248CF582EF0F
:104AF4003400F583E5822408F8E5833400F9E0F511
:104B0400D9A3E865827003E9658370F2EE2484F525
:104B140082EF3400F583E5822404F8E5833400F958
:104B2400E0F5D9A3E865827003E9658370F275E165
:104B3400957908EE248CFAEF3400FB120F237904E4
:104B4400EE2484FAEF3400FB120F237C00EEF8EF1E
:104B5400F9ECFAC3E49AFA95E0FBEE2AFAEF3BFB90
:104B6400EA248BF582EB3400F583E0C0E0E824AB63
:104B7400F582E93400F583D0E0F00C88828983A3C0
:104B8400A882A983ECC3940840C7EE2470F582EF91
:104B94003400F583E0F8A3E0F9EE2472F582EF34F3
:104BA40000F583E8F0A3E9F0790180027900024D71
:104BB4001CC082C08375D90275D90375D90575E106
:104BC40095EA2470F582EB3400F583E0F8A3E0F96C
:104BD400EA2472F582EB3400F583E8F0A3E9F07976
:104BE400010242CC74F6121A10EAFEEBFF9008B7E9
:104BF4007406F07508B77509087808121C237C013F
:104C04007903120F6B74021219CF75D90675D90383
:104C14007582B7758308E0F5D9A3E58264BC700496
:104C2400E583640870F075E195900719E0640870F5
:104C34001EEE2470F582EF3400F583E0F8A3E0F96A
:104C4400EE2472F582EF3400F583E8F0A3E9F079FD
:104C540001024DE874F6121A10EAFEEBFF9061D0DF
:104C6400E0706678019008B7740BF0900719E0645F
:104C74000770197508B77509087808121C237C0198
:104C84007903120F6B74021219CF7805740128F599
:104C9400D975D9037582B7758308E8FAE0F5D9A305
:104CA4001AEA70F875E195EE2470F582EF3400F598
:104CB40083E0F8A3E0F9EE2472F582EF3400F58383
:104CC400E8F0A3E9F0790180027900024DE874F775
:104CD400121A10EAFEEBFF75D90375D90375D90DC5
:104CE400EE24DEF582EF3400F583E0F5D975E19525
:104CF4007904121085EE2470F582EF3400F583E018
:104D0400F8A3E0F9EE2472F582EF3400F583E8F0BD
:104D1400A3E9F079018001F07F01021AE274F6122E
:104D24001A10EAFEEBFF9061D0E0F87480C398FAA1
:104D3400EE2483F582EF3400F583E0600478048088
:104D4400027800E8240BF8EAC3985003024DE67D8C
:104D5400099008B7EDF0EE24E3F8EF3400F97AB8DF
:104D64007B087C0888828983E08A828B83F088822E
:104D74008983A3A882A9838A828B83A3AA82AB8313
:104D84001CEC70E0EE2483F582EF3400F583E060E0
:104D94001D7508B77509087808121C237C09790366
:104DA400EEFAEFFB120F6B74021219CF7D0D740132
:104DB4002DF5D975D9037582B77583088D08E0F58B
:104DC400D9A31508E50870F675E1957904121085E4
:104DD400EE241DF582EF3400F583E4F0A3F07901AD
:104DE400800279007F02021AE274F6121A10EAFEB7
:104DF400EBFF9061D0E0F87480C398FAEE2483F559
:104E040082EF3400F583E06004780480027800E8DF
:104E14002408F8EAC3985003024EED7D069008B7C3
:104E2400740CF0900736E09008B8F07A377B077876
:104E3400B979087C028A828B83E088828983F08A2C
:104E4400828B83A3AA82AB8388828983A3A882A945
:104E5400831CEC70E07A397B077C028A828B83E0C6
:104E640088828983F08A828B83A3AA82AB83888217
:104E74008983A3A882A9831CEC70E0EE2483F582C5
:104E8400EF3400F583E0601D7508B77509087808EC
:104E9400121C237C067903EEFAEFFB120F6B7402EB
:104EA4001219CF7D0A74012DF5D975D9037582B70E
:104EB4007583088D08E0F5D9A31508E50870F67523
:104EC400E1957904121085EE2470F582EF3400F533
:104ED40083E0F8A3E0F9EE2472F582EF3400F58361
:104EE400E8F0A3E9F0790180027900024DE874F654
:104EF400121A10EAFEEBFF9061D0E0F87480C398B8
:104F0400FAEE2483F582EF3400F583E0600478043C
:104F140080027800E82404F8EAC3985003024FCCD6
:104F240078029008B7E8F0EE24F5F582EF3400F546
:104F340083E09008B8F0EE2483F582EF3400F58323
:104F4400E0601B7508B77509087808121C237C02F9
:104F54007903EEFA120F6B74021219CF78067401FA
:104F640028F5D975D9037582B77583088808E0F5E3
:104F7400D9A31508E50870F675E195EE2474F58259
:104F8400EF3400F583E4F0EE2480F582EF3400F58D
:104F940083E4F0EE241DF582EF3400F583E4F0A3FE
:104FA400F07904121085EE240DF582EF3400F583B8
:104FB400E0F8A3E0F9EE2472F582EF3400F583E81B
:104FC400F0A3E9F0790180027900024DE874F61249
:104FD4001A109061D0E0F87480C398FCEA2483F539
:104FE40082EB3400F583E06004780480027800E802
:104FF4002404F8ECC398405B79029008B77407F076
:10500400EA24F6F582EB3400F583E09008B8F0EA80
:105014002483F582EB3400F583E060187508B775D6
:1050240009087808121C237C0209120F6B740212FF
:1050340019CF7906740129F5D975D9037582B77525
:105044008308E9F8E0F5D9A318E870F875E19579D3
:105054000180027900024DE874F5121A10E9FCA2ED
:10506400AFE433F50AC2AF7D0080010DEA246FF589
:1050740082EB3400F583E0F8EDC398501A8D08EA0A
:105084002508F8EB3400F9E8246BF582E93400F5DF
:1050940083E06C70D68024EA246FF8EB3400F9E0E6
:1050A400FEEA2EFAEB3400FBEA246BF582EB3400C3
:1050B400F583ECF088828983E004F0E50AA2E092AB
:1050C400AF7F03021AE274F6121A10A2AFE433FDA2
:1050D400C2AFEA246FF582EB3400F583E014F07C70
:1050E4000060368C08EA2508F8EB3400F9E8246CF3
:1050F400F582E93400F583E0C0E0E8246BF582E949
:105104003400F583D0E0F00CEA246FF582EB340030
:10511400F583E0F8ECC39840CAEA246EF582EB34D8
:1051240000F58374FFF0EA246AF582EB3400F5831A
:10513400E4F0EDA2E092AF024DE8C082C083E5A89E
:10514400F8C2AFEA246BF582EB3400F583E9F0EAA8
:10515400246AF582EB3400F583E4F0E8A2E792AF29
:105164000242CC74F3121A10EAFEEBFFECFAEDFBE8
:105174008A828B83A3A3A3A3E0541FF0EE2436F505
:1051840082EF3400F583E4F0F50AEEFCEFFD8A8249
:105194008B83E0C0E0EC245DF582ED3400F583D030
:1051A400E0F0750B00E50A33333354F8F50C8A82CA
:1051B4008B83E0F508750900E50B7808121987E57B
:1051C40008A2E0502FEE2436F8EF3400F9888289E3
:1051D40083E0F508EE2508F508EF3400F509E50845
:1051E4002438F582E5093400F583E50CF0888289DA
:1051F40083E004F0050B050CE50BC3940840AF05F0
:105204000A8A828B83A3AA82AB838C828D83A3AC0C
:1052140082AD83E50AC3940550030251927F0502CF
:105224001AE274F7121A10900745E0640170077AC5
:10523400007B0002539D7E0090074BE070F17401E7
:10524400F0A3E4F0A3F09007AB04F09007AEE4F011
:10525400A3F09007B104F090074EE4F0A3F0A3F09C
:10526400A3F090075804F090077EE4F09081BA12FE
:1052740018A79007611218B3900765E4F0A3F0A390
:10528400F09007C9F09007BDF09007B27480F0A3C6
:10529400E4F09007B8F09007B0F0900834F0A3F071
:1052A400A3F0A3F0A3F0A3F0A3F0A3F090083DF0C3
:1052B4009007CCF090081CF0A3F09081BA1218A7C4
:1052C40090081E1218B39081BA1218A790082212DF
:1052D40018B3900828E4F090082AF0900826F0907B
:1052E4000840F0A3F0A3F0A3F0A3F0A3F0A3F0A36D
:1052F400F078457907E8246FF582E93400F5837482
:10530400FFF00E88828983A3A882A983EEC3940444
:1053140040E37A457B077854790888828983E0C022
:10532400E0EA2461F582EB3400F583D0E0F0888272
:105334008983A3A882A9838A828B83A3AA82AB834D
:10534400E864597003E9640870D07A457B07782CC7
:10535400790788828983A3E0C0E0EA24E7F582EB39
:105364003400F583D0E0F088828983A3A882A983DE
:105374008A828B83A3AA82AB83E864347003E964D2
:105384000770CF900745E004F06401700890074D62
:10539400E0900747F07A497B07024D1CC082C08326
:1053A40090074CE4F090074BF0900745F0A3F0A36E
:1053B40074FFF075E1F10242CCC082C083780079B9
:1053C4000090074CE060047849790788828983A3B8
:1053D400A3A3A3E0F90242CC74F6121A10EAFEEB7E
:1053E400FF8E828F83A3A3A3E0600F8E828F83A39B
:1053F400A3A3E4F0900746E014F0900745E014F00E
:10540400700690074774FFF08E828F83A3A3E4F0A5
:10541400900859E0700D900746E06401700579002A
:10542400121067EE2465F582EF3400F583E0F8A3EB
:10543400E0F9E8496029EE2465F8EF3400F98808BA
:1054440089098882F583E0FCA3E0FD900747E0FA30
:105454007B00120C3B850882850983E4F0A3F0EEFF
:10546400FAEFFB120F9B024DE874F7121A10EAFED2
:10547400EBFF8E828F83A3A3A3A3E0FA7B00120C1D
:105484007DEEFAEFFB120EED120F83024D1CC0826B
:10549400C083782C790788828983A3E4F088828981
:1054A40083A3A882A983E864347003E9640770E6DF
:1054B40090072D0247F974F6121A10EAFEEBFFEC7E
:1054C4002403F8ED3400F988088909EC2407F8ED81
:1054D4003400F9E8FCE9FD8C828D83E0F8A3E0F95F
:1054E400850882850983E0FAA3E0FB12192EEE24D5
:1054F4000DF582EF3400F583E8F0A3E9F08C828D9A
:1055040083E0F8A3E0F9850882850983E0FAA3E043
:10551400FB12192E8B09EA45096013EE240DF5825E
:10552400EF3400F583E02401F0A3E03400F0024DF1
:10553400E874F6121A10EAFEEBFFEE242EF582EF61
:105544003400F583E0FCA3E0FD780079FAECFAED91
:10555400FB12192EEE2470F582EF3400F583E8F087
:10556400A3E9F0780079FAECFAEDFB12192E8B0915
:10557400EA45096013EE2470F582EF3400F583E008
:105584002401F0A3E03400F0024DE874F0121A1084
:10559400EAFEEBFF7410121A04780812188912102C
:1055A400258A0C8B0D8C0E8D0F908156780C12175A
:1055B400FD90816E780C121863780C121C1F8E8279
:1055C4008F83E0F8A3E0F5838882A3A31218A712BF
:1055D40025FA74041219CFE960030256DC8E828F17
:1055E40083E02402F8A3E03400F9E8FAE9FB8A82B4
:1055F4008B83780812181090816E78081218898AA3
:10560400828B837808121876EE240BF582EF34002F
:10561400F583C082C0838E828F83A3A3A3A3A3E058
:105624002401F8A3E03400F9D083D082E068700349
:10563400A3E069700579010256DE8E828F83A3A3ED
:10564400A3A3A3A3A3E02401F0A3E03400F0EE2479
:1056540074F582EF3400F583E064017036EE24754E
:10566400F582EF3400F583E0F8A3E0F98E828F83AE
:10567400A3A3A3A3A3A3A3E0687003A3E069701387
:10568400EE2475F582EF3400F583E02401F0A3E005
:105694003400F0EE2480F582EF3400F583E06401F9
:1056A4007036EE2481F582EF3400F583E0F8A3E050
:1056B400F98E828F83A3A3A3A3A3A3A3E06870039B
:1056C400A3E0697013EE2481F582EF3400F583E0E2
:1056D4002401F0A3E03400F079007F08021AE27498
:1056E400F7121A10900747E0F875F004A4C8AAF05E
:1056F4002AF9744928FE740739FF8028EE2465F8D6
:10570400EF3400F988828983E0FCA3E0FD88828974
:1057140083E4F0A3F08E828F83A3A3A3A3E0FA7B98
:1057240000120C3BEE2465F582EF3400F583E0F8BB
:10573400A3E0F9E849604FEE2464F582EF3400F504
:1057440083E0F5087808121C27EE2463F582EF3411
:1057540000F583E0F9EE2465F582EF3400F583E08B
:10576400FCA3E0FDEEFAEFFB120F1774011219CF40
:10577400E96089EE2465F582EF3400F583E0F8A34F
:10578400E0F9E84970137C007D008E828F83A3A327
:10579400A3A3E0FA7B00120C3B024D1C74F2121A14
:1057A40010EAFEEBFF890A740E121A04E0FAEE24E2
:1057B40062F582EF3400F583E06401600302586C03
:1057C4009061D0E0F87480C398F50CEE2483F582E0
:1057D400EF3400F583E060047804800278008908DF
:1057E400E928F8E43400F9E824020808E93400F967
:1057F400E50C98E499A2D265D0334068EA70057547
:105804000B028003750B01E06039750900780812FA
:105814001C237AB77B08120F4D74021219CF750836
:10582400B77509087808121C23AC0AA90BEEFAEF25
:10583400FB120F6B74021219CF7404250AF50A7C4B
:10584400B77D087401250AF5D9850BD9E50A600DE1
:105854008C828D83F8E0F5D9A318E870F875E1958A
:10586400790080067907800279FF7F06021AE2C078
:1058740082C083E960208C828D83E08A828B83F0EE
:105884008C828D83A3AC82AD838A828B83A3AA820C
:10589400AB8319E970E0ECFAEDFB0242CC74EA1236
:1058A4001A10907803E06442705E9008B6E014F039
:1058B4007056C2AF1258BB00782AD0E0F618D0E078
:1058C400F6E59F5407F9700590814E800390814A54
:1058D4007808121889E9C4C0E07829E65508F50863
:1058E40008E65509F509740B7808121997D0E025D4
:1058F40008F8906270E0A2E740F8E8C3339062725F
:10590400F0906270E0D2E0F0900747E0F470030298
:105914005CC4E0F875F004A4C8AAF02AF974492814
:10592400FE740739FFEE2402F582EF3401F583E0BB
:10593400F8A3E0F9E849601EEE2402F582EF340191
:10594400F583E0FAA3E0FBEE2401F582EF3401F5E0
:1059540083E0F91204438E828F83A3A3A3A3A3A39A
:10596400A3E0F8A3E0F98E828F83A3A3A3A3A3E803
:10597400F0A3E9F0906054E0900720F0906055E0C7
:10598400900721F0906056E0900722F0906057E075
:10599400900723F0906058E0900724F0906059E05D
:1059A400900725F090605AE0900726F090605BE045
:1059B400900727F090605CE0FC900728F090605D11
:1059C400E0FB900729F090605EE0FD90072AF090DC
:1059D400605FE0FA90072BF0900726E08C0825081A
:1059E400F8E43400F98D08E82508F8E93400F98B67
:1059F40008E82508F8E93400F98A08E82508FAE9EE
:105A04003400FBEE24F7F582EF3400F583E02AF04E
:105A1400A3E03BF08C08EE24F9F582EF3400F58323
:105A2400E02508F0A3E03400F0EE24FBF582EF3427
:105A340000F583E02401F0A3E03400F0EE24FFF548
:105A440082EF3400F583E0F8A3E0F9E8496042907E
:105A54006000E0C333FCE433FDE82CF582E93DF556
:105A640083E02AF0A3E03BF0906000E0FA9007287E
:105A7400E0FCEAC333FAE433FBE82AF8E93BF9E84B
:105A8400244AF582E93400F583E02CF0A3E03400E5
:105A9400F0900726E07011900729E0700BA3E070E6
:105AA40007A3E07003025BA48E828F83A3A3A3A346
:105AB400A3E0F8A3E0F9EE240DF582EF3400F583BA
:105AC400E028F8A3E039F9EE240BF582EF3400F571
:105AD40083E8F0A3E9F0EE240FF582EF3400F583B8
:105AE400E4F0EE241CF582EF3400F583E0640170E9
:105AF4001EEE2420F582EF3400F583E0F8A3E0F9EC
:105B0400EE241DF582EF3400F583E8F0A3E9F0906C
:105B14000721E06052EE241CF582EF3400F5837413
:105B240001F0EE246AF582EF3400F583E07038EE7C
:105B34002474F582EF3400F583E0702BEE2480F5B5
