:020000040000FA
:0600000002011D021F6B4E
:03002B00021B8E27
:03005300021FDEAB
:03006B00021B2C49
:10008300021E1FE5C754F84401F5C7790122000099
:100093000080FB120086B90003020107E47921788E
:1000A30008B800028004F709D8FCE479297802B87B
:1000B30000028004F709D8FCE49002817859790999
:1000C3008002F0A3D8FCD9FA781A90014D7A01BACC
:1000D30000028007E493A3F608DAF9900AD9AA820A
:1000E300AB8390014E787179038015E493A3AC82BE
:1000F300AD838A828B83F0A3AA82AB838C828D83A8
:10010300D8E9D9E77582817583AC740312012F7521
:100113008291758300740012012F75D00075813FA1
:10012300751881751902759F00020096C09FF59F8F
:10013300E473D09F22D083D082C09FE493C0E07445
:100143000193C0E0740293F59F220101FFFF4B4D21
:10015300204852204D6F6E69746F720000000000DA
:1001630000000002010603020D1807084B4D5F480B
:10017300524D00040000060412041804E702FFFFB6
:10018300BB001264023E820100003382023A820104
:100193000000100B025C82010000110B0238820385
:1001A30000004F04020202023E820100002A820282
:1001B3003A82010000320B0256820100005704020A
:1001C3003A82010000330B025482010000118102C4
:1001D3003A82010000340B0252820100002C81108C
:1001E30002027D00020A023E820100002D82023AD1
:1001F300820100006D0B1091800000006104023841
:10020300820300006204023A820100006E0B108137
:10021300800100006804023A820100006F0B10C1E4
:1002230080010000700B023A82010000720B10E1A2
:10023300800100006A04023A82010000730B10017E
:10024300810300006B04100208023E8201000030AB
:1002530082023A82010000D40B024A820000006E3F
:10026300040238820300006F04023A82010000D5C1
:100273000B0248820100007504023A82010000D695
:100283000B024682020000760401E803053F10FFDB
:1002930000013075030201060000000000000000A9
:1002A300000000000000000000000000000000004B
:1002B30000000000FFFF0600800CE803FF0000B40D
:1002C300000028002800283075A000A000A000A08E
:1002D3000000080008E001F00010001000100010FA
:1002E300001000100050005000500010001000D00B
:1002F300070000000000000F000100050030750733
:10030300001000010081FF0000FF4E0A6C0A540A2E
:10031300FF02020208025000A0000000E803023EB0
:10032300820100002782023A820100009F0C0236FC
:10033300820100003006023A82010000A00C024252
:10034300820100004606023A82010000A10C02600D
:10035300820100004806023A82010000A20C024416
:10036300820800004906023A82010000A30C024EF3
:1003730082010000A40CFF0100FF20023E82010065
:10038300002482023A82010000080D02508200001C
:100393000000000238820300009606241024102473
:1003A30010241024102410241024102410241024AA
:1003B3001024102410B212CA12AC12120138068B88
:1003C30003120138318B031201385B8B031201389E
:1003D3007D8B03120138A18B03120138AE8B0312FC
:1003E30001380D8C03120138288D03120138ADD466
:1003F30002120138CCD6021201388FD7021201380B
:1004030078D80212013835D90212013875D902128F
:1004130001388ED902120138DAD90212013813AA2F
:100423000312013873AA03120138B0A20312013870
:10043300D8A203120138E0A203120138E8A2031282
:10044300013807A3031201382FA30312013876A33F
:100453000312013884A303120138D3A30312013812
:100463003BDA0212013845DA0212013886DA021247
:100473000138CFDA0212013809DB021201385FDBDF
:100483000212013880DB0212013889DB02120138C3
:10049300DDDB0212013806DC0212013810DC021225
:1004A30001387EDC021201380EDD0212013869DDEB
:1004B3000212013897DD021201381FDE02120138E1
:1004C3005EDE0212013893DE02120138A5DE02124B
:1004D3000138C4DE02120138CDDE0212013894DF86
:1004E3000212013822AC03120138F7A503120138B6
:1004F300389A031201386E9A03120138A29A031232
:100503000138EF9B031201385BFF0212013871FFC0
:10051300021201387BFF02120138C5FF02120138B3
:100523003AEE021201384DEE021201380EEF0212BA
:1005330001384DEF021201386AEF02120138A3EFBE
:1005430002120138F0EF0212013822F002120138D0
:1005530059F00212013862F202120138EEA60312B8
:10056300013811A70312013840A70312013882A7EB
:1005730003120138F3BE0212013804BF021201381C
:100583005EC30212013839C402120138A2C4021236
:100593000138EDC40212013810C60212013800807E
:1005A300031201387D8003120138B280031201382F
:1005B300D781031201380383031201380191031217
:1005C30001384691031201385B9103120138B5914A
:1005D300031201383F9203120138EA9203120138E1
:1005E3002193031201382DA10312013852A10312E2
:1005F300013882A103120138A78703120138EC875F
:1006030003120138FF87031201385D880312013892
:10061300B78803120138F48803120138CE89031214
:100623000138CD8A03120138C095031201380596AB
:100633000312013818960312013834960312013855
:10064300729603120138E19603120138CB97031215
:100653000138D9AC03120138638201120138418495
:1006630001120138E085011201388B86011201382D
:100673000B8701120138908701120138B9870112E3
:100683000138948B011201380B8C01120138228D31
:10069300011201385C8D011201389D8D0112013860
:1006A300E48E011201383A8F01120138838F01124F
:1006B3000138F28F011201385E90011201388F90D8
:1006C30001120138A79001120138C09101120138BB
:1006D300D091011201388693011201389D930112C2
:1006E3000138CF9301120138719501120138059633
:1006F30001120138A2A803120138AEA8031201386F
:100703004BA9031201382FAD031201386EAD03124A
:100713000138E47F001201385DA9031201386DA985
:10072300031201387CA9031201380DAA0312013800
:10073300F5A4031201387AA503120138DEA50312CA
:100743000138F57F00120138C3AD03120138D3AD70
:1007530003120138D6AD03120138F87F00120138B5
:100763000498031201388E9903120138EF9903128A
:100773000138359A03120138AEAB03120138DBABF3
:1007830003120138F1AB03120138959F03120138AC
:10079300E79F031201385AA003120138C7A00312BE
:1007A3000138799303120138A39303120138729429
:1007B300031201384E9503120138BDB602120138F7
:1007C30089B702120138CAB70212013804B80212FB
:1007D300013862B802120138B6B80212013814B9EE
:1007E30002120138AAB902120138B2BA0212013850
:1007F3003CBC02120138DABC0212013841BD0212BC
:10080300013854BD0212013848BE0212013891BEAC
:1008130002120138AAF001120138DCF30112013887
:100823006DF501120138C4F501120138E1F5011229
:10083300013861F601120138DDF701120138ACF815
:100843000112013819FC0112013803FD01120138AC
:10085300E29D03120138F99D03120138289E031209
:100863000138619E03120138899E03120138B79E35
:1008730003120138CE9E03120138E59E031201389C
:10088300FB9E03120138229F03120138359F031286
:1008930001384B9F031201385E9F03120138839F77
:1008A3000312013811A40212013810A502120138F3
:1008B30045A50212013866A50212013876A5021277
:1008C300013897A502120138A3A60212013870A7B6
:1008D30002120138E3A70212013869A80212013893
:1008E300ACA802120138E3A80212013869A9021266
:1008F30001383BAA0212013899AA02120138B1AA9F
:10090300021201382BAB021201382EAB021201384E
:1009130031AB02120138D8AB02120138F0AB02122C
:10092300013820AC0212013840AC021201382EAD5E
:1009330002120138E4AD0212013892E902120138C1
:10094300BAE902120138E8E9021201381FEA021279
:10095300013887EA02120138D0EA021201381BEB90
:100963000212013859EB0212013896EB02120138D8
:10097300C4EB021201386BEC0212013875EC02125F
:10098300013882EC02120138B5EC0212013877ED1E
:100993000212013883ED021201389BED0212013875
:1009A300A5ED02120138CBA703120138D9A7031210
:1009B3000138F1A70312013809A803120138F4A979
:1009C3000112013892AA011201380AAB011201384F
:1009D3001FAC0112013859AC0112013802AD0112EA
:1009E3000138D7AD011201383BAF0112013892AF84
:1009F3000112013819B00112013800B10112013896
:100A03004DB101120138DBB101120138FFB10112FE
:100A13000138D4B30112013815B40112013837B4C7
:100A230001120138B8B401120138A2B5011201381C
:100A330068B601120138A1CD0212013873CE021239
:100A430001381CCF021201385FCF02120138ECCFFC
:100A53000212013878D00212013859D1021201383A
:100A630088D10212013884D202120138CCD2021288
:100A73000138CED30212013812D40212013838D40D
:100A830002120138A8AA03120138D68303120138CF
:100A9300EC83031201381284031201383A850312DE
:100AA30001384485031201389D86031201389D875E
:100AB30003120138C2DF02120138F7E002120138D3
:100AC3002AE10212013874E10212013832E3021200
:100AD3000138EA6C001201384D6D00120138926E34
:100AE30000120138A26E00120138C56E00120138DF
:100AF300106F00120138B56F00120138AB7000128D
:100B03000138757100120138ED72001201382F732C
:100B130000120138CD73001201381A740012013823
:100B23004074001201382E76001201383376001219
:100B33000138147800120138687800120138CA7835
:100B430000120138F2780012013896790012013848
:100B5300587A00120138897A001201388C7A00120F
:100B63000138D47A00120138167B001201387D7BDC
:100B73000012013899FD01120138ACFD0112013850
:100B8300C5FD0112013810FE01120138EBFE0112FE
:100B930001387AFF01120138C5FF011201387026AE
:100BA300001201387C2600120138B52600120138E4
:100BB300FA2600120138B127001201383728001233
:100BC30001386328001201389C2800120138B02A2A
:100BD300001201388C2C00120138772E00120138D4
:100BE300AE2F001201380E3200120138FA32001211
:100BF30001384034001201384D35001201386A358E
:100C030000120138A23500120138BC350012013838
:100C1300243600120138BE3A001201385F3B00123D
:100C23000138B03B00120138D73B00120138253C94
:100C330000120138433C00120138973C001201387E
:100C43009F3D00120138273E00120138E8E40212EA
:100C53000138F2E402120138BDE502120138D8E589
:100C630002120138FEE50212013842E6021201388F
:100C73007AE602120138A3E6021201381CE70212D7
:100C8300013831E70212013846E7021201387DE7E5
:100C93000212013891E702120138C2E70212013849
:100CA300FCE70212013828E8021201387EE802123A
:100CB3000138D2E8021201381BE90212013845E972
:100CC300021201386AE9021201386FFB021201387D
:100CD30039FC021201381CFD0212013892FD021286
:100CE3000138D4FD0212013801FF021201380080DD
:100CF300021201382980021201384280021201389F
:100D0300878102120138658202120138848202123D
:100D13000138118302120138548302120138A1846D
:100D230002120138408502120138BF8702120138CE
:100D33005688021201382A89021201380C8A0212DB
:100D43000138788B021201380B8C02120138E0A3B0
:100D53000312013849A4031201389DA40312013878
:100D6300C4A403120138CEF2021201383BF302127B
:100D7300013886F3021201387BF40212013877F549
:100D83000212013861F6021201384FAE0212013825
:100D930091AE021201386BAF0212013844B0021255
:100DA30001383FB1021201381EB2021201388AB271
:100DB3000212013851B302120138BCB302120138D6
:100DC30023B4021201384EB402120138BFB4021226
:100DD300013852B502120138BBB502120138D0B541
:100DE3000212013818B60212013831B60212013864
:100DF30096B60212013899B602120138078E031211
:100E030001382F8E031201386D8E031201382B8F98
:100E130003120138968F03120138B28F031201387F
:100E2300DA8F031201380A90031201381990031262
:100E33000138939003120138B990031201381BC78C
:100E430001120138F8C801120138F3CA011201383E
:100E5300C6CB0112013811CC011201385CCC01124E
:100E630001386ECC01120138AECC01120138E3CC4B
:100E7300011201382FCD011201385ECD0112013864
:100E830081CD01120138CECD0112013857CE0112A6
:100E9300013864D0011201384FD20112013892D2C5
:100EA30001120138F7D30112013838D40112013885
:100EB300ABD401120138F7D40112013822D5011243
:100EC3000138828C02120138AD8C021201389493DE
:100ED30002120138B89502120138739702120138D1
:100EE300D098021201388E3E00120138253F0012BD
:100EF3000138523F00120138983F00120138D740A1
:100F0300001201386E4200120138E8420012013823
:100F1300034300120138784300120138A74400123A
:100F230001380246001201380447001201386148B3
:100F3300001201387A4800120138D74800120138EC
:100F4300B94900120138EC49001201385C4A001219
:100F53000138D64A00120138254B00120138F14BF3
:100F630000120138F64C00120138D54D0012013839
:100F7300604E00120138CE4E00120138424F00126B
:100F830001386B4F001201382A5000120138A45166
:100F930000120138C15100120138E051001201382A
:100FA300715200120138965200120138BE520012DB
:100FB3000138395300120138935300120138E754B2
:100FC30000120138A4550012013877560012013877
:100FD3004CD5011201389CD501120138A8D5011254
:100FE300013885D601120138B5D601120138EDD684
:100FF300011201386CD701120138A4D7011201384C
:10100300F6D70112013833D80112013858DA011228
:10101300013884DC011201387FDE011201385AE005
:1010230001120138EFFF0112013843960112013812
:101033008D96011201386C9C01120138ED9D01124D
:1010430001384CA40112013847A50112013884A5C7
:1010530001120138A7A501120138E9A501120138CF
:10106300F2A501120138FCA501120138E8A601120C
:101073000138DCA701120138A556001201381D61A1
:10108300001201382361001201382F680012013861
:10109300477C00120138DD7C00120138F37C00121A
:1010A30001386D7D00120138C37D00120138017EC5
:1010B300001201385E7E00120138DB7E0012013817
:1010C300E47E00120138F07E00120138037F001223
:1010D30001383F7F00120138557F00120138B47F79
:1010E3000012013823F70212013830F702120138D7
:1010F3004AF70212013889F702120138C7F70212C0
:1011030001382CF80212013841F8021201384CF868
:101113000212013859F80212013870F8021201382C
:101123007EF80212013889F80212013895F802128A
:101133000138A4F802120138AFF802120138D2F8CC
:10114300021201387BF9021201388BF902120138BD
:10115300A5F902120138C2F902120138DEF90212AE
:10116300013803FA021201380DFA0212013821FA8A
:101173000212013840FA02120138A1FA02120138B0
:10118300A7FA02120138ADFA02120138B3FA0212B9
:101193000138BFFA02120138F2FA0212013820E3D1
:1011A30001120138A2E3011201384BE401120138A4
:1011B30093E501120138A1E70112013887E8011212
:1011C3000138BCE801120138DEE80112013887E971
:1011D3000112013857EB0112013880EB011201387B
:1011E300F8EB011201382AEC0112013837EC011235
:1011F300013882EC01120138A6EC01120138F7EE36
:101203000112013801F0011201385DF001120138B9
:101213009DB801120138AEB90112013892BA011218
:1012230001389CBA01120138BEBA01120138CABA98
:10123300011201386EBC011201389BBC0112013846
:10124300B1BD0112013806BE0112013855BF0112AA
:1012530001382AC00112013886C001120138F1C0D9
:101263000112013826C10112013869C10112013886
:1012730033C4011201384BC401120138DCC401121A
:101283000138EAC40112013837C50112013845C5D6
:1012930001120138B1C5011201382CC601120138FF
:1012A30083C601120138F39802120138159902120C
:1012B3000138269B02120138E59D021201380F9F67
:1012C30002120138CD9F02120138B9A0021201386F
:1012D300299C031201384E9C03120138C49C03124B
:1012E300013884C6021201388DC60212013896C62F
:1012F300021201386EC7021201381FC902120138E7
:101303004FC9021201387AC902120138AAC902125E
:101313000138D5C90212013809CA0212013835CA87
:101323000212013878CA02120138A3CA0212013824
:10133300EACA021201383FCB0212013881CB0212F2
:101343000138DBCB0212013806CC0212013855CC2E
:101353000212013885CC02120138B0CC02120138D6
:10136300DECC0212013801CD0212013831AB031277
:1013730001385DAB031201388AAB0312013894AB19
:1013830003120138A4AB0312013878AD03120138FC
:10139300A5AD03E066701008A3E066700A08A3E039
:1013A30066700408A3E06622C008C3E096F5080847
:1013B300A3E096420808A3E096420808A3E09642F9
:1013C30008A2D265D033E5087001D3D00822C3E761
:1013D300960809E7960809E7960809E79622C3E005
:1013E3009608A3E09608A3E09608A3E09622C00817
:1013F300C3E096F50808A3E096420808A3E09642E6
:101403000808A3E09645087001D3D008220808080D
:10141300EAC0E0EBC0E086F0E7A4FA180986F0E73B
:10142300A42AFA180986F0E7A42AFA180986F0E72D
:10143300A42AFA1986F0E7A4FBE5F02AFA1908862C
:10144300F0E7A42BFBE5F03AFA190886F0E7A42BA2
:10145300FBE5F03AFA18180986F0E7A4C5F02BFB70
:10146300E43AFA1908E7C5F0C6A426F6E5F03BFB13
:10147300E43AFA1886F0E7A4F6E5F00826F6E43B2A
:1014830008F6E43A08F6D0E0FBD0E0FA22E4CFC055
:10149300E0E4CEC0E0E4CDC0E0E4CCC0E075F020F1
:1014A300C3E633F608E633F608E633F608E633F622
:1014B300181818EC33FCED33FDEE33FEEF33FFC3A6
:1014C300EC9709ED9709EE9709EF97191919400F52
:1014D300FFEC97FC09ED97FD09EE97FE191906D568
:1014E300F0BEECF709EDF709EEF709EFF719191953
:1014F300D0E0FCD0E0FDD0E0FED0E0FF2212156882
:101503001818181214901215571919192212155771
:10151300191919080808E618181820E7E01214909A
:1015230012156818181822090909E719191920E76B
:10153300DC080808E618181820E7030214901215AF
:1015430068181818121490121568181818121557DD
:1015530019191922E4C397F709E497F709E497F7F0
:1015630009E497F722E4C396F608E496F608E496AE
:10157300F608E496F6226016080808C6C313C618D0
:10158300C613C618C613C618C613C6D5E0EA22701A
:1015930009080808226016181818C6C333C608C6F7
:1015A30033C608C633C608C633C6D5E0EA22E627E3
:1015B300F60809E637F60809E637F60809E637F6C6
:1015C30022E026F608A3E036F608A3E036F608A3E1
:1015D300E036F622E026F008A3E036F008A3E03672
:1015E300F008A3E036F022C3E697F60809E697F67B
:1015F3000809E697F60809E697F622C3E0C696F6C9
:1016030008A3E0C696F608A3E0C696F608A3E0C6CC
:1016130096F622C3E096F008A3E096F008A3E096BE
:10162300F008A3E096F022E056F608A3E056F60889
:10163300A3E056F608A3E056F622E056F008A3E02E
:1016430056F008A3E056F008A3E056F022E0F608AF
:10165300A3E0F608A3E0F608A3E0F622E6F008A369
:10166300E6F008A3E6F008A3E6F022E0FAA3E0FB25
:10167300A3E0FCA3E0FD22EAF0A3EBF0A3ECF0A3CC
:10168300EDF022CAC0E0E6F0A308DAFAD0E0FA22CD
:10169300CAC0E0E0A3C582CCC582C583CDC583F0B3
:1016A300A3C582CCC582C583CDC583DAE6D0E0CAA3
:1016B30022C3E498F8E499F91216F58026C3E49A54
:1016C300FAE49BFBE920E7E91216F5E498F8E499BC
:1016D300F922C3E498F8E499F91216F5E498F8E4CA
:1016E30099F9C3E49AFAE49BFB22EB20E7CFE920C4
:1016F300E7E0B90010BB0008E88AF084F8AAF022FA
:10170300E4FBC8FA22EB70227B10C833C8C933C983
:10171300335007C39AC3DBF280069A50012ADBEAEF
:10172300C833F4C8C933F4C9FA2275F008E4C833DE
:10173300C8C933C933C99AC99B5004C92AC93BD5FF
:10174300F0ECFBC833F4C8E4C9FA22600D08C6A262
:10175300E713C618C613C6D5E0F322600C08C6C348
:1017630013C618C613C6D5E0F422700422600D1800
:10177300C6C333C608C633C6D5E0F41822251810ED
:10178300AF08F518400215198008F518400215191D
:10179300D2AF22C0D0251810AF08F5185002051992
:1017A3008008F51850020519D2AFD0D0222518F5BC
:1017B3008210AF08F518400215198008F518400289
:1017C3001519D2AF851983222518F582E43519F549
:1017D3008322E4732518C582C0E0E51934FFC5836D
:1017E300C0E0E518C3958224F810AF0885831985F6
:1017F30082188008858319858218D2AFCEF0A3E5BD
:1018030020F0A37808E608F0A3DEFAEFF0A3E58161
:1018130024FAF8E608F0A3E608F0A3E608F0A30824
:1018230008E608F0A3E608F0A315811581D0E0FED1
:10183300D0E0F8158115811581E8C0E0EEC0E02203
:101843002518C582C0E0E51934FFC583C0E0E5185B
:10185300C3958224F910AF088583198582188008FF
:10186300858319858218D2AFCEF0A3E520F0A37843
:1018730008E608F0A3DEFAEFF0A3E58124FBF8E61F
:1018830008F0A3E608F0A30808E608F0A3E608F0CA
:10189300A315811581D0E0FED0E0F815811581E80C
:1018A300C0E0EEC0E022851983851882E0A3FEE044
:1018B300A3F5207808E0A3F608DFFAE0A3FFE0A38E
:1018C300C0E0E0A3C0E0E0A3C0E0E0A3C0E0E0A389
:1018D300C0E010AF088582188583198008858218B7
:1018E300858319D2AFD083D08202013585198385D0
:1018F3001882E0A3FEE0A3F5207808E0A3F608DF52
:10190300FAE0A3FFE0A3C0E0E0A3C0E0E0A3C0E0EF
:10191300E0A3C0E010AF088582188583198008858D
:101923008218858319D2AFD083D08222C0D02518E4
:10193300C582C0E0E51934FFC583C0E0E518C3954F
:101943008224F310AF088583198582188008858364
:1019530019858218D2AFC8F0A3E9F0A3EAF0A3EB8C
:10196300F0A37908E709F0A3D8FAECF0A3EDF0A30C
:10197300EEF0A3EFF0A3D0E0F0A3D0E0F0A3D0E02B
:10198300F0A3E520F0A3E5F0F0A3228519838518E1
:1019930082E0C0E0A3E0F9A3E0FAA3E0FBA37808A8
:1019A300E0F608A3DFFAE0FCA3E0FDA3E0FEA3E07A
:1019B300FFA3E0C0E0A3E0C0E0A3E0F5D0A3E0F51F
:1019C30020A3E0A3F5F010AF088583198582188062
:1019D30008858319858218D2AFD082D083D0E0F8EE
:1019E300D0E03274048006740280027401C0E0F413
:1019F300041217B0D0E01216862274048004740215
:101A03008000CCC0E0EDC0E0E518C39CCCAD19501C
:101A1300011D10AF068C188D1980068C188D19D2F4
:101A2300AF121693D0E0FDD0E0FC22D083D082E940
:101A3300C0E0E493A3C386F0C5F095F0F908E493FE
:101A4300A386F0C5F095F0700BE493A3C39940050A
:101A5300E9048002A3E475F002A42582F582E5F08F
:101A63003583F583D0E0F9E493A3C0E0E493C0E0C9
:101A730022D083D082ECC0E0EDC0E0E493A3FCE489
:101A830093A3FDED4C600D121AC0EC24FFFCED3462
:101A9300FFFD80EFE493A3FCE493A3FDED4C600D05
:101AA300121AFFEC24FFFCED34FFFD80EFD0E0FDC4
:101AB300D0E0FCE493A3C0E0E493C0E022C0E0C321
:101AC300E49396087401939618400FE493667008A4
:101AD30008740193661870007019A3A3C3E4939666
:101AE300087401939618A3A3400DD0E0D0E0D0E092
:101AF300021AB0A3A3A3A3A3A3D0E022C0E0C0F023
:101B030088F0E4936670080874019366187000A85F
:101B1300F0A3A3700BD0F0D0E0D0E0D0E0021AB075
:071B2300A3A3D0F0D0E022E3
:101B2C00C0E074F212192FA2AFE433FEC2AFE58904
:101B3C00A2E1503B5389FDC2C5C292790012077EC7
:101B4C00790012077E790012077EE99002E8F0799D
:101B5C000012077EE99002E7F0D292900B0A121B5A
:101B6C0085E0FAA3E0FB9002E5121B851217D5EE77
:101B7C00A2E092AF7F0102198EE0F8A3E0F5838812
:101B8C008222C0E0C0D0E8C0E0E5A8D2AFC2C775E1
:101B9C001A00A2E792AFD0E0F8D0D0D0E03274F5C2
:101BAC00121843EAFEEBFFEE2434F8EF3400F98808
:101BBC00088909EE2435F582EF3400F583E0F8EE60
:101BCC002437F582EF3400F583E0F50AEC850AF052
:101BDC00A4FCAAF0850AF0EDA42AFDE82CF8E43D5B
:101BEC00F97A257B001216F5EA850882850983F0BF
:101BFC005407F87401B800028004C333D8FCC0E069
:101C0C00E0131313541FF8EE28F8EF3400F9E8240E
:101C1C005DF582E93400F583D0E0F8E0586008EE19
:101C2C002434F582EF801EEE2436F582EF3400F575
:101C3C0083E0F5F0EA84A8F0EE28F8EF3400F9E838
:101C4C002438F582E93400F583E0F97F040218EFBB
:101C5C0074F5121843EAFEEBFFEE2434F582EF34F0
:101C6C0000F583E0C0E0EE2435F582EF3400F58317
:101C7C00D0E0F08E828F83A3A3A3A3A3A3A3C082DF
:101C8C00C0838E828F83A3A3A3A3A3E0F8A3E0F960
:101C9C00D083D082E0C398F508A3E099F509EE242F
:101CAC0080F582EF3400F583E064017069EE2481E5
:101CBC00F582EF3400F583E0F8A3E0F98E828F8390
:101CCC00A3A3A3A3A3A3A3E0FCA3E0FD8E828F8315
:101CDC00A3A3A3A3A3E0FAA3E0FBC3EA9CEB9D5050
:101CEC0027C3EC98ED99402EC3EA98EB9950277CCA
:101CFC007B7D08EEFAEFFB120F82EE2480F582EF6B
:101D0C003400F583E4F0800EC3EA98EB9940E0C30D
:101D1C00EC98ED9950D9EE2434F8EF3400F9E8FC46
:101D2C00E9FDEE2435F582EF3400F583E0F8EE247E
:101D3C0037F582EF3400F583E0F50AE508850AF003
:101D4C00A4F508AAF0850AF0E509A42AF509E82506
:101D5C0008F8E43509F97A257B001216F5EA8C822D
:101D6C008D83F05407F87401B800028004C333D893
:101D7C00FCC0E0E0131313541FF8EE28F8EF340006
:101D8C00F9E8245DF582E93400F583D0E0F8E058F9
:101D9C006008EE2434F582EF801EEE2436F582EFD7
:101DAC003400F583E0F5F0EA84A8F0EE28F8EF347F
:101DBC0000F9E82438F582E93400F583E0F91226BD
:101DCC0059021C57C082C083851882851983E0F89C
:101DDC00A3E0F9C3EA9CEB9D5012C3EC98ED99403B
:101DEC0019C3EA98EB99501279018010C3EA98EB69
:101DFC009940F5C3EC98ED9950EE7900D083D082E0
:101E0C0022EAC39CFAEB9DFB22000000852187850A
:101E1C0022C622C0E0C0D0E8C0E0E9C0E0EAC0E0E1
:101E2C00EBC0E0ECC0E0EDC0E0C008C009C00AC0E7
:101E3C000BC082C083C0F0759B00906182E0A2E66B
:101E4C004003021EFDE591A2E64003021EFD7591C2
:101E5C00BF900740E0640570081210BA1210C680DB
:101E6C00031210C0752100121120E9900741F0797E
:101E7C0000121114120EF87A017B0090073FE0F962
:101E8C001204BA907803E064426003021F46900883
:101E9C00DDE014F06003021F46C2AF121EAA0078E8
:101EAC002AD0E0F618D0E0F6E59F5407F9700590BB
:101EBC0081B480039081B07808121650E9C4C0E058
:101ECC007829E65508F50808E65509F509740B78E4
:101EDC000812175ED0E02508F8906270E0A2E74087
:101EEC00F8E8C333906272F0906270E0D2E0F08058
:101EFC0049E0A2E55024E591A2E5501E7591DF90D2
:101F0C000740E0640D7013900762E004F0642870E1
:101F1C0002E4F07A00E0F9121192906181E0A2E300
:101F2C005009E5E9A2E3500375E9F7A3E0A2E750F5
:101F3C0009E591A2E7500375917FD0F0D083D08250
:101F4C00D00BD00AD009D008D0E0FDD0E0FCD0E016
:101F5C00FBD0E0FAD0E0F9D0E0F8D0D0D0E032C03D
:101F6C00E0C0D0C082C083906183E0A2E05009E55C
:101F7C00BFA2E0500375BFFEE0A2E15009E5BFA28D
:101F8C00E1500375BFFDE0A2E25009E5BFA2E250AB
:101F9C000375BFFBE0A2E35009E5BFA2E350037554
:101FAC00BFF7E0A2E45009E5BFA2E4500375BFEF10
:101FBC00E0A2E55009E5BFA2E5500375BFDFE0A242
:101FCC00E65009E5BFA2E6500375BFBFD083D082AF
:101FDC008088C0E0C0D0E8C0E0E9C0E0EAC0E0EB37
:101FEC00C0E0ECC0E0EDC0E0C0F0E5A7A2E6500F09
:101FFC00E5A1A2E6500953A7BF75A1BF122043E586
:10200C00A7A2E5500CE5A1A2E5500653A7DF75A1E8
:10201C00DFE5A7A2E15009E5A1A2E1500375A1FDFE
:10202C00E5A7A2E2500CE5A1A2E2500653A7FB756E
:10203C00A1FBD0F0021F5474F812184375210190C3
:10204C000740E06406701512104E8A828B83A3A39E
:10205C00A3A3A3A3E0FAA3E0FB1210A8A2AFE4335E
:10206C00FED2AF900746E0640170187A207B009096
:10207C00073FE0F91205447A207B0090073FE0F916
:10208C001204C0906182E0D2E6F09008DCE060219E
:10209C0085C6228016900745E064017008E5C65499
:1020AC00F84405F5C653BEFC121E18740165216078
:1020BC00E4EEA2E092AF7F010218EF008E238F2492
:1020CC00858228858327851882851983E0CEA3E035
:1020DC00CF852882852783EBC9EAC8EDCBECCA757E
:1020EC00F010C3E833C8E933C9EA33CAEB33CBC3C6
:1020FC00EA9EF526EB9FF525B35004AB25AA26ECFA
:10210C0033CCED33CDD5F0DAAE23AF242274EB1201
:10211C00184374FA1217808A088B098C148D159049
:10212C000740E024F7C39405500690820802227BF6
:10213C0012104E8A0A8B0BAE0AAF0BEE4F700302D5
:10214C002278AC08AD09851882851983AA82AB83E5
:10215C001210D88E828F83A3A37808121650908108
:10216C00D8780812162A851882851983780C1216CD
:10217C00509081D8780C12162A7808790C1213D149
:10218C00501F7808790C1215EA9081707808121398
:10219C00F14047850810850911850A12850B1380BB
:1021AC0041850C10850D11850E12850F1378107951
:1021BC00081215EA90817078101213F1501C7510EA
:1021CC00007511007512007513017810790C121539
:1021DC00EA781079081215B18008908208781012EC
:1021EC001650740978101215929081747808121692
:1021FC0050781079081214908E828F83A3A3A3A316
:10220C00A3A3E0F8A3E0F97AD07B031216F58808B3
:10221C008909E4F50AF50B781079081215B17404E4
:10222C001217CBE0F8A3E0F97AD07B031216F5E88D
:10223C00FA8A08E4F509781079081213D150077856
:10224C001079081215EA900740E06408600AE0640F
:10225C00066005E06405701C90817878101213F10B
:10226C00501290817C78101215C4800890822078CE
:10227C0010121650851482851583781012165F740F
:10228C00061217967F0E0218EF74F71218431210ED
:10229C00EA9008DAE064017010906245E4F0A3F073
:1022AC0053F4F343FE0C5390F3121096E5C654808E
:1022BC004449F5C6E59E547F644970F89061857475
:1022CC000FF09008D8E0F47002A3E0604E9008D9AB
:1022DC00E0600814601B14602E80407508017509BD
:1022EC00009008D8E0780812176DE508F452808049
:1022FC002A7508017509009008D8E0780812176D46
:10230C00E508F4529080147508017509009008D8FE
:10231C00E0780812176DE508F452A079007F0202EC
:10232C0018EF74F7121843E9FEEAFF74016E700C93
:10233C007A807B0090073FE0F91204BA902668E49B
:10234C0093F46008E493F9120EEC800953C680E50F
:10235C009E547F70FA12109C9008DAE064017003AE
:10236C00120F049008D8E0F47002A3E0604B9008C0
:10237C00D9E0600814601A14602C803D7508017552
:10238C0009009008D8E0780812176DE508428080A3
:10239C00287508017509009008D8E0780812176DA7
:1023AC00E508429080137508017509009008D8E083
:1023BC00780812176DE50842A01210EA12104E8A26
:1023CC00088B09A808A909E8496015E5E170FCE843
:1023DC002414F582E93400F583E0F46003E0F5E1C0
:1023EC0074016F700A7A0190073FE0F9120514022C
:1023FC00232974F11218438A088B098C0A8D0B74EB
:10240C000F1217CB780C1216509081D87808121630
:10241C002A9081D8780C12162A7808790C1213D1CC
:10242C0050157808790C1215EA90817078081213FF
:10243C00F1401579018013780C79081215EA908116
:10244C0070780C1213F140EB79007F080218EF74CE
:10245C00ED1218438A088B098C0A8D0B7413121712
:10246C00CB780C1216509081D8780812162A9081CD
:10247C00D8780C12162A780C79081213D1401178DE
:10248C0008790C1215EAAA08AB09AC0AAD0B80222C
:10249C007510007511007512007513017810790C08
:1024AC001215EA781079081215B1AA10AB11AC12FA
:1024BC00AD137F0C0218EF9081D878081216508A51
:1024CC00828B83780812163D7F040218EF74F51284
:1024DC0018438C828D8378081216508A828B8378ED
:1024EC0008121616EA2404F8EB3400F98C828D835A
:1024FC00A3A3A3A3E0FCA3E0FD88828983C3E09C93
:10250C00F0A3E09DF088828983C3E09420A3E0943B
:10251C004E402290821478081216508A828B83784F
:10252C00081215D78A828B83A3A3A3A3E02420F0DF
:10253C00A3E0344EF0808074F5121843E9FE900845
:10254C0092E0FAA3E0FBEEC333F8E433F974D1283C
:10255C00F582748039F583E02AF508A3E03BF50990
:10256C0078081219EA9081AC12166E1220C8740207
:10257C001217968A088B098C0A8D0B741078081226
:10258C001579AA08AB097F040218EF74F1121843ED
:10259C008A0C8B0D8C0E8D0F740F1217CBE0FAA3D7
:1025AC00E0FB74111217CBE0F508A3E0F5097413E6
:1025BC001217CBE0FEA3E0FF78081219EAEA240117
:1025CC00F508EB3400F509E4F50AF50B780C7908FD
:1025DC001214109081807808121650780C79081219
:1025EC001410AA0CAB0DAC0EAD0F1220C874021255
:1025FC0017968B09EA450960047A0180027A00EC8F
:10260C002AFCED3400FDECF8EDF97A717B02121620
:10261C00F588088909E4F50AF50B8E828F83780812
:10262C0012165FECF8EDF97A717B021216F58A0836
:10263C008B097405780812176D8E828F83A3A3A360
:10264C00A3E508F0A3E509F07F080218EFC082C0EB
:0B265C0083E9906000F0D083D0822260
:10266800FFFFFFFFFFFFFFFFC082C083E9900D0758
:10267800F002288F74F71217D7E990065EF07C965F
:102688007D067AFF7BFF120C2890065F74FFF0A38B
:10269800F0A3E4F0A3F07905120BB690065EE0F91A
:1026A800120ADE7A407B0C120E0202359D74F41277
:1026B80017D78A088B09EB5480603090065EE0F9E2
:1026C8001204A28A0A8B0BAE0AAF0BEE4F60138E70
:1026D800828F83E064B07003120BC8EEFAEFFB122E
:1026E8000490AA08E5096480FB80047A007B000254
:1026F800285E74F21217D774FC121780EAFEEBFFFB
:1027080074121217CB123A84EE4F700302279D748D
:10271800021217CBEEF0A3EF122A99ECF0A3ED12F8
:102728002A99AA82AB83120AD8E9F50A706AE508E1
:10273800450960648E828F83123A6AEE4F60567A3A
:10274800067B001204FC8A0C8B0DA80CA90DE84925
:102758007005750A13804188828983E41227AAEEDE
:10276800F0A3EF123A95E508F0A3E509F0900664A6
:102778001228319006647005123547801B123535D2
:102788008003EAFCEBFD8C828D8312283170F38C78
:10279800828D8380E3750A02A90A740412179602CF
:1027A8003C84F0A3123A3BA32274F21217D7890A89
:1027B800E975F017A4FEAFF0900663E4F0900661A7
:1027C800122831600A120502900661E4F0A3F0EEC7
:1027D800FAEFFB1204FC8A088B09EA4509602FEE20
:1027E800FCEFFD790012047E900661E508F0A3E590
:1027F80009F07B00800812281BE4F0A3F00BEBC360
:10280800950A40F2E50A900663F079008002791390
:10281800023C84EB75F017A4F8A9F0900661E02853
:10282800FAA3E0398A82F583221231D9EA4B22745D
:10283800F41217D77900EAA2E0501B75084675090B
:102848008178081219EA7C047D007A097B0D120B45
:10285800B074021217967F040218A9C082C0839030
:102868000664122896601C88828983A3A3E06A7094
:1028780003A3E06B8882898370E8A3A3A3A3123122
:10288800D580047A007B00D083D082020135123DC6
:102898006AE8492274EE1217D774FC121780EAFE10
:1028A800EBFF851882851983E4F0A3F0EE24021269
:1028B8003527EE2405123A42EE2404F50EEF122EC7
:1028C8004EE024FE603924FC604624FE605224FE5B
:1028D800605E24FE70030229AF24FE7003022A13EF
:1028E80024FE7003022A2224FE7003022A3124FCEB
:1028F8007003022A4024FE7003022A4F022A8C9099
:10290800067D7417F0A3E4122AA1120856022A8C35
:10291800851882851983AC82AD83120BCE022A5C9E
:10292800851882851983AC82AD83120BD4022A5C88
:10293800850C08850D0974021217CBAC82AD83850E
:1029480008828509831231D5120AFC8A0C8B0DACDA
:102958000CAD0DEC4D603BE4F50CF50D780C12193F
:10296800EA750C7D750D06780C1219EA750C7E75E2
:102978000D06780C1219EA74081217CB121A0112F4
:102988003D8E121796E9F50C700B1231CB12086EBA
:10299800800F750C01850882850983122A8F1235EC
:1029A80047850C08022A5F74021217CBAC82AD83EC
:1029B800850C82850D83122FA0603C850C82850DC5
:1029C80083A3A3121A0175107D75110678101219C8
:1029D800EA75107E75110678101219EA7408121734
:1029E800CB121A01123D8E121796E9F509700B12D7
:1029F80031CB120874800F750901850C82850D830F
:102A0800122A8F123547850908804C851882851946
:102A180083AC82AD83120BDA803A851882851983DC
:102A2800AC82AD83120BE0802B851882851983ACAC
:102A380082AD83120BE6801C851882851983AC82CF
:102A4800AD83120BEC800D851882851983AC82AD9D
:102A580083120BF2E9F508E50860298E828F83A3BB
:102A6800E06414601F850E82850F83E090067D1256
:102A78002A99123D6690067E123547E508A3122A68
:102A8800A1120850023436123D6A851882851983CE
:102A980022F085188285198322F07C7D7D06850ABF
:102AA80082850B831231D92274EE1217D774FC1267
:102AB80017808A0A8B0B8C0E8D0FEA2405F508EB1C
:102AC8003400F5097C157D0079007A7D7B061204B7
:102AD8007EE5082402F50CE509123A458518828539
:102AE800198385821085831178101219EA85088266
:102AF800850983A3A3A3A3122F971219EAE5082433
:102B080005F510E5093400F51178101219EA850C5D
:102B180082850D831232EC120AF674061217968A11
:102B2800108B11AE10AF11E50A2402F50AE50B125D
:102B3800352AEE4F7003022C6E801774021217CBE1
:102B48001231D588828983EAF0A3EBF090067DE004
:102B580004F090067DE0C394054003022C6EE4F572
:102B680010F51178101219EA7510667511067810AB
:102B78001219EA75106775110678101219EA7406A9
:102B88001217CB121A017910EEFCEFFD123D9012CC
:102B98001796E9705E850882850983A3A3A3A3A37A
:102BA800A3A3E0F8900666E0687048122F97121900
:102BB800EA7C677D06E5082408FAE5093400FB127B
:102BC80004787402121796E960298E828F83A3A372
:102BD800A3A31231D590067DE0F510740278101287
:102BE800176D747E2510F58274063511F583EAF0A9
:102BF800A3EBF074021217CB85821085831178102D
:102C08001219EA74021217CB121A01850C82850D6B
:102C1800831231FB1217968A108B11AE10AF1190E8
:102C2800067DE0F5107511007402781012176D74A6
:102C38007D2510F874063511F988828983A3122836
:102C4800317003022B3AE82403080808E93400F934
:102C5800EE4F6003022B438882898374FFF0A3F050
:102C680090067DE004F090067DE0600A1231CB12F8
:102C780008627900800B85088285098312353E79C0
:102C88000A02343674EA1217D774FE1217808C12AF
:102C98008D13EA2405F50CEB123D78123A6E75088F
:102CA80000750900EA2402F510EB3400F5118518C7
:102CB8008285198385820A85830B780A1219EA8529
:102CC8000C82850D83A3A3A3A3122E641219EAE52F
:102CD8000C2405F50AE50D12352A780A1219EA8539
:102CE8000C82850D83122E68120AF6740612179646
:102CF8008A0A8B0BEA450B7003022E09EA2404F5B5
:102D08000EEB122E4E123A6E8A828B83A3A3A3E097
:102D1800F98510828511831231DF6003022E09E4E0
:102D2800F514F51578141219EA75146675150678F0
:102D3800141219EA75146775150678141219EA74CD
:102D4800061217CB121A017913AC0AAD0B85108243
:102D5800851183123D96121796E9F5096003022E34
:102D680009900666E0F8E5087009E0240290067EFE
:102D7800F0801490067EE0FCE82402FAE43400FBBC
:102D8800EA6C7001EB707E850882AA82122F8E94FD
:102D980014122F86506B850E82850F83E0C0E07475
:102DA8007F2A122E45D0E0F00508850E82850F8314
:102DB800A3E0C0E085080A747F250A122E45D0E0FA
:102DC800F00508900666122E641219EA7C677D06E3
:102DD80085080A747F250A122E58121796900666DF
:102DE800E02508F50874FF6E700374FF6F6012EE3B
:102DF80024010EEF3400FFE508C394145003022C9D
:102E0800B6E50860131231E9851082851183123105
:102E1800D512086879008014E509700375090A85D8
:102E28001282851383EEF0A3EFF0A909740212173A
:102E3800967F0E0218A985080C747F250CF58274FC
:102E4800063400F583223400F50F850E82F58322BF
:102E5800FA74063400FB120466740222123AA422A1
:102E6800A3A3122E6E22123535FDEEFAEFFB227463
:102E7800EE1217D774FE1217808C0E8D0FEA2405F8
:102E8800F50CEB123A45750B0090067DE4F0F50A57
:102E9800EA2402F508EB3400F509804490067DE049
:102EA800FA900666E0F8122F8E9417122F86400DBE
:102EB80090067DE0F87416C398900666F0122F9776
:102EC8001219EA7C677D06747E2AFA7406122E5B54
:102ED800121796900666E0F890067DE028F0050A3D
:102EE800E50C2416F582E50D122E49E0F8E50AC333
:102EF80098507490067DE0C39416506BE50AC3336E
:102F0800F8E433F9E50C28FEE50D39FF85188285CC
:102F18001983AC82AD838E828F83122FA0700875BF
:102F28000B0112353A8050E4F510F511781012199A
:102F3800EA75106675110678101219EA751067752A
:102F4800110678101219EA74061217CB121A0179B1
:102F580016850882850983123D96121796E9F50BA6
:102F68007003022EA480BB7C7D7D068508828509BE
:102F7800831231D512087AA90B7402023438E99405
:102F880000C365D03322EA28F8E43400F9E822E0E7
:102F9800F51075110078102212342D8A108B11AC9F
:102FA80010AD11EC4D2274EA1217D774FC12178079
:102FB8008A0C8B0D8C128D13EA2405F50AEB123559
:102FC8002A750800750900E50A2402F510E50B3496
:102FD80000F51174021217CB85820E85830F780EC7
:102FE8001219EA850A82850B83A3A3A3A3123A4A7E
:102FF8001219EAE50A2405F50EE50B3400F50F78F9
:103008000E1219EA8510828511831235301231CFDC
:10301800120AF674061217968A0E8B0FAE0EAF0FB1
:10302800E50C2402F50EE50D3400F50F8038888292
:10303800898374FFF00508122E3E74FFF00508908E
:103048000666E0F50C750D00780C1219EA7C677DB0
:103058000685080C747F250C122E581217969006B8
:1030680066E02508F508EE4F60278E828F83A3A3BC
:10307800A3E0F9850E82850F831231DFEE24041256
:103088003A42E96027850C82850D831231C11235D9
:1030980047E50870030231A71231E9850E82850FD2
:1030A800831231D512088079000231BCE4F514F599
:1030B8001578141219EA751466751506781412191C
:1030C800EA75146775150678141219EA7408121748
:1030D800CB121A017911EEFCEFFD850E82850F8364
:1030E800123D96121796E9F509709A850882AA8208
:1030F800EA9006667009E0240490067EF08025E0D8
:10310800F890067EE0F514E82404FCE43400FDECB5
:1031180065147001ED7081122F8E9412122F864063
:10312800030230A0850C82850D83E0C0E0747F2AFD
:10313800122E45D0E0F00508850C82850D83A3E0AA
:10314800C0E0122E3ED0E012320485820C85830D39
:10315800780C1219EA74041217CB121A018510821E
:103168008511831231FB1217968A0C8B0DAE0CAFAA
:103178000D85080C747F250CF874063400F9EE4FA1
:103188007003023036851882851983E08882898326
:10319800123204A3E0C0E0122E3ED0E0023044E533
:1031A80009700375090A850A82850B831231C112D9
:1031B8003547A9097404022E36123D6A85128285A4
:1031C8001383227C7D7D06850A82850B831231D983
:1031D80022E0FAA3E0FB221231D9120AE4E9F50948
:1031E8002290067EE0F5F0E5088490067DF07C7D6F
:1031F8007D0622122E6E120B02740422F005088539
:1032080018828519832274EC1217D774FE1217805E
:103218008A088B098C0E8D0FEA2405FEEB3400FF1B
:10322800123417EE2418123A42EA450B70030232A0
:10323800BA12340050291232DF8A108B11EA451174
:10324800606B7912AC0AAD0B85088285098312314F
:10325800D58510828511831217D5E9F50A7058E4CF
:10326800F50AF50B780A1219EA8E828F83A3A3E078
:10327800F50A780A1219EAEE2403123527780A1299
:1032880019EA8E828F831232EC120C16740612170A
:1032980096E9F50A7021850C82850D83E0701F85FB
:1032A80008828509831231D51208868011750A0EA5
:1032B8008009750A018004E50A600312353A850C15
:1032C80082850D83E0600479008002A90A740212E5
:1032D80017967F0C0218A98518828519831231D98F
:1032E800120C0422123535FD8508828509831231B6
:1032F800D92274EE1217D774FE1217808A088B0928
:103308008C0C8D0DEA2405FEEB3400FF750E0012BF
:103318003417EA450B70030233DE123400502C12C6
:1033280032DF8A0E8B0FEA450F604A7912AC0AAD7C
:103338000B8508828509831231D5850E82850F8316
:103348001217D5E9F50E60030233E1850882850975
:103358008312361CAA0AFB1233F270147AFF7BFF21
:103368001233F2606C88828983E50AF0A3E50BF0DA
:10337800750A008007750E0E805F050A900663E0E7
:10338800FAE50AC39A504AE50A75F017A4FAABF0B1
:1033980088828983A3A3E02AFAA3E03BFB8A828B75
:1033A80083123530EC4D70D2750A17750B00780A08
:1033B8001219EAEEFCEFFD1204667402121796EE7B
:1033C800FCEFFD8508828509831231D512088C80AF
:1033D80014750E098003750E01123D62850C8285F5
:1033E8000D83123547A90E022F81120BF88A108B14
:1033F80011A810A911E84922E5082402F508E509F1
:103408003400F5098A828B83A3A3A3E0A2E5228571
:103418001882851983AC82AD838E828F8312342DF6
:103428008A0A8B0B22E0FAA3E0FB120AFC2274043E
:103438001217967F0A0218A974EC1217D78C108DF0
:1034480011EA2405F50CEB123A45750F00EA24023F
:10345800F50AEB12352A850A82F5831231D5123E18
:103468001C700302351C750E008071850C82850D59
:1034780083E06401704F8E828F83A3A3121A018E9A
:10348800828F83A3A3A3A3E0F51275130078121209
:1034980019EAEE2405F512EF3400F5137812121923
:1034A800EA1231CF120C167406121796E9F50F605E
:1034B80014850C82850D83E4F0123D6285108285A7
:1034C80011831235477C177D007900EEFAEFFB1265
:1034D800047E8E828F83E4F0A3F0050E900663E0ED
:1034E800F8E50EC398501EE50E75F017A4F8A9F07C
:1034F800850882850983A3A3123D82123530EC4DDD
:10350800600302347385088285098374FFF0A3F091
:10351800E50F70061231CF120892A90F0232DAF5C0
:103528000AEF3400F50B22A3123535FD22E0FCA387
:10353800E0228E828F83123D6A850E82850F83E892
:10354800F0A3E9F022C082C08390065FE06A7003AE
:10355800A3E06B70067A5F7B0680047A007B00022A
:10356800288F74F71217D77F00EF75F003A4F8A916
:10357800F0EC28F8ED39F988828983E06A7003A3B2
:10358800E06B7006E8FAE9FB800B0FEFC39402408A
:10359800D87A007B007F010218A974F61217D71297
:1035A8003B5370067A007B008007A3A3A3A31231C4
:1035B800D5023C1474F21217D7E9FE740E1217CB19
:1035C80012361C74101217CB123A848C828D83E049
:1035D8006402703BA3123D6688828983E0F50CA3E0
:1035E800E0F9A80C74026870037429697021750CDD
:1035F80002750D00780C1219EA78081219EA780A8F
:103608001219EAEEF9120C3A74061217968002792A
:1036180001023C84E0F50AA3E0F50B2274E81217D6
:10362800D774FB121780E9851882851983F08A16EA
:103638008B178C0E8D0F741F1217CB123A847421BE
:103648001217CB12361C74231217CB123A6E751050
:10365800008C828D83A3A3A3E0A2E4502A741D12D8
:1036680017CB1232E58A828B83E582458370030289
:103678003730790AAC0EAD0FAA16AB171217D5E979
:10368800F5106003023733850E82850F83E06402EC
:1036980060030239E9A3123D66850882850983A380
:1036A800858212858313E50E2406F50CE50F123A80
:1036B8004588828983E0FAA3E0F9EA2400F514E456
:1036C80039F5157814121A74010000280128F83603
:1036D80007000228CF3703283F370029F938012986
:1036E80021390229C8380329F93804298A39E939DE
:1036F800EE4F703E850C82850D83123A5FFAE9FB26
:103708008A828B83E0850A82850B83123A9B121981
:10371800EA8A828B83A3123535FDAA08AB09120405
:10372800667402121796800375100EA910740502AC
:103738003D7075100B80F4EE4F70F7850A82850B8B
:10374800837401F0123A74850882850983F07C003D
:103758007D00850E82850F83A3A3A3A3E02401FA2D
:10376800A3E03400FB120AFCEA4B60418A828B8397
:10377800E02402F8850A82850B83E028F0EA240415
:10378800F8EB3400F988828983E0851282851383F7
:10379800123AAD123A9B1219EA8A828B8312352F9C
:1037A800E5082403FAE5093400FB023726850A8276
:1037B800850B83E02404F07C047D007900AA12AB19
:1037C8001312047E023733EE4F600302373A123A7F
:1037D80074FEA3E0FF850A82850B837404F0EE85EE
:1037E8000882850983F0EF851282851383F07403BC
:1037F8001217CBAC82AD83EEFAEFFB123B4170039C
:103808000238A58A828B83A3A3123A6A740112171D
:10381800CB85820E85830F780E1219EA740512176C
:10382800CB121A017CFF7DFF120B0274041217964B
:103838008B0FEA450F7033850C82850D83123A4A47
:103848001219EA850C82850D83A3121A017C027D68
:10385800007A3C7B8212092E7404121796E9700ACA
:1038680074011217CB74FFF0A3F08E828F83E0648B
:10387800027034750C02750D00780C1219EA8E82EC
:103888008F8312352FE5082404FAE509122E5B12FE
:103898001796850A82850B83E02402800974011239
:1038A80017CBEEF0A3EFF074011217CB123A5BF0CE
:1038B80074011217CBA3123A53A3A3A3F002373310
:1038C800EE4F600302373A850C82850D831235303E
:1038D800AA16AB17120C2E850A82850B837402F088
:1038E800EA850882850983F0851282851383EB8037
:1038F800CBEE4F600302373A123A74F8A3E0F98529
:103908000A82850B837402F0E8850882850983F0B2
:10391800E985128285138380A3850C82850D831225
:1039280031D5120460EAFC8C82A882C39EE49F40D1
:103938004BE86E7001EF70047C00801F851882854B
:103948001983E0FAEE2AFAEF3400FBC3EA98EB9405
:10395800005003E08004EECCC39CFCEC850A828511
:103968000B83F08C0A750B00780A1219EA850C8211
:10397800850D83E02EFCA3E03F0237217510070276
:103988003733EE4F600302373A850C82850D831278
:103998003D66850A82850B837407F08882898312C5
:1039A8003A53123A3BE0851282851383F0E82402E9
:1039B800FAE93400FB8A828B83123A53123A8C124A
:1039C8003A5BA3123A95123A64F0E82405F8E93410
:1039D80000F988828983123A64A3123AADA30238A7
:1039E800C1741D1217CB123B4C7003023730123DC5
:1039F80066880C890DE8450D70030237308E108FEC
:103A08001178101219EA780A1219EA78081219EAD4
:103A180074061217CBE0F9AC0EAD0FAA16AB1785DA
:103A28000C82850D831217D57406121796E9F510C6
:103A3800023733F088828983A322F50CEF3400F52E
:103A48000D22E0F50E750F00780E22E085088285BC
:103A5800098322123AB422123D6AE822123AB4A328
:103A6800A322A3A3A3A3E0FEA3E0FF22850C8285E3
:103A78000D83E0F8A3E0F5838882E022E0F508A34F
:103A8800E0F50922A3A3F08A828B83A3221227AC34
:103A9800A3A322F08A828B83123AA422E0F50A7546
:103AA8000B00780A22123A3B123AB422E0850882C7
:103AB800850983A3A32274EE1217D774FE12178008
:103AC8008A0A8B0BECFAEDFB74141217CBE0F51095
:103AD800A3E0F51174161217CBE0FE74181217CB79
:103AE800E0F50EA3E0F50F851882851983AC82AD49
:103AF80083123B41603E851882851983123B4C60D6
:103B08002FA3A3123A84E50845096024780E1219F8
:103B1800EA78101219EAEEF9AC0CAD0DAA0AAB0B53
:103B28008508828509831217D574041217968006B2
:103B3800790E80027901022F81120AFC8A0C8B0D02
:103B4800EA450D221231D9123B5322120BC28A8246
:103B58008B83E58245832274F61217D774FE1217F9
:103B680080740C1217CB123A5F851882851983F07E
:103B780074011217CBE9F0E4F508F5097808121971
:103B8800EA75080278081219EA74041217CB8582BC
:103B98000885830978081219EA120C167406121798
:103BA800967402121796806474F71217D7EAFEEB20
:103BB800FF89087C967D06120C2EEA5402600BA938
:103BC80008EEFAEFFB120AF08002790102359D74C3
:103BD800F61217D774FF6A700374FF6B701C7B00B2
:103BE800EB75F003A4F8A9F0EC28F8ED39F9123CCC
:103BF800190BEBC39402501480E6120BFE8A088B53
:103C080009A808A909E8496003123C197F020218AB
:103C1800A98882898374FF1227AAE4F02274F61215
:103C280017D7120BFE8A828B83E58245836006A331
:103C3800A3E0FA80027A007B0080D174F21217D7D1
:103C48008A088B09ECFEEDFF740E1217CBE0F50A1B
:103C5800123C89701CEEFCEFFD7AFF7BFF123C8959
:103C680070047911801688828983E508F0A3E50934
:103C7800F088828983A3A3E50AF079007F060218F9
:103C8800A9120BFE8A0C8B0DA80CA90DE849227409
:103C9800EE1217D7EAFEEBFF8C088D09890C741217
:103CA8001217CB123D6674141217CB1235307416E6
:103CB8001217CB1231D5750D00EC4D6003023D5A39
:103CC8007402650C6003023D55888289831235357C
:103CD800F9EC2400F50EE439F50FEAF4F8EBF4F901
:103CE800EC58F8E50F59F9E849705DE5082406F83D
:103CF800E5093400F9880A890B8882F583122E6A4F
:103D0800120C2E8A108B11E50E65107004E50F65F4
:103D1800116042780E1219EA850A82850B83122EE9
:103D28006A120C347402121796E9F50D7027780E92
:103D38001219EA850882850983A3A3122E68120C3A
:103D4800467402121796800D750D808008750D0D4A
:103D58008003750D0BA90D02343B8E828F83123DB3
:103D68006A22E0F8A3E0F9221217967F100218A938
:103D78003400F50D850C82F58322E028FEA3E03996
:103D8800FF8E828F83227916850A82850B831231F2
:103D9800D9120C1074082274F21217D7EAFEEBFF3E
:103DA800890B7401650B600E7402650B70637901F1
:103DB800120E20E9705BEEFAEFFB123E1C604775AD
:103DC8000A00800B7C177D00790012047E050A909A
:103DD8000663E0F8E50AC3985021E50A75F017A4D0
:103DE800F8A9F0850882850983A3A3E028FAA3E04F
:103DF80039FB8A828B8312289670C98508828509C7
:103E08008374FFF0A3F07C967D06EEFAEFFB120CAC
:103E180028023C84120BF88A088B09EA45092274A7
:103E2800F21217D78A088B09ECFEEDFF740E1217F1
:103E3800CB12361C900D07E0F4603D7A097B001226
:103E4800048AEA4B60328A828B8374B1F0A3E4124D
:103E58003A8EA3123A8CA3E508F0A3E509123E8333
:103E6800EEF0A3EF123E83A3A3E50AF0A3E50BF05F
:103E7800900D07E0F9120496023C84F08A828B8345
:103E8800A3A3A3A3A322C082C0839061907404F06B
:103E9800A37448F0A37402F09061807440F09061BC
:103EA800BC7403F09061877419F0906265741BF01C
:103EB80090619C740DF090619A7433F0A37455F07E
:103EC8009061A0743AF09008DAE064017009C29138
:103ED800900744746780059007447461F090266EDB
:103EE800E493906186F0902668E493F46027E49365
:103EF800540FF8906185E0686012E5C65480444923
:103F0800F5C6E59E547F644970F8E8F053C680E52D
:103F18009E547F70FA79051211740240D0C082C095
:103F280083E9540FF9906185E0696012E5C6548011
:103F38004449F5C6E59E547F644970F8E9F053C6D4
:103F480080E59E547F70FA0240D0C082C083E5A805
:103F5800F853A87E906181E4F0A3F0A3F0C2BA53AD
:103F68009AFEC289759B00C2C275E90075910075F9
:103F7800BF0075A91175B905906181F0A374C0F0EF
:103F8800A3E4F0D2BA439A0174805842A80240D000
:103F9800C082C08374F8121780900742E0F8A3E04B
:103FA800F9E84970030240C6900742E05440602394
:103FB8007908851882851983AA82AB83120FDC855C
:103FC8001882851983AA82AB83120CB2900742E04B
:103FD80054BFF0E054806010790C7AFE7B08120F11
:103FE800DC900742E0547FF0E0A2E0503190619A03
:103FF8007433F0A37455F09061A0743AF09008DA25
:10400800E064017009C291900744746780059007C5
:10401800447461F0120CB8900742E054FEF0E0548A
:1040280002603190619A743FF0A3745AF09061A0D5
:10403800747FF09008DAE064017009D29190074427
:1040480074718005900744746AF0120CB8900742A6
:10405800E054FDF0E05404601390266CE493906102
:1040680086F0120CBE900742E054FBF0E054086062
:104078001390266DE493906186F0120CBE9007426F
:10408800E054F7F0E05410601390266EE4939061CA
:1040980086F0120CBE900742E054EFF0E054206026
:1040A8000A120CBE900742E054DFF0A3E05401600E
:1040B8000D120F04120CC4900743E054FEF074086C
:1040C8001217968003F0A3F0D083D08202013574D2
:1040D800EC1217D774F4121780851882851983ACEF
:1040E80082AD837583817582CC74041216939026F1
:1040F8006C93F46003024264907808E0C394025021
:104108000302424474041217CBAC82AD83758381D9
:1041180075823E74081216938518828519838582E4
:104128001285831374041217CBAC82AD83750EFF0E
:10413800750FFF7FFF7E00750C48750D788015742C
:10414800086E70030241D774096E70030241D77478
:104158000A6E607B850C82850D8378081216508C58
:10416800828D83A909E50AC9F8881074187808129D
:104178001579E5104508F8C3E098A3E099850C8205
:10418800850D83780812165040188C828D83741818
:104198007808121579E5104508F8E0C398F8A3E007
:1041A800801C74187808121579E5104508FAE9FB9F
:1041B8008C828D83E0F8A3E0F9EAC398F8EB99F9CB
:1041C800C3E8950EE9950F5006880E890FEEFF0E8D
:1041D800E50C2404F50CE50D3400F50DEEC394133D
:1041E800500302414774FF650E700474FF650F6049
:1041F800238F087402780812176D74482508F58211
:1042080074783509F583780812165085128285135B
:1042180083E508F0EC24020C0CED3400FD851282D5
:10422800851383A3858212858313740C1217CBE53B
:10423800826C7003E5836D60030241357508017572
:10424800090078081219EA74021217CBAC82AD8300
:104258007A9B7B091207367402121796740C121790
:10426800967F0C0218A9C082C0839061AE7468F072
:10427800A3746AF090624574FBF0A304F053F4FD54
:1042880043FE029008DA7401F09061A0E0643A906D
:10429800619A70237433F0A37455F09061A0743A56
:1042A800F0740164017009C2919007447467802812
:1042B80090074474618021743FF0A3745AF09061B0
:1042C800A0747FF0740164017009D291900744745E
:1042D800718005900744746A0240CF7F040218A9D0
:1042E800C082C08390088CE06401700A900891E055
:1042F8006004790C800279000240D0C082C08375C6
:10430800E1F190088FE0605514600814605914605A
:10431800518059120F16900885E0F97A867B0812A9
:1043280010F69081C412166E12112C90821012167B
:104338006E121102900890E0F912110E7901121113
:1043480068900883E02416F8A3E03400F98882898D
:1043580083742EF0A3740FF079000240D0120F1C62
:1043680080B4120F2280AF120F2880AA791280EA37
:1043780074F41217D775D90D900874E0A2E0E433ED
:104388001313F8900885E0C4333354C0484401F54A
:10439800D97883790888828983A3A3A3E0F5D9888B
:1043A800828983A3A882A983E864897003E96408E1
:1043B80070E37874790888828983A3E0F5D98882C4
:1043C8008983A3A882A983E8647A7003E9640870E2
:1043D800E575E195900874E0F97A757B081210FC90
:1043E800900D2974C2F0A3740EF0A37424F0A37482
:1043F80010F0A37424F0A37410F0A37424F0A37431
:1044080010F0A374C8F0A3740EF0A37424F0A3747E
:1044180010F0A374E0F0A3740EF0900D377424F03C
:10442800A37410F0A37424F0A37410F0A37424F000
:10443800A37410F0A37424F0A37410F0A37424F0F0
:10444800A37410F0A37424F0A37410F0900883E010
:10445800F8A3E0F5838882A3A37808121650908108
:10446800C078081215C49081D8780812162A9008C6
:1044780083E0240EF8A3E03400F988828983780861
:1044880012165F900883E02414F8A3E03400F9883A
:104498008289837413F09007407402F00242E3C0EB
:1044A80082C083900895E02407F5D9900885E0C478
:1044B800333354C0F5D97883790888828983A3A3D4
:1044C800A3E0F5D988828983A3A882A983E86489AF
:1044D8007003E9640870E3900895E0601F788379B9
:1044E80008FAE82413F582E93400F583E0F5D98861
:1044F800828983A3A882A9831AEA70E69008B5E0A6
:104508002407F5D9900885E0C4333354C04404F532
:10451800D97883790888828983A3A3A3E0F5D98809
:10452800828983A3A882A983E864897003E964085F
:1045380070E39008B5E0601F78837908FAE82433BF
:10454800F582E93400F583E0F5D988828983A3A848
:1045580082A9831AEA70E675E195900D2974CEF068
:10456800A3740EF0A37424F0A37410F0A37424F0C1
:10457800A37410F0A37424F0A37410F0A374C8F00B
:10458800A3740EF0A37424F0A37410F0A374E0F0E5
:10459800A3740EF0900D377424F0A37410F0A37474
:1045A80024F0A37410F0A37424F0A37410F0A3747F
:1045B80024F0A37410F0A37424F0A37410F0A3746F
:1045C80024F0A37410F090821412166E900883E001
:1045D800240EF8A3E03400F98882898312167A90B1
:1045E8000883E02414F8A3E03400F98882898374EE
:1045F80012F090074074010240CFC082C083900837
:1046080095E02407F5D9900885E0C4333354C044B5
:1046180002F5D97883790888828983A3A3A3E0F572
:10462800D988828983A3A882A983E864897003E969
:10463800640870E3900895E0601F78837908FAE8C9
:104648002413F582E93400F583E0F5D9888289835B
:10465800A3A882A9831AEA70E675E195900D2974DA
:10466800DAF0A3740EF0A374DAF0A3740EF0A37456
:10467800DAF0A3740EF0A374DAF0A3740EF0A37446
:10468800DAF0A3740EF0A374DAF0A3740EF0A37436
:10469800E0F0A3740EF0900D377424F0A37410F0BA
:1046A800A37424F0A37410F0A37424F0A37410F07E
:1046B800A37424F0A37410F0A37424F0A37410F06E
:1046C800A37424F0A37410F090821412166E90084C
:1046D80083E0240EF8A3E03400F988828983121657
:1046E8007A900883E02414F8A3E03400F9888289DA
:1046F800837414F090074074040240CFC082C083D2
:10470800900895E02407F5D9900885E0C433335420
:10471800C04406F5D97883790888828983A3A3A33E
:10472800E0F5D988828983A3A882A983E86489707F
:1047380003E9640870E3900895E0601F78837908BE
:10474800FAE82413F582E93400F583E0F5D9888284
:104758008983A3A882A9831AEA70E69008B5E024A1
:1047680007F5D9900885E0C4333354C04404F5D91B
:104778007883790888828983A3A3A3E0F5D98882FE
:104788008983A3A882A983E864897003E96408700F
:10479800E39008B5E0601F78837908FAE82433F5D8
:1047A80082E93400F583E0F5D988828983A3A88259
:1047B800A9831AEA70E675E195900D2974D4F0A3DF
:1047C800740EF0A37424F0A37410F0A37424F0A35F
:1047D8007410F0A37424F0A37410F0A37424F0A34D
:1047E8007410F0A37424F0A37410F0A374E0F0A381
:1047F800740EF0900D377424F0A37410F0A3742491
:10480800F0A37410F0A37424F0A37410F0A374241C
:10481800F0A37410F0A37424F0A37410F0A374240C
:10482800F0A37410F090821412166E900883E0249E
:104838000EF8A3E03400F98882898312167A90086A
:1048480083E02414F8A3E03400F98882898374157E
:10485800F090074074030240CFC082C08390088361
:10486800E0F8A3E0F5838882A3A3A3A3A3A3E402AB
:1048780040CD74F71217D790076EE0F875F004A4CE
:10488800C8AAF02AF9747028F8740739F9E82405D9
:10489800FAE93400FB8A828B83E0FCA3E0FD88827E
:1048A8008983A3A3A3A3A3A3A3A3A3ECF0A3EDF0DD
:1048B80088828983A3A3A3A3A3A3A3E024FFF8A3C7
:1048C800E034FFF98A828B83E8F0A3E9024B1F7476
:1048D800F71217D7EAFEEBFF9061D0E060030249B8
:1048E800B475D90E75D90375D904EE248CF582EF09
:1048F8003400F583E5822408F8E5833400F9E0F50F
:10490800D9A3E865827003E9658370F2EE2484F523
:1049180082EF3400F583E5822404F8E5833400F956
:10492800E0F5D9A3E865827003E9658370F275E163
:10493800957908EE248CFAEF3400FB120FD0790435
:10494800EE2484FAEF3400FB120FD07C00EEF8EF6F
:10495800F9ECFAC3E49AFA95E0FBEE2AFAEF3BFB8E
:10496800EA248BF582EB3400F583E0C0E0E824AB61
:10497800F582E93400F583D0E0F00C88828983A3BE
:10498800A882A983ECC3940840C7EE2470F582EF8F
:104998003400F583E0F8A3E0F9EE2472F582EF34F1
:1049A80000F583E8F0A3E9F0790180027900024B71
:1049B80020C082C08375D90275D90375D90575E100
:1049C80095EA2470F582EB3400F583E0F8A3E0F96A
:1049D800EA2472F582EB3400F583E8F0A3E9F07974
:1049E800010240D074F61217D7EAFEEBFF9008DEFA
:1049F8007406F07508DE75090878081219EA7C0152
:104A08007903121018740212179675D90675D9030E
:104A18007582DE758308E0F5D9A3E58264E3700446
:104A2800E583640870F075E195900740E0640870CC
:104A38001EEE2470F582EF3400F583E0F8A3E0F968
:104A4800EE2472F582EF3400F583E8F0A3E9F079FB
:104A580001024BEC74F61217D7EAFEEBFF9061D017
:104A6800E0706678019008DE740BF0900740E0640F
:104A78000770197508DE75090878081219EA7C01AB
:104A8800790312101874021217967805740128F524
:104A9800D975D9037582DE758308E8FAE0F5D9A3DC
:104AA8001AEA70F875E195EE2470F582EF3400F596
:104AB80083E0F8A3E0F9EE2472F582EF3400F58381
:104AC800E8F0A3E9F0790180027900024BEC74F771
:104AD8001217D7EAFEEBFF75D90375D90375D90DFF
:104AE800EE24DEF582EF3400F583E0F5D975E19523
:104AF8007904121132EE2470F582EF3400F583E068
:104B0800F8A3E0F9EE2472F582EF3400F583E8F0BB
:104B1800A3E9F079018001F07F010218A974F61267
:104B280017D7EAFEEBFF9061D0E0F87480C398FADB
:104B3800EE2483F582EF3400F583E0600478048086
:104B4800027800E8240BF8EAC3985003024BEA7D88
:104B5800099008DEEDF0EE24E3F8EF3400F97ADF8F
:104B68007B087C0888828983E08A828B83F088822C
:104B78008983A3A882A9838A828B83A3AA82AB8311
:104B88001CEC70E0EE2483F582EF3400F583E060DE
:104B98001D7508DE75090878081219EA7C09790379
:104BA800EEFAEFFB12101874021217967D0D7401BD
:104BB8002DF5D975D9037582DE7583088D08E0F562
:104BC800D9A31508E50870F675E195790412113234
:104BD800EE241DF582EF3400F583E4F0A3F07901AB
:104BE800800279007F020218A974F61217D7EAFE2C
:104BF800EBFF9061D0E0F87480C398FAEE2483F557
:104C080082EF3400F583E06004780480027800E8DD
:104C18002408F8EAC3985003024CF17D069008DE98
:104C2800740CF090075DE09008DFF07A5E7B0778FF
:104C3800E079087C028A828B83E088828983F08A03
:104C4800828B83A3AA82AB8388828983A3A882A943
:104C5800831CEC70E07A607B077C028A828B83E09D
:104C680088828983F08A828B83A3AA82AB83888215
:104C78008983A3A882A9831CEC70E0EE2483F582C3
:104C8800EF3400F583E0601D7508DE7509087808C3
:104C98001219EA7C067903EEFAEFFB121018740277
:104CA8001217967D0A74012DF5D975D9037582DE20
:104CB8007583088D08E0F5D9A31508E50870F67521
:104CC800E1957904121132EE2470F582EF3400F583
:104CD80083E0F8A3E0F9EE2472F582EF3400F5835F
:104CE800E8F0A3E9F0790180027900024BEC74F650
:104CF8001217D7EAFEEBFF9061D0E0F87480C398F2
:104D0800FAEE2483F582EF3400F583E0600478043A
:104D180080027800E82404F8EAC3985003024DD0D2
:104D280078029008DEE8F0EE24F5F582EF3400F51D
:104D380083E09008DFF0EE2483F582EF3400F583FA
:104D4800E0601B7508DE75090878081219EA7C020C
:104D58007903EEFA12101874021217967806740185
:104D680028F5D975D9037582DE7583088808E0F5BA
:104D7800D9A31508E50870F675E195EE2474F58257
:104D8800EF3400F583E4F0EE2480F582EF3400F58B
:104D980083E4F0EE241DF582EF3400F583E4F0A3FC
:104DA800F07904121132EE240DF582EF3400F58308
:104DB800E0F8A3E0F9EE2472F582EF3400F583E819
:104DC800F0A3E9F0790180027900024BEC74F61245
:104DD80017D79061D0E0F87480C398FCEA2483F573
:104DE80082EB3400F583E06004780480027800E800
:104DF8002404F8ECC398405B79029008DE7407F04D
:104E0800EA24F6F582EB3400F583E09008DFF0EA57
:104E18002483F582EB3400F583E060187508DE75AD
:104E2800090878081219EA7C02091210187402128B
:104E380017967906740129F5D975D9037582DE7537
:104E48008308E9F8E0F5D9A318E870F875E19579D1
:104E58000180027900024BEC74F51217D7E9FCA225
:104E6800AFE433F50AC2AF7D0080010DEA246FF587
:104E780082EB3400F583E0F8EDC398501A8D08EA08
:104E88002508F8EB3400F9E8246BF582E93400F5DD
:104E980083E06C70D68024EA246FF8EB3400F9E0E4
:104EA800FEEA2EFAEB3400FBEA246BF582EB3400C1
:104EB800F583ECF088828983E004F0E50AA2E092A9
:104EC800AF7F030218A974F61217D7A2AFE433FD17
:104ED800C2AFEA246FF582EB3400F583E014F07C6E
:104EE8000060368C08EA2508F8EB3400F9E8246CF1
:104EF800F582E93400F583E0C0E0E8246BF582E947
:104F08003400F583D0E0F00CEA246FF582EB34002E
:104F1800F583E0F8ECC39840CAEA246EF582EB34D6
:104F280000F58374FFF0EA246AF582EB3400F58318
:104F3800E4F0EDA2E092AF024BECC082C083E5A89A
:104F4800F8C2AFEA246BF582EB3400F583E9F0EAA6
:104F5800246AF582EB3400F583E4F0E8A2E792AF27
:104F68000240D074F31217D7EAFEEBFFECFAEDFB20
:104F78008A828B83A3A3A3A3E0541FF0EE2436F503
:104F880082EF3400F583E4F0F50AEEFCEFFD8A8247
:104F98008B83E0C0E0EC245DF582ED3400F583D02E
:104FA800E0F0750B00E50A33333354F8F50C8A82C8
:104FB8008B83E0F508750900E50B780812174EE5B4
:104FC80008A2E0502FEE2436F8EF3400F9888289E1
:104FD80083E0F508EE2508F508EF3400F509E50843
:104FE8002438F582E5093400F583E50CF0888289D8
:104FF80083E004F0050B050CE50BC3940840AF05EE
:105008000A8A828B83A3AA82AB838C828D83A3AC0A
:1050180082AD83E50AC394055003024F967F0502CB
:1050280018A974F71217D790076CE0640170077A13
:10503800007B000251A17E00900772E070F17401BC
:10504800F0A3E4F0A3F09007D204F09007D5E4F0C1
:10505800A3F09007D804F0900775E4F0A3F0A3F04C
:10506800A3F090077F04F09007A5E4F09082201247
:10507800166E90078812167A90078CE4F0A3F0A3B6
:10508800F09007F0F09007E4F09007D97480F0A34F
:10509800E4F09007DFF09007D7F090085BF0A3F0FA
:1050A800A3F0A3F0A3F0A3F0A3F0A3F0900864F09A
:1050B8009007F3F0900843F0A3F090822012166E48
:1050C80090084512167A90822012166E900849129E
:1050D800167A90084FE4F0900851F090084DF0903F
:1050E8000867F0A3F0A3F0A3F0A3F0A3F0A3F0A344
:1050F800F0786C7907E8246FF582E93400F5837459
:10510800FFF00E88828983A3A882A983EEC3940442
:1051180040E37A6C7B07787B790888828983E0C0D2
:10512800E0EA2461F582EB3400F583D0E0F0888270
:105138008983A3A882A9838A828B83A3AA82AB834B
:10514800E864807003E9640870D07A6C7B07785350
:10515800790788828983A3E0C0E0EA24E7F582EB37
:105168003400F583D0E0F088828983A3A882A983DC
:105178008A828B83A3AA82AB83E8645B7003E964A9
:105188000770CF90076CE004F06401700890077412
:10519800E090076EF07A707B07024B20C082C083D4
:1051A800900773E4F0900772F090076CF0A3F0A3F7
:1051B80074FFF075E1F10240D0C082C083780079B5
:1051C80000900773E060047870790788828983A368
:1051D800A3A3A3E0F90240D074F61217D7EAFEEBB6
:1051E800FF8E828F83A3A3A3E0600F8E828F83A399
:1051F800A3A3E4F090076DE014F090076CE014F0BE
:10520800700690076E74FFF08E828F83A3A3E4F07C
:10521800900880E0700D90076DE0640170057900DA
:10522800121114EE2465F582EF3400F583E0F8A33B
:10523800E0F9E8496029EE2465F8EF3400F98808B8
:1052480089098882F583E0FCA3E0FD90076EE0FA07
:105258007B00120CE8850882850983E4F0A3F0EE50
:10526800FAEFFB121048024BEC74F71217D7EAFE5C
:10527800EBFF8E828F83A3A3A3A3E0FA7B00120D1A
:105288002AEEFAEFFB120F9A121030024B20C0825E
:10529800C0837853790788828983A3E4F088828958
:1052A80083A3A882A983E8645B7003E9640770E6B6
:1052B8009007540245FD74F61217D7EAFEEBFFEC8F
:1052C8002403F8ED3400F988088909EC2407F8ED7F
:1052D8003400F9E8FCE9FD8C828D83E0F8A3E0F95D
:1052E800850882850983E0FAA3E0FB1216F5EE240F
:1052F8000DF582EF3400F583E8F0A3E9F08C828D98
:1053080083E0F8A3E0F9850882850983E0FAA3E041
:10531800FB1216F58B09EA45096013EE240DF58298
:10532800EF3400F583E02401F0A3E03400F0024BF1
:10533800EC74F61217D7EAFEEBFFEE242EF582EF97
:105348003400F583E0FCA3E0FD780079FAECFAED8F
:10535800FB1216F5EE2470F582EF3400F583E8F0C1
:10536800A3E9F0780079FAECFAEDFB1216F58B094F
:10537800EA45096013EE2470F582EF3400F583E006
:105388002401F0A3E03400F0024BEC74F01217D7BC
:10539800EAFEEBFF74101217CB78081216501210A1
:1053A800D28A0C8B0D8C0E8D0F9081BC780C121547
:1053B800C49081D8780C12162A780C1219E68E82BD
:1053C8008F83E0F8A3E0F5838882A3A312166E12F8
:1053D80023FE7404121796E960030254E08E828F4C
:1053E80083E02402F8A3E03400F9E8FAE9FB8A82B2
:1053F8008B8378081215D79081D878081216508AAE
:10540800828B83780812163DEE240BF582EF340068
:10541800F583C082C0838E828F83A3A3A3A3A3E056
:105428002401F8A3E03400F9D083D082E068700347
:10543800A3E069700579010254E28E828F83A3A3E9
:10544800A3A3A3A3A3E02401F0A3E03400F0EE2477
:1054580074F582EF3400F583E064017036EE24754C
:10546800F582EF3400F583E0F8A3E0F98E828F83AC
:10547800A3A3A3A3A3A3A3E0687003A3E069701385
:10548800EE2475F582EF3400F583E02401F0A3E003
:105498003400F0EE2480F582EF3400F583E06401F7
:1054A8007036EE2481F582EF3400F583E0F8A3E04E
:1054B800F98E828F83A3A3A3A3A3A3A3E068700399
:1054C800A3E0697013EE2481F582EF3400F583E0E0
:1054D8002401F0A3E03400F079007F080218A974D1
:1054E800F71217D790076EE0F875F004A4C8AAF071
:1054F8002AF9747028FE740739FF8028EE2465F8AD
:10550800EF3400F988828983E0FCA3E0FD88828972
:1055180083E4F0A3F08E828F83A3A3A3A3E0FA7B96
:1055280000120CE8EE2465F582EF3400F583E0F80C
:10553800A3E0F9E849604FEE2464F582EF3400F502
:1055480083E0F50878081219EEEE2463F582EF344B
:1055580000F583E0F9EE2465F582EF3400F583E089
:10556800FCA3E0FDEEFAEFFB120FC47401121796CC
:10557800E96089EE2465F582EF3400F583E0F8A34D
:10558800E0F9E84970137C007D008E828F83A3A325
:10559800A3A3E0FA7B00120CE8024B2074F2121766
:1055A800D7EAFEEBFF890A740E1217CBE0FAEE2455
:1055B80062F582EF3400F583E064016003025670FF
:1055C8009061D0E0F87480C398F50CEE2483F582DE
:1055D800EF3400F583E060047804800278008908DD
:1055E800E928F8E43400F9E824020808E93400F965
:1055F800E50C98E499A2D265D0334068EA70057545
:105608000B028003750B01E06039750900780812F8
:1056180019EA7ADE7B08120FFA74021217967508D7
:10562800DE75090878081219EAAC0AA90BEEFAEF38
:10563800FB12101874021217967404250AF50A7CD6
:10564800DE7D087401250AF5D9850BD9E50A600DB8
:105658008C828D83F8E0F5D9A318E870F875E19588
:10566800790080067907800279FF7F060218A9C0B1
:1056780082C083E960208C828D83E08A828B83F0EC
:105688008C828D83A3AC82AD838A828B83A3AA820A
:10569800AB8319E970E0ECFAEDFB0240D074EA1232
:1056A80017D7907803E06442705E9008DDE014F04C
:1056B8007056C2AF1256BF00782AD0E0F618D0E074
:1056C800F6E59F5407F970059081B480039081B086
:1056D8007808121650E9C4C0E07829E65508F5089C
:1056E80008E65509F509740B780812175ED0E0250D
:1056F80008F8906270E0A2E740F8E8C3339062725D
:10570800F0906270E0D2E0F090076EE0F47003026F
:105718005AC8E0F875F004A4C8AAF02AF9747028E9
:10572800FE740739FFEE2402F582EF3401F583E0B9
:10573800F8A3E0F9E849601EEE2402F582EF34018F
:10574800F583E0FAA3E0FBEE2401F582EF3401F5DE
:1057580083E0F91204BA8E828F83A3A3A3A3A3A321
:10576800A3E0F8A3E0F98E828F83A3A3A3A3A3E801
:10577800F0A3E9F0906054E0900747F0906055E09E
:10578800900748F0906056E0900749F0906057E025
:1057980090074AF0906058E090074BF0906059E00D
:1057A80090074CF090605AE090074DF090605BE0F5
:1057B80090074EF090605CE0FC90074FF090605DC1
:1057C800E0FB900750F090605EE0FD900751F0908C
:1057D800605FE0FA900752F090074DE08C082508CA
:1057E800F8E43400F98D08E82508F8E93400F98B65
:1057F80008E82508F8E93400F98A08E82508FAE9EC
:105808003400FBEE24F7F582EF3400F583E02AF04C
:10581800A3E03BF08C08EE24F9F582EF3400F58321
:10582800E02508F0A3E03400F0EE24FBF582EF3425
:1058380000F583E02401F0A3E03400F0EE24FFF546
:1058480082EF3400F583E0F8A3E0F9E8496042907C
:105858006000E0C333FCE433FDE82CF582E93DF554
:1058680083E02AF0A3E03BF0906000E0FA90074F55
:10587800E0FCEAC333FAE433FBE82AF8E93BF9E849
:10588800244AF582E93400F583E02CF0A3E03400E3
:10589800F090074DE07011900750E0700BA3E07096
:1058A80007A3E070030259A88E828F83A3A3A3A342
:1058B800A3E0F8A3E0F9EE240DF582EF3400F583B8
:1058C800E028F8A3E039F9EE240BF582EF3400F56F
:1058D80083E8F0A3E9F0EE240FF582EF3400F583B6
:1058E800E4F0EE241CF582EF3400F583E0640170E7
:1058F8001EEE2420F582EF3400F583E0F8A3E0F9EA
:10590800EE241DF582EF3400F583E8F0A3E9F0906A
:105918000748E06052EE241CF582EF3400F58374EA
:1059280001F0EE246AF582EF3400F583E07038EE7A
:105938002474F582EF3400F583E0702BEE2480F5B3
:1059480082EF3400F583E0701EEE2420F582EF34F8
:1059580000F583E0F8A3E0F9EE241DF582EF3400AA
:10596800F583E8F0A3E9F0906062E07003025A5B07
:105978008E828F83E0F8A3E0F9E82406FCE934007E
:10598800FDE82402FAE93400FB1210CC8E828F83E2
:10599800E02412F8A3E03400F988828983025A656A
:1059A80090074FE0603AEE240FF582EF3400F5835C
:1059B800E4F0EE241CF582EF3400F583E064017016
:1059C80040EE2420F582EF3400F583E0F8A3E0F9F7
:1059D800EE241DF582EF3400F583E8F0A3E980207A
:1059E800EE24FDF582EF3400F583E02401F0A3E016
:1059F8003400F0EE241DF582EF3400F583E4F0A3C3
:105A0800F0EE240BF582EF3400F583E0F8A3E0F91B
:105A18008E828F83A3A3A3A3A3E0687003A3E06986
:105A28006003025917EE240FF582EF3400F583E086
:105A380060128E828F83A3A3A3A3A3E064057002E0
:105A4800A3E0600B7908EEFAEFFB120FA0807179E2
:105A58003E80F3EE241DF582EF3400F583E4F0A3D5
:105A6800F0906060E0C0E0EE2469F582EF3400F564
:105A780083D0E0F090074DE0F8EE2467F582EF342C
:105A880000F583E028025BC89008DBE0640170350C
:105A9800121180EE2467F582EF3400F583E070067A
:105AA8009060607480F0EEFAEFFB12108AE96401EE
:105AB800600E120FBE121084E964016003121030E8
:105AC8007F0E0218A9EE2483F582EF3400F583E0F7
:105AD8006004780480027800E50CC398F9120CDCA5
:105AE8008A0A8B0BEA450B60A7EE2483F582EF3414
:105AF80000F583E070048A088B09E50C60128508BC
:105B080082850983F512E5D9F0A31512E51270F61E
:105B1800EE2483F582EF3400F583E0603774FC25CA
:105B28000CF50C78081219EAAC0CA90DEEFAEFFB8B
:105B380012101E7402121796E970197403650D701D
