:020000040000FA
:0600000002011D02217B3C
:03002B00021D9E15
:030053000221EE99
:03006B00021D78FB
:1000830002202FE5C754F84401F5C7790122000087
:100093000080FB120086B90003020107E47921788E
:1000A30008B800028004F709D8FCE479297802B87B
:1000B30000028004F709D8FCE490028178367909BC
:1000C3008002F0A3D8FCD9FA781A90014D7A01BACC
:1000D30000028007E493A3F608DAF9900AB6AA822D
:1000E300AB8390014E780679038015E493A3AC8229
:1000F300AD838A828B83F0A3AA82AB838C828D83A8
:10010300D8E9D9E77582F77583A9740312012F75AE
:100113008291758300740012012F75D00075813FA1
:10012300751881751902759F00020096C09FF59F8F
:10013300E473D09F22D083D082C09FE493C0E07445
:100143000193C0E0740293F59F220101FFFF0201B6
:100153000603020D180708434D5F48524D434D20D7
:1001630048656172742052617465204D6F6E6974C5
:100173006F727D03000083038F03FFFFBB001264D4
:1001830002DF81010000C98102DB81010000E90A6D
:1001930002FB81010000EA0A02D98103000039044D
:1001A30002020202DF81010000CC8102DB81010037
:1001B300000B0B02F581010000410402DB81010009
:1001C300000C0B02F381010000B18002DB8101000E
:1001D300000D0B02F181010000CC8010020802DF48
:1001E30081010000CF8102DB81010000460B02EB9D
:1001F300810000004B0402D9810300004C0402DBA0
:1002030081010000470B02E981010000520402DB77
:1002130081010000480B02E781020000530401E85A
:1002230003053F10FF0001307503020106000000C3
:1002330000000000000000000000000000000000BB
:10024300000000000000000000FFFF0600800CE833
:1002530003FF0000B4000028002800283075A00028
:10026300A000A000A00000080008E001F0001000BA
:10027300100010001000100010005000500050003B
:1002830010001000D0070000000000000F00010064
:100293000500307507001000010081FF0000FF9B7F
:1002A30009B909A109FF02020208025000A00000D7
:1002B30000E80302DF81010000C68102DB81010047
:1002C30000110C02D7810100000D0602DB81010041
:1002D30000120C02D581010000230602DB8101001C
:1002E30000130C02FF81010000250602DB810100DF
:1002F30000140C02E581080000260602DB810100E0
:1003030000150C02EF81010000160CFF0100FF2015
:1003130002DF81010000D28102DB810100007A0C3F
:1003230002F981000000000002D981030000730676
:10033300710F710F710F710F710F710F710F710FBA
:10034300710F710F710F710F710FFF111712F911E7
:10035300120138579B031201388C9B031201389FFB
:100363009B03120138AF9B03120138C39C03120194
:1003730038008003120138FF8103120138B482036D
:100383001201385F8303120138948303120138ACDE
:100393008303120138A5AA031201386697031201D9
:1003A30038729703120138B79703120138C29703C3
:1003B300120138CA9703120138DD9703120138F886
:1003C30097031201382198031201383A9803120156
:1003D30038849803120138929803120138E1980384
:1003E300120138A6D502120138B0D502120138F134
:1003F300D5021201383AD60212013874D60212011C
:1004030038CAD602120138EBD602120138F4D602EA
:1004130012013848D70212013871D7021201387B12
:10042300D702120138E9D70212013879D802120132
:1004330038D4D80212013802D9021201388AD902FB
:10044300120138C9D902120138FED902120138103B
:10045300DA021201382FDA0212013838DA021201F5
:1004630038FFDA0212013898A90312013849A403AC
:100473001201386699031201389C9903120138D08E
:1004830099031201381D9B0312013888A703120137
:10049300389EA703120138A8A703120138F2A70355
:1004A300120138A5E902120138B8E90212013879BC
:1004B300EA02120138B8EA02120138D5EA0212013F
:1004C300380EEB021201385BEB021201388DEB029E
:1004D300120138C4EB02120138CDED0212013818B3
:1004E300FF021201383BFF021201386AFF021201B8
:1004F30038ACFF021201384FAE0212013825B402A4
:1005030012013804B5021201386DB5021201389395
:10051300B6021201388EF20212013809F3021201F7
:100523003853F30212013878F4021201388DF502C0
:100533001201380FF60212013838FD011201387D1D
:10054300FD0112013892FD01120138ECFD01120187
:100553003876FE0112013821FF0112013858FF01DC
:10056300120138AFA003120138D4A00312013804DA
:10057300A103120138EE92031201383393031201DF
:1005830038469303120138629303120138A0930390
:100593001201380F9403120138F994031201384FF2
:1005A300AA03120138028201120138E08301120109
:1005B300387F85011201382A8601120138AA860183
:1005C3001201382F8701120138588701120138337D
:1005D3008B01120138AA8B01120138C18C0112015F
:1005E30038FB8C011201383C8D01120138838E01D6
:1005F300120138D98E01120138228F01120138916C
:100603008F01120138FD8F011201382E9001120162
:10061300384690011201385F91011201386F910140
:100623001201382593011201383C93011201386EEF
:100633009301120138109501120138A4950112019A
:100643003817A60312013823A603120138C0A603E4
:10065300120138B0FF01120138EFFF011201383BDC
:10066300AB03120138D2A603120138E2A60312012A
:1006730038F1A60312013882A70312013847A303F6
:10068300120138CCA30312013830A403120138F24B
:100693007F0012013825AB0312013835AB03120179
:1006A3003838AB03120138F87F0012013832950352
:1006B300120138BC96031201381D970312013863E7
:1006C300970312013824A90312013855A903120113
:1006D3003882A903120138577E00120138A97E001F
:1006E3001201381C7F00120138897F00120138A7DC
:1006F3009003120138D19003120138A09103120123
:10070300387C920312013847BF0212013813C0022A
:1007130012013854C0021201388EC002120138ECA3
:10072300C00212013840C1021201389EC1021201F7
:100733003834C2021201383CC302120138C6C40263
:1007430012013864C502120138CBC502120138DE2A
:10075300C502120138D2C6021201381BC7021201A8
:100763003849F0011201387BF3011201380CF5010D
:1007730012013863F50112013880F50112013800C6
:10078300F6011201387CF7011201384BF80112010E
:1007930038B8FB01120138A2FC01120138FC9E0398
:1007A300120138139F03120138429F031201387B51
:1007B3009F03120138A39F03120138D19F03120133
:1007C30038E89F03120138FF9F0312013815A00375
:1007D3001201383CA0031201384FA00312013865FF
:1007E300A00312013878A0031201389DA00312015F
:1007F3003811A40212013810A50212013845A502CE
:1008030012013866A50212013876A5021201389743
:10081300A502120138A3A60212013870A702120121
:1008230038E3A70212013869A802120138ACA80202
:10083300120138E3A80212013869A9021201383BF8
:10084300AA0212013899AA02120138B1AA021201AE
:10085300382BAB021201382EAB0212013831AB0236
:10086300120138D8AB02120138F0AB021201382062
:10087300AC0212013840AC021201382EAD02120153
:1008830038E4AD02120138FDE40212013825E50215
:1008930012013853E5021201388AE502120138F2D7
:1008A300E5021201383BE60212013886E602120124
:1008B30038C4E60212013801E7021201382FE702B9
:1008C300120138D6E702120138E0E702120138EDCF
:1008D300E70212013820E802120138E2E8021201AD
:1008E30038EEE80212013806E90212013810E90273
:1008F30012013840A5031201384EA50312013866D0
:10090300A5031201387EA50312013893A901120130
:100913003831AA01120138A9AA01120138BEAB016C
:10092300120138F8AB01120138A1AC01120138767B
:10093300AD01120138DAAE0112013831AF011201F3
:1009430038B8AF011201389FB001120138ECB00181
:100953001201387AB1011201389EB10112013873C4
:10096300B301120138B4B301120138D6B301120135
:100973003857B40112013841B50112013807B601E5
:100983001201389ACE021201386CCF0212013815C7
:10099300D00212013858D002120138E5D0021201F8
:1009A3003871D10212013852D20212013881D202B7
:1009B3001201387DD302120138C5D302120138C7A0
:1009C300D4021201380BD50212013831D5021201BB
:1009D300381EA803120138E98303120138FF830389
:1009E3001201382584031201384D8503120138574B
:1009F3008503120138B08603120138B08703120150
:100A0300382DDB0212013862DC0212013895DC0258
:100A1300120138DFDC021201389DDE02120138FABE
:100A23006E001201385D6F00120138A270001201CE
:100A330038B27000120138D57000120138207100ED
:100A4300120138C57100120138BB720012013885DA
:100A53007300120138FD74001201383F7500120152
:100A630038DD75001201382A7600120138507600FD
:100A73001201383E780012013843780012013824FD
:100A83007A00120138787A00120138DA7A001201FA
:100A930038027B00120138A67B00120138687C0003
:100AA300120138997C001201389C7C00120138E451
:100AB3007C00120138267D001201388D7D00120161
:100AC30038518E03120138648E031201387D8E0370
:100AD300120138C88E03120138A38F031201383272
:100AE30090031201387D900312013880280012010F
:100AF300388C2800120138C528001201380A290051
:100B0300120138C12900120138472A001201387333
:100B13002A00120138AC2A00120138C02C0012013D
:100B2300389C2E00120138873000120138BE310084
:100B33001201381E34001201380A350012013850F0
:100B430036001201385D37001201387A370012017E
:100B530038B23700120138CC37001201383438006C
:100B6300120138CE3C001201386F3D00120138C02B
:100B73003D00120138E73D00120138353E001201F5
:100B830038533E00120138A73E00120138AF3F0030
:100B930012013837400012013853E0021201385D68
:100BA300E00212013828E10212013843E102120186
:100BB3003869E102120138ADE102120138E5E102C0
:100BC3001201380EE20212013887E2021201389C48
:100BD300E202120138B1E202120138E8E202120124
:100BE30038FCE2021201382DE30212013867E302F6
:100BF30012013893E302120138E9E3021201383D8E
:100C0300E40212013886E402120138B0E402120150
:100C130038D5E4021201382CFB02120138F6FB022C
:100C2300120138D9FC021201384FFD02120138912A
:100C3300FD02120138BEFE021201380080021201C9
:100C4300382980021201384280021201388781025A
:100C530012013865820212013884820212013811AE
:100C63008302120138548302120138A18402120153
:100C730038408502120138BF8702120138568802B4
:100C83001201382A89021201380C8A0212013878BB
:100C93008B021201380B8C0212013832A2031201AB
:100CA300389BA203120138EFA20312013816A303E3
:100CB30012013839EE02120138A6EE02120138F1A0
:100CC300EE02120138E6EF02120138E2F0021201DD
:100CD30038CCF102120138D9B6021201381BB7021F
:100CE300120138F5B702120138CEB802120138C921
:100CF300B902120138A8BA0212013814BB02120158
:100D030038DBBB0212013846BC02120138ADBC020B
:100D1300120138D8BC0212013849BD02120138DC75
:100D2300BD0212013845BE021201385ABE02120139
:100D330038A2BE02120138BBBE0212013820BF0224
:100D430012013823BF02120138578B031201387F77
:100D53008B03120138BD8B031201387B8C03120104
:100D630038E68C03120138028D031201382A8D03F1
:100D73001201385A8D03120138698D03120138E3C9
:100D83008D03120138098E03120138BAC60112010C
:100D93003897C80112013892CA0112013865CB0194
:100DA300120138B0CB01120138FBCB011201380D0F
:100DB300CC011201384DCC0112013882CC01120151
:100DC30038CECC01120138FDCC0112013820CD01FF
:100DD3001201386DCD01120138F6CD01120138032D
:100DE300D001120138EED10112013831D2011201C2
:100DF3003896D301120138D7D3011201384AD401EE
:100E030012013896D401120138C1D401120138827B
:100E13008C02120138AD8C02120138949302120134
:100E230038B89502120138739702120138D098022C
:100E33001201389E40001201383541001201386218
:100E43004100120138A84100120138E742001201A3
:100E5300387E4400120138F844001201381345006B
:100E6300120138884500120138B7460012013812C2
:100E73004800120138144900120138714A00120166
:100E8300388A4A00120138E74A00120138C94B0078
:100E9300120138FC4B001201386C4C00120138E689
:100EA3004C00120138354D00120138014E00120179
:100EB30038064F00120138E54F0012013870500018
:100EC300120138DE50001201385251001201387BF2
:100ED30051001201383A5200120138B45300120182
:100EE30038D15300120138F05300120138815400F5
:100EF300120138A65400120138CE540012013849A9
:100F03005500120138A35500120138F7560012019B
:100F130038B45700120138875800120138EBD40156
:100F23001201383BD50112013847D501120138248B
:100F3300D60112013854D6011201388CD6011201A0
:100F4300380BD70112013843D70112013895D70165
:100F5300120138D2D701120138F7D901120138230F
:100F6300DC011201381EDE01120138F9DF01120122
:100F730038EF7F00120138E295011201382C9601F7
:100F83001201380B9C011201388C9D01120138EBC0
:100F9300A301120138E6A40112013823A5011201AD
:100FA3003846A50112013888A50112013891A5011F
:100FB3001201389BA50112013887A6011201387B63
:100FC300A701120138B558001201382D6300120130
:100FD300383363001201383F6A00120138BA8703BD
:100FE300120138508803120138668803120138E071
:100FF30088031201383689031201387489031201F8
:1010030038D189031201384E8A03120138578A03F3
:10101300120138638A03120138768A03120138B247
:101023008A03120138C88A03120138278B0312017D
:1010330038E0F602120138EDF60212013807F70222
:1010430012013846F70212013884F702120138E917
:10105300F702120138FEF70212013809F8021201F1
:101063003816F8021201382DF8021201383BF80243
:1010730012013846F80212013852F802120138619F
:10108300F8021201386CF8021201388FF8021201CB
:101093003838F90212013848F90212013862F902AC
:1010A3001201387FF9021201389BF902120138C08C
:1010B300F902120138CAF902120138DEF9021201EB
:1010C30038FDF9021201385EFA0212013864FA029D
:1010D3001201386AFA0212013870FA021201387CDE
:1010E300FA02120138AFFA02120138BFE20112010B
:1010F3003841E301120138EAE30112013832E50114
:1011030012013840E70112013826E8011201385B69
:10111300E8011201387DE80112013826E9011201C4
:1011230038F6EA011201381FEB0112013897EB017F
:10113300120138C9EB01120138D6EB011201382133
:10114300EC0112013845EC0112013896EE0112014F
:1011530038A0EF01120138FCEF011201383CB8014D
:101163001201384DB90112013831BA011201383B6D
:10117300BA011201385DBA0112013869BA011201CC
:10118300380DBC011201383ABC0112013850BD01BF
:10119300120138A5BD01120138F4BE01120138C98C
:1011A300BF0112013825C00112013890C00112019C
:1011B30038C5C00112013808C101120138D2C30178
:1011C300120138EAC3011201387BC40112013889C4
:1011D300C401120138D6C401120138E4C40112015A
:1011E3003850C501120138CBC50112013822C6019E
:1011F300120138F3980212013815990212013826A8
:101203009B02120138E59D021201380F9F02120161
:1012130038CD9F02120138B9A002120138439D0351
:10122300120138689D03120138DE9D031201387DD7
:10123300C70212013886C7021201388FC702120192
:101243003867C80212013818CA0212013848CA02A4
:1012530012013873CA02120138A3CA02120138CE2E
:10126300CA0212013802CB021201382ECB0212013C
:101273003871CB021201389CCB02120138E3CB0246
:1012830012013838CC021201387ACC02120138D458
:10129300CC02120138FFCC021201384ECD021201EA
:1012A300387ECD02120138A9CD02120138D7CD0202
:1012B300120138FACD02120138A7A803120138D35C
:1012C300A80312013800A9031201380AA903120165
:1012D300381AA903120138DAAA0312013807AB033B
:1012E300E066701008A3E066700A08A3E066700465
:1012F30008A3E06622C008C3E096F50808A3E096B9
:10130300420808A3E096420808A3E0964208A2D246
:1013130065D033E5087001D3D00822C3E7960809E6
:10132300E7960809E7960809E79622C3E09608A31B
:10133300E09608A3E09608A3E09622C008C3E096CF
:10134300F50808A3E096420808A3E096420808A31C
:10135300E09645087001D3D00822080808E630E774
:1013630011121798121375080808C64480C6181876
:101373001822181818E9799EC608CAC608CBC608E9
:10138300CCC6C370207996CACBCC7019798ECBCCDE
:1013930070137986CC700EF9802ACA33CACB33CB4B
:1013A300CC33CC331930E7F2CCCBCA3350147004AE
:1013B300EA30E00DE4CA3ACACB3BCBCC3CCC50027A
:1013C30009C3E913C6CC182313C6CB18C6CA18C65B
:1013D300F92212141520F01430E72B74FFFCFBFAEA
:1013E300747F8022E4FCFBFA7480801AB48008BC0A
:1013F30000F2BB00EF800F50EBF9E4C39AFAE49BD1
:10140300FBE49CFCE499C6CC18C6CB18C6CA18C624
:10141300F922E4C9C608CAC608CBC6D3330308CC2D
:10142300C63392F0C3947F402E94184019C9B9076C
:1014330004CACBCC225025C309CA33CACB33CBCC85
:1014430033CC33D9F422F4600DC9CCC313CB13CB03
:10145300CA13CAD9F6CC22E4FCFBFA2214FCFBFA29
:1014630022E6C33318461846184622E7C333194702
:101473001947194722181818E6084608700AE6089B
:10148300C3337005E633F4220822191919E7094713
:1014930009700AE709C3337005E733F4220922E62A
:1014A300084608C3134608336002E633F422E7090B
:1014B3004709C3134709336002E733F422001214C8
:1014C300A2604F1214B16012E7548066F6121478CA
:1014D300701112146E703B090909F4F618F618F628
:1014E30018F62212148D701512146408080860EAA5
:1014F300E6447FF618768018E4F618F62212146490
:10150300601612146E7012E4F608F608F608E65434
:1015130080F609090918181822EAC0E0EBC0E0ECCC
:10152300C0E0EDC0E0E687F0A4FBACF008E687F08E
:10153300A42CFCE435F0FA1809E687F0A42C4B60E0
:10154300027401CA35F0FCE433FB09E687F0D2F7F5
:10155300A42CCB35F0FC1908E687F0A42BCC35F08E
:10156300FBE433FD0819E687F0D2E7A42C4ACB3518
:10157300F0CD3400FC09E687F0D2E7A42DCC35F09A
:10158300FDE433FA0918E687F0D2F7A42CCD35F041
:10159300CA3400FC08E687F0D2E7D2F7A42ACC3598
:1015A300F07A7E20E70B0ACB33CBCD33CDCC33CCD3
:1015B30033CB3350147004ED30E00ED2F1E4CD3D63
:1015C300CDCC3CCC3B5005DA05C2F1EB547FC6339E
:1015D30008E63392F0FBE73309E733C39A502D2B28
:1015E30070190C0D4C4D70151806E608C333700DB9
:1015F30020F10AA2F013F6E418800B4024E4F6303D
:10160300F002768018F618F618F68024D33B1450AF
:101613001074FFA2F013F6187680E418F618F6801B
:101623000FA2F013F618E63303F618ECF618EDF6EE
:10163300D0E0FDD0E0FCD0E0FBD0E0FA22080808BF
:10164300EAC0E0EBC0E086F0E7A4FA180986F0E709
:10165300A42AFA180986F0E7A42AFA180986F0E7FB
:10166300A42AFA1986F0E7A4FBE5F02AFA190886FA
:10167300F0E7A42BFBE5F03AFA190886F0E7A42B70
:10168300FBE5F03AFA18180986F0E7A4C5F02BFB3E
:10169300E43AFA1908E7C5F0C6A426F6E5F03BFBE1
:1016A300E43AFA1886F0E7A4F6E5F00826F6E43BF8
:1016B30008F6E43A08F6D0E0FBD0E0FA22E4CFC023
:1016C300E0E4CEC0E0E4CDC0E0E4CCC0E075F020BF
:1016D300C3E633F608E633F608E633F608E633F6F0
:1016E300181818EC33FCED33FDEE33FEEF33FFC374
:1016F300EC9709ED9709EE9709EF97191919400F20
:10170300FFEC97FC09ED97FD09EE97FE191906D535
:10171300F0BEECF709EDF709EEF709EFF719191920
:10172300D0E0FCD0E0FDD0E0FED0E0FF2212179B1A
:101733001818181216C012178719191922121787A9
:10174300191919080808E618181820E7E01216C036
:1017530012179B18181822090909E719191920E704
:10176300DC080808E618181820E7030216C0121749
:101773009B1818181216C012179B181818121787DF
:1017830019191922E4C397F709E497F709E497F7BE
:1017930009E497F722181818E4C396F608E496F6B6
:1017A30008E496F608E496F6226017080808C6A22D
:1017B300E713C618C613C618C613C618C613C6D56C
:1017C300E0E9226016080808C6C313C618C613C684
:1017D30018C613C618C613C6D5E0EA22700908084E
:1017E30008226016181818C6C333C608C633C608BD
:1017F300C633C608C633C6D5E0EA22E627F608098B
:10180300E637F60809E637F60809E637F622E02652
:10181300F608A3E036F608A3E036F608A3E036F6AA
:1018230022E026F008A3E036F008A3E036F008A390
:10183300E036F022C3E697F60809E697F60809E6CC
:1018430097F60809E697F622C3E0C696F608A3E0E2
:10185300C696F608A3E0C696F608A3E0C696F62257
:10186300C3E096F008A3E096F008A3E096F008A37F
:10187300E096F022E056F608A3E056F608A3E056F9
:10188300F608A3E056F622E056F008A3E056F00867
:10189300A3E056F008A3E056F022E0F608A3E0F632
:1018A30008A3E0F608A3E0F622E6F008A3E6F008B2
:1018B300A3E6F008A3E6F022E0FAA3E0FBA3E0FC32
:1018C300A3E0FD22EAF0A3EBF0A3ECF0A3EDF022FA
:1018D300CAC0E0E6F0A308DAFAD0E0FA22CAC0E010
:1018E300E0A3C582CCC582C583CDC583F0A3C582E1
:1018F300CCC582C583CDC583DAE6D0E0CA22C3E472
:1019030098F8E499F91219428026C3E49AFAE49B01
:10191300FBE920E7E9121942E498F8E499F922C3B4
:10192300E498F8E499F9121942E498F8E499F9C3B0
:10193300E49AFAE49BFB22EB20E7CFE920E7E0B946
:101943000010BB0008E88AF084F8AAF022E4FBC880
:10195300FA22EB70227B10C833C8C933C93350074E
:10196300C39AC3DBF280069A50012ADBEAC833F438
:10197300C8C933F4C9FA2275F008E4C833C8C933B7
:10198300C933C99AC99B5004C92AC93BD5F0ECFB9A
:10199300C833F4C8E4C9FA22600D08C6A2E713C627
:1019A30018C613C6D5E0F322600C08C6C313C618C5
:1019B300C613C6D5E0F422700422600D18C6C333E3
:1019C300C608C633C6D5E0F41822251810AF08F5AB
:1019D30018400215198008F51840021519D2AF22D4
:1019E300C0D0251810AF08F518500205198008F566
:1019F3001850020519D2AFD0D0222518F58210AFA6
:101A030008F518400215198008F51840021519D277
:101A1300AF851983222518F582E43519F58322E46D
:101A2300732518C582C0E0E51934FFC583C0E0E51E
:101A330018C3958224F810AF08858319858218800E
:101A430008858319858218D2AFCEF0A3E520F0A3D1
:101A53007808E608F0A3DEFAEFF0A3E58124FAF8AC
:101A6300E608F0A3E608F0A3E608F0A30808E608F2
:101A7300F0A3E608F0A315811581D0E0FED0E0F8CD
:101A8300158115811581E8C0E0EEC0E0222518C557
:101A930082C0E0E51934FFC583C0E0E518C3958231
:101AA30024F910AF08858319858218800885831966
:101AB300858218D2AFCEF0A3E520F0A37808E6081C
:101AC300F0A3DEFAEFF0A3E58124FBF8E608F0A328
:101AD300E608F0A30808E608F0A3E608F0A31581DA
:101AE3001581D0E0FED0E0F815811581E8C0E0EE65
:101AF300C0E022851983851882E0A3FEE0A3F520C8
:101B03007808E0A3F608DFFAE0A3FFE0A3C0E0E073
:101B1300A3C0E0E0A3C0E0E0A3C0E0E0A3C0E01006
:101B2300AF088582188583198008858218858319F3
:101B3300D2AFD083D082020135851983851882E024
:101B4300A3FEE0A3F5207808E0A3F608DFFAE0A3FC
:101B5300FFE0A3C0E0E0A3C0E0E0A3C0E0E0A3C0D7
:101B6300E010AF088582188583198008858218855F
:101B73008319D2AFD083D08222C0D02518C582C0AA
:101B8300E0E51934FFC583C0E0E518C3958224F36B
:101B930010AF08858319858218800885831985828B
:101BA30018D2AFC8F0A3E9F0A3EAF0A3EBF0A3794E
:101BB30008E709F0A3D8FAECF0A3EDF0A3EEF0A345
:101BC300EFF0A3D0E0F0A3D0E0F0A3D0E0F0A3E5E2
:101BD30020F0A3E5F0F0A322851983851882E0C0E5
:101BE300E0A3E0F9A3E0FAA3E0FBA37808E0F6089A
:101BF300A3DFFAE0FCA3E0FDA3E0FEA3E0FFA3E084
:101C0300C0E0A3E0C0E0A3E0F5D0A3E0F520A3E0AB
:101C1300A3F5F010AF0885831985821880088583A2
:101C230019858218D2AFD082D083D0E0F8D0E032C9
:101C330074048006740280027401C0E0F404121973
:101C4300FDD0E01218D3227404800474028000CC07
:101C5300C0E0EDC0E0E518C39CCCAD1950011D10E8
:101C6300AF068C188D1980068C188D19D2AF1218F7
:101C7300E0D0E0FDD0E0FC22D083D082E9C0E0E4F4
:101C830093A3C386F0C5F095F0F908E493A386F017
:101C9300C5F095F0700BE493A3C3994005E9048064
:101CA30002A3E475F002A42582F582E5F03583F5FD
:101CB30083D0E0F9E493A3C0E0E493C0E022D083AF
:101CC300D082ECC0E0EDC0E0E493A3FCE493A3FD79
:101CD300ED4C600D121D0DEC24FFFCED34FFFD8077
:101CE300EFE493A3FCE493A3FDED4C600D121D4CB4
:101CF300EC24FFFCED34FFFD80EFD0E0FDD0E0FCF1
:101D0300E493A3C0E0E493C0E022C0E0C3E493966D
:101D1300087401939618400FE493667008087401E1
:101D230093661870007019A3A3C3E4939608740113
:101D3300939618A3A3400DD0E0D0E0D0E0021CFDA1
:101D4300A3A3A3A3A3A3D0E022C0E0C0F088F0E440
:101D5300936670080874019366187000A8F0A3A333
:101D6300700BD0F0D0E0D0E0D0E0021CFDA3A3D0F4
:041D7300F0D0E022AA
:101D7800C0E074F2121B7CA2AFE433FEC2AFE58967
:101D8800A2E150085389FDC2C51203DDEEA2E0921C
:101D9800AF7F01021BDBC0E0C0D0E8C0E0E5A8D2FD
:101DA800AFC2C7751A00A2E792AFD0E0F8D0D0D082
:101DB800E03274F5121A90EAFEEBFFEE2434F8EFE5
:101DC8003400F988088909EE2435F582EF3400F5E6
:101DD80083E0F8EE2437F582EF3400F583E0F50A66
:101DE800EC850AF0A4FCAAF0850AF0EDA42AFDE827
:101DF8002CF8E43DF97A257B00121942EA8508821D
:101E0800850983F05407F87401B800028004C333CD
:101E1800D8FCC0E0E0131313541FF8EE28F8EF3491
:101E280000F9E8245DF582E93400F583D0E0F8E0B4
:101E3800586008EE2434F582EF801EEE2436F582D1
:101E4800EF3400F583E0F5F0EA84A8F0EE28F8EF27
:101E58003400F9E82438F582E93400F583E0F97FA5
:101E680004021B3C74F5121A90EAFEEBFFEE2434D0
:101E7800F582EF3400F583E0C0E0EE2435F582EF1B
:101E88003400F583D0E0F08E828F83A3A3A3A3A3AD
:101E9800A3A3C082C0838E828F83A3A3A3A3A3E03E
:101EA800F8A3E0F9D083D082E0C398F508A3E099BD
:101EB800F509EE2480F582EF3400F583E0640170C3
:101EC80069EE2481F582EF3400F583E0F8A3E0F9A8
:101ED8008E828F83A3A3A3A3A3A3A3E0FCA3E0FD07
:101EE8008E828F83A3A3A3A3A3E0FAA3E0FBC3EA94
:101EF8009CEB9D5027C3EC98ED99402EC3EA98EBD4
:101F08009950277C587D08EEFAEFFB120ECFEE248D
:101F180080F582EF3400F583E4F0800EC3EA98EB95
:101F28009940E0C3EC98ED9950D9EE2434F8EF3499
:101F380000F9E8FCE9FDEE2435F582EF3400F5837D
:101F4800E0F8EE2437F582EF3400F583E0F50AE592
:101F580008850AF0A4F508AAF0850AF0E509A42A7C
:101F6800F509E82508F8E43509F97A257B001219FE
:101F780042EA8C828D83F05407F87401B80002801D
:101F880004C333D8FCC0E0E0131313541FF8EE2841
:101F9800F8EF3400F9E8245DF582E93400F583D0E0
:101FA800E0F8E0586008EE2434F582EF801EEE2455
:101FB80036F582EF3400F583E0F5F0EA84A8F0EE18
:101FC80028F8EF3400F9E82438F582E93400F5837D
:101FD800E0F9122869021E67C082C08385188285CD
:101FE8001983E0F8A3E0F9C3EA9CEB9D5012C3EC17
:101FF80098ED994019C3EA98EB995012790180102D
:10200800C3EA98EB9940F5C3EC98ED9950EE790046
:10201800D083D08222EAC39CFAEB9DFB2200000009
:102028008521878522C622C0E0C0D0E8C0E0E9C08B
:10203800E0EAC0E0EBC0E0ECC0E0EDC0E0C008C002
:1020480009C00AC00BC082C083C0F0759B009061B4
:1020580082E0A2E6400302210DE591A2E6400302D8
:10206800210D7591BF90071DE064057008121007D7
:10207800121013800312100D75210012106DE990D3
:10208800071EF07900121061120E457A017B00904C
:10209800071CE0F912043D907803E06442600302F3
:1020A80021569008BAE014F06003022156C2AF121C
:1020B80020BA00782AD0E0F618D0E0F6E59F540759
:1020C800F97005908152800390814E780812189D0E
:1020D800E9C4C0E07829E65508F50808E65509F589
:1020E80009740B78081219ABD0E02508F8906270D3
:1020F800E0A2E740F8E8C333906272F0906270E0C3
:10210800D2E0F08049E0A2E55024E591A2E5501E16
:102118007591DF90071DE0640D701390073FE00490
:10212800F064287002E4F07A00E0F91210DF9061A0
:1021380081E0A2E35009E5E9A2E3500375E9F7A3BA
:10214800E0A2E75009E591A2E7500375917FD0F02E
:10215800D083D082D00BD00AD009D008D0E0FDD0EF
:10216800E0FCD0E0FBD0E0FAD0E0F9D0E0F8D0D045
:10217800D0E032C0E0C0D0C082C083906183E0A2CA
:10218800E05009E5BFA2E0500375BFFEE0A2E150B0
:1021980009E5BFA2E1500375BFFDE0A2E25009E5E1
:1021A800BFA2E2500375BFFBE0A2E35009E5BFA25E
:1021B800E3500375BFF7E0A2E45009E5BFA2E4507D
:1021C8000375BFEFE0A2E55009E5BFA2E55003752E
:1021D800BFDFE0A2E65009E5BFA2E6500375BFBF26
:1021E800D083D0828088C0E0C0D0E8C0E0E9C0E0F9
:1021F800EAC0E0EBC0E0ECC0E0EDC0E0C0F0E5A76D
:10220800A2E6500FE5A1A2E6500953A7BF75A1BFEA
:10221800122253E5A7A2E5500CE5A1A2E55006530A
:10222800A7DF75A1DFE5A7A2E15009E5A1A2E1506A
:102238000375A1FDE5A7A2E2500CE5A1A2E25006B4
:1022480053A7FB75A1FBD0F002216474F8121A9011
:1022580075210190071DE064067015120F9B8A8294
:102268008B83A3A3A3A3A3A3E0FAA3E0FB120FF518
:10227800A2AFE433FED2AF900723E0640170187A6E
:10228800207B0090071CE0F91204C77A207B00909D
:10229800071CE0F9120443906182E0D2E6F090084E
:1022A800B9E0602185C6228016900722E06401709B
:1022B80008E5C654F84405F5C653BEFC1220287438
:1022C80001652160E4EEA2E092AF7F01021B3C00B1
:1022D8008E238F24858228858327851882851983F4
:1022E800E0CEA3E0CF852882852783EBC9EAC8ED35
:1022F800CBECCA75F010C3E833C8E933C9EA33CA6E
:10230800EB33CBC3EA9EF526EB9FF525B35004AB20
:1023180025AA26EC33CCED33CDD5F0DAAE23AF24A5
:102328002274EB121A9074FA1219CD8A088B098C50
:10233800148D1590071DE024F7C39405500690816D
:10234800A602248B120F9B8A0A8B0BAE0AAF0BEEE8
:102358004F7003022488AC08AD098518828519835B
:10236800AA82AB831210258E828F83A3A3780812CA
:10237800189D9081727808121877851882851983BC
:10238800780C12189D908172780C12187778087959
:102398000C12131E501F7808790C12183790811AE6
:1023A800780812133E4047850810850911850A12DE
:1023B800850B138041850C10850D11850E12850F34
:1023C800137810790812183790811A781012133E72
:1023D800501C7510007511007512007513017810E6
:1023E800790C121837781079081217FE8008908136
:1023F800A6781012189D740978101217DF908116AC
:10240800780812189D781079081216C08E828F836A
:10241800A3A3A3A3A3A3E0F8A3E0F97AD07B0312B4
:10242800194288088909E4F50AF50B781079081229
:1024380017FE7404121A18E0F8A3E0F97AD07B03A7
:10244800121942E8FA8A08E4F50978107908121393
:102458001E50077810790812183790071DE0640895
:10246800600AE064066005E06405701C90811278DB
:102478001012133E501290810E7810121811800815
:102488009081BE781012189D851482851583781066
:102498001218AC74061219E37F0E021B3C74F71273
:1024A8001A901210379008B7E064017010906245D6
:1024B800E4F0A3F053F4F343FE0C5390F3120FE34C
:1024C800E5C654804449F5C6E59E547F644970F8D2
:1024D800906185740FF09008B5E0F47002A3E06095
:1024E8004E9008B6E0600814601B14602E8040759A
:1024F80008017509009008B5E078081219BAE508CE
:10250800F45280802A7508017509009008B5E078B2
:10251800081219BAE508F452908014750801750973
:10252800009008B5E078081219BAE508F452A079C5
:10253800007F02021B3C74F7121A90E9FEEAFF744E
:10254800016E700C7A807B0090071CE0F912043D44
:10255800902878E493F46008E493F9120E3980091E
:1025680053C680E59E547F70FA120FE99008B7E0D1
:1025780064017003120E519008B5E0F47002A3E0F4
:10258800604B9008B6E0600814601A14602C803D17
:102598007508017509009008B5E078081219BAE5C0
:1025A80008428080287508017509009008B5E07810
:1025B800081219BAE50842908013750801750900D8
:1025C8009008B5E078081219BAE50842A012103749
:1025D800120F9B8A088B09A808A909E8496015E524
:1025E800E170FCE82414F582E93400F583E0F46036
:1025F80003E0F5E174016F700A7A0190071CE0F9B5
:1026080012049702253974F1121A908A088B098CE2
:102618000A8D0B740F121A18780C12189D9081727B
:102628007808121877908172780C121877780879E0
:102638000C12131E50157808790C12183790811A4D
:10264800780812133E401579018013780C79081226
:10265800183790811A780C12133E40EB79007F08E6
:10266800021B3C74ED121A908A088B098C0A8D0B98
:102678007413121A18780C12189D90817278081227
:102688001877908172780C121877780C79081213E1
:102698001E40117808790C121837AA08AB09AC0A41
:1026A800AD0B8022751000751100751200751301AD
:1026B8007810790C121837781079081217FEAA10BA
:1026C800AB11AC12AD137F0C021B3C9081727808E1
:1026D80012189D8A828B83780812188A7F04021B3D
:1026E8003C74F5121A908C828D83780812189D8A92
:1026F800828B837808121863EA2404F8EB3400F913
:102708008C828D83A3A3A3A3E0FCA3E0FD88828928
:1027180083C3E09CF0A3E09DF088828983C3E094A2
:1027280020A3E0944E40229081B2780812189D8A26
:10273800828B8378081218248A828B83A3A3A3A38D
:10274800E02420F0A3E0344EF0808074F5121A9053
:10275800E9FE90086FE0FAA3E0FBEEC333F8E43338
:10276800F9748128F582748039F583E02AF508A385
:10277800E03BF5097808121C379081461218BB1205
:1027880022D874021219E38A088B098C0A8D0B74FB
:102798001078081217C6AA08AB097F04021B3C74FC
:1027A800F1121A908A0C8B0D8C0E8D0F740F121A61
:1027B80018E0FAA3E0FB7411121A18E0F508A3E078
:1027C800F5097413121A18E0FEA3E0FF7808121C2A
:1027D80037EA2401F508EB3400F509E4F50AF50BAE
:1027E800780C790812164090810A780812189D789A
:1027F8000C7908121640AA0CAB0DAC0EAD0F1222C4
:10280800D874021219E38B09EA450960047A018039
:10281800027A00EC2AFCED3400FDECF8EDF97A714F
:102828007B0212194288088909E4F50AF50B8E82A1
:102838008F8378081218ACECF8EDF97A717B0212E4
:1028480019428A088B09740578081219BA8E828F82
:1028580083A3A3A3A3E508F0A3E509F07F08021B5F
:0F2868003CC082C083E9906000F0D083D0822210
:10287800FFFFFFFFFFFFFFFFC082C083E9900C79D5
:10288800F0022A9F74F7121A24E990063BF07C7331
:102898007D067AFF7BFF120B7590063C74FFF0A350
:1028A800F0A3E4F0A3F07905120B0390063BE0F9DE
:1028B800120A2B7A8D7B0B120D4F0237AD74F4126E
:1028C8001A248A088B09EB5480603090063BE0F9A3
:1028D8001204258A0A8B0BAE0AAF0BEE4F60138EDB
:1028E800828F83E064B07003120B15EEFAEFFB12CF
:1028F8000413AA08E5096480FB80047A007B0002BF
:102908002A6E74F2121A2474FC1219CDEAFEEBFF37
:102918007412121A18123C94EE4F70030229AD7407
:1029280002121A18EEF0A3EF122CA9ECF0A3ED1284
:102938002CA9AA82AB83120A25E9F50A706AE50870
:10294800450960648E828F83123C7AEE4F60567A16
:10295800067B0012047F8A0C8B0DA80CA90DE84990
:102968007005750A13804188828983E41229BAEEBA
:10297800F0A3EF123CA5E508F0A3E509F0900641A5
:10298800122A419006417005123757801B123745AD
:102998008003EAFCEBFD8C828D83122A4170F38C54
:1029A800828D8380E3750A02A90A74041219E3026E
:1029B8003E94F0A3123C4BA32274F2121A24890A03
:1029C800E975F017A4FEAFF0900640E4F090063EDB
:1029D800122A41600A12048590063EE4F0A3F0EE44
:1029E800FAEFFB12047F8A088B09EA4509602FEE8B
:1029F800FCEFFD790012040190063EE508F0A3E51E
:102A080009F07B008008122A2BE4F0A3F00BEBC33B
:102A1800950A40F2E50A900640F0790080027913A1
:102A2800023E94EB75F017A4F8A9F090063EE02852
:102A3800FAA3E0398A82F583221233E9EA4B227439
:102A4800F4121A247900EAA2E0501B7508EC750903
:102A5800807808121C377C047D007A7B7B0C120A74
:102A6800FD74021219E37F04021AF6C082C0839033
:102A78000641122AA6601C88828983A3A3E06A7093
:102A880003A3E06B8882898370E8A3A3A3A312330E
:102A9800E580047A007B00D083D082020135123FA2
:102AA8007AE8492274EE121A2474FC1219CDEAFE4F
:102AB800EBFF851882851983E4F0A3F0EE24021257
:102AC8003737EE2405123C52EE2404F50EEF12308F
:102AD8005EE024FE603924FC604624FE605224FE39
:102AE800605E24FE7003022BBF24FE7003022C23B9
:102AF80024FE7003022C3224FE7003022C4124FCB5
:102B08007003022C5024FE7003022C5F022C9C9050
:102B1800065A7417F0A3E4122CB11207A3022C9CD6
:102B2800851882851983AC82AD83120B1B022C6C2D
:102B3800851882851983AC82AD83120B21022C6C17
:102B4800850C08850D097402121A18AC82AD8385AC
:102B580008828509831233E5120A498A0C8B0DAC69
:102B68000CAD0DEC4D603BE4F50CF50D780C121C2A
:102B780037750C5A750D06780C121C37750C5B7579
:102B88000D06780C121C377408121A18121C4E12F3
:102B98003F9E1219E3E9F50C700B1233DB1207BBE9
:102BA800800F750C01850882850983122C9F1237C6
:102BB80057850C08022C6F7402121A18AC82AD8368
:102BC800850C82850D831231B0603C850C82850DA1
:102BD80083A3A3121C4E75105A7511067810121C87
:102BE8003775105B7511067810121C377408121AA5
:102BF80018121C4E123F9E1219E3E9F509700B12C8
:102C080033DB1207C1800F750901850C82850D839E
:102C1800122C9F123757850908804C851882851910
:102C280083AC82AD83120B27803A8518828519837D
:102C3800AC82AD83120B2D802B851882851983AC4D
:102C480082AD83120B33801C851882851983AC8270
:102C5800AD83120B39800D851882851983AC82AD3E
:102C680083120B3FE9F508E50860298E828F83A35C
:102C7800E06414601F850E82850F83E090065A1267
:102C88002CA9123F7690065B123757E508A3122C41
:102C9800B112079D023646123F7A8518828519833C
:102CA80022F085188285198322F07C5A7D06850AD0
:102CB80082850B831233E92274EE121A2474FC12F3
:102CC80019CD8A0A8B0B8C0E8D0FEA2405F508EBBB
:102CD8003400F5097C157D0079007A5A7B061204C8
:102CE80001E5082402F50CE509123C558518828592
:102CF80019838582108583117810121C3785088204
:102D0800850983A3A3A3A31231A7121C37E50824BE
:102D180005F510E5093400F5117810121C37850CFB
:102D280082850D831234FC120A4374061219E38A51
:102D3800108B11AE10AF11E50A2402F50AE50B124B
:102D4800373AEE4F7003022E7E80177402121A185B
:102D58001233E588828983EAF0A3EBF090065AE003
:102D680004F090065AE0C394054003022E7EE4F571
:102D780010F5117810121C3775104375110678106C
:102D8800121C377510447511067810121C3774061A
:102D9800121A18121C4E7910EEFCEFFD123FA01209
:102DA80019E3E9705E850882850983A3A3A3A3A319
:102DB800A3A3E0F8900643E06870481231A7121CFC
:102DC800377C447D06E5082408FAE5093400FB123F
:102DD80003FB74021219E3E960298E828F83A3A38F
:102DE800A3A31233E590065AE0F510740278101286
:102DF80019BA745B2510F58274063511F583EAF06B
:102E0800A3EBF07402121A188582108583117810CA
:102E1800121C377402121A18121C4E850C82850D6A
:102E28008312340B1219E38A108B11AE10AF119074
:102E3800065AE0F510751100740278101219BA7468
:102E48005A2510F874063511F988828983A3122A45
:102E5800417003022D4AE82403080808E93400F900
:102E6800EE4F6003022D538882898374FFF0A3F02C
:102E780090065AE004F090065AE0600A1233DB121A
:102E880007AF7900800B85088285098312374E7950
:102E98000A02364674EA121A2474FE1219CD8C12EC
:102EA8008D13EA2405F50CEB123F88123C7E750859
:102EB80000750900EA2402F510EB3400F5118518B5
:102EC8008285198385820A85830B780A121C3785C7
:102ED8000C82850D83A3A3A3A3123074121C37E5BB
:102EE8000C2405F50AE50D12373A780A121C3785C5
:102EF8000C82850D83123078120A4374061219E386
:102F08008A0A8B0BEA450B7003023019EA2404F590
:102F18000EEB12305E123C7E8A828B83A3A3A3E061
:102F2800F98510828511831233EF6003023019E4AA
:102F3800F514F5157814121C3775144375150678B1
:102F480014121C377514447515067814121C37743E
:102F580006121A18121C4E7913AC0AAD0B85108292
:102F6800851183123FA61219E3E9F50960030230BF
:102F780019900643E0F8E5087009E0240290065B22
:102F8800F0801490065BE0FCE82402FAE43400FBCD
:102F9800EA6C7001EB707E850882AA8212319E94D9
:102FA80014123196506B850E82850F83E0C0E07451
:102FB8005C2A123055D0E0F00508850E82850F8313
:102FC800A3E0C0E085080A745C250A123055D0E0F9
:102FD800F00508900643123074121C377C447D06B5
:102FE80085080A745C250A1230681219E3900643B2
:102FF800E02508F50874FF6E700374FF6F6012EE29
:1030080024010EEF3400FFE508C394145003022E88
:10301800C6E50860131233F98510828511831233CF
:10302800E51207B579008014E509700375090A856A
:103038001282851383EEF0A3EFF0A9097402121926
:10304800E37F0E021AF685080C745C250CF5827471
:10305800063400F583223400F50F850E82F58322AD
:10306800FA74063400FB1203E9740222123CB422FB
:10307800A3A312307E22123745FDEEFAEFFB22742D
:10308800EE121A2474FE1219CD8C0E8D0FEA240547
:10309800F50CEB123C55750B0090065AE4F0F50A56
:1030A800EA2402F508EB3400F509804490065AE05A
:1030B800FA900643E0F812319E9417123196400DAB
:1030C80090065AE0F87416C398900643F01231A798
:1030D800121C377C447D06745B2AFA740612306B26
:1030E8001219E3900643E0F890065AE028F0050A22
:1030F800E50C2416F582E50D123059E0F8E50AC30F
:1031080098507490065AE0C39416506BE50AC3337E
:10311800F8E433F9E50C28FEE50D39FF85188285BA
:103128001983AC82AD838E828F831231B07008759B
:103138000B0112374A8050E4F510F5117810121C73
:10314800377510437511067810121C3775104475C1
:1031580011067810121C377406121A18121C4E79B0
:1031680016850882850983123FA61219E3E9F50B33
:1031780070030230B480BB7C5A7D068508828509BD
:10318800831233E51207C7A90B7402023648E99483
:1031980000C365D03322EA28F8E43400F9E822E0D5
:1031A800F51075110078102212363D8A108B11AC7B
:1031B80010AD11EC4D2274EA121A2474FC1219CDC8
:1031C8008A0C8B0D8C128D13EA2405F50AEB123745
:1031D8003A750800750900E50A2402F510E50B3474
:1031E80000F5117402121A1885820E85830F780E65
:1031F800121C37850A82850B83A3A3A3A3123C5A0A
:10320800121C37E50A2405F50EE50B3400F50F7896
:103218000E121C378510828511831237401233DF56
:10322800120A4374061219E38A0E8B0FAE0EAF0F03
:10323800E50C2402F50EE50D3400F50F8038888280
:10324800898374FFF0050812304E74FFF00508906A
:103258000643E0F50C750D00780C121C377C447D94
:103268000685080C745C250C1230681219E3900668
:1032780043E02508F508EE4F60278E828F83A3A3CD
:10328800A3E0F9850E82850F831233EFEE24041232
:103298003C52E96027850C82850D831233D11237A1
:1032A80057E50870030233B71233F9850E82850F8C
:1032B800831233E51207CD79000233CCE4F514F517
:1032C800157814121C377514437515067814121CDA
:1032D800377514447515067814121C377408121AB9
:1032E80018121C4E7911EEFCEFFD850E82850F83B6
:1032F800123FA61219E3E9F509709A850882AA8295
:10330800EA9006437009E0240490065BF08025E00B
:10331800F890065BE0F514E82404FCE43400FDECC6
:1033280065147001ED708112319E9412123196402D
:10333800030232B0850C82850D83E0C0E0745C2AFC
:10334800123055D0E0F00508850C82850D83A3E086
:10335800C0E012304ED0E012341485820C85830D03
:10336800780C121C377404121A18121C4E8510821D
:1033780085118312340B1219E38A0C8B0DAE0CAF36
:103388000D85080C745C250CF874063400F9EE4FB2
:103398007003023246851882851983E08882898302
:1033A800123414A3E0C0E012304ED0E0023254E5EB
:1033B80009700375090A850A82850B831233D112B5
:1033C8003757A9097404023046123F7A851282855C
:1033D8001383227C5A7D06850A82850B831233E982
:1033E80022E0FAA3E0FB221233E9120A31E9F509D7
:1033F8002290065BE0F5F0E5088490065AF07C5AC6
:103408007D062212307E120A4F740422F0050885C8
:1034180018828519832274EC121A2474FE1219CDAD
:103428008A088B098C0E8D0FEA2405FEEB3400FF09
:10343800123627EE2418123C52EA450B7003023468
:10344800CA12361050291234EF8A108B11EA45112E
:10345800606B7912AC0AAD0B85088285098312333B
:10346800E5851082851183121A22E9F50A7058E45D
:10347800F50AF50B780A121C378E828F83A3A3E016
:10348800F50A780A121C37EE2403123737780A1225
:103498001C378E828F831234FC120B637406121948
:1034A800E3E9F50A7021850C82850D83E0701F859C
:1034B80008828509831233E51207D38011750A0E35
:1034C8008009750A018004E50A600312374A850CF1
:1034D80082850D83E0600479008002A90A740212D3
:1034E80019E37F0C021AF68518828519831233E9CD
:1034F800120B5122123745FD850882850983123344
:10350800E92274EE121A2474FE1219CD8A088B0966
:103518008C0C8D0DEA2405FEEB3400FF750E0012AD
:103528003627EA450B70030235EE123610502C127E
:1035380034EF8A0E8B0FEA450F604A7912AC0AAD58
:103548000B8508828509831233E5850E82850F83F2
:10355800121A22E9F50E60030235F1850882850901
:103568008312382CAA0AFB12360270147AFF7BFFEA
:10357800123602606C88828983E50AF0A3E50BF0B5
:10358800750A008007750E0E805F050A900640E0F8
:10359800FAE50AC39A504AE50A75F017A4FAABF09F
:1035A80088828983A3A3E02AFAA3E03BFB8A828B63
:1035B80083123740EC4D70D2750A17750B00780AE4
:1035C800121C37EEFCEFFD1203E974021219E3EE48
:1035D800FCEFFD8508828509831233E51207D9803F
:1035E80014750E098003750E01123F72850C8285D1
:1035F8000D83123757A90E023191120B458A108B91
:1036080011A810A911E84922E5082402F508E509DE
:103618003400F5098A828B83A3A3A3E0A2E522855F
:103628001882851983AC82AD838E828F8312363DD2
:103638008A0A8B0B22E0FAA3E0FB120A49227404DF
:103648001219E37F0A021AF674EC121A248C108DF0
:1036580011EA2405F50CEB123C55750F00EA24021B
:10366800F50AEB12373A850A82F5831233E51240E0
:103678002C700302372C750E008071850C82850D25
:1036880083E06401704F8E828F83A3A3121C4E8E39
:10369800828F83A3A3A3A3E0F512751300781212F7
:1036A8001C37EE2405F512EF3400F5137812121CBE
:1036B800371233DF120B6374061219E3E9F50F6052
:1036C80014850C82850D83E4F0123F728510828583
:1036D80011831237577C177D007900EEFAEFFB1241
:1036E80004018E828F83E4F0A3F0050E900640E07B
:1036F800F8E50EC398501EE50E75F017A4F8A9F06A
:10370800850882850983A3A3123F92123740EC4DA6
:10371800600302368385088285098374FFF0A3F06D
:10372800E50F70061233DF1207DFA90F0234EAF53E
:103738000AEF3400F50B22A3123745FD22E0FCA363
:10374800E0228E828F83123F7A850E82850F83E86E
:10375800F0A3E9F022C082C08390063CE06A7003BF
:10376800A3E06B70067A3C7B0680047A007B00023B
:103778002A9F74F7121A247F00EF75F003A4F8A9A2
:10378800F0EC28F8ED39F988828983E06A7003A3A0
:10379800E06B7006E8FAE9FB800B0FEFC394024078
:1037A800D87A007B007F01021AF674F6121A2412E6
:1037B8003D6370067A007B008007A3A3A3A312339E
:1037C800E5023E2474F2121A24E9FE740E121A1845
:1037D80012382C7410121A18123C948C828D83E0C3
:1037E8006402703BA3123F7688828983E0F50CA3BC
:1037F800E0F9A80C74026870037429697021750CCB
:1038080002750D00780C121C377808121C37780ADC
:10381800121C37EEF9120B8774061219E38002792D
:1038280001023E94E0F50AA3E0F50B2274E8121AAF
:103838002474FB1219CDE9851882851983F08A163C
:103848008B178C0E8D0F741F121A18123C9474214A
:10385800121A1812382C7423121A18123C7E75107A
:10386800008C828D83A3A3A3E0A2E4502A741D12C6
:103878001A181234F58A828B83E582458370030215
:103888003940790AAC0EAD0FAA16AB17121A22E905
:10389800F5106003023943850E82850F83E06402C8
:1038A8006003023BF9A3123F76850882850983A34A
:1038B800858212858313E50E2406F50CE50F123C6C
:1038C8005588828983E0FAA3E0F9EA2400F514E434
:1038D80039F5157814121CC101000028012808398F
:1038E80007000228DF3903284F390029093B01293D
:1038F800313B0229D83A0329093B04299A3BF93B71
:10390800EE4F703E850C82850D83123C6FFAE9FB01
:103918008A828B83E0850A82850B83123CAB121C5A
:10392800378A828B83A3123745FDAA08AB09120395
:10393800E974021219E3800375100EA910740502C8
:103948003F8075100B80F4EE4F70F7850A82850B67
:10395800837401F0123C84850882850983F07C0019
:103968007D00850E82850F83A3A3A3A3E02401FA1B
:10397800A3E03400FB120A49EA4B60418A828B8338
:10398800E02402F8850A82850B83E028F0EA240403
:10399800F8EB3400F988828983E0851282851383E5
:1039A800123CBD123CAB121C378A828B8312373F04
:1039B800E5082403FAE5093400FB023936850A8252
:1039C800850B83E02404F07C047D007900AA12AB07
:1039D80013120401023943EE4F600302394A123CC4
:1039E80084FEA3E0FF850A82850B837404F0EE85CC
:1039F8000882850983F0EF851282851383F07403AA
:103A0800121A18AC82AD83EEFAEFFB123D51700327
:103A1800023AB58A828B83A3A3123C7A7401121AE4
:103A28001885820E85830F780E121C377405121ABA
:103A380018121C4E7CFF7DFF120A4F74041219E302
:103A48008B0FEA450F7033850C82850D83123C5A23
:103A5800121C37850C82850D83A3121C4E7C027DB7
:103A6800007ADD7B8112087B74041219E3E9700A7D
:103A78007401121A1874FFF0A3F08E828F83E06429
:103A8800027034750C02750D00780C121C378E828A
:103A98008F8312373FE5082404FAE50912306B12C8
:103AA80019E3850A82850B83E024028009740112D8
:103AB8001A18EEF0A3EFF07401121A18123C6BF00A
:103AC8007401121A18A3123C63A3A3A3F00239438A
:103AD800EE4F600302394A850C82850D8312374008
:103AE800AA16AB17120B7B850A82850B837402F02A
:103AF800EA850882850983F0851282851383EB8025
:103B0800CBEE4F600302394A123C84F8A3E0F985F2
:103B18000A82850B837402F0E8850882850983F0A0
:103B2800E985128285138380A3850C82850D831213
:103B380033E51203E3EAFC8C82A882C39EE49F402B
:103B48004BE86E7001EF70047C00801F8518828539
:103B58001983E0FAEE2AFAEF3400FBC3EA98EB94F3
:103B6800005003E08004EECCC39CFCEC850A8285FF
:103B78000B83F08C0A750B00780A121C37850C82AF
:103B8800850D83E02EFCA3E03F0239317510070252
:103B98003943EE4F600302394A850C82850D831242
:103BA8003F76850A82850B837407F08882898312A1
:103BB8003C63123C4BE0851282851383F0E82402B3
:103BC800FAE93400FB8A828B83123C63123C9C1214
:103BD8003C6BA3123CA5123C74F0E82405F8E934C8
:103BE80000F988828983123C74A3123CBDA3023A6F
:103BF800D1741D121A18123D5C7003023940123F2D
:103C080076880C890DE8450D70030239408E108FB7
:103C1800117810121C37780A121C377808121C37D2
:103C28007406121A18E0F9AC0EAD0FAA16AB178578
:103C38000C82850D83121A2274061219E3E9F51015
:103C4800023943F088828983A322F50CEF3400F50A
:103C58000D22E0F50E750F00780E22E085088285AA
:103C6800098322123CC422123F7AE822123CC4A3E0
:103C7800A322A3A3A3A3E0FEA3E0FF22850C8285D1
:103C88000D83E0F8A3E0F5838882E022E0F508A33D
:103C9800E0F50922A3A3F08A828B83A3221229BC10
:103CA800A3A322F08A828B83123CB422E0F50A7522
:103CB8000B00780A22123C4B123CC422E085088291
:103CC800850983A3A32274EE121A2474FE1219CD57
:103CD8008A0A8B0BECFAEDFB7414121A18E0F51033
:103CE800A3E0F5117416121A18E0FE7418121A18C7
:103CF800E0F50EA3E0F50F851882851983AC82AD37
:103D080083123D51603E851882851983123D5C609F
:103D18002FA3A3123C94E50845096024780E121CD1
:103D2800377810121C37EEF9AC0CAD0DAA0AAB0BA4
:103D3800850882850983121A2274041219E3800601
:103D4800790E80027901023191120A498A0C8B0D91
:103D5800EA450D221233E9123D6322120B0F8A82C3
:103D68008B83E58245832274F6121A2474FE121995
:103D7800CD740C121A18123C6F851882851983F0BD
:103D88007401121A18E9F0E4F508F5097808121C0C
:103D9800377508027808121C377404121A188582BD
:103DA800088583097808121C37120B6374061219E8
:103DB800E374021219E3806474F7121A24EAFEEB22
:103DC800FF89087C737D06120B7BEA5402600BA9FD
:103DD80008EEFAEFFB120A3D800279010237AD7452
:103DE800F6121A2474FF6A700374FF6B701C7B0050
:103DF800EB75F003A4F8A9F0EC28F8ED39F9123EB8
:103E0800290BEBC39402501480E6120B4B8A088BE3
:103E180009A808A909E8496003123E297F02021A85
:103E2800F68882898374FF1229BAE4F02274F612A4
:103E38001A24120B4B8A828B83E58245836006A382
:103E4800A3E0FA80027A007B0080D174F2121A246F
:103E58008A088B09ECFEEDFF740E121A18E0F50AB9
:103E6800123E99701CEEFCEFFD7AFF7BFF123E9923
:103E780070047911801688828983E508F0A3E50922
:103E8800F088828983A3A3E50AF079007F06021AE5
:103E9800F6120B4B8A0C8B0DA80CA90DE84922745D
:103EA800EE121A24EAFEEBFF8C088D09890C7412B5
:103EB800121A18123F767414121A18123740741610
:103EC800121A181233E5750D00EC4D6003023F6AB3
:103ED8007402650C6003023F658882898312374546
:103EE800F9EC2400F50EE439F50FEAF4F8EBF4F9EF
:103EF800EC58F8E50F59F9E849705DE5082406F82B
:103F0800E5093400F9880A890B8882F58312307A2A
:103F1800120B7B8A108B11E50E65107004E50F6596
:103F2800116042780E121C37850A82850B83123085
:103F38007A120B8174021219E3E9F50D7027780ED5
:103F4800121C37850882850983A3A3123078120BC7
:103F58009374021219E3800D750D808008750D0D9C
:103F68008003750D0BA90D02364B8E828F83123F8D
:103F78007A22E0F8A3E0F9221219E37F10021AF678
:103F88003400F50D850C82F58322E028FEA3E03984
:103F9800FF8E828F83227916850A82850B831233DE
:103FA800E9120B5D74082274F2121A24EAFEEBFF80
:103FB800890B7401650B600E7402650B70637901DF
:103FC800120D6DE9705BEEFAEFFB12402C6047753D
:103FD8000A00800B7C177D007900120401050A9005
:103FE8000640E0F8E50AC3985021E50A75F017A4E1
:103FF800F8A9F0850882850983A3A3E028FAA3E03D
:1040080039FB8A828B83122AA670C98508828509A2
:104018008374FFF0A3F07C737D06EEFAEFFB120BBE
:1040280075023E94120B458A088B09EA45092274E9
:10403800F2121A248A088B09ECFEEDFF740E121A8C
:104048001812382C900C79E0F4603D7A097B001244
:10405800040DEA4B60328A828B8374B1F0A3E412B8
:104068003C9EA3123C9CA3E508F0A3E509124093EB
:10407800EEF0A3EF124093A3A3E50AF0A3E50BF03B
:10408800900C79E0F9120419023E94F08A828B832D
:10409800A3A3A3A3A322C082C0839061907404F059
:1040A800A37448F0A37402F09061807440F09061AA
:1040B800BC7403F09061877419F0906265741BF00A
:1040C80090619C740DF090619A7433F0A37455F06C
:1040D8009061A0743AF09008B7E064017009C29149
:1040E800900721746780059007217461F090287EFD
:1040F800E493906186F0902878E493F46027E49341
:10410800540FF8906185E0686012E5C65480444910
:10411800F5C6E59E547F644970F8E8F053C680E51B
:104128009E547F70FA79051210C10242E0C082C025
:1041380083E9540FF9906185E0696012E5C65480FF
:104148004449F5C6E59E547F644970F8E9F053C6C2
:1041580080E59E547F70FA0242E0C082C083E5A8E1
:10416800F853A87E906181E4F0A3F0A3F0C2BA539B
:104178009AFEC289759B00C2C275E90075910075E7
:10418800BF0075A91175B905906181F0A374C0F0DD
:10419800A3E4F0D2BA439A0174805842A80242E0DC
:1041A800C082C08374F81219CD90071FE0F8A3E00D
:1041B800F9E84970030242D690071FE05440602393
:1041C8007908851882851983AA82AB83120F2985FD
:1041D8001882851983AA82AB83120BFF90071FE010
:1041E80054BFF0E054806010790C7ADB7B08120F22
:1041F8002990071FE0547FF0E0A2E0503190619AC7
:104208007433F0A37455F09061A0743AF09008B735
:10421800E064017009C291900721746780059007D6
:10422800217461F0120C0590071FE054FEF0E05471
:1042380002603190619A743FF0A3745AF09061A0C3
:10424800747FF09008B7E064017009D2919007215B
:1042580074718005900721746AF0120C0590071F8D
:10426800E054FDF0E05404601390287CE4939061DE
:1042780086F0120C0B90071FE054FBF0E054086026
:104288001390287DE493906186F0120C0B90071F21
:10429800E054F7F0E05410601390287EE4939061A6
:1042A80086F0120C0B90071FE054EFF0E0542060EA
:1042B8000A120C0B90071FE054DFF0A3E0540160D2
:1042C8000D120E51120C11900720E054FEF07408E4
:1042D8001219E38003F0A3F0D083D0820201357471
:1042E800EC121A2474F41219CD851882851983AC3E
:1042F80082AD8375838175826A74041218E09028F0
:104308007C93F46003024474907808E0C3940250EC
:10431800030244547404121A18AC82AD8375838066
:104328007582DE74081218E08518828519838582E3
:10433800128583137404121A18AC82AD83750EFFAC
:10434800750FFF7FFF7E00750C48750D788015741A
:10435800086E70030243E774096E70030243E77442
:104368000A6E607B850C82850D83780812189D8CF7
:10437800828D83A909E50AC9F8881074187808128B
:1043880017C6E5104508F8C3E098A3E099850C82A4
:10439800850D83780812189D40188C828D837418B7
:1043A80078081217C6E5104508F8E0C398F8A3E0A6
:1043B800801C741878081217C6E5104508FAE9FB3E
:1043C8008C828D83E0F8A3E0F9EAC398F8EB99F9B9
:1043D800C3E8950EE9950F5006880E890FEEFF0E7B
:1043E800E50C2404F50CE50D3400F50DEEC394132B
:1043F800500302435774FF650E700474FF650F6025
:10440800238F08740278081219BA74482508F582AF
:1044180074783509F583780812189D8512828513FA
:1044280083E508F0EC24020C0CED3400FD851282C3
:10443800851383A3858212858313740C121A18E5D9
:10444800826C7003E5836D6003024345750801754E
:1044580009007808121C377402121A18AC82AD834E
:104468007A1F7B0A12068374021219E3740C12195C
:10447800E37F0C021AF6C082C0839061AE7468F0C4
:10448800A3746AF090624574FBF0A304F053F4FD42
:1044980043FE029008B77401F09061A0E0643A907E
:1044A800619A70237433F0A37455F09061A0743A44
:1044B800F0740164017009C2919007217467802823
:1044C80090072174618021743FF0A3745AF09061C1
:1044D800A0747FF0740164017009D291900721746F
:1044E800718005900721746A0242DF7F04021AF680
:1044F800C082C083900869E06401700A90086EE089
:104508006004790C800279000242E0C082C08375A1
:10451800E1F190086CE0605514600814605914606B
:10452800518059120E63900862E0F97A637B081291
:1045380010439081621218BB1210799081AE121844
:10454800BB12104F90086DE0F912105B7901121040
:10455800B5900860E02416F8A3E03400F988828951
:1045680083747BF0A3740EF079000242E0120E69A6
:1045780080B4120E6F80AF120E7580AA791280EA8D
:1045880074F4121A2475D90D900851E0A2E0E433AE
:104598001313F8900862E0C4333354C0484401F55B
:1045A800D97860790888828983A3A3A3E0F5D9889C
:1045B800828983A3A882A983E864667003E96408F2
:1045C80070E37851790888828983A3E0F5D98882D5
:1045D8008983A3A882A983E864577003E9640870F3
:1045E800E575E195900851E0F97A527B0812104977
:1045F800900C9B740FF0A3740EF0A37471F0A37465
:104608000FF0A37471F0A3740FF0A37471F0A37486
:104618000FF0A37415F0A3740EF0A37471F0A374D3
:104628000FF0A3742DF0A3740EF0900CA97471F020
:10463800A3740FF0A37471F0A3740FF0A37471F056
:10464800A3740FF0A37471F0A3740FF0A37471F046
:10465800A3740FF0A37471F0A3740FF0900860E0D6
:10466800F8A3E0F5838882A3A3780812189D9081A7
:104678005E780812181190817278081218779008DD
:1046880060E0240EF8A3E03400F988828983780872
:104698001218AC900860E02414F8A3E03400F988FC
:1046A8008289837413F090071D7402F00244F3C0EA
:1046B80082C083900872E02407F5D9900862E0C4AC
:1046C800333354C0F5D97860790888828983A3A3E5
:1046D800A3E0F5D988828983A3A882A983E86466C0
:1046E8007003E9640870E3900872E0601F786079ED
:1046F80008FAE82413F582E93400F583E0F5D9884F
:10470800828983A3A882A9831AEA70E6900892E0B6
:104718002407F5D9900862E0C4333354C04404F543
:10472800D97860790888828983A3A3A3E0F5D9881A
:10473800828983A3A882A983E864667003E9640870
:1047480070E3900892E0601F78607908FAE82433F3
:10475800F582E93400F583E0F5D988828983A3A836
:1047680082A9831AEA70E675E195900C9B741BF098
:10477800A3740EF0A37471F0A3740FF0A37471F016
:10478800A3740FF0A37471F0A3740FF0A37415F061
:10479800A3740EF0A37471F0A3740FF0A3742DF03A
:1047A800A3740EF0900CA97471F0A3740FF0A374A5
:1047B80071F0A3740FF0A37471F0A3740FF0A374D5
:1047C80071F0A3740FF0A37471F0A3740FF0A374C5
:1047D80071F0A3740FF09081B21218BB900860E0DA
:1047E800240EF8A3E03400F9888289831218C79050
:1047F8000860E02414F8A3E03400F98882898374FF
:1048080012F090071D74010242DFC082C083900835
:1048180072E02407F5D9900862E0C4333354C044E9
:1048280002F5D97860790888828983A3A3A3E0F583
:10483800D988828983A3A882A983E864667003E97A
:10484800640870E3900872E0601F78607908FAE8FD
:104858002413F582E93400F583E0F5D98882898349
:10486800A3A882A9831AEA70E675E195900C9B7457
:1048780027F0A3740EF0A37427F0A3740EF0A374AA
:1048880027F0A3740EF0A37427F0A3740EF0A3749A
:1048980027F0A3740EF0A37427F0A3740EF0A3748A
:1048A8002DF0A3740EF0900CA97471F0A3740FF09E
:1048B800A37471F0A3740FF0A37471F0A3740FF0D4
:1048C800A37471F0A3740FF0A37471F0A3740FF0C4
:1048D800A37471F0A3740FF09081B21218BB900802
:1048E80060E0240EF8A3E03400F988828983121866
:1048F800C7900860E02414F8A3E03400F98882899E
:10490800837414F090071D74040242DFC082C083D0
:10491800900872E02407F5D9900862E0C433335454
:10492800C04406F5D97860790888828983A3A3A34F
:10493800E0F5D988828983A3A882A983E864667090
:1049480003E9640870E3900872E0601F78607908F2
:10495800FAE82413F582E93400F583E0F5D9888272
:104968008983A3A882A9831AEA70E6900892E024B2
:1049780007F5D9900862E0C4333354C04404F5D92C
:104988007860790888828983A3A3A3E0F5D988820F
:104998008983A3A882A983E864667003E964087020
:1049A800E3900892E0601F78607908FAE82433F50C
:1049B80082E93400F583E0F5D988828983A3A88247
:1049C800A9831AEA70E675E195900C9B7421F0A30F
:1049D800740EF0A37471F0A3740FF0A37471F0A3B4
:1049E800740FF0A37471F0A3740FF0A37471F0A3A3
:1049F800740FF0A37471F0A3740FF0A3742DF0A3D7
:104A0800740EF0900CA97471F0A3740FF0A3747174
:104A1800F0A3740FF0A37471F0A3740FF0A3747172
:104A2800F0A3740FF0A37471F0A3740FF0A3747162
:104A3800F0A3740FF09081B21218BB900860E024C4
:104A48000EF8A3E03400F9888289831218C7900809
:104A580060E02414F8A3E03400F98882898374158F
:104A6800F090071D74030242DFC082C08390086083
:104A7800E0F8A3E0F5838882A3A3A3A3A3A3E40299
:104A880042DD74F7121A2490074BE0F875F004A47D
:104A9800C8AAF02AF9744D28F8740739F9E82405EA
:104AA800FAE93400FB8A828B83E0FCA3E0FD88826C
:104AB8008983A3A3A3A3A3A3A3A3A3ECF0A3EDF0CB
:104AC80088828983A3A3A3A3A3A3A3E024FFF8A3B5
:104AD800E034FFF98A828B83E8F0A3E9024D2F7452
:104AE800F7121A24EAFEEBFF9061D0E06003024B54
:104AF800C475D90E75D90375D904EE248CF582EFE7
:104B08003400F583E5822408F8E5833400F9E0F5FC
:104B1800D9A3E865827003E9658370F2EE2484F511
:104B280082EF3400F583E5822404F8E5833400F944
:104B3800E0F5D9A3E865827003E9658370F275E151
:104B4800957908EE248CFAEF3400FB120F1D7904D6
:104B5800EE2484FAEF3400FB120F1D7C00EEF8EF10
:104B6800F9ECFAC3E49AFA95E0FBEE2AFAEF3BFB7C
:104B7800EA248BF582EB3400F583E0C0E0E824AB4F
:104B8800F582E93400F583D0E0F00C88828983A3AC
:104B9800A882A983ECC3940840C7EE2470F582EF7D
:104BA8003400F583E0F8A3E0F9EE2472F582EF34DF
:104BB80000F583E8F0A3E9F0790180027900024D5D
:104BC80030C082C08375D90275D90375D90575E1DE
:104BD80095EA2470F582EB3400F583E0F8A3E0F958
:104BE800EA2472F582EB3400F583E8F0A3E9F07962
:104BF800010242E074F6121A24EAFEEBFF9008BBA9
:104C08007406F07508BB7509087808121C377C0112
:104C18007903120F6574021219E375D90675D90361
:104C28007582BB758308E0F5D9A3E58264C070047A
:104C3800E583640870F075E19590071DE0640870DD
:104C48001EEE2470F582EF3400F583E0F8A3E0F956
:104C5800EE2472F582EF3400F583E8F0A3E9F079E9
:104C680001024DFC74F6121A24EAFEEBFF9061D0A3
:104C7800E0706678019008BB740BF090071DE06443
:104C88000770197508BB7509087808121C377C016C
:104C98007903120F6574021219E37805740128F577
:104CA800D975D9037582BB758308E8FAE0F5D9A3ED
:104CB8001AEA70F875E195EE2470F582EF3400F584
:104CC80083E0F8A3E0F9EE2472F582EF3400F5836F
:104CD800E8F0A3E9F0790180027900024DFC74F74D
:104CE800121A24EAFEEBFF75D90375D90375D90D9D
:104CF800EE24DEF582EF3400F583E0F5D975E19511
:104D0800790412107FEE2470F582EF3400F583E009
:104D1800F8A3E0F9EE2472F582EF3400F583E8F0A9
:104D2800A3E9F079018001F07F01021AF674F61206
:104D38001A24EAFEEBFF9061D0E0F87480C398FA79
:104D4800EE2483F582EF3400F583E0600478048074
:104D5800027800E8240BF8EAC3985003024DFA7D64
:104D6800099008BBEDF0EE24E3F8EF3400F97ABCC3
:104D78007B087C0888828983E08A828B83F088821A
:104D88008983A3A882A9838A828B83A3AA82AB83FF
:104D98001CEC70E0EE2483F582EF3400F583E060CC
:104DA8001D7508BB7509087808121C377C0979033A
:104DB800EEFAEFFB120F6574021219E37D0D740110
:104DC8002DF5D975D9037582BB7583088D08E0F573
:104DD800D9A31508E50870F675E195790412107FD6
:104DE800EE241DF582EF3400F583E4F0A3F0790199
:104DF800800279007F02021AF674F6121A24EAFE7B
:104E0800EBFF9061D0E0F87480C398FAEE2483F544
:104E180082EF3400F583E06004780480027800E8CB
:104E28002408F8EAC3985003024F017D069008BB96
:104E3800740CF090073AE09008BCF07A3B7B077856
:104E4800BD79087C028A828B83E088828983F08A14
:104E5800828B83A3AA82AB8388828983A3A882A931
:104E6800831CEC70E07A3D7B077C028A828B83E0AE
:104E780088828983F08A828B83A3AA82AB83888203
:104E88008983A3A882A9831CEC70E0EE2483F582B1
:104E9800EF3400F583E0601D7508BB7509087808D4
:104EA800121C377C067903EEFAEFFB120F657402C9
:104EB8001219E37D0A74012DF5D975D9037582BBE2
:104EC8007583088D08E0F5D9A31508E50870F6750F
:104ED800E195790412107FEE2470F582EF3400F525
:104EE80083E0F8A3E0F9EE2472F582EF3400F5834D
:104EF800E8F0A3E9F0790180027900024DFC74F62C
:104F0800121A24EAFEEBFF9061D0E0F87480C3988F
:104F1800FAEE2483F582EF3400F583E06004780428
:104F280080027800E82404F8EAC3985003024FE0AE
:104F380078029008BBE8F0EE24F5F582EF3400F52E
:104F480083E09008BCF0EE2483F582EF3400F5830B
:104F5800E0601B7508BB7509087808121C377C02CD
:104F68007903EEFA120F6574021219E378067401D8
:104F780028F5D975D9037582BB7583088808E0F5CB
:104F8800D9A31508E50870F675E195EE2474F58245
:104F9800EF3400F583E4F0EE2480F582EF3400F579
:104FA80083E4F0EE241DF582EF3400F583E4F0A3EA
:104FB800F0790412107FEE240DF582EF3400F583AA
:104FC800E0F8A3E0F9EE2472F582EF3400F583E807
:104FD800F0A3E9F0790180027900024DFC74F61221
:104FE8001A249061D0E0F87480C398FCEA2483F511
:104FF80082EB3400F583E06004780480027800E8EE
:105008002404F8ECC398405B79029008BB7407F05D
:10501800EA24F6F582EB3400F583E09008BCF0EA68
:105028002483F582EB3400F583E060187508BB75BE
:1050380009087808121C377C0209120F65740212DD
:1050480019E37906740129F5D975D9037582BB75F9
:105058008308E9F8E0F5D9A318E870F875E19579BF
:105068000180027900024DFC74F5121A24E9FCA2B1
:10507800AFE433F50AC2AF7D0080010DEA246FF575
:1050880082EB3400F583E0F8EDC398501A8D08EAF6
:105098002508F8EB3400F9E8246BF582E93400F5CB
:1050A80083E06C70D68024EA246FF8EB3400F9E0D2
:1050B800FEEA2EFAEB3400FBEA246BF582EB3400AF
:1050C800F583ECF088828983E004F0E50AA2E09297
:1050D800AF7F03021AF674F6121A24A2AFE433FD66
:1050E800C2AFEA246FF582EB3400F583E014F07C5C
:1050F8000060368C08EA2508F8EB3400F9E8246CDF
:10510800F582E93400F583E0C0E0E8246BF582E934
:105118003400F583D0E0F00CEA246FF582EB34001C
:10512800F583E0F8ECC39840CAEA246EF582EB34C4
:1051380000F58374FFF0EA246AF582EB3400F58306
:10514800E4F0EDA2E092AF024DFCC082C083E5A876
:10515800F8C2AFEA246BF582EB3400F583E9F0EA94
:10516800246AF582EB3400F583E4F0E8A2E792AF15
:105178000242E074F3121A24EAFEEBFFECFAEDFBAC
:105188008A828B83A3A3A3A3E0541FF0EE2436F5F1
:1051980082EF3400F583E4F0F50AEEFCEFFD8A8235
:1051A8008B83E0C0E0EC245DF582ED3400F583D01C
:1051B800E0F0750B00E50A33333354F8F50C8A82B6
:1051C8008B83E0F508750900E50B780812199BE553
:1051D80008A2E0502FEE2436F8EF3400F9888289CF
:1051E80083E0F508EE2508F508EF3400F509E50831
:1051F8002438F582E5093400F583E50CF0888289C6
:1052080083E004F0050B050CE50BC3940840AF05DB
:105218000A8A828B83A3AA82AB838C828D83A3ACF8
:1052280082AD83E50AC3940550030251A67F0502A7
:105238001AF674F7121A24900749E0640170077A85
:10524800007B000253B17E0090074FE070F17401BB
:10525800F0A3E4F0A3F09007AF04F09007B2E4F0F5
:10526800A3F09007B504F0900752E4F0A3F0A3F080
:10527800A3F090075C04F0900782E4F09081BE12DE
:1052880018BB9007651218C7900769E4F0A3F0A34C
:10529800F09007CDF09007C1F09007B67480F0A3A6
:1052A800E4F09007BCF09007B4F0900838F0A3F051
:1052B800A3F0A3F0A3F0A3F0A3F0A3F0900841F0AB
:1052C8009007D0F0900820F0A3F09081BE1218BB90
:1052D8009008221218C79081BE1218BB9008261297
:1052E80018C790082CE4F090082EF090082AF09047
:1052F8000844F0A3F0A3F0A3F0A3F0A3F0A3F0A355
:10530800F078497907E8246FF582E93400F5837469
:10531800FFF00E88828983A3A882A983EEC3940430
:1053280040E37A497B077858790888828983E0C006
:10533800E0EA2461F582EB3400F583D0E0F088825E
:105348008983A3A882A9838A828B83A3AA82AB8339
:10535800E8645D7003E9640870D07A497B077830A7
:10536800790788828983A3E0C0E0EA24E7F582EB25
:105378003400F583D0E0F088828983A3A882A983CA
:105388008A828B83A3AA82AB83E864387003E964BA
:105398000770CF900749E004F06401700890075146
:1053A800E090074BF07A4D7B07024D30C082C083F6
:1053B800900750E4F090074FF0900749F0A3F0A34E
:1053C80074FFF075E1F10242E0C082C08378007991
:1053D80000900750E06004784D790788828983A39C
:1053E800A3A3A3E0F90242E074F6121A24EAFEEB42
:1053F800FF8E828F83A3A3A3E0600F8E828F83A387
:10540800A3A3E4F090074AE014F0900749E014F0F1
:10541800700690074B74FFF08E828F83A3A3E4F08D
:1054280090085DE0700D90074AE06401700579000E
:10543800121061EE2465F582EF3400F583E0F8A3DD
:10544800E0F9E8496029EE2465F8EF3400F98808A6
:1054580089098882F583E0FCA3E0FD90074BE0FA18
:105468007B00120C35850882850983E4F0A3F0EEF1
:10547800FAEFFB120F95024DFC74F7121A24EAFE9C
:10548800EBFF8E828F83A3A3A3A3E0FA7B00120C09
:1054980077EEFAEFFB120EE7120F7D024D30C08255
:1054A800C0837830790788828983A3E4F088828969
:1054B80083A3A882A983E864387003E9640770E6C7
:1054C80090073102480D74F6121A24EAFEEBFFEC3D
:1054D8002403F8ED3400F988088909EC2407F8ED6D
:1054E8003400F9E8FCE9FD8C828D83E0F8A3E0F94B
:1054F800850882850983E0FAA3E0FB121942EE24AD
:105508000DF582EF3400F583E8F0A3E9F08C828D85
:1055180083E0F8A3E0F9850882850983E0FAA3E02F
:10552800FB1219428B09EA45096013EE240DF58236
:10553800EF3400F583E02401F0A3E03400F0024DDD
:10554800FC74F6121A24EAFEEBFFEE242EF582EF25
:105558003400F583E0FCA3E0FD780079FAECFAED7D
:10556800FB121942EE2470F582EF3400F583E8F05F
:10557800A3E9F0780079FAECFAEDFB1219428B09ED
:10558800EA45096013EE2470F582EF3400F583E0F4
:105598002401F0A3E03400F0024DFC74F0121A2448
:1055A800EAFEEBFF7410121A18780812189D1210F0
:1055B8001F8A0C8B0D8C0E8D0F90815A780C121847
:1055C80011908172780C121877780C121C338E8225
:1055D8008F83E0F8A3E0F5838882A3A31218BB1297
:1055E800260E74041219E3E960030256F08E828FC6
:1055F80083E02402F8A3E03400F9E8FAE9FB8A82A0
:105608008B837808121824908172780812189D8A62
:10561800828B83780812188AEE240BF582EF340007
:10562800F583C082C0838E828F83A3A3A3A3A3E044
:105638002401F8A3E03400F9D083D082E068700335
:10564800A3E069700579010256F28E828F83A3A3C5
:10565800A3A3A3A3A3E02401F0A3E03400F0EE2465
:1056680074F582EF3400F583E064017036EE24753A
:10567800F582EF3400F583E0F8A3E0F98E828F839A
:10568800A3A3A3A3A3A3A3E0687003A3E069701373
:10569800EE2475F582EF3400F583E02401F0A3E0F1
:1056A8003400F0EE2480F582EF3400F583E06401E5
:1056B8007036EE2481F582EF3400F583E0F8A3E03C
:1056C800F98E828F83A3A3A3A3A3A3A3E068700387
:1056D800A3E0697013EE2481F582EF3400F583E0CE
:1056E8002401F0A3E03400F079007F08021AF67470
:1056F800F7121A2490074BE0F875F004A4C8AAF032
:105708002AF9744D28FE740739FF8028EE2465F8BD
:10571800EF3400F988828983E0FCA3E0FD88828960
:1057280083E4F0A3F08E828F83A3A3A3A3E0FA7B84
:1057380000120C35EE2465F582EF3400F583E0F8AD
:10574800A3E0F9E849604FEE2464F582EF3400F5F0
:1057580083E0F5087808121C3BEE2463F582EF34E9
:1057680000F583E0F9EE2465F582EF3400F583E077
:10577800FCA3E0FDEEFAEFFB120F1174011219E31E
:10578800E96089EE2465F582EF3400F583E0F8A33B
:10579800E0F9E84970137C007D008E828F83A3A313
:1057A800A3A3E0FA7B00120C35024D3074F2121AF2
:1057B80024EAFEEBFF890A740E121A18E0FAEE24A6
:1057C80062F582EF3400F583E064016003025880DB
:1057D8009061D0E0F87480C398F50CEE2483F582CC
:1057E800EF3400F583E060047804800278008908CB
:1057F800E928F8E43400F9E824020808E93400F953
:10580800E50C98E499A2D265D0334068EA70057532
:105818000B028003750B01E06039750900780812E6
:105828001C377ABB7B08120F4774021219E37508FC
:10583800BB7509087808121C37AC0AA90BEEFAEFF9
:10584800FB120F6574021219E37404250AF50A7C29
:10585800BB7D087401250AF5D9850BD9E50A600DC9
:105868008C828D83F8E0F5D9A318E870F875E19576
:10587800790080067907800279FF7F06021AF6C050
:1058880082C083E960208C828D83E08A828B83F0DA
:105898008C828D83A3AC82AD838A828B83A3AA82F8
:1058A800AB8319E970E0ECFAEDFB0242E074EA120E
:1058B8001A24907803E06442705E9008BAE014F00D
:1058C8007056C2AF1258CF00782AD0E0F618D0E050
:1058D800F6E59F5407F97005908152800390814E38
:1058E800780812189DE9C4C0E07829E65508F5083B
:1058F80008E65509F509740B78081219ABD0E025AC
:1059080008F8906270E0A2E740F8E8C3339062724A
:10591800F0906270E0D2E0F090074BE0F470030280
:105928005CD8E0F875F004A4C8AAF02AF9744D28E8
:10593800FE740739FFEE2402F582EF3401F583E0A7
:10594800F8A3E0F9E849601EEE2402F582EF34017D
:10595800F583E0FAA3E0FBEE2401F582EF3401F5CC
:1059680083E0F912043D8E828F83A3A3A3A3A3A38C
:10597800A3E0F8A3E0F98E828F83A3A3A3A3A3E8EF
:10598800F0A3E9F0906054E0900724F0906055E0AF
:10599800900725F0906056E0900726F0906057E059
:1059A800900727F0906058E0900728F0906059E041
:1059B800900729F090605AE090072AF090605BE029
:1059C80090072BF090605CE0FC90072CF090605DF5
:1059D800E0FB90072DF090605EE0FD90072EF090C0
:1059E800605FE0FA90072FF090072AE08C082508FE
:1059F800F8E43400F98D08E82508F8E93400F98B53
:105A080008E82508F8E93400F98A08E82508FAE9D9
:105A18003400FBEE24F7F582EF3400F583E02AF03A
:105A2800A3E03BF08C08EE24F9F582EF3400F5830F
:105A3800E02508F0A3E03400F0EE24FBF582EF3413
:105A480000F583E02401F0A3E03400F0EE24FFF534
:105A580082EF3400F583E0F8A3E0F9E8496042906A
:105A68006000E0C333FCE433FDE82CF582E93DF542
:105A780083E02AF0A3E03BF0906000E0FA90072C66
:105A8800E0FCEAC333FAE433FBE82AF8E93BF9E837
:105A9800244AF582E93400F583E02CF0A3E03400D1
:105AA800F090072AE0701190072DE0700BA3E070CA
:105AB80007A3E07003025BB88E828F83A3A3A3A31E
:105AC800A3E0F8A3E0F9EE240DF582EF3400F583A6
:105AD800E028F8A3E039F9EE240BF582EF3400F55D
:105AE80083E8F0A3E9F0EE240FF582EF3400F583A4
:105AF800E4F0EE241CF582EF3400F583E0640170D5
:105B08001EEE2420F582EF3400F583E0F8A3E0F9D7
:105B1800EE241DF582EF3400F583E8F0A3E9F09058
:105B28000725E06052EE241CF582EF3400F58374FB
:105B380001F0EE246AF582EF3400F583E07038EE68
